{
	"data": {
		"bytecode": {
			"linkReferences": {},
			"object": "60806040526040518060400160405280600581526020017f2e6a736f6e000000000000000000000000000000000000000000000000000000815250600a908051906020019062000051929190620006c5565b506103e8600e556000600f5573326c977e6efc84e512bb9c30f76e30c160ed06fb601260006101000a81548173ffffffffffffffffffffffffffffffffffffffff021916908373ffffffffffffffffffffffffffffffffffffffff1602179055506001601460006101000a81548160ff0219169083151502179055506001601460016101000a81548160ff0219169083151502179055506001601460026101000a81548160ff0219169083151502179055503480156200011057600080fd5b50604051620071703803806200717083398181016040528101906200013691906200080a565b6040518060400160405280600b81526020017f57656972642050756e6b730000000000000000000000000000000000000000008152506040518060400160405280600281526020017f57500000000000000000000000000000000000000000000000000000000000008152508160009080519060200190620001ba929190620006c5565b508060019080519060200190620001d3929190620006c5565b505050620001f6620001ea620002dc60201b60201c565b620002e460201b60201c565b6200020784620003aa60201b60201c565b82600d60006101000a81548173ffffffffffffffffffffffffffffffffffffffff021916908373ffffffffffffffffffffffffffffffffffffffff16021790555062000259816200045560201b60201c565b6200026e6000801b336200052860201b60201c565b620002a07f8f4f2da22e8ac8f11e15f9fc141cddbb5deea8800186560abb6e68c5496619a9836200052860201b60201c565b620002d27f352d05fe3946dbe49277552ba941e744d5a96d9c60bc1ba0ea5f1d3ae000f7c8826200052860201b60201c565b5050505062000af0565b600033905090565b6000600660009054906101000a900473ffffffffffffffffffffffffffffffffffffffff16905081600660006101000a81548173ffffffffffffffffffffffffffffffffffffffff021916908373ffffffffffffffffffffffffffffffffffffffff1602179055508173ffffffffffffffffffffffffffffffffffffffff168173ffffffffffffffffffffffffffffffffffffffff167f8be0079c531659141344cd1fd0a4f28419497f9722a3daafe3b4186f6b6457e060405160405180910390a35050565b620003ba620002dc60201b60201c565b73ffffffffffffffffffffffffffffffffffffffff16620003e06200053e60201b60201c565b73ffffffffffffffffffffffffffffffffffffffff161462000439576040517f08c379a00000000000000000000000000000000000000000000000000000000081526004016200043090620008c2565b60405180910390fd5b806009908051906020019062000451929190620006c5565b5050565b62000465620002dc60201b60201c565b73ffffffffffffffffffffffffffffffffffffffff166200048b6200053e60201b60201c565b73ffffffffffffffffffffffffffffffffffffffff1614620004e4576040517f08c379a0000000000000000000000000000000000000000000000000000000008152600401620004db90620008c2565b60405180910390fd5b80601160006101000a81548173ffffffffffffffffffffffffffffffffffffffff021916908373ffffffffffffffffffffffffffffffffffffffff16021790555050565b6200053a82826200056860201b60201c565b5050565b6000600660009054906101000a900473ffffffffffffffffffffffffffffffffffffffff16905090565b6200057a82826200065a60201b60201c565b620006565760016007600084815260200190815260200160002060000160008373ffffffffffffffffffffffffffffffffffffffff1673ffffffffffffffffffffffffffffffffffffffff16815260200190815260200160002060006101000a81548160ff021916908315150217905550620005fb620002dc60201b60201c565b73ffffffffffffffffffffffffffffffffffffffff168173ffffffffffffffffffffffffffffffffffffffff16837f2f8788117e7eff1d82e926ec794901d17c78024a50270940304540a733656f0d60405160405180910390a45b5050565b60006007600084815260200190815260200160002060000160008373ffffffffffffffffffffffffffffffffffffffff1673ffffffffffffffffffffffffffffffffffffffff16815260200190815260200160002060009054906101000a900460ff16905092915050565b828054620006d390620009be565b90600052602060002090601f016020900481019282620006f7576000855562000743565b82601f106200071257805160ff191683800117855562000743565b8280016001018555821562000743579182015b828111156200074257825182559160200191906001019062000725565b5b50905062000752919062000756565b5090565b5b808211156200077157600081600090555060010162000757565b5090565b60006200078c62000786846200090d565b620008e4565b905082815260208101848484011115620007ab57620007aa62000a8d565b5b620007b884828562000988565b509392505050565b600081519050620007d18162000ad6565b92915050565b600082601f830112620007ef57620007ee62000a88565b5b81516200080184826020860162000775565b91505092915050565b6000806000806080858703121562000827576200082662000a97565b5b600085015167ffffffffffffffff81111562000848576200084762000a92565b5b6200085687828801620007d7565b94505060206200086987828801620007c0565b93505060406200087c87828801620007c0565b92505060606200088f87828801620007c0565b91505092959194509250565b6000620008aa60208362000943565b9150620008b78262000aad565b602082019050919050565b60006020820190508181036000830152620008dd816200089b565b9050919050565b6000620008f062000903565b9050620008fe8282620009f4565b919050565b6000604051905090565b600067ffffffffffffffff8211156200092b576200092a62000a59565b5b620009368262000a9c565b9050602081019050919050565b600082825260208201905092915050565b6000620009618262000968565b9050919050565b600073ffffffffffffffffffffffffffffffffffffffff82169050919050565b60005b83811015620009a85780820151818401526020810190506200098b565b83811115620009b8576000848401525b50505050565b60006002820490506001821680620009d757607f821691505b60208210811415620009ee57620009ed62000a2a565b5b50919050565b620009ff8262000a9c565b810181811067ffffffffffffffff8211171562000a215762000a2062000a59565b5b80604052505050565b7f4e487b7100000000000000000000000000000000000000000000000000000000600052602260045260246000fd5b7f4e487b7100000000000000000000000000000000000000000000000000000000600052604160045260246000fd5b600080fd5b600080fd5b600080fd5b600080fd5b6000601f19601f8301169050919050565b7f4f776e61626c653a2063616c6c6572206973206e6f7420746865206f776e6572600082015250565b62000ae18162000954565b811462000aed57600080fd5b50565b6166708062000b006000396000f3fe608060405234801561001057600080fd5b50600436106103275760003560e01c80638da5cb5b116101b8578063c668286211610104578063d5abeb01116100a2578063f0756c561161007c578063f0756c5614610988578063f2fde38b146109a6578063f3850630146109c2578063f5ad7ca9146109de57610327565b8063d5abeb011461091c578063e4fe1a591461093a578063e985e9c51461095857610327565b8063c916bbe5116100de578063c916bbe5146108ac578063cf2c52cb146108c8578063d51e7317146108e4578063d547741f1461090057610327565b8063c668286214610840578063c690023e1461085e578063c87b56dd1461087c57610327565b8063a217fddf11610171578063a7c991951161014b578063a7c99195146107cc578063a89ae4ba146107e8578063ad5c464814610806578063b88d4fde1461082457610327565b8063a217fddf14610774578063a22cb46514610792578063a3b0b5a3146107ae57610327565b80638da5cb5b1461069e578063918498ae146106bc57806391d14854146106ec5780639559c0bd1461071c57806395d89b411461073a5780639c8d41561461075857610327565b806338013f0211610277578063520e61e9116102305780636352211e1161020a5780636352211e146106165780636c0360eb1461064657806370a0823114610664578063715018a61461069457610327565b8063520e61e9146105ac5780635283da09146105dc57806355f804b3146105fa57610327565b806338013f02146104ee57806342842e0e1461050c578063438b6300146105285780634431abf2146105585780634c69c00f1461057457806350c88ae01461059057610327565b806318160ddd116102e45780632f2ff15d116102be5780632f2ff15d1461047c57806335d690591461049857806335febec0146104b657806336568abe146104d257610327565b806318160ddd1461041257806323b872dd14610430578063248a9ca31461044c57610327565b806301ffc9a71461032c57806306d9ff5d1461035c57806306fdde031461037857806307a974fc14610396578063081812fc146103c6578063095ea7b3146103f6575b600080fd5b61034660048036038101906103419190614930565b6109fa565b60405161035391906153bb565b60405180910390f35b6103766004803603810190610371919061454b565b610a0c565b005b610380610ae3565b60405161038d9190615427565b60405180910390f35b6103b060048036038101906103ab91906149d3565b610b75565b6040516103bd91906153bb565b60405180910390f35b6103e060048036038101906103db91906149d3565b610b95565b6040516103ed9190615247565b60405180910390f35b610410600480360381019061040b9190614647565b610c1a565b005b61041a610d32565b60405161042791906157eb565b60405180910390f35b61044a60048036038101906104459190614475565b610d38565b005b610466600480360381019061046191906148c3565b610d98565b60405161047391906153d6565b60405180910390f35b610496600480360381019061049191906148f0565b610db8565b005b6104a0610dd9565b6040516104ad91906153bb565b60405180910390f35b6104d060048036038101906104cb919061480d565b610dec565b005b6104ec60048036038101906104e791906148f0565b6111ee565b005b6104f6611271565b60405161050391906153d6565b60405180910390f35b61052660048036038101906105219190614475565b611295565b005b610542600480360381019061053d9190614408565b6112b5565b60405161054f9190615399565b60405180910390f35b610572600480360381019061056d9190614687565b6113cf565b005b61058e60048036038101906105899190614408565b611666565b005b6105aa60048036038101906105a59190614869565b611726565b005b6105c660048036038101906105c19190614795565b6117bf565b6040516105d391906153bb565b60405180910390f35b6105e46118ef565b6040516105f191906153bb565b60405180910390f35b610614600480360381019061060f919061498a565b611902565b005b610630600480360381019061062b91906149d3565b611998565b60405161063d9190615247565b60405180910390f35b61064e611a4a565b60405161065b9190615427565b60405180910390f35b61067e60048036038101906106799190614408565b611ad8565b60405161068b91906157eb565b60405180910390f35b61069c611b90565b005b6106a6611c18565b6040516106b39190615247565b60405180910390f35b6106d660048036038101906106d191906149d3565b611c42565b6040516106e391906157eb565b60405180910390f35b610706600480360381019061070191906148f0565b611c5a565b60405161071391906153bb565b60405180910390f35b610724611cc5565b60405161073191906157eb565b60405180910390f35b610742611cca565b60405161074f9190615427565b60405180910390f35b610772600480360381019061076d91906146ff565b611d5c565b005b61077c611f48565b60405161078991906153d6565b60405180910390f35b6107ac60048036038101906107a791906145a7565b611f4f565b005b6107b6611f65565b6040516107c391906153d6565b60405180910390f35b6107e660048036038101906107e19190614869565b611f89565b005b6107f0612022565b6040516107fd9190615247565b60405180910390f35b61080e612048565b60405161081b919061540c565b60405180910390f35b61083e600480360381019061083991906144c8565b61206e565b005b6108486120d0565b6040516108559190615427565b60405180910390f35b61086661215e565b60405161087391906153f1565b60405180910390f35b610896600480360381019061089191906149d3565b612184565b6040516108a39190615427565b60405180910390f35b6108c660048036038101906108c1919061454b565b61222e565b005b6108e260048036038101906108dd91906145e7565b61265a565b005b6108fe60048036038101906108f991906149d3565b612806565b005b61091a600480360381019061091591906148f0565b612887565b005b6109246128a8565b60405161093191906157eb565b60405180910390f35b6109426128ae565b60405161094f91906153bb565b60405180910390f35b610972600480360381019061096d9190614435565b6128c1565b60405161097f91906153bb565b60405180910390f35b610990612955565b60405161099d91906157eb565b60405180910390f35b6109c060048036038101906109bb9190614408565b61295b565b005b6109dc60048036038101906109d79190614408565b612a53565b005b6109f860048036038101906109f39190614869565b612b13565b005b6000610a0582612bac565b9050919050565b7f352d05fe3946dbe49277552ba941e744d5a96d9c60bc1ba0ea5f1d3ae000f7c8610a3e81610a39612c26565b611c5a565b600890610a81576040517f08c379a0000000000000000000000000000000000000000000000000000000008152600401610a789190615449565b60405180910390fd5b5060005b8251811015610add57610ab284848381518110610aa557610aa4615d43565b5b6020026020010151612c2e565b600f6000815480929190610ac590615c32565b91905055508080610ad590615c32565b915050610a85565b50505050565b606060008054610af290615bcf565b80601f0160208091040260200160405190810160405280929190818152602001828054610b1e90615bcf565b8015610b6b5780601f10610b4057610100808354040283529160200191610b6b565b820191906000526020600020905b815481529060010190602001808311610b4e57829003601f168201915b5050505050905090565b60106020528060005260406000206000915054906101000a900460ff1681565b6000610ba082612e08565b610bdf576040517f08c379a0000000000000000000000000000000000000000000000000000000008152600401610bd69061568b565b60405180910390fd5b6004600083815260200190815260200160002060009054906101000a900473ffffffffffffffffffffffffffffffffffffffff169050919050565b6000610c2582611998565b90508073ffffffffffffffffffffffffffffffffffffffff168373ffffffffffffffffffffffffffffffffffffffff161415610c96576040517f08c379a0000000000000000000000000000000000000000000000000000000008152600401610c8d9061570b565b60405180910390fd5b8073ffffffffffffffffffffffffffffffffffffffff16610cb5612c26565b73ffffffffffffffffffffffffffffffffffffffff161480610ce45750610ce381610cde612c26565b6128c1565b5b610d23576040517f08c379a0000000000000000000000000000000000000000000000000000000008152600401610d1a906155eb565b60405180910390fd5b610d2d8383612e74565b505050565b600f5481565b610d49610d43612c26565b82612f2d565b610d88576040517f08c379a0000000000000000000000000000000000000000000000000000000008152600401610d7f9061574b565b60405180910390fd5b610d9383838361300b565b505050565b600060076000838152602001908152602001600020600101549050919050565b610dc182610d98565b610dca81613272565b610dd48383613286565b505050565b601460009054906101000a900460ff1681565b601460019054906101000a900460ff16610e0557600080fd5b60006002601354610e1691906159cc565b60018451610e249190615a57565b610e2e91906159fd565b601354610e3b9190615976565b905080601260009054906101000a900473ffffffffffffffffffffffffffffffffffffffff1673ffffffffffffffffffffffffffffffffffffffff1663dd62ed3e33306040518363ffffffff1660e01b8152600401610e9b929190615262565b60206040518083038186803b158015610eb357600080fd5b505afa158015610ec7573d6000803e3d6000fd5b505050506040513d601f19601f82011682018060405250810190610eeb9190614a00565b1015610f2c576040517f08c379a0000000000000000000000000000000000000000000000000000000008152600401610f239061550b565b60405180910390fd5b80821015610f6f576040517f08c379a0000000000000000000000000000000000000000000000000000000008152600401610f66906156eb565b60405180910390fd5b601260009054906101000a900473ffffffffffffffffffffffffffffffffffffffff1673ffffffffffffffffffffffffffffffffffffffff166323b872dd33601160009054906101000a900473ffffffffffffffffffffffffffffffffffffffff16856040518463ffffffff1660e01b8152600401610ff09392919061528b565b602060405180830381600087803b15801561100a57600080fd5b505af115801561101e573d6000803e3d6000fd5b505050506040513d601f19601f820116820180604052508101906110429190614896565b50601483511115611088576040517f08c379a000000000000000000000000000000000000000000000000000000000815260040161107f9061576b565b60405180910390fd5b60005b83518110156111af576110b78482815181106110aa576110a9615d43565b5b6020026020010151611998565b73ffffffffffffffffffffffffffffffffffffffff163373ffffffffffffffffffffffffffffffffffffffff16148482815181106110f8576110f7615d43565b5b602002602001015160405160200161111091906151e7565b60405160208183030381529060405290611160576040517f08c379a00000000000000000000000000000000000000000000000000000000081526004016111579190615427565b60405180910390fd5b5061118484828151811061117757611176615d43565b5b6020026020010151613367565b600f600081548092919061119790615ba5565b919050555080806111a790615c32565b91505061108b565b507f304cfb620bc5a605db7a6151ece130af99f274449f653b95084688029e0467a033846040516111e192919061530e565b60405180910390a1505050565b6111f6612c26565b73ffffffffffffffffffffffffffffffffffffffff168173ffffffffffffffffffffffffffffffffffffffff1614611263576040517f08c379a000000000000000000000000000000000000000000000000000000000815260040161125a906157ab565b60405180910390fd5b61126d8282613484565b5050565b7f352d05fe3946dbe49277552ba941e744d5a96d9c60bc1ba0ea5f1d3ae000f7c881565b6112b08383836040518060200160405280600081525061206e565b505050565b606060006112c283611ad8565b905060008167ffffffffffffffff8111156112e0576112df615d72565b5b60405190808252806020026020018201604052801561130e5781602001602082028036833780820191505090505b50905060006001905060005b838110801561132b5750600e548211155b156113c35761133982612e08565b156113be57600061134983611998565b90508673ffffffffffffffffffffffffffffffffffffffff168173ffffffffffffffffffffffffffffffffffffffff1614156113ae578284838151811061139357611392615d43565b5b60200260200101818152505081806113aa90615c32565b9250505b82806113b990615c32565b935050505b61131a565b82945050505050919050565b6113d7612c26565b73ffffffffffffffffffffffffffffffffffffffff166113f5611c18565b73ffffffffffffffffffffffffffffffffffffffff161461144b576040517f08c379a0000000000000000000000000000000000000000000000000000000008152600401611442906156cb565b60405180910390fd5b601460009054906101000a900460ff161561149b576040517f08c379a00000000000000000000000000000000000000000000000000000000081526004016114929061572b565b60405180910390fd5b600e548151600f546114ad9190615976565b11156114ee576040517f08c379a00000000000000000000000000000000000000000000000000000000081526004016114e5906155ab565b60405180910390fd5b60005b815181101561166157600c600083838151811061151157611510615d43565b5b6020026020010151815260200190815260200160002060009054906101000a900460ff161582828151811061154957611548615d43565b5b602002602001015160405160200161156191906151c1565b604051602081830303815290604052906115b1576040517f08c379a00000000000000000000000000000000000000000000000000000000081526004016115a89190615427565b60405180910390fd5b506115f08382815181106115c8576115c7615d43565b5b60200260200101518383815181106115e3576115e2615d43565b5b6020026020010151612c2e565b600f600081548092919061160390615c32565b91905055506001600c600084848151811061162157611620615d43565b5b6020026020010151815260200190815260200160002060006101000a81548160ff021916908315150217905550808061165990615c32565b9150506114f1565b505050565b61166e612c26565b73ffffffffffffffffffffffffffffffffffffffff1661168c611c18565b73ffffffffffffffffffffffffffffffffffffffff16146116e2576040517f08c379a00000000000000000000000000000000000000000000000000000000081526004016116d9906156cb565b60405180910390fd5b80601160006101000a81548173ffffffffffffffffffffffffffffffffffffffff021916908373ffffffffffffffffffffffffffffffffffffffff16021790555050565b61172e612c26565b73ffffffffffffffffffffffffffffffffffffffff1661174c611c18565b73ffffffffffffffffffffffffffffffffffffffff16146117a2576040517f08c379a0000000000000000000000000000000000000000000000000000000008152600401611799906156cb565b60405180910390fd5b80601460006101000a81548160ff02191690831515021790555050565b60006117c9612c26565b73ffffffffffffffffffffffffffffffffffffffff166117e7611c18565b73ffffffffffffffffffffffffffffffffffffffff161461183d576040517f08c379a0000000000000000000000000000000000000000000000000000000008152600401611834906156cb565b60405180910390fd5b8151835114611881576040517f08c379a00000000000000000000000000000000000000000000000000000000081526004016118789061578b565b60405180910390fd5b60005b83518110156118e8576118cb8482815181106118a3576118a2615d43565b5b60200260200101518483815181106118be576118bd615d43565b5b6020026020010151613566565b156118d557600191505b80806118e090615c32565b915050611884565b5092915050565b601460019054906101000a900460ff1681565b61190a612c26565b73ffffffffffffffffffffffffffffffffffffffff16611928611c18565b73ffffffffffffffffffffffffffffffffffffffff161461197e576040517f08c379a0000000000000000000000000000000000000000000000000000000008152600401611975906156cb565b60405180910390fd5b8060099080519060200190611994929190613ff5565b5050565b6000806002600084815260200190815260200160002060009054906101000a900473ffffffffffffffffffffffffffffffffffffffff169050600073ffffffffffffffffffffffffffffffffffffffff168173ffffffffffffffffffffffffffffffffffffffff161415611a41576040517f08c379a0000000000000000000000000000000000000000000000000000000008152600401611a389061564b565b60405180910390fd5b80915050919050565b60098054611a5790615bcf565b80601f0160208091040260200160405190810160405280929190818152602001828054611a8390615bcf565b8015611ad05780601f10611aa557610100808354040283529160200191611ad0565b820191906000526020600020905b815481529060010190602001808311611ab357829003601f168201915b505050505081565b60008073ffffffffffffffffffffffffffffffffffffffff168273ffffffffffffffffffffffffffffffffffffffff161415611b49576040517f08c379a0000000000000000000000000000000000000000000000000000000008152600401611b409061562b565b60405180910390fd5b600360008373ffffffffffffffffffffffffffffffffffffffff1673ffffffffffffffffffffffffffffffffffffffff168152602001908152602001600020549050919050565b611b98612c26565b73ffffffffffffffffffffffffffffffffffffffff16611bb6611c18565b73ffffffffffffffffffffffffffffffffffffffff1614611c0c576040517f08c379a0000000000000000000000000000000000000000000000000000000008152600401611c03906156cb565b60405180910390fd5b611c16600061358a565b565b6000600660009054906101000a900473ffffffffffffffffffffffffffffffffffffffff16905090565b600b6020528060005260406000206000915090505481565b60006007600084815260200190815260200160002060000160008373ffffffffffffffffffffffffffffffffffffffff1673ffffffffffffffffffffffffffffffffffffffff16815260200190815260200160002060009054906101000a900460ff16905092915050565b601481565b606060018054611cd990615bcf565b80601f0160208091040260200160405190810160405280929190818152602001828054611d0590615bcf565b8015611d525780601f10611d2757610100808354040283529160200191611d52565b820191906000526020600020905b815481529060010190602001808311611d3557829003601f168201915b5050505050905090565b601460029054906101000a900460ff16611d7557600080fd5b60008282905090506014811115611dc1576040517f08c379a0000000000000000000000000000000000000000000000000000000008152600401611db8906157cb565b60405180910390fd5b60005b81811015611eeb576000848483818110611de157611de0615d43565b5b905060200201359050611df381611998565b73ffffffffffffffffffffffffffffffffffffffff16611e11612c26565b73ffffffffffffffffffffffffffffffffffffffff161481604051602001611e3991906151e7565b60405160208183030381529060405290611e89576040517f08c379a0000000000000000000000000000000000000000000000000000000008152600401611e809190615427565b60405180910390fd5b5060016010600083815260200190815260200160002060006101000a81548160ff021916908315150217905550611ebf81613367565b600f6000815480929190611ed290615ba5565b9190505550508080611ee390615c32565b915050611dc4565b50611ef4612c26565b73ffffffffffffffffffffffffffffffffffffffff167ff871896b17e9cb7a64941c62c188a4f5c621b86800e3d15452ece01ce56073df8484604051611f3b929190615375565b60405180910390a2505050565b6000801b81565b611f61611f5a612c26565b8383613650565b5050565b7f8f4f2da22e8ac8f11e15f9fc141cddbb5deea8800186560abb6e68c5496619a981565b611f91612c26565b73ffffffffffffffffffffffffffffffffffffffff16611faf611c18565b73ffffffffffffffffffffffffffffffffffffffff1614612005576040517f08c379a0000000000000000000000000000000000000000000000000000000008152600401611ffc906156cb565b60405180910390fd5b80601460026101000a81548160ff02191690831515021790555050565b601160009054906101000a900473ffffffffffffffffffffffffffffffffffffffff1681565b601260009054906101000a900473ffffffffffffffffffffffffffffffffffffffff1681565b61207f612079612c26565b83612f2d565b6120be576040517f08c379a00000000000000000000000000000000000000000000000000000000081526004016120b59061574b565b60405180910390fd5b6120ca848484846137bd565b50505050565b600a80546120dd90615bcf565b80601f016020809104026020016040519081016040528092919081815260200182805461210990615bcf565b80156121565780601f1061212b57610100808354040283529160200191612156565b820191906000526020600020905b81548152906001019060200180831161213957829003601f168201915b505050505081565b600d60009054906101000a900473ffffffffffffffffffffffffffffffffffffffff1681565b606061218f82612e08565b6121ce576040517f08c379a00000000000000000000000000000000000000000000000000000000081526004016121c5906156ab565b60405180910390fd5b60006121d8613819565b905060008151116121f85760405180602001604052806000815250612226565b80612202846138ab565b600a60405160200161221693929190615190565b6040516020818303038152906040525b915050919050565b601460009054906101000a900460ff1661227d576040517f08c379a00000000000000000000000000000000000000000000000000000000081526004016122749061560b565b60405180910390fd5b600d60009054906101000a900473ffffffffffffffffffffffffffffffffffffffff1673ffffffffffffffffffffffffffffffffffffffff1663e985e9c583306040518363ffffffff1660e01b81526004016122da929190615262565b60206040518083038186803b1580156122f257600080fd5b505afa158015612306573d6000803e3d6000fd5b505050506040513d601f19601f8201168201806040525081019061232a9190614896565b612369576040517f08c379a00000000000000000000000000000000000000000000000000000000081526004016123609061556b565b60405180910390fd5b600e548151600f5461237b9190615976565b11156123bc576040517f08c379a00000000000000000000000000000000000000000000000000000000081526004016123b3906155ab565b60405180910390fd5b60005b815181101561265557601060008383815181106123df576123de615d43565b5b6020026020010151815260200190815260200160002060009054906101000a900460ff1615612443576040517f08c379a000000000000000000000000000000000000000000000000000000000815260040161243a906155cb565b60405180910390fd5b600c600083838151811061245a57612459615d43565b5b6020026020010151815260200190815260200160002060009054906101000a900460ff161582828151811061249257612491615d43565b5b60200260200101516040516020016124aa91906151c1565b604051602081830303815290604052906124fa576040517f08c379a00000000000000000000000000000000000000000000000000000000081526004016124f19190615427565b60405180910390fd5b506000600b600084848151811061251457612513615d43565b5b60200260200101518152602001908152602001600020549050600d60009054906101000a900473ffffffffffffffffffffffffffffffffffffffff1673ffffffffffffffffffffffffffffffffffffffff1663f5298aca858360016040518463ffffffff1660e01b815260040161258d9392919061533e565b600060405180830381600087803b1580156125a757600080fd5b505af11580156125bb573d6000803e3d6000fd5b505050506125e3848484815181106125d6576125d5615d43565b5b6020026020010151612c2e565b600f60008154809291906125f690615c32565b91905055506001600c600085858151811061261457612613615d43565b5b6020026020010151815260200190815260200160002060006101000a81548160ff02191690831515021790555050808061264d90615c32565b9150506123bf565b505050565b7f8f4f2da22e8ac8f11e15f9fc141cddbb5deea8800186560abb6e68c5496619a961268c81612687612c26565b611c5a565b6008906126cf576040517f08c379a00000000000000000000000000000000000000000000000000000000081526004016126c69190615449565b60405180910390fd5b50602083839050141561274357600083838101906126ed91906149d3565b905060006010600083815260200190815260200160002060006101000a81548160ff0219169083151502179055506127258582612c2e565b600f600081548092919061273890615c32565b919050555050612800565b60008383810190612754919061474c565b905060008151905060005b818110156127fc576000601060008584815181106127805761277f615d43565b5b6020026020010151815260200190815260200160002060006101000a81548160ff0219169083151502179055506127d1878483815181106127c4576127c3615d43565b5b6020026020010151612c2e565b600f60008154809291906127e490615c32565b919050555080806127f490615c32565b91505061275f565b5050505b50505050565b7f352d05fe3946dbe49277552ba941e744d5a96d9c60bc1ba0ea5f1d3ae000f7c861283881612833612c26565b611c5a565b60089061287b576040517f08c379a00000000000000000000000000000000000000000000000000000000081526004016128729190615449565b60405180910390fd5b50816013819055505050565b61289082610d98565b61289981613272565b6128a38383613484565b505050565b600e5481565b601460029054906101000a900460ff1681565b6000600560008473ffffffffffffffffffffffffffffffffffffffff1673ffffffffffffffffffffffffffffffffffffffff16815260200190815260200160002060008373ffffffffffffffffffffffffffffffffffffffff1673ffffffffffffffffffffffffffffffffffffffff16815260200190815260200160002060009054906101000a900460ff16905092915050565b60135481565b612963612c26565b73ffffffffffffffffffffffffffffffffffffffff16612981611c18565b73ffffffffffffffffffffffffffffffffffffffff16146129d7576040517f08c379a00000000000000000000000000000000000000000000000000000000081526004016129ce906156cb565b60405180910390fd5b600073ffffffffffffffffffffffffffffffffffffffff168173ffffffffffffffffffffffffffffffffffffffff161415612a47576040517f08c379a0000000000000000000000000000000000000000000000000000000008152600401612a3e906154ab565b60405180910390fd5b612a508161358a565b50565b612a5b612c26565b73ffffffffffffffffffffffffffffffffffffffff16612a79611c18565b73ffffffffffffffffffffffffffffffffffffffff1614612acf576040517f08c379a0000000000000000000000000000000000000000000000000000000008152600401612ac6906156cb565b60405180910390fd5b80600d60006101000a81548173ffffffffffffffffffffffffffffffffffffffff021916908373ffffffffffffffffffffffffffffffffffffffff16021790555050565b612b1b612c26565b73ffffffffffffffffffffffffffffffffffffffff16612b39611c18565b73ffffffffffffffffffffffffffffffffffffffff1614612b8f576040517f08c379a0000000000000000000000000000000000000000000000000000000008152600401612b86906156cb565b60405180910390fd5b80601460016101000a81548160ff02191690831515021790555050565b60007f7965db0b000000000000000000000000000000000000000000000000000000007bffffffffffffffffffffffffffffffffffffffffffffffffffffffff1916827bffffffffffffffffffffffffffffffffffffffffffffffffffffffff19161480612c1f5750612c1e82613a0c565b5b9050919050565b600033905090565b600073ffffffffffffffffffffffffffffffffffffffff168273ffffffffffffffffffffffffffffffffffffffff161415612c9e576040517f08c379a0000000000000000000000000000000000000000000000000000000008152600401612c959061566b565b60405180910390fd5b612ca781612e08565b15612ce7576040517f08c379a0000000000000000000000000000000000000000000000000000000008152600401612cde906154eb565b60405180910390fd5b612cf360008383613aee565b6001600360008473ffffffffffffffffffffffffffffffffffffffff1673ffffffffffffffffffffffffffffffffffffffff1681526020019081526020016000206000828254612d439190615976565b92505081905550816002600083815260200190815260200160002060006101000a81548173ffffffffffffffffffffffffffffffffffffffff021916908373ffffffffffffffffffffffffffffffffffffffff160217905550808273ffffffffffffffffffffffffffffffffffffffff16600073ffffffffffffffffffffffffffffffffffffffff167fddf252ad1be2c89b69c2b068fc378daa952ba7f163c4a11628f55a4df523b3ef60405160405180910390a4612e0460008383613af3565b5050565b60008073ffffffffffffffffffffffffffffffffffffffff166002600084815260200190815260200160002060009054906101000a900473ffffffffffffffffffffffffffffffffffffffff1673ffffffffffffffffffffffffffffffffffffffff1614159050919050565b816004600083815260200190815260200160002060006101000a81548173ffffffffffffffffffffffffffffffffffffffff021916908373ffffffffffffffffffffffffffffffffffffffff160217905550808273ffffffffffffffffffffffffffffffffffffffff16612ee783611998565b73ffffffffffffffffffffffffffffffffffffffff167f8c5be1e5ebec7d5bd14f71427d1e84f3dd0314c0f7b2291e5b200ac8c7c3b92560405160405180910390a45050565b6000612f3882612e08565b612f77576040517f08c379a0000000000000000000000000000000000000000000000000000000008152600401612f6e9061558b565b60405180910390fd5b6000612f8283611998565b90508073ffffffffffffffffffffffffffffffffffffffff168473ffffffffffffffffffffffffffffffffffffffff161480612fc45750612fc381856128c1565b5b8061300257508373ffffffffffffffffffffffffffffffffffffffff16612fea84610b95565b73ffffffffffffffffffffffffffffffffffffffff16145b91505092915050565b8273ffffffffffffffffffffffffffffffffffffffff1661302b82611998565b73ffffffffffffffffffffffffffffffffffffffff1614613081576040517f08c379a0000000000000000000000000000000000000000000000000000000008152600401613078906154cb565b60405180910390fd5b600073ffffffffffffffffffffffffffffffffffffffff168273ffffffffffffffffffffffffffffffffffffffff1614156130f1576040517f08c379a00000000000000000000000000000000000000000000000000000000081526004016130e89061552b565b60405180910390fd5b6130fc838383613aee565b613107600082612e74565b6001600360008573ffffffffffffffffffffffffffffffffffffffff1673ffffffffffffffffffffffffffffffffffffffff16815260200190815260200160002060008282546131579190615a57565b925050819055506001600360008473ffffffffffffffffffffffffffffffffffffffff1673ffffffffffffffffffffffffffffffffffffffff16815260200190815260200160002060008282546131ae9190615976565b92505081905550816002600083815260200190815260200160002060006101000a81548173ffffffffffffffffffffffffffffffffffffffff021916908373ffffffffffffffffffffffffffffffffffffffff160217905550808273ffffffffffffffffffffffffffffffffffffffff168473ffffffffffffffffffffffffffffffffffffffff167fddf252ad1be2c89b69c2b068fc378daa952ba7f163c4a11628f55a4df523b3ef60405160405180910390a461326d838383613af3565b505050565b6132838161327e612c26565b613af8565b50565b6132908282611c5a565b6133635760016007600084815260200190815260200160002060000160008373ffffffffffffffffffffffffffffffffffffffff1673ffffffffffffffffffffffffffffffffffffffff16815260200190815260200160002060006101000a81548160ff021916908315150217905550613308612c26565b73ffffffffffffffffffffffffffffffffffffffff168173ffffffffffffffffffffffffffffffffffffffff16837f2f8788117e7eff1d82e926ec794901d17c78024a50270940304540a733656f0d60405160405180910390a45b5050565b600061337282611998565b905061338081600084613aee565b61338b600083612e74565b6001600360008373ffffffffffffffffffffffffffffffffffffffff1673ffffffffffffffffffffffffffffffffffffffff16815260200190815260200160002060008282546133db9190615a57565b925050819055506002600083815260200190815260200160002060006101000a81549073ffffffffffffffffffffffffffffffffffffffff021916905581600073ffffffffffffffffffffffffffffffffffffffff168273ffffffffffffffffffffffffffffffffffffffff167fddf252ad1be2c89b69c2b068fc378daa952ba7f163c4a11628f55a4df523b3ef60405160405180910390a461348081600084613af3565b5050565b61348e8282611c5a565b156135625760006007600084815260200190815260200160002060000160008373ffffffffffffffffffffffffffffffffffffffff1673ffffffffffffffffffffffffffffffffffffffff16815260200190815260200160002060006101000a81548160ff021916908315150217905550613507612c26565b73ffffffffffffffffffffffffffffffffffffffff168173ffffffffffffffffffffffffffffffffffffffff16837ff6391f5c32d9c69d2a47ea670b442974b53935d1edc7fd64eb21e047a839171b60405160405180910390a45b5050565b600081600b6000858152602001908152602001600020819055506001905092915050565b6000600660009054906101000a900473ffffffffffffffffffffffffffffffffffffffff16905081600660006101000a81548173ffffffffffffffffffffffffffffffffffffffff021916908373ffffffffffffffffffffffffffffffffffffffff1602179055508173ffffffffffffffffffffffffffffffffffffffff168173ffffffffffffffffffffffffffffffffffffffff167f8be0079c531659141344cd1fd0a4f28419497f9722a3daafe3b4186f6b6457e060405160405180910390a35050565b8173ffffffffffffffffffffffffffffffffffffffff168373ffffffffffffffffffffffffffffffffffffffff1614156136bf576040517f08c379a00000000000000000000000000000000000000000000000000000000081526004016136b69061554b565b60405180910390fd5b80600560008573ffffffffffffffffffffffffffffffffffffffff1673ffffffffffffffffffffffffffffffffffffffff16815260200190815260200160002060008473ffffffffffffffffffffffffffffffffffffffff1673ffffffffffffffffffffffffffffffffffffffff16815260200190815260200160002060006101000a81548160ff0219169083151502179055508173ffffffffffffffffffffffffffffffffffffffff168373ffffffffffffffffffffffffffffffffffffffff167f17307eab39ab6107e8899845ad3d59bd9653f200f220920489ca2b5937696c31836040516137b091906153bb565b60405180910390a3505050565b6137c884848461300b565b6137d484848484613b95565b613813576040517f08c379a000000000000000000000000000000000000000000000000000000000815260040161380a9061548b565b60405180910390fd5b50505050565b60606009805461382890615bcf565b80601f016020809104026020016040519081016040528092919081815260200182805461385490615bcf565b80156138a15780601f10613876576101008083540402835291602001916138a1565b820191906000526020600020905b81548152906001019060200180831161388457829003601f168201915b5050505050905090565b606060008214156138f3576040518060400160405280600181526020017f30000000000000000000000000000000000000000000000000000000000000008152509050613a07565b600082905060005b6000821461392557808061390e90615c32565b915050600a8261391e91906159cc565b91506138fb565b60008167ffffffffffffffff81111561394157613940615d72565b5b6040519080825280601f01601f1916602001820160405280156139735781602001600182028036833780820191505090505b5090505b60008514613a005760018261398c9190615a57565b9150600a8561399b9190615c85565b60306139a79190615976565b60f81b8183815181106139bd576139bc615d43565b5b60200101907effffffffffffffffffffffffffffffffffffffffffffffffffffffffffffff1916908160001a905350600a856139f991906159cc565b9450613977565b8093505050505b919050565b60007f80ac58cd000000000000000000000000000000000000000000000000000000007bffffffffffffffffffffffffffffffffffffffffffffffffffffffff1916827bffffffffffffffffffffffffffffffffffffffffffffffffffffffff19161480613ad757507f5b5e139f000000000000000000000000000000000000000000000000000000007bffffffffffffffffffffffffffffffffffffffffffffffffffffffff1916827bffffffffffffffffffffffffffffffffffffffffffffffffffffffff1916145b80613ae75750613ae682613d2c565b5b9050919050565b505050565b505050565b613b028282611c5a565b613b9157613b278173ffffffffffffffffffffffffffffffffffffffff166014613d96565b613b358360001c6020613d96565b604051602001613b4692919061520d565b6040516020818303038152906040526040517f08c379a0000000000000000000000000000000000000000000000000000000008152600401613b889190615427565b60405180910390fd5b5050565b6000613bb68473ffffffffffffffffffffffffffffffffffffffff16613fd2565b15613d1f578373ffffffffffffffffffffffffffffffffffffffff1663150b7a02613bdf612c26565b8786866040518563ffffffff1660e01b8152600401613c0194939291906152c2565b602060405180830381600087803b158015613c1b57600080fd5b505af1925050508015613c4c57506040513d601f19601f82011682018060405250810190613c49919061495d565b60015b613ccf573d8060008114613c7c576040519150601f19603f3d011682016040523d82523d6000602084013e613c81565b606091505b50600081511415613cc7576040517f08c379a0000000000000000000000000000000000000000000000000000000008152600401613cbe9061548b565b60405180910390fd5b805181602001fd5b63150b7a0260e01b7bffffffffffffffffffffffffffffffffffffffffffffffffffffffff1916817bffffffffffffffffffffffffffffffffffffffffffffffffffffffff191614915050613d24565b600190505b949350505050565b60007f01ffc9a7000000000000000000000000000000000000000000000000000000007bffffffffffffffffffffffffffffffffffffffffffffffffffffffff1916827bffffffffffffffffffffffffffffffffffffffffffffffffffffffff1916149050919050565b606060006002836002613da991906159fd565b613db39190615976565b67ffffffffffffffff811115613dcc57613dcb615d72565b5b6040519080825280601f01601f191660200182016040528015613dfe5781602001600182028036833780820191505090505b5090507f300000000000000000000000000000000000000000000000000000000000000081600081518110613e3657613e35615d43565b5b60200101907effffffffffffffffffffffffffffffffffffffffffffffffffffffffffffff1916908160001a9053507f780000000000000000000000000000000000000000000000000000000000000081600181518110613e9a57613e99615d43565b5b60200101907effffffffffffffffffffffffffffffffffffffffffffffffffffffffffffff1916908160001a90535060006001846002613eda91906159fd565b613ee49190615976565b90505b6001811115613f84577f3031323334353637383961626364656600000000000000000000000000000000600f861660108110613f2657613f25615d43565b5b1a60f81b828281518110613f3d57613f3c615d43565b5b60200101907effffffffffffffffffffffffffffffffffffffffffffffffffffffffffffff1916908160001a905350600485901c945080613f7d90615ba5565b9050613ee7565b5060008414613fc8576040517f08c379a0000000000000000000000000000000000000000000000000000000008152600401613fbf9061546b565b60405180910390fd5b8091505092915050565b6000808273ffffffffffffffffffffffffffffffffffffffff163b119050919050565b82805461400190615bcf565b90600052602060002090601f016020900481019282614023576000855561406a565b82601f1061403c57805160ff191683800117855561406a565b8280016001018555821561406a579182015b8281111561406957825182559160200191906001019061404e565b5b509050614077919061407b565b5090565b5b8082111561409457600081600090555060010161407c565b5090565b60006140ab6140a68461582b565b615806565b905080838252602082019050828560208602820111156140ce576140cd615dab565b5b60005b858110156140fe57816140e488826141fc565b8452602084019350602083019250506001810190506140d1565b5050509392505050565b600061411b61411684615857565b615806565b9050808382526020820190508285602086028201111561413e5761413d615dab565b5b60005b8581101561416e578161415488826143de565b845260208401935060208301925050600181019050614141565b5050509392505050565b600061418b61418684615883565b615806565b9050828152602081018484840111156141a7576141a6615db0565b5b6141b2848285615b63565b509392505050565b60006141cd6141c8846158b4565b615806565b9050828152602081018484840111156141e9576141e8615db0565b5b6141f4848285615b63565b509392505050565b60008135905061420b816165c7565b92915050565b600082601f83011261422657614225615da6565b5b8135614236848260208601614098565b91505092915050565b60008083601f84011261425557614254615da6565b5b8235905067ffffffffffffffff81111561427257614271615da1565b5b60208301915083602082028301111561428e5761428d615dab565b5b9250929050565b600082601f8301126142aa576142a9615da6565b5b81356142ba848260208601614108565b91505092915050565b6000813590506142d2816165de565b92915050565b6000815190506142e7816165de565b92915050565b6000813590506142fc816165f5565b92915050565b6000813590506143118161660c565b92915050565b6000815190506143268161660c565b92915050565b60008083601f84011261434257614341615da6565b5b8235905067ffffffffffffffff81111561435f5761435e615da1565b5b60208301915083600182028301111561437b5761437a615dab565b5b9250929050565b600082601f83011261439757614396615da6565b5b81356143a7848260208601614178565b91505092915050565b600082601f8301126143c5576143c4615da6565b5b81356143d58482602086016141ba565b91505092915050565b6000813590506143ed81616623565b92915050565b60008151905061440281616623565b92915050565b60006020828403121561441e5761441d615dbf565b5b600061442c848285016141fc565b91505092915050565b6000806040838503121561444c5761444b615dbf565b5b600061445a858286016141fc565b925050602061446b858286016141fc565b9150509250929050565b60008060006060848603121561448e5761448d615dbf565b5b600061449c868287016141fc565b93505060206144ad868287016141fc565b92505060406144be868287016143de565b9150509250925092565b600080600080608085870312156144e2576144e1615dbf565b5b60006144f0878288016141fc565b9450506020614501878288016141fc565b9350506040614512878288016143de565b925050606085013567ffffffffffffffff81111561453357614532615db5565b5b61453f87828801614382565b91505092959194509250565b6000806040838503121561456257614561615dbf565b5b6000614570858286016141fc565b925050602083013567ffffffffffffffff81111561459157614590615db5565b5b61459d85828601614295565b9150509250929050565b600080604083850312156145be576145bd615dbf565b5b60006145cc858286016141fc565b92505060206145dd858286016142c3565b9150509250929050565b600080600060408486031215614600576145ff615dbf565b5b600061460e868287016141fc565b935050602084013567ffffffffffffffff81111561462f5761462e615db5565b5b61463b8682870161432c565b92509250509250925092565b6000806040838503121561465e5761465d615dbf565b5b600061466c858286016141fc565b925050602061467d858286016143de565b9150509250929050565b6000806040838503121561469e5761469d615dbf565b5b600083013567ffffffffffffffff8111156146bc576146bb615db5565b5b6146c885828601614211565b925050602083013567ffffffffffffffff8111156146e9576146e8615db5565b5b6146f585828601614295565b9150509250929050565b6000806020838503121561471657614715615dbf565b5b600083013567ffffffffffffffff81111561473457614733615db5565b5b6147408582860161423f565b92509250509250929050565b60006020828403121561476257614761615dbf565b5b600082013567ffffffffffffffff8111156147805761477f615db5565b5b61478c84828501614295565b91505092915050565b600080604083850312156147ac576147ab615dbf565b5b600083013567ffffffffffffffff8111156147ca576147c9615db5565b5b6147d685828601614295565b925050602083013567ffffffffffffffff8111156147f7576147f6615db5565b5b61480385828601614295565b9150509250929050565b6000806040838503121561482457614823615dbf565b5b600083013567ffffffffffffffff81111561484257614841615db5565b5b61484e85828601614295565b925050602061485f858286016143de565b9150509250929050565b60006020828403121561487f5761487e615dbf565b5b600061488d848285016142c3565b91505092915050565b6000602082840312156148ac576148ab615dbf565b5b60006148ba848285016142d8565b91505092915050565b6000602082840312156148d9576148d8615dbf565b5b60006148e7848285016142ed565b91505092915050565b6000806040838503121561490757614906615dbf565b5b6000614915858286016142ed565b9250506020614926858286016141fc565b9150509250929050565b60006020828403121561494657614945615dbf565b5b600061495484828501614302565b91505092915050565b60006020828403121561497357614972615dbf565b5b600061498184828501614317565b91505092915050565b6000602082840312156149a05761499f615dbf565b5b600082013567ffffffffffffffff8111156149be576149bd615db5565b5b6149ca848285016143b0565b91505092915050565b6000602082840312156149e9576149e8615dbf565b5b60006149f7848285016143de565b91505092915050565b600060208284031215614a1657614a15615dbf565b5b6000614a24848285016143f3565b91505092915050565b6000614a39838361515b565b60208301905092915050565b614a4e81615a8b565b82525050565b6000614a608385615938565b93507f07ffffffffffffffffffffffffffffffffffffffffffffffffffffffffffffff831115614a9357614a92615dba565b5b602083029250614aa4838584615b63565b82840190509392505050565b6000614abb8261590a565b614ac58185615938565b9350614ad0836158e5565b8060005b83811015614b01578151614ae88882614a2d565b9750614af38361592b565b925050600181019050614ad4565b5085935050505092915050565b614b1781615a9d565b82525050565b614b2681615aa9565b82525050565b6000614b3782615915565b614b418185615949565b9350614b51818560208601615b72565b614b5a81615dc4565b840191505092915050565b614b6e81615b09565b82525050565b614b7d81615b1b565b82525050565b614b8c81615b2d565b82525050565b6000614b9d82615920565b614ba7818561595a565b9350614bb7818560208601615b72565b614bc081615dc4565b840191505092915050565b6000614bd682615920565b614be0818561596b565b9350614bf0818560208601615b72565b80840191505092915050565b60008154614c0981615bcf565b614c13818661595a565b94506001821660008114614c2e5760018114614c4057614c73565b60ff1983168652602086019350614c73565b614c49856158f5565b60005b83811015614c6b57815481890152600182019150602081019050614c4c565b808801955050505b50505092915050565b60008154614c8981615bcf565b614c93818661596b565b94506001821660008114614cae5760018114614cbf57614cf2565b60ff19831686528186019350614cf2565b614cc8856158f5565b60005b83811015614cea57815481890152600182019150602081019050614ccb565b838801955050505b50505092915050565b6000614d0860208361595a565b9150614d1382615dd5565b602082019050919050565b6000614d2b60328361595a565b9150614d3682615dfe565b604082019050919050565b6000614d4e60268361595a565b9150614d5982615e4d565b604082019050919050565b6000614d7160258361595a565b9150614d7c82615e9c565b604082019050919050565b6000614d94601c8361595a565b9150614d9f82615eeb565b602082019050919050565b6000614db760228361595a565b9150614dc282615f14565b604082019050919050565b6000614dda60248361595a565b9150614de582615f63565b604082019050919050565b6000614dfd60198361595a565b9150614e0882615fb2565b602082019050919050565b6000614e2060218361595a565b9150614e2b82615fdb565b604082019050919050565b6000614e43601f8361596b565b9150614e4e8261602a565b601f82019050919050565b6000614e66602c8361595a565b9150614e7182616053565b604082019050919050565b6000614e89601e8361595a565b9150614e94826160a2565b602082019050919050565b6000614eac60268361595a565b9150614eb7826160cb565b604082019050919050565b6000614ecf60388361595a565b9150614eda8261611a565b604082019050919050565b6000614ef2601d8361596b565b9150614efd82616169565b601d82019050919050565b6000614f1560298361595a565b9150614f2082616192565b604082019050919050565b6000614f38602a8361595a565b9150614f43826161e1565b604082019050919050565b6000614f5b60298361595a565b9150614f6682616230565b604082019050919050565b6000614f7e60208361595a565b9150614f898261627f565b602082019050919050565b6000614fa1602c8361595a565b9150614fac826162a8565b604082019050919050565b6000614fc4602b8361595a565b9150614fcf826162f7565b604082019050919050565b6000614fe760208361595a565b9150614ff282616346565b602082019050919050565b600061500a601a8361595a565b91506150158261636f565b602082019050919050565b600061502d60218361595a565b915061503882616398565b604082019050919050565b600061505060278361595a565b915061505b826163e7565b604082019050919050565b600061507360318361595a565b915061507e82616436565b604082019050919050565b600061509660198361595a565b91506150a182616485565b602082019050919050565b60006150b960178361596b565b91506150c4826164ae565b601782019050919050565b60006150dc60318361595a565b91506150e7826164d7565b604082019050919050565b60006150ff60118361596b565b915061510a82616526565b601182019050919050565b6000615122602f8361595a565b915061512d8261654f565b604082019050919050565b6000615145601f8361595a565b91506151508261659e565b602082019050919050565b61516481615aff565b82525050565b61517381615aff565b82525050565b61518a61518582615aff565b615c7b565b82525050565b600061519c8286614bcb565b91506151a88285614bcb565b91506151b48284614c7c565b9150819050949350505050565b60006151cc82614e36565b91506151d88284615179565b60208201915081905092915050565b60006151f282614ee5565b91506151fe8284615179565b60208201915081905092915050565b6000615218826150ac565b91506152248285614bcb565b915061522f826150f2565b915061523b8284614bcb565b91508190509392505050565b600060208201905061525c6000830184614a45565b92915050565b60006040820190506152776000830185614a45565b6152846020830184614a45565b9392505050565b60006060820190506152a06000830186614a45565b6152ad6020830185614a45565b6152ba604083018461516a565b949350505050565b60006080820190506152d76000830187614a45565b6152e46020830186614a45565b6152f1604083018561516a565b81810360608301526153038184614b2c565b905095945050505050565b60006040820190506153236000830185614a45565b81810360208301526153358184614ab0565b90509392505050565b60006060820190506153536000830186614a45565b615360602083018561516a565b61536d6040830184614b83565b949350505050565b60006020820190508181036000830152615390818486614a54565b90509392505050565b600060208201905081810360008301526153b38184614ab0565b905092915050565b60006020820190506153d06000830184614b0e565b92915050565b60006020820190506153eb6000830184614b1d565b92915050565b60006020820190506154066000830184614b65565b92915050565b60006020820190506154216000830184614b74565b92915050565b600060208201905081810360008301526154418184614b92565b905092915050565b600060208201905081810360008301526154638184614bfc565b905092915050565b6000602082019050818103600083015261548481614cfb565b9050919050565b600060208201905081810360008301526154a481614d1e565b9050919050565b600060208201905081810360008301526154c481614d41565b9050919050565b600060208201905081810360008301526154e481614d64565b9050919050565b6000602082019050818103600083015261550481614d87565b9050919050565b6000602082019050818103600083015261552481614daa565b9050919050565b6000602082019050818103600083015261554481614dcd565b9050919050565b6000602082019050818103600083015261556481614df0565b9050919050565b6000602082019050818103600083015261558481614e13565b9050919050565b600060208201905081810360008301526155a481614e59565b9050919050565b600060208201905081810360008301526155c481614e7c565b9050919050565b600060208201905081810360008301526155e481614e9f565b9050919050565b6000602082019050818103600083015261560481614ec2565b9050919050565b6000602082019050818103600083015261562481614f08565b9050919050565b6000602082019050818103600083015261564481614f2b565b9050919050565b6000602082019050818103600083015261566481614f4e565b9050919050565b6000602082019050818103600083015261568481614f71565b9050919050565b600060208201905081810360008301526156a481614f94565b9050919050565b600060208201905081810360008301526156c481614fb7565b9050919050565b600060208201905081810360008301526156e481614fda565b9050919050565b6000602082019050818103600083015261570481614ffd565b9050919050565b6000602082019050818103600083015261572481615020565b9050919050565b6000602082019050818103600083015261574481615043565b9050919050565b6000602082019050818103600083015261576481615066565b9050919050565b6000602082019050818103600083015261578481615089565b9050919050565b600060208201905081810360008301526157a4816150cf565b9050919050565b600060208201905081810360008301526157c481615115565b9050919050565b600060208201905081810360008301526157e481615138565b9050919050565b6000602082019050615800600083018461516a565b92915050565b6000615810615821565b905061581c8282615c01565b919050565b6000604051905090565b600067ffffffffffffffff82111561584657615845615d72565b5b602082029050602081019050919050565b600067ffffffffffffffff82111561587257615871615d72565b5b602082029050602081019050919050565b600067ffffffffffffffff82111561589e5761589d615d72565b5b6158a782615dc4565b9050602081019050919050565b600067ffffffffffffffff8211156158cf576158ce615d72565b5b6158d882615dc4565b9050602081019050919050565b6000819050602082019050919050565b60008190508160005260206000209050919050565b600081519050919050565b600081519050919050565b600081519050919050565b6000602082019050919050565b600082825260208201905092915050565b600082825260208201905092915050565b600082825260208201905092915050565b600081905092915050565b600061598182615aff565b915061598c83615aff565b9250827fffffffffffffffffffffffffffffffffffffffffffffffffffffffffffffffff038211156159c1576159c0615cb6565b5b828201905092915050565b60006159d782615aff565b91506159e283615aff565b9250826159f2576159f1615ce5565b5b828204905092915050565b6000615a0882615aff565b9150615a1383615aff565b9250817fffffffffffffffffffffffffffffffffffffffffffffffffffffffffffffffff0483118215151615615a4c57615a4b615cb6565b5b828202905092915050565b6000615a6282615aff565b9150615a6d83615aff565b925082821015615a8057615a7f615cb6565b5b828203905092915050565b6000615a9682615adf565b9050919050565b60008115159050919050565b6000819050919050565b60007fffffffff0000000000000000000000000000000000000000000000000000000082169050919050565b600073ffffffffffffffffffffffffffffffffffffffff82169050919050565b6000819050919050565b6000615b1482615b3f565b9050919050565b6000615b2682615b3f565b9050919050565b6000615b3882615aff565b9050919050565b6000615b4a82615b51565b9050919050565b6000615b5c82615adf565b9050919050565b82818337600083830152505050565b60005b83811015615b90578082015181840152602081019050615b75565b83811115615b9f576000848401525b50505050565b6000615bb082615aff565b91506000821415615bc457615bc3615cb6565b5b600182039050919050565b60006002820490506001821680615be757607f821691505b60208210811415615bfb57615bfa615d14565b5b50919050565b615c0a82615dc4565b810181811067ffffffffffffffff82111715615c2957615c28615d72565b5b80604052505050565b6000615c3d82615aff565b91507fffffffffffffffffffffffffffffffffffffffffffffffffffffffffffffffff821415615c7057615c6f615cb6565b5b600182019050919050565b6000819050919050565b6000615c9082615aff565b9150615c9b83615aff565b925082615cab57615caa615ce5565b5b828206905092915050565b7f4e487b7100000000000000000000000000000000000000000000000000000000600052601160045260246000fd5b7f4e487b7100000000000000000000000000000000000000000000000000000000600052601260045260246000fd5b7f4e487b7100000000000000000000000000000000000000000000000000000000600052602260045260246000fd5b7f4e487b7100000000000000000000000000000000000000000000000000000000600052603260045260246000fd5b7f4e487b7100000000000000000000000000000000000000000000000000000000600052604160045260246000fd5b600080fd5b600080fd5b600080fd5b600080fd5b600080fd5b600080fd5b600080fd5b6000601f19601f8301169050919050565b7f537472696e67733a20686578206c656e67746820696e73756666696369656e74600082015250565b7f4552433732313a207472616e7366657220746f206e6f6e20455243373231526560008201527f63656976657220696d706c656d656e7465720000000000000000000000000000602082015250565b7f4f776e61626c653a206e6577206f776e657220697320746865207a65726f206160008201527f6464726573730000000000000000000000000000000000000000000000000000602082015250565b7f4552433732313a207472616e736665722066726f6d20696e636f72726563742060008201527f6f776e6572000000000000000000000000000000000000000000000000000000602082015250565b7f4552433732313a20746f6b656e20616c7265616479206d696e74656400000000600082015250565b7f576569726450756e6b733a204e6f7420656e6f75676820706f6c79676f6e206560008201527f7468000000000000000000000000000000000000000000000000000000000000602082015250565b7f4552433732313a207472616e7366657220746f20746865207a65726f2061646460008201527f7265737300000000000000000000000000000000000000000000000000000000602082015250565b7f4552433732313a20617070726f766520746f2063616c6c657200000000000000600082015250565b7f576569726450756e6b733a204e6f7420617070726f76656420666f722062757260008201527f6e00000000000000000000000000000000000000000000000000000000000000602082015250565b7f576569726450756e6b733a20416c7265616479204d696e746564204944202300600082015250565b7f4552433732313a206f70657261746f7220717565727920666f72206e6f6e657860008201527f697374656e7420746f6b656e0000000000000000000000000000000000000000602082015250565b7f576569726450756e6b733a2045786365656473206d617820737570706c790000600082015250565b7f576569726450756e6b733a20546f6b656e20657869737473206f6e20726f6f7460008201527f20636861696e0000000000000000000000000000000000000000000000000000602082015250565b7f4552433732313a20617070726f76652063616c6c6572206973206e6f74206f7760008201527f6e6572206e6f7220617070726f76656420666f7220616c6c0000000000000000602082015250565b7f576569726450756e6b733a20496e76616c6964206f776e6572206f6620000000600082015250565b7f576569726450756e6b733a204d6967726174696f6e2069732063757272656e7460008201527f6c7920636c6f7365640000000000000000000000000000000000000000000000602082015250565b7f4552433732313a2062616c616e636520717565727920666f7220746865207a6560008201527f726f206164647265737300000000000000000000000000000000000000000000602082015250565b7f4552433732313a206f776e657220717565727920666f72206e6f6e657869737460008201527f656e7420746f6b656e0000000000000000000000000000000000000000000000602082015250565b7f4552433732313a206d696e7420746f20746865207a65726f2061646472657373600082015250565b7f4552433732313a20617070726f76656420717565727920666f72206e6f6e657860008201527f697374656e7420746f6b656e0000000000000000000000000000000000000000602082015250565b7f576569726450756e6b733a2055524920717565727920666f72206e6f6e65786960008201527f7374656e7420746f6b656e000000000000000000000000000000000000000000602082015250565b7f4f776e61626c653a2063616c6c6572206973206e6f7420746865206f776e6572600082015250565b7f576569726450756e6b733a204e6f7420656e6f75676820676173000000000000600082015250565b7f4552433732313a20617070726f76616c20746f2063757272656e74206f776e6560008201527f7200000000000000000000000000000000000000000000000000000000000000602082015250565b7f576569726450756e6b733a204d6967726174696f6e2069732063757272656e7460008201527f6c79206f70656e00000000000000000000000000000000000000000000000000602082015250565b7f4552433732313a207472616e736665722063616c6c6572206973206e6f74206f60008201527f776e6572206e6f7220617070726f766564000000000000000000000000000000602082015250565b7f576569726450756e6b733a2045786365656473206c696d697400000000000000600082015250565b7f416363657373436f6e74726f6c3a206163636f756e7420000000000000000000600082015250565b7f576569726450756e6b733a2049447320616e64204f53494473206d757374206260008201527f65207468652073616d65206c656e677468000000000000000000000000000000602082015250565b7f206973206d697373696e6720726f6c6520000000000000000000000000000000600082015250565b7f416363657373436f6e74726f6c3a2063616e206f6e6c792072656e6f756e636560008201527f20726f6c657320666f722073656c660000000000000000000000000000000000602082015250565b7f576569726450756e6b733a2045786365656473206261746368206c696d697400600082015250565b6165d081615a8b565b81146165db57600080fd5b50565b6165e781615a9d565b81146165f257600080fd5b50565b6165fe81615aa9565b811461660957600080fd5b50565b61661581615ab3565b811461662057600080fd5b50565b61662c81615aff565b811461663757600080fd5b5056fea26469706673582212207b340a5135d68d750bf49549d7be5e94f1adc683924dbe539b8fc0641b04b2a764736f6c63430008070033",
			"opcodes": "PUSH1 0x80 PUSH1 0x40 MSTORE PUSH1 0x40 MLOAD DUP1 PUSH1 0x40 ADD PUSH1 0x40 MSTORE DUP1 PUSH1 0x5 DUP2 MSTORE PUSH1 0x20 ADD PUSH32 0x2E6A736F6E000000000000000000000000000000000000000000000000000000 DUP2 MSTORE POP PUSH1 0xA SWAP1 DUP1 MLOAD SWAP1 PUSH1 0x20 ADD SWAP1 PUSH3 0x51 SWAP3 SWAP2 SWAP1 PUSH3 0x6C5 JUMP JUMPDEST POP PUSH2 0x3E8 PUSH1 0xE SSTORE PUSH1 0x0 PUSH1 0xF SSTORE PUSH20 0x326C977E6EFC84E512BB9C30F76E30C160ED06FB PUSH1 0x12 PUSH1 0x0 PUSH2 0x100 EXP DUP2 SLOAD DUP2 PUSH20 0xFFFFFFFFFFFFFFFFFFFFFFFFFFFFFFFFFFFFFFFF MUL NOT AND SWAP1 DUP4 PUSH20 0xFFFFFFFFFFFFFFFFFFFFFFFFFFFFFFFFFFFFFFFF AND MUL OR SWAP1 SSTORE POP PUSH1 0x1 PUSH1 0x14 PUSH1 0x0 PUSH2 0x100 EXP DUP2 SLOAD DUP2 PUSH1 0xFF MUL NOT AND SWAP1 DUP4 ISZERO ISZERO MUL OR SWAP1 SSTORE POP PUSH1 0x1 PUSH1 0x14 PUSH1 0x1 PUSH2 0x100 EXP DUP2 SLOAD DUP2 PUSH1 0xFF MUL NOT AND SWAP1 DUP4 ISZERO ISZERO MUL OR SWAP1 SSTORE POP PUSH1 0x1 PUSH1 0x14 PUSH1 0x2 PUSH2 0x100 EXP DUP2 SLOAD DUP2 PUSH1 0xFF MUL NOT AND SWAP1 DUP4 ISZERO ISZERO MUL OR SWAP1 SSTORE POP CALLVALUE DUP1 ISZERO PUSH3 0x110 JUMPI PUSH1 0x0 DUP1 REVERT JUMPDEST POP PUSH1 0x40 MLOAD PUSH3 0x7170 CODESIZE SUB DUP1 PUSH3 0x7170 DUP4 CODECOPY DUP2 DUP2 ADD PUSH1 0x40 MSTORE DUP2 ADD SWAP1 PUSH3 0x136 SWAP2 SWAP1 PUSH3 0x80A JUMP JUMPDEST PUSH1 0x40 MLOAD DUP1 PUSH1 0x40 ADD PUSH1 0x40 MSTORE DUP1 PUSH1 0xB DUP2 MSTORE PUSH1 0x20 ADD PUSH32 0x57656972642050756E6B73000000000000000000000000000000000000000000 DUP2 MSTORE POP PUSH1 0x40 MLOAD DUP1 PUSH1 0x40 ADD PUSH1 0x40 MSTORE DUP1 PUSH1 0x2 DUP2 MSTORE PUSH1 0x20 ADD PUSH32 0x5750000000000000000000000000000000000000000000000000000000000000 DUP2 MSTORE POP DUP2 PUSH1 0x0 SWAP1 DUP1 MLOAD SWAP1 PUSH1 0x20 ADD SWAP1 PUSH3 0x1BA SWAP3 SWAP2 SWAP1 PUSH3 0x6C5 JUMP JUMPDEST POP DUP1 PUSH1 0x1 SWAP1 DUP1 MLOAD SWAP1 PUSH1 0x20 ADD SWAP1 PUSH3 0x1D3 SWAP3 SWAP2 SWAP1 PUSH3 0x6C5 JUMP JUMPDEST POP POP POP PUSH3 0x1F6 PUSH3 0x1EA PUSH3 0x2DC PUSH1 0x20 SHL PUSH1 0x20 SHR JUMP JUMPDEST PUSH3 0x2E4 PUSH1 0x20 SHL PUSH1 0x20 SHR JUMP JUMPDEST PUSH3 0x207 DUP5 PUSH3 0x3AA PUSH1 0x20 SHL PUSH1 0x20 SHR JUMP JUMPDEST DUP3 PUSH1 0xD PUSH1 0x0 PUSH2 0x100 EXP DUP2 SLOAD DUP2 PUSH20 0xFFFFFFFFFFFFFFFFFFFFFFFFFFFFFFFFFFFFFFFF MUL NOT AND SWAP1 DUP4 PUSH20 0xFFFFFFFFFFFFFFFFFFFFFFFFFFFFFFFFFFFFFFFF AND MUL OR SWAP1 SSTORE POP PUSH3 0x259 DUP2 PUSH3 0x455 PUSH1 0x20 SHL PUSH1 0x20 SHR JUMP JUMPDEST PUSH3 0x26E PUSH1 0x0 DUP1 SHL CALLER PUSH3 0x528 PUSH1 0x20 SHL PUSH1 0x20 SHR JUMP JUMPDEST PUSH3 0x2A0 PUSH32 0x8F4F2DA22E8AC8F11E15F9FC141CDDBB5DEEA8800186560ABB6E68C5496619A9 DUP4 PUSH3 0x528 PUSH1 0x20 SHL PUSH1 0x20 SHR JUMP JUMPDEST PUSH3 0x2D2 PUSH32 0x352D05FE3946DBE49277552BA941E744D5A96D9C60BC1BA0EA5F1D3AE000F7C8 DUP3 PUSH3 0x528 PUSH1 0x20 SHL PUSH1 0x20 SHR JUMP JUMPDEST POP POP POP POP PUSH3 0xAF0 JUMP JUMPDEST PUSH1 0x0 CALLER SWAP1 POP SWAP1 JUMP JUMPDEST PUSH1 0x0 PUSH1 0x6 PUSH1 0x0 SWAP1 SLOAD SWAP1 PUSH2 0x100 EXP SWAP1 DIV PUSH20 0xFFFFFFFFFFFFFFFFFFFFFFFFFFFFFFFFFFFFFFFF AND SWAP1 POP DUP2 PUSH1 0x6 PUSH1 0x0 PUSH2 0x100 EXP DUP2 SLOAD DUP2 PUSH20 0xFFFFFFFFFFFFFFFFFFFFFFFFFFFFFFFFFFFFFFFF MUL NOT AND SWAP1 DUP4 PUSH20 0xFFFFFFFFFFFFFFFFFFFFFFFFFFFFFFFFFFFFFFFF AND MUL OR SWAP1 SSTORE POP DUP2 PUSH20 0xFFFFFFFFFFFFFFFFFFFFFFFFFFFFFFFFFFFFFFFF AND DUP2 PUSH20 0xFFFFFFFFFFFFFFFFFFFFFFFFFFFFFFFFFFFFFFFF AND PUSH32 0x8BE0079C531659141344CD1FD0A4F28419497F9722A3DAAFE3B4186F6B6457E0 PUSH1 0x40 MLOAD PUSH1 0x40 MLOAD DUP1 SWAP2 SUB SWAP1 LOG3 POP POP JUMP JUMPDEST PUSH3 0x3BA PUSH3 0x2DC PUSH1 0x20 SHL PUSH1 0x20 SHR JUMP JUMPDEST PUSH20 0xFFFFFFFFFFFFFFFFFFFFFFFFFFFFFFFFFFFFFFFF AND PUSH3 0x3E0 PUSH3 0x53E PUSH1 0x20 SHL PUSH1 0x20 SHR JUMP JUMPDEST PUSH20 0xFFFFFFFFFFFFFFFFFFFFFFFFFFFFFFFFFFFFFFFF AND EQ PUSH3 0x439 JUMPI PUSH1 0x40 MLOAD PUSH32 0x8C379A000000000000000000000000000000000000000000000000000000000 DUP2 MSTORE PUSH1 0x4 ADD PUSH3 0x430 SWAP1 PUSH3 0x8C2 JUMP JUMPDEST PUSH1 0x40 MLOAD DUP1 SWAP2 SUB SWAP1 REVERT JUMPDEST DUP1 PUSH1 0x9 SWAP1 DUP1 MLOAD SWAP1 PUSH1 0x20 ADD SWAP1 PUSH3 0x451 SWAP3 SWAP2 SWAP1 PUSH3 0x6C5 JUMP JUMPDEST POP POP JUMP JUMPDEST PUSH3 0x465 PUSH3 0x2DC PUSH1 0x20 SHL PUSH1 0x20 SHR JUMP JUMPDEST PUSH20 0xFFFFFFFFFFFFFFFFFFFFFFFFFFFFFFFFFFFFFFFF AND PUSH3 0x48B PUSH3 0x53E PUSH1 0x20 SHL PUSH1 0x20 SHR JUMP JUMPDEST PUSH20 0xFFFFFFFFFFFFFFFFFFFFFFFFFFFFFFFFFFFFFFFF AND EQ PUSH3 0x4E4 JUMPI PUSH1 0x40 MLOAD PUSH32 0x8C379A000000000000000000000000000000000000000000000000000000000 DUP2 MSTORE PUSH1 0x4 ADD PUSH3 0x4DB SWAP1 PUSH3 0x8C2 JUMP JUMPDEST PUSH1 0x40 MLOAD DUP1 SWAP2 SUB SWAP1 REVERT JUMPDEST DUP1 PUSH1 0x11 PUSH1 0x0 PUSH2 0x100 EXP DUP2 SLOAD DUP2 PUSH20 0xFFFFFFFFFFFFFFFFFFFFFFFFFFFFFFFFFFFFFFFF MUL NOT AND SWAP1 DUP4 PUSH20 0xFFFFFFFFFFFFFFFFFFFFFFFFFFFFFFFFFFFFFFFF AND MUL OR SWAP1 SSTORE POP POP JUMP JUMPDEST PUSH3 0x53A DUP3 DUP3 PUSH3 0x568 PUSH1 0x20 SHL PUSH1 0x20 SHR JUMP JUMPDEST POP POP JUMP JUMPDEST PUSH1 0x0 PUSH1 0x6 PUSH1 0x0 SWAP1 SLOAD SWAP1 PUSH2 0x100 EXP SWAP1 DIV PUSH20 0xFFFFFFFFFFFFFFFFFFFFFFFFFFFFFFFFFFFFFFFF AND SWAP1 POP SWAP1 JUMP JUMPDEST PUSH3 0x57A DUP3 DUP3 PUSH3 0x65A PUSH1 0x20 SHL PUSH1 0x20 SHR JUMP JUMPDEST PUSH3 0x656 JUMPI PUSH1 0x1 PUSH1 0x7 PUSH1 0x0 DUP5 DUP2 MSTORE PUSH1 0x20 ADD SWAP1 DUP2 MSTORE PUSH1 0x20 ADD PUSH1 0x0 KECCAK256 PUSH1 0x0 ADD PUSH1 0x0 DUP4 PUSH20 0xFFFFFFFFFFFFFFFFFFFFFFFFFFFFFFFFFFFFFFFF AND PUSH20 0xFFFFFFFFFFFFFFFFFFFFFFFFFFFFFFFFFFFFFFFF AND DUP2 MSTORE PUSH1 0x20 ADD SWAP1 DUP2 MSTORE PUSH1 0x20 ADD PUSH1 0x0 KECCAK256 PUSH1 0x0 PUSH2 0x100 EXP DUP2 SLOAD DUP2 PUSH1 0xFF MUL NOT AND SWAP1 DUP4 ISZERO ISZERO MUL OR SWAP1 SSTORE POP PUSH3 0x5FB PUSH3 0x2DC PUSH1 0x20 SHL PUSH1 0x20 SHR JUMP JUMPDEST PUSH20 0xFFFFFFFFFFFFFFFFFFFFFFFFFFFFFFFFFFFFFFFF AND DUP2 PUSH20 0xFFFFFFFFFFFFFFFFFFFFFFFFFFFFFFFFFFFFFFFF AND DUP4 PUSH32 0x2F8788117E7EFF1D82E926EC794901D17C78024A50270940304540A733656F0D PUSH1 0x40 MLOAD PUSH1 0x40 MLOAD DUP1 SWAP2 SUB SWAP1 LOG4 JUMPDEST POP POP JUMP JUMPDEST PUSH1 0x0 PUSH1 0x7 PUSH1 0x0 DUP5 DUP2 MSTORE PUSH1 0x20 ADD SWAP1 DUP2 MSTORE PUSH1 0x20 ADD PUSH1 0x0 KECCAK256 PUSH1 0x0 ADD PUSH1 0x0 DUP4 PUSH20 0xFFFFFFFFFFFFFFFFFFFFFFFFFFFFFFFFFFFFFFFF AND PUSH20 0xFFFFFFFFFFFFFFFFFFFFFFFFFFFFFFFFFFFFFFFF AND DUP2 MSTORE PUSH1 0x20 ADD SWAP1 DUP2 MSTORE PUSH1 0x20 ADD PUSH1 0x0 KECCAK256 PUSH1 0x0 SWAP1 SLOAD SWAP1 PUSH2 0x100 EXP SWAP1 DIV PUSH1 0xFF AND SWAP1 POP SWAP3 SWAP2 POP POP JUMP JUMPDEST DUP3 DUP1 SLOAD PUSH3 0x6D3 SWAP1 PUSH3 0x9BE JUMP JUMPDEST SWAP1 PUSH1 0x0 MSTORE PUSH1 0x20 PUSH1 0x0 KECCAK256 SWAP1 PUSH1 0x1F ADD PUSH1 0x20 SWAP1 DIV DUP2 ADD SWAP3 DUP3 PUSH3 0x6F7 JUMPI PUSH1 0x0 DUP6 SSTORE PUSH3 0x743 JUMP JUMPDEST DUP3 PUSH1 0x1F LT PUSH3 0x712 JUMPI DUP1 MLOAD PUSH1 0xFF NOT AND DUP4 DUP1 ADD OR DUP6 SSTORE PUSH3 0x743 JUMP JUMPDEST DUP3 DUP1 ADD PUSH1 0x1 ADD DUP6 SSTORE DUP3 ISZERO PUSH3 0x743 JUMPI SWAP2 DUP3 ADD JUMPDEST DUP3 DUP2 GT ISZERO PUSH3 0x742 JUMPI DUP3 MLOAD DUP3 SSTORE SWAP2 PUSH1 0x20 ADD SWAP2 SWAP1 PUSH1 0x1 ADD SWAP1 PUSH3 0x725 JUMP JUMPDEST JUMPDEST POP SWAP1 POP PUSH3 0x752 SWAP2 SWAP1 PUSH3 0x756 JUMP JUMPDEST POP SWAP1 JUMP JUMPDEST JUMPDEST DUP1 DUP3 GT ISZERO PUSH3 0x771 JUMPI PUSH1 0x0 DUP2 PUSH1 0x0 SWAP1 SSTORE POP PUSH1 0x1 ADD PUSH3 0x757 JUMP JUMPDEST POP SWAP1 JUMP JUMPDEST PUSH1 0x0 PUSH3 0x78C PUSH3 0x786 DUP5 PUSH3 0x90D JUMP JUMPDEST PUSH3 0x8E4 JUMP JUMPDEST SWAP1 POP DUP3 DUP2 MSTORE PUSH1 0x20 DUP2 ADD DUP5 DUP5 DUP5 ADD GT ISZERO PUSH3 0x7AB JUMPI PUSH3 0x7AA PUSH3 0xA8D JUMP JUMPDEST JUMPDEST PUSH3 0x7B8 DUP5 DUP3 DUP6 PUSH3 0x988 JUMP JUMPDEST POP SWAP4 SWAP3 POP POP POP JUMP JUMPDEST PUSH1 0x0 DUP2 MLOAD SWAP1 POP PUSH3 0x7D1 DUP2 PUSH3 0xAD6 JUMP JUMPDEST SWAP3 SWAP2 POP POP JUMP JUMPDEST PUSH1 0x0 DUP3 PUSH1 0x1F DUP4 ADD SLT PUSH3 0x7EF JUMPI PUSH3 0x7EE PUSH3 0xA88 JUMP JUMPDEST JUMPDEST DUP2 MLOAD PUSH3 0x801 DUP5 DUP3 PUSH1 0x20 DUP7 ADD PUSH3 0x775 JUMP JUMPDEST SWAP2 POP POP SWAP3 SWAP2 POP POP JUMP JUMPDEST PUSH1 0x0 DUP1 PUSH1 0x0 DUP1 PUSH1 0x80 DUP6 DUP8 SUB SLT ISZERO PUSH3 0x827 JUMPI PUSH3 0x826 PUSH3 0xA97 JUMP JUMPDEST JUMPDEST PUSH1 0x0 DUP6 ADD MLOAD PUSH8 0xFFFFFFFFFFFFFFFF DUP2 GT ISZERO PUSH3 0x848 JUMPI PUSH3 0x847 PUSH3 0xA92 JUMP JUMPDEST JUMPDEST PUSH3 0x856 DUP8 DUP3 DUP9 ADD PUSH3 0x7D7 JUMP JUMPDEST SWAP5 POP POP PUSH1 0x20 PUSH3 0x869 DUP8 DUP3 DUP9 ADD PUSH3 0x7C0 JUMP JUMPDEST SWAP4 POP POP PUSH1 0x40 PUSH3 0x87C DUP8 DUP3 DUP9 ADD PUSH3 0x7C0 JUMP JUMPDEST SWAP3 POP POP PUSH1 0x60 PUSH3 0x88F DUP8 DUP3 DUP9 ADD PUSH3 0x7C0 JUMP JUMPDEST SWAP2 POP POP SWAP3 SWAP6 SWAP2 SWAP5 POP SWAP3 POP JUMP JUMPDEST PUSH1 0x0 PUSH3 0x8AA PUSH1 0x20 DUP4 PUSH3 0x943 JUMP JUMPDEST SWAP2 POP PUSH3 0x8B7 DUP3 PUSH3 0xAAD JUMP JUMPDEST PUSH1 0x20 DUP3 ADD SWAP1 POP SWAP2 SWAP1 POP JUMP JUMPDEST PUSH1 0x0 PUSH1 0x20 DUP3 ADD SWAP1 POP DUP2 DUP2 SUB PUSH1 0x0 DUP4 ADD MSTORE PUSH3 0x8DD DUP2 PUSH3 0x89B JUMP JUMPDEST SWAP1 POP SWAP2 SWAP1 POP JUMP JUMPDEST PUSH1 0x0 PUSH3 0x8F0 PUSH3 0x903 JUMP JUMPDEST SWAP1 POP PUSH3 0x8FE DUP3 DUP3 PUSH3 0x9F4 JUMP JUMPDEST SWAP2 SWAP1 POP JUMP JUMPDEST PUSH1 0x0 PUSH1 0x40 MLOAD SWAP1 POP SWAP1 JUMP JUMPDEST PUSH1 0x0 PUSH8 0xFFFFFFFFFFFFFFFF DUP3 GT ISZERO PUSH3 0x92B JUMPI PUSH3 0x92A PUSH3 0xA59 JUMP JUMPDEST JUMPDEST PUSH3 0x936 DUP3 PUSH3 0xA9C JUMP JUMPDEST SWAP1 POP PUSH1 0x20 DUP2 ADD SWAP1 POP SWAP2 SWAP1 POP JUMP JUMPDEST PUSH1 0x0 DUP3 DUP3 MSTORE PUSH1 0x20 DUP3 ADD SWAP1 POP SWAP3 SWAP2 POP POP JUMP JUMPDEST PUSH1 0x0 PUSH3 0x961 DUP3 PUSH3 0x968 JUMP JUMPDEST SWAP1 POP SWAP2 SWAP1 POP JUMP JUMPDEST PUSH1 0x0 PUSH20 0xFFFFFFFFFFFFFFFFFFFFFFFFFFFFFFFFFFFFFFFF DUP3 AND SWAP1 POP SWAP2 SWAP1 POP JUMP JUMPDEST PUSH1 0x0 JUMPDEST DUP4 DUP2 LT ISZERO PUSH3 0x9A8 JUMPI DUP1 DUP3 ADD MLOAD DUP2 DUP5 ADD MSTORE PUSH1 0x20 DUP2 ADD SWAP1 POP PUSH3 0x98B JUMP JUMPDEST DUP4 DUP2 GT ISZERO PUSH3 0x9B8 JUMPI PUSH1 0x0 DUP5 DUP5 ADD MSTORE JUMPDEST POP POP POP POP JUMP JUMPDEST PUSH1 0x0 PUSH1 0x2 DUP3 DIV SWAP1 POP PUSH1 0x1 DUP3 AND DUP1 PUSH3 0x9D7 JUMPI PUSH1 0x7F DUP3 AND SWAP2 POP JUMPDEST PUSH1 0x20 DUP3 LT DUP2 EQ ISZERO PUSH3 0x9EE JUMPI PUSH3 0x9ED PUSH3 0xA2A JUMP JUMPDEST JUMPDEST POP SWAP2 SWAP1 POP JUMP JUMPDEST PUSH3 0x9FF DUP3 PUSH3 0xA9C JUMP JUMPDEST DUP2 ADD DUP2 DUP2 LT PUSH8 0xFFFFFFFFFFFFFFFF DUP3 GT OR ISZERO PUSH3 0xA21 JUMPI PUSH3 0xA20 PUSH3 0xA59 JUMP JUMPDEST JUMPDEST DUP1 PUSH1 0x40 MSTORE POP POP POP JUMP JUMPDEST PUSH32 0x4E487B7100000000000000000000000000000000000000000000000000000000 PUSH1 0x0 MSTORE PUSH1 0x22 PUSH1 0x4 MSTORE PUSH1 0x24 PUSH1 0x0 REVERT JUMPDEST PUSH32 0x4E487B7100000000000000000000000000000000000000000000000000000000 PUSH1 0x0 MSTORE PUSH1 0x41 PUSH1 0x4 MSTORE PUSH1 0x24 PUSH1 0x0 REVERT JUMPDEST PUSH1 0x0 DUP1 REVERT JUMPDEST PUSH1 0x0 DUP1 REVERT JUMPDEST PUSH1 0x0 DUP1 REVERT JUMPDEST PUSH1 0x0 DUP1 REVERT JUMPDEST PUSH1 0x0 PUSH1 0x1F NOT PUSH1 0x1F DUP4 ADD AND SWAP1 POP SWAP2 SWAP1 POP JUMP JUMPDEST PUSH32 0x4F776E61626C653A2063616C6C6572206973206E6F7420746865206F776E6572 PUSH1 0x0 DUP3 ADD MSTORE POP JUMP JUMPDEST PUSH3 0xAE1 DUP2 PUSH3 0x954 JUMP JUMPDEST DUP2 EQ PUSH3 0xAED JUMPI PUSH1 0x0 DUP1 REVERT JUMPDEST POP JUMP JUMPDEST PUSH2 0x6670 DUP1 PUSH3 0xB00 PUSH1 0x0 CODECOPY PUSH1 0x0 RETURN INVALID PUSH1 0x80 PUSH1 0x40 MSTORE CALLVALUE DUP1 ISZERO PUSH2 0x10 JUMPI PUSH1 0x0 DUP1 REVERT JUMPDEST POP PUSH1 0x4 CALLDATASIZE LT PUSH2 0x327 JUMPI PUSH1 0x0 CALLDATALOAD PUSH1 0xE0 SHR DUP1 PUSH4 0x8DA5CB5B GT PUSH2 0x1B8 JUMPI DUP1 PUSH4 0xC6682862 GT PUSH2 0x104 JUMPI DUP1 PUSH4 0xD5ABEB01 GT PUSH2 0xA2 JUMPI DUP1 PUSH4 0xF0756C56 GT PUSH2 0x7C JUMPI DUP1 PUSH4 0xF0756C56 EQ PUSH2 0x988 JUMPI DUP1 PUSH4 0xF2FDE38B EQ PUSH2 0x9A6 JUMPI DUP1 PUSH4 0xF3850630 EQ PUSH2 0x9C2 JUMPI DUP1 PUSH4 0xF5AD7CA9 EQ PUSH2 0x9DE JUMPI PUSH2 0x327 JUMP JUMPDEST DUP1 PUSH4 0xD5ABEB01 EQ PUSH2 0x91C JUMPI DUP1 PUSH4 0xE4FE1A59 EQ PUSH2 0x93A JUMPI DUP1 PUSH4 0xE985E9C5 EQ PUSH2 0x958 JUMPI PUSH2 0x327 JUMP JUMPDEST DUP1 PUSH4 0xC916BBE5 GT PUSH2 0xDE JUMPI DUP1 PUSH4 0xC916BBE5 EQ PUSH2 0x8AC JUMPI DUP1 PUSH4 0xCF2C52CB EQ PUSH2 0x8C8 JUMPI DUP1 PUSH4 0xD51E7317 EQ PUSH2 0x8E4 JUMPI DUP1 PUSH4 0xD547741F EQ PUSH2 0x900 JUMPI PUSH2 0x327 JUMP JUMPDEST DUP1 PUSH4 0xC6682862 EQ PUSH2 0x840 JUMPI DUP1 PUSH4 0xC690023E EQ PUSH2 0x85E JUMPI DUP1 PUSH4 0xC87B56DD EQ PUSH2 0x87C JUMPI PUSH2 0x327 JUMP JUMPDEST DUP1 PUSH4 0xA217FDDF GT PUSH2 0x171 JUMPI DUP1 PUSH4 0xA7C99195 GT PUSH2 0x14B JUMPI DUP1 PUSH4 0xA7C99195 EQ PUSH2 0x7CC JUMPI DUP1 PUSH4 0xA89AE4BA EQ PUSH2 0x7E8 JUMPI DUP1 PUSH4 0xAD5C4648 EQ PUSH2 0x806 JUMPI DUP1 PUSH4 0xB88D4FDE EQ PUSH2 0x824 JUMPI PUSH2 0x327 JUMP JUMPDEST DUP1 PUSH4 0xA217FDDF EQ PUSH2 0x774 JUMPI DUP1 PUSH4 0xA22CB465 EQ PUSH2 0x792 JUMPI DUP1 PUSH4 0xA3B0B5A3 EQ PUSH2 0x7AE JUMPI PUSH2 0x327 JUMP JUMPDEST DUP1 PUSH4 0x8DA5CB5B EQ PUSH2 0x69E JUMPI DUP1 PUSH4 0x918498AE EQ PUSH2 0x6BC JUMPI DUP1 PUSH4 0x91D14854 EQ PUSH2 0x6EC JUMPI DUP1 PUSH4 0x9559C0BD EQ PUSH2 0x71C JUMPI DUP1 PUSH4 0x95D89B41 EQ PUSH2 0x73A JUMPI DUP1 PUSH4 0x9C8D4156 EQ PUSH2 0x758 JUMPI PUSH2 0x327 JUMP JUMPDEST DUP1 PUSH4 0x38013F02 GT PUSH2 0x277 JUMPI DUP1 PUSH4 0x520E61E9 GT PUSH2 0x230 JUMPI DUP1 PUSH4 0x6352211E GT PUSH2 0x20A JUMPI DUP1 PUSH4 0x6352211E EQ PUSH2 0x616 JUMPI DUP1 PUSH4 0x6C0360EB EQ PUSH2 0x646 JUMPI DUP1 PUSH4 0x70A08231 EQ PUSH2 0x664 JUMPI DUP1 PUSH4 0x715018A6 EQ PUSH2 0x694 JUMPI PUSH2 0x327 JUMP JUMPDEST DUP1 PUSH4 0x520E61E9 EQ PUSH2 0x5AC JUMPI DUP1 PUSH4 0x5283DA09 EQ PUSH2 0x5DC JUMPI DUP1 PUSH4 0x55F804B3 EQ PUSH2 0x5FA JUMPI PUSH2 0x327 JUMP JUMPDEST DUP1 PUSH4 0x38013F02 EQ PUSH2 0x4EE JUMPI DUP1 PUSH4 0x42842E0E EQ PUSH2 0x50C JUMPI DUP1 PUSH4 0x438B6300 EQ PUSH2 0x528 JUMPI DUP1 PUSH4 0x4431ABF2 EQ PUSH2 0x558 JUMPI DUP1 PUSH4 0x4C69C00F EQ PUSH2 0x574 JUMPI DUP1 PUSH4 0x50C88AE0 EQ PUSH2 0x590 JUMPI PUSH2 0x327 JUMP JUMPDEST DUP1 PUSH4 0x18160DDD GT PUSH2 0x2E4 JUMPI DUP1 PUSH4 0x2F2FF15D GT PUSH2 0x2BE JUMPI DUP1 PUSH4 0x2F2FF15D EQ PUSH2 0x47C JUMPI DUP1 PUSH4 0x35D69059 EQ PUSH2 0x498 JUMPI DUP1 PUSH4 0x35FEBEC0 EQ PUSH2 0x4B6 JUMPI DUP1 PUSH4 0x36568ABE EQ PUSH2 0x4D2 JUMPI PUSH2 0x327 JUMP JUMPDEST DUP1 PUSH4 0x18160DDD EQ PUSH2 0x412 JUMPI DUP1 PUSH4 0x23B872DD EQ PUSH2 0x430 JUMPI DUP1 PUSH4 0x248A9CA3 EQ PUSH2 0x44C JUMPI PUSH2 0x327 JUMP JUMPDEST DUP1 PUSH4 0x1FFC9A7 EQ PUSH2 0x32C JUMPI DUP1 PUSH4 0x6D9FF5D EQ PUSH2 0x35C JUMPI DUP1 PUSH4 0x6FDDE03 EQ PUSH2 0x378 JUMPI DUP1 PUSH4 0x7A974FC EQ PUSH2 0x396 JUMPI DUP1 PUSH4 0x81812FC EQ PUSH2 0x3C6 JUMPI DUP1 PUSH4 0x95EA7B3 EQ PUSH2 0x3F6 JUMPI JUMPDEST PUSH1 0x0 DUP1 REVERT JUMPDEST PUSH2 0x346 PUSH1 0x4 DUP1 CALLDATASIZE SUB DUP2 ADD SWAP1 PUSH2 0x341 SWAP2 SWAP1 PUSH2 0x4930 JUMP JUMPDEST PUSH2 0x9FA JUMP JUMPDEST PUSH1 0x40 MLOAD PUSH2 0x353 SWAP2 SWAP1 PUSH2 0x53BB JUMP JUMPDEST PUSH1 0x40 MLOAD DUP1 SWAP2 SUB SWAP1 RETURN JUMPDEST PUSH2 0x376 PUSH1 0x4 DUP1 CALLDATASIZE SUB DUP2 ADD SWAP1 PUSH2 0x371 SWAP2 SWAP1 PUSH2 0x454B JUMP JUMPDEST PUSH2 0xA0C JUMP JUMPDEST STOP JUMPDEST PUSH2 0x380 PUSH2 0xAE3 JUMP JUMPDEST PUSH1 0x40 MLOAD PUSH2 0x38D SWAP2 SWAP1 PUSH2 0x5427 JUMP JUMPDEST PUSH1 0x40 MLOAD DUP1 SWAP2 SUB SWAP1 RETURN JUMPDEST PUSH2 0x3B0 PUSH1 0x4 DUP1 CALLDATASIZE SUB DUP2 ADD SWAP1 PUSH2 0x3AB SWAP2 SWAP1 PUSH2 0x49D3 JUMP JUMPDEST PUSH2 0xB75 JUMP JUMPDEST PUSH1 0x40 MLOAD PUSH2 0x3BD SWAP2 SWAP1 PUSH2 0x53BB JUMP JUMPDEST PUSH1 0x40 MLOAD DUP1 SWAP2 SUB SWAP1 RETURN JUMPDEST PUSH2 0x3E0 PUSH1 0x4 DUP1 CALLDATASIZE SUB DUP2 ADD SWAP1 PUSH2 0x3DB SWAP2 SWAP1 PUSH2 0x49D3 JUMP JUMPDEST PUSH2 0xB95 JUMP JUMPDEST PUSH1 0x40 MLOAD PUSH2 0x3ED SWAP2 SWAP1 PUSH2 0x5247 JUMP JUMPDEST PUSH1 0x40 MLOAD DUP1 SWAP2 SUB SWAP1 RETURN JUMPDEST PUSH2 0x410 PUSH1 0x4 DUP1 CALLDATASIZE SUB DUP2 ADD SWAP1 PUSH2 0x40B SWAP2 SWAP1 PUSH2 0x4647 JUMP JUMPDEST PUSH2 0xC1A JUMP JUMPDEST STOP JUMPDEST PUSH2 0x41A PUSH2 0xD32 JUMP JUMPDEST PUSH1 0x40 MLOAD PUSH2 0x427 SWAP2 SWAP1 PUSH2 0x57EB JUMP JUMPDEST PUSH1 0x40 MLOAD DUP1 SWAP2 SUB SWAP1 RETURN JUMPDEST PUSH2 0x44A PUSH1 0x4 DUP1 CALLDATASIZE SUB DUP2 ADD SWAP1 PUSH2 0x445 SWAP2 SWAP1 PUSH2 0x4475 JUMP JUMPDEST PUSH2 0xD38 JUMP JUMPDEST STOP JUMPDEST PUSH2 0x466 PUSH1 0x4 DUP1 CALLDATASIZE SUB DUP2 ADD SWAP1 PUSH2 0x461 SWAP2 SWAP1 PUSH2 0x48C3 JUMP JUMPDEST PUSH2 0xD98 JUMP JUMPDEST PUSH1 0x40 MLOAD PUSH2 0x473 SWAP2 SWAP1 PUSH2 0x53D6 JUMP JUMPDEST PUSH1 0x40 MLOAD DUP1 SWAP2 SUB SWAP1 RETURN JUMPDEST PUSH2 0x496 PUSH1 0x4 DUP1 CALLDATASIZE SUB DUP2 ADD SWAP1 PUSH2 0x491 SWAP2 SWAP1 PUSH2 0x48F0 JUMP JUMPDEST PUSH2 0xDB8 JUMP JUMPDEST STOP JUMPDEST PUSH2 0x4A0 PUSH2 0xDD9 JUMP JUMPDEST PUSH1 0x40 MLOAD PUSH2 0x4AD SWAP2 SWAP1 PUSH2 0x53BB JUMP JUMPDEST PUSH1 0x40 MLOAD DUP1 SWAP2 SUB SWAP1 RETURN JUMPDEST PUSH2 0x4D0 PUSH1 0x4 DUP1 CALLDATASIZE SUB DUP2 ADD SWAP1 PUSH2 0x4CB SWAP2 SWAP1 PUSH2 0x480D JUMP JUMPDEST PUSH2 0xDEC JUMP JUMPDEST STOP JUMPDEST PUSH2 0x4EC PUSH1 0x4 DUP1 CALLDATASIZE SUB DUP2 ADD SWAP1 PUSH2 0x4E7 SWAP2 SWAP1 PUSH2 0x48F0 JUMP JUMPDEST PUSH2 0x11EE JUMP JUMPDEST STOP JUMPDEST PUSH2 0x4F6 PUSH2 0x1271 JUMP JUMPDEST PUSH1 0x40 MLOAD PUSH2 0x503 SWAP2 SWAP1 PUSH2 0x53D6 JUMP JUMPDEST PUSH1 0x40 MLOAD DUP1 SWAP2 SUB SWAP1 RETURN JUMPDEST PUSH2 0x526 PUSH1 0x4 DUP1 CALLDATASIZE SUB DUP2 ADD SWAP1 PUSH2 0x521 SWAP2 SWAP1 PUSH2 0x4475 JUMP JUMPDEST PUSH2 0x1295 JUMP JUMPDEST STOP JUMPDEST PUSH2 0x542 PUSH1 0x4 DUP1 CALLDATASIZE SUB DUP2 ADD SWAP1 PUSH2 0x53D SWAP2 SWAP1 PUSH2 0x4408 JUMP JUMPDEST PUSH2 0x12B5 JUMP JUMPDEST PUSH1 0x40 MLOAD PUSH2 0x54F SWAP2 SWAP1 PUSH2 0x5399 JUMP JUMPDEST PUSH1 0x40 MLOAD DUP1 SWAP2 SUB SWAP1 RETURN JUMPDEST PUSH2 0x572 PUSH1 0x4 DUP1 CALLDATASIZE SUB DUP2 ADD SWAP1 PUSH2 0x56D SWAP2 SWAP1 PUSH2 0x4687 JUMP JUMPDEST PUSH2 0x13CF JUMP JUMPDEST STOP JUMPDEST PUSH2 0x58E PUSH1 0x4 DUP1 CALLDATASIZE SUB DUP2 ADD SWAP1 PUSH2 0x589 SWAP2 SWAP1 PUSH2 0x4408 JUMP JUMPDEST PUSH2 0x1666 JUMP JUMPDEST STOP JUMPDEST PUSH2 0x5AA PUSH1 0x4 DUP1 CALLDATASIZE SUB DUP2 ADD SWAP1 PUSH2 0x5A5 SWAP2 SWAP1 PUSH2 0x4869 JUMP JUMPDEST PUSH2 0x1726 JUMP JUMPDEST STOP JUMPDEST PUSH2 0x5C6 PUSH1 0x4 DUP1 CALLDATASIZE SUB DUP2 ADD SWAP1 PUSH2 0x5C1 SWAP2 SWAP1 PUSH2 0x4795 JUMP JUMPDEST PUSH2 0x17BF JUMP JUMPDEST PUSH1 0x40 MLOAD PUSH2 0x5D3 SWAP2 SWAP1 PUSH2 0x53BB JUMP JUMPDEST PUSH1 0x40 MLOAD DUP1 SWAP2 SUB SWAP1 RETURN JUMPDEST PUSH2 0x5E4 PUSH2 0x18EF JUMP JUMPDEST PUSH1 0x40 MLOAD PUSH2 0x5F1 SWAP2 SWAP1 PUSH2 0x53BB JUMP JUMPDEST PUSH1 0x40 MLOAD DUP1 SWAP2 SUB SWAP1 RETURN JUMPDEST PUSH2 0x614 PUSH1 0x4 DUP1 CALLDATASIZE SUB DUP2 ADD SWAP1 PUSH2 0x60F SWAP2 SWAP1 PUSH2 0x498A JUMP JUMPDEST PUSH2 0x1902 JUMP JUMPDEST STOP JUMPDEST PUSH2 0x630 PUSH1 0x4 DUP1 CALLDATASIZE SUB DUP2 ADD SWAP1 PUSH2 0x62B SWAP2 SWAP1 PUSH2 0x49D3 JUMP JUMPDEST PUSH2 0x1998 JUMP JUMPDEST PUSH1 0x40 MLOAD PUSH2 0x63D SWAP2 SWAP1 PUSH2 0x5247 JUMP JUMPDEST PUSH1 0x40 MLOAD DUP1 SWAP2 SUB SWAP1 RETURN JUMPDEST PUSH2 0x64E PUSH2 0x1A4A JUMP JUMPDEST PUSH1 0x40 MLOAD PUSH2 0x65B SWAP2 SWAP1 PUSH2 0x5427 JUMP JUMPDEST PUSH1 0x40 MLOAD DUP1 SWAP2 SUB SWAP1 RETURN JUMPDEST PUSH2 0x67E PUSH1 0x4 DUP1 CALLDATASIZE SUB DUP2 ADD SWAP1 PUSH2 0x679 SWAP2 SWAP1 PUSH2 0x4408 JUMP JUMPDEST PUSH2 0x1AD8 JUMP JUMPDEST PUSH1 0x40 MLOAD PUSH2 0x68B SWAP2 SWAP1 PUSH2 0x57EB JUMP JUMPDEST PUSH1 0x40 MLOAD DUP1 SWAP2 SUB SWAP1 RETURN JUMPDEST PUSH2 0x69C PUSH2 0x1B90 JUMP JUMPDEST STOP JUMPDEST PUSH2 0x6A6 PUSH2 0x1C18 JUMP JUMPDEST PUSH1 0x40 MLOAD PUSH2 0x6B3 SWAP2 SWAP1 PUSH2 0x5247 JUMP JUMPDEST PUSH1 0x40 MLOAD DUP1 SWAP2 SUB SWAP1 RETURN JUMPDEST PUSH2 0x6D6 PUSH1 0x4 DUP1 CALLDATASIZE SUB DUP2 ADD SWAP1 PUSH2 0x6D1 SWAP2 SWAP1 PUSH2 0x49D3 JUMP JUMPDEST PUSH2 0x1C42 JUMP JUMPDEST PUSH1 0x40 MLOAD PUSH2 0x6E3 SWAP2 SWAP1 PUSH2 0x57EB JUMP JUMPDEST PUSH1 0x40 MLOAD DUP1 SWAP2 SUB SWAP1 RETURN JUMPDEST PUSH2 0x706 PUSH1 0x4 DUP1 CALLDATASIZE SUB DUP2 ADD SWAP1 PUSH2 0x701 SWAP2 SWAP1 PUSH2 0x48F0 JUMP JUMPDEST PUSH2 0x1C5A JUMP JUMPDEST PUSH1 0x40 MLOAD PUSH2 0x713 SWAP2 SWAP1 PUSH2 0x53BB JUMP JUMPDEST PUSH1 0x40 MLOAD DUP1 SWAP2 SUB SWAP1 RETURN JUMPDEST PUSH2 0x724 PUSH2 0x1CC5 JUMP JUMPDEST PUSH1 0x40 MLOAD PUSH2 0x731 SWAP2 SWAP1 PUSH2 0x57EB JUMP JUMPDEST PUSH1 0x40 MLOAD DUP1 SWAP2 SUB SWAP1 RETURN JUMPDEST PUSH2 0x742 PUSH2 0x1CCA JUMP JUMPDEST PUSH1 0x40 MLOAD PUSH2 0x74F SWAP2 SWAP1 PUSH2 0x5427 JUMP JUMPDEST PUSH1 0x40 MLOAD DUP1 SWAP2 SUB SWAP1 RETURN JUMPDEST PUSH2 0x772 PUSH1 0x4 DUP1 CALLDATASIZE SUB DUP2 ADD SWAP1 PUSH2 0x76D SWAP2 SWAP1 PUSH2 0x46FF JUMP JUMPDEST PUSH2 0x1D5C JUMP JUMPDEST STOP JUMPDEST PUSH2 0x77C PUSH2 0x1F48 JUMP JUMPDEST PUSH1 0x40 MLOAD PUSH2 0x789 SWAP2 SWAP1 PUSH2 0x53D6 JUMP JUMPDEST PUSH1 0x40 MLOAD DUP1 SWAP2 SUB SWAP1 RETURN JUMPDEST PUSH2 0x7AC PUSH1 0x4 DUP1 CALLDATASIZE SUB DUP2 ADD SWAP1 PUSH2 0x7A7 SWAP2 SWAP1 PUSH2 0x45A7 JUMP JUMPDEST PUSH2 0x1F4F JUMP JUMPDEST STOP JUMPDEST PUSH2 0x7B6 PUSH2 0x1F65 JUMP JUMPDEST PUSH1 0x40 MLOAD PUSH2 0x7C3 SWAP2 SWAP1 PUSH2 0x53D6 JUMP JUMPDEST PUSH1 0x40 MLOAD DUP1 SWAP2 SUB SWAP1 RETURN JUMPDEST PUSH2 0x7E6 PUSH1 0x4 DUP1 CALLDATASIZE SUB DUP2 ADD SWAP1 PUSH2 0x7E1 SWAP2 SWAP1 PUSH2 0x4869 JUMP JUMPDEST PUSH2 0x1F89 JUMP JUMPDEST STOP JUMPDEST PUSH2 0x7F0 PUSH2 0x2022 JUMP JUMPDEST PUSH1 0x40 MLOAD PUSH2 0x7FD SWAP2 SWAP1 PUSH2 0x5247 JUMP JUMPDEST PUSH1 0x40 MLOAD DUP1 SWAP2 SUB SWAP1 RETURN JUMPDEST PUSH2 0x80E PUSH2 0x2048 JUMP JUMPDEST PUSH1 0x40 MLOAD PUSH2 0x81B SWAP2 SWAP1 PUSH2 0x540C JUMP JUMPDEST PUSH1 0x40 MLOAD DUP1 SWAP2 SUB SWAP1 RETURN JUMPDEST PUSH2 0x83E PUSH1 0x4 DUP1 CALLDATASIZE SUB DUP2 ADD SWAP1 PUSH2 0x839 SWAP2 SWAP1 PUSH2 0x44C8 JUMP JUMPDEST PUSH2 0x206E JUMP JUMPDEST STOP JUMPDEST PUSH2 0x848 PUSH2 0x20D0 JUMP JUMPDEST PUSH1 0x40 MLOAD PUSH2 0x855 SWAP2 SWAP1 PUSH2 0x5427 JUMP JUMPDEST PUSH1 0x40 MLOAD DUP1 SWAP2 SUB SWAP1 RETURN JUMPDEST PUSH2 0x866 PUSH2 0x215E JUMP JUMPDEST PUSH1 0x40 MLOAD PUSH2 0x873 SWAP2 SWAP1 PUSH2 0x53F1 JUMP JUMPDEST PUSH1 0x40 MLOAD DUP1 SWAP2 SUB SWAP1 RETURN JUMPDEST PUSH2 0x896 PUSH1 0x4 DUP1 CALLDATASIZE SUB DUP2 ADD SWAP1 PUSH2 0x891 SWAP2 SWAP1 PUSH2 0x49D3 JUMP JUMPDEST PUSH2 0x2184 JUMP JUMPDEST PUSH1 0x40 MLOAD PUSH2 0x8A3 SWAP2 SWAP1 PUSH2 0x5427 JUMP JUMPDEST PUSH1 0x40 MLOAD DUP1 SWAP2 SUB SWAP1 RETURN JUMPDEST PUSH2 0x8C6 PUSH1 0x4 DUP1 CALLDATASIZE SUB DUP2 ADD SWAP1 PUSH2 0x8C1 SWAP2 SWAP1 PUSH2 0x454B JUMP JUMPDEST PUSH2 0x222E JUMP JUMPDEST STOP JUMPDEST PUSH2 0x8E2 PUSH1 0x4 DUP1 CALLDATASIZE SUB DUP2 ADD SWAP1 PUSH2 0x8DD SWAP2 SWAP1 PUSH2 0x45E7 JUMP JUMPDEST PUSH2 0x265A JUMP JUMPDEST STOP JUMPDEST PUSH2 0x8FE PUSH1 0x4 DUP1 CALLDATASIZE SUB DUP2 ADD SWAP1 PUSH2 0x8F9 SWAP2 SWAP1 PUSH2 0x49D3 JUMP JUMPDEST PUSH2 0x2806 JUMP JUMPDEST STOP JUMPDEST PUSH2 0x91A PUSH1 0x4 DUP1 CALLDATASIZE SUB DUP2 ADD SWAP1 PUSH2 0x915 SWAP2 SWAP1 PUSH2 0x48F0 JUMP JUMPDEST PUSH2 0x2887 JUMP JUMPDEST STOP JUMPDEST PUSH2 0x924 PUSH2 0x28A8 JUMP JUMPDEST PUSH1 0x40 MLOAD PUSH2 0x931 SWAP2 SWAP1 PUSH2 0x57EB JUMP JUMPDEST PUSH1 0x40 MLOAD DUP1 SWAP2 SUB SWAP1 RETURN JUMPDEST PUSH2 0x942 PUSH2 0x28AE JUMP JUMPDEST PUSH1 0x40 MLOAD PUSH2 0x94F SWAP2 SWAP1 PUSH2 0x53BB JUMP JUMPDEST PUSH1 0x40 MLOAD DUP1 SWAP2 SUB SWAP1 RETURN JUMPDEST PUSH2 0x972 PUSH1 0x4 DUP1 CALLDATASIZE SUB DUP2 ADD SWAP1 PUSH2 0x96D SWAP2 SWAP1 PUSH2 0x4435 JUMP JUMPDEST PUSH2 0x28C1 JUMP JUMPDEST PUSH1 0x40 MLOAD PUSH2 0x97F SWAP2 SWAP1 PUSH2 0x53BB JUMP JUMPDEST PUSH1 0x40 MLOAD DUP1 SWAP2 SUB SWAP1 RETURN JUMPDEST PUSH2 0x990 PUSH2 0x2955 JUMP JUMPDEST PUSH1 0x40 MLOAD PUSH2 0x99D SWAP2 SWAP1 PUSH2 0x57EB JUMP JUMPDEST PUSH1 0x40 MLOAD DUP1 SWAP2 SUB SWAP1 RETURN JUMPDEST PUSH2 0x9C0 PUSH1 0x4 DUP1 CALLDATASIZE SUB DUP2 ADD SWAP1 PUSH2 0x9BB SWAP2 SWAP1 PUSH2 0x4408 JUMP JUMPDEST PUSH2 0x295B JUMP JUMPDEST STOP JUMPDEST PUSH2 0x9DC PUSH1 0x4 DUP1 CALLDATASIZE SUB DUP2 ADD SWAP1 PUSH2 0x9D7 SWAP2 SWAP1 PUSH2 0x4408 JUMP JUMPDEST PUSH2 0x2A53 JUMP JUMPDEST STOP JUMPDEST PUSH2 0x9F8 PUSH1 0x4 DUP1 CALLDATASIZE SUB DUP2 ADD SWAP1 PUSH2 0x9F3 SWAP2 SWAP1 PUSH2 0x4869 JUMP JUMPDEST PUSH2 0x2B13 JUMP JUMPDEST STOP JUMPDEST PUSH1 0x0 PUSH2 0xA05 DUP3 PUSH2 0x2BAC JUMP JUMPDEST SWAP1 POP SWAP2 SWAP1 POP JUMP JUMPDEST PUSH32 0x352D05FE3946DBE49277552BA941E744D5A96D9C60BC1BA0EA5F1D3AE000F7C8 PUSH2 0xA3E DUP2 PUSH2 0xA39 PUSH2 0x2C26 JUMP JUMPDEST PUSH2 0x1C5A JUMP JUMPDEST PUSH1 0x8 SWAP1 PUSH2 0xA81 JUMPI PUSH1 0x40 MLOAD PUSH32 0x8C379A000000000000000000000000000000000000000000000000000000000 DUP2 MSTORE PUSH1 0x4 ADD PUSH2 0xA78 SWAP2 SWAP1 PUSH2 0x5449 JUMP JUMPDEST PUSH1 0x40 MLOAD DUP1 SWAP2 SUB SWAP1 REVERT JUMPDEST POP PUSH1 0x0 JUMPDEST DUP3 MLOAD DUP2 LT ISZERO PUSH2 0xADD JUMPI PUSH2 0xAB2 DUP5 DUP5 DUP4 DUP2 MLOAD DUP2 LT PUSH2 0xAA5 JUMPI PUSH2 0xAA4 PUSH2 0x5D43 JUMP JUMPDEST JUMPDEST PUSH1 0x20 MUL PUSH1 0x20 ADD ADD MLOAD PUSH2 0x2C2E JUMP JUMPDEST PUSH1 0xF PUSH1 0x0 DUP2 SLOAD DUP1 SWAP3 SWAP2 SWAP1 PUSH2 0xAC5 SWAP1 PUSH2 0x5C32 JUMP JUMPDEST SWAP2 SWAP1 POP SSTORE POP DUP1 DUP1 PUSH2 0xAD5 SWAP1 PUSH2 0x5C32 JUMP JUMPDEST SWAP2 POP POP PUSH2 0xA85 JUMP JUMPDEST POP POP POP POP JUMP JUMPDEST PUSH1 0x60 PUSH1 0x0 DUP1 SLOAD PUSH2 0xAF2 SWAP1 PUSH2 0x5BCF JUMP JUMPDEST DUP1 PUSH1 0x1F ADD PUSH1 0x20 DUP1 SWAP2 DIV MUL PUSH1 0x20 ADD PUSH1 0x40 MLOAD SWAP1 DUP2 ADD PUSH1 0x40 MSTORE DUP1 SWAP3 SWAP2 SWAP1 DUP2 DUP2 MSTORE PUSH1 0x20 ADD DUP3 DUP1 SLOAD PUSH2 0xB1E SWAP1 PUSH2 0x5BCF JUMP JUMPDEST DUP1 ISZERO PUSH2 0xB6B JUMPI DUP1 PUSH1 0x1F LT PUSH2 0xB40 JUMPI PUSH2 0x100 DUP1 DUP4 SLOAD DIV MUL DUP4 MSTORE SWAP2 PUSH1 0x20 ADD SWAP2 PUSH2 0xB6B JUMP JUMPDEST DUP3 ADD SWAP2 SWAP1 PUSH1 0x0 MSTORE PUSH1 0x20 PUSH1 0x0 KECCAK256 SWAP1 JUMPDEST DUP2 SLOAD DUP2 MSTORE SWAP1 PUSH1 0x1 ADD SWAP1 PUSH1 0x20 ADD DUP1 DUP4 GT PUSH2 0xB4E JUMPI DUP3 SWAP1 SUB PUSH1 0x1F AND DUP3 ADD SWAP2 JUMPDEST POP POP POP POP POP SWAP1 POP SWAP1 JUMP JUMPDEST PUSH1 0x10 PUSH1 0x20 MSTORE DUP1 PUSH1 0x0 MSTORE PUSH1 0x40 PUSH1 0x0 KECCAK256 PUSH1 0x0 SWAP2 POP SLOAD SWAP1 PUSH2 0x100 EXP SWAP1 DIV PUSH1 0xFF AND DUP2 JUMP JUMPDEST PUSH1 0x0 PUSH2 0xBA0 DUP3 PUSH2 0x2E08 JUMP JUMPDEST PUSH2 0xBDF JUMPI PUSH1 0x40 MLOAD PUSH32 0x8C379A000000000000000000000000000000000000000000000000000000000 DUP2 MSTORE PUSH1 0x4 ADD PUSH2 0xBD6 SWAP1 PUSH2 0x568B JUMP JUMPDEST PUSH1 0x40 MLOAD DUP1 SWAP2 SUB SWAP1 REVERT JUMPDEST PUSH1 0x4 PUSH1 0x0 DUP4 DUP2 MSTORE PUSH1 0x20 ADD SWAP1 DUP2 MSTORE PUSH1 0x20 ADD PUSH1 0x0 KECCAK256 PUSH1 0x0 SWAP1 SLOAD SWAP1 PUSH2 0x100 EXP SWAP1 DIV PUSH20 0xFFFFFFFFFFFFFFFFFFFFFFFFFFFFFFFFFFFFFFFF AND SWAP1 POP SWAP2 SWAP1 POP JUMP JUMPDEST PUSH1 0x0 PUSH2 0xC25 DUP3 PUSH2 0x1998 JUMP JUMPDEST SWAP1 POP DUP1 PUSH20 0xFFFFFFFFFFFFFFFFFFFFFFFFFFFFFFFFFFFFFFFF AND DUP4 PUSH20 0xFFFFFFFFFFFFFFFFFFFFFFFFFFFFFFFFFFFFFFFF AND EQ ISZERO PUSH2 0xC96 JUMPI PUSH1 0x40 MLOAD PUSH32 0x8C379A000000000000000000000000000000000000000000000000000000000 DUP2 MSTORE PUSH1 0x4 ADD PUSH2 0xC8D SWAP1 PUSH2 0x570B JUMP JUMPDEST PUSH1 0x40 MLOAD DUP1 SWAP2 SUB SWAP1 REVERT JUMPDEST DUP1 PUSH20 0xFFFFFFFFFFFFFFFFFFFFFFFFFFFFFFFFFFFFFFFF AND PUSH2 0xCB5 PUSH2 0x2C26 JUMP JUMPDEST PUSH20 0xFFFFFFFFFFFFFFFFFFFFFFFFFFFFFFFFFFFFFFFF AND EQ DUP1 PUSH2 0xCE4 JUMPI POP PUSH2 0xCE3 DUP2 PUSH2 0xCDE PUSH2 0x2C26 JUMP JUMPDEST PUSH2 0x28C1 JUMP JUMPDEST JUMPDEST PUSH2 0xD23 JUMPI PUSH1 0x40 MLOAD PUSH32 0x8C379A000000000000000000000000000000000000000000000000000000000 DUP2 MSTORE PUSH1 0x4 ADD PUSH2 0xD1A SWAP1 PUSH2 0x55EB JUMP JUMPDEST PUSH1 0x40 MLOAD DUP1 SWAP2 SUB SWAP1 REVERT JUMPDEST PUSH2 0xD2D DUP4 DUP4 PUSH2 0x2E74 JUMP JUMPDEST POP POP POP JUMP JUMPDEST PUSH1 0xF SLOAD DUP2 JUMP JUMPDEST PUSH2 0xD49 PUSH2 0xD43 PUSH2 0x2C26 JUMP JUMPDEST DUP3 PUSH2 0x2F2D JUMP JUMPDEST PUSH2 0xD88 JUMPI PUSH1 0x40 MLOAD PUSH32 0x8C379A000000000000000000000000000000000000000000000000000000000 DUP2 MSTORE PUSH1 0x4 ADD PUSH2 0xD7F SWAP1 PUSH2 0x574B JUMP JUMPDEST PUSH1 0x40 MLOAD DUP1 SWAP2 SUB SWAP1 REVERT JUMPDEST PUSH2 0xD93 DUP4 DUP4 DUP4 PUSH2 0x300B JUMP JUMPDEST POP POP POP JUMP JUMPDEST PUSH1 0x0 PUSH1 0x7 PUSH1 0x0 DUP4 DUP2 MSTORE PUSH1 0x20 ADD SWAP1 DUP2 MSTORE PUSH1 0x20 ADD PUSH1 0x0 KECCAK256 PUSH1 0x1 ADD SLOAD SWAP1 POP SWAP2 SWAP1 POP JUMP JUMPDEST PUSH2 0xDC1 DUP3 PUSH2 0xD98 JUMP JUMPDEST PUSH2 0xDCA DUP2 PUSH2 0x3272 JUMP JUMPDEST PUSH2 0xDD4 DUP4 DUP4 PUSH2 0x3286 JUMP JUMPDEST POP POP POP JUMP JUMPDEST PUSH1 0x14 PUSH1 0x0 SWAP1 SLOAD SWAP1 PUSH2 0x100 EXP SWAP1 DIV PUSH1 0xFF AND DUP2 JUMP JUMPDEST PUSH1 0x14 PUSH1 0x1 SWAP1 SLOAD SWAP1 PUSH2 0x100 EXP SWAP1 DIV PUSH1 0xFF AND PUSH2 0xE05 JUMPI PUSH1 0x0 DUP1 REVERT JUMPDEST PUSH1 0x0 PUSH1 0x2 PUSH1 0x13 SLOAD PUSH2 0xE16 SWAP2 SWAP1 PUSH2 0x59CC JUMP JUMPDEST PUSH1 0x1 DUP5 MLOAD PUSH2 0xE24 SWAP2 SWAP1 PUSH2 0x5A57 JUMP JUMPDEST PUSH2 0xE2E SWAP2 SWAP1 PUSH2 0x59FD JUMP JUMPDEST PUSH1 0x13 SLOAD PUSH2 0xE3B SWAP2 SWAP1 PUSH2 0x5976 JUMP JUMPDEST SWAP1 POP DUP1 PUSH1 0x12 PUSH1 0x0 SWAP1 SLOAD SWAP1 PUSH2 0x100 EXP SWAP1 DIV PUSH20 0xFFFFFFFFFFFFFFFFFFFFFFFFFFFFFFFFFFFFFFFF AND PUSH20 0xFFFFFFFFFFFFFFFFFFFFFFFFFFFFFFFFFFFFFFFF AND PUSH4 0xDD62ED3E CALLER ADDRESS PUSH1 0x40 MLOAD DUP4 PUSH4 0xFFFFFFFF AND PUSH1 0xE0 SHL DUP2 MSTORE PUSH1 0x4 ADD PUSH2 0xE9B SWAP3 SWAP2 SWAP1 PUSH2 0x5262 JUMP JUMPDEST PUSH1 0x20 PUSH1 0x40 MLOAD DUP1 DUP4 SUB DUP2 DUP7 DUP1 EXTCODESIZE ISZERO DUP1 ISZERO PUSH2 0xEB3 JUMPI PUSH1 0x0 DUP1 REVERT JUMPDEST POP GAS STATICCALL ISZERO DUP1 ISZERO PUSH2 0xEC7 JUMPI RETURNDATASIZE PUSH1 0x0 DUP1 RETURNDATACOPY RETURNDATASIZE PUSH1 0x0 REVERT JUMPDEST POP POP POP POP PUSH1 0x40 MLOAD RETURNDATASIZE PUSH1 0x1F NOT PUSH1 0x1F DUP3 ADD AND DUP3 ADD DUP1 PUSH1 0x40 MSTORE POP DUP2 ADD SWAP1 PUSH2 0xEEB SWAP2 SWAP1 PUSH2 0x4A00 JUMP JUMPDEST LT ISZERO PUSH2 0xF2C JUMPI PUSH1 0x40 MLOAD PUSH32 0x8C379A000000000000000000000000000000000000000000000000000000000 DUP2 MSTORE PUSH1 0x4 ADD PUSH2 0xF23 SWAP1 PUSH2 0x550B JUMP JUMPDEST PUSH1 0x40 MLOAD DUP1 SWAP2 SUB SWAP1 REVERT JUMPDEST DUP1 DUP3 LT ISZERO PUSH2 0xF6F JUMPI PUSH1 0x40 MLOAD PUSH32 0x8C379A000000000000000000000000000000000000000000000000000000000 DUP2 MSTORE PUSH1 0x4 ADD PUSH2 0xF66 SWAP1 PUSH2 0x56EB JUMP JUMPDEST PUSH1 0x40 MLOAD DUP1 SWAP2 SUB SWAP1 REVERT JUMPDEST PUSH1 0x12 PUSH1 0x0 SWAP1 SLOAD SWAP1 PUSH2 0x100 EXP SWAP1 DIV PUSH20 0xFFFFFFFFFFFFFFFFFFFFFFFFFFFFFFFFFFFFFFFF AND PUSH20 0xFFFFFFFFFFFFFFFFFFFFFFFFFFFFFFFFFFFFFFFF AND PUSH4 0x23B872DD CALLER PUSH1 0x11 PUSH1 0x0 SWAP1 SLOAD SWAP1 PUSH2 0x100 EXP SWAP1 DIV PUSH20 0xFFFFFFFFFFFFFFFFFFFFFFFFFFFFFFFFFFFFFFFF AND DUP6 PUSH1 0x40 MLOAD DUP5 PUSH4 0xFFFFFFFF AND PUSH1 0xE0 SHL DUP2 MSTORE PUSH1 0x4 ADD PUSH2 0xFF0 SWAP4 SWAP3 SWAP2 SWAP1 PUSH2 0x528B JUMP JUMPDEST PUSH1 0x20 PUSH1 0x40 MLOAD DUP1 DUP4 SUB DUP2 PUSH1 0x0 DUP8 DUP1 EXTCODESIZE ISZERO DUP1 ISZERO PUSH2 0x100A JUMPI PUSH1 0x0 DUP1 REVERT JUMPDEST POP GAS CALL ISZERO DUP1 ISZERO PUSH2 0x101E JUMPI RETURNDATASIZE PUSH1 0x0 DUP1 RETURNDATACOPY RETURNDATASIZE PUSH1 0x0 REVERT JUMPDEST POP POP POP POP PUSH1 0x40 MLOAD RETURNDATASIZE PUSH1 0x1F NOT PUSH1 0x1F DUP3 ADD AND DUP3 ADD DUP1 PUSH1 0x40 MSTORE POP DUP2 ADD SWAP1 PUSH2 0x1042 SWAP2 SWAP1 PUSH2 0x4896 JUMP JUMPDEST POP PUSH1 0x14 DUP4 MLOAD GT ISZERO PUSH2 0x1088 JUMPI PUSH1 0x40 MLOAD PUSH32 0x8C379A000000000000000000000000000000000000000000000000000000000 DUP2 MSTORE PUSH1 0x4 ADD PUSH2 0x107F SWAP1 PUSH2 0x576B JUMP JUMPDEST PUSH1 0x40 MLOAD DUP1 SWAP2 SUB SWAP1 REVERT JUMPDEST PUSH1 0x0 JUMPDEST DUP4 MLOAD DUP2 LT ISZERO PUSH2 0x11AF JUMPI PUSH2 0x10B7 DUP5 DUP3 DUP2 MLOAD DUP2 LT PUSH2 0x10AA JUMPI PUSH2 0x10A9 PUSH2 0x5D43 JUMP JUMPDEST JUMPDEST PUSH1 0x20 MUL PUSH1 0x20 ADD ADD MLOAD PUSH2 0x1998 JUMP JUMPDEST PUSH20 0xFFFFFFFFFFFFFFFFFFFFFFFFFFFFFFFFFFFFFFFF AND CALLER PUSH20 0xFFFFFFFFFFFFFFFFFFFFFFFFFFFFFFFFFFFFFFFF AND EQ DUP5 DUP3 DUP2 MLOAD DUP2 LT PUSH2 0x10F8 JUMPI PUSH2 0x10F7 PUSH2 0x5D43 JUMP JUMPDEST JUMPDEST PUSH1 0x20 MUL PUSH1 0x20 ADD ADD MLOAD PUSH1 0x40 MLOAD PUSH1 0x20 ADD PUSH2 0x1110 SWAP2 SWAP1 PUSH2 0x51E7 JUMP JUMPDEST PUSH1 0x40 MLOAD PUSH1 0x20 DUP2 DUP4 SUB SUB DUP2 MSTORE SWAP1 PUSH1 0x40 MSTORE SWAP1 PUSH2 0x1160 JUMPI PUSH1 0x40 MLOAD PUSH32 0x8C379A000000000000000000000000000000000000000000000000000000000 DUP2 MSTORE PUSH1 0x4 ADD PUSH2 0x1157 SWAP2 SWAP1 PUSH2 0x5427 JUMP JUMPDEST PUSH1 0x40 MLOAD DUP1 SWAP2 SUB SWAP1 REVERT JUMPDEST POP PUSH2 0x1184 DUP5 DUP3 DUP2 MLOAD DUP2 LT PUSH2 0x1177 JUMPI PUSH2 0x1176 PUSH2 0x5D43 JUMP JUMPDEST JUMPDEST PUSH1 0x20 MUL PUSH1 0x20 ADD ADD MLOAD PUSH2 0x3367 JUMP JUMPDEST PUSH1 0xF PUSH1 0x0 DUP2 SLOAD DUP1 SWAP3 SWAP2 SWAP1 PUSH2 0x1197 SWAP1 PUSH2 0x5BA5 JUMP JUMPDEST SWAP2 SWAP1 POP SSTORE POP DUP1 DUP1 PUSH2 0x11A7 SWAP1 PUSH2 0x5C32 JUMP JUMPDEST SWAP2 POP POP PUSH2 0x108B JUMP JUMPDEST POP PUSH32 0x304CFB620BC5A605DB7A6151ECE130AF99F274449F653B95084688029E0467A0 CALLER DUP5 PUSH1 0x40 MLOAD PUSH2 0x11E1 SWAP3 SWAP2 SWAP1 PUSH2 0x530E JUMP JUMPDEST PUSH1 0x40 MLOAD DUP1 SWAP2 SUB SWAP1 LOG1 POP POP POP JUMP JUMPDEST PUSH2 0x11F6 PUSH2 0x2C26 JUMP JUMPDEST PUSH20 0xFFFFFFFFFFFFFFFFFFFFFFFFFFFFFFFFFFFFFFFF AND DUP2 PUSH20 0xFFFFFFFFFFFFFFFFFFFFFFFFFFFFFFFFFFFFFFFF AND EQ PUSH2 0x1263 JUMPI PUSH1 0x40 MLOAD PUSH32 0x8C379A000000000000000000000000000000000000000000000000000000000 DUP2 MSTORE PUSH1 0x4 ADD PUSH2 0x125A SWAP1 PUSH2 0x57AB JUMP JUMPDEST PUSH1 0x40 MLOAD DUP1 SWAP2 SUB SWAP1 REVERT JUMPDEST PUSH2 0x126D DUP3 DUP3 PUSH2 0x3484 JUMP JUMPDEST POP POP JUMP JUMPDEST PUSH32 0x352D05FE3946DBE49277552BA941E744D5A96D9C60BC1BA0EA5F1D3AE000F7C8 DUP2 JUMP JUMPDEST PUSH2 0x12B0 DUP4 DUP4 DUP4 PUSH1 0x40 MLOAD DUP1 PUSH1 0x20 ADD PUSH1 0x40 MSTORE DUP1 PUSH1 0x0 DUP2 MSTORE POP PUSH2 0x206E JUMP JUMPDEST POP POP POP JUMP JUMPDEST PUSH1 0x60 PUSH1 0x0 PUSH2 0x12C2 DUP4 PUSH2 0x1AD8 JUMP JUMPDEST SWAP1 POP PUSH1 0x0 DUP2 PUSH8 0xFFFFFFFFFFFFFFFF DUP2 GT ISZERO PUSH2 0x12E0 JUMPI PUSH2 0x12DF PUSH2 0x5D72 JUMP JUMPDEST JUMPDEST PUSH1 0x40 MLOAD SWAP1 DUP1 DUP3 MSTORE DUP1 PUSH1 0x20 MUL PUSH1 0x20 ADD DUP3 ADD PUSH1 0x40 MSTORE DUP1 ISZERO PUSH2 0x130E JUMPI DUP2 PUSH1 0x20 ADD PUSH1 0x20 DUP3 MUL DUP1 CALLDATASIZE DUP4 CALLDATACOPY DUP1 DUP3 ADD SWAP2 POP POP SWAP1 POP JUMPDEST POP SWAP1 POP PUSH1 0x0 PUSH1 0x1 SWAP1 POP PUSH1 0x0 JUMPDEST DUP4 DUP2 LT DUP1 ISZERO PUSH2 0x132B JUMPI POP PUSH1 0xE SLOAD DUP3 GT ISZERO JUMPDEST ISZERO PUSH2 0x13C3 JUMPI PUSH2 0x1339 DUP3 PUSH2 0x2E08 JUMP JUMPDEST ISZERO PUSH2 0x13BE JUMPI PUSH1 0x0 PUSH2 0x1349 DUP4 PUSH2 0x1998 JUMP JUMPDEST SWAP1 POP DUP7 PUSH20 0xFFFFFFFFFFFFFFFFFFFFFFFFFFFFFFFFFFFFFFFF AND DUP2 PUSH20 0xFFFFFFFFFFFFFFFFFFFFFFFFFFFFFFFFFFFFFFFF AND EQ ISZERO PUSH2 0x13AE JUMPI DUP3 DUP5 DUP4 DUP2 MLOAD DUP2 LT PUSH2 0x1393 JUMPI PUSH2 0x1392 PUSH2 0x5D43 JUMP JUMPDEST JUMPDEST PUSH1 0x20 MUL PUSH1 0x20 ADD ADD DUP2 DUP2 MSTORE POP POP DUP2 DUP1 PUSH2 0x13AA SWAP1 PUSH2 0x5C32 JUMP JUMPDEST SWAP3 POP POP JUMPDEST DUP3 DUP1 PUSH2 0x13B9 SWAP1 PUSH2 0x5C32 JUMP JUMPDEST SWAP4 POP POP POP JUMPDEST PUSH2 0x131A JUMP JUMPDEST DUP3 SWAP5 POP POP POP POP POP SWAP2 SWAP1 POP JUMP JUMPDEST PUSH2 0x13D7 PUSH2 0x2C26 JUMP JUMPDEST PUSH20 0xFFFFFFFFFFFFFFFFFFFFFFFFFFFFFFFFFFFFFFFF AND PUSH2 0x13F5 PUSH2 0x1C18 JUMP JUMPDEST PUSH20 0xFFFFFFFFFFFFFFFFFFFFFFFFFFFFFFFFFFFFFFFF AND EQ PUSH2 0x144B JUMPI PUSH1 0x40 MLOAD PUSH32 0x8C379A000000000000000000000000000000000000000000000000000000000 DUP2 MSTORE PUSH1 0x4 ADD PUSH2 0x1442 SWAP1 PUSH2 0x56CB JUMP JUMPDEST PUSH1 0x40 MLOAD DUP1 SWAP2 SUB SWAP1 REVERT JUMPDEST PUSH1 0x14 PUSH1 0x0 SWAP1 SLOAD SWAP1 PUSH2 0x100 EXP SWAP1 DIV PUSH1 0xFF AND ISZERO PUSH2 0x149B JUMPI PUSH1 0x40 MLOAD PUSH32 0x8C379A000000000000000000000000000000000000000000000000000000000 DUP2 MSTORE PUSH1 0x4 ADD PUSH2 0x1492 SWAP1 PUSH2 0x572B JUMP JUMPDEST PUSH1 0x40 MLOAD DUP1 SWAP2 SUB SWAP1 REVERT JUMPDEST PUSH1 0xE SLOAD DUP2 MLOAD PUSH1 0xF SLOAD PUSH2 0x14AD SWAP2 SWAP1 PUSH2 0x5976 JUMP JUMPDEST GT ISZERO PUSH2 0x14EE JUMPI PUSH1 0x40 MLOAD PUSH32 0x8C379A000000000000000000000000000000000000000000000000000000000 DUP2 MSTORE PUSH1 0x4 ADD PUSH2 0x14E5 SWAP1 PUSH2 0x55AB JUMP JUMPDEST PUSH1 0x40 MLOAD DUP1 SWAP2 SUB SWAP1 REVERT JUMPDEST PUSH1 0x0 JUMPDEST DUP2 MLOAD DUP2 LT ISZERO PUSH2 0x1661 JUMPI PUSH1 0xC PUSH1 0x0 DUP4 DUP4 DUP2 MLOAD DUP2 LT PUSH2 0x1511 JUMPI PUSH2 0x1510 PUSH2 0x5D43 JUMP JUMPDEST JUMPDEST PUSH1 0x20 MUL PUSH1 0x20 ADD ADD MLOAD DUP2 MSTORE PUSH1 0x20 ADD SWAP1 DUP2 MSTORE PUSH1 0x20 ADD PUSH1 0x0 KECCAK256 PUSH1 0x0 SWAP1 SLOAD SWAP1 PUSH2 0x100 EXP SWAP1 DIV PUSH1 0xFF AND ISZERO DUP3 DUP3 DUP2 MLOAD DUP2 LT PUSH2 0x1549 JUMPI PUSH2 0x1548 PUSH2 0x5D43 JUMP JUMPDEST JUMPDEST PUSH1 0x20 MUL PUSH1 0x20 ADD ADD MLOAD PUSH1 0x40 MLOAD PUSH1 0x20 ADD PUSH2 0x1561 SWAP2 SWAP1 PUSH2 0x51C1 JUMP JUMPDEST PUSH1 0x40 MLOAD PUSH1 0x20 DUP2 DUP4 SUB SUB DUP2 MSTORE SWAP1 PUSH1 0x40 MSTORE SWAP1 PUSH2 0x15B1 JUMPI PUSH1 0x40 MLOAD PUSH32 0x8C379A000000000000000000000000000000000000000000000000000000000 DUP2 MSTORE PUSH1 0x4 ADD PUSH2 0x15A8 SWAP2 SWAP1 PUSH2 0x5427 JUMP JUMPDEST PUSH1 0x40 MLOAD DUP1 SWAP2 SUB SWAP1 REVERT JUMPDEST POP PUSH2 0x15F0 DUP4 DUP3 DUP2 MLOAD DUP2 LT PUSH2 0x15C8 JUMPI PUSH2 0x15C7 PUSH2 0x5D43 JUMP JUMPDEST JUMPDEST PUSH1 0x20 MUL PUSH1 0x20 ADD ADD MLOAD DUP4 DUP4 DUP2 MLOAD DUP2 LT PUSH2 0x15E3 JUMPI PUSH2 0x15E2 PUSH2 0x5D43 JUMP JUMPDEST JUMPDEST PUSH1 0x20 MUL PUSH1 0x20 ADD ADD MLOAD PUSH2 0x2C2E JUMP JUMPDEST PUSH1 0xF PUSH1 0x0 DUP2 SLOAD DUP1 SWAP3 SWAP2 SWAP1 PUSH2 0x1603 SWAP1 PUSH2 0x5C32 JUMP JUMPDEST SWAP2 SWAP1 POP SSTORE POP PUSH1 0x1 PUSH1 0xC PUSH1 0x0 DUP5 DUP5 DUP2 MLOAD DUP2 LT PUSH2 0x1621 JUMPI PUSH2 0x1620 PUSH2 0x5D43 JUMP JUMPDEST JUMPDEST PUSH1 0x20 MUL PUSH1 0x20 ADD ADD MLOAD DUP2 MSTORE PUSH1 0x20 ADD SWAP1 DUP2 MSTORE PUSH1 0x20 ADD PUSH1 0x0 KECCAK256 PUSH1 0x0 PUSH2 0x100 EXP DUP2 SLOAD DUP2 PUSH1 0xFF MUL NOT AND SWAP1 DUP4 ISZERO ISZERO MUL OR SWAP1 SSTORE POP DUP1 DUP1 PUSH2 0x1659 SWAP1 PUSH2 0x5C32 JUMP JUMPDEST SWAP2 POP POP PUSH2 0x14F1 JUMP JUMPDEST POP POP POP JUMP JUMPDEST PUSH2 0x166E PUSH2 0x2C26 JUMP JUMPDEST PUSH20 0xFFFFFFFFFFFFFFFFFFFFFFFFFFFFFFFFFFFFFFFF AND PUSH2 0x168C PUSH2 0x1C18 JUMP JUMPDEST PUSH20 0xFFFFFFFFFFFFFFFFFFFFFFFFFFFFFFFFFFFFFFFF AND EQ PUSH2 0x16E2 JUMPI PUSH1 0x40 MLOAD PUSH32 0x8C379A000000000000000000000000000000000000000000000000000000000 DUP2 MSTORE PUSH1 0x4 ADD PUSH2 0x16D9 SWAP1 PUSH2 0x56CB JUMP JUMPDEST PUSH1 0x40 MLOAD DUP1 SWAP2 SUB SWAP1 REVERT JUMPDEST DUP1 PUSH1 0x11 PUSH1 0x0 PUSH2 0x100 EXP DUP2 SLOAD DUP2 PUSH20 0xFFFFFFFFFFFFFFFFFFFFFFFFFFFFFFFFFFFFFFFF MUL NOT AND SWAP1 DUP4 PUSH20 0xFFFFFFFFFFFFFFFFFFFFFFFFFFFFFFFFFFFFFFFF AND MUL OR SWAP1 SSTORE POP POP JUMP JUMPDEST PUSH2 0x172E PUSH2 0x2C26 JUMP JUMPDEST PUSH20 0xFFFFFFFFFFFFFFFFFFFFFFFFFFFFFFFFFFFFFFFF AND PUSH2 0x174C PUSH2 0x1C18 JUMP JUMPDEST PUSH20 0xFFFFFFFFFFFFFFFFFFFFFFFFFFFFFFFFFFFFFFFF AND EQ PUSH2 0x17A2 JUMPI PUSH1 0x40 MLOAD PUSH32 0x8C379A000000000000000000000000000000000000000000000000000000000 DUP2 MSTORE PUSH1 0x4 ADD PUSH2 0x1799 SWAP1 PUSH2 0x56CB JUMP JUMPDEST PUSH1 0x40 MLOAD DUP1 SWAP2 SUB SWAP1 REVERT JUMPDEST DUP1 PUSH1 0x14 PUSH1 0x0 PUSH2 0x100 EXP DUP2 SLOAD DUP2 PUSH1 0xFF MUL NOT AND SWAP1 DUP4 ISZERO ISZERO MUL OR SWAP1 SSTORE POP POP JUMP JUMPDEST PUSH1 0x0 PUSH2 0x17C9 PUSH2 0x2C26 JUMP JUMPDEST PUSH20 0xFFFFFFFFFFFFFFFFFFFFFFFFFFFFFFFFFFFFFFFF AND PUSH2 0x17E7 PUSH2 0x1C18 JUMP JUMPDEST PUSH20 0xFFFFFFFFFFFFFFFFFFFFFFFFFFFFFFFFFFFFFFFF AND EQ PUSH2 0x183D JUMPI PUSH1 0x40 MLOAD PUSH32 0x8C379A000000000000000000000000000000000000000000000000000000000 DUP2 MSTORE PUSH1 0x4 ADD PUSH2 0x1834 SWAP1 PUSH2 0x56CB JUMP JUMPDEST PUSH1 0x40 MLOAD DUP1 SWAP2 SUB SWAP1 REVERT JUMPDEST DUP2 MLOAD DUP4 MLOAD EQ PUSH2 0x1881 JUMPI PUSH1 0x40 MLOAD PUSH32 0x8C379A000000000000000000000000000000000000000000000000000000000 DUP2 MSTORE PUSH1 0x4 ADD PUSH2 0x1878 SWAP1 PUSH2 0x578B JUMP JUMPDEST PUSH1 0x40 MLOAD DUP1 SWAP2 SUB SWAP1 REVERT JUMPDEST PUSH1 0x0 JUMPDEST DUP4 MLOAD DUP2 LT ISZERO PUSH2 0x18E8 JUMPI PUSH2 0x18CB DUP5 DUP3 DUP2 MLOAD DUP2 LT PUSH2 0x18A3 JUMPI PUSH2 0x18A2 PUSH2 0x5D43 JUMP JUMPDEST JUMPDEST PUSH1 0x20 MUL PUSH1 0x20 ADD ADD MLOAD DUP5 DUP4 DUP2 MLOAD DUP2 LT PUSH2 0x18BE JUMPI PUSH2 0x18BD PUSH2 0x5D43 JUMP JUMPDEST JUMPDEST PUSH1 0x20 MUL PUSH1 0x20 ADD ADD MLOAD PUSH2 0x3566 JUMP JUMPDEST ISZERO PUSH2 0x18D5 JUMPI PUSH1 0x1 SWAP2 POP JUMPDEST DUP1 DUP1 PUSH2 0x18E0 SWAP1 PUSH2 0x5C32 JUMP JUMPDEST SWAP2 POP POP PUSH2 0x1884 JUMP JUMPDEST POP SWAP3 SWAP2 POP POP JUMP JUMPDEST PUSH1 0x14 PUSH1 0x1 SWAP1 SLOAD SWAP1 PUSH2 0x100 EXP SWAP1 DIV PUSH1 0xFF AND DUP2 JUMP JUMPDEST PUSH2 0x190A PUSH2 0x2C26 JUMP JUMPDEST PUSH20 0xFFFFFFFFFFFFFFFFFFFFFFFFFFFFFFFFFFFFFFFF AND PUSH2 0x1928 PUSH2 0x1C18 JUMP JUMPDEST PUSH20 0xFFFFFFFFFFFFFFFFFFFFFFFFFFFFFFFFFFFFFFFF AND EQ PUSH2 0x197E JUMPI PUSH1 0x40 MLOAD PUSH32 0x8C379A000000000000000000000000000000000000000000000000000000000 DUP2 MSTORE PUSH1 0x4 ADD PUSH2 0x1975 SWAP1 PUSH2 0x56CB JUMP JUMPDEST PUSH1 0x40 MLOAD DUP1 SWAP2 SUB SWAP1 REVERT JUMPDEST DUP1 PUSH1 0x9 SWAP1 DUP1 MLOAD SWAP1 PUSH1 0x20 ADD SWAP1 PUSH2 0x1994 SWAP3 SWAP2 SWAP1 PUSH2 0x3FF5 JUMP JUMPDEST POP POP JUMP JUMPDEST PUSH1 0x0 DUP1 PUSH1 0x2 PUSH1 0x0 DUP5 DUP2 MSTORE PUSH1 0x20 ADD SWAP1 DUP2 MSTORE PUSH1 0x20 ADD PUSH1 0x0 KECCAK256 PUSH1 0x0 SWAP1 SLOAD SWAP1 PUSH2 0x100 EXP SWAP1 DIV PUSH20 0xFFFFFFFFFFFFFFFFFFFFFFFFFFFFFFFFFFFFFFFF AND SWAP1 POP PUSH1 0x0 PUSH20 0xFFFFFFFFFFFFFFFFFFFFFFFFFFFFFFFFFFFFFFFF AND DUP2 PUSH20 0xFFFFFFFFFFFFFFFFFFFFFFFFFFFFFFFFFFFFFFFF AND EQ ISZERO PUSH2 0x1A41 JUMPI PUSH1 0x40 MLOAD PUSH32 0x8C379A000000000000000000000000000000000000000000000000000000000 DUP2 MSTORE PUSH1 0x4 ADD PUSH2 0x1A38 SWAP1 PUSH2 0x564B JUMP JUMPDEST PUSH1 0x40 MLOAD DUP1 SWAP2 SUB SWAP1 REVERT JUMPDEST DUP1 SWAP2 POP POP SWAP2 SWAP1 POP JUMP JUMPDEST PUSH1 0x9 DUP1 SLOAD PUSH2 0x1A57 SWAP1 PUSH2 0x5BCF JUMP JUMPDEST DUP1 PUSH1 0x1F ADD PUSH1 0x20 DUP1 SWAP2 DIV MUL PUSH1 0x20 ADD PUSH1 0x40 MLOAD SWAP1 DUP2 ADD PUSH1 0x40 MSTORE DUP1 SWAP3 SWAP2 SWAP1 DUP2 DUP2 MSTORE PUSH1 0x20 ADD DUP3 DUP1 SLOAD PUSH2 0x1A83 SWAP1 PUSH2 0x5BCF JUMP JUMPDEST DUP1 ISZERO PUSH2 0x1AD0 JUMPI DUP1 PUSH1 0x1F LT PUSH2 0x1AA5 JUMPI PUSH2 0x100 DUP1 DUP4 SLOAD DIV MUL DUP4 MSTORE SWAP2 PUSH1 0x20 ADD SWAP2 PUSH2 0x1AD0 JUMP JUMPDEST DUP3 ADD SWAP2 SWAP1 PUSH1 0x0 MSTORE PUSH1 0x20 PUSH1 0x0 KECCAK256 SWAP1 JUMPDEST DUP2 SLOAD DUP2 MSTORE SWAP1 PUSH1 0x1 ADD SWAP1 PUSH1 0x20 ADD DUP1 DUP4 GT PUSH2 0x1AB3 JUMPI DUP3 SWAP1 SUB PUSH1 0x1F AND DUP3 ADD SWAP2 JUMPDEST POP POP POP POP POP DUP2 JUMP JUMPDEST PUSH1 0x0 DUP1 PUSH20 0xFFFFFFFFFFFFFFFFFFFFFFFFFFFFFFFFFFFFFFFF AND DUP3 PUSH20 0xFFFFFFFFFFFFFFFFFFFFFFFFFFFFFFFFFFFFFFFF AND EQ ISZERO PUSH2 0x1B49 JUMPI PUSH1 0x40 MLOAD PUSH32 0x8C379A000000000000000000000000000000000000000000000000000000000 DUP2 MSTORE PUSH1 0x4 ADD PUSH2 0x1B40 SWAP1 PUSH2 0x562B JUMP JUMPDEST PUSH1 0x40 MLOAD DUP1 SWAP2 SUB SWAP1 REVERT JUMPDEST PUSH1 0x3 PUSH1 0x0 DUP4 PUSH20 0xFFFFFFFFFFFFFFFFFFFFFFFFFFFFFFFFFFFFFFFF AND PUSH20 0xFFFFFFFFFFFFFFFFFFFFFFFFFFFFFFFFFFFFFFFF AND DUP2 MSTORE PUSH1 0x20 ADD SWAP1 DUP2 MSTORE PUSH1 0x20 ADD PUSH1 0x0 KECCAK256 SLOAD SWAP1 POP SWAP2 SWAP1 POP JUMP JUMPDEST PUSH2 0x1B98 PUSH2 0x2C26 JUMP JUMPDEST PUSH20 0xFFFFFFFFFFFFFFFFFFFFFFFFFFFFFFFFFFFFFFFF AND PUSH2 0x1BB6 PUSH2 0x1C18 JUMP JUMPDEST PUSH20 0xFFFFFFFFFFFFFFFFFFFFFFFFFFFFFFFFFFFFFFFF AND EQ PUSH2 0x1C0C JUMPI PUSH1 0x40 MLOAD PUSH32 0x8C379A000000000000000000000000000000000000000000000000000000000 DUP2 MSTORE PUSH1 0x4 ADD PUSH2 0x1C03 SWAP1 PUSH2 0x56CB JUMP JUMPDEST PUSH1 0x40 MLOAD DUP1 SWAP2 SUB SWAP1 REVERT JUMPDEST PUSH2 0x1C16 PUSH1 0x0 PUSH2 0x358A JUMP JUMPDEST JUMP JUMPDEST PUSH1 0x0 PUSH1 0x6 PUSH1 0x0 SWAP1 SLOAD SWAP1 PUSH2 0x100 EXP SWAP1 DIV PUSH20 0xFFFFFFFFFFFFFFFFFFFFFFFFFFFFFFFFFFFFFFFF AND SWAP1 POP SWAP1 JUMP JUMPDEST PUSH1 0xB PUSH1 0x20 MSTORE DUP1 PUSH1 0x0 MSTORE PUSH1 0x40 PUSH1 0x0 KECCAK256 PUSH1 0x0 SWAP2 POP SWAP1 POP SLOAD DUP2 JUMP JUMPDEST PUSH1 0x0 PUSH1 0x7 PUSH1 0x0 DUP5 DUP2 MSTORE PUSH1 0x20 ADD SWAP1 DUP2 MSTORE PUSH1 0x20 ADD PUSH1 0x0 KECCAK256 PUSH1 0x0 ADD PUSH1 0x0 DUP4 PUSH20 0xFFFFFFFFFFFFFFFFFFFFFFFFFFFFFFFFFFFFFFFF AND PUSH20 0xFFFFFFFFFFFFFFFFFFFFFFFFFFFFFFFFFFFFFFFF AND DUP2 MSTORE PUSH1 0x20 ADD SWAP1 DUP2 MSTORE PUSH1 0x20 ADD PUSH1 0x0 KECCAK256 PUSH1 0x0 SWAP1 SLOAD SWAP1 PUSH2 0x100 EXP SWAP1 DIV PUSH1 0xFF AND SWAP1 POP SWAP3 SWAP2 POP POP JUMP JUMPDEST PUSH1 0x14 DUP2 JUMP JUMPDEST PUSH1 0x60 PUSH1 0x1 DUP1 SLOAD PUSH2 0x1CD9 SWAP1 PUSH2 0x5BCF JUMP JUMPDEST DUP1 PUSH1 0x1F ADD PUSH1 0x20 DUP1 SWAP2 DIV MUL PUSH1 0x20 ADD PUSH1 0x40 MLOAD SWAP1 DUP2 ADD PUSH1 0x40 MSTORE DUP1 SWAP3 SWAP2 SWAP1 DUP2 DUP2 MSTORE PUSH1 0x20 ADD DUP3 DUP1 SLOAD PUSH2 0x1D05 SWAP1 PUSH2 0x5BCF JUMP JUMPDEST DUP1 ISZERO PUSH2 0x1D52 JUMPI DUP1 PUSH1 0x1F LT PUSH2 0x1D27 JUMPI PUSH2 0x100 DUP1 DUP4 SLOAD DIV MUL DUP4 MSTORE SWAP2 PUSH1 0x20 ADD SWAP2 PUSH2 0x1D52 JUMP JUMPDEST DUP3 ADD SWAP2 SWAP1 PUSH1 0x0 MSTORE PUSH1 0x20 PUSH1 0x0 KECCAK256 SWAP1 JUMPDEST DUP2 SLOAD DUP2 MSTORE SWAP1 PUSH1 0x1 ADD SWAP1 PUSH1 0x20 ADD DUP1 DUP4 GT PUSH2 0x1D35 JUMPI DUP3 SWAP1 SUB PUSH1 0x1F AND DUP3 ADD SWAP2 JUMPDEST POP POP POP POP POP SWAP1 POP SWAP1 JUMP JUMPDEST PUSH1 0x14 PUSH1 0x2 SWAP1 SLOAD SWAP1 PUSH2 0x100 EXP SWAP1 DIV PUSH1 0xFF AND PUSH2 0x1D75 JUMPI PUSH1 0x0 DUP1 REVERT JUMPDEST PUSH1 0x0 DUP3 DUP3 SWAP1 POP SWAP1 POP PUSH1 0x14 DUP2 GT ISZERO PUSH2 0x1DC1 JUMPI PUSH1 0x40 MLOAD PUSH32 0x8C379A000000000000000000000000000000000000000000000000000000000 DUP2 MSTORE PUSH1 0x4 ADD PUSH2 0x1DB8 SWAP1 PUSH2 0x57CB JUMP JUMPDEST PUSH1 0x40 MLOAD DUP1 SWAP2 SUB SWAP1 REVERT JUMPDEST PUSH1 0x0 JUMPDEST DUP2 DUP2 LT ISZERO PUSH2 0x1EEB JUMPI PUSH1 0x0 DUP5 DUP5 DUP4 DUP2 DUP2 LT PUSH2 0x1DE1 JUMPI PUSH2 0x1DE0 PUSH2 0x5D43 JUMP JUMPDEST JUMPDEST SWAP1 POP PUSH1 0x20 MUL ADD CALLDATALOAD SWAP1 POP PUSH2 0x1DF3 DUP2 PUSH2 0x1998 JUMP JUMPDEST PUSH20 0xFFFFFFFFFFFFFFFFFFFFFFFFFFFFFFFFFFFFFFFF AND PUSH2 0x1E11 PUSH2 0x2C26 JUMP JUMPDEST PUSH20 0xFFFFFFFFFFFFFFFFFFFFFFFFFFFFFFFFFFFFFFFF AND EQ DUP2 PUSH1 0x40 MLOAD PUSH1 0x20 ADD PUSH2 0x1E39 SWAP2 SWAP1 PUSH2 0x51E7 JUMP JUMPDEST PUSH1 0x40 MLOAD PUSH1 0x20 DUP2 DUP4 SUB SUB DUP2 MSTORE SWAP1 PUSH1 0x40 MSTORE SWAP1 PUSH2 0x1E89 JUMPI PUSH1 0x40 MLOAD PUSH32 0x8C379A000000000000000000000000000000000000000000000000000000000 DUP2 MSTORE PUSH1 0x4 ADD PUSH2 0x1E80 SWAP2 SWAP1 PUSH2 0x5427 JUMP JUMPDEST PUSH1 0x40 MLOAD DUP1 SWAP2 SUB SWAP1 REVERT JUMPDEST POP PUSH1 0x1 PUSH1 0x10 PUSH1 0x0 DUP4 DUP2 MSTORE PUSH1 0x20 ADD SWAP1 DUP2 MSTORE PUSH1 0x20 ADD PUSH1 0x0 KECCAK256 PUSH1 0x0 PUSH2 0x100 EXP DUP2 SLOAD DUP2 PUSH1 0xFF MUL NOT AND SWAP1 DUP4 ISZERO ISZERO MUL OR SWAP1 SSTORE POP PUSH2 0x1EBF DUP2 PUSH2 0x3367 JUMP JUMPDEST PUSH1 0xF PUSH1 0x0 DUP2 SLOAD DUP1 SWAP3 SWAP2 SWAP1 PUSH2 0x1ED2 SWAP1 PUSH2 0x5BA5 JUMP JUMPDEST SWAP2 SWAP1 POP SSTORE POP POP DUP1 DUP1 PUSH2 0x1EE3 SWAP1 PUSH2 0x5C32 JUMP JUMPDEST SWAP2 POP POP PUSH2 0x1DC4 JUMP JUMPDEST POP PUSH2 0x1EF4 PUSH2 0x2C26 JUMP JUMPDEST PUSH20 0xFFFFFFFFFFFFFFFFFFFFFFFFFFFFFFFFFFFFFFFF AND PUSH32 0xF871896B17E9CB7A64941C62C188A4F5C621B86800E3D15452ECE01CE56073DF DUP5 DUP5 PUSH1 0x40 MLOAD PUSH2 0x1F3B SWAP3 SWAP2 SWAP1 PUSH2 0x5375 JUMP JUMPDEST PUSH1 0x40 MLOAD DUP1 SWAP2 SUB SWAP1 LOG2 POP POP POP JUMP JUMPDEST PUSH1 0x0 DUP1 SHL DUP2 JUMP JUMPDEST PUSH2 0x1F61 PUSH2 0x1F5A PUSH2 0x2C26 JUMP JUMPDEST DUP4 DUP4 PUSH2 0x3650 JUMP JUMPDEST POP POP JUMP JUMPDEST PUSH32 0x8F4F2DA22E8AC8F11E15F9FC141CDDBB5DEEA8800186560ABB6E68C5496619A9 DUP2 JUMP JUMPDEST PUSH2 0x1F91 PUSH2 0x2C26 JUMP JUMPDEST PUSH20 0xFFFFFFFFFFFFFFFFFFFFFFFFFFFFFFFFFFFFFFFF AND PUSH2 0x1FAF PUSH2 0x1C18 JUMP JUMPDEST PUSH20 0xFFFFFFFFFFFFFFFFFFFFFFFFFFFFFFFFFFFFFFFF AND EQ PUSH2 0x2005 JUMPI PUSH1 0x40 MLOAD PUSH32 0x8C379A000000000000000000000000000000000000000000000000000000000 DUP2 MSTORE PUSH1 0x4 ADD PUSH2 0x1FFC SWAP1 PUSH2 0x56CB JUMP JUMPDEST PUSH1 0x40 MLOAD DUP1 SWAP2 SUB SWAP1 REVERT JUMPDEST DUP1 PUSH1 0x14 PUSH1 0x2 PUSH2 0x100 EXP DUP2 SLOAD DUP2 PUSH1 0xFF MUL NOT AND SWAP1 DUP4 ISZERO ISZERO MUL OR SWAP1 SSTORE POP POP JUMP JUMPDEST PUSH1 0x11 PUSH1 0x0 SWAP1 SLOAD SWAP1 PUSH2 0x100 EXP SWAP1 DIV PUSH20 0xFFFFFFFFFFFFFFFFFFFFFFFFFFFFFFFFFFFFFFFF AND DUP2 JUMP JUMPDEST PUSH1 0x12 PUSH1 0x0 SWAP1 SLOAD SWAP1 PUSH2 0x100 EXP SWAP1 DIV PUSH20 0xFFFFFFFFFFFFFFFFFFFFFFFFFFFFFFFFFFFFFFFF AND DUP2 JUMP JUMPDEST PUSH2 0x207F PUSH2 0x2079 PUSH2 0x2C26 JUMP JUMPDEST DUP4 PUSH2 0x2F2D JUMP JUMPDEST PUSH2 0x20BE JUMPI PUSH1 0x40 MLOAD PUSH32 0x8C379A000000000000000000000000000000000000000000000000000000000 DUP2 MSTORE PUSH1 0x4 ADD PUSH2 0x20B5 SWAP1 PUSH2 0x574B JUMP JUMPDEST PUSH1 0x40 MLOAD DUP1 SWAP2 SUB SWAP1 REVERT JUMPDEST PUSH2 0x20CA DUP5 DUP5 DUP5 DUP5 PUSH2 0x37BD JUMP JUMPDEST POP POP POP POP JUMP JUMPDEST PUSH1 0xA DUP1 SLOAD PUSH2 0x20DD SWAP1 PUSH2 0x5BCF JUMP JUMPDEST DUP1 PUSH1 0x1F ADD PUSH1 0x20 DUP1 SWAP2 DIV MUL PUSH1 0x20 ADD PUSH1 0x40 MLOAD SWAP1 DUP2 ADD PUSH1 0x40 MSTORE DUP1 SWAP3 SWAP2 SWAP1 DUP2 DUP2 MSTORE PUSH1 0x20 ADD DUP3 DUP1 SLOAD PUSH2 0x2109 SWAP1 PUSH2 0x5BCF JUMP JUMPDEST DUP1 ISZERO PUSH2 0x2156 JUMPI DUP1 PUSH1 0x1F LT PUSH2 0x212B JUMPI PUSH2 0x100 DUP1 DUP4 SLOAD DIV MUL DUP4 MSTORE SWAP2 PUSH1 0x20 ADD SWAP2 PUSH2 0x2156 JUMP JUMPDEST DUP3 ADD SWAP2 SWAP1 PUSH1 0x0 MSTORE PUSH1 0x20 PUSH1 0x0 KECCAK256 SWAP1 JUMPDEST DUP2 SLOAD DUP2 MSTORE SWAP1 PUSH1 0x1 ADD SWAP1 PUSH1 0x20 ADD DUP1 DUP4 GT PUSH2 0x2139 JUMPI DUP3 SWAP1 SUB PUSH1 0x1F AND DUP3 ADD SWAP2 JUMPDEST POP POP POP POP POP DUP2 JUMP JUMPDEST PUSH1 0xD PUSH1 0x0 SWAP1 SLOAD SWAP1 PUSH2 0x100 EXP SWAP1 DIV PUSH20 0xFFFFFFFFFFFFFFFFFFFFFFFFFFFFFFFFFFFFFFFF AND DUP2 JUMP JUMPDEST PUSH1 0x60 PUSH2 0x218F DUP3 PUSH2 0x2E08 JUMP JUMPDEST PUSH2 0x21CE JUMPI PUSH1 0x40 MLOAD PUSH32 0x8C379A000000000000000000000000000000000000000000000000000000000 DUP2 MSTORE PUSH1 0x4 ADD PUSH2 0x21C5 SWAP1 PUSH2 0x56AB JUMP JUMPDEST PUSH1 0x40 MLOAD DUP1 SWAP2 SUB SWAP1 REVERT JUMPDEST PUSH1 0x0 PUSH2 0x21D8 PUSH2 0x3819 JUMP JUMPDEST SWAP1 POP PUSH1 0x0 DUP2 MLOAD GT PUSH2 0x21F8 JUMPI PUSH1 0x40 MLOAD DUP1 PUSH1 0x20 ADD PUSH1 0x40 MSTORE DUP1 PUSH1 0x0 DUP2 MSTORE POP PUSH2 0x2226 JUMP JUMPDEST DUP1 PUSH2 0x2202 DUP5 PUSH2 0x38AB JUMP JUMPDEST PUSH1 0xA PUSH1 0x40 MLOAD PUSH1 0x20 ADD PUSH2 0x2216 SWAP4 SWAP3 SWAP2 SWAP1 PUSH2 0x5190 JUMP JUMPDEST PUSH1 0x40 MLOAD PUSH1 0x20 DUP2 DUP4 SUB SUB DUP2 MSTORE SWAP1 PUSH1 0x40 MSTORE JUMPDEST SWAP2 POP POP SWAP2 SWAP1 POP JUMP JUMPDEST PUSH1 0x14 PUSH1 0x0 SWAP1 SLOAD SWAP1 PUSH2 0x100 EXP SWAP1 DIV PUSH1 0xFF AND PUSH2 0x227D JUMPI PUSH1 0x40 MLOAD PUSH32 0x8C379A000000000000000000000000000000000000000000000000000000000 DUP2 MSTORE PUSH1 0x4 ADD PUSH2 0x2274 SWAP1 PUSH2 0x560B JUMP JUMPDEST PUSH1 0x40 MLOAD DUP1 SWAP2 SUB SWAP1 REVERT JUMPDEST PUSH1 0xD PUSH1 0x0 SWAP1 SLOAD SWAP1 PUSH2 0x100 EXP SWAP1 DIV PUSH20 0xFFFFFFFFFFFFFFFFFFFFFFFFFFFFFFFFFFFFFFFF AND PUSH20 0xFFFFFFFFFFFFFFFFFFFFFFFFFFFFFFFFFFFFFFFF AND PUSH4 0xE985E9C5 DUP4 ADDRESS PUSH1 0x40 MLOAD DUP4 PUSH4 0xFFFFFFFF AND PUSH1 0xE0 SHL DUP2 MSTORE PUSH1 0x4 ADD PUSH2 0x22DA SWAP3 SWAP2 SWAP1 PUSH2 0x5262 JUMP JUMPDEST PUSH1 0x20 PUSH1 0x40 MLOAD DUP1 DUP4 SUB DUP2 DUP7 DUP1 EXTCODESIZE ISZERO DUP1 ISZERO PUSH2 0x22F2 JUMPI PUSH1 0x0 DUP1 REVERT JUMPDEST POP GAS STATICCALL ISZERO DUP1 ISZERO PUSH2 0x2306 JUMPI RETURNDATASIZE PUSH1 0x0 DUP1 RETURNDATACOPY RETURNDATASIZE PUSH1 0x0 REVERT JUMPDEST POP POP POP POP PUSH1 0x40 MLOAD RETURNDATASIZE PUSH1 0x1F NOT PUSH1 0x1F DUP3 ADD AND DUP3 ADD DUP1 PUSH1 0x40 MSTORE POP DUP2 ADD SWAP1 PUSH2 0x232A SWAP2 SWAP1 PUSH2 0x4896 JUMP JUMPDEST PUSH2 0x2369 JUMPI PUSH1 0x40 MLOAD PUSH32 0x8C379A000000000000000000000000000000000000000000000000000000000 DUP2 MSTORE PUSH1 0x4 ADD PUSH2 0x2360 SWAP1 PUSH2 0x556B JUMP JUMPDEST PUSH1 0x40 MLOAD DUP1 SWAP2 SUB SWAP1 REVERT JUMPDEST PUSH1 0xE SLOAD DUP2 MLOAD PUSH1 0xF SLOAD PUSH2 0x237B SWAP2 SWAP1 PUSH2 0x5976 JUMP JUMPDEST GT ISZERO PUSH2 0x23BC JUMPI PUSH1 0x40 MLOAD PUSH32 0x8C379A000000000000000000000000000000000000000000000000000000000 DUP2 MSTORE PUSH1 0x4 ADD PUSH2 0x23B3 SWAP1 PUSH2 0x55AB JUMP JUMPDEST PUSH1 0x40 MLOAD DUP1 SWAP2 SUB SWAP1 REVERT JUMPDEST PUSH1 0x0 JUMPDEST DUP2 MLOAD DUP2 LT ISZERO PUSH2 0x2655 JUMPI PUSH1 0x10 PUSH1 0x0 DUP4 DUP4 DUP2 MLOAD DUP2 LT PUSH2 0x23DF JUMPI PUSH2 0x23DE PUSH2 0x5D43 JUMP JUMPDEST JUMPDEST PUSH1 0x20 MUL PUSH1 0x20 ADD ADD MLOAD DUP2 MSTORE PUSH1 0x20 ADD SWAP1 DUP2 MSTORE PUSH1 0x20 ADD PUSH1 0x0 KECCAK256 PUSH1 0x0 SWAP1 SLOAD SWAP1 PUSH2 0x100 EXP SWAP1 DIV PUSH1 0xFF AND ISZERO PUSH2 0x2443 JUMPI PUSH1 0x40 MLOAD PUSH32 0x8C379A000000000000000000000000000000000000000000000000000000000 DUP2 MSTORE PUSH1 0x4 ADD PUSH2 0x243A SWAP1 PUSH2 0x55CB JUMP JUMPDEST PUSH1 0x40 MLOAD DUP1 SWAP2 SUB SWAP1 REVERT JUMPDEST PUSH1 0xC PUSH1 0x0 DUP4 DUP4 DUP2 MLOAD DUP2 LT PUSH2 0x245A JUMPI PUSH2 0x2459 PUSH2 0x5D43 JUMP JUMPDEST JUMPDEST PUSH1 0x20 MUL PUSH1 0x20 ADD ADD MLOAD DUP2 MSTORE PUSH1 0x20 ADD SWAP1 DUP2 MSTORE PUSH1 0x20 ADD PUSH1 0x0 KECCAK256 PUSH1 0x0 SWAP1 SLOAD SWAP1 PUSH2 0x100 EXP SWAP1 DIV PUSH1 0xFF AND ISZERO DUP3 DUP3 DUP2 MLOAD DUP2 LT PUSH2 0x2492 JUMPI PUSH2 0x2491 PUSH2 0x5D43 JUMP JUMPDEST JUMPDEST PUSH1 0x20 MUL PUSH1 0x20 ADD ADD MLOAD PUSH1 0x40 MLOAD PUSH1 0x20 ADD PUSH2 0x24AA SWAP2 SWAP1 PUSH2 0x51C1 JUMP JUMPDEST PUSH1 0x40 MLOAD PUSH1 0x20 DUP2 DUP4 SUB SUB DUP2 MSTORE SWAP1 PUSH1 0x40 MSTORE SWAP1 PUSH2 0x24FA JUMPI PUSH1 0x40 MLOAD PUSH32 0x8C379A000000000000000000000000000000000000000000000000000000000 DUP2 MSTORE PUSH1 0x4 ADD PUSH2 0x24F1 SWAP2 SWAP1 PUSH2 0x5427 JUMP JUMPDEST PUSH1 0x40 MLOAD DUP1 SWAP2 SUB SWAP1 REVERT JUMPDEST POP PUSH1 0x0 PUSH1 0xB PUSH1 0x0 DUP5 DUP5 DUP2 MLOAD DUP2 LT PUSH2 0x2514 JUMPI PUSH2 0x2513 PUSH2 0x5D43 JUMP JUMPDEST JUMPDEST PUSH1 0x20 MUL PUSH1 0x20 ADD ADD MLOAD DUP2 MSTORE PUSH1 0x20 ADD SWAP1 DUP2 MSTORE PUSH1 0x20 ADD PUSH1 0x0 KECCAK256 SLOAD SWAP1 POP PUSH1 0xD PUSH1 0x0 SWAP1 SLOAD SWAP1 PUSH2 0x100 EXP SWAP1 DIV PUSH20 0xFFFFFFFFFFFFFFFFFFFFFFFFFFFFFFFFFFFFFFFF AND PUSH20 0xFFFFFFFFFFFFFFFFFFFFFFFFFFFFFFFFFFFFFFFF AND PUSH4 0xF5298ACA DUP6 DUP4 PUSH1 0x1 PUSH1 0x40 MLOAD DUP5 PUSH4 0xFFFFFFFF AND PUSH1 0xE0 SHL DUP2 MSTORE PUSH1 0x4 ADD PUSH2 0x258D SWAP4 SWAP3 SWAP2 SWAP1 PUSH2 0x533E JUMP JUMPDEST PUSH1 0x0 PUSH1 0x40 MLOAD DUP1 DUP4 SUB DUP2 PUSH1 0x0 DUP8 DUP1 EXTCODESIZE ISZERO DUP1 ISZERO PUSH2 0x25A7 JUMPI PUSH1 0x0 DUP1 REVERT JUMPDEST POP GAS CALL ISZERO DUP1 ISZERO PUSH2 0x25BB JUMPI RETURNDATASIZE PUSH1 0x0 DUP1 RETURNDATACOPY RETURNDATASIZE PUSH1 0x0 REVERT JUMPDEST POP POP POP POP PUSH2 0x25E3 DUP5 DUP5 DUP5 DUP2 MLOAD DUP2 LT PUSH2 0x25D6 JUMPI PUSH2 0x25D5 PUSH2 0x5D43 JUMP JUMPDEST JUMPDEST PUSH1 0x20 MUL PUSH1 0x20 ADD ADD MLOAD PUSH2 0x2C2E JUMP JUMPDEST PUSH1 0xF PUSH1 0x0 DUP2 SLOAD DUP1 SWAP3 SWAP2 SWAP1 PUSH2 0x25F6 SWAP1 PUSH2 0x5C32 JUMP JUMPDEST SWAP2 SWAP1 POP SSTORE POP PUSH1 0x1 PUSH1 0xC PUSH1 0x0 DUP6 DUP6 DUP2 MLOAD DUP2 LT PUSH2 0x2614 JUMPI PUSH2 0x2613 PUSH2 0x5D43 JUMP JUMPDEST JUMPDEST PUSH1 0x20 MUL PUSH1 0x20 ADD ADD MLOAD DUP2 MSTORE PUSH1 0x20 ADD SWAP1 DUP2 MSTORE PUSH1 0x20 ADD PUSH1 0x0 KECCAK256 PUSH1 0x0 PUSH2 0x100 EXP DUP2 SLOAD DUP2 PUSH1 0xFF MUL NOT AND SWAP1 DUP4 ISZERO ISZERO MUL OR SWAP1 SSTORE POP POP DUP1 DUP1 PUSH2 0x264D SWAP1 PUSH2 0x5C32 JUMP JUMPDEST SWAP2 POP POP PUSH2 0x23BF JUMP JUMPDEST POP POP POP JUMP JUMPDEST PUSH32 0x8F4F2DA22E8AC8F11E15F9FC141CDDBB5DEEA8800186560ABB6E68C5496619A9 PUSH2 0x268C DUP2 PUSH2 0x2687 PUSH2 0x2C26 JUMP JUMPDEST PUSH2 0x1C5A JUMP JUMPDEST PUSH1 0x8 SWAP1 PUSH2 0x26CF JUMPI PUSH1 0x40 MLOAD PUSH32 0x8C379A000000000000000000000000000000000000000000000000000000000 DUP2 MSTORE PUSH1 0x4 ADD PUSH2 0x26C6 SWAP2 SWAP1 PUSH2 0x5449 JUMP JUMPDEST PUSH1 0x40 MLOAD DUP1 SWAP2 SUB SWAP1 REVERT JUMPDEST POP PUSH1 0x20 DUP4 DUP4 SWAP1 POP EQ ISZERO PUSH2 0x2743 JUMPI PUSH1 0x0 DUP4 DUP4 DUP2 ADD SWAP1 PUSH2 0x26ED SWAP2 SWAP1 PUSH2 0x49D3 JUMP JUMPDEST SWAP1 POP PUSH1 0x0 PUSH1 0x10 PUSH1 0x0 DUP4 DUP2 MSTORE PUSH1 0x20 ADD SWAP1 DUP2 MSTORE PUSH1 0x20 ADD PUSH1 0x0 KECCAK256 PUSH1 0x0 PUSH2 0x100 EXP DUP2 SLOAD DUP2 PUSH1 0xFF MUL NOT AND SWAP1 DUP4 ISZERO ISZERO MUL OR SWAP1 SSTORE POP PUSH2 0x2725 DUP6 DUP3 PUSH2 0x2C2E JUMP JUMPDEST PUSH1 0xF PUSH1 0x0 DUP2 SLOAD DUP1 SWAP3 SWAP2 SWAP1 PUSH2 0x2738 SWAP1 PUSH2 0x5C32 JUMP JUMPDEST SWAP2 SWAP1 POP SSTORE POP POP PUSH2 0x2800 JUMP JUMPDEST PUSH1 0x0 DUP4 DUP4 DUP2 ADD SWAP1 PUSH2 0x2754 SWAP2 SWAP1 PUSH2 0x474C JUMP JUMPDEST SWAP1 POP PUSH1 0x0 DUP2 MLOAD SWAP1 POP PUSH1 0x0 JUMPDEST DUP2 DUP2 LT ISZERO PUSH2 0x27FC JUMPI PUSH1 0x0 PUSH1 0x10 PUSH1 0x0 DUP6 DUP5 DUP2 MLOAD DUP2 LT PUSH2 0x2780 JUMPI PUSH2 0x277F PUSH2 0x5D43 JUMP JUMPDEST JUMPDEST PUSH1 0x20 MUL PUSH1 0x20 ADD ADD MLOAD DUP2 MSTORE PUSH1 0x20 ADD SWAP1 DUP2 MSTORE PUSH1 0x20 ADD PUSH1 0x0 KECCAK256 PUSH1 0x0 PUSH2 0x100 EXP DUP2 SLOAD DUP2 PUSH1 0xFF MUL NOT AND SWAP1 DUP4 ISZERO ISZERO MUL OR SWAP1 SSTORE POP PUSH2 0x27D1 DUP8 DUP5 DUP4 DUP2 MLOAD DUP2 LT PUSH2 0x27C4 JUMPI PUSH2 0x27C3 PUSH2 0x5D43 JUMP JUMPDEST JUMPDEST PUSH1 0x20 MUL PUSH1 0x20 ADD ADD MLOAD PUSH2 0x2C2E JUMP JUMPDEST PUSH1 0xF PUSH1 0x0 DUP2 SLOAD DUP1 SWAP3 SWAP2 SWAP1 PUSH2 0x27E4 SWAP1 PUSH2 0x5C32 JUMP JUMPDEST SWAP2 SWAP1 POP SSTORE POP DUP1 DUP1 PUSH2 0x27F4 SWAP1 PUSH2 0x5C32 JUMP JUMPDEST SWAP2 POP POP PUSH2 0x275F JUMP JUMPDEST POP POP POP JUMPDEST POP POP POP POP JUMP JUMPDEST PUSH32 0x352D05FE3946DBE49277552BA941E744D5A96D9C60BC1BA0EA5F1D3AE000F7C8 PUSH2 0x2838 DUP2 PUSH2 0x2833 PUSH2 0x2C26 JUMP JUMPDEST PUSH2 0x1C5A JUMP JUMPDEST PUSH1 0x8 SWAP1 PUSH2 0x287B JUMPI PUSH1 0x40 MLOAD PUSH32 0x8C379A000000000000000000000000000000000000000000000000000000000 DUP2 MSTORE PUSH1 0x4 ADD PUSH2 0x2872 SWAP2 SWAP1 PUSH2 0x5449 JUMP JUMPDEST PUSH1 0x40 MLOAD DUP1 SWAP2 SUB SWAP1 REVERT JUMPDEST POP DUP2 PUSH1 0x13 DUP2 SWAP1 SSTORE POP POP POP JUMP JUMPDEST PUSH2 0x2890 DUP3 PUSH2 0xD98 JUMP JUMPDEST PUSH2 0x2899 DUP2 PUSH2 0x3272 JUMP JUMPDEST PUSH2 0x28A3 DUP4 DUP4 PUSH2 0x3484 JUMP JUMPDEST POP POP POP JUMP JUMPDEST PUSH1 0xE SLOAD DUP2 JUMP JUMPDEST PUSH1 0x14 PUSH1 0x2 SWAP1 SLOAD SWAP1 PUSH2 0x100 EXP SWAP1 DIV PUSH1 0xFF AND DUP2 JUMP JUMPDEST PUSH1 0x0 PUSH1 0x5 PUSH1 0x0 DUP5 PUSH20 0xFFFFFFFFFFFFFFFFFFFFFFFFFFFFFFFFFFFFFFFF AND PUSH20 0xFFFFFFFFFFFFFFFFFFFFFFFFFFFFFFFFFFFFFFFF AND DUP2 MSTORE PUSH1 0x20 ADD SWAP1 DUP2 MSTORE PUSH1 0x20 ADD PUSH1 0x0 KECCAK256 PUSH1 0x0 DUP4 PUSH20 0xFFFFFFFFFFFFFFFFFFFFFFFFFFFFFFFFFFFFFFFF AND PUSH20 0xFFFFFFFFFFFFFFFFFFFFFFFFFFFFFFFFFFFFFFFF AND DUP2 MSTORE PUSH1 0x20 ADD SWAP1 DUP2 MSTORE PUSH1 0x20 ADD PUSH1 0x0 KECCAK256 PUSH1 0x0 SWAP1 SLOAD SWAP1 PUSH2 0x100 EXP SWAP1 DIV PUSH1 0xFF AND SWAP1 POP SWAP3 SWAP2 POP POP JUMP JUMPDEST PUSH1 0x13 SLOAD DUP2 JUMP JUMPDEST PUSH2 0x2963 PUSH2 0x2C26 JUMP JUMPDEST PUSH20 0xFFFFFFFFFFFFFFFFFFFFFFFFFFFFFFFFFFFFFFFF AND PUSH2 0x2981 PUSH2 0x1C18 JUMP JUMPDEST PUSH20 0xFFFFFFFFFFFFFFFFFFFFFFFFFFFFFFFFFFFFFFFF AND EQ PUSH2 0x29D7 JUMPI PUSH1 0x40 MLOAD PUSH32 0x8C379A000000000000000000000000000000000000000000000000000000000 DUP2 MSTORE PUSH1 0x4 ADD PUSH2 0x29CE SWAP1 PUSH2 0x56CB JUMP JUMPDEST PUSH1 0x40 MLOAD DUP1 SWAP2 SUB SWAP1 REVERT JUMPDEST PUSH1 0x0 PUSH20 0xFFFFFFFFFFFFFFFFFFFFFFFFFFFFFFFFFFFFFFFF AND DUP2 PUSH20 0xFFFFFFFFFFFFFFFFFFFFFFFFFFFFFFFFFFFFFFFF AND EQ ISZERO PUSH2 0x2A47 JUMPI PUSH1 0x40 MLOAD PUSH32 0x8C379A000000000000000000000000000000000000000000000000000000000 DUP2 MSTORE PUSH1 0x4 ADD PUSH2 0x2A3E SWAP1 PUSH2 0x54AB JUMP JUMPDEST PUSH1 0x40 MLOAD DUP1 SWAP2 SUB SWAP1 REVERT JUMPDEST PUSH2 0x2A50 DUP2 PUSH2 0x358A JUMP JUMPDEST POP JUMP JUMPDEST PUSH2 0x2A5B PUSH2 0x2C26 JUMP JUMPDEST PUSH20 0xFFFFFFFFFFFFFFFFFFFFFFFFFFFFFFFFFFFFFFFF AND PUSH2 0x2A79 PUSH2 0x1C18 JUMP JUMPDEST PUSH20 0xFFFFFFFFFFFFFFFFFFFFFFFFFFFFFFFFFFFFFFFF AND EQ PUSH2 0x2ACF JUMPI PUSH1 0x40 MLOAD PUSH32 0x8C379A000000000000000000000000000000000000000000000000000000000 DUP2 MSTORE PUSH1 0x4 ADD PUSH2 0x2AC6 SWAP1 PUSH2 0x56CB JUMP JUMPDEST PUSH1 0x40 MLOAD DUP1 SWAP2 SUB SWAP1 REVERT JUMPDEST DUP1 PUSH1 0xD PUSH1 0x0 PUSH2 0x100 EXP DUP2 SLOAD DUP2 PUSH20 0xFFFFFFFFFFFFFFFFFFFFFFFFFFFFFFFFFFFFFFFF MUL NOT AND SWAP1 DUP4 PUSH20 0xFFFFFFFFFFFFFFFFFFFFFFFFFFFFFFFFFFFFFFFF AND MUL OR SWAP1 SSTORE POP POP JUMP JUMPDEST PUSH2 0x2B1B PUSH2 0x2C26 JUMP JUMPDEST PUSH20 0xFFFFFFFFFFFFFFFFFFFFFFFFFFFFFFFFFFFFFFFF AND PUSH2 0x2B39 PUSH2 0x1C18 JUMP JUMPDEST PUSH20 0xFFFFFFFFFFFFFFFFFFFFFFFFFFFFFFFFFFFFFFFF AND EQ PUSH2 0x2B8F JUMPI PUSH1 0x40 MLOAD PUSH32 0x8C379A000000000000000000000000000000000000000000000000000000000 DUP2 MSTORE PUSH1 0x4 ADD PUSH2 0x2B86 SWAP1 PUSH2 0x56CB JUMP JUMPDEST PUSH1 0x40 MLOAD DUP1 SWAP2 SUB SWAP1 REVERT JUMPDEST DUP1 PUSH1 0x14 PUSH1 0x1 PUSH2 0x100 EXP DUP2 SLOAD DUP2 PUSH1 0xFF MUL NOT AND SWAP1 DUP4 ISZERO ISZERO MUL OR SWAP1 SSTORE POP POP JUMP JUMPDEST PUSH1 0x0 PUSH32 0x7965DB0B00000000000000000000000000000000000000000000000000000000 PUSH28 0xFFFFFFFFFFFFFFFFFFFFFFFFFFFFFFFFFFFFFFFFFFFFFFFFFFFFFFFF NOT AND DUP3 PUSH28 0xFFFFFFFFFFFFFFFFFFFFFFFFFFFFFFFFFFFFFFFFFFFFFFFFFFFFFFFF NOT AND EQ DUP1 PUSH2 0x2C1F JUMPI POP PUSH2 0x2C1E DUP3 PUSH2 0x3A0C JUMP JUMPDEST JUMPDEST SWAP1 POP SWAP2 SWAP1 POP JUMP JUMPDEST PUSH1 0x0 CALLER SWAP1 POP SWAP1 JUMP JUMPDEST PUSH1 0x0 PUSH20 0xFFFFFFFFFFFFFFFFFFFFFFFFFFFFFFFFFFFFFFFF AND DUP3 PUSH20 0xFFFFFFFFFFFFFFFFFFFFFFFFFFFFFFFFFFFFFFFF AND EQ ISZERO PUSH2 0x2C9E JUMPI PUSH1 0x40 MLOAD PUSH32 0x8C379A000000000000000000000000000000000000000000000000000000000 DUP2 MSTORE PUSH1 0x4 ADD PUSH2 0x2C95 SWAP1 PUSH2 0x566B JUMP JUMPDEST PUSH1 0x40 MLOAD DUP1 SWAP2 SUB SWAP1 REVERT JUMPDEST PUSH2 0x2CA7 DUP2 PUSH2 0x2E08 JUMP JUMPDEST ISZERO PUSH2 0x2CE7 JUMPI PUSH1 0x40 MLOAD PUSH32 0x8C379A000000000000000000000000000000000000000000000000000000000 DUP2 MSTORE PUSH1 0x4 ADD PUSH2 0x2CDE SWAP1 PUSH2 0x54EB JUMP JUMPDEST PUSH1 0x40 MLOAD DUP1 SWAP2 SUB SWAP1 REVERT JUMPDEST PUSH2 0x2CF3 PUSH1 0x0 DUP4 DUP4 PUSH2 0x3AEE JUMP JUMPDEST PUSH1 0x1 PUSH1 0x3 PUSH1 0x0 DUP5 PUSH20 0xFFFFFFFFFFFFFFFFFFFFFFFFFFFFFFFFFFFFFFFF AND PUSH20 0xFFFFFFFFFFFFFFFFFFFFFFFFFFFFFFFFFFFFFFFF AND DUP2 MSTORE PUSH1 0x20 ADD SWAP1 DUP2 MSTORE PUSH1 0x20 ADD PUSH1 0x0 KECCAK256 PUSH1 0x0 DUP3 DUP3 SLOAD PUSH2 0x2D43 SWAP2 SWAP1 PUSH2 0x5976 JUMP JUMPDEST SWAP3 POP POP DUP2 SWAP1 SSTORE POP DUP2 PUSH1 0x2 PUSH1 0x0 DUP4 DUP2 MSTORE PUSH1 0x20 ADD SWAP1 DUP2 MSTORE PUSH1 0x20 ADD PUSH1 0x0 KECCAK256 PUSH1 0x0 PUSH2 0x100 EXP DUP2 SLOAD DUP2 PUSH20 0xFFFFFFFFFFFFFFFFFFFFFFFFFFFFFFFFFFFFFFFF MUL NOT AND SWAP1 DUP4 PUSH20 0xFFFFFFFFFFFFFFFFFFFFFFFFFFFFFFFFFFFFFFFF AND MUL OR SWAP1 SSTORE POP DUP1 DUP3 PUSH20 0xFFFFFFFFFFFFFFFFFFFFFFFFFFFFFFFFFFFFFFFF AND PUSH1 0x0 PUSH20 0xFFFFFFFFFFFFFFFFFFFFFFFFFFFFFFFFFFFFFFFF AND PUSH32 0xDDF252AD1BE2C89B69C2B068FC378DAA952BA7F163C4A11628F55A4DF523B3EF PUSH1 0x40 MLOAD PUSH1 0x40 MLOAD DUP1 SWAP2 SUB SWAP1 LOG4 PUSH2 0x2E04 PUSH1 0x0 DUP4 DUP4 PUSH2 0x3AF3 JUMP JUMPDEST POP POP JUMP JUMPDEST PUSH1 0x0 DUP1 PUSH20 0xFFFFFFFFFFFFFFFFFFFFFFFFFFFFFFFFFFFFFFFF AND PUSH1 0x2 PUSH1 0x0 DUP5 DUP2 MSTORE PUSH1 0x20 ADD SWAP1 DUP2 MSTORE PUSH1 0x20 ADD PUSH1 0x0 KECCAK256 PUSH1 0x0 SWAP1 SLOAD SWAP1 PUSH2 0x100 EXP SWAP1 DIV PUSH20 0xFFFFFFFFFFFFFFFFFFFFFFFFFFFFFFFFFFFFFFFF AND PUSH20 0xFFFFFFFFFFFFFFFFFFFFFFFFFFFFFFFFFFFFFFFF AND EQ ISZERO SWAP1 POP SWAP2 SWAP1 POP JUMP JUMPDEST DUP2 PUSH1 0x4 PUSH1 0x0 DUP4 DUP2 MSTORE PUSH1 0x20 ADD SWAP1 DUP2 MSTORE PUSH1 0x20 ADD PUSH1 0x0 KECCAK256 PUSH1 0x0 PUSH2 0x100 EXP DUP2 SLOAD DUP2 PUSH20 0xFFFFFFFFFFFFFFFFFFFFFFFFFFFFFFFFFFFFFFFF MUL NOT AND SWAP1 DUP4 PUSH20 0xFFFFFFFFFFFFFFFFFFFFFFFFFFFFFFFFFFFFFFFF AND MUL OR SWAP1 SSTORE POP DUP1 DUP3 PUSH20 0xFFFFFFFFFFFFFFFFFFFFFFFFFFFFFFFFFFFFFFFF AND PUSH2 0x2EE7 DUP4 PUSH2 0x1998 JUMP JUMPDEST PUSH20 0xFFFFFFFFFFFFFFFFFFFFFFFFFFFFFFFFFFFFFFFF AND PUSH32 0x8C5BE1E5EBEC7D5BD14F71427D1E84F3DD0314C0F7B2291E5B200AC8C7C3B925 PUSH1 0x40 MLOAD PUSH1 0x40 MLOAD DUP1 SWAP2 SUB SWAP1 LOG4 POP POP JUMP JUMPDEST PUSH1 0x0 PUSH2 0x2F38 DUP3 PUSH2 0x2E08 JUMP JUMPDEST PUSH2 0x2F77 JUMPI PUSH1 0x40 MLOAD PUSH32 0x8C379A000000000000000000000000000000000000000000000000000000000 DUP2 MSTORE PUSH1 0x4 ADD PUSH2 0x2F6E SWAP1 PUSH2 0x558B JUMP JUMPDEST PUSH1 0x40 MLOAD DUP1 SWAP2 SUB SWAP1 REVERT JUMPDEST PUSH1 0x0 PUSH2 0x2F82 DUP4 PUSH2 0x1998 JUMP JUMPDEST SWAP1 POP DUP1 PUSH20 0xFFFFFFFFFFFFFFFFFFFFFFFFFFFFFFFFFFFFFFFF AND DUP5 PUSH20 0xFFFFFFFFFFFFFFFFFFFFFFFFFFFFFFFFFFFFFFFF AND EQ DUP1 PUSH2 0x2FC4 JUMPI POP PUSH2 0x2FC3 DUP2 DUP6 PUSH2 0x28C1 JUMP JUMPDEST JUMPDEST DUP1 PUSH2 0x3002 JUMPI POP DUP4 PUSH20 0xFFFFFFFFFFFFFFFFFFFFFFFFFFFFFFFFFFFFFFFF AND PUSH2 0x2FEA DUP5 PUSH2 0xB95 JUMP JUMPDEST PUSH20 0xFFFFFFFFFFFFFFFFFFFFFFFFFFFFFFFFFFFFFFFF AND EQ JUMPDEST SWAP2 POP POP SWAP3 SWAP2 POP POP JUMP JUMPDEST DUP3 PUSH20 0xFFFFFFFFFFFFFFFFFFFFFFFFFFFFFFFFFFFFFFFF AND PUSH2 0x302B DUP3 PUSH2 0x1998 JUMP JUMPDEST PUSH20 0xFFFFFFFFFFFFFFFFFFFFFFFFFFFFFFFFFFFFFFFF AND EQ PUSH2 0x3081 JUMPI PUSH1 0x40 MLOAD PUSH32 0x8C379A000000000000000000000000000000000000000000000000000000000 DUP2 MSTORE PUSH1 0x4 ADD PUSH2 0x3078 SWAP1 PUSH2 0x54CB JUMP JUMPDEST PUSH1 0x40 MLOAD DUP1 SWAP2 SUB SWAP1 REVERT JUMPDEST PUSH1 0x0 PUSH20 0xFFFFFFFFFFFFFFFFFFFFFFFFFFFFFFFFFFFFFFFF AND DUP3 PUSH20 0xFFFFFFFFFFFFFFFFFFFFFFFFFFFFFFFFFFFFFFFF AND EQ ISZERO PUSH2 0x30F1 JUMPI PUSH1 0x40 MLOAD PUSH32 0x8C379A000000000000000000000000000000000000000000000000000000000 DUP2 MSTORE PUSH1 0x4 ADD PUSH2 0x30E8 SWAP1 PUSH2 0x552B JUMP JUMPDEST PUSH1 0x40 MLOAD DUP1 SWAP2 SUB SWAP1 REVERT JUMPDEST PUSH2 0x30FC DUP4 DUP4 DUP4 PUSH2 0x3AEE JUMP JUMPDEST PUSH2 0x3107 PUSH1 0x0 DUP3 PUSH2 0x2E74 JUMP JUMPDEST PUSH1 0x1 PUSH1 0x3 PUSH1 0x0 DUP6 PUSH20 0xFFFFFFFFFFFFFFFFFFFFFFFFFFFFFFFFFFFFFFFF AND PUSH20 0xFFFFFFFFFFFFFFFFFFFFFFFFFFFFFFFFFFFFFFFF AND DUP2 MSTORE PUSH1 0x20 ADD SWAP1 DUP2 MSTORE PUSH1 0x20 ADD PUSH1 0x0 KECCAK256 PUSH1 0x0 DUP3 DUP3 SLOAD PUSH2 0x3157 SWAP2 SWAP1 PUSH2 0x5A57 JUMP JUMPDEST SWAP3 POP POP DUP2 SWAP1 SSTORE POP PUSH1 0x1 PUSH1 0x3 PUSH1 0x0 DUP5 PUSH20 0xFFFFFFFFFFFFFFFFFFFFFFFFFFFFFFFFFFFFFFFF AND PUSH20 0xFFFFFFFFFFFFFFFFFFFFFFFFFFFFFFFFFFFFFFFF AND DUP2 MSTORE PUSH1 0x20 ADD SWAP1 DUP2 MSTORE PUSH1 0x20 ADD PUSH1 0x0 KECCAK256 PUSH1 0x0 DUP3 DUP3 SLOAD PUSH2 0x31AE SWAP2 SWAP1 PUSH2 0x5976 JUMP JUMPDEST SWAP3 POP POP DUP2 SWAP1 SSTORE POP DUP2 PUSH1 0x2 PUSH1 0x0 DUP4 DUP2 MSTORE PUSH1 0x20 ADD SWAP1 DUP2 MSTORE PUSH1 0x20 ADD PUSH1 0x0 KECCAK256 PUSH1 0x0 PUSH2 0x100 EXP DUP2 SLOAD DUP2 PUSH20 0xFFFFFFFFFFFFFFFFFFFFFFFFFFFFFFFFFFFFFFFF MUL NOT AND SWAP1 DUP4 PUSH20 0xFFFFFFFFFFFFFFFFFFFFFFFFFFFFFFFFFFFFFFFF AND MUL OR SWAP1 SSTORE POP DUP1 DUP3 PUSH20 0xFFFFFFFFFFFFFFFFFFFFFFFFFFFFFFFFFFFFFFFF AND DUP5 PUSH20 0xFFFFFFFFFFFFFFFFFFFFFFFFFFFFFFFFFFFFFFFF AND PUSH32 0xDDF252AD1BE2C89B69C2B068FC378DAA952BA7F163C4A11628F55A4DF523B3EF PUSH1 0x40 MLOAD PUSH1 0x40 MLOAD DUP1 SWAP2 SUB SWAP1 LOG4 PUSH2 0x326D DUP4 DUP4 DUP4 PUSH2 0x3AF3 JUMP JUMPDEST POP POP POP JUMP JUMPDEST PUSH2 0x3283 DUP2 PUSH2 0x327E PUSH2 0x2C26 JUMP JUMPDEST PUSH2 0x3AF8 JUMP JUMPDEST POP JUMP JUMPDEST PUSH2 0x3290 DUP3 DUP3 PUSH2 0x1C5A JUMP JUMPDEST PUSH2 0x3363 JUMPI PUSH1 0x1 PUSH1 0x7 PUSH1 0x0 DUP5 DUP2 MSTORE PUSH1 0x20 ADD SWAP1 DUP2 MSTORE PUSH1 0x20 ADD PUSH1 0x0 KECCAK256 PUSH1 0x0 ADD PUSH1 0x0 DUP4 PUSH20 0xFFFFFFFFFFFFFFFFFFFFFFFFFFFFFFFFFFFFFFFF AND PUSH20 0xFFFFFFFFFFFFFFFFFFFFFFFFFFFFFFFFFFFFFFFF AND DUP2 MSTORE PUSH1 0x20 ADD SWAP1 DUP2 MSTORE PUSH1 0x20 ADD PUSH1 0x0 KECCAK256 PUSH1 0x0 PUSH2 0x100 EXP DUP2 SLOAD DUP2 PUSH1 0xFF MUL NOT AND SWAP1 DUP4 ISZERO ISZERO MUL OR SWAP1 SSTORE POP PUSH2 0x3308 PUSH2 0x2C26 JUMP JUMPDEST PUSH20 0xFFFFFFFFFFFFFFFFFFFFFFFFFFFFFFFFFFFFFFFF AND DUP2 PUSH20 0xFFFFFFFFFFFFFFFFFFFFFFFFFFFFFFFFFFFFFFFF AND DUP4 PUSH32 0x2F8788117E7EFF1D82E926EC794901D17C78024A50270940304540A733656F0D PUSH1 0x40 MLOAD PUSH1 0x40 MLOAD DUP1 SWAP2 SUB SWAP1 LOG4 JUMPDEST POP POP JUMP JUMPDEST PUSH1 0x0 PUSH2 0x3372 DUP3 PUSH2 0x1998 JUMP JUMPDEST SWAP1 POP PUSH2 0x3380 DUP2 PUSH1 0x0 DUP5 PUSH2 0x3AEE JUMP JUMPDEST PUSH2 0x338B PUSH1 0x0 DUP4 PUSH2 0x2E74 JUMP JUMPDEST PUSH1 0x1 PUSH1 0x3 PUSH1 0x0 DUP4 PUSH20 0xFFFFFFFFFFFFFFFFFFFFFFFFFFFFFFFFFFFFFFFF AND PUSH20 0xFFFFFFFFFFFFFFFFFFFFFFFFFFFFFFFFFFFFFFFF AND DUP2 MSTORE PUSH1 0x20 ADD SWAP1 DUP2 MSTORE PUSH1 0x20 ADD PUSH1 0x0 KECCAK256 PUSH1 0x0 DUP3 DUP3 SLOAD PUSH2 0x33DB SWAP2 SWAP1 PUSH2 0x5A57 JUMP JUMPDEST SWAP3 POP POP DUP2 SWAP1 SSTORE POP PUSH1 0x2 PUSH1 0x0 DUP4 DUP2 MSTORE PUSH1 0x20 ADD SWAP1 DUP2 MSTORE PUSH1 0x20 ADD PUSH1 0x0 KECCAK256 PUSH1 0x0 PUSH2 0x100 EXP DUP2 SLOAD SWAP1 PUSH20 0xFFFFFFFFFFFFFFFFFFFFFFFFFFFFFFFFFFFFFFFF MUL NOT AND SWAP1 SSTORE DUP2 PUSH1 0x0 PUSH20 0xFFFFFFFFFFFFFFFFFFFFFFFFFFFFFFFFFFFFFFFF AND DUP3 PUSH20 0xFFFFFFFFFFFFFFFFFFFFFFFFFFFFFFFFFFFFFFFF AND PUSH32 0xDDF252AD1BE2C89B69C2B068FC378DAA952BA7F163C4A11628F55A4DF523B3EF PUSH1 0x40 MLOAD PUSH1 0x40 MLOAD DUP1 SWAP2 SUB SWAP1 LOG4 PUSH2 0x3480 DUP2 PUSH1 0x0 DUP5 PUSH2 0x3AF3 JUMP JUMPDEST POP POP JUMP JUMPDEST PUSH2 0x348E DUP3 DUP3 PUSH2 0x1C5A JUMP JUMPDEST ISZERO PUSH2 0x3562 JUMPI PUSH1 0x0 PUSH1 0x7 PUSH1 0x0 DUP5 DUP2 MSTORE PUSH1 0x20 ADD SWAP1 DUP2 MSTORE PUSH1 0x20 ADD PUSH1 0x0 KECCAK256 PUSH1 0x0 ADD PUSH1 0x0 DUP4 PUSH20 0xFFFFFFFFFFFFFFFFFFFFFFFFFFFFFFFFFFFFFFFF AND PUSH20 0xFFFFFFFFFFFFFFFFFFFFFFFFFFFFFFFFFFFFFFFF AND DUP2 MSTORE PUSH1 0x20 ADD SWAP1 DUP2 MSTORE PUSH1 0x20 ADD PUSH1 0x0 KECCAK256 PUSH1 0x0 PUSH2 0x100 EXP DUP2 SLOAD DUP2 PUSH1 0xFF MUL NOT AND SWAP1 DUP4 ISZERO ISZERO MUL OR SWAP1 SSTORE POP PUSH2 0x3507 PUSH2 0x2C26 JUMP JUMPDEST PUSH20 0xFFFFFFFFFFFFFFFFFFFFFFFFFFFFFFFFFFFFFFFF AND DUP2 PUSH20 0xFFFFFFFFFFFFFFFFFFFFFFFFFFFFFFFFFFFFFFFF AND DUP4 PUSH32 0xF6391F5C32D9C69D2A47EA670B442974B53935D1EDC7FD64EB21E047A839171B PUSH1 0x40 MLOAD PUSH1 0x40 MLOAD DUP1 SWAP2 SUB SWAP1 LOG4 JUMPDEST POP POP JUMP JUMPDEST PUSH1 0x0 DUP2 PUSH1 0xB PUSH1 0x0 DUP6 DUP2 MSTORE PUSH1 0x20 ADD SWAP1 DUP2 MSTORE PUSH1 0x20 ADD PUSH1 0x0 KECCAK256 DUP2 SWAP1 SSTORE POP PUSH1 0x1 SWAP1 POP SWAP3 SWAP2 POP POP JUMP JUMPDEST PUSH1 0x0 PUSH1 0x6 PUSH1 0x0 SWAP1 SLOAD SWAP1 PUSH2 0x100 EXP SWAP1 DIV PUSH20 0xFFFFFFFFFFFFFFFFFFFFFFFFFFFFFFFFFFFFFFFF AND SWAP1 POP DUP2 PUSH1 0x6 PUSH1 0x0 PUSH2 0x100 EXP DUP2 SLOAD DUP2 PUSH20 0xFFFFFFFFFFFFFFFFFFFFFFFFFFFFFFFFFFFFFFFF MUL NOT AND SWAP1 DUP4 PUSH20 0xFFFFFFFFFFFFFFFFFFFFFFFFFFFFFFFFFFFFFFFF AND MUL OR SWAP1 SSTORE POP DUP2 PUSH20 0xFFFFFFFFFFFFFFFFFFFFFFFFFFFFFFFFFFFFFFFF AND DUP2 PUSH20 0xFFFFFFFFFFFFFFFFFFFFFFFFFFFFFFFFFFFFFFFF AND PUSH32 0x8BE0079C531659141344CD1FD0A4F28419497F9722A3DAAFE3B4186F6B6457E0 PUSH1 0x40 MLOAD PUSH1 0x40 MLOAD DUP1 SWAP2 SUB SWAP1 LOG3 POP POP JUMP JUMPDEST DUP2 PUSH20 0xFFFFFFFFFFFFFFFFFFFFFFFFFFFFFFFFFFFFFFFF AND DUP4 PUSH20 0xFFFFFFFFFFFFFFFFFFFFFFFFFFFFFFFFFFFFFFFF AND EQ ISZERO PUSH2 0x36BF JUMPI PUSH1 0x40 MLOAD PUSH32 0x8C379A000000000000000000000000000000000000000000000000000000000 DUP2 MSTORE PUSH1 0x4 ADD PUSH2 0x36B6 SWAP1 PUSH2 0x554B JUMP JUMPDEST PUSH1 0x40 MLOAD DUP1 SWAP2 SUB SWAP1 REVERT JUMPDEST DUP1 PUSH1 0x5 PUSH1 0x0 DUP6 PUSH20 0xFFFFFFFFFFFFFFFFFFFFFFFFFFFFFFFFFFFFFFFF AND PUSH20 0xFFFFFFFFFFFFFFFFFFFFFFFFFFFFFFFFFFFFFFFF AND DUP2 MSTORE PUSH1 0x20 ADD SWAP1 DUP2 MSTORE PUSH1 0x20 ADD PUSH1 0x0 KECCAK256 PUSH1 0x0 DUP5 PUSH20 0xFFFFFFFFFFFFFFFFFFFFFFFFFFFFFFFFFFFFFFFF AND PUSH20 0xFFFFFFFFFFFFFFFFFFFFFFFFFFFFFFFFFFFFFFFF AND DUP2 MSTORE PUSH1 0x20 ADD SWAP1 DUP2 MSTORE PUSH1 0x20 ADD PUSH1 0x0 KECCAK256 PUSH1 0x0 PUSH2 0x100 EXP DUP2 SLOAD DUP2 PUSH1 0xFF MUL NOT AND SWAP1 DUP4 ISZERO ISZERO MUL OR SWAP1 SSTORE POP DUP2 PUSH20 0xFFFFFFFFFFFFFFFFFFFFFFFFFFFFFFFFFFFFFFFF AND DUP4 PUSH20 0xFFFFFFFFFFFFFFFFFFFFFFFFFFFFFFFFFFFFFFFF AND PUSH32 0x17307EAB39AB6107E8899845AD3D59BD9653F200F220920489CA2B5937696C31 DUP4 PUSH1 0x40 MLOAD PUSH2 0x37B0 SWAP2 SWAP1 PUSH2 0x53BB JUMP JUMPDEST PUSH1 0x40 MLOAD DUP1 SWAP2 SUB SWAP1 LOG3 POP POP POP JUMP JUMPDEST PUSH2 0x37C8 DUP5 DUP5 DUP5 PUSH2 0x300B JUMP JUMPDEST PUSH2 0x37D4 DUP5 DUP5 DUP5 DUP5 PUSH2 0x3B95 JUMP JUMPDEST PUSH2 0x3813 JUMPI PUSH1 0x40 MLOAD PUSH32 0x8C379A000000000000000000000000000000000000000000000000000000000 DUP2 MSTORE PUSH1 0x4 ADD PUSH2 0x380A SWAP1 PUSH2 0x548B JUMP JUMPDEST PUSH1 0x40 MLOAD DUP1 SWAP2 SUB SWAP1 REVERT JUMPDEST POP POP POP POP JUMP JUMPDEST PUSH1 0x60 PUSH1 0x9 DUP1 SLOAD PUSH2 0x3828 SWAP1 PUSH2 0x5BCF JUMP JUMPDEST DUP1 PUSH1 0x1F ADD PUSH1 0x20 DUP1 SWAP2 DIV MUL PUSH1 0x20 ADD PUSH1 0x40 MLOAD SWAP1 DUP2 ADD PUSH1 0x40 MSTORE DUP1 SWAP3 SWAP2 SWAP1 DUP2 DUP2 MSTORE PUSH1 0x20 ADD DUP3 DUP1 SLOAD PUSH2 0x3854 SWAP1 PUSH2 0x5BCF JUMP JUMPDEST DUP1 ISZERO PUSH2 0x38A1 JUMPI DUP1 PUSH1 0x1F LT PUSH2 0x3876 JUMPI PUSH2 0x100 DUP1 DUP4 SLOAD DIV MUL DUP4 MSTORE SWAP2 PUSH1 0x20 ADD SWAP2 PUSH2 0x38A1 JUMP JUMPDEST DUP3 ADD SWAP2 SWAP1 PUSH1 0x0 MSTORE PUSH1 0x20 PUSH1 0x0 KECCAK256 SWAP1 JUMPDEST DUP2 SLOAD DUP2 MSTORE SWAP1 PUSH1 0x1 ADD SWAP1 PUSH1 0x20 ADD DUP1 DUP4 GT PUSH2 0x3884 JUMPI DUP3 SWAP1 SUB PUSH1 0x1F AND DUP3 ADD SWAP2 JUMPDEST POP POP POP POP POP SWAP1 POP SWAP1 JUMP JUMPDEST PUSH1 0x60 PUSH1 0x0 DUP3 EQ ISZERO PUSH2 0x38F3 JUMPI PUSH1 0x40 MLOAD DUP1 PUSH1 0x40 ADD PUSH1 0x40 MSTORE DUP1 PUSH1 0x1 DUP2 MSTORE PUSH1 0x20 ADD PUSH32 0x3000000000000000000000000000000000000000000000000000000000000000 DUP2 MSTORE POP SWAP1 POP PUSH2 0x3A07 JUMP JUMPDEST PUSH1 0x0 DUP3 SWAP1 POP PUSH1 0x0 JUMPDEST PUSH1 0x0 DUP3 EQ PUSH2 0x3925 JUMPI DUP1 DUP1 PUSH2 0x390E SWAP1 PUSH2 0x5C32 JUMP JUMPDEST SWAP2 POP POP PUSH1 0xA DUP3 PUSH2 0x391E SWAP2 SWAP1 PUSH2 0x59CC JUMP JUMPDEST SWAP2 POP PUSH2 0x38FB JUMP JUMPDEST PUSH1 0x0 DUP2 PUSH8 0xFFFFFFFFFFFFFFFF DUP2 GT ISZERO PUSH2 0x3941 JUMPI PUSH2 0x3940 PUSH2 0x5D72 JUMP JUMPDEST JUMPDEST PUSH1 0x40 MLOAD SWAP1 DUP1 DUP3 MSTORE DUP1 PUSH1 0x1F ADD PUSH1 0x1F NOT AND PUSH1 0x20 ADD DUP3 ADD PUSH1 0x40 MSTORE DUP1 ISZERO PUSH2 0x3973 JUMPI DUP2 PUSH1 0x20 ADD PUSH1 0x1 DUP3 MUL DUP1 CALLDATASIZE DUP4 CALLDATACOPY DUP1 DUP3 ADD SWAP2 POP POP SWAP1 POP JUMPDEST POP SWAP1 POP JUMPDEST PUSH1 0x0 DUP6 EQ PUSH2 0x3A00 JUMPI PUSH1 0x1 DUP3 PUSH2 0x398C SWAP2 SWAP1 PUSH2 0x5A57 JUMP JUMPDEST SWAP2 POP PUSH1 0xA DUP6 PUSH2 0x399B SWAP2 SWAP1 PUSH2 0x5C85 JUMP JUMPDEST PUSH1 0x30 PUSH2 0x39A7 SWAP2 SWAP1 PUSH2 0x5976 JUMP JUMPDEST PUSH1 0xF8 SHL DUP2 DUP4 DUP2 MLOAD DUP2 LT PUSH2 0x39BD JUMPI PUSH2 0x39BC PUSH2 0x5D43 JUMP JUMPDEST JUMPDEST PUSH1 0x20 ADD ADD SWAP1 PUSH31 0xFFFFFFFFFFFFFFFFFFFFFFFFFFFFFFFFFFFFFFFFFFFFFFFFFFFFFFFFFFFFFF NOT AND SWAP1 DUP2 PUSH1 0x0 BYTE SWAP1 MSTORE8 POP PUSH1 0xA DUP6 PUSH2 0x39F9 SWAP2 SWAP1 PUSH2 0x59CC JUMP JUMPDEST SWAP5 POP PUSH2 0x3977 JUMP JUMPDEST DUP1 SWAP4 POP POP POP POP JUMPDEST SWAP2 SWAP1 POP JUMP JUMPDEST PUSH1 0x0 PUSH32 0x80AC58CD00000000000000000000000000000000000000000000000000000000 PUSH28 0xFFFFFFFFFFFFFFFFFFFFFFFFFFFFFFFFFFFFFFFFFFFFFFFFFFFFFFFF NOT AND DUP3 PUSH28 0xFFFFFFFFFFFFFFFFFFFFFFFFFFFFFFFFFFFFFFFFFFFFFFFFFFFFFFFF NOT AND EQ DUP1 PUSH2 0x3AD7 JUMPI POP PUSH32 0x5B5E139F00000000000000000000000000000000000000000000000000000000 PUSH28 0xFFFFFFFFFFFFFFFFFFFFFFFFFFFFFFFFFFFFFFFFFFFFFFFFFFFFFFFF NOT AND DUP3 PUSH28 0xFFFFFFFFFFFFFFFFFFFFFFFFFFFFFFFFFFFFFFFFFFFFFFFFFFFFFFFF NOT AND EQ JUMPDEST DUP1 PUSH2 0x3AE7 JUMPI POP PUSH2 0x3AE6 DUP3 PUSH2 0x3D2C JUMP JUMPDEST JUMPDEST SWAP1 POP SWAP2 SWAP1 POP JUMP JUMPDEST POP POP POP JUMP JUMPDEST POP POP POP JUMP JUMPDEST PUSH2 0x3B02 DUP3 DUP3 PUSH2 0x1C5A JUMP JUMPDEST PUSH2 0x3B91 JUMPI PUSH2 0x3B27 DUP2 PUSH20 0xFFFFFFFFFFFFFFFFFFFFFFFFFFFFFFFFFFFFFFFF AND PUSH1 0x14 PUSH2 0x3D96 JUMP JUMPDEST PUSH2 0x3B35 DUP4 PUSH1 0x0 SHR PUSH1 0x20 PUSH2 0x3D96 JUMP JUMPDEST PUSH1 0x40 MLOAD PUSH1 0x20 ADD PUSH2 0x3B46 SWAP3 SWAP2 SWAP1 PUSH2 0x520D JUMP JUMPDEST PUSH1 0x40 MLOAD PUSH1 0x20 DUP2 DUP4 SUB SUB DUP2 MSTORE SWAP1 PUSH1 0x40 MSTORE PUSH1 0x40 MLOAD PUSH32 0x8C379A000000000000000000000000000000000000000000000000000000000 DUP2 MSTORE PUSH1 0x4 ADD PUSH2 0x3B88 SWAP2 SWAP1 PUSH2 0x5427 JUMP JUMPDEST PUSH1 0x40 MLOAD DUP1 SWAP2 SUB SWAP1 REVERT JUMPDEST POP POP JUMP JUMPDEST PUSH1 0x0 PUSH2 0x3BB6 DUP5 PUSH20 0xFFFFFFFFFFFFFFFFFFFFFFFFFFFFFFFFFFFFFFFF AND PUSH2 0x3FD2 JUMP JUMPDEST ISZERO PUSH2 0x3D1F JUMPI DUP4 PUSH20 0xFFFFFFFFFFFFFFFFFFFFFFFFFFFFFFFFFFFFFFFF AND PUSH4 0x150B7A02 PUSH2 0x3BDF PUSH2 0x2C26 JUMP JUMPDEST DUP8 DUP7 DUP7 PUSH1 0x40 MLOAD DUP6 PUSH4 0xFFFFFFFF AND PUSH1 0xE0 SHL DUP2 MSTORE PUSH1 0x4 ADD PUSH2 0x3C01 SWAP5 SWAP4 SWAP3 SWAP2 SWAP1 PUSH2 0x52C2 JUMP JUMPDEST PUSH1 0x20 PUSH1 0x40 MLOAD DUP1 DUP4 SUB DUP2 PUSH1 0x0 DUP8 DUP1 EXTCODESIZE ISZERO DUP1 ISZERO PUSH2 0x3C1B JUMPI PUSH1 0x0 DUP1 REVERT JUMPDEST POP GAS CALL SWAP3 POP POP POP DUP1 ISZERO PUSH2 0x3C4C JUMPI POP PUSH1 0x40 MLOAD RETURNDATASIZE PUSH1 0x1F NOT PUSH1 0x1F DUP3 ADD AND DUP3 ADD DUP1 PUSH1 0x40 MSTORE POP DUP2 ADD SWAP1 PUSH2 0x3C49 SWAP2 SWAP1 PUSH2 0x495D JUMP JUMPDEST PUSH1 0x1 JUMPDEST PUSH2 0x3CCF JUMPI RETURNDATASIZE DUP1 PUSH1 0x0 DUP2 EQ PUSH2 0x3C7C JUMPI PUSH1 0x40 MLOAD SWAP2 POP PUSH1 0x1F NOT PUSH1 0x3F RETURNDATASIZE ADD AND DUP3 ADD PUSH1 0x40 MSTORE RETURNDATASIZE DUP3 MSTORE RETURNDATASIZE PUSH1 0x0 PUSH1 0x20 DUP5 ADD RETURNDATACOPY PUSH2 0x3C81 JUMP JUMPDEST PUSH1 0x60 SWAP2 POP JUMPDEST POP PUSH1 0x0 DUP2 MLOAD EQ ISZERO PUSH2 0x3CC7 JUMPI PUSH1 0x40 MLOAD PUSH32 0x8C379A000000000000000000000000000000000000000000000000000000000 DUP2 MSTORE PUSH1 0x4 ADD PUSH2 0x3CBE SWAP1 PUSH2 0x548B JUMP JUMPDEST PUSH1 0x40 MLOAD DUP1 SWAP2 SUB SWAP1 REVERT JUMPDEST DUP1 MLOAD DUP2 PUSH1 0x20 ADD REVERT JUMPDEST PUSH4 0x150B7A02 PUSH1 0xE0 SHL PUSH28 0xFFFFFFFFFFFFFFFFFFFFFFFFFFFFFFFFFFFFFFFFFFFFFFFFFFFFFFFF NOT AND DUP2 PUSH28 0xFFFFFFFFFFFFFFFFFFFFFFFFFFFFFFFFFFFFFFFFFFFFFFFFFFFFFFFF NOT AND EQ SWAP2 POP POP PUSH2 0x3D24 JUMP JUMPDEST PUSH1 0x1 SWAP1 POP JUMPDEST SWAP5 SWAP4 POP POP POP POP JUMP JUMPDEST PUSH1 0x0 PUSH32 0x1FFC9A700000000000000000000000000000000000000000000000000000000 PUSH28 0xFFFFFFFFFFFFFFFFFFFFFFFFFFFFFFFFFFFFFFFFFFFFFFFFFFFFFFFF NOT AND DUP3 PUSH28 0xFFFFFFFFFFFFFFFFFFFFFFFFFFFFFFFFFFFFFFFFFFFFFFFFFFFFFFFF NOT AND EQ SWAP1 POP SWAP2 SWAP1 POP JUMP JUMPDEST PUSH1 0x60 PUSH1 0x0 PUSH1 0x2 DUP4 PUSH1 0x2 PUSH2 0x3DA9 SWAP2 SWAP1 PUSH2 0x59FD JUMP JUMPDEST PUSH2 0x3DB3 SWAP2 SWAP1 PUSH2 0x5976 JUMP JUMPDEST PUSH8 0xFFFFFFFFFFFFFFFF DUP2 GT ISZERO PUSH2 0x3DCC JUMPI PUSH2 0x3DCB PUSH2 0x5D72 JUMP JUMPDEST JUMPDEST PUSH1 0x40 MLOAD SWAP1 DUP1 DUP3 MSTORE DUP1 PUSH1 0x1F ADD PUSH1 0x1F NOT AND PUSH1 0x20 ADD DUP3 ADD PUSH1 0x40 MSTORE DUP1 ISZERO PUSH2 0x3DFE JUMPI DUP2 PUSH1 0x20 ADD PUSH1 0x1 DUP3 MUL DUP1 CALLDATASIZE DUP4 CALLDATACOPY DUP1 DUP3 ADD SWAP2 POP POP SWAP1 POP JUMPDEST POP SWAP1 POP PUSH32 0x3000000000000000000000000000000000000000000000000000000000000000 DUP2 PUSH1 0x0 DUP2 MLOAD DUP2 LT PUSH2 0x3E36 JUMPI PUSH2 0x3E35 PUSH2 0x5D43 JUMP JUMPDEST JUMPDEST PUSH1 0x20 ADD ADD SWAP1 PUSH31 0xFFFFFFFFFFFFFFFFFFFFFFFFFFFFFFFFFFFFFFFFFFFFFFFFFFFFFFFFFFFFFF NOT AND SWAP1 DUP2 PUSH1 0x0 BYTE SWAP1 MSTORE8 POP PUSH32 0x7800000000000000000000000000000000000000000000000000000000000000 DUP2 PUSH1 0x1 DUP2 MLOAD DUP2 LT PUSH2 0x3E9A JUMPI PUSH2 0x3E99 PUSH2 0x5D43 JUMP JUMPDEST JUMPDEST PUSH1 0x20 ADD ADD SWAP1 PUSH31 0xFFFFFFFFFFFFFFFFFFFFFFFFFFFFFFFFFFFFFFFFFFFFFFFFFFFFFFFFFFFFFF NOT AND SWAP1 DUP2 PUSH1 0x0 BYTE SWAP1 MSTORE8 POP PUSH1 0x0 PUSH1 0x1 DUP5 PUSH1 0x2 PUSH2 0x3EDA SWAP2 SWAP1 PUSH2 0x59FD JUMP JUMPDEST PUSH2 0x3EE4 SWAP2 SWAP1 PUSH2 0x5976 JUMP JUMPDEST SWAP1 POP JUMPDEST PUSH1 0x1 DUP2 GT ISZERO PUSH2 0x3F84 JUMPI PUSH32 0x3031323334353637383961626364656600000000000000000000000000000000 PUSH1 0xF DUP7 AND PUSH1 0x10 DUP2 LT PUSH2 0x3F26 JUMPI PUSH2 0x3F25 PUSH2 0x5D43 JUMP JUMPDEST JUMPDEST BYTE PUSH1 0xF8 SHL DUP3 DUP3 DUP2 MLOAD DUP2 LT PUSH2 0x3F3D JUMPI PUSH2 0x3F3C PUSH2 0x5D43 JUMP JUMPDEST JUMPDEST PUSH1 0x20 ADD ADD SWAP1 PUSH31 0xFFFFFFFFFFFFFFFFFFFFFFFFFFFFFFFFFFFFFFFFFFFFFFFFFFFFFFFFFFFFFF NOT AND SWAP1 DUP2 PUSH1 0x0 BYTE SWAP1 MSTORE8 POP PUSH1 0x4 DUP6 SWAP1 SHR SWAP5 POP DUP1 PUSH2 0x3F7D SWAP1 PUSH2 0x5BA5 JUMP JUMPDEST SWAP1 POP PUSH2 0x3EE7 JUMP JUMPDEST POP PUSH1 0x0 DUP5 EQ PUSH2 0x3FC8 JUMPI PUSH1 0x40 MLOAD PUSH32 0x8C379A000000000000000000000000000000000000000000000000000000000 DUP2 MSTORE PUSH1 0x4 ADD PUSH2 0x3FBF SWAP1 PUSH2 0x546B JUMP JUMPDEST PUSH1 0x40 MLOAD DUP1 SWAP2 SUB SWAP1 REVERT JUMPDEST DUP1 SWAP2 POP POP SWAP3 SWAP2 POP POP JUMP JUMPDEST PUSH1 0x0 DUP1 DUP3 PUSH20 0xFFFFFFFFFFFFFFFFFFFFFFFFFFFFFFFFFFFFFFFF AND EXTCODESIZE GT SWAP1 POP SWAP2 SWAP1 POP JUMP JUMPDEST DUP3 DUP1 SLOAD PUSH2 0x4001 SWAP1 PUSH2 0x5BCF JUMP JUMPDEST SWAP1 PUSH1 0x0 MSTORE PUSH1 0x20 PUSH1 0x0 KECCAK256 SWAP1 PUSH1 0x1F ADD PUSH1 0x20 SWAP1 DIV DUP2 ADD SWAP3 DUP3 PUSH2 0x4023 JUMPI PUSH1 0x0 DUP6 SSTORE PUSH2 0x406A JUMP JUMPDEST DUP3 PUSH1 0x1F LT PUSH2 0x403C JUMPI DUP1 MLOAD PUSH1 0xFF NOT AND DUP4 DUP1 ADD OR DUP6 SSTORE PUSH2 0x406A JUMP JUMPDEST DUP3 DUP1 ADD PUSH1 0x1 ADD DUP6 SSTORE DUP3 ISZERO PUSH2 0x406A JUMPI SWAP2 DUP3 ADD JUMPDEST DUP3 DUP2 GT ISZERO PUSH2 0x4069 JUMPI DUP3 MLOAD DUP3 SSTORE SWAP2 PUSH1 0x20 ADD SWAP2 SWAP1 PUSH1 0x1 ADD SWAP1 PUSH2 0x404E JUMP JUMPDEST JUMPDEST POP SWAP1 POP PUSH2 0x4077 SWAP2 SWAP1 PUSH2 0x407B JUMP JUMPDEST POP SWAP1 JUMP JUMPDEST JUMPDEST DUP1 DUP3 GT ISZERO PUSH2 0x4094 JUMPI PUSH1 0x0 DUP2 PUSH1 0x0 SWAP1 SSTORE POP PUSH1 0x1 ADD PUSH2 0x407C JUMP JUMPDEST POP SWAP1 JUMP JUMPDEST PUSH1 0x0 PUSH2 0x40AB PUSH2 0x40A6 DUP5 PUSH2 0x582B JUMP JUMPDEST PUSH2 0x5806 JUMP JUMPDEST SWAP1 POP DUP1 DUP4 DUP3 MSTORE PUSH1 0x20 DUP3 ADD SWAP1 POP DUP3 DUP6 PUSH1 0x20 DUP7 MUL DUP3 ADD GT ISZERO PUSH2 0x40CE JUMPI PUSH2 0x40CD PUSH2 0x5DAB JUMP JUMPDEST JUMPDEST PUSH1 0x0 JUMPDEST DUP6 DUP2 LT ISZERO PUSH2 0x40FE JUMPI DUP2 PUSH2 0x40E4 DUP9 DUP3 PUSH2 0x41FC JUMP JUMPDEST DUP5 MSTORE PUSH1 0x20 DUP5 ADD SWAP4 POP PUSH1 0x20 DUP4 ADD SWAP3 POP POP PUSH1 0x1 DUP2 ADD SWAP1 POP PUSH2 0x40D1 JUMP JUMPDEST POP POP POP SWAP4 SWAP3 POP POP POP JUMP JUMPDEST PUSH1 0x0 PUSH2 0x411B PUSH2 0x4116 DUP5 PUSH2 0x5857 JUMP JUMPDEST PUSH2 0x5806 JUMP JUMPDEST SWAP1 POP DUP1 DUP4 DUP3 MSTORE PUSH1 0x20 DUP3 ADD SWAP1 POP DUP3 DUP6 PUSH1 0x20 DUP7 MUL DUP3 ADD GT ISZERO PUSH2 0x413E JUMPI PUSH2 0x413D PUSH2 0x5DAB JUMP JUMPDEST JUMPDEST PUSH1 0x0 JUMPDEST DUP6 DUP2 LT ISZERO PUSH2 0x416E JUMPI DUP2 PUSH2 0x4154 DUP9 DUP3 PUSH2 0x43DE JUMP JUMPDEST DUP5 MSTORE PUSH1 0x20 DUP5 ADD SWAP4 POP PUSH1 0x20 DUP4 ADD SWAP3 POP POP PUSH1 0x1 DUP2 ADD SWAP1 POP PUSH2 0x4141 JUMP JUMPDEST POP POP POP SWAP4 SWAP3 POP POP POP JUMP JUMPDEST PUSH1 0x0 PUSH2 0x418B PUSH2 0x4186 DUP5 PUSH2 0x5883 JUMP JUMPDEST PUSH2 0x5806 JUMP JUMPDEST SWAP1 POP DUP3 DUP2 MSTORE PUSH1 0x20 DUP2 ADD DUP5 DUP5 DUP5 ADD GT ISZERO PUSH2 0x41A7 JUMPI PUSH2 0x41A6 PUSH2 0x5DB0 JUMP JUMPDEST JUMPDEST PUSH2 0x41B2 DUP5 DUP3 DUP6 PUSH2 0x5B63 JUMP JUMPDEST POP SWAP4 SWAP3 POP POP POP JUMP JUMPDEST PUSH1 0x0 PUSH2 0x41CD PUSH2 0x41C8 DUP5 PUSH2 0x58B4 JUMP JUMPDEST PUSH2 0x5806 JUMP JUMPDEST SWAP1 POP DUP3 DUP2 MSTORE PUSH1 0x20 DUP2 ADD DUP5 DUP5 DUP5 ADD GT ISZERO PUSH2 0x41E9 JUMPI PUSH2 0x41E8 PUSH2 0x5DB0 JUMP JUMPDEST JUMPDEST PUSH2 0x41F4 DUP5 DUP3 DUP6 PUSH2 0x5B63 JUMP JUMPDEST POP SWAP4 SWAP3 POP POP POP JUMP JUMPDEST PUSH1 0x0 DUP2 CALLDATALOAD SWAP1 POP PUSH2 0x420B DUP2 PUSH2 0x65C7 JUMP JUMPDEST SWAP3 SWAP2 POP POP JUMP JUMPDEST PUSH1 0x0 DUP3 PUSH1 0x1F DUP4 ADD SLT PUSH2 0x4226 JUMPI PUSH2 0x4225 PUSH2 0x5DA6 JUMP JUMPDEST JUMPDEST DUP2 CALLDATALOAD PUSH2 0x4236 DUP5 DUP3 PUSH1 0x20 DUP7 ADD PUSH2 0x4098 JUMP JUMPDEST SWAP2 POP POP SWAP3 SWAP2 POP POP JUMP JUMPDEST PUSH1 0x0 DUP1 DUP4 PUSH1 0x1F DUP5 ADD SLT PUSH2 0x4255 JUMPI PUSH2 0x4254 PUSH2 0x5DA6 JUMP JUMPDEST JUMPDEST DUP3 CALLDATALOAD SWAP1 POP PUSH8 0xFFFFFFFFFFFFFFFF DUP2 GT ISZERO PUSH2 0x4272 JUMPI PUSH2 0x4271 PUSH2 0x5DA1 JUMP JUMPDEST JUMPDEST PUSH1 0x20 DUP4 ADD SWAP2 POP DUP4 PUSH1 0x20 DUP3 MUL DUP4 ADD GT ISZERO PUSH2 0x428E JUMPI PUSH2 0x428D PUSH2 0x5DAB JUMP JUMPDEST JUMPDEST SWAP3 POP SWAP3 SWAP1 POP JUMP JUMPDEST PUSH1 0x0 DUP3 PUSH1 0x1F DUP4 ADD SLT PUSH2 0x42AA JUMPI PUSH2 0x42A9 PUSH2 0x5DA6 JUMP JUMPDEST JUMPDEST DUP2 CALLDATALOAD PUSH2 0x42BA DUP5 DUP3 PUSH1 0x20 DUP7 ADD PUSH2 0x4108 JUMP JUMPDEST SWAP2 POP POP SWAP3 SWAP2 POP POP JUMP JUMPDEST PUSH1 0x0 DUP2 CALLDATALOAD SWAP1 POP PUSH2 0x42D2 DUP2 PUSH2 0x65DE JUMP JUMPDEST SWAP3 SWAP2 POP POP JUMP JUMPDEST PUSH1 0x0 DUP2 MLOAD SWAP1 POP PUSH2 0x42E7 DUP2 PUSH2 0x65DE JUMP JUMPDEST SWAP3 SWAP2 POP POP JUMP JUMPDEST PUSH1 0x0 DUP2 CALLDATALOAD SWAP1 POP PUSH2 0x42FC DUP2 PUSH2 0x65F5 JUMP JUMPDEST SWAP3 SWAP2 POP POP JUMP JUMPDEST PUSH1 0x0 DUP2 CALLDATALOAD SWAP1 POP PUSH2 0x4311 DUP2 PUSH2 0x660C JUMP JUMPDEST SWAP3 SWAP2 POP POP JUMP JUMPDEST PUSH1 0x0 DUP2 MLOAD SWAP1 POP PUSH2 0x4326 DUP2 PUSH2 0x660C JUMP JUMPDEST SWAP3 SWAP2 POP POP JUMP JUMPDEST PUSH1 0x0 DUP1 DUP4 PUSH1 0x1F DUP5 ADD SLT PUSH2 0x4342 JUMPI PUSH2 0x4341 PUSH2 0x5DA6 JUMP JUMPDEST JUMPDEST DUP3 CALLDATALOAD SWAP1 POP PUSH8 0xFFFFFFFFFFFFFFFF DUP2 GT ISZERO PUSH2 0x435F JUMPI PUSH2 0x435E PUSH2 0x5DA1 JUMP JUMPDEST JUMPDEST PUSH1 0x20 DUP4 ADD SWAP2 POP DUP4 PUSH1 0x1 DUP3 MUL DUP4 ADD GT ISZERO PUSH2 0x437B JUMPI PUSH2 0x437A PUSH2 0x5DAB JUMP JUMPDEST JUMPDEST SWAP3 POP SWAP3 SWAP1 POP JUMP JUMPDEST PUSH1 0x0 DUP3 PUSH1 0x1F DUP4 ADD SLT PUSH2 0x4397 JUMPI PUSH2 0x4396 PUSH2 0x5DA6 JUMP JUMPDEST JUMPDEST DUP2 CALLDATALOAD PUSH2 0x43A7 DUP5 DUP3 PUSH1 0x20 DUP7 ADD PUSH2 0x4178 JUMP JUMPDEST SWAP2 POP POP SWAP3 SWAP2 POP POP JUMP JUMPDEST PUSH1 0x0 DUP3 PUSH1 0x1F DUP4 ADD SLT PUSH2 0x43C5 JUMPI PUSH2 0x43C4 PUSH2 0x5DA6 JUMP JUMPDEST JUMPDEST DUP2 CALLDATALOAD PUSH2 0x43D5 DUP5 DUP3 PUSH1 0x20 DUP7 ADD PUSH2 0x41BA JUMP JUMPDEST SWAP2 POP POP SWAP3 SWAP2 POP POP JUMP JUMPDEST PUSH1 0x0 DUP2 CALLDATALOAD SWAP1 POP PUSH2 0x43ED DUP2 PUSH2 0x6623 JUMP JUMPDEST SWAP3 SWAP2 POP POP JUMP JUMPDEST PUSH1 0x0 DUP2 MLOAD SWAP1 POP PUSH2 0x4402 DUP2 PUSH2 0x6623 JUMP JUMPDEST SWAP3 SWAP2 POP POP JUMP JUMPDEST PUSH1 0x0 PUSH1 0x20 DUP3 DUP5 SUB SLT ISZERO PUSH2 0x441E JUMPI PUSH2 0x441D PUSH2 0x5DBF JUMP JUMPDEST JUMPDEST PUSH1 0x0 PUSH2 0x442C DUP5 DUP3 DUP6 ADD PUSH2 0x41FC JUMP JUMPDEST SWAP2 POP POP SWAP3 SWAP2 POP POP JUMP JUMPDEST PUSH1 0x0 DUP1 PUSH1 0x40 DUP4 DUP6 SUB SLT ISZERO PUSH2 0x444C JUMPI PUSH2 0x444B PUSH2 0x5DBF JUMP JUMPDEST JUMPDEST PUSH1 0x0 PUSH2 0x445A DUP6 DUP3 DUP7 ADD PUSH2 0x41FC JUMP JUMPDEST SWAP3 POP POP PUSH1 0x20 PUSH2 0x446B DUP6 DUP3 DUP7 ADD PUSH2 0x41FC JUMP JUMPDEST SWAP2 POP POP SWAP3 POP SWAP3 SWAP1 POP JUMP JUMPDEST PUSH1 0x0 DUP1 PUSH1 0x0 PUSH1 0x60 DUP5 DUP7 SUB SLT ISZERO PUSH2 0x448E JUMPI PUSH2 0x448D PUSH2 0x5DBF JUMP JUMPDEST JUMPDEST PUSH1 0x0 PUSH2 0x449C DUP7 DUP3 DUP8 ADD PUSH2 0x41FC JUMP JUMPDEST SWAP4 POP POP PUSH1 0x20 PUSH2 0x44AD DUP7 DUP3 DUP8 ADD PUSH2 0x41FC JUMP JUMPDEST SWAP3 POP POP PUSH1 0x40 PUSH2 0x44BE DUP7 DUP3 DUP8 ADD PUSH2 0x43DE JUMP JUMPDEST SWAP2 POP POP SWAP3 POP SWAP3 POP SWAP3 JUMP JUMPDEST PUSH1 0x0 DUP1 PUSH1 0x0 DUP1 PUSH1 0x80 DUP6 DUP8 SUB SLT ISZERO PUSH2 0x44E2 JUMPI PUSH2 0x44E1 PUSH2 0x5DBF JUMP JUMPDEST JUMPDEST PUSH1 0x0 PUSH2 0x44F0 DUP8 DUP3 DUP9 ADD PUSH2 0x41FC JUMP JUMPDEST SWAP5 POP POP PUSH1 0x20 PUSH2 0x4501 DUP8 DUP3 DUP9 ADD PUSH2 0x41FC JUMP JUMPDEST SWAP4 POP POP PUSH1 0x40 PUSH2 0x4512 DUP8 DUP3 DUP9 ADD PUSH2 0x43DE JUMP JUMPDEST SWAP3 POP POP PUSH1 0x60 DUP6 ADD CALLDATALOAD PUSH8 0xFFFFFFFFFFFFFFFF DUP2 GT ISZERO PUSH2 0x4533 JUMPI PUSH2 0x4532 PUSH2 0x5DB5 JUMP JUMPDEST JUMPDEST PUSH2 0x453F DUP8 DUP3 DUP9 ADD PUSH2 0x4382 JUMP JUMPDEST SWAP2 POP POP SWAP3 SWAP6 SWAP2 SWAP5 POP SWAP3 POP JUMP JUMPDEST PUSH1 0x0 DUP1 PUSH1 0x40 DUP4 DUP6 SUB SLT ISZERO PUSH2 0x4562 JUMPI PUSH2 0x4561 PUSH2 0x5DBF JUMP JUMPDEST JUMPDEST PUSH1 0x0 PUSH2 0x4570 DUP6 DUP3 DUP7 ADD PUSH2 0x41FC JUMP JUMPDEST SWAP3 POP POP PUSH1 0x20 DUP4 ADD CALLDATALOAD PUSH8 0xFFFFFFFFFFFFFFFF DUP2 GT ISZERO PUSH2 0x4591 JUMPI PUSH2 0x4590 PUSH2 0x5DB5 JUMP JUMPDEST JUMPDEST PUSH2 0x459D DUP6 DUP3 DUP7 ADD PUSH2 0x4295 JUMP JUMPDEST SWAP2 POP POP SWAP3 POP SWAP3 SWAP1 POP JUMP JUMPDEST PUSH1 0x0 DUP1 PUSH1 0x40 DUP4 DUP6 SUB SLT ISZERO PUSH2 0x45BE JUMPI PUSH2 0x45BD PUSH2 0x5DBF JUMP JUMPDEST JUMPDEST PUSH1 0x0 PUSH2 0x45CC DUP6 DUP3 DUP7 ADD PUSH2 0x41FC JUMP JUMPDEST SWAP3 POP POP PUSH1 0x20 PUSH2 0x45DD DUP6 DUP3 DUP7 ADD PUSH2 0x42C3 JUMP JUMPDEST SWAP2 POP POP SWAP3 POP SWAP3 SWAP1 POP JUMP JUMPDEST PUSH1 0x0 DUP1 PUSH1 0x0 PUSH1 0x40 DUP5 DUP7 SUB SLT ISZERO PUSH2 0x4600 JUMPI PUSH2 0x45FF PUSH2 0x5DBF JUMP JUMPDEST JUMPDEST PUSH1 0x0 PUSH2 0x460E DUP7 DUP3 DUP8 ADD PUSH2 0x41FC JUMP JUMPDEST SWAP4 POP POP PUSH1 0x20 DUP5 ADD CALLDATALOAD PUSH8 0xFFFFFFFFFFFFFFFF DUP2 GT ISZERO PUSH2 0x462F JUMPI PUSH2 0x462E PUSH2 0x5DB5 JUMP JUMPDEST JUMPDEST PUSH2 0x463B DUP7 DUP3 DUP8 ADD PUSH2 0x432C JUMP JUMPDEST SWAP3 POP SWAP3 POP POP SWAP3 POP SWAP3 POP SWAP3 JUMP JUMPDEST PUSH1 0x0 DUP1 PUSH1 0x40 DUP4 DUP6 SUB SLT ISZERO PUSH2 0x465E JUMPI PUSH2 0x465D PUSH2 0x5DBF JUMP JUMPDEST JUMPDEST PUSH1 0x0 PUSH2 0x466C DUP6 DUP3 DUP7 ADD PUSH2 0x41FC JUMP JUMPDEST SWAP3 POP POP PUSH1 0x20 PUSH2 0x467D DUP6 DUP3 DUP7 ADD PUSH2 0x43DE JUMP JUMPDEST SWAP2 POP POP SWAP3 POP SWAP3 SWAP1 POP JUMP JUMPDEST PUSH1 0x0 DUP1 PUSH1 0x40 DUP4 DUP6 SUB SLT ISZERO PUSH2 0x469E JUMPI PUSH2 0x469D PUSH2 0x5DBF JUMP JUMPDEST JUMPDEST PUSH1 0x0 DUP4 ADD CALLDATALOAD PUSH8 0xFFFFFFFFFFFFFFFF DUP2 GT ISZERO PUSH2 0x46BC JUMPI PUSH2 0x46BB PUSH2 0x5DB5 JUMP JUMPDEST JUMPDEST PUSH2 0x46C8 DUP6 DUP3 DUP7 ADD PUSH2 0x4211 JUMP JUMPDEST SWAP3 POP POP PUSH1 0x20 DUP4 ADD CALLDATALOAD PUSH8 0xFFFFFFFFFFFFFFFF DUP2 GT ISZERO PUSH2 0x46E9 JUMPI PUSH2 0x46E8 PUSH2 0x5DB5 JUMP JUMPDEST JUMPDEST PUSH2 0x46F5 DUP6 DUP3 DUP7 ADD PUSH2 0x4295 JUMP JUMPDEST SWAP2 POP POP SWAP3 POP SWAP3 SWAP1 POP JUMP JUMPDEST PUSH1 0x0 DUP1 PUSH1 0x20 DUP4 DUP6 SUB SLT ISZERO PUSH2 0x4716 JUMPI PUSH2 0x4715 PUSH2 0x5DBF JUMP JUMPDEST JUMPDEST PUSH1 0x0 DUP4 ADD CALLDATALOAD PUSH8 0xFFFFFFFFFFFFFFFF DUP2 GT ISZERO PUSH2 0x4734 JUMPI PUSH2 0x4733 PUSH2 0x5DB5 JUMP JUMPDEST JUMPDEST PUSH2 0x4740 DUP6 DUP3 DUP7 ADD PUSH2 0x423F JUMP JUMPDEST SWAP3 POP SWAP3 POP POP SWAP3 POP SWAP3 SWAP1 POP JUMP JUMPDEST PUSH1 0x0 PUSH1 0x20 DUP3 DUP5 SUB SLT ISZERO PUSH2 0x4762 JUMPI PUSH2 0x4761 PUSH2 0x5DBF JUMP JUMPDEST JUMPDEST PUSH1 0x0 DUP3 ADD CALLDATALOAD PUSH8 0xFFFFFFFFFFFFFFFF DUP2 GT ISZERO PUSH2 0x4780 JUMPI PUSH2 0x477F PUSH2 0x5DB5 JUMP JUMPDEST JUMPDEST PUSH2 0x478C DUP5 DUP3 DUP6 ADD PUSH2 0x4295 JUMP JUMPDEST SWAP2 POP POP SWAP3 SWAP2 POP POP JUMP JUMPDEST PUSH1 0x0 DUP1 PUSH1 0x40 DUP4 DUP6 SUB SLT ISZERO PUSH2 0x47AC JUMPI PUSH2 0x47AB PUSH2 0x5DBF JUMP JUMPDEST JUMPDEST PUSH1 0x0 DUP4 ADD CALLDATALOAD PUSH8 0xFFFFFFFFFFFFFFFF DUP2 GT ISZERO PUSH2 0x47CA JUMPI PUSH2 0x47C9 PUSH2 0x5DB5 JUMP JUMPDEST JUMPDEST PUSH2 0x47D6 DUP6 DUP3 DUP7 ADD PUSH2 0x4295 JUMP JUMPDEST SWAP3 POP POP PUSH1 0x20 DUP4 ADD CALLDATALOAD PUSH8 0xFFFFFFFFFFFFFFFF DUP2 GT ISZERO PUSH2 0x47F7 JUMPI PUSH2 0x47F6 PUSH2 0x5DB5 JUMP JUMPDEST JUMPDEST PUSH2 0x4803 DUP6 DUP3 DUP7 ADD PUSH2 0x4295 JUMP JUMPDEST SWAP2 POP POP SWAP3 POP SWAP3 SWAP1 POP JUMP JUMPDEST PUSH1 0x0 DUP1 PUSH1 0x40 DUP4 DUP6 SUB SLT ISZERO PUSH2 0x4824 JUMPI PUSH2 0x4823 PUSH2 0x5DBF JUMP JUMPDEST JUMPDEST PUSH1 0x0 DUP4 ADD CALLDATALOAD PUSH8 0xFFFFFFFFFFFFFFFF DUP2 GT ISZERO PUSH2 0x4842 JUMPI PUSH2 0x4841 PUSH2 0x5DB5 JUMP JUMPDEST JUMPDEST PUSH2 0x484E DUP6 DUP3 DUP7 ADD PUSH2 0x4295 JUMP JUMPDEST SWAP3 POP POP PUSH1 0x20 PUSH2 0x485F DUP6 DUP3 DUP7 ADD PUSH2 0x43DE JUMP JUMPDEST SWAP2 POP POP SWAP3 POP SWAP3 SWAP1 POP JUMP JUMPDEST PUSH1 0x0 PUSH1 0x20 DUP3 DUP5 SUB SLT ISZERO PUSH2 0x487F JUMPI PUSH2 0x487E PUSH2 0x5DBF JUMP JUMPDEST JUMPDEST PUSH1 0x0 PUSH2 0x488D DUP5 DUP3 DUP6 ADD PUSH2 0x42C3 JUMP JUMPDEST SWAP2 POP POP SWAP3 SWAP2 POP POP JUMP JUMPDEST PUSH1 0x0 PUSH1 0x20 DUP3 DUP5 SUB SLT ISZERO PUSH2 0x48AC JUMPI PUSH2 0x48AB PUSH2 0x5DBF JUMP JUMPDEST JUMPDEST PUSH1 0x0 PUSH2 0x48BA DUP5 DUP3 DUP6 ADD PUSH2 0x42D8 JUMP JUMPDEST SWAP2 POP POP SWAP3 SWAP2 POP POP JUMP JUMPDEST PUSH1 0x0 PUSH1 0x20 DUP3 DUP5 SUB SLT ISZERO PUSH2 0x48D9 JUMPI PUSH2 0x48D8 PUSH2 0x5DBF JUMP JUMPDEST JUMPDEST PUSH1 0x0 PUSH2 0x48E7 DUP5 DUP3 DUP6 ADD PUSH2 0x42ED JUMP JUMPDEST SWAP2 POP POP SWAP3 SWAP2 POP POP JUMP JUMPDEST PUSH1 0x0 DUP1 PUSH1 0x40 DUP4 DUP6 SUB SLT ISZERO PUSH2 0x4907 JUMPI PUSH2 0x4906 PUSH2 0x5DBF JUMP JUMPDEST JUMPDEST PUSH1 0x0 PUSH2 0x4915 DUP6 DUP3 DUP7 ADD PUSH2 0x42ED JUMP JUMPDEST SWAP3 POP POP PUSH1 0x20 PUSH2 0x4926 DUP6 DUP3 DUP7 ADD PUSH2 0x41FC JUMP JUMPDEST SWAP2 POP POP SWAP3 POP SWAP3 SWAP1 POP JUMP JUMPDEST PUSH1 0x0 PUSH1 0x20 DUP3 DUP5 SUB SLT ISZERO PUSH2 0x4946 JUMPI PUSH2 0x4945 PUSH2 0x5DBF JUMP JUMPDEST JUMPDEST PUSH1 0x0 PUSH2 0x4954 DUP5 DUP3 DUP6 ADD PUSH2 0x4302 JUMP JUMPDEST SWAP2 POP POP SWAP3 SWAP2 POP POP JUMP JUMPDEST PUSH1 0x0 PUSH1 0x20 DUP3 DUP5 SUB SLT ISZERO PUSH2 0x4973 JUMPI PUSH2 0x4972 PUSH2 0x5DBF JUMP JUMPDEST JUMPDEST PUSH1 0x0 PUSH2 0x4981 DUP5 DUP3 DUP6 ADD PUSH2 0x4317 JUMP JUMPDEST SWAP2 POP POP SWAP3 SWAP2 POP POP JUMP JUMPDEST PUSH1 0x0 PUSH1 0x20 DUP3 DUP5 SUB SLT ISZERO PUSH2 0x49A0 JUMPI PUSH2 0x499F PUSH2 0x5DBF JUMP JUMPDEST JUMPDEST PUSH1 0x0 DUP3 ADD CALLDATALOAD PUSH8 0xFFFFFFFFFFFFFFFF DUP2 GT ISZERO PUSH2 0x49BE JUMPI PUSH2 0x49BD PUSH2 0x5DB5 JUMP JUMPDEST JUMPDEST PUSH2 0x49CA DUP5 DUP3 DUP6 ADD PUSH2 0x43B0 JUMP JUMPDEST SWAP2 POP POP SWAP3 SWAP2 POP POP JUMP JUMPDEST PUSH1 0x0 PUSH1 0x20 DUP3 DUP5 SUB SLT ISZERO PUSH2 0x49E9 JUMPI PUSH2 0x49E8 PUSH2 0x5DBF JUMP JUMPDEST JUMPDEST PUSH1 0x0 PUSH2 0x49F7 DUP5 DUP3 DUP6 ADD PUSH2 0x43DE JUMP JUMPDEST SWAP2 POP POP SWAP3 SWAP2 POP POP JUMP JUMPDEST PUSH1 0x0 PUSH1 0x20 DUP3 DUP5 SUB SLT ISZERO PUSH2 0x4A16 JUMPI PUSH2 0x4A15 PUSH2 0x5DBF JUMP JUMPDEST JUMPDEST PUSH1 0x0 PUSH2 0x4A24 DUP5 DUP3 DUP6 ADD PUSH2 0x43F3 JUMP JUMPDEST SWAP2 POP POP SWAP3 SWAP2 POP POP JUMP JUMPDEST PUSH1 0x0 PUSH2 0x4A39 DUP4 DUP4 PUSH2 0x515B JUMP JUMPDEST PUSH1 0x20 DUP4 ADD SWAP1 POP SWAP3 SWAP2 POP POP JUMP JUMPDEST PUSH2 0x4A4E DUP2 PUSH2 0x5A8B JUMP JUMPDEST DUP3 MSTORE POP POP JUMP JUMPDEST PUSH1 0x0 PUSH2 0x4A60 DUP4 DUP6 PUSH2 0x5938 JUMP JUMPDEST SWAP4 POP PUSH32 0x7FFFFFFFFFFFFFFFFFFFFFFFFFFFFFFFFFFFFFFFFFFFFFFFFFFFFFFFFFFFFFF DUP4 GT ISZERO PUSH2 0x4A93 JUMPI PUSH2 0x4A92 PUSH2 0x5DBA JUMP JUMPDEST JUMPDEST PUSH1 0x20 DUP4 MUL SWAP3 POP PUSH2 0x4AA4 DUP4 DUP6 DUP5 PUSH2 0x5B63 JUMP JUMPDEST DUP3 DUP5 ADD SWAP1 POP SWAP4 SWAP3 POP POP POP JUMP JUMPDEST PUSH1 0x0 PUSH2 0x4ABB DUP3 PUSH2 0x590A JUMP JUMPDEST PUSH2 0x4AC5 DUP2 DUP6 PUSH2 0x5938 JUMP JUMPDEST SWAP4 POP PUSH2 0x4AD0 DUP4 PUSH2 0x58E5 JUMP JUMPDEST DUP1 PUSH1 0x0 JUMPDEST DUP4 DUP2 LT ISZERO PUSH2 0x4B01 JUMPI DUP2 MLOAD PUSH2 0x4AE8 DUP9 DUP3 PUSH2 0x4A2D JUMP JUMPDEST SWAP8 POP PUSH2 0x4AF3 DUP4 PUSH2 0x592B JUMP JUMPDEST SWAP3 POP POP PUSH1 0x1 DUP2 ADD SWAP1 POP PUSH2 0x4AD4 JUMP JUMPDEST POP DUP6 SWAP4 POP POP POP POP SWAP3 SWAP2 POP POP JUMP JUMPDEST PUSH2 0x4B17 DUP2 PUSH2 0x5A9D JUMP JUMPDEST DUP3 MSTORE POP POP JUMP JUMPDEST PUSH2 0x4B26 DUP2 PUSH2 0x5AA9 JUMP JUMPDEST DUP3 MSTORE POP POP JUMP JUMPDEST PUSH1 0x0 PUSH2 0x4B37 DUP3 PUSH2 0x5915 JUMP JUMPDEST PUSH2 0x4B41 DUP2 DUP6 PUSH2 0x5949 JUMP JUMPDEST SWAP4 POP PUSH2 0x4B51 DUP2 DUP6 PUSH1 0x20 DUP7 ADD PUSH2 0x5B72 JUMP JUMPDEST PUSH2 0x4B5A DUP2 PUSH2 0x5DC4 JUMP JUMPDEST DUP5 ADD SWAP2 POP POP SWAP3 SWAP2 POP POP JUMP JUMPDEST PUSH2 0x4B6E DUP2 PUSH2 0x5B09 JUMP JUMPDEST DUP3 MSTORE POP POP JUMP JUMPDEST PUSH2 0x4B7D DUP2 PUSH2 0x5B1B JUMP JUMPDEST DUP3 MSTORE POP POP JUMP JUMPDEST PUSH2 0x4B8C DUP2 PUSH2 0x5B2D JUMP JUMPDEST DUP3 MSTORE POP POP JUMP JUMPDEST PUSH1 0x0 PUSH2 0x4B9D DUP3 PUSH2 0x5920 JUMP JUMPDEST PUSH2 0x4BA7 DUP2 DUP6 PUSH2 0x595A JUMP JUMPDEST SWAP4 POP PUSH2 0x4BB7 DUP2 DUP6 PUSH1 0x20 DUP7 ADD PUSH2 0x5B72 JUMP JUMPDEST PUSH2 0x4BC0 DUP2 PUSH2 0x5DC4 JUMP JUMPDEST DUP5 ADD SWAP2 POP POP SWAP3 SWAP2 POP POP JUMP JUMPDEST PUSH1 0x0 PUSH2 0x4BD6 DUP3 PUSH2 0x5920 JUMP JUMPDEST PUSH2 0x4BE0 DUP2 DUP6 PUSH2 0x596B JUMP JUMPDEST SWAP4 POP PUSH2 0x4BF0 DUP2 DUP6 PUSH1 0x20 DUP7 ADD PUSH2 0x5B72 JUMP JUMPDEST DUP1 DUP5 ADD SWAP2 POP POP SWAP3 SWAP2 POP POP JUMP JUMPDEST PUSH1 0x0 DUP2 SLOAD PUSH2 0x4C09 DUP2 PUSH2 0x5BCF JUMP JUMPDEST PUSH2 0x4C13 DUP2 DUP7 PUSH2 0x595A JUMP JUMPDEST SWAP5 POP PUSH1 0x1 DUP3 AND PUSH1 0x0 DUP2 EQ PUSH2 0x4C2E JUMPI PUSH1 0x1 DUP2 EQ PUSH2 0x4C40 JUMPI PUSH2 0x4C73 JUMP JUMPDEST PUSH1 0xFF NOT DUP4 AND DUP7 MSTORE PUSH1 0x20 DUP7 ADD SWAP4 POP PUSH2 0x4C73 JUMP JUMPDEST PUSH2 0x4C49 DUP6 PUSH2 0x58F5 JUMP JUMPDEST PUSH1 0x0 JUMPDEST DUP4 DUP2 LT ISZERO PUSH2 0x4C6B JUMPI DUP2 SLOAD DUP2 DUP10 ADD MSTORE PUSH1 0x1 DUP3 ADD SWAP2 POP PUSH1 0x20 DUP2 ADD SWAP1 POP PUSH2 0x4C4C JUMP JUMPDEST DUP1 DUP9 ADD SWAP6 POP POP POP JUMPDEST POP POP POP SWAP3 SWAP2 POP POP JUMP JUMPDEST PUSH1 0x0 DUP2 SLOAD PUSH2 0x4C89 DUP2 PUSH2 0x5BCF JUMP JUMPDEST PUSH2 0x4C93 DUP2 DUP7 PUSH2 0x596B JUMP JUMPDEST SWAP5 POP PUSH1 0x1 DUP3 AND PUSH1 0x0 DUP2 EQ PUSH2 0x4CAE JUMPI PUSH1 0x1 DUP2 EQ PUSH2 0x4CBF JUMPI PUSH2 0x4CF2 JUMP JUMPDEST PUSH1 0xFF NOT DUP4 AND DUP7 MSTORE DUP2 DUP7 ADD SWAP4 POP PUSH2 0x4CF2 JUMP JUMPDEST PUSH2 0x4CC8 DUP6 PUSH2 0x58F5 JUMP JUMPDEST PUSH1 0x0 JUMPDEST DUP4 DUP2 LT ISZERO PUSH2 0x4CEA JUMPI DUP2 SLOAD DUP2 DUP10 ADD MSTORE PUSH1 0x1 DUP3 ADD SWAP2 POP PUSH1 0x20 DUP2 ADD SWAP1 POP PUSH2 0x4CCB JUMP JUMPDEST DUP4 DUP9 ADD SWAP6 POP POP POP JUMPDEST POP POP POP SWAP3 SWAP2 POP POP JUMP JUMPDEST PUSH1 0x0 PUSH2 0x4D08 PUSH1 0x20 DUP4 PUSH2 0x595A JUMP JUMPDEST SWAP2 POP PUSH2 0x4D13 DUP3 PUSH2 0x5DD5 JUMP JUMPDEST PUSH1 0x20 DUP3 ADD SWAP1 POP SWAP2 SWAP1 POP JUMP JUMPDEST PUSH1 0x0 PUSH2 0x4D2B PUSH1 0x32 DUP4 PUSH2 0x595A JUMP JUMPDEST SWAP2 POP PUSH2 0x4D36 DUP3 PUSH2 0x5DFE JUMP JUMPDEST PUSH1 0x40 DUP3 ADD SWAP1 POP SWAP2 SWAP1 POP JUMP JUMPDEST PUSH1 0x0 PUSH2 0x4D4E PUSH1 0x26 DUP4 PUSH2 0x595A JUMP JUMPDEST SWAP2 POP PUSH2 0x4D59 DUP3 PUSH2 0x5E4D JUMP JUMPDEST PUSH1 0x40 DUP3 ADD SWAP1 POP SWAP2 SWAP1 POP JUMP JUMPDEST PUSH1 0x0 PUSH2 0x4D71 PUSH1 0x25 DUP4 PUSH2 0x595A JUMP JUMPDEST SWAP2 POP PUSH2 0x4D7C DUP3 PUSH2 0x5E9C JUMP JUMPDEST PUSH1 0x40 DUP3 ADD SWAP1 POP SWAP2 SWAP1 POP JUMP JUMPDEST PUSH1 0x0 PUSH2 0x4D94 PUSH1 0x1C DUP4 PUSH2 0x595A JUMP JUMPDEST SWAP2 POP PUSH2 0x4D9F DUP3 PUSH2 0x5EEB JUMP JUMPDEST PUSH1 0x20 DUP3 ADD SWAP1 POP SWAP2 SWAP1 POP JUMP JUMPDEST PUSH1 0x0 PUSH2 0x4DB7 PUSH1 0x22 DUP4 PUSH2 0x595A JUMP JUMPDEST SWAP2 POP PUSH2 0x4DC2 DUP3 PUSH2 0x5F14 JUMP JUMPDEST PUSH1 0x40 DUP3 ADD SWAP1 POP SWAP2 SWAP1 POP JUMP JUMPDEST PUSH1 0x0 PUSH2 0x4DDA PUSH1 0x24 DUP4 PUSH2 0x595A JUMP JUMPDEST SWAP2 POP PUSH2 0x4DE5 DUP3 PUSH2 0x5F63 JUMP JUMPDEST PUSH1 0x40 DUP3 ADD SWAP1 POP SWAP2 SWAP1 POP JUMP JUMPDEST PUSH1 0x0 PUSH2 0x4DFD PUSH1 0x19 DUP4 PUSH2 0x595A JUMP JUMPDEST SWAP2 POP PUSH2 0x4E08 DUP3 PUSH2 0x5FB2 JUMP JUMPDEST PUSH1 0x20 DUP3 ADD SWAP1 POP SWAP2 SWAP1 POP JUMP JUMPDEST PUSH1 0x0 PUSH2 0x4E20 PUSH1 0x21 DUP4 PUSH2 0x595A JUMP JUMPDEST SWAP2 POP PUSH2 0x4E2B DUP3 PUSH2 0x5FDB JUMP JUMPDEST PUSH1 0x40 DUP3 ADD SWAP1 POP SWAP2 SWAP1 POP JUMP JUMPDEST PUSH1 0x0 PUSH2 0x4E43 PUSH1 0x1F DUP4 PUSH2 0x596B JUMP JUMPDEST SWAP2 POP PUSH2 0x4E4E DUP3 PUSH2 0x602A JUMP JUMPDEST PUSH1 0x1F DUP3 ADD SWAP1 POP SWAP2 SWAP1 POP JUMP JUMPDEST PUSH1 0x0 PUSH2 0x4E66 PUSH1 0x2C DUP4 PUSH2 0x595A JUMP JUMPDEST SWAP2 POP PUSH2 0x4E71 DUP3 PUSH2 0x6053 JUMP JUMPDEST PUSH1 0x40 DUP3 ADD SWAP1 POP SWAP2 SWAP1 POP JUMP JUMPDEST PUSH1 0x0 PUSH2 0x4E89 PUSH1 0x1E DUP4 PUSH2 0x595A JUMP JUMPDEST SWAP2 POP PUSH2 0x4E94 DUP3 PUSH2 0x60A2 JUMP JUMPDEST PUSH1 0x20 DUP3 ADD SWAP1 POP SWAP2 SWAP1 POP JUMP JUMPDEST PUSH1 0x0 PUSH2 0x4EAC PUSH1 0x26 DUP4 PUSH2 0x595A JUMP JUMPDEST SWAP2 POP PUSH2 0x4EB7 DUP3 PUSH2 0x60CB JUMP JUMPDEST PUSH1 0x40 DUP3 ADD SWAP1 POP SWAP2 SWAP1 POP JUMP JUMPDEST PUSH1 0x0 PUSH2 0x4ECF PUSH1 0x38 DUP4 PUSH2 0x595A JUMP JUMPDEST SWAP2 POP PUSH2 0x4EDA DUP3 PUSH2 0x611A JUMP JUMPDEST PUSH1 0x40 DUP3 ADD SWAP1 POP SWAP2 SWAP1 POP JUMP JUMPDEST PUSH1 0x0 PUSH2 0x4EF2 PUSH1 0x1D DUP4 PUSH2 0x596B JUMP JUMPDEST SWAP2 POP PUSH2 0x4EFD DUP3 PUSH2 0x6169 JUMP JUMPDEST PUSH1 0x1D DUP3 ADD SWAP1 POP SWAP2 SWAP1 POP JUMP JUMPDEST PUSH1 0x0 PUSH2 0x4F15 PUSH1 0x29 DUP4 PUSH2 0x595A JUMP JUMPDEST SWAP2 POP PUSH2 0x4F20 DUP3 PUSH2 0x6192 JUMP JUMPDEST PUSH1 0x40 DUP3 ADD SWAP1 POP SWAP2 SWAP1 POP JUMP JUMPDEST PUSH1 0x0 PUSH2 0x4F38 PUSH1 0x2A DUP4 PUSH2 0x595A JUMP JUMPDEST SWAP2 POP PUSH2 0x4F43 DUP3 PUSH2 0x61E1 JUMP JUMPDEST PUSH1 0x40 DUP3 ADD SWAP1 POP SWAP2 SWAP1 POP JUMP JUMPDEST PUSH1 0x0 PUSH2 0x4F5B PUSH1 0x29 DUP4 PUSH2 0x595A JUMP JUMPDEST SWAP2 POP PUSH2 0x4F66 DUP3 PUSH2 0x6230 JUMP JUMPDEST PUSH1 0x40 DUP3 ADD SWAP1 POP SWAP2 SWAP1 POP JUMP JUMPDEST PUSH1 0x0 PUSH2 0x4F7E PUSH1 0x20 DUP4 PUSH2 0x595A JUMP JUMPDEST SWAP2 POP PUSH2 0x4F89 DUP3 PUSH2 0x627F JUMP JUMPDEST PUSH1 0x20 DUP3 ADD SWAP1 POP SWAP2 SWAP1 POP JUMP JUMPDEST PUSH1 0x0 PUSH2 0x4FA1 PUSH1 0x2C DUP4 PUSH2 0x595A JUMP JUMPDEST SWAP2 POP PUSH2 0x4FAC DUP3 PUSH2 0x62A8 JUMP JUMPDEST PUSH1 0x40 DUP3 ADD SWAP1 POP SWAP2 SWAP1 POP JUMP JUMPDEST PUSH1 0x0 PUSH2 0x4FC4 PUSH1 0x2B DUP4 PUSH2 0x595A JUMP JUMPDEST SWAP2 POP PUSH2 0x4FCF DUP3 PUSH2 0x62F7 JUMP JUMPDEST PUSH1 0x40 DUP3 ADD SWAP1 POP SWAP2 SWAP1 POP JUMP JUMPDEST PUSH1 0x0 PUSH2 0x4FE7 PUSH1 0x20 DUP4 PUSH2 0x595A JUMP JUMPDEST SWAP2 POP PUSH2 0x4FF2 DUP3 PUSH2 0x6346 JUMP JUMPDEST PUSH1 0x20 DUP3 ADD SWAP1 POP SWAP2 SWAP1 POP JUMP JUMPDEST PUSH1 0x0 PUSH2 0x500A PUSH1 0x1A DUP4 PUSH2 0x595A JUMP JUMPDEST SWAP2 POP PUSH2 0x5015 DUP3 PUSH2 0x636F JUMP JUMPDEST PUSH1 0x20 DUP3 ADD SWAP1 POP SWAP2 SWAP1 POP JUMP JUMPDEST PUSH1 0x0 PUSH2 0x502D PUSH1 0x21 DUP4 PUSH2 0x595A JUMP JUMPDEST SWAP2 POP PUSH2 0x5038 DUP3 PUSH2 0x6398 JUMP JUMPDEST PUSH1 0x40 DUP3 ADD SWAP1 POP SWAP2 SWAP1 POP JUMP JUMPDEST PUSH1 0x0 PUSH2 0x5050 PUSH1 0x27 DUP4 PUSH2 0x595A JUMP JUMPDEST SWAP2 POP PUSH2 0x505B DUP3 PUSH2 0x63E7 JUMP JUMPDEST PUSH1 0x40 DUP3 ADD SWAP1 POP SWAP2 SWAP1 POP JUMP JUMPDEST PUSH1 0x0 PUSH2 0x5073 PUSH1 0x31 DUP4 PUSH2 0x595A JUMP JUMPDEST SWAP2 POP PUSH2 0x507E DUP3 PUSH2 0x6436 JUMP JUMPDEST PUSH1 0x40 DUP3 ADD SWAP1 POP SWAP2 SWAP1 POP JUMP JUMPDEST PUSH1 0x0 PUSH2 0x5096 PUSH1 0x19 DUP4 PUSH2 0x595A JUMP JUMPDEST SWAP2 POP PUSH2 0x50A1 DUP3 PUSH2 0x6485 JUMP JUMPDEST PUSH1 0x20 DUP3 ADD SWAP1 POP SWAP2 SWAP1 POP JUMP JUMPDEST PUSH1 0x0 PUSH2 0x50B9 PUSH1 0x17 DUP4 PUSH2 0x596B JUMP JUMPDEST SWAP2 POP PUSH2 0x50C4 DUP3 PUSH2 0x64AE JUMP JUMPDEST PUSH1 0x17 DUP3 ADD SWAP1 POP SWAP2 SWAP1 POP JUMP JUMPDEST PUSH1 0x0 PUSH2 0x50DC PUSH1 0x31 DUP4 PUSH2 0x595A JUMP JUMPDEST SWAP2 POP PUSH2 0x50E7 DUP3 PUSH2 0x64D7 JUMP JUMPDEST PUSH1 0x40 DUP3 ADD SWAP1 POP SWAP2 SWAP1 POP JUMP JUMPDEST PUSH1 0x0 PUSH2 0x50FF PUSH1 0x11 DUP4 PUSH2 0x596B JUMP JUMPDEST SWAP2 POP PUSH2 0x510A DUP3 PUSH2 0x6526 JUMP JUMPDEST PUSH1 0x11 DUP3 ADD SWAP1 POP SWAP2 SWAP1 POP JUMP JUMPDEST PUSH1 0x0 PUSH2 0x5122 PUSH1 0x2F DUP4 PUSH2 0x595A JUMP JUMPDEST SWAP2 POP PUSH2 0x512D DUP3 PUSH2 0x654F JUMP JUMPDEST PUSH1 0x40 DUP3 ADD SWAP1 POP SWAP2 SWAP1 POP JUMP JUMPDEST PUSH1 0x0 PUSH2 0x5145 PUSH1 0x1F DUP4 PUSH2 0x595A JUMP JUMPDEST SWAP2 POP PUSH2 0x5150 DUP3 PUSH2 0x659E JUMP JUMPDEST PUSH1 0x20 DUP3 ADD SWAP1 POP SWAP2 SWAP1 POP JUMP JUMPDEST PUSH2 0x5164 DUP2 PUSH2 0x5AFF JUMP JUMPDEST DUP3 MSTORE POP POP JUMP JUMPDEST PUSH2 0x5173 DUP2 PUSH2 0x5AFF JUMP JUMPDEST DUP3 MSTORE POP POP JUMP JUMPDEST PUSH2 0x518A PUSH2 0x5185 DUP3 PUSH2 0x5AFF JUMP JUMPDEST PUSH2 0x5C7B JUMP JUMPDEST DUP3 MSTORE POP POP JUMP JUMPDEST PUSH1 0x0 PUSH2 0x519C DUP3 DUP7 PUSH2 0x4BCB JUMP JUMPDEST SWAP2 POP PUSH2 0x51A8 DUP3 DUP6 PUSH2 0x4BCB JUMP JUMPDEST SWAP2 POP PUSH2 0x51B4 DUP3 DUP5 PUSH2 0x4C7C JUMP JUMPDEST SWAP2 POP DUP2 SWAP1 POP SWAP5 SWAP4 POP POP POP POP JUMP JUMPDEST PUSH1 0x0 PUSH2 0x51CC DUP3 PUSH2 0x4E36 JUMP JUMPDEST SWAP2 POP PUSH2 0x51D8 DUP3 DUP5 PUSH2 0x5179 JUMP JUMPDEST PUSH1 0x20 DUP3 ADD SWAP2 POP DUP2 SWAP1 POP SWAP3 SWAP2 POP POP JUMP JUMPDEST PUSH1 0x0 PUSH2 0x51F2 DUP3 PUSH2 0x4EE5 JUMP JUMPDEST SWAP2 POP PUSH2 0x51FE DUP3 DUP5 PUSH2 0x5179 JUMP JUMPDEST PUSH1 0x20 DUP3 ADD SWAP2 POP DUP2 SWAP1 POP SWAP3 SWAP2 POP POP JUMP JUMPDEST PUSH1 0x0 PUSH2 0x5218 DUP3 PUSH2 0x50AC JUMP JUMPDEST SWAP2 POP PUSH2 0x5224 DUP3 DUP6 PUSH2 0x4BCB JUMP JUMPDEST SWAP2 POP PUSH2 0x522F DUP3 PUSH2 0x50F2 JUMP JUMPDEST SWAP2 POP PUSH2 0x523B DUP3 DUP5 PUSH2 0x4BCB JUMP JUMPDEST SWAP2 POP DUP2 SWAP1 POP SWAP4 SWAP3 POP POP POP JUMP JUMPDEST PUSH1 0x0 PUSH1 0x20 DUP3 ADD SWAP1 POP PUSH2 0x525C PUSH1 0x0 DUP4 ADD DUP5 PUSH2 0x4A45 JUMP JUMPDEST SWAP3 SWAP2 POP POP JUMP JUMPDEST PUSH1 0x0 PUSH1 0x40 DUP3 ADD SWAP1 POP PUSH2 0x5277 PUSH1 0x0 DUP4 ADD DUP6 PUSH2 0x4A45 JUMP JUMPDEST PUSH2 0x5284 PUSH1 0x20 DUP4 ADD DUP5 PUSH2 0x4A45 JUMP JUMPDEST SWAP4 SWAP3 POP POP POP JUMP JUMPDEST PUSH1 0x0 PUSH1 0x60 DUP3 ADD SWAP1 POP PUSH2 0x52A0 PUSH1 0x0 DUP4 ADD DUP7 PUSH2 0x4A45 JUMP JUMPDEST PUSH2 0x52AD PUSH1 0x20 DUP4 ADD DUP6 PUSH2 0x4A45 JUMP JUMPDEST PUSH2 0x52BA PUSH1 0x40 DUP4 ADD DUP5 PUSH2 0x516A JUMP JUMPDEST SWAP5 SWAP4 POP POP POP POP JUMP JUMPDEST PUSH1 0x0 PUSH1 0x80 DUP3 ADD SWAP1 POP PUSH2 0x52D7 PUSH1 0x0 DUP4 ADD DUP8 PUSH2 0x4A45 JUMP JUMPDEST PUSH2 0x52E4 PUSH1 0x20 DUP4 ADD DUP7 PUSH2 0x4A45 JUMP JUMPDEST PUSH2 0x52F1 PUSH1 0x40 DUP4 ADD DUP6 PUSH2 0x516A JUMP JUMPDEST DUP2 DUP2 SUB PUSH1 0x60 DUP4 ADD MSTORE PUSH2 0x5303 DUP2 DUP5 PUSH2 0x4B2C JUMP JUMPDEST SWAP1 POP SWAP6 SWAP5 POP POP POP POP POP JUMP JUMPDEST PUSH1 0x0 PUSH1 0x40 DUP3 ADD SWAP1 POP PUSH2 0x5323 PUSH1 0x0 DUP4 ADD DUP6 PUSH2 0x4A45 JUMP JUMPDEST DUP2 DUP2 SUB PUSH1 0x20 DUP4 ADD MSTORE PUSH2 0x5335 DUP2 DUP5 PUSH2 0x4AB0 JUMP JUMPDEST SWAP1 POP SWAP4 SWAP3 POP POP POP JUMP JUMPDEST PUSH1 0x0 PUSH1 0x60 DUP3 ADD SWAP1 POP PUSH2 0x5353 PUSH1 0x0 DUP4 ADD DUP7 PUSH2 0x4A45 JUMP JUMPDEST PUSH2 0x5360 PUSH1 0x20 DUP4 ADD DUP6 PUSH2 0x516A JUMP JUMPDEST PUSH2 0x536D PUSH1 0x40 DUP4 ADD DUP5 PUSH2 0x4B83 JUMP JUMPDEST SWAP5 SWAP4 POP POP POP POP JUMP JUMPDEST PUSH1 0x0 PUSH1 0x20 DUP3 ADD SWAP1 POP DUP2 DUP2 SUB PUSH1 0x0 DUP4 ADD MSTORE PUSH2 0x5390 DUP2 DUP5 DUP7 PUSH2 0x4A54 JUMP JUMPDEST SWAP1 POP SWAP4 SWAP3 POP POP POP JUMP JUMPDEST PUSH1 0x0 PUSH1 0x20 DUP3 ADD SWAP1 POP DUP2 DUP2 SUB PUSH1 0x0 DUP4 ADD MSTORE PUSH2 0x53B3 DUP2 DUP5 PUSH2 0x4AB0 JUMP JUMPDEST SWAP1 POP SWAP3 SWAP2 POP POP JUMP JUMPDEST PUSH1 0x0 PUSH1 0x20 DUP3 ADD SWAP1 POP PUSH2 0x53D0 PUSH1 0x0 DUP4 ADD DUP5 PUSH2 0x4B0E JUMP JUMPDEST SWAP3 SWAP2 POP POP JUMP JUMPDEST PUSH1 0x0 PUSH1 0x20 DUP3 ADD SWAP1 POP PUSH2 0x53EB PUSH1 0x0 DUP4 ADD DUP5 PUSH2 0x4B1D JUMP JUMPDEST SWAP3 SWAP2 POP POP JUMP JUMPDEST PUSH1 0x0 PUSH1 0x20 DUP3 ADD SWAP1 POP PUSH2 0x5406 PUSH1 0x0 DUP4 ADD DUP5 PUSH2 0x4B65 JUMP JUMPDEST SWAP3 SWAP2 POP POP JUMP JUMPDEST PUSH1 0x0 PUSH1 0x20 DUP3 ADD SWAP1 POP PUSH2 0x5421 PUSH1 0x0 DUP4 ADD DUP5 PUSH2 0x4B74 JUMP JUMPDEST SWAP3 SWAP2 POP POP JUMP JUMPDEST PUSH1 0x0 PUSH1 0x20 DUP3 ADD SWAP1 POP DUP2 DUP2 SUB PUSH1 0x0 DUP4 ADD MSTORE PUSH2 0x5441 DUP2 DUP5 PUSH2 0x4B92 JUMP JUMPDEST SWAP1 POP SWAP3 SWAP2 POP POP JUMP JUMPDEST PUSH1 0x0 PUSH1 0x20 DUP3 ADD SWAP1 POP DUP2 DUP2 SUB PUSH1 0x0 DUP4 ADD MSTORE PUSH2 0x5463 DUP2 DUP5 PUSH2 0x4BFC JUMP JUMPDEST SWAP1 POP SWAP3 SWAP2 POP POP JUMP JUMPDEST PUSH1 0x0 PUSH1 0x20 DUP3 ADD SWAP1 POP DUP2 DUP2 SUB PUSH1 0x0 DUP4 ADD MSTORE PUSH2 0x5484 DUP2 PUSH2 0x4CFB JUMP JUMPDEST SWAP1 POP SWAP2 SWAP1 POP JUMP JUMPDEST PUSH1 0x0 PUSH1 0x20 DUP3 ADD SWAP1 POP DUP2 DUP2 SUB PUSH1 0x0 DUP4 ADD MSTORE PUSH2 0x54A4 DUP2 PUSH2 0x4D1E JUMP JUMPDEST SWAP1 POP SWAP2 SWAP1 POP JUMP JUMPDEST PUSH1 0x0 PUSH1 0x20 DUP3 ADD SWAP1 POP DUP2 DUP2 SUB PUSH1 0x0 DUP4 ADD MSTORE PUSH2 0x54C4 DUP2 PUSH2 0x4D41 JUMP JUMPDEST SWAP1 POP SWAP2 SWAP1 POP JUMP JUMPDEST PUSH1 0x0 PUSH1 0x20 DUP3 ADD SWAP1 POP DUP2 DUP2 SUB PUSH1 0x0 DUP4 ADD MSTORE PUSH2 0x54E4 DUP2 PUSH2 0x4D64 JUMP JUMPDEST SWAP1 POP SWAP2 SWAP1 POP JUMP JUMPDEST PUSH1 0x0 PUSH1 0x20 DUP3 ADD SWAP1 POP DUP2 DUP2 SUB PUSH1 0x0 DUP4 ADD MSTORE PUSH2 0x5504 DUP2 PUSH2 0x4D87 JUMP JUMPDEST SWAP1 POP SWAP2 SWAP1 POP JUMP JUMPDEST PUSH1 0x0 PUSH1 0x20 DUP3 ADD SWAP1 POP DUP2 DUP2 SUB PUSH1 0x0 DUP4 ADD MSTORE PUSH2 0x5524 DUP2 PUSH2 0x4DAA JUMP JUMPDEST SWAP1 POP SWAP2 SWAP1 POP JUMP JUMPDEST PUSH1 0x0 PUSH1 0x20 DUP3 ADD SWAP1 POP DUP2 DUP2 SUB PUSH1 0x0 DUP4 ADD MSTORE PUSH2 0x5544 DUP2 PUSH2 0x4DCD JUMP JUMPDEST SWAP1 POP SWAP2 SWAP1 POP JUMP JUMPDEST PUSH1 0x0 PUSH1 0x20 DUP3 ADD SWAP1 POP DUP2 DUP2 SUB PUSH1 0x0 DUP4 ADD MSTORE PUSH2 0x5564 DUP2 PUSH2 0x4DF0 JUMP JUMPDEST SWAP1 POP SWAP2 SWAP1 POP JUMP JUMPDEST PUSH1 0x0 PUSH1 0x20 DUP3 ADD SWAP1 POP DUP2 DUP2 SUB PUSH1 0x0 DUP4 ADD MSTORE PUSH2 0x5584 DUP2 PUSH2 0x4E13 JUMP JUMPDEST SWAP1 POP SWAP2 SWAP1 POP JUMP JUMPDEST PUSH1 0x0 PUSH1 0x20 DUP3 ADD SWAP1 POP DUP2 DUP2 SUB PUSH1 0x0 DUP4 ADD MSTORE PUSH2 0x55A4 DUP2 PUSH2 0x4E59 JUMP JUMPDEST SWAP1 POP SWAP2 SWAP1 POP JUMP JUMPDEST PUSH1 0x0 PUSH1 0x20 DUP3 ADD SWAP1 POP DUP2 DUP2 SUB PUSH1 0x0 DUP4 ADD MSTORE PUSH2 0x55C4 DUP2 PUSH2 0x4E7C JUMP JUMPDEST SWAP1 POP SWAP2 SWAP1 POP JUMP JUMPDEST PUSH1 0x0 PUSH1 0x20 DUP3 ADD SWAP1 POP DUP2 DUP2 SUB PUSH1 0x0 DUP4 ADD MSTORE PUSH2 0x55E4 DUP2 PUSH2 0x4E9F JUMP JUMPDEST SWAP1 POP SWAP2 SWAP1 POP JUMP JUMPDEST PUSH1 0x0 PUSH1 0x20 DUP3 ADD SWAP1 POP DUP2 DUP2 SUB PUSH1 0x0 DUP4 ADD MSTORE PUSH2 0x5604 DUP2 PUSH2 0x4EC2 JUMP JUMPDEST SWAP1 POP SWAP2 SWAP1 POP JUMP JUMPDEST PUSH1 0x0 PUSH1 0x20 DUP3 ADD SWAP1 POP DUP2 DUP2 SUB PUSH1 0x0 DUP4 ADD MSTORE PUSH2 0x5624 DUP2 PUSH2 0x4F08 JUMP JUMPDEST SWAP1 POP SWAP2 SWAP1 POP JUMP JUMPDEST PUSH1 0x0 PUSH1 0x20 DUP3 ADD SWAP1 POP DUP2 DUP2 SUB PUSH1 0x0 DUP4 ADD MSTORE PUSH2 0x5644 DUP2 PUSH2 0x4F2B JUMP JUMPDEST SWAP1 POP SWAP2 SWAP1 POP JUMP JUMPDEST PUSH1 0x0 PUSH1 0x20 DUP3 ADD SWAP1 POP DUP2 DUP2 SUB PUSH1 0x0 DUP4 ADD MSTORE PUSH2 0x5664 DUP2 PUSH2 0x4F4E JUMP JUMPDEST SWAP1 POP SWAP2 SWAP1 POP JUMP JUMPDEST PUSH1 0x0 PUSH1 0x20 DUP3 ADD SWAP1 POP DUP2 DUP2 SUB PUSH1 0x0 DUP4 ADD MSTORE PUSH2 0x5684 DUP2 PUSH2 0x4F71 JUMP JUMPDEST SWAP1 POP SWAP2 SWAP1 POP JUMP JUMPDEST PUSH1 0x0 PUSH1 0x20 DUP3 ADD SWAP1 POP DUP2 DUP2 SUB PUSH1 0x0 DUP4 ADD MSTORE PUSH2 0x56A4 DUP2 PUSH2 0x4F94 JUMP JUMPDEST SWAP1 POP SWAP2 SWAP1 POP JUMP JUMPDEST PUSH1 0x0 PUSH1 0x20 DUP3 ADD SWAP1 POP DUP2 DUP2 SUB PUSH1 0x0 DUP4 ADD MSTORE PUSH2 0x56C4 DUP2 PUSH2 0x4FB7 JUMP JUMPDEST SWAP1 POP SWAP2 SWAP1 POP JUMP JUMPDEST PUSH1 0x0 PUSH1 0x20 DUP3 ADD SWAP1 POP DUP2 DUP2 SUB PUSH1 0x0 DUP4 ADD MSTORE PUSH2 0x56E4 DUP2 PUSH2 0x4FDA JUMP JUMPDEST SWAP1 POP SWAP2 SWAP1 POP JUMP JUMPDEST PUSH1 0x0 PUSH1 0x20 DUP3 ADD SWAP1 POP DUP2 DUP2 SUB PUSH1 0x0 DUP4 ADD MSTORE PUSH2 0x5704 DUP2 PUSH2 0x4FFD JUMP JUMPDEST SWAP1 POP SWAP2 SWAP1 POP JUMP JUMPDEST PUSH1 0x0 PUSH1 0x20 DUP3 ADD SWAP1 POP DUP2 DUP2 SUB PUSH1 0x0 DUP4 ADD MSTORE PUSH2 0x5724 DUP2 PUSH2 0x5020 JUMP JUMPDEST SWAP1 POP SWAP2 SWAP1 POP JUMP JUMPDEST PUSH1 0x0 PUSH1 0x20 DUP3 ADD SWAP1 POP DUP2 DUP2 SUB PUSH1 0x0 DUP4 ADD MSTORE PUSH2 0x5744 DUP2 PUSH2 0x5043 JUMP JUMPDEST SWAP1 POP SWAP2 SWAP1 POP JUMP JUMPDEST PUSH1 0x0 PUSH1 0x20 DUP3 ADD SWAP1 POP DUP2 DUP2 SUB PUSH1 0x0 DUP4 ADD MSTORE PUSH2 0x5764 DUP2 PUSH2 0x5066 JUMP JUMPDEST SWAP1 POP SWAP2 SWAP1 POP JUMP JUMPDEST PUSH1 0x0 PUSH1 0x20 DUP3 ADD SWAP1 POP DUP2 DUP2 SUB PUSH1 0x0 DUP4 ADD MSTORE PUSH2 0x5784 DUP2 PUSH2 0x5089 JUMP JUMPDEST SWAP1 POP SWAP2 SWAP1 POP JUMP JUMPDEST PUSH1 0x0 PUSH1 0x20 DUP3 ADD SWAP1 POP DUP2 DUP2 SUB PUSH1 0x0 DUP4 ADD MSTORE PUSH2 0x57A4 DUP2 PUSH2 0x50CF JUMP JUMPDEST SWAP1 POP SWAP2 SWAP1 POP JUMP JUMPDEST PUSH1 0x0 PUSH1 0x20 DUP3 ADD SWAP1 POP DUP2 DUP2 SUB PUSH1 0x0 DUP4 ADD MSTORE PUSH2 0x57C4 DUP2 PUSH2 0x5115 JUMP JUMPDEST SWAP1 POP SWAP2 SWAP1 POP JUMP JUMPDEST PUSH1 0x0 PUSH1 0x20 DUP3 ADD SWAP1 POP DUP2 DUP2 SUB PUSH1 0x0 DUP4 ADD MSTORE PUSH2 0x57E4 DUP2 PUSH2 0x5138 JUMP JUMPDEST SWAP1 POP SWAP2 SWAP1 POP JUMP JUMPDEST PUSH1 0x0 PUSH1 0x20 DUP3 ADD SWAP1 POP PUSH2 0x5800 PUSH1 0x0 DUP4 ADD DUP5 PUSH2 0x516A JUMP JUMPDEST SWAP3 SWAP2 POP POP JUMP JUMPDEST PUSH1 0x0 PUSH2 0x5810 PUSH2 0x5821 JUMP JUMPDEST SWAP1 POP PUSH2 0x581C DUP3 DUP3 PUSH2 0x5C01 JUMP JUMPDEST SWAP2 SWAP1 POP JUMP JUMPDEST PUSH1 0x0 PUSH1 0x40 MLOAD SWAP1 POP SWAP1 JUMP JUMPDEST PUSH1 0x0 PUSH8 0xFFFFFFFFFFFFFFFF DUP3 GT ISZERO PUSH2 0x5846 JUMPI PUSH2 0x5845 PUSH2 0x5D72 JUMP JUMPDEST JUMPDEST PUSH1 0x20 DUP3 MUL SWAP1 POP PUSH1 0x20 DUP2 ADD SWAP1 POP SWAP2 SWAP1 POP JUMP JUMPDEST PUSH1 0x0 PUSH8 0xFFFFFFFFFFFFFFFF DUP3 GT ISZERO PUSH2 0x5872 JUMPI PUSH2 0x5871 PUSH2 0x5D72 JUMP JUMPDEST JUMPDEST PUSH1 0x20 DUP3 MUL SWAP1 POP PUSH1 0x20 DUP2 ADD SWAP1 POP SWAP2 SWAP1 POP JUMP JUMPDEST PUSH1 0x0 PUSH8 0xFFFFFFFFFFFFFFFF DUP3 GT ISZERO PUSH2 0x589E JUMPI PUSH2 0x589D PUSH2 0x5D72 JUMP JUMPDEST JUMPDEST PUSH2 0x58A7 DUP3 PUSH2 0x5DC4 JUMP JUMPDEST SWAP1 POP PUSH1 0x20 DUP2 ADD SWAP1 POP SWAP2 SWAP1 POP JUMP JUMPDEST PUSH1 0x0 PUSH8 0xFFFFFFFFFFFFFFFF DUP3 GT ISZERO PUSH2 0x58CF JUMPI PUSH2 0x58CE PUSH2 0x5D72 JUMP JUMPDEST JUMPDEST PUSH2 0x58D8 DUP3 PUSH2 0x5DC4 JUMP JUMPDEST SWAP1 POP PUSH1 0x20 DUP2 ADD SWAP1 POP SWAP2 SWAP1 POP JUMP JUMPDEST PUSH1 0x0 DUP2 SWAP1 POP PUSH1 0x20 DUP3 ADD SWAP1 POP SWAP2 SWAP1 POP JUMP JUMPDEST PUSH1 0x0 DUP2 SWAP1 POP DUP2 PUSH1 0x0 MSTORE PUSH1 0x20 PUSH1 0x0 KECCAK256 SWAP1 POP SWAP2 SWAP1 POP JUMP JUMPDEST PUSH1 0x0 DUP2 MLOAD SWAP1 POP SWAP2 SWAP1 POP JUMP JUMPDEST PUSH1 0x0 DUP2 MLOAD SWAP1 POP SWAP2 SWAP1 POP JUMP JUMPDEST PUSH1 0x0 DUP2 MLOAD SWAP1 POP SWAP2 SWAP1 POP JUMP JUMPDEST PUSH1 0x0 PUSH1 0x20 DUP3 ADD SWAP1 POP SWAP2 SWAP1 POP JUMP JUMPDEST PUSH1 0x0 DUP3 DUP3 MSTORE PUSH1 0x20 DUP3 ADD SWAP1 POP SWAP3 SWAP2 POP POP JUMP JUMPDEST PUSH1 0x0 DUP3 DUP3 MSTORE PUSH1 0x20 DUP3 ADD SWAP1 POP SWAP3 SWAP2 POP POP JUMP JUMPDEST PUSH1 0x0 DUP3 DUP3 MSTORE PUSH1 0x20 DUP3 ADD SWAP1 POP SWAP3 SWAP2 POP POP JUMP JUMPDEST PUSH1 0x0 DUP2 SWAP1 POP SWAP3 SWAP2 POP POP JUMP JUMPDEST PUSH1 0x0 PUSH2 0x5981 DUP3 PUSH2 0x5AFF JUMP JUMPDEST SWAP2 POP PUSH2 0x598C DUP4 PUSH2 0x5AFF JUMP JUMPDEST SWAP3 POP DUP3 PUSH32 0xFFFFFFFFFFFFFFFFFFFFFFFFFFFFFFFFFFFFFFFFFFFFFFFFFFFFFFFFFFFFFFFF SUB DUP3 GT ISZERO PUSH2 0x59C1 JUMPI PUSH2 0x59C0 PUSH2 0x5CB6 JUMP JUMPDEST JUMPDEST DUP3 DUP3 ADD SWAP1 POP SWAP3 SWAP2 POP POP JUMP JUMPDEST PUSH1 0x0 PUSH2 0x59D7 DUP3 PUSH2 0x5AFF JUMP JUMPDEST SWAP2 POP PUSH2 0x59E2 DUP4 PUSH2 0x5AFF JUMP JUMPDEST SWAP3 POP DUP3 PUSH2 0x59F2 JUMPI PUSH2 0x59F1 PUSH2 0x5CE5 JUMP JUMPDEST JUMPDEST DUP3 DUP3 DIV SWAP1 POP SWAP3 SWAP2 POP POP JUMP JUMPDEST PUSH1 0x0 PUSH2 0x5A08 DUP3 PUSH2 0x5AFF JUMP JUMPDEST SWAP2 POP PUSH2 0x5A13 DUP4 PUSH2 0x5AFF JUMP JUMPDEST SWAP3 POP DUP2 PUSH32 0xFFFFFFFFFFFFFFFFFFFFFFFFFFFFFFFFFFFFFFFFFFFFFFFFFFFFFFFFFFFFFFFF DIV DUP4 GT DUP3 ISZERO ISZERO AND ISZERO PUSH2 0x5A4C JUMPI PUSH2 0x5A4B PUSH2 0x5CB6 JUMP JUMPDEST JUMPDEST DUP3 DUP3 MUL SWAP1 POP SWAP3 SWAP2 POP POP JUMP JUMPDEST PUSH1 0x0 PUSH2 0x5A62 DUP3 PUSH2 0x5AFF JUMP JUMPDEST SWAP2 POP PUSH2 0x5A6D DUP4 PUSH2 0x5AFF JUMP JUMPDEST SWAP3 POP DUP3 DUP3 LT ISZERO PUSH2 0x5A80 JUMPI PUSH2 0x5A7F PUSH2 0x5CB6 JUMP JUMPDEST JUMPDEST DUP3 DUP3 SUB SWAP1 POP SWAP3 SWAP2 POP POP JUMP JUMPDEST PUSH1 0x0 PUSH2 0x5A96 DUP3 PUSH2 0x5ADF JUMP JUMPDEST SWAP1 POP SWAP2 SWAP1 POP JUMP JUMPDEST PUSH1 0x0 DUP2 ISZERO ISZERO SWAP1 POP SWAP2 SWAP1 POP JUMP JUMPDEST PUSH1 0x0 DUP2 SWAP1 POP SWAP2 SWAP1 POP JUMP JUMPDEST PUSH1 0x0 PUSH32 0xFFFFFFFF00000000000000000000000000000000000000000000000000000000 DUP3 AND SWAP1 POP SWAP2 SWAP1 POP JUMP JUMPDEST PUSH1 0x0 PUSH20 0xFFFFFFFFFFFFFFFFFFFFFFFFFFFFFFFFFFFFFFFF DUP3 AND SWAP1 POP SWAP2 SWAP1 POP JUMP JUMPDEST PUSH1 0x0 DUP2 SWAP1 POP SWAP2 SWAP1 POP JUMP JUMPDEST PUSH1 0x0 PUSH2 0x5B14 DUP3 PUSH2 0x5B3F JUMP JUMPDEST SWAP1 POP SWAP2 SWAP1 POP JUMP JUMPDEST PUSH1 0x0 PUSH2 0x5B26 DUP3 PUSH2 0x5B3F JUMP JUMPDEST SWAP1 POP SWAP2 SWAP1 POP JUMP JUMPDEST PUSH1 0x0 PUSH2 0x5B38 DUP3 PUSH2 0x5AFF JUMP JUMPDEST SWAP1 POP SWAP2 SWAP1 POP JUMP JUMPDEST PUSH1 0x0 PUSH2 0x5B4A DUP3 PUSH2 0x5B51 JUMP JUMPDEST SWAP1 POP SWAP2 SWAP1 POP JUMP JUMPDEST PUSH1 0x0 PUSH2 0x5B5C DUP3 PUSH2 0x5ADF JUMP JUMPDEST SWAP1 POP SWAP2 SWAP1 POP JUMP JUMPDEST DUP3 DUP2 DUP4 CALLDATACOPY PUSH1 0x0 DUP4 DUP4 ADD MSTORE POP POP POP JUMP JUMPDEST PUSH1 0x0 JUMPDEST DUP4 DUP2 LT ISZERO PUSH2 0x5B90 JUMPI DUP1 DUP3 ADD MLOAD DUP2 DUP5 ADD MSTORE PUSH1 0x20 DUP2 ADD SWAP1 POP PUSH2 0x5B75 JUMP JUMPDEST DUP4 DUP2 GT ISZERO PUSH2 0x5B9F JUMPI PUSH1 0x0 DUP5 DUP5 ADD MSTORE JUMPDEST POP POP POP POP JUMP JUMPDEST PUSH1 0x0 PUSH2 0x5BB0 DUP3 PUSH2 0x5AFF JUMP JUMPDEST SWAP2 POP PUSH1 0x0 DUP3 EQ ISZERO PUSH2 0x5BC4 JUMPI PUSH2 0x5BC3 PUSH2 0x5CB6 JUMP JUMPDEST JUMPDEST PUSH1 0x1 DUP3 SUB SWAP1 POP SWAP2 SWAP1 POP JUMP JUMPDEST PUSH1 0x0 PUSH1 0x2 DUP3 DIV SWAP1 POP PUSH1 0x1 DUP3 AND DUP1 PUSH2 0x5BE7 JUMPI PUSH1 0x7F DUP3 AND SWAP2 POP JUMPDEST PUSH1 0x20 DUP3 LT DUP2 EQ ISZERO PUSH2 0x5BFB JUMPI PUSH2 0x5BFA PUSH2 0x5D14 JUMP JUMPDEST JUMPDEST POP SWAP2 SWAP1 POP JUMP JUMPDEST PUSH2 0x5C0A DUP3 PUSH2 0x5DC4 JUMP JUMPDEST DUP2 ADD DUP2 DUP2 LT PUSH8 0xFFFFFFFFFFFFFFFF DUP3 GT OR ISZERO PUSH2 0x5C29 JUMPI PUSH2 0x5C28 PUSH2 0x5D72 JUMP JUMPDEST JUMPDEST DUP1 PUSH1 0x40 MSTORE POP POP POP JUMP JUMPDEST PUSH1 0x0 PUSH2 0x5C3D DUP3 PUSH2 0x5AFF JUMP JUMPDEST SWAP2 POP PUSH32 0xFFFFFFFFFFFFFFFFFFFFFFFFFFFFFFFFFFFFFFFFFFFFFFFFFFFFFFFFFFFFFFFF DUP3 EQ ISZERO PUSH2 0x5C70 JUMPI PUSH2 0x5C6F PUSH2 0x5CB6 JUMP JUMPDEST JUMPDEST PUSH1 0x1 DUP3 ADD SWAP1 POP SWAP2 SWAP1 POP JUMP JUMPDEST PUSH1 0x0 DUP2 SWAP1 POP SWAP2 SWAP1 POP JUMP JUMPDEST PUSH1 0x0 PUSH2 0x5C90 DUP3 PUSH2 0x5AFF JUMP JUMPDEST SWAP2 POP PUSH2 0x5C9B DUP4 PUSH2 0x5AFF JUMP JUMPDEST SWAP3 POP DUP3 PUSH2 0x5CAB JUMPI PUSH2 0x5CAA PUSH2 0x5CE5 JUMP JUMPDEST JUMPDEST DUP3 DUP3 MOD SWAP1 POP SWAP3 SWAP2 POP POP JUMP JUMPDEST PUSH32 0x4E487B7100000000000000000000000000000000000000000000000000000000 PUSH1 0x0 MSTORE PUSH1 0x11 PUSH1 0x4 MSTORE PUSH1 0x24 PUSH1 0x0 REVERT JUMPDEST PUSH32 0x4E487B7100000000000000000000000000000000000000000000000000000000 PUSH1 0x0 MSTORE PUSH1 0x12 PUSH1 0x4 MSTORE PUSH1 0x24 PUSH1 0x0 REVERT JUMPDEST PUSH32 0x4E487B7100000000000000000000000000000000000000000000000000000000 PUSH1 0x0 MSTORE PUSH1 0x22 PUSH1 0x4 MSTORE PUSH1 0x24 PUSH1 0x0 REVERT JUMPDEST PUSH32 0x4E487B7100000000000000000000000000000000000000000000000000000000 PUSH1 0x0 MSTORE PUSH1 0x32 PUSH1 0x4 MSTORE PUSH1 0x24 PUSH1 0x0 REVERT JUMPDEST PUSH32 0x4E487B7100000000000000000000000000000000000000000000000000000000 PUSH1 0x0 MSTORE PUSH1 0x41 PUSH1 0x4 MSTORE PUSH1 0x24 PUSH1 0x0 REVERT JUMPDEST PUSH1 0x0 DUP1 REVERT JUMPDEST PUSH1 0x0 DUP1 REVERT JUMPDEST PUSH1 0x0 DUP1 REVERT JUMPDEST PUSH1 0x0 DUP1 REVERT JUMPDEST PUSH1 0x0 DUP1 REVERT JUMPDEST PUSH1 0x0 DUP1 REVERT JUMPDEST PUSH1 0x0 DUP1 REVERT JUMPDEST PUSH1 0x0 PUSH1 0x1F NOT PUSH1 0x1F DUP4 ADD AND SWAP1 POP SWAP2 SWAP1 POP JUMP JUMPDEST PUSH32 0x537472696E67733A20686578206C656E67746820696E73756666696369656E74 PUSH1 0x0 DUP3 ADD MSTORE POP JUMP JUMPDEST PUSH32 0x4552433732313A207472616E7366657220746F206E6F6E204552433732315265 PUSH1 0x0 DUP3 ADD MSTORE PUSH32 0x63656976657220696D706C656D656E7465720000000000000000000000000000 PUSH1 0x20 DUP3 ADD MSTORE POP JUMP JUMPDEST PUSH32 0x4F776E61626C653A206E6577206F776E657220697320746865207A65726F2061 PUSH1 0x0 DUP3 ADD MSTORE PUSH32 0x6464726573730000000000000000000000000000000000000000000000000000 PUSH1 0x20 DUP3 ADD MSTORE POP JUMP JUMPDEST PUSH32 0x4552433732313A207472616E736665722066726F6D20696E636F727265637420 PUSH1 0x0 DUP3 ADD MSTORE PUSH32 0x6F776E6572000000000000000000000000000000000000000000000000000000 PUSH1 0x20 DUP3 ADD MSTORE POP JUMP JUMPDEST PUSH32 0x4552433732313A20746F6B656E20616C7265616479206D696E74656400000000 PUSH1 0x0 DUP3 ADD MSTORE POP JUMP JUMPDEST PUSH32 0x576569726450756E6B733A204E6F7420656E6F75676820706F6C79676F6E2065 PUSH1 0x0 DUP3 ADD MSTORE PUSH32 0x7468000000000000000000000000000000000000000000000000000000000000 PUSH1 0x20 DUP3 ADD MSTORE POP JUMP JUMPDEST PUSH32 0x4552433732313A207472616E7366657220746F20746865207A65726F20616464 PUSH1 0x0 DUP3 ADD MSTORE PUSH32 0x7265737300000000000000000000000000000000000000000000000000000000 PUSH1 0x20 DUP3 ADD MSTORE POP JUMP JUMPDEST PUSH32 0x4552433732313A20617070726F766520746F2063616C6C657200000000000000 PUSH1 0x0 DUP3 ADD MSTORE POP JUMP JUMPDEST PUSH32 0x576569726450756E6B733A204E6F7420617070726F76656420666F7220627572 PUSH1 0x0 DUP3 ADD MSTORE PUSH32 0x6E00000000000000000000000000000000000000000000000000000000000000 PUSH1 0x20 DUP3 ADD MSTORE POP JUMP JUMPDEST PUSH32 0x576569726450756E6B733A20416C7265616479204D696E746564204944202300 PUSH1 0x0 DUP3 ADD MSTORE POP JUMP JUMPDEST PUSH32 0x4552433732313A206F70657261746F7220717565727920666F72206E6F6E6578 PUSH1 0x0 DUP3 ADD MSTORE PUSH32 0x697374656E7420746F6B656E0000000000000000000000000000000000000000 PUSH1 0x20 DUP3 ADD MSTORE POP JUMP JUMPDEST PUSH32 0x576569726450756E6B733A2045786365656473206D617820737570706C790000 PUSH1 0x0 DUP3 ADD MSTORE POP JUMP JUMPDEST PUSH32 0x576569726450756E6B733A20546F6B656E20657869737473206F6E20726F6F74 PUSH1 0x0 DUP3 ADD MSTORE PUSH32 0x20636861696E0000000000000000000000000000000000000000000000000000 PUSH1 0x20 DUP3 ADD MSTORE POP JUMP JUMPDEST PUSH32 0x4552433732313A20617070726F76652063616C6C6572206973206E6F74206F77 PUSH1 0x0 DUP3 ADD MSTORE PUSH32 0x6E6572206E6F7220617070726F76656420666F7220616C6C0000000000000000 PUSH1 0x20 DUP3 ADD MSTORE POP JUMP JUMPDEST PUSH32 0x576569726450756E6B733A20496E76616C6964206F776E6572206F6620000000 PUSH1 0x0 DUP3 ADD MSTORE POP JUMP JUMPDEST PUSH32 0x576569726450756E6B733A204D6967726174696F6E2069732063757272656E74 PUSH1 0x0 DUP3 ADD MSTORE PUSH32 0x6C7920636C6F7365640000000000000000000000000000000000000000000000 PUSH1 0x20 DUP3 ADD MSTORE POP JUMP JUMPDEST PUSH32 0x4552433732313A2062616C616E636520717565727920666F7220746865207A65 PUSH1 0x0 DUP3 ADD MSTORE PUSH32 0x726F206164647265737300000000000000000000000000000000000000000000 PUSH1 0x20 DUP3 ADD MSTORE POP JUMP JUMPDEST PUSH32 0x4552433732313A206F776E657220717565727920666F72206E6F6E6578697374 PUSH1 0x0 DUP3 ADD MSTORE PUSH32 0x656E7420746F6B656E0000000000000000000000000000000000000000000000 PUSH1 0x20 DUP3 ADD MSTORE POP JUMP JUMPDEST PUSH32 0x4552433732313A206D696E7420746F20746865207A65726F2061646472657373 PUSH1 0x0 DUP3 ADD MSTORE POP JUMP JUMPDEST PUSH32 0x4552433732313A20617070726F76656420717565727920666F72206E6F6E6578 PUSH1 0x0 DUP3 ADD MSTORE PUSH32 0x697374656E7420746F6B656E0000000000000000000000000000000000000000 PUSH1 0x20 DUP3 ADD MSTORE POP JUMP JUMPDEST PUSH32 0x576569726450756E6B733A2055524920717565727920666F72206E6F6E657869 PUSH1 0x0 DUP3 ADD MSTORE PUSH32 0x7374656E7420746F6B656E000000000000000000000000000000000000000000 PUSH1 0x20 DUP3 ADD MSTORE POP JUMP JUMPDEST PUSH32 0x4F776E61626C653A2063616C6C6572206973206E6F7420746865206F776E6572 PUSH1 0x0 DUP3 ADD MSTORE POP JUMP JUMPDEST PUSH32 0x576569726450756E6B733A204E6F7420656E6F75676820676173000000000000 PUSH1 0x0 DUP3 ADD MSTORE POP JUMP JUMPDEST PUSH32 0x4552433732313A20617070726F76616C20746F2063757272656E74206F776E65 PUSH1 0x0 DUP3 ADD MSTORE PUSH32 0x7200000000000000000000000000000000000000000000000000000000000000 PUSH1 0x20 DUP3 ADD MSTORE POP JUMP JUMPDEST PUSH32 0x576569726450756E6B733A204D6967726174696F6E2069732063757272656E74 PUSH1 0x0 DUP3 ADD MSTORE PUSH32 0x6C79206F70656E00000000000000000000000000000000000000000000000000 PUSH1 0x20 DUP3 ADD MSTORE POP JUMP JUMPDEST PUSH32 0x4552433732313A207472616E736665722063616C6C6572206973206E6F74206F PUSH1 0x0 DUP3 ADD MSTORE PUSH32 0x776E6572206E6F7220617070726F766564000000000000000000000000000000 PUSH1 0x20 DUP3 ADD MSTORE POP JUMP JUMPDEST PUSH32 0x576569726450756E6B733A2045786365656473206C696D697400000000000000 PUSH1 0x0 DUP3 ADD MSTORE POP JUMP JUMPDEST PUSH32 0x416363657373436F6E74726F6C3A206163636F756E7420000000000000000000 PUSH1 0x0 DUP3 ADD MSTORE POP JUMP JUMPDEST PUSH32 0x576569726450756E6B733A2049447320616E64204F53494473206D7573742062 PUSH1 0x0 DUP3 ADD MSTORE PUSH32 0x65207468652073616D65206C656E677468000000000000000000000000000000 PUSH1 0x20 DUP3 ADD MSTORE POP JUMP JUMPDEST PUSH32 0x206973206D697373696E6720726F6C6520000000000000000000000000000000 PUSH1 0x0 DUP3 ADD MSTORE POP JUMP JUMPDEST PUSH32 0x416363657373436F6E74726F6C3A2063616E206F6E6C792072656E6F756E6365 PUSH1 0x0 DUP3 ADD MSTORE PUSH32 0x20726F6C657320666F722073656C660000000000000000000000000000000000 PUSH1 0x20 DUP3 ADD MSTORE POP JUMP JUMPDEST PUSH32 0x576569726450756E6B733A2045786365656473206261746368206C696D697400 PUSH1 0x0 DUP3 ADD MSTORE POP JUMP JUMPDEST PUSH2 0x65D0 DUP2 PUSH2 0x5A8B JUMP JUMPDEST DUP2 EQ PUSH2 0x65DB JUMPI PUSH1 0x0 DUP1 REVERT JUMPDEST POP JUMP JUMPDEST PUSH2 0x65E7 DUP2 PUSH2 0x5A9D JUMP JUMPDEST DUP2 EQ PUSH2 0x65F2 JUMPI PUSH1 0x0 DUP1 REVERT JUMPDEST POP JUMP JUMPDEST PUSH2 0x65FE DUP2 PUSH2 0x5AA9 JUMP JUMPDEST DUP2 EQ PUSH2 0x6609 JUMPI PUSH1 0x0 DUP1 REVERT JUMPDEST POP JUMP JUMPDEST PUSH2 0x6615 DUP2 PUSH2 0x5AB3 JUMP JUMPDEST DUP2 EQ PUSH2 0x6620 JUMPI PUSH1 0x0 DUP1 REVERT JUMPDEST POP JUMP JUMPDEST PUSH2 0x662C DUP2 PUSH2 0x5AFF JUMP JUMPDEST DUP2 EQ PUSH2 0x6637 JUMPI PUSH1 0x0 DUP1 REVERT JUMPDEST POP JUMP INVALID LOG2 PUSH5 0x6970667358 0x22 SLT KECCAK256 PUSH28 0x340A5135D68D750BF49549D7BE5E94F1ADC683924DBE539B8FC0641B DIV 0xB2 0xA7 PUSH5 0x736F6C6343 STOP ADDMOD SMOD STOP CALLER "
		},
		"gasEstimates": {
			"creation": {
				"codeDepositCost": "5244800",
				"executionCost": "infinite",
				"totalCost": "infinite"
			},
			"external": {
				"BATCH_LIMIT()": "441",
				"DEFAULT_ADMIN_ROLE()": "403",
				"DEPOSITOR_ROLE()": "441",
				"ORACLE()": "375",
				"WETH()": "2711",
				"addWeirdMapping(uint256[],uint256[])": "infinite",
				"allowBridging()": "2611",
				"allowMigration()": "2561",
				"allowPolyBridging()": "2610",
				"approve(address,uint256)": "infinite",
				"balanceOf(address)": "2990",
				"baseExtension()": "infinite",
				"baseURI()": "infinite",
				"batchBridge(uint256[],uint256)": "infinite",
				"burnAndMint(address,uint256[])": "infinite",
				"deposit(address,bytes)": "infinite",
				"depositBridge(address,uint256[])": "infinite",
				"gasETH()": "2495",
				"getApproved(uint256)": "5295",
				"getRoleAdmin(bytes32)": "infinite",
				"grantRole(bytes32,address)": "infinite",
				"hasRole(bytes32,address)": "3230",
				"isApprovedForAll(address,address)": "infinite",
				"maxSupply()": "2496",
				"name()": "infinite",
				"openseaContract()": "2690",
				"oracleAddress()": "2603",
				"overrideMint(address[],uint256[])": "infinite",
				"owner()": "2568",
				"ownerOf(uint256)": "3044",
				"renounceOwnership()": "30507",
				"renounceRole(bytes32,address)": "infinite",
				"revokeRole(bytes32,address)": "infinite",
				"safeTransferFrom(address,address,uint256)": "infinite",
				"safeTransferFrom(address,address,uint256,bytes)": "infinite",
				"setAllowBridging(bool)": "27101",
				"setAllowMigration(bool)": "27075",
				"setAllowPolyBridging(bool)": "27036",
				"setApprovalForAll(address,bool)": "infinite",
				"setBaseURI(string)": "infinite",
				"setGasEth(uint256)": "infinite",
				"setOpenseaContract(address)": "27072",
				"setOracleAddress(address)": "27096",
				"supportsInterface(bytes4)": "952",
				"symbol()": "infinite",
				"tokenURI(uint256)": "infinite",
				"totalSupply()": "2498",
				"transferFrom(address,address,uint256)": "infinite",
				"transferOwnership(address)": "30811",
				"walletOfOwner(address)": "infinite",
				"weirdMapping(uint256)": "infinite",
				"withdrawBatch(uint256[])": "infinite",
				"withdrawnTokens(uint256)": "2909"
			},
			"internal": {
				"_baseURI()": "infinite",
				"addSingleWeirdMapping(uint256,uint256)": "22228"
			}
		},
		"methodIdentifiers": {
			"BATCH_LIMIT()": "9559c0bd",
			"DEFAULT_ADMIN_ROLE()": "a217fddf",
			"DEPOSITOR_ROLE()": "a3b0b5a3",
			"ORACLE()": "38013f02",
			"WETH()": "ad5c4648",
			"addWeirdMapping(uint256[],uint256[])": "520e61e9",
			"allowBridging()": "5283da09",
			"allowMigration()": "35d69059",
			"allowPolyBridging()": "e4fe1a59",
			"approve(address,uint256)": "095ea7b3",
			"balanceOf(address)": "70a08231",
			"baseExtension()": "c6682862",
			"baseURI()": "6c0360eb",
			"batchBridge(uint256[],uint256)": "35febec0",
			"burnAndMint(address,uint256[])": "c916bbe5",
			"deposit(address,bytes)": "cf2c52cb",
			"depositBridge(address,uint256[])": "06d9ff5d",
			"gasETH()": "f0756c56",
			"getApproved(uint256)": "081812fc",
			"getRoleAdmin(bytes32)": "248a9ca3",
			"grantRole(bytes32,address)": "2f2ff15d",
			"hasRole(bytes32,address)": "91d14854",
			"isApprovedForAll(address,address)": "e985e9c5",
			"maxSupply()": "d5abeb01",
			"name()": "06fdde03",
			"openseaContract()": "c690023e",
			"oracleAddress()": "a89ae4ba",
			"overrideMint(address[],uint256[])": "4431abf2",
			"owner()": "8da5cb5b",
			"ownerOf(uint256)": "6352211e",
			"renounceOwnership()": "715018a6",
			"renounceRole(bytes32,address)": "36568abe",
			"revokeRole(bytes32,address)": "d547741f",
			"safeTransferFrom(address,address,uint256)": "42842e0e",
			"safeTransferFrom(address,address,uint256,bytes)": "b88d4fde",
			"setAllowBridging(bool)": "f5ad7ca9",
			"setAllowMigration(bool)": "50c88ae0",
			"setAllowPolyBridging(bool)": "a7c99195",
			"setApprovalForAll(address,bool)": "a22cb465",
			"setBaseURI(string)": "55f804b3",
			"setGasEth(uint256)": "d51e7317",
			"setOpenseaContract(address)": "f3850630",
			"setOracleAddress(address)": "4c69c00f",
			"supportsInterface(bytes4)": "01ffc9a7",
			"symbol()": "95d89b41",
			"tokenURI(uint256)": "c87b56dd",
			"totalSupply()": "18160ddd",
			"transferFrom(address,address,uint256)": "23b872dd",
			"transferOwnership(address)": "f2fde38b",
			"walletOfOwner(address)": "438b6300",
			"weirdMapping(uint256)": "918498ae",
			"withdrawBatch(uint256[])": "9c8d4156",
			"withdrawnTokens(uint256)": "07a974fc"
		}
	},
	"abi": [
		{
			"inputs": [
				{
					"internalType": "string",
					"name": "_initBaseURI",
					"type": "string"
				},
				{
					"internalType": "address",
					"name": "_openseaContract",
					"type": "address"
				},
				{
					"internalType": "address",
					"name": "childChainManager",
					"type": "address"
				},
				{
					"internalType": "address",
					"name": "_oracleAddress",
					"type": "address"
				}
			],
			"stateMutability": "nonpayable",
			"type": "constructor"
		},
		{
			"anonymous": false,
			"inputs": [
				{
					"indexed": true,
					"internalType": "address",
					"name": "owner",
					"type": "address"
				},
				{
					"indexed": true,
					"internalType": "address",
					"name": "approved",
					"type": "address"
				},
				{
					"indexed": true,
					"internalType": "uint256",
					"name": "tokenId",
					"type": "uint256"
				}
			],
			"name": "Approval",
			"type": "event"
		},
		{
			"anonymous": false,
			"inputs": [
				{
					"indexed": true,
					"internalType": "address",
					"name": "owner",
					"type": "address"
				},
				{
					"indexed": true,
					"internalType": "address",
					"name": "operator",
					"type": "address"
				},
				{
					"indexed": false,
					"internalType": "bool",
					"name": "approved",
					"type": "bool"
				}
			],
			"name": "ApprovalForAll",
			"type": "event"
		},
		{
			"anonymous": false,
			"inputs": [
				{
					"indexed": true,
					"internalType": "address",
					"name": "previousOwner",
					"type": "address"
				},
				{
					"indexed": true,
					"internalType": "address",
					"name": "newOwner",
					"type": "address"
				}
			],
			"name": "OwnershipTransferred",
			"type": "event"
		},
		{
			"anonymous": false,
			"inputs": [
				{
					"indexed": true,
					"internalType": "bytes32",
					"name": "role",
					"type": "bytes32"
				},
				{
					"indexed": true,
					"internalType": "bytes32",
					"name": "previousAdminRole",
					"type": "bytes32"
				},
				{
					"indexed": true,
					"internalType": "bytes32",
					"name": "newAdminRole",
					"type": "bytes32"
				}
			],
			"name": "RoleAdminChanged",
			"type": "event"
		},
		{
			"anonymous": false,
			"inputs": [
				{
					"indexed": true,
					"internalType": "bytes32",
					"name": "role",
					"type": "bytes32"
				},
				{
					"indexed": true,
					"internalType": "address",
					"name": "account",
					"type": "address"
				},
				{
					"indexed": true,
					"internalType": "address",
					"name": "sender",
					"type": "address"
				}
			],
			"name": "RoleGranted",
			"type": "event"
		},
		{
			"anonymous": false,
			"inputs": [
				{
					"indexed": true,
					"internalType": "bytes32",
					"name": "role",
					"type": "bytes32"
				},
				{
					"indexed": true,
					"internalType": "address",
					"name": "account",
					"type": "address"
				},
				{
					"indexed": true,
					"internalType": "address",
					"name": "sender",
					"type": "address"
				}
			],
			"name": "RoleRevoked",
			"type": "event"
		},
		{
			"anonymous": false,
			"inputs": [
				{
					"indexed": true,
					"internalType": "address",
					"name": "from",
					"type": "address"
				},
				{
					"indexed": true,
					"internalType": "address",
					"name": "to",
					"type": "address"
				},
				{
					"indexed": true,
					"internalType": "uint256",
					"name": "tokenId",
					"type": "uint256"
				}
			],
			"name": "Transfer",
			"type": "event"
		},
		{
			"anonymous": false,
			"inputs": [
				{
					"indexed": true,
					"internalType": "address",
					"name": "user",
					"type": "address"
				},
				{
					"indexed": false,
					"internalType": "uint256[]",
					"name": "tokenIds",
					"type": "uint256[]"
				}
			],
			"name": "WithdrawnBatch",
			"type": "event"
		},
		{
			"anonymous": false,
			"inputs": [
				{
					"indexed": false,
					"internalType": "address",
					"name": "user",
					"type": "address"
				},
				{
					"indexed": false,
					"internalType": "uint256[]",
					"name": "IDs",
					"type": "uint256[]"
				}
			],
			"name": "startBatchBridge",
			"type": "event"
		},
		{
			"inputs": [],
			"name": "BATCH_LIMIT",
			"outputs": [
				{
					"internalType": "uint256",
					"name": "",
					"type": "uint256"
				}
			],
			"stateMutability": "view",
			"type": "function"
		},
		{
			"inputs": [],
			"name": "DEFAULT_ADMIN_ROLE",
			"outputs": [
				{
					"internalType": "bytes32",
					"name": "",
					"type": "bytes32"
				}
			],
			"stateMutability": "view",
			"type": "function"
		},
		{
			"inputs": [],
			"name": "DEPOSITOR_ROLE",
			"outputs": [
				{
					"internalType": "bytes32",
					"name": "",
					"type": "bytes32"
				}
			],
			"stateMutability": "view",
			"type": "function"
		},
		{
			"inputs": [],
			"name": "ORACLE",
			"outputs": [
				{
					"internalType": "bytes32",
					"name": "",
					"type": "bytes32"
				}
			],
			"stateMutability": "view",
			"type": "function"
		},
		{
			"inputs": [],
			"name": "WETH",
			"outputs": [
				{
					"internalType": "contract ERC20",
					"name": "",
					"type": "address"
				}
			],
			"stateMutability": "view",
			"type": "function"
		},
		{
			"inputs": [
				{
					"internalType": "uint256[]",
					"name": "IDs",
					"type": "uint256[]"
				},
				{
					"internalType": "uint256[]",
					"name": "OSIDs",
					"type": "uint256[]"
				}
			],
			"name": "addWeirdMapping",
			"outputs": [
				{
					"internalType": "bool",
					"name": "success",
					"type": "bool"
				}
			],
			"stateMutability": "nonpayable",
			"type": "function"
		},
		{
			"inputs": [],
			"name": "allowBridging",
			"outputs": [
				{
					"internalType": "bool",
					"name": "",
					"type": "bool"
				}
			],
			"stateMutability": "view",
			"type": "function"
		},
		{
			"inputs": [],
			"name": "allowMigration",
			"outputs": [
				{
					"internalType": "bool",
					"name": "",
					"type": "bool"
				}
			],
			"stateMutability": "view",
			"type": "function"
		},
		{
			"inputs": [],
			"name": "allowPolyBridging",
			"outputs": [
				{
					"internalType": "bool",
					"name": "",
					"type": "bool"
				}
			],
			"stateMutability": "view",
			"type": "function"
		},
		{
			"inputs": [
				{
					"internalType": "address",
					"name": "to",
					"type": "address"
				},
				{
					"internalType": "uint256",
					"name": "tokenId",
					"type": "uint256"
				}
			],
			"name": "approve",
			"outputs": [],
			"stateMutability": "nonpayable",
			"type": "function"
		},
		{
			"inputs": [
				{
					"internalType": "address",
					"name": "owner",
					"type": "address"
				}
			],
			"name": "balanceOf",
			"outputs": [
				{
					"internalType": "uint256",
					"name": "",
					"type": "uint256"
				}
			],
			"stateMutability": "view",
			"type": "function"
		},
		{
			"inputs": [],
			"name": "baseExtension",
			"outputs": [
				{
					"internalType": "string",
					"name": "",
					"type": "string"
				}
			],
			"stateMutability": "view",
			"type": "function"
		},
		{
			"inputs": [],
			"name": "baseURI",
			"outputs": [
				{
					"internalType": "string",
					"name": "",
					"type": "string"
				}
			],
			"stateMutability": "view",
			"type": "function"
		},
		{
			"inputs": [
				{
					"internalType": "uint256[]",
					"name": "IDs",
					"type": "uint256[]"
				},
				{
					"internalType": "uint256",
					"name": "gas",
					"type": "uint256"
				}
			],
			"name": "batchBridge",
			"outputs": [],
			"stateMutability": "nonpayable",
			"type": "function"
		},
		{
			"inputs": [
				{
					"internalType": "address",
					"name": "_to",
					"type": "address"
				},
				{
					"internalType": "uint256[]",
					"name": "_IDs",
					"type": "uint256[]"
				}
			],
			"name": "burnAndMint",
			"outputs": [],
			"stateMutability": "nonpayable",
			"type": "function"
		},
		{
			"inputs": [
				{
					"internalType": "address",
					"name": "user",
					"type": "address"
				},
				{
					"internalType": "bytes",
					"name": "depositData",
					"type": "bytes"
				}
			],
			"name": "deposit",
			"outputs": [],
			"stateMutability": "nonpayable",
			"type": "function"
		},
		{
			"inputs": [
				{
					"internalType": "address",
					"name": "user",
					"type": "address"
				},
				{
					"internalType": "uint256[]",
					"name": "IDs",
					"type": "uint256[]"
				}
			],
			"name": "depositBridge",
			"outputs": [],
			"stateMutability": "nonpayable",
			"type": "function"
		},
		{
			"inputs": [],
			"name": "gasETH",
			"outputs": [
				{
					"internalType": "uint256",
					"name": "",
					"type": "uint256"
				}
			],
			"stateMutability": "view",
			"type": "function"
		},
		{
			"inputs": [
				{
					"internalType": "uint256",
					"name": "tokenId",
					"type": "uint256"
				}
			],
			"name": "getApproved",
			"outputs": [
				{
					"internalType": "address",
					"name": "",
					"type": "address"
				}
			],
			"stateMutability": "view",
			"type": "function"
		},
		{
			"inputs": [
				{
					"internalType": "bytes32",
					"name": "role",
					"type": "bytes32"
				}
			],
			"name": "getRoleAdmin",
			"outputs": [
				{
					"internalType": "bytes32",
					"name": "",
					"type": "bytes32"
				}
			],
			"stateMutability": "view",
			"type": "function"
		},
		{
			"inputs": [
				{
					"internalType": "bytes32",
					"name": "role",
					"type": "bytes32"
				},
				{
					"internalType": "address",
					"name": "account",
					"type": "address"
				}
			],
			"name": "grantRole",
			"outputs": [],
			"stateMutability": "nonpayable",
			"type": "function"
		},
		{
			"inputs": [
				{
					"internalType": "bytes32",
					"name": "role",
					"type": "bytes32"
				},
				{
					"internalType": "address",
					"name": "account",
					"type": "address"
				}
			],
			"name": "hasRole",
			"outputs": [
				{
					"internalType": "bool",
					"name": "",
					"type": "bool"
				}
			],
			"stateMutability": "view",
			"type": "function"
		},
		{
			"inputs": [
				{
					"internalType": "address",
					"name": "owner",
					"type": "address"
				},
				{
					"internalType": "address",
					"name": "operator",
					"type": "address"
				}
			],
			"name": "isApprovedForAll",
			"outputs": [
				{
					"internalType": "bool",
					"name": "",
					"type": "bool"
				}
			],
			"stateMutability": "view",
			"type": "function"
		},
		{
			"inputs": [],
			"name": "maxSupply",
			"outputs": [
				{
					"internalType": "uint256",
					"name": "",
					"type": "uint256"
				}
			],
			"stateMutability": "view",
			"type": "function"
		},
		{
			"inputs": [],
			"name": "name",
			"outputs": [
				{
					"internalType": "string",
					"name": "",
					"type": "string"
				}
			],
			"stateMutability": "view",
			"type": "function"
		},
		{
			"inputs": [],
			"name": "openseaContract",
			"outputs": [
				{
					"internalType": "contract ERC1155Tradable",
					"name": "",
					"type": "address"
				}
			],
			"stateMutability": "view",
			"type": "function"
		},
		{
			"inputs": [],
			"name": "oracleAddress",
			"outputs": [
				{
					"internalType": "address",
					"name": "",
					"type": "address"
				}
			],
			"stateMutability": "view",
			"type": "function"
		},
		{
			"inputs": [
				{
					"internalType": "address[]",
					"name": "_to",
					"type": "address[]"
				},
				{
					"internalType": "uint256[]",
					"name": "_IDs",
					"type": "uint256[]"
				}
			],
			"name": "overrideMint",
			"outputs": [],
			"stateMutability": "nonpayable",
			"type": "function"
		},
		{
			"inputs": [],
			"name": "owner",
			"outputs": [
				{
					"internalType": "address",
					"name": "",
					"type": "address"
				}
			],
			"stateMutability": "view",
			"type": "function"
		},
		{
			"inputs": [
				{
					"internalType": "uint256",
					"name": "tokenId",
					"type": "uint256"
				}
			],
			"name": "ownerOf",
			"outputs": [
				{
					"internalType": "address",
					"name": "",
					"type": "address"
				}
			],
			"stateMutability": "view",
			"type": "function"
		},
		{
			"inputs": [],
			"name": "renounceOwnership",
			"outputs": [],
			"stateMutability": "nonpayable",
			"type": "function"
		},
		{
			"inputs": [
				{
					"internalType": "bytes32",
					"name": "role",
					"type": "bytes32"
				},
				{
					"internalType": "address",
					"name": "account",
					"type": "address"
				}
			],
			"name": "renounceRole",
			"outputs": [],
			"stateMutability": "nonpayable",
			"type": "function"
		},
		{
			"inputs": [
				{
					"internalType": "bytes32",
					"name": "role",
					"type": "bytes32"
				},
				{
					"internalType": "address",
					"name": "account",
					"type": "address"
				}
			],
			"name": "revokeRole",
			"outputs": [],
			"stateMutability": "nonpayable",
			"type": "function"
		},
		{
			"inputs": [
				{
					"internalType": "address",
					"name": "from",
					"type": "address"
				},
				{
					"internalType": "address",
					"name": "to",
					"type": "address"
				},
				{
					"internalType": "uint256",
					"name": "tokenId",
					"type": "uint256"
				}
			],
			"name": "safeTransferFrom",
			"outputs": [],
			"stateMutability": "nonpayable",
			"type": "function"
		},
		{
			"inputs": [
				{
					"internalType": "address",
					"name": "from",
					"type": "address"
				},
				{
					"internalType": "address",
					"name": "to",
					"type": "address"
				},
				{
					"internalType": "uint256",
					"name": "tokenId",
					"type": "uint256"
				},
				{
					"internalType": "bytes",
					"name": "_data",
					"type": "bytes"
				}
			],
			"name": "safeTransferFrom",
			"outputs": [],
			"stateMutability": "nonpayable",
			"type": "function"
		},
		{
			"inputs": [
				{
					"internalType": "bool",
					"name": "allow",
					"type": "bool"
				}
			],
			"name": "setAllowBridging",
			"outputs": [],
			"stateMutability": "nonpayable",
			"type": "function"
		},
		{
			"inputs": [
				{
					"internalType": "bool",
					"name": "allow",
					"type": "bool"
				}
			],
			"name": "setAllowMigration",
			"outputs": [],
			"stateMutability": "nonpayable",
			"type": "function"
		},
		{
			"inputs": [
				{
					"internalType": "bool",
					"name": "allow",
					"type": "bool"
				}
			],
			"name": "setAllowPolyBridging",
			"outputs": [],
			"stateMutability": "nonpayable",
			"type": "function"
		},
		{
			"inputs": [
				{
					"internalType": "address",
					"name": "operator",
					"type": "address"
				},
				{
					"internalType": "bool",
					"name": "approved",
					"type": "bool"
				}
			],
			"name": "setApprovalForAll",
			"outputs": [],
			"stateMutability": "nonpayable",
			"type": "function"
		},
		{
			"inputs": [
				{
					"internalType": "string",
					"name": "_newBaseURI",
					"type": "string"
				}
			],
			"name": "setBaseURI",
			"outputs": [],
			"stateMutability": "nonpayable",
			"type": "function"
		},
		{
			"inputs": [
				{
					"internalType": "uint256",
					"name": "_gas",
					"type": "uint256"
				}
			],
			"name": "setGasEth",
			"outputs": [],
			"stateMutability": "nonpayable",
			"type": "function"
		},
		{
			"inputs": [
				{
					"internalType": "address",
					"name": "_openseaContract",
					"type": "address"
				}
			],
			"name": "setOpenseaContract",
			"outputs": [],
			"stateMutability": "nonpayable",
			"type": "function"
		},
		{
			"inputs": [
				{
					"internalType": "address",
					"name": "_oracleAddress",
					"type": "address"
				}
			],
			"name": "setOracleAddress",
			"outputs": [],
			"stateMutability": "nonpayable",
			"type": "function"
		},
		{
			"inputs": [
				{
					"internalType": "bytes4",
					"name": "interfaceId",
					"type": "bytes4"
				}
			],
			"name": "supportsInterface",
			"outputs": [
				{
					"internalType": "bool",
					"name": "",
					"type": "bool"
				}
			],
			"stateMutability": "view",
			"type": "function"
		},
		{
			"inputs": [],
			"name": "symbol",
			"outputs": [
				{
					"internalType": "string",
					"name": "",
					"type": "string"
				}
			],
			"stateMutability": "view",
			"type": "function"
		},
		{
			"inputs": [
				{
					"internalType": "uint256",
					"name": "tokenId",
					"type": "uint256"
				}
			],
			"name": "tokenURI",
			"outputs": [
				{
					"internalType": "string",
					"name": "",
					"type": "string"
				}
			],
			"stateMutability": "view",
			"type": "function"
		},
		{
			"inputs": [],
			"name": "totalSupply",
			"outputs": [
				{
					"internalType": "uint256",
					"name": "",
					"type": "uint256"
				}
			],
			"stateMutability": "view",
			"type": "function"
		},
		{
			"inputs": [
				{
					"internalType": "address",
					"name": "from",
					"type": "address"
				},
				{
					"internalType": "address",
					"name": "to",
					"type": "address"
				},
				{
					"internalType": "uint256",
					"name": "tokenId",
					"type": "uint256"
				}
			],
			"name": "transferFrom",
			"outputs": [],
			"stateMutability": "nonpayable",
			"type": "function"
		},
		{
			"inputs": [
				{
					"internalType": "address",
					"name": "newOwner",
					"type": "address"
				}
			],
			"name": "transferOwnership",
			"outputs": [],
			"stateMutability": "nonpayable",
			"type": "function"
		},
		{
			"inputs": [
				{
					"internalType": "address",
					"name": "_owner",
					"type": "address"
				}
			],
			"name": "walletOfOwner",
			"outputs": [
				{
					"internalType": "uint256[]",
					"name": "",
					"type": "uint256[]"
				}
			],
			"stateMutability": "view",
			"type": "function"
		},
		{
			"inputs": [
				{
					"internalType": "uint256",
					"name": "",
					"type": "uint256"
				}
			],
			"name": "weirdMapping",
			"outputs": [
				{
					"internalType": "uint256",
					"name": "",
					"type": "uint256"
				}
			],
			"stateMutability": "view",
			"type": "function"
		},
		{
			"inputs": [
				{
					"internalType": "uint256[]",
					"name": "tokenIds",
					"type": "uint256[]"
				}
			],
			"name": "withdrawBatch",
			"outputs": [],
			"stateMutability": "nonpayable",
			"type": "function"
		},
		{
			"inputs": [
				{
					"internalType": "uint256",
					"name": "",
					"type": "uint256"
				}
			],
			"name": "withdrawnTokens",
			"outputs": [
				{
					"internalType": "bool",
					"name": "",
					"type": "bool"
				}
			],
			"stateMutability": "view",
			"type": "function"
		}
	]
}