{
	"polygon token claim/WeirdPunks.sol": {
		"WeirdPunks": {
			"abi": [
				{
					"inputs": [],
					"stateMutability": "nonpayable",
					"type": "constructor"
				},
				{
					"anonymous": false,
					"inputs": [
						{
							"indexed": true,
							"internalType": "address",
							"name": "owner",
							"type": "address"
						},
						{
							"indexed": true,
							"internalType": "address",
							"name": "approved",
							"type": "address"
						},
						{
							"indexed": true,
							"internalType": "uint256",
							"name": "tokenId",
							"type": "uint256"
						}
					],
					"name": "Approval",
					"type": "event"
				},
				{
					"anonymous": false,
					"inputs": [
						{
							"indexed": true,
							"internalType": "address",
							"name": "owner",
							"type": "address"
						},
						{
							"indexed": true,
							"internalType": "address",
							"name": "operator",
							"type": "address"
						},
						{
							"indexed": false,
							"internalType": "bool",
							"name": "approved",
							"type": "bool"
						}
					],
					"name": "ApprovalForAll",
					"type": "event"
				},
				{
					"anonymous": false,
					"inputs": [
						{
							"indexed": true,
							"internalType": "address",
							"name": "from",
							"type": "address"
						},
						{
							"indexed": true,
							"internalType": "address",
							"name": "to",
							"type": "address"
						},
						{
							"indexed": true,
							"internalType": "uint256",
							"name": "tokenId",
							"type": "uint256"
						}
					],
					"name": "Transfer",
					"type": "event"
				},
				{
					"inputs": [
						{
							"internalType": "address",
							"name": "to",
							"type": "address"
						},
						{
							"internalType": "uint256",
							"name": "tokenId",
							"type": "uint256"
						}
					],
					"name": "approve",
					"outputs": [],
					"stateMutability": "nonpayable",
					"type": "function"
				},
				{
					"inputs": [
						{
							"internalType": "address",
							"name": "owner",
							"type": "address"
						}
					],
					"name": "balanceOf",
					"outputs": [
						{
							"internalType": "uint256",
							"name": "",
							"type": "uint256"
						}
					],
					"stateMutability": "view",
					"type": "function"
				},
				{
					"inputs": [
						{
							"internalType": "uint256",
							"name": "tokenId",
							"type": "uint256"
						}
					],
					"name": "getApproved",
					"outputs": [
						{
							"internalType": "address",
							"name": "",
							"type": "address"
						}
					],
					"stateMutability": "view",
					"type": "function"
				},
				{
					"inputs": [
						{
							"internalType": "address",
							"name": "owner",
							"type": "address"
						},
						{
							"internalType": "address",
							"name": "operator",
							"type": "address"
						}
					],
					"name": "isApprovedForAll",
					"outputs": [
						{
							"internalType": "bool",
							"name": "",
							"type": "bool"
						}
					],
					"stateMutability": "view",
					"type": "function"
				},
				{
					"inputs": [],
					"name": "maxSupply",
					"outputs": [
						{
							"internalType": "uint256",
							"name": "",
							"type": "uint256"
						}
					],
					"stateMutability": "view",
					"type": "function"
				},
				{
					"inputs": [],
					"name": "name",
					"outputs": [
						{
							"internalType": "string",
							"name": "",
							"type": "string"
						}
					],
					"stateMutability": "view",
					"type": "function"
				},
				{
					"inputs": [
						{
							"internalType": "uint256",
							"name": "tokenId",
							"type": "uint256"
						}
					],
					"name": "ownerOf",
					"outputs": [
						{
							"internalType": "address",
							"name": "",
							"type": "address"
						}
					],
					"stateMutability": "view",
					"type": "function"
				},
				{
					"inputs": [
						{
							"internalType": "address",
							"name": "from",
							"type": "address"
						},
						{
							"internalType": "address",
							"name": "to",
							"type": "address"
						},
						{
							"internalType": "uint256",
							"name": "tokenId",
							"type": "uint256"
						}
					],
					"name": "safeTransferFrom",
					"outputs": [],
					"stateMutability": "nonpayable",
					"type": "function"
				},
				{
					"inputs": [
						{
							"internalType": "address",
							"name": "from",
							"type": "address"
						},
						{
							"internalType": "address",
							"name": "to",
							"type": "address"
						},
						{
							"internalType": "uint256",
							"name": "tokenId",
							"type": "uint256"
						},
						{
							"internalType": "bytes",
							"name": "_data",
							"type": "bytes"
						}
					],
					"name": "safeTransferFrom",
					"outputs": [],
					"stateMutability": "nonpayable",
					"type": "function"
				},
				{
					"inputs": [
						{
							"internalType": "address",
							"name": "operator",
							"type": "address"
						},
						{
							"internalType": "bool",
							"name": "approved",
							"type": "bool"
						}
					],
					"name": "setApprovalForAll",
					"outputs": [],
					"stateMutability": "nonpayable",
					"type": "function"
				},
				{
					"inputs": [
						{
							"internalType": "bytes4",
							"name": "interfaceId",
							"type": "bytes4"
						}
					],
					"name": "supportsInterface",
					"outputs": [
						{
							"internalType": "bool",
							"name": "",
							"type": "bool"
						}
					],
					"stateMutability": "view",
					"type": "function"
				},
				{
					"inputs": [],
					"name": "symbol",
					"outputs": [
						{
							"internalType": "string",
							"name": "",
							"type": "string"
						}
					],
					"stateMutability": "view",
					"type": "function"
				},
				{
					"inputs": [
						{
							"internalType": "uint256",
							"name": "tokenId",
							"type": "uint256"
						}
					],
					"name": "tokenURI",
					"outputs": [
						{
							"internalType": "string",
							"name": "",
							"type": "string"
						}
					],
					"stateMutability": "view",
					"type": "function"
				},
				{
					"inputs": [
						{
							"internalType": "address",
							"name": "from",
							"type": "address"
						},
						{
							"internalType": "address",
							"name": "to",
							"type": "address"
						},
						{
							"internalType": "uint256",
							"name": "tokenId",
							"type": "uint256"
						}
					],
					"name": "transferFrom",
					"outputs": [],
					"stateMutability": "nonpayable",
					"type": "function"
				},
				{
					"inputs": [
						{
							"internalType": "address",
							"name": "_owner",
							"type": "address"
						}
					],
					"name": "walletOfOwner",
					"outputs": [
						{
							"internalType": "uint256[]",
							"name": "",
							"type": "uint256[]"
						}
					],
					"stateMutability": "view",
					"type": "function"
				}
			],
			"devdoc": {
				"kind": "dev",
				"methods": {
					"approve(address,uint256)": {
						"details": "See {IERC721-approve}."
					},
					"balanceOf(address)": {
						"details": "See {IERC721-balanceOf}."
					},
					"getApproved(uint256)": {
						"details": "See {IERC721-getApproved}."
					},
					"isApprovedForAll(address,address)": {
						"details": "See {IERC721-isApprovedForAll}."
					},
					"name()": {
						"details": "See {IERC721Metadata-name}."
					},
					"ownerOf(uint256)": {
						"details": "See {IERC721-ownerOf}."
					},
					"safeTransferFrom(address,address,uint256)": {
						"details": "See {IERC721-safeTransferFrom}."
					},
					"safeTransferFrom(address,address,uint256,bytes)": {
						"details": "See {IERC721-safeTransferFrom}."
					},
					"setApprovalForAll(address,bool)": {
						"details": "See {IERC721-setApprovalForAll}."
					},
					"supportsInterface(bytes4)": {
						"details": "See {IERC165-supportsInterface}."
					},
					"symbol()": {
						"details": "See {IERC721Metadata-symbol}."
					},
					"tokenURI(uint256)": {
						"details": "See {IERC721Metadata-tokenURI}."
					},
					"transferFrom(address,address,uint256)": {
						"details": "See {IERC721-transferFrom}."
					}
				},
				"version": 1
			},
			"evm": {
				"assembly": "    /* \"polygon token claim/WeirdPunks.sol\":86:887  contract WeirdPunks is ERC721 {\r... */\n  mstore(0x40, 0x80)\n    /* \"polygon token claim/WeirdPunks.sol\":151:155  1000 */\n  0x03e8\n    /* \"polygon token claim/WeirdPunks.sol\":124:155  uint256 public maxSupply = 1000 */\n  0x06\n  sstore\n    /* \"polygon token claim/WeirdPunks.sol\":162:210  constructor(\r... */\n  callvalue\n  dup1\n  iszero\n  tag_1\n  jumpi\n  0x00\n  dup1\n  revert\ntag_1:\n  pop\n    /* \"polygon token claim/ERC721.sol\":1368:1484  constructor(string memory name_, string memory symbol_) {\r... */\n  mload(0x40)\n  dup1\n  0x40\n  add\n  0x40\n  mstore\n  dup1\n  0x0b\n  dup2\n  mstore\n  0x20\n  add\n  0x57656972642050756e6b73000000000000000000000000000000000000000000\n  dup2\n  mstore\n  pop\n  mload(0x40)\n  dup1\n  0x40\n  add\n  0x40\n  mstore\n  dup1\n  0x02\n  dup2\n  mstore\n  0x20\n  add\n  0x5750000000000000000000000000000000000000000000000000000000000000\n  dup2\n  mstore\n  pop\n    /* \"polygon token claim/ERC721.sol\":1443:1448  name_ */\n  dup2\n    /* \"polygon token claim/ERC721.sol\":1435:1440  _name */\n  0x00\n    /* \"polygon token claim/ERC721.sol\":1435:1448  _name = name_ */\n  swap1\n  dup1\n  mload\n  swap1\n  0x20\n  add\n  swap1\n  tag_5\n  swap3\n  swap2\n  swap1\n  tag_6\n  jump\t// in\ntag_5:\n  pop\n    /* \"polygon token claim/ERC721.sol\":1469:1476  symbol_ */\n  dup1\n    /* \"polygon token claim/ERC721.sol\":1459:1466  _symbol */\n  0x01\n    /* \"polygon token claim/ERC721.sol\":1459:1476  _symbol = symbol_ */\n  swap1\n  dup1\n  mload\n  swap1\n  0x20\n  add\n  swap1\n  tag_7\n  swap3\n  swap2\n  swap1\n  tag_6\n  jump\t// in\ntag_7:\n  pop\n    /* \"polygon token claim/ERC721.sol\":1368:1484  constructor(string memory name_, string memory symbol_) {\r... */\n  pop\n  pop\n    /* \"polygon token claim/WeirdPunks.sol\":86:887  contract WeirdPunks is ERC721 {\r... */\n  jump(tag_9)\ntag_6:\n  dup3\n  dup1\n  sload\n  tag_10\n  swap1\n  tag_11\n  jump\t// in\ntag_10:\n  swap1\n  0x00\n  mstore\n  keccak256(0x00, 0x20)\n  swap1\n  0x1f\n  add\n  0x20\n  swap1\n  div\n  dup2\n  add\n  swap3\n  dup3\n  tag_13\n  jumpi\n  0x00\n  dup6\n  sstore\n  jump(tag_12)\ntag_13:\n  dup3\n  0x1f\n  lt\n  tag_14\n  jumpi\n  dup1\n  mload\n  not(0xff)\n  and\n  dup4\n  dup1\n  add\n  or\n  dup6\n  sstore\n  jump(tag_12)\ntag_14:\n  dup3\n  dup1\n  add\n  0x01\n  add\n  dup6\n  sstore\n  dup3\n  iszero\n  tag_12\n  jumpi\n  swap2\n  dup3\n  add\ntag_15:\n  dup3\n  dup2\n  gt\n  iszero\n  tag_16\n  jumpi\n  dup3\n  mload\n  dup3\n  sstore\n  swap2\n  0x20\n  add\n  swap2\n  swap1\n  0x01\n  add\n  swap1\n  jump(tag_15)\ntag_16:\ntag_12:\n  pop\n  swap1\n  pop\n  tag_17\n  swap2\n  swap1\n  tag_18\n  jump\t// in\ntag_17:\n  pop\n  swap1\n  jump\t// out\ntag_18:\ntag_19:\n  dup1\n  dup3\n  gt\n  iszero\n  tag_20\n  jumpi\n  0x00\n  dup2\n  0x00\n  swap1\n  sstore\n  pop\n  0x01\n  add\n  jump(tag_19)\ntag_20:\n  pop\n  swap1\n  jump\t// out\n    /* \"#utility.yul\":7:327   */\ntag_11:\n    /* \"#utility.yul\":51:57   */\n  0x00\n    /* \"#utility.yul\":88:89   */\n  0x02\n    /* \"#utility.yul\":82:86   */\n  dup3\n    /* \"#utility.yul\":78:90   */\n  div\n    /* \"#utility.yul\":68:90   */\n  swap1\n  pop\n    /* \"#utility.yul\":135:136   */\n  0x01\n    /* \"#utility.yul\":129:133   */\n  dup3\n    /* \"#utility.yul\":125:137   */\n  and\n    /* \"#utility.yul\":156:174   */\n  dup1\n    /* \"#utility.yul\":146:227   */\n  tag_23\n  jumpi\n    /* \"#utility.yul\":212:216   */\n  0x7f\n    /* \"#utility.yul\":204:210   */\n  dup3\n    /* \"#utility.yul\":200:217   */\n  and\n    /* \"#utility.yul\":190:217   */\n  swap2\n  pop\n    /* \"#utility.yul\":146:227   */\ntag_23:\n    /* \"#utility.yul\":274:276   */\n  0x20\n    /* \"#utility.yul\":266:272   */\n  dup3\n    /* \"#utility.yul\":263:277   */\n  lt\n    /* \"#utility.yul\":243:261   */\n  dup2\n    /* \"#utility.yul\":240:278   */\n  eq\n    /* \"#utility.yul\":237:321   */\n  iszero\n  tag_24\n  jumpi\n    /* \"#utility.yul\":293:311   */\n  tag_25\n  tag_26\n  jump\t// in\ntag_25:\n    /* \"#utility.yul\":237:321   */\ntag_24:\n    /* \"#utility.yul\":58:327   */\n  pop\n    /* \"#utility.yul\":7:327   */\n  swap2\n  swap1\n  pop\n  jump\t// out\n    /* \"#utility.yul\":333:513   */\ntag_26:\n    /* \"#utility.yul\":381:458   */\n  0x4e487b7100000000000000000000000000000000000000000000000000000000\n    /* \"#utility.yul\":378:379   */\n  0x00\n    /* \"#utility.yul\":371:459   */\n  mstore\n    /* \"#utility.yul\":478:482   */\n  0x22\n    /* \"#utility.yul\":475:476   */\n  0x04\n    /* \"#utility.yul\":468:483   */\n  mstore\n    /* \"#utility.yul\":502:506   */\n  0x24\n    /* \"#utility.yul\":499:500   */\n  0x00\n    /* \"#utility.yul\":492:507   */\n  revert\n    /* \"polygon token claim/WeirdPunks.sol\":86:887  contract WeirdPunks is ERC721 {\r... */\ntag_9:\n  dataSize(sub_0)\n  dup1\n  dataOffset(sub_0)\n  0x00\n  codecopy\n  0x00\n  return\nstop\n\nsub_0: assembly {\n        /* \"polygon token claim/WeirdPunks.sol\":86:887  contract WeirdPunks is ERC721 {\r... */\n      mstore(0x40, 0x80)\n      callvalue\n      dup1\n      iszero\n      tag_1\n      jumpi\n      0x00\n      dup1\n      revert\n    tag_1:\n      pop\n      jumpi(tag_2, lt(calldatasize, 0x04))\n      shr(0xe0, calldataload(0x00))\n      dup1\n      0x6352211e\n      gt\n      tag_18\n      jumpi\n      dup1\n      0xb88d4fde\n      gt\n      tag_19\n      jumpi\n      dup1\n      0xb88d4fde\n      eq\n      tag_14\n      jumpi\n      dup1\n      0xc87b56dd\n      eq\n      tag_15\n      jumpi\n      dup1\n      0xd5abeb01\n      eq\n      tag_16\n      jumpi\n      dup1\n      0xe985e9c5\n      eq\n      tag_17\n      jumpi\n      jump(tag_2)\n    tag_19:\n      dup1\n      0x6352211e\n      eq\n      tag_10\n      jumpi\n      dup1\n      0x70a08231\n      eq\n      tag_11\n      jumpi\n      dup1\n      0x95d89b41\n      eq\n      tag_12\n      jumpi\n      dup1\n      0xa22cb465\n      eq\n      tag_13\n      jumpi\n      jump(tag_2)\n    tag_18:\n      dup1\n      0x095ea7b3\n      gt\n      tag_20\n      jumpi\n      dup1\n      0x095ea7b3\n      eq\n      tag_6\n      jumpi\n      dup1\n      0x23b872dd\n      eq\n      tag_7\n      jumpi\n      dup1\n      0x42842e0e\n      eq\n      tag_8\n      jumpi\n      dup1\n      0x438b6300\n      eq\n      tag_9\n      jumpi\n      jump(tag_2)\n    tag_20:\n      dup1\n      0x01ffc9a7\n      eq\n      tag_3\n      jumpi\n      dup1\n      0x06fdde03\n      eq\n      tag_4\n      jumpi\n      dup1\n      0x081812fc\n      eq\n      tag_5\n      jumpi\n    tag_2:\n      0x00\n      dup1\n      revert\n        /* \"polygon token claim/ERC721.sol\":1556:1861  function supportsInterface(bytes4 interfaceId) public view virtual override(ERC165, IERC165) returns (bool) {\r... */\n    tag_3:\n      tag_21\n      0x04\n      dup1\n      calldatasize\n      sub\n      dup2\n      add\n      swap1\n      tag_22\n      swap2\n      swap1\n      tag_23\n      jump\t// in\n    tag_22:\n      tag_24\n      jump\t// in\n    tag_21:\n      mload(0x40)\n      tag_25\n      swap2\n      swap1\n      tag_26\n      jump\t// in\n    tag_25:\n      mload(0x40)\n      dup1\n      swap2\n      sub\n      swap1\n      return\n        /* \"polygon token claim/ERC721.sol\":2501:2601  function name() public view virtual override returns (string memory) {\r... */\n    tag_4:\n      tag_27\n      tag_28\n      jump\t// in\n    tag_27:\n      mload(0x40)\n      tag_29\n      swap2\n      swap1\n      tag_30\n      jump\t// in\n    tag_29:\n      mload(0x40)\n      dup1\n      swap2\n      sub\n      swap1\n      return\n        /* \"polygon token claim/ERC721.sol\":4061:4282  function getApproved(uint256 tokenId) public view virtual override returns (address) {\r... */\n    tag_5:\n      tag_31\n      0x04\n      dup1\n      calldatasize\n      sub\n      dup2\n      add\n      swap1\n      tag_32\n      swap2\n      swap1\n      tag_33\n      jump\t// in\n    tag_32:\n      tag_34\n      jump\t// in\n    tag_31:\n      mload(0x40)\n      tag_35\n      swap2\n      swap1\n      tag_36\n      jump\t// in\n    tag_35:\n      mload(0x40)\n      dup1\n      swap2\n      sub\n      swap1\n      return\n        /* \"polygon token claim/ERC721.sol\":3584:3995  function approve(address to, uint256 tokenId) public virtual override {\r... */\n    tag_6:\n      tag_37\n      0x04\n      dup1\n      calldatasize\n      sub\n      dup2\n      add\n      swap1\n      tag_38\n      swap2\n      swap1\n      tag_39\n      jump\t// in\n    tag_38:\n      tag_40\n      jump\t// in\n    tag_37:\n      stop\n        /* \"polygon token claim/ERC721.sol\":4811:5150  function transferFrom(\r... */\n    tag_7:\n      tag_41\n      0x04\n      dup1\n      calldatasize\n      sub\n      dup2\n      add\n      swap1\n      tag_42\n      swap2\n      swap1\n      tag_43\n      jump\t// in\n    tag_42:\n      tag_44\n      jump\t// in\n    tag_41:\n      stop\n        /* \"polygon token claim/ERC721.sol\":5221:5406  function safeTransferFrom(\r... */\n    tag_8:\n      tag_45\n      0x04\n      dup1\n      calldatasize\n      sub\n      dup2\n      add\n      swap1\n      tag_46\n      swap2\n      swap1\n      tag_43\n      jump\t// in\n    tag_46:\n      tag_47\n      jump\t// in\n    tag_45:\n      stop\n        /* \"polygon token claim/WeirdPunks.sol\":217:884  function walletOfOwner(address _owner) public view returns (uint256[] memory) {\r... */\n    tag_9:\n      tag_48\n      0x04\n      dup1\n      calldatasize\n      sub\n      dup2\n      add\n      swap1\n      tag_49\n      swap2\n      swap1\n      tag_50\n      jump\t// in\n    tag_49:\n      tag_51\n      jump\t// in\n    tag_48:\n      mload(0x40)\n      tag_52\n      swap2\n      swap1\n      tag_53\n      jump\t// in\n    tag_52:\n      mload(0x40)\n      dup1\n      swap2\n      sub\n      swap1\n      return\n        /* \"polygon token claim/ERC721.sol\":2195:2434  function ownerOf(uint256 tokenId) public view virtual override returns (address) {\r... */\n    tag_10:\n      tag_54\n      0x04\n      dup1\n      calldatasize\n      sub\n      dup2\n      add\n      swap1\n      tag_55\n      swap2\n      swap1\n      tag_33\n      jump\t// in\n    tag_55:\n      tag_56\n      jump\t// in\n    tag_54:\n      mload(0x40)\n      tag_57\n      swap2\n      swap1\n      tag_36\n      jump\t// in\n    tag_57:\n      mload(0x40)\n      dup1\n      swap2\n      sub\n      swap1\n      return\n        /* \"polygon token claim/ERC721.sol\":1925:2133  function balanceOf(address owner) public view virtual override returns (uint256) {\r... */\n    tag_11:\n      tag_58\n      0x04\n      dup1\n      calldatasize\n      sub\n      dup2\n      add\n      swap1\n      tag_59\n      swap2\n      swap1\n      tag_50\n      jump\t// in\n    tag_59:\n      tag_60\n      jump\t// in\n    tag_58:\n      mload(0x40)\n      tag_61\n      swap2\n      swap1\n      tag_62\n      jump\t// in\n    tag_61:\n      mload(0x40)\n      dup1\n      swap2\n      sub\n      swap1\n      return\n        /* \"polygon token claim/ERC721.sol\":2670:2774  function symbol() public view virtual override returns (string memory) {\r... */\n    tag_12:\n      tag_63\n      tag_64\n      jump\t// in\n    tag_63:\n      mload(0x40)\n      tag_65\n      swap2\n      swap1\n      tag_30\n      jump\t// in\n    tag_65:\n      mload(0x40)\n      dup1\n      swap2\n      sub\n      swap1\n      return\n        /* \"polygon token claim/ERC721.sol\":4354:4509  function setApprovalForAll(address operator, bool approved) public virtual override {\r... */\n    tag_13:\n      tag_66\n      0x04\n      dup1\n      calldatasize\n      sub\n      dup2\n      add\n      swap1\n      tag_67\n      swap2\n      swap1\n      tag_68\n      jump\t// in\n    tag_67:\n      tag_69\n      jump\t// in\n    tag_66:\n      stop\n        /* \"polygon token claim/ERC721.sol\":5477:5805  function safeTransferFrom(\r... */\n    tag_14:\n      tag_70\n      0x04\n      dup1\n      calldatasize\n      sub\n      dup2\n      add\n      swap1\n      tag_71\n      swap2\n      swap1\n      tag_72\n      jump\t// in\n    tag_71:\n      tag_73\n      jump\t// in\n    tag_70:\n      stop\n        /* \"polygon token claim/ERC721.sol\":2845:3179  function tokenURI(uint256 tokenId) public view virtual override returns (string memory) {\r... */\n    tag_15:\n      tag_74\n      0x04\n      dup1\n      calldatasize\n      sub\n      dup2\n      add\n      swap1\n      tag_75\n      swap2\n      swap1\n      tag_33\n      jump\t// in\n    tag_75:\n      tag_76\n      jump\t// in\n    tag_74:\n      mload(0x40)\n      tag_77\n      swap2\n      swap1\n      tag_30\n      jump\t// in\n    tag_77:\n      mload(0x40)\n      dup1\n      swap2\n      sub\n      swap1\n      return\n        /* \"polygon token claim/WeirdPunks.sol\":124:155  uint256 public maxSupply = 1000 */\n    tag_16:\n      tag_78\n      tag_79\n      jump\t// in\n    tag_78:\n      mload(0x40)\n      tag_80\n      swap2\n      swap1\n      tag_62\n      jump\t// in\n    tag_80:\n      mload(0x40)\n      dup1\n      swap2\n      sub\n      swap1\n      return\n        /* \"polygon token claim/ERC721.sol\":4580:4744  function isApprovedForAll(address owner, address operator) public view virtual override returns (bool) {\r... */\n    tag_17:\n      tag_81\n      0x04\n      dup1\n      calldatasize\n      sub\n      dup2\n      add\n      swap1\n      tag_82\n      swap2\n      swap1\n      tag_83\n      jump\t// in\n    tag_82:\n      tag_84\n      jump\t// in\n    tag_81:\n      mload(0x40)\n      tag_85\n      swap2\n      swap1\n      tag_26\n      jump\t// in\n    tag_85:\n      mload(0x40)\n      dup1\n      swap2\n      sub\n      swap1\n      return\n        /* \"polygon token claim/ERC721.sol\":1556:1861  function supportsInterface(bytes4 interfaceId) public view virtual override(ERC165, IERC165) returns (bool) {\r... */\n    tag_24:\n        /* \"polygon token claim/ERC721.sol\":1658:1662  bool */\n      0x00\n        /* \"polygon token claim/ERC721.sol\":1710:1735  type(IERC721).interfaceId */\n      0x80ac58cd00000000000000000000000000000000000000000000000000000000\n        /* \"polygon token claim/ERC721.sol\":1695:1735  interfaceId == type(IERC721).interfaceId */\n      not(0xffffffffffffffffffffffffffffffffffffffffffffffffffffffff)\n      and\n        /* \"polygon token claim/ERC721.sol\":1695:1706  interfaceId */\n      dup3\n        /* \"polygon token claim/ERC721.sol\":1695:1735  interfaceId == type(IERC721).interfaceId */\n      not(0xffffffffffffffffffffffffffffffffffffffffffffffffffffffff)\n      and\n      eq\n        /* \"polygon token claim/ERC721.sol\":1695:1800  interfaceId == type(IERC721).interfaceId ||\r... */\n      dup1\n      tag_87\n      jumpi\n      pop\n        /* \"polygon token claim/ERC721.sol\":1767:1800  type(IERC721Metadata).interfaceId */\n      0x5b5e139f00000000000000000000000000000000000000000000000000000000\n        /* \"polygon token claim/ERC721.sol\":1752:1800  interfaceId == type(IERC721Metadata).interfaceId */\n      not(0xffffffffffffffffffffffffffffffffffffffffffffffffffffffff)\n      and\n        /* \"polygon token claim/ERC721.sol\":1752:1763  interfaceId */\n      dup3\n        /* \"polygon token claim/ERC721.sol\":1752:1800  interfaceId == type(IERC721Metadata).interfaceId */\n      not(0xffffffffffffffffffffffffffffffffffffffffffffffffffffffff)\n      and\n      eq\n        /* \"polygon token claim/ERC721.sol\":1695:1800  interfaceId == type(IERC721).interfaceId ||\r... */\n    tag_87:\n        /* \"polygon token claim/ERC721.sol\":1695:1853  interfaceId == type(IERC721).interfaceId ||\r... */\n      dup1\n      tag_88\n      jumpi\n      pop\n        /* \"polygon token claim/ERC721.sol\":1817:1853  super.supportsInterface(interfaceId) */\n      tag_89\n        /* \"polygon token claim/ERC721.sol\":1841:1852  interfaceId */\n      dup3\n        /* \"polygon token claim/ERC721.sol\":1817:1840  super.supportsInterface */\n      tag_90\n        /* \"polygon token claim/ERC721.sol\":1817:1853  super.supportsInterface(interfaceId) */\n      jump\t// in\n    tag_89:\n        /* \"polygon token claim/ERC721.sol\":1695:1853  interfaceId == type(IERC721).interfaceId ||\r... */\n    tag_88:\n        /* \"polygon token claim/ERC721.sol\":1675:1853  return\r... */\n      swap1\n      pop\n        /* \"polygon token claim/ERC721.sol\":1556:1861  function supportsInterface(bytes4 interfaceId) public view virtual override(ERC165, IERC165) returns (bool) {\r... */\n      swap2\n      swap1\n      pop\n      jump\t// out\n        /* \"polygon token claim/ERC721.sol\":2501:2601  function name() public view virtual override returns (string memory) {\r... */\n    tag_28:\n        /* \"polygon token claim/ERC721.sol\":2555:2568  string memory */\n      0x60\n        /* \"polygon token claim/ERC721.sol\":2588:2593  _name */\n      0x00\n        /* \"polygon token claim/ERC721.sol\":2581:2593  return _name */\n      dup1\n      sload\n      tag_92\n      swap1\n      tag_93\n      jump\t// in\n    tag_92:\n      dup1\n      0x1f\n      add\n      0x20\n      dup1\n      swap2\n      div\n      mul\n      0x20\n      add\n      mload(0x40)\n      swap1\n      dup2\n      add\n      0x40\n      mstore\n      dup1\n      swap3\n      swap2\n      swap1\n      dup2\n      dup2\n      mstore\n      0x20\n      add\n      dup3\n      dup1\n      sload\n      tag_94\n      swap1\n      tag_93\n      jump\t// in\n    tag_94:\n      dup1\n      iszero\n      tag_95\n      jumpi\n      dup1\n      0x1f\n      lt\n      tag_96\n      jumpi\n      0x0100\n      dup1\n      dup4\n      sload\n      div\n      mul\n      dup4\n      mstore\n      swap2\n      0x20\n      add\n      swap2\n      jump(tag_95)\n    tag_96:\n      dup3\n      add\n      swap2\n      swap1\n      0x00\n      mstore\n      keccak256(0x00, 0x20)\n      swap1\n    tag_97:\n      dup2\n      sload\n      dup2\n      mstore\n      swap1\n      0x01\n      add\n      swap1\n      0x20\n      add\n      dup1\n      dup4\n      gt\n      tag_97\n      jumpi\n      dup3\n      swap1\n      sub\n      0x1f\n      and\n      dup3\n      add\n      swap2\n    tag_95:\n      pop\n      pop\n      pop\n      pop\n      pop\n      swap1\n      pop\n        /* \"polygon token claim/ERC721.sol\":2501:2601  function name() public view virtual override returns (string memory) {\r... */\n      swap1\n      jump\t// out\n        /* \"polygon token claim/ERC721.sol\":4061:4282  function getApproved(uint256 tokenId) public view virtual override returns (address) {\r... */\n    tag_34:\n        /* \"polygon token claim/ERC721.sol\":4137:4144  address */\n      0x00\n        /* \"polygon token claim/ERC721.sol\":4165:4181  _exists(tokenId) */\n      tag_99\n        /* \"polygon token claim/ERC721.sol\":4173:4180  tokenId */\n      dup3\n        /* \"polygon token claim/ERC721.sol\":4165:4172  _exists */\n      tag_100\n        /* \"polygon token claim/ERC721.sol\":4165:4181  _exists(tokenId) */\n      jump\t// in\n    tag_99:\n        /* \"polygon token claim/ERC721.sol\":4157:4230  require(_exists(tokenId), \"ERC721: approved query for nonexistent token\") */\n      tag_101\n      jumpi\n      mload(0x40)\n      0x08c379a000000000000000000000000000000000000000000000000000000000\n      dup2\n      mstore\n      0x04\n      add\n      tag_102\n      swap1\n      tag_103\n      jump\t// in\n    tag_102:\n      mload(0x40)\n      dup1\n      swap2\n      sub\n      swap1\n      revert\n    tag_101:\n        /* \"polygon token claim/ERC721.sol\":4250:4265  _tokenApprovals */\n      0x04\n        /* \"polygon token claim/ERC721.sol\":4250:4274  _tokenApprovals[tokenId] */\n      0x00\n        /* \"polygon token claim/ERC721.sol\":4266:4273  tokenId */\n      dup4\n        /* \"polygon token claim/ERC721.sol\":4250:4274  _tokenApprovals[tokenId] */\n      dup2\n      mstore\n      0x20\n      add\n      swap1\n      dup2\n      mstore\n      0x20\n      add\n      0x00\n      keccak256\n      0x00\n      swap1\n      sload\n      swap1\n      0x0100\n      exp\n      swap1\n      div\n      0xffffffffffffffffffffffffffffffffffffffff\n      and\n        /* \"polygon token claim/ERC721.sol\":4243:4274  return _tokenApprovals[tokenId] */\n      swap1\n      pop\n        /* \"polygon token claim/ERC721.sol\":4061:4282  function getApproved(uint256 tokenId) public view virtual override returns (address) {\r... */\n      swap2\n      swap1\n      pop\n      jump\t// out\n        /* \"polygon token claim/ERC721.sol\":3584:3995  function approve(address to, uint256 tokenId) public virtual override {\r... */\n    tag_40:\n        /* \"polygon token claim/ERC721.sol\":3665:3678  address owner */\n      0x00\n        /* \"polygon token claim/ERC721.sol\":3681:3704  ERC721.ownerOf(tokenId) */\n      tag_105\n        /* \"polygon token claim/ERC721.sol\":3696:3703  tokenId */\n      dup3\n        /* \"polygon token claim/ERC721.sol\":3681:3695  ERC721.ownerOf */\n      tag_56\n        /* \"polygon token claim/ERC721.sol\":3681:3704  ERC721.ownerOf(tokenId) */\n      jump\t// in\n    tag_105:\n        /* \"polygon token claim/ERC721.sol\":3665:3704  address owner = ERC721.ownerOf(tokenId) */\n      swap1\n      pop\n        /* \"polygon token claim/ERC721.sol\":3729:3734  owner */\n      dup1\n        /* \"polygon token claim/ERC721.sol\":3723:3734  to != owner */\n      0xffffffffffffffffffffffffffffffffffffffff\n      and\n        /* \"polygon token claim/ERC721.sol\":3723:3725  to */\n      dup4\n        /* \"polygon token claim/ERC721.sol\":3723:3734  to != owner */\n      0xffffffffffffffffffffffffffffffffffffffff\n      and\n      eq\n      iszero\n        /* \"polygon token claim/ERC721.sol\":3715:3772  require(to != owner, \"ERC721: approval to current owner\") */\n      tag_106\n      jumpi\n      mload(0x40)\n      0x08c379a000000000000000000000000000000000000000000000000000000000\n      dup2\n      mstore\n      0x04\n      add\n      tag_107\n      swap1\n      tag_108\n      jump\t// in\n    tag_107:\n      mload(0x40)\n      dup1\n      swap2\n      sub\n      swap1\n      revert\n    tag_106:\n        /* \"polygon token claim/ERC721.sol\":3823:3828  owner */\n      dup1\n        /* \"polygon token claim/ERC721.sol\":3807:3828  _msgSender() == owner */\n      0xffffffffffffffffffffffffffffffffffffffff\n      and\n        /* \"polygon token claim/ERC721.sol\":3807:3819  _msgSender() */\n      tag_109\n        /* \"polygon token claim/ERC721.sol\":3807:3817  _msgSender */\n      tag_110\n        /* \"polygon token claim/ERC721.sol\":3807:3819  _msgSender() */\n      jump\t// in\n    tag_109:\n        /* \"polygon token claim/ERC721.sol\":3807:3828  _msgSender() == owner */\n      0xffffffffffffffffffffffffffffffffffffffff\n      and\n      eq\n        /* \"polygon token claim/ERC721.sol\":3807:3869  _msgSender() == owner || isApprovedForAll(owner, _msgSender()) */\n      dup1\n      tag_111\n      jumpi\n      pop\n        /* \"polygon token claim/ERC721.sol\":3832:3869  isApprovedForAll(owner, _msgSender()) */\n      tag_112\n        /* \"polygon token claim/ERC721.sol\":3849:3854  owner */\n      dup2\n        /* \"polygon token claim/ERC721.sol\":3856:3868  _msgSender() */\n      tag_113\n        /* \"polygon token claim/ERC721.sol\":3856:3866  _msgSender */\n      tag_110\n        /* \"polygon token claim/ERC721.sol\":3856:3868  _msgSender() */\n      jump\t// in\n    tag_113:\n        /* \"polygon token claim/ERC721.sol\":3832:3848  isApprovedForAll */\n      tag_84\n        /* \"polygon token claim/ERC721.sol\":3832:3869  isApprovedForAll(owner, _msgSender()) */\n      jump\t// in\n    tag_112:\n        /* \"polygon token claim/ERC721.sol\":3807:3869  _msgSender() == owner || isApprovedForAll(owner, _msgSender()) */\n    tag_111:\n        /* \"polygon token claim/ERC721.sol\":3785:3953  require(\r... */\n      tag_114\n      jumpi\n      mload(0x40)\n      0x08c379a000000000000000000000000000000000000000000000000000000000\n      dup2\n      mstore\n      0x04\n      add\n      tag_115\n      swap1\n      tag_116\n      jump\t// in\n    tag_115:\n      mload(0x40)\n      dup1\n      swap2\n      sub\n      swap1\n      revert\n    tag_114:\n        /* \"polygon token claim/ERC721.sol\":3966:3987  _approve(to, tokenId) */\n      tag_117\n        /* \"polygon token claim/ERC721.sol\":3975:3977  to */\n      dup4\n        /* \"polygon token claim/ERC721.sol\":3979:3986  tokenId */\n      dup4\n        /* \"polygon token claim/ERC721.sol\":3966:3974  _approve */\n      tag_118\n        /* \"polygon token claim/ERC721.sol\":3966:3987  _approve(to, tokenId) */\n      jump\t// in\n    tag_117:\n        /* \"polygon token claim/ERC721.sol\":3654:3995  {\r... */\n      pop\n        /* \"polygon token claim/ERC721.sol\":3584:3995  function approve(address to, uint256 tokenId) public virtual override {\r... */\n      pop\n      pop\n      jump\t// out\n        /* \"polygon token claim/ERC721.sol\":4811:5150  function transferFrom(\r... */\n    tag_44:\n        /* \"polygon token claim/ERC721.sol\":5006:5047  _isApprovedOrOwner(_msgSender(), tokenId) */\n      tag_120\n        /* \"polygon token claim/ERC721.sol\":5025:5037  _msgSender() */\n      tag_121\n        /* \"polygon token claim/ERC721.sol\":5025:5035  _msgSender */\n      tag_110\n        /* \"polygon token claim/ERC721.sol\":5025:5037  _msgSender() */\n      jump\t// in\n    tag_121:\n        /* \"polygon token claim/ERC721.sol\":5039:5046  tokenId */\n      dup3\n        /* \"polygon token claim/ERC721.sol\":5006:5024  _isApprovedOrOwner */\n      tag_122\n        /* \"polygon token claim/ERC721.sol\":5006:5047  _isApprovedOrOwner(_msgSender(), tokenId) */\n      jump\t// in\n    tag_120:\n        /* \"polygon token claim/ERC721.sol\":4998:5101  require(_isApprovedOrOwner(_msgSender(), tokenId), \"ERC721: transfer caller is not owner nor approved\") */\n      tag_123\n      jumpi\n      mload(0x40)\n      0x08c379a000000000000000000000000000000000000000000000000000000000\n      dup2\n      mstore\n      0x04\n      add\n      tag_124\n      swap1\n      tag_125\n      jump\t// in\n    tag_124:\n      mload(0x40)\n      dup1\n      swap2\n      sub\n      swap1\n      revert\n    tag_123:\n        /* \"polygon token claim/ERC721.sol\":5114:5142  _transfer(from, to, tokenId) */\n      tag_126\n        /* \"polygon token claim/ERC721.sol\":5124:5128  from */\n      dup4\n        /* \"polygon token claim/ERC721.sol\":5130:5132  to */\n      dup4\n        /* \"polygon token claim/ERC721.sol\":5134:5141  tokenId */\n      dup4\n        /* \"polygon token claim/ERC721.sol\":5114:5123  _transfer */\n      tag_127\n        /* \"polygon token claim/ERC721.sol\":5114:5142  _transfer(from, to, tokenId) */\n      jump\t// in\n    tag_126:\n        /* \"polygon token claim/ERC721.sol\":4811:5150  function transferFrom(\r... */\n      pop\n      pop\n      pop\n      jump\t// out\n        /* \"polygon token claim/ERC721.sol\":5221:5406  function safeTransferFrom(\r... */\n    tag_47:\n        /* \"polygon token claim/ERC721.sol\":5359:5398  safeTransferFrom(from, to, tokenId, \"\") */\n      tag_129\n        /* \"polygon token claim/ERC721.sol\":5376:5380  from */\n      dup4\n        /* \"polygon token claim/ERC721.sol\":5382:5384  to */\n      dup4\n        /* \"polygon token claim/ERC721.sol\":5386:5393  tokenId */\n      dup4\n        /* \"polygon token claim/ERC721.sol\":5359:5398  safeTransferFrom(from, to, tokenId, \"\") */\n      mload(0x40)\n      dup1\n      0x20\n      add\n      0x40\n      mstore\n      dup1\n      0x00\n      dup2\n      mstore\n      pop\n        /* \"polygon token claim/ERC721.sol\":5359:5375  safeTransferFrom */\n      tag_73\n        /* \"polygon token claim/ERC721.sol\":5359:5398  safeTransferFrom(from, to, tokenId, \"\") */\n      jump\t// in\n    tag_129:\n        /* \"polygon token claim/ERC721.sol\":5221:5406  function safeTransferFrom(\r... */\n      pop\n      pop\n      pop\n      jump\t// out\n        /* \"polygon token claim/WeirdPunks.sol\":217:884  function walletOfOwner(address _owner) public view returns (uint256[] memory) {\r... */\n    tag_51:\n        /* \"polygon token claim/WeirdPunks.sol\":277:293  uint256[] memory */\n      0x60\n        /* \"polygon token claim/WeirdPunks.sol\":302:325  uint256 ownerTokenCount */\n      0x00\n        /* \"polygon token claim/WeirdPunks.sol\":328:345  balanceOf(_owner) */\n      tag_131\n        /* \"polygon token claim/WeirdPunks.sol\":338:344  _owner */\n      dup4\n        /* \"polygon token claim/WeirdPunks.sol\":328:337  balanceOf */\n      tag_60\n        /* \"polygon token claim/WeirdPunks.sol\":328:345  balanceOf(_owner) */\n      jump\t// in\n    tag_131:\n        /* \"polygon token claim/WeirdPunks.sol\":302:345  uint256 ownerTokenCount = balanceOf(_owner) */\n      swap1\n      pop\n        /* \"polygon token claim/WeirdPunks.sol\":352:382  uint256[] memory ownedTokenIds */\n      0x00\n        /* \"polygon token claim/WeirdPunks.sol\":399:414  ownerTokenCount */\n      dup2\n        /* \"polygon token claim/WeirdPunks.sol\":385:415  new uint256[](ownerTokenCount) */\n      0xffffffffffffffff\n      dup2\n      gt\n      iszero\n      tag_132\n      jumpi\n      tag_133\n      tag_134\n      jump\t// in\n    tag_133:\n    tag_132:\n      mload(0x40)\n      swap1\n      dup1\n      dup3\n      mstore\n      dup1\n      0x20\n      mul\n      0x20\n      add\n      dup3\n      add\n      0x40\n      mstore\n      dup1\n      iszero\n      tag_135\n      jumpi\n      dup2\n      0x20\n      add\n      0x20\n      dup3\n      mul\n      dup1\n      calldatasize\n      dup4\n      calldatacopy\n      dup1\n      dup3\n      add\n      swap2\n      pop\n      pop\n      swap1\n      pop\n    tag_135:\n      pop\n        /* \"polygon token claim/WeirdPunks.sol\":352:415  uint256[] memory ownedTokenIds = new uint256[](ownerTokenCount) */\n      swap1\n      pop\n        /* \"polygon token claim/WeirdPunks.sol\":422:444  uint256 currentTokenId */\n      0x00\n        /* \"polygon token claim/WeirdPunks.sol\":447:448  1 */\n      0x01\n        /* \"polygon token claim/WeirdPunks.sol\":422:448  uint256 currentTokenId = 1 */\n      swap1\n      pop\n        /* \"polygon token claim/WeirdPunks.sol\":455:478  uint256 ownedTokenIndex */\n      0x00\n        /* \"polygon token claim/WeirdPunks.sol\":491:852  while (ownedTokenIndex < ownerTokenCount && currentTokenId <= maxSupply) {\r... */\n    tag_136:\n        /* \"polygon token claim/WeirdPunks.sol\":516:531  ownerTokenCount */\n      dup4\n        /* \"polygon token claim/WeirdPunks.sol\":498:513  ownedTokenIndex */\n      dup2\n        /* \"polygon token claim/WeirdPunks.sol\":498:531  ownedTokenIndex < ownerTokenCount */\n      lt\n        /* \"polygon token claim/WeirdPunks.sol\":498:562  ownedTokenIndex < ownerTokenCount && currentTokenId <= maxSupply */\n      dup1\n      iszero\n      tag_138\n      jumpi\n      pop\n        /* \"polygon token claim/WeirdPunks.sol\":553:562  maxSupply */\n      sload(0x06)\n        /* \"polygon token claim/WeirdPunks.sol\":535:549  currentTokenId */\n      dup3\n        /* \"polygon token claim/WeirdPunks.sol\":535:562  currentTokenId <= maxSupply */\n      gt\n      iszero\n        /* \"polygon token claim/WeirdPunks.sol\":498:562  ownedTokenIndex < ownerTokenCount && currentTokenId <= maxSupply */\n    tag_138:\n        /* \"polygon token claim/WeirdPunks.sol\":491:852  while (ownedTokenIndex < ownerTokenCount && currentTokenId <= maxSupply) {\r... */\n      iszero\n      tag_137\n      jumpi\n        /* \"polygon token claim/WeirdPunks.sol\":576:599  _exists(currentTokenId) */\n      tag_139\n        /* \"polygon token claim/WeirdPunks.sol\":584:598  currentTokenId */\n      dup3\n        /* \"polygon token claim/WeirdPunks.sol\":576:583  _exists */\n      tag_100\n        /* \"polygon token claim/WeirdPunks.sol\":576:599  _exists(currentTokenId) */\n      jump\t// in\n    tag_139:\n        /* \"polygon token claim/WeirdPunks.sol\":573:845  if(_exists(currentTokenId)) {\r... */\n      iszero\n      tag_140\n      jumpi\n        /* \"polygon token claim/WeirdPunks.sol\":612:637  address currentTokenOwner */\n      0x00\n        /* \"polygon token claim/WeirdPunks.sol\":640:663  ownerOf(currentTokenId) */\n      tag_141\n        /* \"polygon token claim/WeirdPunks.sol\":648:662  currentTokenId */\n      dup4\n        /* \"polygon token claim/WeirdPunks.sol\":640:647  ownerOf */\n      tag_56\n        /* \"polygon token claim/WeirdPunks.sol\":640:663  ownerOf(currentTokenId) */\n      jump\t// in\n    tag_141:\n        /* \"polygon token claim/WeirdPunks.sol\":612:663  address currentTokenOwner = ownerOf(currentTokenId) */\n      swap1\n      pop\n        /* \"polygon token claim/WeirdPunks.sol\":699:705  _owner */\n      dup7\n        /* \"polygon token claim/WeirdPunks.sol\":678:705  currentTokenOwner == _owner */\n      0xffffffffffffffffffffffffffffffffffffffff\n      and\n        /* \"polygon token claim/WeirdPunks.sol\":678:695  currentTokenOwner */\n      dup2\n        /* \"polygon token claim/WeirdPunks.sol\":678:705  currentTokenOwner == _owner */\n      0xffffffffffffffffffffffffffffffffffffffff\n      and\n      eq\n        /* \"polygon token claim/WeirdPunks.sol\":674:809  if (currentTokenOwner == _owner) {\r... */\n      iszero\n      tag_142\n      jumpi\n        /* \"polygon token claim/WeirdPunks.sol\":753:767  currentTokenId */\n      dup3\n        /* \"polygon token claim/WeirdPunks.sol\":720:733  ownedTokenIds */\n      dup5\n        /* \"polygon token claim/WeirdPunks.sol\":734:749  ownedTokenIndex */\n      dup4\n        /* \"polygon token claim/WeirdPunks.sol\":720:750  ownedTokenIds[ownedTokenIndex] */\n      dup2\n      mload\n      dup2\n      lt\n      tag_143\n      jumpi\n      tag_144\n      tag_145\n      jump\t// in\n    tag_144:\n    tag_143:\n      0x20\n      mul\n      0x20\n      add\n      add\n        /* \"polygon token claim/WeirdPunks.sol\":720:767  ownedTokenIds[ownedTokenIndex] = currentTokenId */\n      dup2\n      dup2\n      mstore\n      pop\n      pop\n        /* \"polygon token claim/WeirdPunks.sol\":780:797  ownedTokenIndex++ */\n      dup2\n      dup1\n      tag_146\n      swap1\n      tag_147\n      jump\t// in\n    tag_146:\n      swap3\n      pop\n      pop\n        /* \"polygon token claim/WeirdPunks.sol\":674:809  if (currentTokenOwner == _owner) {\r... */\n    tag_142:\n        /* \"polygon token claim/WeirdPunks.sol\":819:835  currentTokenId++ */\n      dup3\n      dup1\n      tag_148\n      swap1\n      tag_147\n      jump\t// in\n    tag_148:\n      swap4\n      pop\n      pop\n        /* \"polygon token claim/WeirdPunks.sol\":601:845  {\r... */\n      pop\n        /* \"polygon token claim/WeirdPunks.sol\":573:845  if(_exists(currentTokenId)) {\r... */\n    tag_140:\n        /* \"polygon token claim/WeirdPunks.sol\":491:852  while (ownedTokenIndex < ownerTokenCount && currentTokenId <= maxSupply) {\r... */\n      jump(tag_136)\n    tag_137:\n        /* \"polygon token claim/WeirdPunks.sol\":865:878  ownedTokenIds */\n      dup3\n        /* \"polygon token claim/WeirdPunks.sol\":858:878  return ownedTokenIds */\n      swap5\n      pop\n      pop\n      pop\n      pop\n      pop\n        /* \"polygon token claim/WeirdPunks.sol\":217:884  function walletOfOwner(address _owner) public view returns (uint256[] memory) {\r... */\n      swap2\n      swap1\n      pop\n      jump\t// out\n        /* \"polygon token claim/ERC721.sol\":2195:2434  function ownerOf(uint256 tokenId) public view virtual override returns (address) {\r... */\n    tag_56:\n        /* \"polygon token claim/ERC721.sol\":2267:2274  address */\n      0x00\n        /* \"polygon token claim/ERC721.sol\":2287:2300  address owner */\n      dup1\n        /* \"polygon token claim/ERC721.sol\":2303:2310  _owners */\n      0x02\n        /* \"polygon token claim/ERC721.sol\":2303:2319  _owners[tokenId] */\n      0x00\n        /* \"polygon token claim/ERC721.sol\":2311:2318  tokenId */\n      dup5\n        /* \"polygon token claim/ERC721.sol\":2303:2319  _owners[tokenId] */\n      dup2\n      mstore\n      0x20\n      add\n      swap1\n      dup2\n      mstore\n      0x20\n      add\n      0x00\n      keccak256\n      0x00\n      swap1\n      sload\n      swap1\n      0x0100\n      exp\n      swap1\n      div\n      0xffffffffffffffffffffffffffffffffffffffff\n      and\n        /* \"polygon token claim/ERC721.sol\":2287:2319  address owner = _owners[tokenId] */\n      swap1\n      pop\n        /* \"polygon token claim/ERC721.sol\":2355:2356  0 */\n      0x00\n        /* \"polygon token claim/ERC721.sol\":2338:2357  owner != address(0) */\n      0xffffffffffffffffffffffffffffffffffffffff\n      and\n        /* \"polygon token claim/ERC721.sol\":2338:2343  owner */\n      dup2\n        /* \"polygon token claim/ERC721.sol\":2338:2357  owner != address(0) */\n      0xffffffffffffffffffffffffffffffffffffffff\n      and\n      eq\n      iszero\n        /* \"polygon token claim/ERC721.sol\":2330:2403  require(owner != address(0), \"ERC721: owner query for nonexistent token\") */\n      tag_150\n      jumpi\n      mload(0x40)\n      0x08c379a000000000000000000000000000000000000000000000000000000000\n      dup2\n      mstore\n      0x04\n      add\n      tag_151\n      swap1\n      tag_152\n      jump\t// in\n    tag_151:\n      mload(0x40)\n      dup1\n      swap2\n      sub\n      swap1\n      revert\n    tag_150:\n        /* \"polygon token claim/ERC721.sol\":2421:2426  owner */\n      dup1\n        /* \"polygon token claim/ERC721.sol\":2414:2426  return owner */\n      swap2\n      pop\n      pop\n        /* \"polygon token claim/ERC721.sol\":2195:2434  function ownerOf(uint256 tokenId) public view virtual override returns (address) {\r... */\n      swap2\n      swap1\n      pop\n      jump\t// out\n        /* \"polygon token claim/ERC721.sol\":1925:2133  function balanceOf(address owner) public view virtual override returns (uint256) {\r... */\n    tag_60:\n        /* \"polygon token claim/ERC721.sol\":1997:2004  uint256 */\n      0x00\n        /* \"polygon token claim/ERC721.sol\":2042:2043  0 */\n      dup1\n        /* \"polygon token claim/ERC721.sol\":2025:2044  owner != address(0) */\n      0xffffffffffffffffffffffffffffffffffffffff\n      and\n        /* \"polygon token claim/ERC721.sol\":2025:2030  owner */\n      dup3\n        /* \"polygon token claim/ERC721.sol\":2025:2044  owner != address(0) */\n      0xffffffffffffffffffffffffffffffffffffffff\n      and\n      eq\n      iszero\n        /* \"polygon token claim/ERC721.sol\":2017:2091  require(owner != address(0), \"ERC721: balance query for the zero address\") */\n      tag_154\n      jumpi\n      mload(0x40)\n      0x08c379a000000000000000000000000000000000000000000000000000000000\n      dup2\n      mstore\n      0x04\n      add\n      tag_155\n      swap1\n      tag_156\n      jump\t// in\n    tag_155:\n      mload(0x40)\n      dup1\n      swap2\n      sub\n      swap1\n      revert\n    tag_154:\n        /* \"polygon token claim/ERC721.sol\":2109:2118  _balances */\n      0x03\n        /* \"polygon token claim/ERC721.sol\":2109:2125  _balances[owner] */\n      0x00\n        /* \"polygon token claim/ERC721.sol\":2119:2124  owner */\n      dup4\n        /* \"polygon token claim/ERC721.sol\":2109:2125  _balances[owner] */\n      0xffffffffffffffffffffffffffffffffffffffff\n      and\n      0xffffffffffffffffffffffffffffffffffffffff\n      and\n      dup2\n      mstore\n      0x20\n      add\n      swap1\n      dup2\n      mstore\n      0x20\n      add\n      0x00\n      keccak256\n      sload\n        /* \"polygon token claim/ERC721.sol\":2102:2125  return _balances[owner] */\n      swap1\n      pop\n        /* \"polygon token claim/ERC721.sol\":1925:2133  function balanceOf(address owner) public view virtual override returns (uint256) {\r... */\n      swap2\n      swap1\n      pop\n      jump\t// out\n        /* \"polygon token claim/ERC721.sol\":2670:2774  function symbol() public view virtual override returns (string memory) {\r... */\n    tag_64:\n        /* \"polygon token claim/ERC721.sol\":2726:2739  string memory */\n      0x60\n        /* \"polygon token claim/ERC721.sol\":2759:2766  _symbol */\n      0x01\n        /* \"polygon token claim/ERC721.sol\":2752:2766  return _symbol */\n      dup1\n      sload\n      tag_158\n      swap1\n      tag_93\n      jump\t// in\n    tag_158:\n      dup1\n      0x1f\n      add\n      0x20\n      dup1\n      swap2\n      div\n      mul\n      0x20\n      add\n      mload(0x40)\n      swap1\n      dup2\n      add\n      0x40\n      mstore\n      dup1\n      swap3\n      swap2\n      swap1\n      dup2\n      dup2\n      mstore\n      0x20\n      add\n      dup3\n      dup1\n      sload\n      tag_159\n      swap1\n      tag_93\n      jump\t// in\n    tag_159:\n      dup1\n      iszero\n      tag_160\n      jumpi\n      dup1\n      0x1f\n      lt\n      tag_161\n      jumpi\n      0x0100\n      dup1\n      dup4\n      sload\n      div\n      mul\n      dup4\n      mstore\n      swap2\n      0x20\n      add\n      swap2\n      jump(tag_160)\n    tag_161:\n      dup3\n      add\n      swap2\n      swap1\n      0x00\n      mstore\n      keccak256(0x00, 0x20)\n      swap1\n    tag_162:\n      dup2\n      sload\n      dup2\n      mstore\n      swap1\n      0x01\n      add\n      swap1\n      0x20\n      add\n      dup1\n      dup4\n      gt\n      tag_162\n      jumpi\n      dup3\n      swap1\n      sub\n      0x1f\n      and\n      dup3\n      add\n      swap2\n    tag_160:\n      pop\n      pop\n      pop\n      pop\n      pop\n      swap1\n      pop\n        /* \"polygon token claim/ERC721.sol\":2670:2774  function symbol() public view virtual override returns (string memory) {\r... */\n      swap1\n      jump\t// out\n        /* \"polygon token claim/ERC721.sol\":4354:4509  function setApprovalForAll(address operator, bool approved) public virtual override {\r... */\n    tag_69:\n        /* \"polygon token claim/ERC721.sol\":4449:4501  _setApprovalForAll(_msgSender(), operator, approved) */\n      tag_164\n        /* \"polygon token claim/ERC721.sol\":4468:4480  _msgSender() */\n      tag_165\n        /* \"polygon token claim/ERC721.sol\":4468:4478  _msgSender */\n      tag_110\n        /* \"polygon token claim/ERC721.sol\":4468:4480  _msgSender() */\n      jump\t// in\n    tag_165:\n        /* \"polygon token claim/ERC721.sol\":4482:4490  operator */\n      dup4\n        /* \"polygon token claim/ERC721.sol\":4492:4500  approved */\n      dup4\n        /* \"polygon token claim/ERC721.sol\":4449:4467  _setApprovalForAll */\n      tag_166\n        /* \"polygon token claim/ERC721.sol\":4449:4501  _setApprovalForAll(_msgSender(), operator, approved) */\n      jump\t// in\n    tag_164:\n        /* \"polygon token claim/ERC721.sol\":4354:4509  function setApprovalForAll(address operator, bool approved) public virtual override {\r... */\n      pop\n      pop\n      jump\t// out\n        /* \"polygon token claim/ERC721.sol\":5477:5805  function safeTransferFrom(\r... */\n    tag_73:\n        /* \"polygon token claim/ERC721.sol\":5652:5693  _isApprovedOrOwner(_msgSender(), tokenId) */\n      tag_168\n        /* \"polygon token claim/ERC721.sol\":5671:5683  _msgSender() */\n      tag_169\n        /* \"polygon token claim/ERC721.sol\":5671:5681  _msgSender */\n      tag_110\n        /* \"polygon token claim/ERC721.sol\":5671:5683  _msgSender() */\n      jump\t// in\n    tag_169:\n        /* \"polygon token claim/ERC721.sol\":5685:5692  tokenId */\n      dup4\n        /* \"polygon token claim/ERC721.sol\":5652:5670  _isApprovedOrOwner */\n      tag_122\n        /* \"polygon token claim/ERC721.sol\":5652:5693  _isApprovedOrOwner(_msgSender(), tokenId) */\n      jump\t// in\n    tag_168:\n        /* \"polygon token claim/ERC721.sol\":5644:5747  require(_isApprovedOrOwner(_msgSender(), tokenId), \"ERC721: transfer caller is not owner nor approved\") */\n      tag_170\n      jumpi\n      mload(0x40)\n      0x08c379a000000000000000000000000000000000000000000000000000000000\n      dup2\n      mstore\n      0x04\n      add\n      tag_171\n      swap1\n      tag_125\n      jump\t// in\n    tag_171:\n      mload(0x40)\n      dup1\n      swap2\n      sub\n      swap1\n      revert\n    tag_170:\n        /* \"polygon token claim/ERC721.sol\":5758:5797  _safeTransfer(from, to, tokenId, _data) */\n      tag_172\n        /* \"polygon token claim/ERC721.sol\":5772:5776  from */\n      dup5\n        /* \"polygon token claim/ERC721.sol\":5778:5780  to */\n      dup5\n        /* \"polygon token claim/ERC721.sol\":5782:5789  tokenId */\n      dup5\n        /* \"polygon token claim/ERC721.sol\":5791:5796  _data */\n      dup5\n        /* \"polygon token claim/ERC721.sol\":5758:5771  _safeTransfer */\n      tag_173\n        /* \"polygon token claim/ERC721.sol\":5758:5797  _safeTransfer(from, to, tokenId, _data) */\n      jump\t// in\n    tag_172:\n        /* \"polygon token claim/ERC721.sol\":5477:5805  function safeTransferFrom(\r... */\n      pop\n      pop\n      pop\n      pop\n      jump\t// out\n        /* \"polygon token claim/ERC721.sol\":2845:3179  function tokenURI(uint256 tokenId) public view virtual override returns (string memory) {\r... */\n    tag_76:\n        /* \"polygon token claim/ERC721.sol\":2918:2931  string memory */\n      0x60\n        /* \"polygon token claim/ERC721.sol\":2952:2968  _exists(tokenId) */\n      tag_175\n        /* \"polygon token claim/ERC721.sol\":2960:2967  tokenId */\n      dup3\n        /* \"polygon token claim/ERC721.sol\":2952:2959  _exists */\n      tag_100\n        /* \"polygon token claim/ERC721.sol\":2952:2968  _exists(tokenId) */\n      jump\t// in\n    tag_175:\n        /* \"polygon token claim/ERC721.sol\":2944:3020  require(_exists(tokenId), \"ERC721Metadata: URI query for nonexistent token\") */\n      tag_176\n      jumpi\n      mload(0x40)\n      0x08c379a000000000000000000000000000000000000000000000000000000000\n      dup2\n      mstore\n      0x04\n      add\n      tag_177\n      swap1\n      tag_178\n      jump\t// in\n    tag_177:\n      mload(0x40)\n      dup1\n      swap2\n      sub\n      swap1\n      revert\n    tag_176:\n        /* \"polygon token claim/ERC721.sol\":3033:3054  string memory baseURI */\n      0x00\n        /* \"polygon token claim/ERC721.sol\":3057:3067  _baseURI() */\n      tag_179\n        /* \"polygon token claim/ERC721.sol\":3057:3065  _baseURI */\n      tag_180\n        /* \"polygon token claim/ERC721.sol\":3057:3067  _baseURI() */\n      jump\t// in\n    tag_179:\n        /* \"polygon token claim/ERC721.sol\":3033:3067  string memory baseURI = _baseURI() */\n      swap1\n      pop\n        /* \"polygon token claim/ERC721.sol\":3109:3110  0 */\n      0x00\n        /* \"polygon token claim/ERC721.sol\":3091:3098  baseURI */\n      dup2\n        /* \"polygon token claim/ERC721.sol\":3085:3106  bytes(baseURI).length */\n      mload\n        /* \"polygon token claim/ERC721.sol\":3085:3110  bytes(baseURI).length > 0 */\n      gt\n        /* \"polygon token claim/ERC721.sol\":3085:3171  bytes(baseURI).length > 0 ? string(abi.encodePacked(baseURI, tokenId.toString())) : \"\" */\n      tag_181\n      jumpi\n      mload(0x40)\n      dup1\n      0x20\n      add\n      0x40\n      mstore\n      dup1\n      0x00\n      dup2\n      mstore\n      pop\n      jump(tag_182)\n    tag_181:\n        /* \"polygon token claim/ERC721.sol\":3137:3144  baseURI */\n      dup1\n        /* \"polygon token claim/ERC721.sol\":3146:3164  tokenId.toString() */\n      tag_183\n        /* \"polygon token claim/ERC721.sol\":3146:3153  tokenId */\n      dup5\n        /* \"polygon token claim/ERC721.sol\":3146:3162  tokenId.toString */\n      tag_184\n        /* \"polygon token claim/ERC721.sol\":3146:3164  tokenId.toString() */\n      jump\t// in\n    tag_183:\n        /* \"polygon token claim/ERC721.sol\":3120:3165  abi.encodePacked(baseURI, tokenId.toString()) */\n      add(0x20, mload(0x40))\n      tag_185\n      swap3\n      swap2\n      swap1\n      tag_186\n      jump\t// in\n    tag_185:\n      mload(0x40)\n      0x20\n      dup2\n      dup4\n      sub\n      sub\n      dup2\n      mstore\n      swap1\n      0x40\n      mstore\n        /* \"polygon token claim/ERC721.sol\":3085:3171  bytes(baseURI).length > 0 ? string(abi.encodePacked(baseURI, tokenId.toString())) : \"\" */\n    tag_182:\n        /* \"polygon token claim/ERC721.sol\":3078:3171  return bytes(baseURI).length > 0 ? string(abi.encodePacked(baseURI, tokenId.toString())) : \"\" */\n      swap2\n      pop\n      pop\n        /* \"polygon token claim/ERC721.sol\":2845:3179  function tokenURI(uint256 tokenId) public view virtual override returns (string memory) {\r... */\n      swap2\n      swap1\n      pop\n      jump\t// out\n        /* \"polygon token claim/WeirdPunks.sol\":124:155  uint256 public maxSupply = 1000 */\n    tag_79:\n      sload(0x06)\n      dup2\n      jump\t// out\n        /* \"polygon token claim/ERC721.sol\":4580:4744  function isApprovedForAll(address owner, address operator) public view virtual override returns (bool) {\r... */\n    tag_84:\n        /* \"polygon token claim/ERC721.sol\":4677:4681  bool */\n      0x00\n        /* \"polygon token claim/ERC721.sol\":4701:4719  _operatorApprovals */\n      0x05\n        /* \"polygon token claim/ERC721.sol\":4701:4726  _operatorApprovals[owner] */\n      0x00\n        /* \"polygon token claim/ERC721.sol\":4720:4725  owner */\n      dup5\n        /* \"polygon token claim/ERC721.sol\":4701:4726  _operatorApprovals[owner] */\n      0xffffffffffffffffffffffffffffffffffffffff\n      and\n      0xffffffffffffffffffffffffffffffffffffffff\n      and\n      dup2\n      mstore\n      0x20\n      add\n      swap1\n      dup2\n      mstore\n      0x20\n      add\n      0x00\n      keccak256\n        /* \"polygon token claim/ERC721.sol\":4701:4736  _operatorApprovals[owner][operator] */\n      0x00\n        /* \"polygon token claim/ERC721.sol\":4727:4735  operator */\n      dup4\n        /* \"polygon token claim/ERC721.sol\":4701:4736  _operatorApprovals[owner][operator] */\n      0xffffffffffffffffffffffffffffffffffffffff\n      and\n      0xffffffffffffffffffffffffffffffffffffffff\n      and\n      dup2\n      mstore\n      0x20\n      add\n      swap1\n      dup2\n      mstore\n      0x20\n      add\n      0x00\n      keccak256\n      0x00\n      swap1\n      sload\n      swap1\n      0x0100\n      exp\n      swap1\n      div\n      0xff\n      and\n        /* \"polygon token claim/ERC721.sol\":4694:4736  return _operatorApprovals[owner][operator] */\n      swap1\n      pop\n        /* \"polygon token claim/ERC721.sol\":4580:4744  function isApprovedForAll(address owner, address operator) public view virtual override returns (bool) {\r... */\n      swap3\n      swap2\n      pop\n      pop\n      jump\t// out\n        /* \"polygon token claim/ERC165.sol\":854:1011  function supportsInterface(bytes4 interfaceId) public view virtual override returns (bool) {\r... */\n    tag_90:\n        /* \"polygon token claim/ERC165.sol\":939:943  bool */\n      0x00\n        /* \"polygon token claim/ERC165.sol\":978:1003  type(IERC165).interfaceId */\n      0x01ffc9a700000000000000000000000000000000000000000000000000000000\n        /* \"polygon token claim/ERC165.sol\":963:1003  interfaceId == type(IERC165).interfaceId */\n      not(0xffffffffffffffffffffffffffffffffffffffffffffffffffffffff)\n      and\n        /* \"polygon token claim/ERC165.sol\":963:974  interfaceId */\n      dup3\n        /* \"polygon token claim/ERC165.sol\":963:1003  interfaceId == type(IERC165).interfaceId */\n      not(0xffffffffffffffffffffffffffffffffffffffffffffffffffffffff)\n      and\n      eq\n        /* \"polygon token claim/ERC165.sol\":956:1003  return interfaceId == type(IERC165).interfaceId */\n      swap1\n      pop\n        /* \"polygon token claim/ERC165.sol\":854:1011  function supportsInterface(bytes4 interfaceId) public view virtual override returns (bool) {\r... */\n      swap2\n      swap1\n      pop\n      jump\t// out\n        /* \"polygon token claim/ERC721.sol\":7315:7442  function _exists(uint256 tokenId) internal view virtual returns (bool) {\r... */\n    tag_100:\n        /* \"polygon token claim/ERC721.sol\":7380:7384  bool */\n      0x00\n        /* \"polygon token claim/ERC721.sol\":7432:7433  0 */\n      dup1\n        /* \"polygon token claim/ERC721.sol\":7404:7434  _owners[tokenId] != address(0) */\n      0xffffffffffffffffffffffffffffffffffffffff\n      and\n        /* \"polygon token claim/ERC721.sol\":7404:7411  _owners */\n      0x02\n        /* \"polygon token claim/ERC721.sol\":7404:7420  _owners[tokenId] */\n      0x00\n        /* \"polygon token claim/ERC721.sol\":7412:7419  tokenId */\n      dup5\n        /* \"polygon token claim/ERC721.sol\":7404:7420  _owners[tokenId] */\n      dup2\n      mstore\n      0x20\n      add\n      swap1\n      dup2\n      mstore\n      0x20\n      add\n      0x00\n      keccak256\n      0x00\n      swap1\n      sload\n      swap1\n      0x0100\n      exp\n      swap1\n      div\n      0xffffffffffffffffffffffffffffffffffffffff\n      and\n        /* \"polygon token claim/ERC721.sol\":7404:7434  _owners[tokenId] != address(0) */\n      0xffffffffffffffffffffffffffffffffffffffff\n      and\n      eq\n      iszero\n        /* \"polygon token claim/ERC721.sol\":7397:7434  return _owners[tokenId] != address(0) */\n      swap1\n      pop\n        /* \"polygon token claim/ERC721.sol\":7315:7442  function _exists(uint256 tokenId) internal view virtual returns (bool) {\r... */\n      swap2\n      swap1\n      pop\n      jump\t// out\n        /* \"polygon token claim/Context.sol\":656:754  function _msgSender() internal view virtual returns (address) {\r... */\n    tag_110:\n        /* \"polygon token claim/Context.sol\":709:716  address */\n      0x00\n        /* \"polygon token claim/Context.sol\":736:746  msg.sender */\n      caller\n        /* \"polygon token claim/Context.sol\":729:746  return msg.sender */\n      swap1\n      pop\n        /* \"polygon token claim/Context.sol\":656:754  function _msgSender() internal view virtual returns (address) {\r... */\n      swap1\n      jump\t// out\n        /* \"polygon token claim/ERC721.sol\":11461:11635  function _approve(address to, uint256 tokenId) internal virtual {\r... */\n    tag_118:\n        /* \"polygon token claim/ERC721.sol\":11563:11565  to */\n      dup2\n        /* \"polygon token claim/ERC721.sol\":11536:11551  _tokenApprovals */\n      0x04\n        /* \"polygon token claim/ERC721.sol\":11536:11560  _tokenApprovals[tokenId] */\n      0x00\n        /* \"polygon token claim/ERC721.sol\":11552:11559  tokenId */\n      dup4\n        /* \"polygon token claim/ERC721.sol\":11536:11560  _tokenApprovals[tokenId] */\n      dup2\n      mstore\n      0x20\n      add\n      swap1\n      dup2\n      mstore\n      0x20\n      add\n      0x00\n      keccak256\n      0x00\n        /* \"polygon token claim/ERC721.sol\":11536:11565  _tokenApprovals[tokenId] = to */\n      0x0100\n      exp\n      dup2\n      sload\n      dup2\n      0xffffffffffffffffffffffffffffffffffffffff\n      mul\n      not\n      and\n      swap1\n      dup4\n      0xffffffffffffffffffffffffffffffffffffffff\n      and\n      mul\n      or\n      swap1\n      sstore\n      pop\n        /* \"polygon token claim/ERC721.sol\":11619:11626  tokenId */\n      dup1\n        /* \"polygon token claim/ERC721.sol\":11615:11617  to */\n      dup3\n        /* \"polygon token claim/ERC721.sol\":11581:11627  Approval(ERC721.ownerOf(tokenId), to, tokenId) */\n      0xffffffffffffffffffffffffffffffffffffffff\n      and\n        /* \"polygon token claim/ERC721.sol\":11590:11613  ERC721.ownerOf(tokenId) */\n      tag_192\n        /* \"polygon token claim/ERC721.sol\":11605:11612  tokenId */\n      dup4\n        /* \"polygon token claim/ERC721.sol\":11590:11604  ERC721.ownerOf */\n      tag_56\n        /* \"polygon token claim/ERC721.sol\":11590:11613  ERC721.ownerOf(tokenId) */\n      jump\t// in\n    tag_192:\n        /* \"polygon token claim/ERC721.sol\":11581:11627  Approval(ERC721.ownerOf(tokenId), to, tokenId) */\n      0xffffffffffffffffffffffffffffffffffffffff\n      and\n      0x8c5be1e5ebec7d5bd14f71427d1e84f3dd0314c0f7b2291e5b200ac8c7c3b925\n      mload(0x40)\n      mload(0x40)\n      dup1\n      swap2\n      sub\n      swap1\n      log4\n        /* \"polygon token claim/ERC721.sol\":11461:11635  function _approve(address to, uint256 tokenId) internal virtual {\r... */\n      pop\n      pop\n      jump\t// out\n        /* \"polygon token claim/ERC721.sol\":7609:7957  function _isApprovedOrOwner(address spender, uint256 tokenId) internal view virtual returns (bool) {\r... */\n    tag_122:\n        /* \"polygon token claim/ERC721.sol\":7702:7706  bool */\n      0x00\n        /* \"polygon token claim/ERC721.sol\":7727:7743  _exists(tokenId) */\n      tag_194\n        /* \"polygon token claim/ERC721.sol\":7735:7742  tokenId */\n      dup3\n        /* \"polygon token claim/ERC721.sol\":7727:7734  _exists */\n      tag_100\n        /* \"polygon token claim/ERC721.sol\":7727:7743  _exists(tokenId) */\n      jump\t// in\n    tag_194:\n        /* \"polygon token claim/ERC721.sol\":7719:7792  require(_exists(tokenId), \"ERC721: operator query for nonexistent token\") */\n      tag_195\n      jumpi\n      mload(0x40)\n      0x08c379a000000000000000000000000000000000000000000000000000000000\n      dup2\n      mstore\n      0x04\n      add\n      tag_196\n      swap1\n      tag_197\n      jump\t// in\n    tag_196:\n      mload(0x40)\n      dup1\n      swap2\n      sub\n      swap1\n      revert\n    tag_195:\n        /* \"polygon token claim/ERC721.sol\":7803:7816  address owner */\n      0x00\n        /* \"polygon token claim/ERC721.sol\":7819:7842  ERC721.ownerOf(tokenId) */\n      tag_198\n        /* \"polygon token claim/ERC721.sol\":7834:7841  tokenId */\n      dup4\n        /* \"polygon token claim/ERC721.sol\":7819:7833  ERC721.ownerOf */\n      tag_56\n        /* \"polygon token claim/ERC721.sol\":7819:7842  ERC721.ownerOf(tokenId) */\n      jump\t// in\n    tag_198:\n        /* \"polygon token claim/ERC721.sol\":7803:7842  address owner = ERC721.ownerOf(tokenId) */\n      swap1\n      pop\n        /* \"polygon token claim/ERC721.sol\":7872:7877  owner */\n      dup1\n        /* \"polygon token claim/ERC721.sol\":7861:7877  spender == owner */\n      0xffffffffffffffffffffffffffffffffffffffff\n      and\n        /* \"polygon token claim/ERC721.sol\":7861:7868  spender */\n      dup5\n        /* \"polygon token claim/ERC721.sol\":7861:7877  spender == owner */\n      0xffffffffffffffffffffffffffffffffffffffff\n      and\n      eq\n        /* \"polygon token claim/ERC721.sol\":7861:7913  spender == owner || isApprovedForAll(owner, spender) */\n      dup1\n      tag_199\n      jumpi\n      pop\n        /* \"polygon token claim/ERC721.sol\":7881:7913  isApprovedForAll(owner, spender) */\n      tag_200\n        /* \"polygon token claim/ERC721.sol\":7898:7903  owner */\n      dup2\n        /* \"polygon token claim/ERC721.sol\":7905:7912  spender */\n      dup6\n        /* \"polygon token claim/ERC721.sol\":7881:7897  isApprovedForAll */\n      tag_84\n        /* \"polygon token claim/ERC721.sol\":7881:7913  isApprovedForAll(owner, spender) */\n      jump\t// in\n    tag_200:\n        /* \"polygon token claim/ERC721.sol\":7861:7913  spender == owner || isApprovedForAll(owner, spender) */\n    tag_199:\n        /* \"polygon token claim/ERC721.sol\":7861:7948  spender == owner || isApprovedForAll(owner, spender) || getApproved(tokenId) == spender */\n      dup1\n      tag_201\n      jumpi\n      pop\n        /* \"polygon token claim/ERC721.sol\":7941:7948  spender */\n      dup4\n        /* \"polygon token claim/ERC721.sol\":7917:7948  getApproved(tokenId) == spender */\n      0xffffffffffffffffffffffffffffffffffffffff\n      and\n        /* \"polygon token claim/ERC721.sol\":7917:7937  getApproved(tokenId) */\n      tag_202\n        /* \"polygon token claim/ERC721.sol\":7929:7936  tokenId */\n      dup5\n        /* \"polygon token claim/ERC721.sol\":7917:7928  getApproved */\n      tag_34\n        /* \"polygon token claim/ERC721.sol\":7917:7937  getApproved(tokenId) */\n      jump\t// in\n    tag_202:\n        /* \"polygon token claim/ERC721.sol\":7917:7948  getApproved(tokenId) == spender */\n      0xffffffffffffffffffffffffffffffffffffffff\n      and\n      eq\n        /* \"polygon token claim/ERC721.sol\":7861:7948  spender == owner || isApprovedForAll(owner, spender) || getApproved(tokenId) == spender */\n    tag_201:\n        /* \"polygon token claim/ERC721.sol\":7853:7949  return (spender == owner || isApprovedForAll(owner, spender) || getApproved(tokenId) == spender) */\n      swap2\n      pop\n      pop\n        /* \"polygon token claim/ERC721.sol\":7609:7957  function _isApprovedOrOwner(address spender, uint256 tokenId) internal view virtual returns (bool) {\r... */\n      swap3\n      swap2\n      pop\n      pop\n      jump\t// out\n        /* \"polygon token claim/ERC721.sol\":10718:11343  function _transfer(\r... */\n    tag_127:\n        /* \"polygon token claim/ERC721.sol\":10877:10881  from */\n      dup3\n        /* \"polygon token claim/ERC721.sol\":10850:10881  ERC721.ownerOf(tokenId) == from */\n      0xffffffffffffffffffffffffffffffffffffffff\n      and\n        /* \"polygon token claim/ERC721.sol\":10850:10873  ERC721.ownerOf(tokenId) */\n      tag_204\n        /* \"polygon token claim/ERC721.sol\":10865:10872  tokenId */\n      dup3\n        /* \"polygon token claim/ERC721.sol\":10850:10864  ERC721.ownerOf */\n      tag_56\n        /* \"polygon token claim/ERC721.sol\":10850:10873  ERC721.ownerOf(tokenId) */\n      jump\t// in\n    tag_204:\n        /* \"polygon token claim/ERC721.sol\":10850:10881  ERC721.ownerOf(tokenId) == from */\n      0xffffffffffffffffffffffffffffffffffffffff\n      and\n      eq\n        /* \"polygon token claim/ERC721.sol\":10842:10923  require(ERC721.ownerOf(tokenId) == from, \"ERC721: transfer from incorrect owner\") */\n      tag_205\n      jumpi\n      mload(0x40)\n      0x08c379a000000000000000000000000000000000000000000000000000000000\n      dup2\n      mstore\n      0x04\n      add\n      tag_206\n      swap1\n      tag_207\n      jump\t// in\n    tag_206:\n      mload(0x40)\n      dup1\n      swap2\n      sub\n      swap1\n      revert\n    tag_205:\n        /* \"polygon token claim/ERC721.sol\":10956:10957  0 */\n      0x00\n        /* \"polygon token claim/ERC721.sol\":10942:10958  to != address(0) */\n      0xffffffffffffffffffffffffffffffffffffffff\n      and\n        /* \"polygon token claim/ERC721.sol\":10942:10944  to */\n      dup3\n        /* \"polygon token claim/ERC721.sol\":10942:10958  to != address(0) */\n      0xffffffffffffffffffffffffffffffffffffffff\n      and\n      eq\n      iszero\n        /* \"polygon token claim/ERC721.sol\":10934:10999  require(to != address(0), \"ERC721: transfer to the zero address\") */\n      tag_208\n      jumpi\n      mload(0x40)\n      0x08c379a000000000000000000000000000000000000000000000000000000000\n      dup2\n      mstore\n      0x04\n      add\n      tag_209\n      swap1\n      tag_210\n      jump\t// in\n    tag_209:\n      mload(0x40)\n      dup1\n      swap2\n      sub\n      swap1\n      revert\n    tag_208:\n        /* \"polygon token claim/ERC721.sol\":11012:11051  _beforeTokenTransfer(from, to, tokenId) */\n      tag_211\n        /* \"polygon token claim/ERC721.sol\":11033:11037  from */\n      dup4\n        /* \"polygon token claim/ERC721.sol\":11039:11041  to */\n      dup4\n        /* \"polygon token claim/ERC721.sol\":11043:11050  tokenId */\n      dup4\n        /* \"polygon token claim/ERC721.sol\":11012:11032  _beforeTokenTransfer */\n      tag_212\n        /* \"polygon token claim/ERC721.sol\":11012:11051  _beforeTokenTransfer(from, to, tokenId) */\n      jump\t// in\n    tag_211:\n        /* \"polygon token claim/ERC721.sol\":11116:11145  _approve(address(0), tokenId) */\n      tag_213\n        /* \"polygon token claim/ERC721.sol\":11133:11134  0 */\n      0x00\n        /* \"polygon token claim/ERC721.sol\":11137:11144  tokenId */\n      dup3\n        /* \"polygon token claim/ERC721.sol\":11116:11124  _approve */\n      tag_118\n        /* \"polygon token claim/ERC721.sol\":11116:11145  _approve(address(0), tokenId) */\n      jump\t// in\n    tag_213:\n        /* \"polygon token claim/ERC721.sol\":11177:11178  1 */\n      0x01\n        /* \"polygon token claim/ERC721.sol\":11158:11167  _balances */\n      0x03\n        /* \"polygon token claim/ERC721.sol\":11158:11173  _balances[from] */\n      0x00\n        /* \"polygon token claim/ERC721.sol\":11168:11172  from */\n      dup6\n        /* \"polygon token claim/ERC721.sol\":11158:11173  _balances[from] */\n      0xffffffffffffffffffffffffffffffffffffffff\n      and\n      0xffffffffffffffffffffffffffffffffffffffff\n      and\n      dup2\n      mstore\n      0x20\n      add\n      swap1\n      dup2\n      mstore\n      0x20\n      add\n      0x00\n      keccak256\n      0x00\n        /* \"polygon token claim/ERC721.sol\":11158:11178  _balances[from] -= 1 */\n      dup3\n      dup3\n      sload\n      tag_214\n      swap2\n      swap1\n      tag_215\n      jump\t// in\n    tag_214:\n      swap3\n      pop\n      pop\n      dup2\n      swap1\n      sstore\n      pop\n        /* \"polygon token claim/ERC721.sol\":11206:11207  1 */\n      0x01\n        /* \"polygon token claim/ERC721.sol\":11189:11198  _balances */\n      0x03\n        /* \"polygon token claim/ERC721.sol\":11189:11202  _balances[to] */\n      0x00\n        /* \"polygon token claim/ERC721.sol\":11199:11201  to */\n      dup5\n        /* \"polygon token claim/ERC721.sol\":11189:11202  _balances[to] */\n      0xffffffffffffffffffffffffffffffffffffffff\n      and\n      0xffffffffffffffffffffffffffffffffffffffff\n      and\n      dup2\n      mstore\n      0x20\n      add\n      swap1\n      dup2\n      mstore\n      0x20\n      add\n      0x00\n      keccak256\n      0x00\n        /* \"polygon token claim/ERC721.sol\":11189:11207  _balances[to] += 1 */\n      dup3\n      dup3\n      sload\n      tag_216\n      swap2\n      swap1\n      tag_217\n      jump\t// in\n    tag_216:\n      swap3\n      pop\n      pop\n      dup2\n      swap1\n      sstore\n      pop\n        /* \"polygon token claim/ERC721.sol\":11237:11239  to */\n      dup2\n        /* \"polygon token claim/ERC721.sol\":11218:11225  _owners */\n      0x02\n        /* \"polygon token claim/ERC721.sol\":11218:11234  _owners[tokenId] */\n      0x00\n        /* \"polygon token claim/ERC721.sol\":11226:11233  tokenId */\n      dup4\n        /* \"polygon token claim/ERC721.sol\":11218:11234  _owners[tokenId] */\n      dup2\n      mstore\n      0x20\n      add\n      swap1\n      dup2\n      mstore\n      0x20\n      add\n      0x00\n      keccak256\n      0x00\n        /* \"polygon token claim/ERC721.sol\":11218:11239  _owners[tokenId] = to */\n      0x0100\n      exp\n      dup2\n      sload\n      dup2\n      0xffffffffffffffffffffffffffffffffffffffff\n      mul\n      not\n      and\n      swap1\n      dup4\n      0xffffffffffffffffffffffffffffffffffffffff\n      and\n      mul\n      or\n      swap1\n      sstore\n      pop\n        /* \"polygon token claim/ERC721.sol\":11276:11283  tokenId */\n      dup1\n        /* \"polygon token claim/ERC721.sol\":11272:11274  to */\n      dup3\n        /* \"polygon token claim/ERC721.sol\":11257:11284  Transfer(from, to, tokenId) */\n      0xffffffffffffffffffffffffffffffffffffffff\n      and\n        /* \"polygon token claim/ERC721.sol\":11266:11270  from */\n      dup5\n        /* \"polygon token claim/ERC721.sol\":11257:11284  Transfer(from, to, tokenId) */\n      0xffffffffffffffffffffffffffffffffffffffff\n      and\n      0xddf252ad1be2c89b69c2b068fc378daa952ba7f163c4a11628f55a4df523b3ef\n      mload(0x40)\n      mload(0x40)\n      dup1\n      swap2\n      sub\n      swap1\n      log4\n        /* \"polygon token claim/ERC721.sol\":11297:11335  _afterTokenTransfer(from, to, tokenId) */\n      tag_218\n        /* \"polygon token claim/ERC721.sol\":11317:11321  from */\n      dup4\n        /* \"polygon token claim/ERC721.sol\":11323:11325  to */\n      dup4\n        /* \"polygon token claim/ERC721.sol\":11327:11334  tokenId */\n      dup4\n        /* \"polygon token claim/ERC721.sol\":11297:11316  _afterTokenTransfer */\n      tag_219\n        /* \"polygon token claim/ERC721.sol\":11297:11335  _afterTokenTransfer(from, to, tokenId) */\n      jump\t// in\n    tag_218:\n        /* \"polygon token claim/ERC721.sol\":10718:11343  function _transfer(\r... */\n      pop\n      pop\n      pop\n      jump\t// out\n        /* \"polygon token claim/ERC721.sol\":11777:12092  function _setApprovalForAll(\r... */\n    tag_166:\n        /* \"polygon token claim/ERC721.sol\":11932:11940  operator */\n      dup2\n        /* \"polygon token claim/ERC721.sol\":11923:11940  owner != operator */\n      0xffffffffffffffffffffffffffffffffffffffff\n      and\n        /* \"polygon token claim/ERC721.sol\":11923:11928  owner */\n      dup4\n        /* \"polygon token claim/ERC721.sol\":11923:11940  owner != operator */\n      0xffffffffffffffffffffffffffffffffffffffff\n      and\n      eq\n      iszero\n        /* \"polygon token claim/ERC721.sol\":11915:11970  require(owner != operator, \"ERC721: approve to caller\") */\n      tag_221\n      jumpi\n      mload(0x40)\n      0x08c379a000000000000000000000000000000000000000000000000000000000\n      dup2\n      mstore\n      0x04\n      add\n      tag_222\n      swap1\n      tag_223\n      jump\t// in\n    tag_222:\n      mload(0x40)\n      dup1\n      swap2\n      sub\n      swap1\n      revert\n    tag_221:\n        /* \"polygon token claim/ERC721.sol\":12019:12027  approved */\n      dup1\n        /* \"polygon token claim/ERC721.sol\":11981:11999  _operatorApprovals */\n      0x05\n        /* \"polygon token claim/ERC721.sol\":11981:12006  _operatorApprovals[owner] */\n      0x00\n        /* \"polygon token claim/ERC721.sol\":12000:12005  owner */\n      dup6\n        /* \"polygon token claim/ERC721.sol\":11981:12006  _operatorApprovals[owner] */\n      0xffffffffffffffffffffffffffffffffffffffff\n      and\n      0xffffffffffffffffffffffffffffffffffffffff\n      and\n      dup2\n      mstore\n      0x20\n      add\n      swap1\n      dup2\n      mstore\n      0x20\n      add\n      0x00\n      keccak256\n        /* \"polygon token claim/ERC721.sol\":11981:12016  _operatorApprovals[owner][operator] */\n      0x00\n        /* \"polygon token claim/ERC721.sol\":12007:12015  operator */\n      dup5\n        /* \"polygon token claim/ERC721.sol\":11981:12016  _operatorApprovals[owner][operator] */\n      0xffffffffffffffffffffffffffffffffffffffff\n      and\n      0xffffffffffffffffffffffffffffffffffffffff\n      and\n      dup2\n      mstore\n      0x20\n      add\n      swap1\n      dup2\n      mstore\n      0x20\n      add\n      0x00\n      keccak256\n      0x00\n        /* \"polygon token claim/ERC721.sol\":11981:12027  _operatorApprovals[owner][operator] = approved */\n      0x0100\n      exp\n      dup2\n      sload\n      dup2\n      0xff\n      mul\n      not\n      and\n      swap1\n      dup4\n      iszero\n      iszero\n      mul\n      or\n      swap1\n      sstore\n      pop\n        /* \"polygon token claim/ERC721.sol\":12065:12073  operator */\n      dup2\n        /* \"polygon token claim/ERC721.sol\":12043:12084  ApprovalForAll(owner, operator, approved) */\n      0xffffffffffffffffffffffffffffffffffffffff\n      and\n        /* \"polygon token claim/ERC721.sol\":12058:12063  owner */\n      dup4\n        /* \"polygon token claim/ERC721.sol\":12043:12084  ApprovalForAll(owner, operator, approved) */\n      0xffffffffffffffffffffffffffffffffffffffff\n      and\n      0x17307eab39ab6107e8899845ad3d59bd9653f200f220920489ca2b5937696c31\n        /* \"polygon token claim/ERC721.sol\":12075:12083  approved */\n      dup4\n        /* \"polygon token claim/ERC721.sol\":12043:12084  ApprovalForAll(owner, operator, approved) */\n      mload(0x40)\n      tag_224\n      swap2\n      swap1\n      tag_26\n      jump\t// in\n    tag_224:\n      mload(0x40)\n      dup1\n      swap2\n      sub\n      swap1\n      log3\n        /* \"polygon token claim/ERC721.sol\":11777:12092  function _setApprovalForAll(\r... */\n      pop\n      pop\n      pop\n      jump\t// out\n        /* \"polygon token claim/ERC721.sol\":6687:7002  function _safeTransfer(\r... */\n    tag_173:\n        /* \"polygon token claim/ERC721.sol\":6844:6872  _transfer(from, to, tokenId) */\n      tag_226\n        /* \"polygon token claim/ERC721.sol\":6854:6858  from */\n      dup5\n        /* \"polygon token claim/ERC721.sol\":6860:6862  to */\n      dup5\n        /* \"polygon token claim/ERC721.sol\":6864:6871  tokenId */\n      dup5\n        /* \"polygon token claim/ERC721.sol\":6844:6853  _transfer */\n      tag_127\n        /* \"polygon token claim/ERC721.sol\":6844:6872  _transfer(from, to, tokenId) */\n      jump\t// in\n    tag_226:\n        /* \"polygon token claim/ERC721.sol\":6891:6939  _checkOnERC721Received(from, to, tokenId, _data) */\n      tag_227\n        /* \"polygon token claim/ERC721.sol\":6914:6918  from */\n      dup5\n        /* \"polygon token claim/ERC721.sol\":6920:6922  to */\n      dup5\n        /* \"polygon token claim/ERC721.sol\":6924:6931  tokenId */\n      dup5\n        /* \"polygon token claim/ERC721.sol\":6933:6938  _data */\n      dup5\n        /* \"polygon token claim/ERC721.sol\":6891:6913  _checkOnERC721Received */\n      tag_228\n        /* \"polygon token claim/ERC721.sol\":6891:6939  _checkOnERC721Received(from, to, tokenId, _data) */\n      jump\t// in\n    tag_227:\n        /* \"polygon token claim/ERC721.sol\":6883:6994  require(_checkOnERC721Received(from, to, tokenId, _data), \"ERC721: transfer to non ERC721Receiver implementer\") */\n      tag_229\n      jumpi\n      mload(0x40)\n      0x08c379a000000000000000000000000000000000000000000000000000000000\n      dup2\n      mstore\n      0x04\n      add\n      tag_230\n      swap1\n      tag_231\n      jump\t// in\n    tag_230:\n      mload(0x40)\n      dup1\n      swap2\n      sub\n      swap1\n      revert\n    tag_229:\n        /* \"polygon token claim/ERC721.sol\":6687:7002  function _safeTransfer(\r... */\n      pop\n      pop\n      pop\n      pop\n      jump\t// out\n        /* \"polygon token claim/ERC721.sol\":3428:3522  function _baseURI() internal view virtual returns (string memory) {\r... */\n    tag_180:\n        /* \"polygon token claim/ERC721.sol\":3479:3492  string memory */\n      0x60\n        /* \"polygon token claim/ERC721.sol\":3505:3514  return \"\" */\n      mload(0x40)\n      dup1\n      0x20\n      add\n      0x40\n      mstore\n      dup1\n      0x00\n      dup2\n      mstore\n      pop\n      swap1\n      pop\n        /* \"polygon token claim/ERC721.sol\":3428:3522  function _baseURI() internal view virtual returns (string memory) {\r... */\n      swap1\n      jump\t// out\n        /* \"polygon token claim/Strings.sol\":342:1065  function toString(uint256 value) internal pure returns (string memory) {\r... */\n    tag_184:\n        /* \"polygon token claim/Strings.sol\":398:411  string memory */\n      0x60\n        /* \"polygon token claim/Strings.sol\":628:629  0 */\n      0x00\n        /* \"polygon token claim/Strings.sol\":619:624  value */\n      dup3\n        /* \"polygon token claim/Strings.sol\":619:629  value == 0 */\n      eq\n        /* \"polygon token claim/Strings.sol\":615:668  if (value == 0) {\r... */\n      iszero\n      tag_234\n      jumpi\n        /* \"polygon token claim/Strings.sol\":646:656  return \"0\" */\n      mload(0x40)\n      dup1\n      0x40\n      add\n      0x40\n      mstore\n      dup1\n      0x01\n      dup2\n      mstore\n      0x20\n      add\n      0x3000000000000000000000000000000000000000000000000000000000000000\n      dup2\n      mstore\n      pop\n      swap1\n      pop\n      jump(tag_233)\n        /* \"polygon token claim/Strings.sol\":615:668  if (value == 0) {\r... */\n    tag_234:\n        /* \"polygon token claim/Strings.sol\":678:690  uint256 temp */\n      0x00\n        /* \"polygon token claim/Strings.sol\":693:698  value */\n      dup3\n        /* \"polygon token claim/Strings.sol\":678:698  uint256 temp = value */\n      swap1\n      pop\n        /* \"polygon token claim/Strings.sol\":709:723  uint256 digits */\n      0x00\n        /* \"polygon token claim/Strings.sol\":734:812  while (temp != 0) {\r... */\n    tag_235:\n        /* \"polygon token claim/Strings.sol\":749:750  0 */\n      0x00\n        /* \"polygon token claim/Strings.sol\":741:745  temp */\n      dup3\n        /* \"polygon token claim/Strings.sol\":741:750  temp != 0 */\n      eq\n        /* \"polygon token claim/Strings.sol\":734:812  while (temp != 0) {\r... */\n      tag_236\n      jumpi\n        /* \"polygon token claim/Strings.sol\":767:775  digits++ */\n      dup1\n      dup1\n      tag_237\n      swap1\n      tag_147\n      jump\t// in\n    tag_237:\n      swap2\n      pop\n      pop\n        /* \"polygon token claim/Strings.sol\":798:800  10 */\n      0x0a\n        /* \"polygon token claim/Strings.sol\":790:800  temp /= 10 */\n      dup3\n      tag_238\n      swap2\n      swap1\n      tag_239\n      jump\t// in\n    tag_238:\n      swap2\n      pop\n        /* \"polygon token claim/Strings.sol\":734:812  while (temp != 0) {\r... */\n      jump(tag_235)\n    tag_236:\n        /* \"polygon token claim/Strings.sol\":822:841  bytes memory buffer */\n      0x00\n        /* \"polygon token claim/Strings.sol\":854:860  digits */\n      dup2\n        /* \"polygon token claim/Strings.sol\":844:861  new bytes(digits) */\n      0xffffffffffffffff\n      dup2\n      gt\n      iszero\n      tag_240\n      jumpi\n      tag_241\n      tag_134\n      jump\t// in\n    tag_241:\n    tag_240:\n      mload(0x40)\n      swap1\n      dup1\n      dup3\n      mstore\n      dup1\n      0x1f\n      add\n      not(0x1f)\n      and\n      0x20\n      add\n      dup3\n      add\n      0x40\n      mstore\n      dup1\n      iszero\n      tag_242\n      jumpi\n      dup2\n      0x20\n      add\n      0x01\n      dup3\n      mul\n      dup1\n      calldatasize\n      dup4\n      calldatacopy\n      dup1\n      dup3\n      add\n      swap2\n      pop\n      pop\n      swap1\n      pop\n    tag_242:\n      pop\n        /* \"polygon token claim/Strings.sol\":822:861  bytes memory buffer = new bytes(digits) */\n      swap1\n      pop\n        /* \"polygon token claim/Strings.sol\":872:1026  while (value != 0) {\r... */\n    tag_243:\n        /* \"polygon token claim/Strings.sol\":888:889  0 */\n      0x00\n        /* \"polygon token claim/Strings.sol\":879:884  value */\n      dup6\n        /* \"polygon token claim/Strings.sol\":879:889  value != 0 */\n      eq\n        /* \"polygon token claim/Strings.sol\":872:1026  while (value != 0) {\r... */\n      tag_244\n      jumpi\n        /* \"polygon token claim/Strings.sol\":916:917  1 */\n      0x01\n        /* \"polygon token claim/Strings.sol\":906:917  digits -= 1 */\n      dup3\n      tag_245\n      swap2\n      swap1\n      tag_215\n      jump\t// in\n    tag_245:\n      swap2\n      pop\n        /* \"polygon token claim/Strings.sol\":983:985  10 */\n      0x0a\n        /* \"polygon token claim/Strings.sol\":975:980  value */\n      dup6\n        /* \"polygon token claim/Strings.sol\":975:985  value % 10 */\n      tag_246\n      swap2\n      swap1\n      tag_247\n      jump\t// in\n    tag_246:\n        /* \"polygon token claim/Strings.sol\":962:964  48 */\n      0x30\n        /* \"polygon token claim/Strings.sol\":962:986  48 + uint256(value % 10) */\n      tag_248\n      swap2\n      swap1\n      tag_217\n      jump\t// in\n    tag_248:\n        /* \"polygon token claim/Strings.sol\":949:988  bytes1(uint8(48 + uint256(value % 10))) */\n      0xf8\n      shl\n        /* \"polygon token claim/Strings.sol\":932:938  buffer */\n      dup2\n        /* \"polygon token claim/Strings.sol\":939:945  digits */\n      dup4\n        /* \"polygon token claim/Strings.sol\":932:946  buffer[digits] */\n      dup2\n      mload\n      dup2\n      lt\n      tag_249\n      jumpi\n      tag_250\n      tag_145\n      jump\t// in\n    tag_250:\n    tag_249:\n      0x20\n      add\n      add\n        /* \"polygon token claim/Strings.sol\":932:988  buffer[digits] = bytes1(uint8(48 + uint256(value % 10))) */\n      swap1\n      not(0xffffffffffffffffffffffffffffffffffffffffffffffffffffffffffffff)\n      and\n      swap1\n      dup2\n      0x00\n      byte\n      swap1\n      mstore8\n      pop\n        /* \"polygon token claim/Strings.sol\":1012:1014  10 */\n      0x0a\n        /* \"polygon token claim/Strings.sol\":1003:1014  value /= 10 */\n      dup6\n      tag_251\n      swap2\n      swap1\n      tag_239\n      jump\t// in\n    tag_251:\n      swap5\n      pop\n        /* \"polygon token claim/Strings.sol\":872:1026  while (value != 0) {\r... */\n      jump(tag_243)\n    tag_244:\n        /* \"polygon token claim/Strings.sol\":1050:1056  buffer */\n      dup1\n        /* \"polygon token claim/Strings.sol\":1036:1057  return string(buffer) */\n      swap4\n      pop\n      pop\n      pop\n      pop\n        /* \"polygon token claim/Strings.sol\":342:1065  function toString(uint256 value) internal pure returns (string memory) {\r... */\n    tag_233:\n      swap2\n      swap1\n      pop\n      jump\t// out\n        /* \"polygon token claim/ERC721.sol\":14028:14154  function _beforeTokenTransfer(\r... */\n    tag_212:\n      pop\n      pop\n      pop\n      jump\t// out\n        /* \"polygon token claim/ERC721.sol\":14539:14664  function _afterTokenTransfer(\r... */\n    tag_219:\n      pop\n      pop\n      pop\n      jump\t// out\n        /* \"polygon token claim/ERC721.sol\":12657:13456  function _checkOnERC721Received(\r... */\n    tag_228:\n        /* \"polygon token claim/ERC721.sol\":12812:12816  bool */\n      0x00\n        /* \"polygon token claim/ERC721.sol\":12833:12848  to.isContract() */\n      tag_255\n        /* \"polygon token claim/ERC721.sol\":12833:12835  to */\n      dup5\n        /* \"polygon token claim/ERC721.sol\":12833:12846  to.isContract */\n      0xffffffffffffffffffffffffffffffffffffffff\n      and\n      tag_256\n        /* \"polygon token claim/ERC721.sol\":12833:12848  to.isContract() */\n      jump\t// in\n    tag_255:\n        /* \"polygon token claim/ERC721.sol\":12829:13449  if (to.isContract()) {\r... */\n      iszero\n      tag_257\n      jumpi\n        /* \"polygon token claim/ERC721.sol\":12885:12887  to */\n      dup4\n        /* \"polygon token claim/ERC721.sol\":12869:12905  IERC721Receiver(to).onERC721Received */\n      0xffffffffffffffffffffffffffffffffffffffff\n      and\n      0x150b7a02\n        /* \"polygon token claim/ERC721.sol\":12906:12918  _msgSender() */\n      tag_258\n        /* \"polygon token claim/ERC721.sol\":12906:12916  _msgSender */\n      tag_110\n        /* \"polygon token claim/ERC721.sol\":12906:12918  _msgSender() */\n      jump\t// in\n    tag_258:\n        /* \"polygon token claim/ERC721.sol\":12920:12924  from */\n      dup8\n        /* \"polygon token claim/ERC721.sol\":12926:12933  tokenId */\n      dup7\n        /* \"polygon token claim/ERC721.sol\":12935:12940  _data */\n      dup7\n        /* \"polygon token claim/ERC721.sol\":12869:12941  IERC721Receiver(to).onERC721Received(_msgSender(), from, tokenId, _data) */\n      mload(0x40)\n      dup6\n      0xffffffff\n      and\n      0xe0\n      shl\n      dup2\n      mstore\n      0x04\n      add\n      tag_259\n      swap5\n      swap4\n      swap3\n      swap2\n      swap1\n      tag_260\n      jump\t// in\n    tag_259:\n      0x20\n      mload(0x40)\n      dup1\n      dup4\n      sub\n      dup2\n      0x00\n      dup8\n      dup1\n      extcodesize\n      iszero\n      dup1\n      iszero\n      tag_261\n      jumpi\n      0x00\n      dup1\n      revert\n    tag_261:\n      pop\n      gas\n      call\n      swap3\n      pop\n      pop\n      pop\n      dup1\n      iszero\n      tag_262\n      jumpi\n      pop\n      mload(0x40)\n      returndatasize\n      not(0x1f)\n      0x1f\n      dup3\n      add\n      and\n      dup3\n      add\n      dup1\n      0x40\n      mstore\n      pop\n      dup2\n      add\n      swap1\n      tag_263\n      swap2\n      swap1\n      tag_264\n      jump\t// in\n    tag_263:\n      0x01\n    tag_262:\n        /* \"polygon token claim/ERC721.sol\":12865:13394  try IERC721Receiver(to).onERC721Received(_msgSender(), from, tokenId, _data) returns (bytes4 retval) {\r... */\n      tag_265\n      jumpi\n      returndatasize\n      dup1\n      0x00\n      dup2\n      eq\n      tag_270\n      jumpi\n      mload(0x40)\n      swap2\n      pop\n      and(add(returndatasize, 0x3f), not(0x1f))\n      dup3\n      add\n      0x40\n      mstore\n      returndatasize\n      dup3\n      mstore\n      returndatasize\n      0x00\n      0x20\n      dup5\n      add\n      returndatacopy\n      jump(tag_269)\n    tag_270:\n      0x60\n      swap2\n      pop\n    tag_269:\n      pop\n        /* \"polygon token claim/ERC721.sol\":13128:13129  0 */\n      0x00\n        /* \"polygon token claim/ERC721.sol\":13111:13117  reason */\n      dup2\n        /* \"polygon token claim/ERC721.sol\":13111:13124  reason.length */\n      mload\n        /* \"polygon token claim/ERC721.sol\":13111:13129  reason.length == 0 */\n      eq\n        /* \"polygon token claim/ERC721.sol\":13107:13379  if (reason.length == 0) {\r... */\n      iszero\n      tag_271\n      jumpi\n        /* \"polygon token claim/ERC721.sol\":13154:13214  revert(\"ERC721: transfer to non ERC721Receiver implementer\") */\n      mload(0x40)\n      0x08c379a000000000000000000000000000000000000000000000000000000000\n      dup2\n      mstore\n      0x04\n      add\n      tag_272\n      swap1\n      tag_231\n      jump\t// in\n    tag_272:\n      mload(0x40)\n      dup1\n      swap2\n      sub\n      swap1\n      revert\n        /* \"polygon token claim/ERC721.sol\":13107:13379  if (reason.length == 0) {\r... */\n    tag_271:\n        /* \"polygon token claim/ERC721.sol\":13329:13335  reason */\n      dup1\n        /* \"polygon token claim/ERC721.sol\":13323:13336  mload(reason) */\n      mload\n        /* \"polygon token claim/ERC721.sol\":13314:13320  reason */\n      dup2\n        /* \"polygon token claim/ERC721.sol\":13310:13312  32 */\n      0x20\n        /* \"polygon token claim/ERC721.sol\":13306:13321  add(32, reason) */\n      add\n        /* \"polygon token claim/ERC721.sol\":13299:13337  revert(add(32, reason), mload(reason)) */\n      revert\n        /* \"polygon token claim/ERC721.sol\":12865:13394  try IERC721Receiver(to).onERC721Received(_msgSender(), from, tokenId, _data) returns (bytes4 retval) {\r... */\n    tag_265:\n        /* \"polygon token claim/ERC721.sol\":13002:13043  IERC721Receiver.onERC721Received.selector */\n      shl(0xe0, 0x150b7a02)\n        /* \"polygon token claim/ERC721.sol\":12992:13043  retval == IERC721Receiver.onERC721Received.selector */\n      not(0xffffffffffffffffffffffffffffffffffffffffffffffffffffffff)\n      and\n        /* \"polygon token claim/ERC721.sol\":12992:12998  retval */\n      dup2\n        /* \"polygon token claim/ERC721.sol\":12992:13043  retval == IERC721Receiver.onERC721Received.selector */\n      not(0xffffffffffffffffffffffffffffffffffffffffffffffffffffffff)\n      and\n      eq\n        /* \"polygon token claim/ERC721.sol\":12985:13043  return retval == IERC721Receiver.onERC721Received.selector */\n      swap2\n      pop\n      pop\n      jump(tag_254)\n        /* \"polygon token claim/ERC721.sol\":12829:13449  if (to.isContract()) {\r... */\n    tag_257:\n        /* \"polygon token claim/ERC721.sol\":13433:13437  true */\n      0x01\n        /* \"polygon token claim/ERC721.sol\":13426:13437  return true */\n      swap1\n      pop\n        /* \"polygon token claim/ERC721.sol\":12657:13456  function _checkOnERC721Received(\r... */\n    tag_254:\n      swap5\n      swap4\n      pop\n      pop\n      pop\n      pop\n      jump\t// out\n        /* \"polygon token claim/Address.sol\":1210:1536  function isContract(address account) internal view returns (bool) {\r... */\n    tag_256:\n        /* \"polygon token claim/Address.sol\":1270:1274  bool */\n      0x00\n        /* \"polygon token claim/Address.sol\":1527:1528  0 */\n      dup1\n        /* \"polygon token claim/Address.sol\":1505:1512  account */\n      dup3\n        /* \"polygon token claim/Address.sol\":1505:1524  account.code.length */\n      0xffffffffffffffffffffffffffffffffffffffff\n      and\n      extcodesize\n        /* \"polygon token claim/Address.sol\":1505:1528  account.code.length > 0 */\n      gt\n        /* \"polygon token claim/Address.sol\":1498:1528  return account.code.length > 0 */\n      swap1\n      pop\n        /* \"polygon token claim/Address.sol\":1210:1536  function isContract(address account) internal view returns (bool) {\r... */\n      swap2\n      swap1\n      pop\n      jump\t// out\n        /* \"#utility.yul\":7:417   */\n    tag_278:\n        /* \"#utility.yul\":84:89   */\n      0x00\n        /* \"#utility.yul\":109:174   */\n      tag_280\n        /* \"#utility.yul\":125:173   */\n      tag_281\n        /* \"#utility.yul\":166:172   */\n      dup5\n        /* \"#utility.yul\":125:173   */\n      tag_282\n      jump\t// in\n    tag_281:\n        /* \"#utility.yul\":109:174   */\n      tag_283\n      jump\t// in\n    tag_280:\n        /* \"#utility.yul\":100:174   */\n      swap1\n      pop\n        /* \"#utility.yul\":197:203   */\n      dup3\n        /* \"#utility.yul\":190:195   */\n      dup2\n        /* \"#utility.yul\":183:204   */\n      mstore\n        /* \"#utility.yul\":235:239   */\n      0x20\n        /* \"#utility.yul\":228:233   */\n      dup2\n        /* \"#utility.yul\":224:240   */\n      add\n        /* \"#utility.yul\":273:276   */\n      dup5\n        /* \"#utility.yul\":264:270   */\n      dup5\n        /* \"#utility.yul\":259:262   */\n      dup5\n        /* \"#utility.yul\":255:271   */\n      add\n        /* \"#utility.yul\":252:277   */\n      gt\n        /* \"#utility.yul\":249:361   */\n      iszero\n      tag_284\n      jumpi\n        /* \"#utility.yul\":280:359   */\n      tag_285\n      tag_286\n      jump\t// in\n    tag_285:\n        /* \"#utility.yul\":249:361   */\n    tag_284:\n        /* \"#utility.yul\":370:411   */\n      tag_287\n        /* \"#utility.yul\":404:410   */\n      dup5\n        /* \"#utility.yul\":399:402   */\n      dup3\n        /* \"#utility.yul\":394:397   */\n      dup6\n        /* \"#utility.yul\":370:411   */\n      tag_288\n      jump\t// in\n    tag_287:\n        /* \"#utility.yul\":90:417   */\n      pop\n        /* \"#utility.yul\":7:417   */\n      swap4\n      swap3\n      pop\n      pop\n      pop\n      jump\t// out\n        /* \"#utility.yul\":423:562   */\n    tag_289:\n        /* \"#utility.yul\":469:474   */\n      0x00\n        /* \"#utility.yul\":507:513   */\n      dup2\n        /* \"#utility.yul\":494:514   */\n      calldataload\n        /* \"#utility.yul\":485:514   */\n      swap1\n      pop\n        /* \"#utility.yul\":523:556   */\n      tag_291\n        /* \"#utility.yul\":550:555   */\n      dup2\n        /* \"#utility.yul\":523:556   */\n      tag_292\n      jump\t// in\n    tag_291:\n        /* \"#utility.yul\":423:562   */\n      swap3\n      swap2\n      pop\n      pop\n      jump\t// out\n        /* \"#utility.yul\":568:701   */\n    tag_293:\n        /* \"#utility.yul\":611:616   */\n      0x00\n        /* \"#utility.yul\":649:655   */\n      dup2\n        /* \"#utility.yul\":636:656   */\n      calldataload\n        /* \"#utility.yul\":627:656   */\n      swap1\n      pop\n        /* \"#utility.yul\":665:695   */\n      tag_295\n        /* \"#utility.yul\":689:694   */\n      dup2\n        /* \"#utility.yul\":665:695   */\n      tag_296\n      jump\t// in\n    tag_295:\n        /* \"#utility.yul\":568:701   */\n      swap3\n      swap2\n      pop\n      pop\n      jump\t// out\n        /* \"#utility.yul\":707:844   */\n    tag_297:\n        /* \"#utility.yul\":752:757   */\n      0x00\n        /* \"#utility.yul\":790:796   */\n      dup2\n        /* \"#utility.yul\":777:797   */\n      calldataload\n        /* \"#utility.yul\":768:797   */\n      swap1\n      pop\n        /* \"#utility.yul\":806:838   */\n      tag_299\n        /* \"#utility.yul\":832:837   */\n      dup2\n        /* \"#utility.yul\":806:838   */\n      tag_300\n      jump\t// in\n    tag_299:\n        /* \"#utility.yul\":707:844   */\n      swap3\n      swap2\n      pop\n      pop\n      jump\t// out\n        /* \"#utility.yul\":850:991   */\n    tag_301:\n        /* \"#utility.yul\":906:911   */\n      0x00\n        /* \"#utility.yul\":937:943   */\n      dup2\n        /* \"#utility.yul\":931:944   */\n      mload\n        /* \"#utility.yul\":922:944   */\n      swap1\n      pop\n        /* \"#utility.yul\":953:985   */\n      tag_303\n        /* \"#utility.yul\":979:984   */\n      dup2\n        /* \"#utility.yul\":953:985   */\n      tag_300\n      jump\t// in\n    tag_303:\n        /* \"#utility.yul\":850:991   */\n      swap3\n      swap2\n      pop\n      pop\n      jump\t// out\n        /* \"#utility.yul\":1010:1348   */\n    tag_304:\n        /* \"#utility.yul\":1065:1070   */\n      0x00\n        /* \"#utility.yul\":1114:1117   */\n      dup3\n        /* \"#utility.yul\":1107:1111   */\n      0x1f\n        /* \"#utility.yul\":1099:1105   */\n      dup4\n        /* \"#utility.yul\":1095:1112   */\n      add\n        /* \"#utility.yul\":1091:1118   */\n      slt\n        /* \"#utility.yul\":1081:1203   */\n      tag_306\n      jumpi\n        /* \"#utility.yul\":1122:1201   */\n      tag_307\n      tag_308\n      jump\t// in\n    tag_307:\n        /* \"#utility.yul\":1081:1203   */\n    tag_306:\n        /* \"#utility.yul\":1239:1245   */\n      dup2\n        /* \"#utility.yul\":1226:1246   */\n      calldataload\n        /* \"#utility.yul\":1264:1342   */\n      tag_309\n        /* \"#utility.yul\":1338:1341   */\n      dup5\n        /* \"#utility.yul\":1330:1336   */\n      dup3\n        /* \"#utility.yul\":1323:1327   */\n      0x20\n        /* \"#utility.yul\":1315:1321   */\n      dup7\n        /* \"#utility.yul\":1311:1328   */\n      add\n        /* \"#utility.yul\":1264:1342   */\n      tag_278\n      jump\t// in\n    tag_309:\n        /* \"#utility.yul\":1255:1342   */\n      swap2\n      pop\n        /* \"#utility.yul\":1071:1348   */\n      pop\n        /* \"#utility.yul\":1010:1348   */\n      swap3\n      swap2\n      pop\n      pop\n      jump\t// out\n        /* \"#utility.yul\":1354:1493   */\n    tag_310:\n        /* \"#utility.yul\":1400:1405   */\n      0x00\n        /* \"#utility.yul\":1438:1444   */\n      dup2\n        /* \"#utility.yul\":1425:1445   */\n      calldataload\n        /* \"#utility.yul\":1416:1445   */\n      swap1\n      pop\n        /* \"#utility.yul\":1454:1487   */\n      tag_312\n        /* \"#utility.yul\":1481:1486   */\n      dup2\n        /* \"#utility.yul\":1454:1487   */\n      tag_313\n      jump\t// in\n    tag_312:\n        /* \"#utility.yul\":1354:1493   */\n      swap3\n      swap2\n      pop\n      pop\n      jump\t// out\n        /* \"#utility.yul\":1499:1828   */\n    tag_50:\n        /* \"#utility.yul\":1558:1564   */\n      0x00\n        /* \"#utility.yul\":1607:1609   */\n      0x20\n        /* \"#utility.yul\":1595:1604   */\n      dup3\n        /* \"#utility.yul\":1586:1593   */\n      dup5\n        /* \"#utility.yul\":1582:1605   */\n      sub\n        /* \"#utility.yul\":1578:1610   */\n      slt\n        /* \"#utility.yul\":1575:1694   */\n      iszero\n      tag_315\n      jumpi\n        /* \"#utility.yul\":1613:1692   */\n      tag_316\n      tag_317\n      jump\t// in\n    tag_316:\n        /* \"#utility.yul\":1575:1694   */\n    tag_315:\n        /* \"#utility.yul\":1733:1734   */\n      0x00\n        /* \"#utility.yul\":1758:1811   */\n      tag_318\n        /* \"#utility.yul\":1803:1810   */\n      dup5\n        /* \"#utility.yul\":1794:1800   */\n      dup3\n        /* \"#utility.yul\":1783:1792   */\n      dup6\n        /* \"#utility.yul\":1779:1801   */\n      add\n        /* \"#utility.yul\":1758:1811   */\n      tag_289\n      jump\t// in\n    tag_318:\n        /* \"#utility.yul\":1748:1811   */\n      swap2\n      pop\n        /* \"#utility.yul\":1704:1821   */\n      pop\n        /* \"#utility.yul\":1499:1828   */\n      swap3\n      swap2\n      pop\n      pop\n      jump\t// out\n        /* \"#utility.yul\":1834:2308   */\n    tag_83:\n        /* \"#utility.yul\":1902:1908   */\n      0x00\n        /* \"#utility.yul\":1910:1916   */\n      dup1\n        /* \"#utility.yul\":1959:1961   */\n      0x40\n        /* \"#utility.yul\":1947:1956   */\n      dup4\n        /* \"#utility.yul\":1938:1945   */\n      dup6\n        /* \"#utility.yul\":1934:1957   */\n      sub\n        /* \"#utility.yul\":1930:1962   */\n      slt\n        /* \"#utility.yul\":1927:2046   */\n      iszero\n      tag_320\n      jumpi\n        /* \"#utility.yul\":1965:2044   */\n      tag_321\n      tag_317\n      jump\t// in\n    tag_321:\n        /* \"#utility.yul\":1927:2046   */\n    tag_320:\n        /* \"#utility.yul\":2085:2086   */\n      0x00\n        /* \"#utility.yul\":2110:2163   */\n      tag_322\n        /* \"#utility.yul\":2155:2162   */\n      dup6\n        /* \"#utility.yul\":2146:2152   */\n      dup3\n        /* \"#utility.yul\":2135:2144   */\n      dup7\n        /* \"#utility.yul\":2131:2153   */\n      add\n        /* \"#utility.yul\":2110:2163   */\n      tag_289\n      jump\t// in\n    tag_322:\n        /* \"#utility.yul\":2100:2163   */\n      swap3\n      pop\n        /* \"#utility.yul\":2056:2173   */\n      pop\n        /* \"#utility.yul\":2212:2214   */\n      0x20\n        /* \"#utility.yul\":2238:2291   */\n      tag_323\n        /* \"#utility.yul\":2283:2290   */\n      dup6\n        /* \"#utility.yul\":2274:2280   */\n      dup3\n        /* \"#utility.yul\":2263:2272   */\n      dup7\n        /* \"#utility.yul\":2259:2281   */\n      add\n        /* \"#utility.yul\":2238:2291   */\n      tag_289\n      jump\t// in\n    tag_323:\n        /* \"#utility.yul\":2228:2291   */\n      swap2\n      pop\n        /* \"#utility.yul\":2183:2301   */\n      pop\n        /* \"#utility.yul\":1834:2308   */\n      swap3\n      pop\n      swap3\n      swap1\n      pop\n      jump\t// out\n        /* \"#utility.yul\":2314:2933   */\n    tag_43:\n        /* \"#utility.yul\":2391:2397   */\n      0x00\n        /* \"#utility.yul\":2399:2405   */\n      dup1\n        /* \"#utility.yul\":2407:2413   */\n      0x00\n        /* \"#utility.yul\":2456:2458   */\n      0x60\n        /* \"#utility.yul\":2444:2453   */\n      dup5\n        /* \"#utility.yul\":2435:2442   */\n      dup7\n        /* \"#utility.yul\":2431:2454   */\n      sub\n        /* \"#utility.yul\":2427:2459   */\n      slt\n        /* \"#utility.yul\":2424:2543   */\n      iszero\n      tag_325\n      jumpi\n        /* \"#utility.yul\":2462:2541   */\n      tag_326\n      tag_317\n      jump\t// in\n    tag_326:\n        /* \"#utility.yul\":2424:2543   */\n    tag_325:\n        /* \"#utility.yul\":2582:2583   */\n      0x00\n        /* \"#utility.yul\":2607:2660   */\n      tag_327\n        /* \"#utility.yul\":2652:2659   */\n      dup7\n        /* \"#utility.yul\":2643:2649   */\n      dup3\n        /* \"#utility.yul\":2632:2641   */\n      dup8\n        /* \"#utility.yul\":2628:2650   */\n      add\n        /* \"#utility.yul\":2607:2660   */\n      tag_289\n      jump\t// in\n    tag_327:\n        /* \"#utility.yul\":2597:2660   */\n      swap4\n      pop\n        /* \"#utility.yul\":2553:2670   */\n      pop\n        /* \"#utility.yul\":2709:2711   */\n      0x20\n        /* \"#utility.yul\":2735:2788   */\n      tag_328\n        /* \"#utility.yul\":2780:2787   */\n      dup7\n        /* \"#utility.yul\":2771:2777   */\n      dup3\n        /* \"#utility.yul\":2760:2769   */\n      dup8\n        /* \"#utility.yul\":2756:2778   */\n      add\n        /* \"#utility.yul\":2735:2788   */\n      tag_289\n      jump\t// in\n    tag_328:\n        /* \"#utility.yul\":2725:2788   */\n      swap3\n      pop\n        /* \"#utility.yul\":2680:2798   */\n      pop\n        /* \"#utility.yul\":2837:2839   */\n      0x40\n        /* \"#utility.yul\":2863:2916   */\n      tag_329\n        /* \"#utility.yul\":2908:2915   */\n      dup7\n        /* \"#utility.yul\":2899:2905   */\n      dup3\n        /* \"#utility.yul\":2888:2897   */\n      dup8\n        /* \"#utility.yul\":2884:2906   */\n      add\n        /* \"#utility.yul\":2863:2916   */\n      tag_310\n      jump\t// in\n    tag_329:\n        /* \"#utility.yul\":2853:2916   */\n      swap2\n      pop\n        /* \"#utility.yul\":2808:2926   */\n      pop\n        /* \"#utility.yul\":2314:2933   */\n      swap3\n      pop\n      swap3\n      pop\n      swap3\n      jump\t// out\n        /* \"#utility.yul\":2939:3882   */\n    tag_72:\n        /* \"#utility.yul\":3034:3040   */\n      0x00\n        /* \"#utility.yul\":3042:3048   */\n      dup1\n        /* \"#utility.yul\":3050:3056   */\n      0x00\n        /* \"#utility.yul\":3058:3064   */\n      dup1\n        /* \"#utility.yul\":3107:3110   */\n      0x80\n        /* \"#utility.yul\":3095:3104   */\n      dup6\n        /* \"#utility.yul\":3086:3093   */\n      dup8\n        /* \"#utility.yul\":3082:3105   */\n      sub\n        /* \"#utility.yul\":3078:3111   */\n      slt\n        /* \"#utility.yul\":3075:3195   */\n      iszero\n      tag_331\n      jumpi\n        /* \"#utility.yul\":3114:3193   */\n      tag_332\n      tag_317\n      jump\t// in\n    tag_332:\n        /* \"#utility.yul\":3075:3195   */\n    tag_331:\n        /* \"#utility.yul\":3234:3235   */\n      0x00\n        /* \"#utility.yul\":3259:3312   */\n      tag_333\n        /* \"#utility.yul\":3304:3311   */\n      dup8\n        /* \"#utility.yul\":3295:3301   */\n      dup3\n        /* \"#utility.yul\":3284:3293   */\n      dup9\n        /* \"#utility.yul\":3280:3302   */\n      add\n        /* \"#utility.yul\":3259:3312   */\n      tag_289\n      jump\t// in\n    tag_333:\n        /* \"#utility.yul\":3249:3312   */\n      swap5\n      pop\n        /* \"#utility.yul\":3205:3322   */\n      pop\n        /* \"#utility.yul\":3361:3363   */\n      0x20\n        /* \"#utility.yul\":3387:3440   */\n      tag_334\n        /* \"#utility.yul\":3432:3439   */\n      dup8\n        /* \"#utility.yul\":3423:3429   */\n      dup3\n        /* \"#utility.yul\":3412:3421   */\n      dup9\n        /* \"#utility.yul\":3408:3430   */\n      add\n        /* \"#utility.yul\":3387:3440   */\n      tag_289\n      jump\t// in\n    tag_334:\n        /* \"#utility.yul\":3377:3440   */\n      swap4\n      pop\n        /* \"#utility.yul\":3332:3450   */\n      pop\n        /* \"#utility.yul\":3489:3491   */\n      0x40\n        /* \"#utility.yul\":3515:3568   */\n      tag_335\n        /* \"#utility.yul\":3560:3567   */\n      dup8\n        /* \"#utility.yul\":3551:3557   */\n      dup3\n        /* \"#utility.yul\":3540:3549   */\n      dup9\n        /* \"#utility.yul\":3536:3558   */\n      add\n        /* \"#utility.yul\":3515:3568   */\n      tag_310\n      jump\t// in\n    tag_335:\n        /* \"#utility.yul\":3505:3568   */\n      swap3\n      pop\n        /* \"#utility.yul\":3460:3578   */\n      pop\n        /* \"#utility.yul\":3645:3647   */\n      0x60\n        /* \"#utility.yul\":3634:3643   */\n      dup6\n        /* \"#utility.yul\":3630:3648   */\n      add\n        /* \"#utility.yul\":3617:3649   */\n      calldataload\n        /* \"#utility.yul\":3676:3694   */\n      0xffffffffffffffff\n        /* \"#utility.yul\":3668:3674   */\n      dup2\n        /* \"#utility.yul\":3665:3695   */\n      gt\n        /* \"#utility.yul\":3662:3779   */\n      iszero\n      tag_336\n      jumpi\n        /* \"#utility.yul\":3698:3777   */\n      tag_337\n      tag_338\n      jump\t// in\n    tag_337:\n        /* \"#utility.yul\":3662:3779   */\n    tag_336:\n        /* \"#utility.yul\":3803:3865   */\n      tag_339\n        /* \"#utility.yul\":3857:3864   */\n      dup8\n        /* \"#utility.yul\":3848:3854   */\n      dup3\n        /* \"#utility.yul\":3837:3846   */\n      dup9\n        /* \"#utility.yul\":3833:3855   */\n      add\n        /* \"#utility.yul\":3803:3865   */\n      tag_304\n      jump\t// in\n    tag_339:\n        /* \"#utility.yul\":3793:3865   */\n      swap2\n      pop\n        /* \"#utility.yul\":3588:3875   */\n      pop\n        /* \"#utility.yul\":2939:3882   */\n      swap3\n      swap6\n      swap2\n      swap5\n      pop\n      swap3\n      pop\n      jump\t// out\n        /* \"#utility.yul\":3888:4356   */\n    tag_68:\n        /* \"#utility.yul\":3953:3959   */\n      0x00\n        /* \"#utility.yul\":3961:3967   */\n      dup1\n        /* \"#utility.yul\":4010:4012   */\n      0x40\n        /* \"#utility.yul\":3998:4007   */\n      dup4\n        /* \"#utility.yul\":3989:3996   */\n      dup6\n        /* \"#utility.yul\":3985:4008   */\n      sub\n        /* \"#utility.yul\":3981:4013   */\n      slt\n        /* \"#utility.yul\":3978:4097   */\n      iszero\n      tag_341\n      jumpi\n        /* \"#utility.yul\":4016:4095   */\n      tag_342\n      tag_317\n      jump\t// in\n    tag_342:\n        /* \"#utility.yul\":3978:4097   */\n    tag_341:\n        /* \"#utility.yul\":4136:4137   */\n      0x00\n        /* \"#utility.yul\":4161:4214   */\n      tag_343\n        /* \"#utility.yul\":4206:4213   */\n      dup6\n        /* \"#utility.yul\":4197:4203   */\n      dup3\n        /* \"#utility.yul\":4186:4195   */\n      dup7\n        /* \"#utility.yul\":4182:4204   */\n      add\n        /* \"#utility.yul\":4161:4214   */\n      tag_289\n      jump\t// in\n    tag_343:\n        /* \"#utility.yul\":4151:4214   */\n      swap3\n      pop\n        /* \"#utility.yul\":4107:4224   */\n      pop\n        /* \"#utility.yul\":4263:4265   */\n      0x20\n        /* \"#utility.yul\":4289:4339   */\n      tag_344\n        /* \"#utility.yul\":4331:4338   */\n      dup6\n        /* \"#utility.yul\":4322:4328   */\n      dup3\n        /* \"#utility.yul\":4311:4320   */\n      dup7\n        /* \"#utility.yul\":4307:4329   */\n      add\n        /* \"#utility.yul\":4289:4339   */\n      tag_293\n      jump\t// in\n    tag_344:\n        /* \"#utility.yul\":4279:4339   */\n      swap2\n      pop\n        /* \"#utility.yul\":4234:4349   */\n      pop\n        /* \"#utility.yul\":3888:4356   */\n      swap3\n      pop\n      swap3\n      swap1\n      pop\n      jump\t// out\n        /* \"#utility.yul\":4362:4836   */\n    tag_39:\n        /* \"#utility.yul\":4430:4436   */\n      0x00\n        /* \"#utility.yul\":4438:4444   */\n      dup1\n        /* \"#utility.yul\":4487:4489   */\n      0x40\n        /* \"#utility.yul\":4475:4484   */\n      dup4\n        /* \"#utility.yul\":4466:4473   */\n      dup6\n        /* \"#utility.yul\":4462:4485   */\n      sub\n        /* \"#utility.yul\":4458:4490   */\n      slt\n        /* \"#utility.yul\":4455:4574   */\n      iszero\n      tag_346\n      jumpi\n        /* \"#utility.yul\":4493:4572   */\n      tag_347\n      tag_317\n      jump\t// in\n    tag_347:\n        /* \"#utility.yul\":4455:4574   */\n    tag_346:\n        /* \"#utility.yul\":4613:4614   */\n      0x00\n        /* \"#utility.yul\":4638:4691   */\n      tag_348\n        /* \"#utility.yul\":4683:4690   */\n      dup6\n        /* \"#utility.yul\":4674:4680   */\n      dup3\n        /* \"#utility.yul\":4663:4672   */\n      dup7\n        /* \"#utility.yul\":4659:4681   */\n      add\n        /* \"#utility.yul\":4638:4691   */\n      tag_289\n      jump\t// in\n    tag_348:\n        /* \"#utility.yul\":4628:4691   */\n      swap3\n      pop\n        /* \"#utility.yul\":4584:4701   */\n      pop\n        /* \"#utility.yul\":4740:4742   */\n      0x20\n        /* \"#utility.yul\":4766:4819   */\n      tag_349\n        /* \"#utility.yul\":4811:4818   */\n      dup6\n        /* \"#utility.yul\":4802:4808   */\n      dup3\n        /* \"#utility.yul\":4791:4800   */\n      dup7\n        /* \"#utility.yul\":4787:4809   */\n      add\n        /* \"#utility.yul\":4766:4819   */\n      tag_310\n      jump\t// in\n    tag_349:\n        /* \"#utility.yul\":4756:4819   */\n      swap2\n      pop\n        /* \"#utility.yul\":4711:4829   */\n      pop\n        /* \"#utility.yul\":4362:4836   */\n      swap3\n      pop\n      swap3\n      swap1\n      pop\n      jump\t// out\n        /* \"#utility.yul\":4842:5169   */\n    tag_23:\n        /* \"#utility.yul\":4900:4906   */\n      0x00\n        /* \"#utility.yul\":4949:4951   */\n      0x20\n        /* \"#utility.yul\":4937:4946   */\n      dup3\n        /* \"#utility.yul\":4928:4935   */\n      dup5\n        /* \"#utility.yul\":4924:4947   */\n      sub\n        /* \"#utility.yul\":4920:4952   */\n      slt\n        /* \"#utility.yul\":4917:5036   */\n      iszero\n      tag_351\n      jumpi\n        /* \"#utility.yul\":4955:5034   */\n      tag_352\n      tag_317\n      jump\t// in\n    tag_352:\n        /* \"#utility.yul\":4917:5036   */\n    tag_351:\n        /* \"#utility.yul\":5075:5076   */\n      0x00\n        /* \"#utility.yul\":5100:5152   */\n      tag_353\n        /* \"#utility.yul\":5144:5151   */\n      dup5\n        /* \"#utility.yul\":5135:5141   */\n      dup3\n        /* \"#utility.yul\":5124:5133   */\n      dup6\n        /* \"#utility.yul\":5120:5142   */\n      add\n        /* \"#utility.yul\":5100:5152   */\n      tag_297\n      jump\t// in\n    tag_353:\n        /* \"#utility.yul\":5090:5152   */\n      swap2\n      pop\n        /* \"#utility.yul\":5046:5162   */\n      pop\n        /* \"#utility.yul\":4842:5169   */\n      swap3\n      swap2\n      pop\n      pop\n      jump\t// out\n        /* \"#utility.yul\":5175:5524   */\n    tag_264:\n        /* \"#utility.yul\":5244:5250   */\n      0x00\n        /* \"#utility.yul\":5293:5295   */\n      0x20\n        /* \"#utility.yul\":5281:5290   */\n      dup3\n        /* \"#utility.yul\":5272:5279   */\n      dup5\n        /* \"#utility.yul\":5268:5291   */\n      sub\n        /* \"#utility.yul\":5264:5296   */\n      slt\n        /* \"#utility.yul\":5261:5380   */\n      iszero\n      tag_355\n      jumpi\n        /* \"#utility.yul\":5299:5378   */\n      tag_356\n      tag_317\n      jump\t// in\n    tag_356:\n        /* \"#utility.yul\":5261:5380   */\n    tag_355:\n        /* \"#utility.yul\":5419:5420   */\n      0x00\n        /* \"#utility.yul\":5444:5507   */\n      tag_357\n        /* \"#utility.yul\":5499:5506   */\n      dup5\n        /* \"#utility.yul\":5490:5496   */\n      dup3\n        /* \"#utility.yul\":5479:5488   */\n      dup6\n        /* \"#utility.yul\":5475:5497   */\n      add\n        /* \"#utility.yul\":5444:5507   */\n      tag_301\n      jump\t// in\n    tag_357:\n        /* \"#utility.yul\":5434:5507   */\n      swap2\n      pop\n        /* \"#utility.yul\":5390:5517   */\n      pop\n        /* \"#utility.yul\":5175:5524   */\n      swap3\n      swap2\n      pop\n      pop\n      jump\t// out\n        /* \"#utility.yul\":5530:5859   */\n    tag_33:\n        /* \"#utility.yul\":5589:5595   */\n      0x00\n        /* \"#utility.yul\":5638:5640   */\n      0x20\n        /* \"#utility.yul\":5626:5635   */\n      dup3\n        /* \"#utility.yul\":5617:5624   */\n      dup5\n        /* \"#utility.yul\":5613:5636   */\n      sub\n        /* \"#utility.yul\":5609:5641   */\n      slt\n        /* \"#utility.yul\":5606:5725   */\n      iszero\n      tag_359\n      jumpi\n        /* \"#utility.yul\":5644:5723   */\n      tag_360\n      tag_317\n      jump\t// in\n    tag_360:\n        /* \"#utility.yul\":5606:5725   */\n    tag_359:\n        /* \"#utility.yul\":5764:5765   */\n      0x00\n        /* \"#utility.yul\":5789:5842   */\n      tag_361\n        /* \"#utility.yul\":5834:5841   */\n      dup5\n        /* \"#utility.yul\":5825:5831   */\n      dup3\n        /* \"#utility.yul\":5814:5823   */\n      dup6\n        /* \"#utility.yul\":5810:5832   */\n      add\n        /* \"#utility.yul\":5789:5842   */\n      tag_310\n      jump\t// in\n    tag_361:\n        /* \"#utility.yul\":5779:5842   */\n      swap2\n      pop\n        /* \"#utility.yul\":5735:5852   */\n      pop\n        /* \"#utility.yul\":5530:5859   */\n      swap3\n      swap2\n      pop\n      pop\n      jump\t// out\n        /* \"#utility.yul\":5865:6044   */\n    tag_362:\n        /* \"#utility.yul\":5934:5944   */\n      0x00\n        /* \"#utility.yul\":5955:6001   */\n      tag_364\n        /* \"#utility.yul\":5997:6000   */\n      dup4\n        /* \"#utility.yul\":5989:5995   */\n      dup4\n        /* \"#utility.yul\":5955:6001   */\n      tag_365\n      jump\t// in\n    tag_364:\n        /* \"#utility.yul\":6033:6037   */\n      0x20\n        /* \"#utility.yul\":6028:6031   */\n      dup4\n        /* \"#utility.yul\":6024:6038   */\n      add\n        /* \"#utility.yul\":6010:6038   */\n      swap1\n      pop\n        /* \"#utility.yul\":5865:6044   */\n      swap3\n      swap2\n      pop\n      pop\n      jump\t// out\n        /* \"#utility.yul\":6050:6168   */\n    tag_366:\n        /* \"#utility.yul\":6137:6161   */\n      tag_368\n        /* \"#utility.yul\":6155:6160   */\n      dup2\n        /* \"#utility.yul\":6137:6161   */\n      tag_369\n      jump\t// in\n    tag_368:\n        /* \"#utility.yul\":6132:6135   */\n      dup3\n        /* \"#utility.yul\":6125:6162   */\n      mstore\n        /* \"#utility.yul\":6050:6168   */\n      pop\n      pop\n      jump\t// out\n        /* \"#utility.yul\":6204:6936   */\n    tag_370:\n        /* \"#utility.yul\":6323:6326   */\n      0x00\n        /* \"#utility.yul\":6352:6406   */\n      tag_372\n        /* \"#utility.yul\":6400:6405   */\n      dup3\n        /* \"#utility.yul\":6352:6406   */\n      tag_373\n      jump\t// in\n    tag_372:\n        /* \"#utility.yul\":6422:6508   */\n      tag_374\n        /* \"#utility.yul\":6501:6507   */\n      dup2\n        /* \"#utility.yul\":6496:6499   */\n      dup6\n        /* \"#utility.yul\":6422:6508   */\n      tag_375\n      jump\t// in\n    tag_374:\n        /* \"#utility.yul\":6415:6508   */\n      swap4\n      pop\n        /* \"#utility.yul\":6532:6588   */\n      tag_376\n        /* \"#utility.yul\":6582:6587   */\n      dup4\n        /* \"#utility.yul\":6532:6588   */\n      tag_377\n      jump\t// in\n    tag_376:\n        /* \"#utility.yul\":6611:6618   */\n      dup1\n        /* \"#utility.yul\":6642:6643   */\n      0x00\n        /* \"#utility.yul\":6627:6911   */\n    tag_378:\n        /* \"#utility.yul\":6652:6658   */\n      dup4\n        /* \"#utility.yul\":6649:6650   */\n      dup2\n        /* \"#utility.yul\":6646:6659   */\n      lt\n        /* \"#utility.yul\":6627:6911   */\n      iszero\n      tag_380\n      jumpi\n        /* \"#utility.yul\":6728:6734   */\n      dup2\n        /* \"#utility.yul\":6722:6735   */\n      mload\n        /* \"#utility.yul\":6755:6818   */\n      tag_381\n        /* \"#utility.yul\":6814:6817   */\n      dup9\n        /* \"#utility.yul\":6799:6812   */\n      dup3\n        /* \"#utility.yul\":6755:6818   */\n      tag_362\n      jump\t// in\n    tag_381:\n        /* \"#utility.yul\":6748:6818   */\n      swap8\n      pop\n        /* \"#utility.yul\":6841:6901   */\n      tag_382\n        /* \"#utility.yul\":6894:6900   */\n      dup4\n        /* \"#utility.yul\":6841:6901   */\n      tag_383\n      jump\t// in\n    tag_382:\n        /* \"#utility.yul\":6831:6901   */\n      swap3\n      pop\n        /* \"#utility.yul\":6687:6911   */\n      pop\n        /* \"#utility.yul\":6674:6675   */\n      0x01\n        /* \"#utility.yul\":6671:6672   */\n      dup2\n        /* \"#utility.yul\":6667:6676   */\n      add\n        /* \"#utility.yul\":6662:6676   */\n      swap1\n      pop\n        /* \"#utility.yul\":6627:6911   */\n      jump(tag_378)\n    tag_380:\n        /* \"#utility.yul\":6631:6645   */\n      pop\n        /* \"#utility.yul\":6927:6930   */\n      dup6\n        /* \"#utility.yul\":6920:6930   */\n      swap4\n      pop\n        /* \"#utility.yul\":6328:6936   */\n      pop\n      pop\n      pop\n        /* \"#utility.yul\":6204:6936   */\n      swap3\n      swap2\n      pop\n      pop\n      jump\t// out\n        /* \"#utility.yul\":6942:7051   */\n    tag_384:\n        /* \"#utility.yul\":7023:7044   */\n      tag_386\n        /* \"#utility.yul\":7038:7043   */\n      dup2\n        /* \"#utility.yul\":7023:7044   */\n      tag_387\n      jump\t// in\n    tag_386:\n        /* \"#utility.yul\":7018:7021   */\n      dup3\n        /* \"#utility.yul\":7011:7045   */\n      mstore\n        /* \"#utility.yul\":6942:7051   */\n      pop\n      pop\n      jump\t// out\n        /* \"#utility.yul\":7057:7417   */\n    tag_388:\n        /* \"#utility.yul\":7143:7146   */\n      0x00\n        /* \"#utility.yul\":7171:7209   */\n      tag_390\n        /* \"#utility.yul\":7203:7208   */\n      dup3\n        /* \"#utility.yul\":7171:7209   */\n      tag_391\n      jump\t// in\n    tag_390:\n        /* \"#utility.yul\":7225:7295   */\n      tag_392\n        /* \"#utility.yul\":7288:7294   */\n      dup2\n        /* \"#utility.yul\":7283:7286   */\n      dup6\n        /* \"#utility.yul\":7225:7295   */\n      tag_393\n      jump\t// in\n    tag_392:\n        /* \"#utility.yul\":7218:7295   */\n      swap4\n      pop\n        /* \"#utility.yul\":7304:7356   */\n      tag_394\n        /* \"#utility.yul\":7349:7355   */\n      dup2\n        /* \"#utility.yul\":7344:7347   */\n      dup6\n        /* \"#utility.yul\":7337:7341   */\n      0x20\n        /* \"#utility.yul\":7330:7335   */\n      dup7\n        /* \"#utility.yul\":7326:7342   */\n      add\n        /* \"#utility.yul\":7304:7356   */\n      tag_395\n      jump\t// in\n    tag_394:\n        /* \"#utility.yul\":7381:7410   */\n      tag_396\n        /* \"#utility.yul\":7403:7409   */\n      dup2\n        /* \"#utility.yul\":7381:7410   */\n      tag_397\n      jump\t// in\n    tag_396:\n        /* \"#utility.yul\":7376:7379   */\n      dup5\n        /* \"#utility.yul\":7372:7411   */\n      add\n        /* \"#utility.yul\":7365:7411   */\n      swap2\n      pop\n        /* \"#utility.yul\":7147:7417   */\n      pop\n        /* \"#utility.yul\":7057:7417   */\n      swap3\n      swap2\n      pop\n      pop\n      jump\t// out\n        /* \"#utility.yul\":7423:7787   */\n    tag_398:\n        /* \"#utility.yul\":7511:7514   */\n      0x00\n        /* \"#utility.yul\":7539:7578   */\n      tag_400\n        /* \"#utility.yul\":7572:7577   */\n      dup3\n        /* \"#utility.yul\":7539:7578   */\n      tag_401\n      jump\t// in\n    tag_400:\n        /* \"#utility.yul\":7594:7665   */\n      tag_402\n        /* \"#utility.yul\":7658:7664   */\n      dup2\n        /* \"#utility.yul\":7653:7656   */\n      dup6\n        /* \"#utility.yul\":7594:7665   */\n      tag_403\n      jump\t// in\n    tag_402:\n        /* \"#utility.yul\":7587:7665   */\n      swap4\n      pop\n        /* \"#utility.yul\":7674:7726   */\n      tag_404\n        /* \"#utility.yul\":7719:7725   */\n      dup2\n        /* \"#utility.yul\":7714:7717   */\n      dup6\n        /* \"#utility.yul\":7707:7711   */\n      0x20\n        /* \"#utility.yul\":7700:7705   */\n      dup7\n        /* \"#utility.yul\":7696:7712   */\n      add\n        /* \"#utility.yul\":7674:7726   */\n      tag_395\n      jump\t// in\n    tag_404:\n        /* \"#utility.yul\":7751:7780   */\n      tag_405\n        /* \"#utility.yul\":7773:7779   */\n      dup2\n        /* \"#utility.yul\":7751:7780   */\n      tag_397\n      jump\t// in\n    tag_405:\n        /* \"#utility.yul\":7746:7749   */\n      dup5\n        /* \"#utility.yul\":7742:7781   */\n      add\n        /* \"#utility.yul\":7735:7781   */\n      swap2\n      pop\n        /* \"#utility.yul\":7515:7787   */\n      pop\n        /* \"#utility.yul\":7423:7787   */\n      swap3\n      swap2\n      pop\n      pop\n      jump\t// out\n        /* \"#utility.yul\":7793:8170   */\n    tag_406:\n        /* \"#utility.yul\":7899:7902   */\n      0x00\n        /* \"#utility.yul\":7927:7966   */\n      tag_408\n        /* \"#utility.yul\":7960:7965   */\n      dup3\n        /* \"#utility.yul\":7927:7966   */\n      tag_401\n      jump\t// in\n    tag_408:\n        /* \"#utility.yul\":7982:8071   */\n      tag_409\n        /* \"#utility.yul\":8064:8070   */\n      dup2\n        /* \"#utility.yul\":8059:8062   */\n      dup6\n        /* \"#utility.yul\":7982:8071   */\n      tag_410\n      jump\t// in\n    tag_409:\n        /* \"#utility.yul\":7975:8071   */\n      swap4\n      pop\n        /* \"#utility.yul\":8080:8132   */\n      tag_411\n        /* \"#utility.yul\":8125:8131   */\n      dup2\n        /* \"#utility.yul\":8120:8123   */\n      dup6\n        /* \"#utility.yul\":8113:8117   */\n      0x20\n        /* \"#utility.yul\":8106:8111   */\n      dup7\n        /* \"#utility.yul\":8102:8118   */\n      add\n        /* \"#utility.yul\":8080:8132   */\n      tag_395\n      jump\t// in\n    tag_411:\n        /* \"#utility.yul\":8157:8163   */\n      dup1\n        /* \"#utility.yul\":8152:8155   */\n      dup5\n        /* \"#utility.yul\":8148:8164   */\n      add\n        /* \"#utility.yul\":8141:8164   */\n      swap2\n      pop\n        /* \"#utility.yul\":7903:8170   */\n      pop\n        /* \"#utility.yul\":7793:8170   */\n      swap3\n      swap2\n      pop\n      pop\n      jump\t// out\n        /* \"#utility.yul\":8176:8542   */\n    tag_412:\n        /* \"#utility.yul\":8318:8321   */\n      0x00\n        /* \"#utility.yul\":8339:8406   */\n      tag_414\n        /* \"#utility.yul\":8403:8405   */\n      0x32\n        /* \"#utility.yul\":8398:8401   */\n      dup4\n        /* \"#utility.yul\":8339:8406   */\n      tag_403\n      jump\t// in\n    tag_414:\n        /* \"#utility.yul\":8332:8406   */\n      swap2\n      pop\n        /* \"#utility.yul\":8415:8508   */\n      tag_415\n        /* \"#utility.yul\":8504:8507   */\n      dup3\n        /* \"#utility.yul\":8415:8508   */\n      tag_416\n      jump\t// in\n    tag_415:\n        /* \"#utility.yul\":8533:8535   */\n      0x40\n        /* \"#utility.yul\":8528:8531   */\n      dup3\n        /* \"#utility.yul\":8524:8536   */\n      add\n        /* \"#utility.yul\":8517:8536   */\n      swap1\n      pop\n        /* \"#utility.yul\":8176:8542   */\n      swap2\n      swap1\n      pop\n      jump\t// out\n        /* \"#utility.yul\":8548:8914   */\n    tag_417:\n        /* \"#utility.yul\":8690:8693   */\n      0x00\n        /* \"#utility.yul\":8711:8778   */\n      tag_419\n        /* \"#utility.yul\":8775:8777   */\n      0x25\n        /* \"#utility.yul\":8770:8773   */\n      dup4\n        /* \"#utility.yul\":8711:8778   */\n      tag_403\n      jump\t// in\n    tag_419:\n        /* \"#utility.yul\":8704:8778   */\n      swap2\n      pop\n        /* \"#utility.yul\":8787:8880   */\n      tag_420\n        /* \"#utility.yul\":8876:8879   */\n      dup3\n        /* \"#utility.yul\":8787:8880   */\n      tag_421\n      jump\t// in\n    tag_420:\n        /* \"#utility.yul\":8905:8907   */\n      0x40\n        /* \"#utility.yul\":8900:8903   */\n      dup3\n        /* \"#utility.yul\":8896:8908   */\n      add\n        /* \"#utility.yul\":8889:8908   */\n      swap1\n      pop\n        /* \"#utility.yul\":8548:8914   */\n      swap2\n      swap1\n      pop\n      jump\t// out\n        /* \"#utility.yul\":8920:9286   */\n    tag_422:\n        /* \"#utility.yul\":9062:9065   */\n      0x00\n        /* \"#utility.yul\":9083:9150   */\n      tag_424\n        /* \"#utility.yul\":9147:9149   */\n      0x24\n        /* \"#utility.yul\":9142:9145   */\n      dup4\n        /* \"#utility.yul\":9083:9150   */\n      tag_403\n      jump\t// in\n    tag_424:\n        /* \"#utility.yul\":9076:9150   */\n      swap2\n      pop\n        /* \"#utility.yul\":9159:9252   */\n      tag_425\n        /* \"#utility.yul\":9248:9251   */\n      dup3\n        /* \"#utility.yul\":9159:9252   */\n      tag_426\n      jump\t// in\n    tag_425:\n        /* \"#utility.yul\":9277:9279   */\n      0x40\n        /* \"#utility.yul\":9272:9275   */\n      dup3\n        /* \"#utility.yul\":9268:9280   */\n      add\n        /* \"#utility.yul\":9261:9280   */\n      swap1\n      pop\n        /* \"#utility.yul\":8920:9286   */\n      swap2\n      swap1\n      pop\n      jump\t// out\n        /* \"#utility.yul\":9292:9658   */\n    tag_427:\n        /* \"#utility.yul\":9434:9437   */\n      0x00\n        /* \"#utility.yul\":9455:9522   */\n      tag_429\n        /* \"#utility.yul\":9519:9521   */\n      0x19\n        /* \"#utility.yul\":9514:9517   */\n      dup4\n        /* \"#utility.yul\":9455:9522   */\n      tag_403\n      jump\t// in\n    tag_429:\n        /* \"#utility.yul\":9448:9522   */\n      swap2\n      pop\n        /* \"#utility.yul\":9531:9624   */\n      tag_430\n        /* \"#utility.yul\":9620:9623   */\n      dup3\n        /* \"#utility.yul\":9531:9624   */\n      tag_431\n      jump\t// in\n    tag_430:\n        /* \"#utility.yul\":9649:9651   */\n      0x20\n        /* \"#utility.yul\":9644:9647   */\n      dup3\n        /* \"#utility.yul\":9640:9652   */\n      add\n        /* \"#utility.yul\":9633:9652   */\n      swap1\n      pop\n        /* \"#utility.yul\":9292:9658   */\n      swap2\n      swap1\n      pop\n      jump\t// out\n        /* \"#utility.yul\":9664:10030   */\n    tag_432:\n        /* \"#utility.yul\":9806:9809   */\n      0x00\n        /* \"#utility.yul\":9827:9894   */\n      tag_434\n        /* \"#utility.yul\":9891:9893   */\n      0x2c\n        /* \"#utility.yul\":9886:9889   */\n      dup4\n        /* \"#utility.yul\":9827:9894   */\n      tag_403\n      jump\t// in\n    tag_434:\n        /* \"#utility.yul\":9820:9894   */\n      swap2\n      pop\n        /* \"#utility.yul\":9903:9996   */\n      tag_435\n        /* \"#utility.yul\":9992:9995   */\n      dup3\n        /* \"#utility.yul\":9903:9996   */\n      tag_436\n      jump\t// in\n    tag_435:\n        /* \"#utility.yul\":10021:10023   */\n      0x40\n        /* \"#utility.yul\":10016:10019   */\n      dup3\n        /* \"#utility.yul\":10012:10024   */\n      add\n        /* \"#utility.yul\":10005:10024   */\n      swap1\n      pop\n        /* \"#utility.yul\":9664:10030   */\n      swap2\n      swap1\n      pop\n      jump\t// out\n        /* \"#utility.yul\":10036:10402   */\n    tag_437:\n        /* \"#utility.yul\":10178:10181   */\n      0x00\n        /* \"#utility.yul\":10199:10266   */\n      tag_439\n        /* \"#utility.yul\":10263:10265   */\n      0x38\n        /* \"#utility.yul\":10258:10261   */\n      dup4\n        /* \"#utility.yul\":10199:10266   */\n      tag_403\n      jump\t// in\n    tag_439:\n        /* \"#utility.yul\":10192:10266   */\n      swap2\n      pop\n        /* \"#utility.yul\":10275:10368   */\n      tag_440\n        /* \"#utility.yul\":10364:10367   */\n      dup3\n        /* \"#utility.yul\":10275:10368   */\n      tag_441\n      jump\t// in\n    tag_440:\n        /* \"#utility.yul\":10393:10395   */\n      0x40\n        /* \"#utility.yul\":10388:10391   */\n      dup3\n        /* \"#utility.yul\":10384:10396   */\n      add\n        /* \"#utility.yul\":10377:10396   */\n      swap1\n      pop\n        /* \"#utility.yul\":10036:10402   */\n      swap2\n      swap1\n      pop\n      jump\t// out\n        /* \"#utility.yul\":10408:10774   */\n    tag_442:\n        /* \"#utility.yul\":10550:10553   */\n      0x00\n        /* \"#utility.yul\":10571:10638   */\n      tag_444\n        /* \"#utility.yul\":10635:10637   */\n      0x2a\n        /* \"#utility.yul\":10630:10633   */\n      dup4\n        /* \"#utility.yul\":10571:10638   */\n      tag_403\n      jump\t// in\n    tag_444:\n        /* \"#utility.yul\":10564:10638   */\n      swap2\n      pop\n        /* \"#utility.yul\":10647:10740   */\n      tag_445\n        /* \"#utility.yul\":10736:10739   */\n      dup3\n        /* \"#utility.yul\":10647:10740   */\n      tag_446\n      jump\t// in\n    tag_445:\n        /* \"#utility.yul\":10765:10767   */\n      0x40\n        /* \"#utility.yul\":10760:10763   */\n      dup3\n        /* \"#utility.yul\":10756:10768   */\n      add\n        /* \"#utility.yul\":10749:10768   */\n      swap1\n      pop\n        /* \"#utility.yul\":10408:10774   */\n      swap2\n      swap1\n      pop\n      jump\t// out\n        /* \"#utility.yul\":10780:11146   */\n    tag_447:\n        /* \"#utility.yul\":10922:10925   */\n      0x00\n        /* \"#utility.yul\":10943:11010   */\n      tag_449\n        /* \"#utility.yul\":11007:11009   */\n      0x29\n        /* \"#utility.yul\":11002:11005   */\n      dup4\n        /* \"#utility.yul\":10943:11010   */\n      tag_403\n      jump\t// in\n    tag_449:\n        /* \"#utility.yul\":10936:11010   */\n      swap2\n      pop\n        /* \"#utility.yul\":11019:11112   */\n      tag_450\n        /* \"#utility.yul\":11108:11111   */\n      dup3\n        /* \"#utility.yul\":11019:11112   */\n      tag_451\n      jump\t// in\n    tag_450:\n        /* \"#utility.yul\":11137:11139   */\n      0x40\n        /* \"#utility.yul\":11132:11135   */\n      dup3\n        /* \"#utility.yul\":11128:11140   */\n      add\n        /* \"#utility.yul\":11121:11140   */\n      swap1\n      pop\n        /* \"#utility.yul\":10780:11146   */\n      swap2\n      swap1\n      pop\n      jump\t// out\n        /* \"#utility.yul\":11152:11518   */\n    tag_452:\n        /* \"#utility.yul\":11294:11297   */\n      0x00\n        /* \"#utility.yul\":11315:11382   */\n      tag_454\n        /* \"#utility.yul\":11379:11381   */\n      0x2c\n        /* \"#utility.yul\":11374:11377   */\n      dup4\n        /* \"#utility.yul\":11315:11382   */\n      tag_403\n      jump\t// in\n    tag_454:\n        /* \"#utility.yul\":11308:11382   */\n      swap2\n      pop\n        /* \"#utility.yul\":11391:11484   */\n      tag_455\n        /* \"#utility.yul\":11480:11483   */\n      dup3\n        /* \"#utility.yul\":11391:11484   */\n      tag_456\n      jump\t// in\n    tag_455:\n        /* \"#utility.yul\":11509:11511   */\n      0x40\n        /* \"#utility.yul\":11504:11507   */\n      dup3\n        /* \"#utility.yul\":11500:11512   */\n      add\n        /* \"#utility.yul\":11493:11512   */\n      swap1\n      pop\n        /* \"#utility.yul\":11152:11518   */\n      swap2\n      swap1\n      pop\n      jump\t// out\n        /* \"#utility.yul\":11524:11890   */\n    tag_457:\n        /* \"#utility.yul\":11666:11669   */\n      0x00\n        /* \"#utility.yul\":11687:11754   */\n      tag_459\n        /* \"#utility.yul\":11751:11753   */\n      0x2f\n        /* \"#utility.yul\":11746:11749   */\n      dup4\n        /* \"#utility.yul\":11687:11754   */\n      tag_403\n      jump\t// in\n    tag_459:\n        /* \"#utility.yul\":11680:11754   */\n      swap2\n      pop\n        /* \"#utility.yul\":11763:11856   */\n      tag_460\n        /* \"#utility.yul\":11852:11855   */\n      dup3\n        /* \"#utility.yul\":11763:11856   */\n      tag_461\n      jump\t// in\n    tag_460:\n        /* \"#utility.yul\":11881:11883   */\n      0x40\n        /* \"#utility.yul\":11876:11879   */\n      dup3\n        /* \"#utility.yul\":11872:11884   */\n      add\n        /* \"#utility.yul\":11865:11884   */\n      swap1\n      pop\n        /* \"#utility.yul\":11524:11890   */\n      swap2\n      swap1\n      pop\n      jump\t// out\n        /* \"#utility.yul\":11896:12262   */\n    tag_462:\n        /* \"#utility.yul\":12038:12041   */\n      0x00\n        /* \"#utility.yul\":12059:12126   */\n      tag_464\n        /* \"#utility.yul\":12123:12125   */\n      0x21\n        /* \"#utility.yul\":12118:12121   */\n      dup4\n        /* \"#utility.yul\":12059:12126   */\n      tag_403\n      jump\t// in\n    tag_464:\n        /* \"#utility.yul\":12052:12126   */\n      swap2\n      pop\n        /* \"#utility.yul\":12135:12228   */\n      tag_465\n        /* \"#utility.yul\":12224:12227   */\n      dup3\n        /* \"#utility.yul\":12135:12228   */\n      tag_466\n      jump\t// in\n    tag_465:\n        /* \"#utility.yul\":12253:12255   */\n      0x40\n        /* \"#utility.yul\":12248:12251   */\n      dup3\n        /* \"#utility.yul\":12244:12256   */\n      add\n        /* \"#utility.yul\":12237:12256   */\n      swap1\n      pop\n        /* \"#utility.yul\":11896:12262   */\n      swap2\n      swap1\n      pop\n      jump\t// out\n        /* \"#utility.yul\":12268:12634   */\n    tag_467:\n        /* \"#utility.yul\":12410:12413   */\n      0x00\n        /* \"#utility.yul\":12431:12498   */\n      tag_469\n        /* \"#utility.yul\":12495:12497   */\n      0x31\n        /* \"#utility.yul\":12490:12493   */\n      dup4\n        /* \"#utility.yul\":12431:12498   */\n      tag_403\n      jump\t// in\n    tag_469:\n        /* \"#utility.yul\":12424:12498   */\n      swap2\n      pop\n        /* \"#utility.yul\":12507:12600   */\n      tag_470\n        /* \"#utility.yul\":12596:12599   */\n      dup3\n        /* \"#utility.yul\":12507:12600   */\n      tag_471\n      jump\t// in\n    tag_470:\n        /* \"#utility.yul\":12625:12627   */\n      0x40\n        /* \"#utility.yul\":12620:12623   */\n      dup3\n        /* \"#utility.yul\":12616:12628   */\n      add\n        /* \"#utility.yul\":12609:12628   */\n      swap1\n      pop\n        /* \"#utility.yul\":12268:12634   */\n      swap2\n      swap1\n      pop\n      jump\t// out\n        /* \"#utility.yul\":12640:12748   */\n    tag_365:\n        /* \"#utility.yul\":12717:12741   */\n      tag_473\n        /* \"#utility.yul\":12735:12740   */\n      dup2\n        /* \"#utility.yul\":12717:12741   */\n      tag_474\n      jump\t// in\n    tag_473:\n        /* \"#utility.yul\":12712:12715   */\n      dup3\n        /* \"#utility.yul\":12705:12742   */\n      mstore\n        /* \"#utility.yul\":12640:12748   */\n      pop\n      pop\n      jump\t// out\n        /* \"#utility.yul\":12754:12872   */\n    tag_475:\n        /* \"#utility.yul\":12841:12865   */\n      tag_477\n        /* \"#utility.yul\":12859:12864   */\n      dup2\n        /* \"#utility.yul\":12841:12865   */\n      tag_474\n      jump\t// in\n    tag_477:\n        /* \"#utility.yul\":12836:12839   */\n      dup3\n        /* \"#utility.yul\":12829:12866   */\n      mstore\n        /* \"#utility.yul\":12754:12872   */\n      pop\n      pop\n      jump\t// out\n        /* \"#utility.yul\":12878:13313   */\n    tag_186:\n        /* \"#utility.yul\":13058:13061   */\n      0x00\n        /* \"#utility.yul\":13080:13175   */\n      tag_479\n        /* \"#utility.yul\":13171:13174   */\n      dup3\n        /* \"#utility.yul\":13162:13168   */\n      dup6\n        /* \"#utility.yul\":13080:13175   */\n      tag_406\n      jump\t// in\n    tag_479:\n        /* \"#utility.yul\":13073:13175   */\n      swap2\n      pop\n        /* \"#utility.yul\":13192:13287   */\n      tag_480\n        /* \"#utility.yul\":13283:13286   */\n      dup3\n        /* \"#utility.yul\":13274:13280   */\n      dup5\n        /* \"#utility.yul\":13192:13287   */\n      tag_406\n      jump\t// in\n    tag_480:\n        /* \"#utility.yul\":13185:13287   */\n      swap2\n      pop\n        /* \"#utility.yul\":13304:13307   */\n      dup2\n        /* \"#utility.yul\":13297:13307   */\n      swap1\n      pop\n        /* \"#utility.yul\":12878:13313   */\n      swap4\n      swap3\n      pop\n      pop\n      pop\n      jump\t// out\n        /* \"#utility.yul\":13319:13541   */\n    tag_36:\n        /* \"#utility.yul\":13412:13416   */\n      0x00\n        /* \"#utility.yul\":13450:13452   */\n      0x20\n        /* \"#utility.yul\":13439:13448   */\n      dup3\n        /* \"#utility.yul\":13435:13453   */\n      add\n        /* \"#utility.yul\":13427:13453   */\n      swap1\n      pop\n        /* \"#utility.yul\":13463:13534   */\n      tag_482\n        /* \"#utility.yul\":13531:13532   */\n      0x00\n        /* \"#utility.yul\":13520:13529   */\n      dup4\n        /* \"#utility.yul\":13516:13533   */\n      add\n        /* \"#utility.yul\":13507:13513   */\n      dup5\n        /* \"#utility.yul\":13463:13534   */\n      tag_366\n      jump\t// in\n    tag_482:\n        /* \"#utility.yul\":13319:13541   */\n      swap3\n      swap2\n      pop\n      pop\n      jump\t// out\n        /* \"#utility.yul\":13547:14187   */\n    tag_260:\n        /* \"#utility.yul\":13742:13746   */\n      0x00\n        /* \"#utility.yul\":13780:13783   */\n      0x80\n        /* \"#utility.yul\":13769:13778   */\n      dup3\n        /* \"#utility.yul\":13765:13784   */\n      add\n        /* \"#utility.yul\":13757:13784   */\n      swap1\n      pop\n        /* \"#utility.yul\":13794:13865   */\n      tag_484\n        /* \"#utility.yul\":13862:13863   */\n      0x00\n        /* \"#utility.yul\":13851:13860   */\n      dup4\n        /* \"#utility.yul\":13847:13864   */\n      add\n        /* \"#utility.yul\":13838:13844   */\n      dup8\n        /* \"#utility.yul\":13794:13865   */\n      tag_366\n      jump\t// in\n    tag_484:\n        /* \"#utility.yul\":13875:13947   */\n      tag_485\n        /* \"#utility.yul\":13943:13945   */\n      0x20\n        /* \"#utility.yul\":13932:13941   */\n      dup4\n        /* \"#utility.yul\":13928:13946   */\n      add\n        /* \"#utility.yul\":13919:13925   */\n      dup7\n        /* \"#utility.yul\":13875:13947   */\n      tag_366\n      jump\t// in\n    tag_485:\n        /* \"#utility.yul\":13957:14029   */\n      tag_486\n        /* \"#utility.yul\":14025:14027   */\n      0x40\n        /* \"#utility.yul\":14014:14023   */\n      dup4\n        /* \"#utility.yul\":14010:14028   */\n      add\n        /* \"#utility.yul\":14001:14007   */\n      dup6\n        /* \"#utility.yul\":13957:14029   */\n      tag_475\n      jump\t// in\n    tag_486:\n        /* \"#utility.yul\":14076:14085   */\n      dup2\n        /* \"#utility.yul\":14070:14074   */\n      dup2\n        /* \"#utility.yul\":14066:14086   */\n      sub\n        /* \"#utility.yul\":14061:14063   */\n      0x60\n        /* \"#utility.yul\":14050:14059   */\n      dup4\n        /* \"#utility.yul\":14046:14064   */\n      add\n        /* \"#utility.yul\":14039:14087   */\n      mstore\n        /* \"#utility.yul\":14104:14180   */\n      tag_487\n        /* \"#utility.yul\":14175:14179   */\n      dup2\n        /* \"#utility.yul\":14166:14172   */\n      dup5\n        /* \"#utility.yul\":14104:14180   */\n      tag_388\n      jump\t// in\n    tag_487:\n        /* \"#utility.yul\":14096:14180   */\n      swap1\n      pop\n        /* \"#utility.yul\":13547:14187   */\n      swap6\n      swap5\n      pop\n      pop\n      pop\n      pop\n      pop\n      jump\t// out\n        /* \"#utility.yul\":14193:14566   */\n    tag_53:\n        /* \"#utility.yul\":14336:14340   */\n      0x00\n        /* \"#utility.yul\":14374:14376   */\n      0x20\n        /* \"#utility.yul\":14363:14372   */\n      dup3\n        /* \"#utility.yul\":14359:14377   */\n      add\n        /* \"#utility.yul\":14351:14377   */\n      swap1\n      pop\n        /* \"#utility.yul\":14423:14432   */\n      dup2\n        /* \"#utility.yul\":14417:14421   */\n      dup2\n        /* \"#utility.yul\":14413:14433   */\n      sub\n        /* \"#utility.yul\":14409:14410   */\n      0x00\n        /* \"#utility.yul\":14398:14407   */\n      dup4\n        /* \"#utility.yul\":14394:14411   */\n      add\n        /* \"#utility.yul\":14387:14434   */\n      mstore\n        /* \"#utility.yul\":14451:14559   */\n      tag_489\n        /* \"#utility.yul\":14554:14558   */\n      dup2\n        /* \"#utility.yul\":14545:14551   */\n      dup5\n        /* \"#utility.yul\":14451:14559   */\n      tag_370\n      jump\t// in\n    tag_489:\n        /* \"#utility.yul\":14443:14559   */\n      swap1\n      pop\n        /* \"#utility.yul\":14193:14566   */\n      swap3\n      swap2\n      pop\n      pop\n      jump\t// out\n        /* \"#utility.yul\":14572:14782   */\n    tag_26:\n        /* \"#utility.yul\":14659:14663   */\n      0x00\n        /* \"#utility.yul\":14697:14699   */\n      0x20\n        /* \"#utility.yul\":14686:14695   */\n      dup3\n        /* \"#utility.yul\":14682:14700   */\n      add\n        /* \"#utility.yul\":14674:14700   */\n      swap1\n      pop\n        /* \"#utility.yul\":14710:14775   */\n      tag_491\n        /* \"#utility.yul\":14772:14773   */\n      0x00\n        /* \"#utility.yul\":14761:14770   */\n      dup4\n        /* \"#utility.yul\":14757:14774   */\n      add\n        /* \"#utility.yul\":14748:14754   */\n      dup5\n        /* \"#utility.yul\":14710:14775   */\n      tag_384\n      jump\t// in\n    tag_491:\n        /* \"#utility.yul\":14572:14782   */\n      swap3\n      swap2\n      pop\n      pop\n      jump\t// out\n        /* \"#utility.yul\":14788:15101   */\n    tag_30:\n        /* \"#utility.yul\":14901:14905   */\n      0x00\n        /* \"#utility.yul\":14939:14941   */\n      0x20\n        /* \"#utility.yul\":14928:14937   */\n      dup3\n        /* \"#utility.yul\":14924:14942   */\n      add\n        /* \"#utility.yul\":14916:14942   */\n      swap1\n      pop\n        /* \"#utility.yul\":14988:14997   */\n      dup2\n        /* \"#utility.yul\":14982:14986   */\n      dup2\n        /* \"#utility.yul\":14978:14998   */\n      sub\n        /* \"#utility.yul\":14974:14975   */\n      0x00\n        /* \"#utility.yul\":14963:14972   */\n      dup4\n        /* \"#utility.yul\":14959:14976   */\n      add\n        /* \"#utility.yul\":14952:14999   */\n      mstore\n        /* \"#utility.yul\":15016:15094   */\n      tag_493\n        /* \"#utility.yul\":15089:15093   */\n      dup2\n        /* \"#utility.yul\":15080:15086   */\n      dup5\n        /* \"#utility.yul\":15016:15094   */\n      tag_398\n      jump\t// in\n    tag_493:\n        /* \"#utility.yul\":15008:15094   */\n      swap1\n      pop\n        /* \"#utility.yul\":14788:15101   */\n      swap3\n      swap2\n      pop\n      pop\n      jump\t// out\n        /* \"#utility.yul\":15107:15526   */\n    tag_231:\n        /* \"#utility.yul\":15273:15277   */\n      0x00\n        /* \"#utility.yul\":15311:15313   */\n      0x20\n        /* \"#utility.yul\":15300:15309   */\n      dup3\n        /* \"#utility.yul\":15296:15314   */\n      add\n        /* \"#utility.yul\":15288:15314   */\n      swap1\n      pop\n        /* \"#utility.yul\":15360:15369   */\n      dup2\n        /* \"#utility.yul\":15354:15358   */\n      dup2\n        /* \"#utility.yul\":15350:15370   */\n      sub\n        /* \"#utility.yul\":15346:15347   */\n      0x00\n        /* \"#utility.yul\":15335:15344   */\n      dup4\n        /* \"#utility.yul\":15331:15348   */\n      add\n        /* \"#utility.yul\":15324:15371   */\n      mstore\n        /* \"#utility.yul\":15388:15519   */\n      tag_495\n        /* \"#utility.yul\":15514:15518   */\n      dup2\n        /* \"#utility.yul\":15388:15519   */\n      tag_412\n      jump\t// in\n    tag_495:\n        /* \"#utility.yul\":15380:15519   */\n      swap1\n      pop\n        /* \"#utility.yul\":15107:15526   */\n      swap2\n      swap1\n      pop\n      jump\t// out\n        /* \"#utility.yul\":15532:15951   */\n    tag_207:\n        /* \"#utility.yul\":15698:15702   */\n      0x00\n        /* \"#utility.yul\":15736:15738   */\n      0x20\n        /* \"#utility.yul\":15725:15734   */\n      dup3\n        /* \"#utility.yul\":15721:15739   */\n      add\n        /* \"#utility.yul\":15713:15739   */\n      swap1\n      pop\n        /* \"#utility.yul\":15785:15794   */\n      dup2\n        /* \"#utility.yul\":15779:15783   */\n      dup2\n        /* \"#utility.yul\":15775:15795   */\n      sub\n        /* \"#utility.yul\":15771:15772   */\n      0x00\n        /* \"#utility.yul\":15760:15769   */\n      dup4\n        /* \"#utility.yul\":15756:15773   */\n      add\n        /* \"#utility.yul\":15749:15796   */\n      mstore\n        /* \"#utility.yul\":15813:15944   */\n      tag_497\n        /* \"#utility.yul\":15939:15943   */\n      dup2\n        /* \"#utility.yul\":15813:15944   */\n      tag_417\n      jump\t// in\n    tag_497:\n        /* \"#utility.yul\":15805:15944   */\n      swap1\n      pop\n        /* \"#utility.yul\":15532:15951   */\n      swap2\n      swap1\n      pop\n      jump\t// out\n        /* \"#utility.yul\":15957:16376   */\n    tag_210:\n        /* \"#utility.yul\":16123:16127   */\n      0x00\n        /* \"#utility.yul\":16161:16163   */\n      0x20\n        /* \"#utility.yul\":16150:16159   */\n      dup3\n        /* \"#utility.yul\":16146:16164   */\n      add\n        /* \"#utility.yul\":16138:16164   */\n      swap1\n      pop\n        /* \"#utility.yul\":16210:16219   */\n      dup2\n        /* \"#utility.yul\":16204:16208   */\n      dup2\n        /* \"#utility.yul\":16200:16220   */\n      sub\n        /* \"#utility.yul\":16196:16197   */\n      0x00\n        /* \"#utility.yul\":16185:16194   */\n      dup4\n        /* \"#utility.yul\":16181:16198   */\n      add\n        /* \"#utility.yul\":16174:16221   */\n      mstore\n        /* \"#utility.yul\":16238:16369   */\n      tag_499\n        /* \"#utility.yul\":16364:16368   */\n      dup2\n        /* \"#utility.yul\":16238:16369   */\n      tag_422\n      jump\t// in\n    tag_499:\n        /* \"#utility.yul\":16230:16369   */\n      swap1\n      pop\n        /* \"#utility.yul\":15957:16376   */\n      swap2\n      swap1\n      pop\n      jump\t// out\n        /* \"#utility.yul\":16382:16801   */\n    tag_223:\n        /* \"#utility.yul\":16548:16552   */\n      0x00\n        /* \"#utility.yul\":16586:16588   */\n      0x20\n        /* \"#utility.yul\":16575:16584   */\n      dup3\n        /* \"#utility.yul\":16571:16589   */\n      add\n        /* \"#utility.yul\":16563:16589   */\n      swap1\n      pop\n        /* \"#utility.yul\":16635:16644   */\n      dup2\n        /* \"#utility.yul\":16629:16633   */\n      dup2\n        /* \"#utility.yul\":16625:16645   */\n      sub\n        /* \"#utility.yul\":16621:16622   */\n      0x00\n        /* \"#utility.yul\":16610:16619   */\n      dup4\n        /* \"#utility.yul\":16606:16623   */\n      add\n        /* \"#utility.yul\":16599:16646   */\n      mstore\n        /* \"#utility.yul\":16663:16794   */\n      tag_501\n        /* \"#utility.yul\":16789:16793   */\n      dup2\n        /* \"#utility.yul\":16663:16794   */\n      tag_427\n      jump\t// in\n    tag_501:\n        /* \"#utility.yul\":16655:16794   */\n      swap1\n      pop\n        /* \"#utility.yul\":16382:16801   */\n      swap2\n      swap1\n      pop\n      jump\t// out\n        /* \"#utility.yul\":16807:17226   */\n    tag_197:\n        /* \"#utility.yul\":16973:16977   */\n      0x00\n        /* \"#utility.yul\":17011:17013   */\n      0x20\n        /* \"#utility.yul\":17000:17009   */\n      dup3\n        /* \"#utility.yul\":16996:17014   */\n      add\n        /* \"#utility.yul\":16988:17014   */\n      swap1\n      pop\n        /* \"#utility.yul\":17060:17069   */\n      dup2\n        /* \"#utility.yul\":17054:17058   */\n      dup2\n        /* \"#utility.yul\":17050:17070   */\n      sub\n        /* \"#utility.yul\":17046:17047   */\n      0x00\n        /* \"#utility.yul\":17035:17044   */\n      dup4\n        /* \"#utility.yul\":17031:17048   */\n      add\n        /* \"#utility.yul\":17024:17071   */\n      mstore\n        /* \"#utility.yul\":17088:17219   */\n      tag_503\n        /* \"#utility.yul\":17214:17218   */\n      dup2\n        /* \"#utility.yul\":17088:17219   */\n      tag_432\n      jump\t// in\n    tag_503:\n        /* \"#utility.yul\":17080:17219   */\n      swap1\n      pop\n        /* \"#utility.yul\":16807:17226   */\n      swap2\n      swap1\n      pop\n      jump\t// out\n        /* \"#utility.yul\":17232:17651   */\n    tag_116:\n        /* \"#utility.yul\":17398:17402   */\n      0x00\n        /* \"#utility.yul\":17436:17438   */\n      0x20\n        /* \"#utility.yul\":17425:17434   */\n      dup3\n        /* \"#utility.yul\":17421:17439   */\n      add\n        /* \"#utility.yul\":17413:17439   */\n      swap1\n      pop\n        /* \"#utility.yul\":17485:17494   */\n      dup2\n        /* \"#utility.yul\":17479:17483   */\n      dup2\n        /* \"#utility.yul\":17475:17495   */\n      sub\n        /* \"#utility.yul\":17471:17472   */\n      0x00\n        /* \"#utility.yul\":17460:17469   */\n      dup4\n        /* \"#utility.yul\":17456:17473   */\n      add\n        /* \"#utility.yul\":17449:17496   */\n      mstore\n        /* \"#utility.yul\":17513:17644   */\n      tag_505\n        /* \"#utility.yul\":17639:17643   */\n      dup2\n        /* \"#utility.yul\":17513:17644   */\n      tag_437\n      jump\t// in\n    tag_505:\n        /* \"#utility.yul\":17505:17644   */\n      swap1\n      pop\n        /* \"#utility.yul\":17232:17651   */\n      swap2\n      swap1\n      pop\n      jump\t// out\n        /* \"#utility.yul\":17657:18076   */\n    tag_156:\n        /* \"#utility.yul\":17823:17827   */\n      0x00\n        /* \"#utility.yul\":17861:17863   */\n      0x20\n        /* \"#utility.yul\":17850:17859   */\n      dup3\n        /* \"#utility.yul\":17846:17864   */\n      add\n        /* \"#utility.yul\":17838:17864   */\n      swap1\n      pop\n        /* \"#utility.yul\":17910:17919   */\n      dup2\n        /* \"#utility.yul\":17904:17908   */\n      dup2\n        /* \"#utility.yul\":17900:17920   */\n      sub\n        /* \"#utility.yul\":17896:17897   */\n      0x00\n        /* \"#utility.yul\":17885:17894   */\n      dup4\n        /* \"#utility.yul\":17881:17898   */\n      add\n        /* \"#utility.yul\":17874:17921   */\n      mstore\n        /* \"#utility.yul\":17938:18069   */\n      tag_507\n        /* \"#utility.yul\":18064:18068   */\n      dup2\n        /* \"#utility.yul\":17938:18069   */\n      tag_442\n      jump\t// in\n    tag_507:\n        /* \"#utility.yul\":17930:18069   */\n      swap1\n      pop\n        /* \"#utility.yul\":17657:18076   */\n      swap2\n      swap1\n      pop\n      jump\t// out\n        /* \"#utility.yul\":18082:18501   */\n    tag_152:\n        /* \"#utility.yul\":18248:18252   */\n      0x00\n        /* \"#utility.yul\":18286:18288   */\n      0x20\n        /* \"#utility.yul\":18275:18284   */\n      dup3\n        /* \"#utility.yul\":18271:18289   */\n      add\n        /* \"#utility.yul\":18263:18289   */\n      swap1\n      pop\n        /* \"#utility.yul\":18335:18344   */\n      dup2\n        /* \"#utility.yul\":18329:18333   */\n      dup2\n        /* \"#utility.yul\":18325:18345   */\n      sub\n        /* \"#utility.yul\":18321:18322   */\n      0x00\n        /* \"#utility.yul\":18310:18319   */\n      dup4\n        /* \"#utility.yul\":18306:18323   */\n      add\n        /* \"#utility.yul\":18299:18346   */\n      mstore\n        /* \"#utility.yul\":18363:18494   */\n      tag_509\n        /* \"#utility.yul\":18489:18493   */\n      dup2\n        /* \"#utility.yul\":18363:18494   */\n      tag_447\n      jump\t// in\n    tag_509:\n        /* \"#utility.yul\":18355:18494   */\n      swap1\n      pop\n        /* \"#utility.yul\":18082:18501   */\n      swap2\n      swap1\n      pop\n      jump\t// out\n        /* \"#utility.yul\":18507:18926   */\n    tag_103:\n        /* \"#utility.yul\":18673:18677   */\n      0x00\n        /* \"#utility.yul\":18711:18713   */\n      0x20\n        /* \"#utility.yul\":18700:18709   */\n      dup3\n        /* \"#utility.yul\":18696:18714   */\n      add\n        /* \"#utility.yul\":18688:18714   */\n      swap1\n      pop\n        /* \"#utility.yul\":18760:18769   */\n      dup2\n        /* \"#utility.yul\":18754:18758   */\n      dup2\n        /* \"#utility.yul\":18750:18770   */\n      sub\n        /* \"#utility.yul\":18746:18747   */\n      0x00\n        /* \"#utility.yul\":18735:18744   */\n      dup4\n        /* \"#utility.yul\":18731:18748   */\n      add\n        /* \"#utility.yul\":18724:18771   */\n      mstore\n        /* \"#utility.yul\":18788:18919   */\n      tag_511\n        /* \"#utility.yul\":18914:18918   */\n      dup2\n        /* \"#utility.yul\":18788:18919   */\n      tag_452\n      jump\t// in\n    tag_511:\n        /* \"#utility.yul\":18780:18919   */\n      swap1\n      pop\n        /* \"#utility.yul\":18507:18926   */\n      swap2\n      swap1\n      pop\n      jump\t// out\n        /* \"#utility.yul\":18932:19351   */\n    tag_178:\n        /* \"#utility.yul\":19098:19102   */\n      0x00\n        /* \"#utility.yul\":19136:19138   */\n      0x20\n        /* \"#utility.yul\":19125:19134   */\n      dup3\n        /* \"#utility.yul\":19121:19139   */\n      add\n        /* \"#utility.yul\":19113:19139   */\n      swap1\n      pop\n        /* \"#utility.yul\":19185:19194   */\n      dup2\n        /* \"#utility.yul\":19179:19183   */\n      dup2\n        /* \"#utility.yul\":19175:19195   */\n      sub\n        /* \"#utility.yul\":19171:19172   */\n      0x00\n        /* \"#utility.yul\":19160:19169   */\n      dup4\n        /* \"#utility.yul\":19156:19173   */\n      add\n        /* \"#utility.yul\":19149:19196   */\n      mstore\n        /* \"#utility.yul\":19213:19344   */\n      tag_513\n        /* \"#utility.yul\":19339:19343   */\n      dup2\n        /* \"#utility.yul\":19213:19344   */\n      tag_457\n      jump\t// in\n    tag_513:\n        /* \"#utility.yul\":19205:19344   */\n      swap1\n      pop\n        /* \"#utility.yul\":18932:19351   */\n      swap2\n      swap1\n      pop\n      jump\t// out\n        /* \"#utility.yul\":19357:19776   */\n    tag_108:\n        /* \"#utility.yul\":19523:19527   */\n      0x00\n        /* \"#utility.yul\":19561:19563   */\n      0x20\n        /* \"#utility.yul\":19550:19559   */\n      dup3\n        /* \"#utility.yul\":19546:19564   */\n      add\n        /* \"#utility.yul\":19538:19564   */\n      swap1\n      pop\n        /* \"#utility.yul\":19610:19619   */\n      dup2\n        /* \"#utility.yul\":19604:19608   */\n      dup2\n        /* \"#utility.yul\":19600:19620   */\n      sub\n        /* \"#utility.yul\":19596:19597   */\n      0x00\n        /* \"#utility.yul\":19585:19594   */\n      dup4\n        /* \"#utility.yul\":19581:19598   */\n      add\n        /* \"#utility.yul\":19574:19621   */\n      mstore\n        /* \"#utility.yul\":19638:19769   */\n      tag_515\n        /* \"#utility.yul\":19764:19768   */\n      dup2\n        /* \"#utility.yul\":19638:19769   */\n      tag_462\n      jump\t// in\n    tag_515:\n        /* \"#utility.yul\":19630:19769   */\n      swap1\n      pop\n        /* \"#utility.yul\":19357:19776   */\n      swap2\n      swap1\n      pop\n      jump\t// out\n        /* \"#utility.yul\":19782:20201   */\n    tag_125:\n        /* \"#utility.yul\":19948:19952   */\n      0x00\n        /* \"#utility.yul\":19986:19988   */\n      0x20\n        /* \"#utility.yul\":19975:19984   */\n      dup3\n        /* \"#utility.yul\":19971:19989   */\n      add\n        /* \"#utility.yul\":19963:19989   */\n      swap1\n      pop\n        /* \"#utility.yul\":20035:20044   */\n      dup2\n        /* \"#utility.yul\":20029:20033   */\n      dup2\n        /* \"#utility.yul\":20025:20045   */\n      sub\n        /* \"#utility.yul\":20021:20022   */\n      0x00\n        /* \"#utility.yul\":20010:20019   */\n      dup4\n        /* \"#utility.yul\":20006:20023   */\n      add\n        /* \"#utility.yul\":19999:20046   */\n      mstore\n        /* \"#utility.yul\":20063:20194   */\n      tag_517\n        /* \"#utility.yul\":20189:20193   */\n      dup2\n        /* \"#utility.yul\":20063:20194   */\n      tag_467\n      jump\t// in\n    tag_517:\n        /* \"#utility.yul\":20055:20194   */\n      swap1\n      pop\n        /* \"#utility.yul\":19782:20201   */\n      swap2\n      swap1\n      pop\n      jump\t// out\n        /* \"#utility.yul\":20207:20429   */\n    tag_62:\n        /* \"#utility.yul\":20300:20304   */\n      0x00\n        /* \"#utility.yul\":20338:20340   */\n      0x20\n        /* \"#utility.yul\":20327:20336   */\n      dup3\n        /* \"#utility.yul\":20323:20341   */\n      add\n        /* \"#utility.yul\":20315:20341   */\n      swap1\n      pop\n        /* \"#utility.yul\":20351:20422   */\n      tag_519\n        /* \"#utility.yul\":20419:20420   */\n      0x00\n        /* \"#utility.yul\":20408:20417   */\n      dup4\n        /* \"#utility.yul\":20404:20421   */\n      add\n        /* \"#utility.yul\":20395:20401   */\n      dup5\n        /* \"#utility.yul\":20351:20422   */\n      tag_475\n      jump\t// in\n    tag_519:\n        /* \"#utility.yul\":20207:20429   */\n      swap3\n      swap2\n      pop\n      pop\n      jump\t// out\n        /* \"#utility.yul\":20435:20564   */\n    tag_283:\n        /* \"#utility.yul\":20469:20475   */\n      0x00\n        /* \"#utility.yul\":20496:20516   */\n      tag_521\n      tag_522\n      jump\t// in\n    tag_521:\n        /* \"#utility.yul\":20486:20516   */\n      swap1\n      pop\n        /* \"#utility.yul\":20525:20558   */\n      tag_523\n        /* \"#utility.yul\":20553:20557   */\n      dup3\n        /* \"#utility.yul\":20545:20551   */\n      dup3\n        /* \"#utility.yul\":20525:20558   */\n      tag_524\n      jump\t// in\n    tag_523:\n        /* \"#utility.yul\":20435:20564   */\n      swap2\n      swap1\n      pop\n      jump\t// out\n        /* \"#utility.yul\":20570:20645   */\n    tag_522:\n        /* \"#utility.yul\":20603:20609   */\n      0x00\n        /* \"#utility.yul\":20636:20638   */\n      0x40\n        /* \"#utility.yul\":20630:20639   */\n      mload\n        /* \"#utility.yul\":20620:20639   */\n      swap1\n      pop\n        /* \"#utility.yul\":20570:20645   */\n      swap1\n      jump\t// out\n        /* \"#utility.yul\":20651:20958   */\n    tag_282:\n        /* \"#utility.yul\":20712:20716   */\n      0x00\n        /* \"#utility.yul\":20802:20820   */\n      0xffffffffffffffff\n        /* \"#utility.yul\":20794:20800   */\n      dup3\n        /* \"#utility.yul\":20791:20821   */\n      gt\n        /* \"#utility.yul\":20788:20844   */\n      iszero\n      tag_527\n      jumpi\n        /* \"#utility.yul\":20824:20842   */\n      tag_528\n      tag_134\n      jump\t// in\n    tag_528:\n        /* \"#utility.yul\":20788:20844   */\n    tag_527:\n        /* \"#utility.yul\":20862:20891   */\n      tag_529\n        /* \"#utility.yul\":20884:20890   */\n      dup3\n        /* \"#utility.yul\":20862:20891   */\n      tag_397\n      jump\t// in\n    tag_529:\n        /* \"#utility.yul\":20854:20891   */\n      swap1\n      pop\n        /* \"#utility.yul\":20946:20950   */\n      0x20\n        /* \"#utility.yul\":20940:20944   */\n      dup2\n        /* \"#utility.yul\":20936:20951   */\n      add\n        /* \"#utility.yul\":20928:20951   */\n      swap1\n      pop\n        /* \"#utility.yul\":20651:20958   */\n      swap2\n      swap1\n      pop\n      jump\t// out\n        /* \"#utility.yul\":20964:21096   */\n    tag_377:\n        /* \"#utility.yul\":21031:21035   */\n      0x00\n        /* \"#utility.yul\":21054:21057   */\n      dup2\n        /* \"#utility.yul\":21046:21057   */\n      swap1\n      pop\n        /* \"#utility.yul\":21084:21088   */\n      0x20\n        /* \"#utility.yul\":21079:21082   */\n      dup3\n        /* \"#utility.yul\":21075:21089   */\n      add\n        /* \"#utility.yul\":21067:21089   */\n      swap1\n      pop\n        /* \"#utility.yul\":20964:21096   */\n      swap2\n      swap1\n      pop\n      jump\t// out\n        /* \"#utility.yul\":21102:21216   */\n    tag_373:\n        /* \"#utility.yul\":21169:21175   */\n      0x00\n        /* \"#utility.yul\":21203:21208   */\n      dup2\n        /* \"#utility.yul\":21197:21209   */\n      mload\n        /* \"#utility.yul\":21187:21209   */\n      swap1\n      pop\n        /* \"#utility.yul\":21102:21216   */\n      swap2\n      swap1\n      pop\n      jump\t// out\n        /* \"#utility.yul\":21222:21320   */\n    tag_391:\n        /* \"#utility.yul\":21273:21279   */\n      0x00\n        /* \"#utility.yul\":21307:21312   */\n      dup2\n        /* \"#utility.yul\":21301:21313   */\n      mload\n        /* \"#utility.yul\":21291:21313   */\n      swap1\n      pop\n        /* \"#utility.yul\":21222:21320   */\n      swap2\n      swap1\n      pop\n      jump\t// out\n        /* \"#utility.yul\":21326:21425   */\n    tag_401:\n        /* \"#utility.yul\":21378:21384   */\n      0x00\n        /* \"#utility.yul\":21412:21417   */\n      dup2\n        /* \"#utility.yul\":21406:21418   */\n      mload\n        /* \"#utility.yul\":21396:21418   */\n      swap1\n      pop\n        /* \"#utility.yul\":21326:21425   */\n      swap2\n      swap1\n      pop\n      jump\t// out\n        /* \"#utility.yul\":21431:21544   */\n    tag_383:\n        /* \"#utility.yul\":21501:21505   */\n      0x00\n        /* \"#utility.yul\":21533:21537   */\n      0x20\n        /* \"#utility.yul\":21528:21531   */\n      dup3\n        /* \"#utility.yul\":21524:21538   */\n      add\n        /* \"#utility.yul\":21516:21538   */\n      swap1\n      pop\n        /* \"#utility.yul\":21431:21544   */\n      swap2\n      swap1\n      pop\n      jump\t// out\n        /* \"#utility.yul\":21550:21734   */\n    tag_375:\n        /* \"#utility.yul\":21649:21660   */\n      0x00\n        /* \"#utility.yul\":21683:21689   */\n      dup3\n        /* \"#utility.yul\":21678:21681   */\n      dup3\n        /* \"#utility.yul\":21671:21690   */\n      mstore\n        /* \"#utility.yul\":21723:21727   */\n      0x20\n        /* \"#utility.yul\":21718:21721   */\n      dup3\n        /* \"#utility.yul\":21714:21728   */\n      add\n        /* \"#utility.yul\":21699:21728   */\n      swap1\n      pop\n        /* \"#utility.yul\":21550:21734   */\n      swap3\n      swap2\n      pop\n      pop\n      jump\t// out\n        /* \"#utility.yul\":21740:21908   */\n    tag_393:\n        /* \"#utility.yul\":21823:21834   */\n      0x00\n        /* \"#utility.yul\":21857:21863   */\n      dup3\n        /* \"#utility.yul\":21852:21855   */\n      dup3\n        /* \"#utility.yul\":21845:21864   */\n      mstore\n        /* \"#utility.yul\":21897:21901   */\n      0x20\n        /* \"#utility.yul\":21892:21895   */\n      dup3\n        /* \"#utility.yul\":21888:21902   */\n      add\n        /* \"#utility.yul\":21873:21902   */\n      swap1\n      pop\n        /* \"#utility.yul\":21740:21908   */\n      swap3\n      swap2\n      pop\n      pop\n      jump\t// out\n        /* \"#utility.yul\":21914:22083   */\n    tag_403:\n        /* \"#utility.yul\":21998:22009   */\n      0x00\n        /* \"#utility.yul\":22032:22038   */\n      dup3\n        /* \"#utility.yul\":22027:22030   */\n      dup3\n        /* \"#utility.yul\":22020:22039   */\n      mstore\n        /* \"#utility.yul\":22072:22076   */\n      0x20\n        /* \"#utility.yul\":22067:22070   */\n      dup3\n        /* \"#utility.yul\":22063:22077   */\n      add\n        /* \"#utility.yul\":22048:22077   */\n      swap1\n      pop\n        /* \"#utility.yul\":21914:22083   */\n      swap3\n      swap2\n      pop\n      pop\n      jump\t// out\n        /* \"#utility.yul\":22089:22237   */\n    tag_410:\n        /* \"#utility.yul\":22191:22202   */\n      0x00\n        /* \"#utility.yul\":22228:22231   */\n      dup2\n        /* \"#utility.yul\":22213:22231   */\n      swap1\n      pop\n        /* \"#utility.yul\":22089:22237   */\n      swap3\n      swap2\n      pop\n      pop\n      jump\t// out\n        /* \"#utility.yul\":22243:22548   */\n    tag_217:\n        /* \"#utility.yul\":22283:22286   */\n      0x00\n        /* \"#utility.yul\":22302:22322   */\n      tag_540\n        /* \"#utility.yul\":22320:22321   */\n      dup3\n        /* \"#utility.yul\":22302:22322   */\n      tag_474\n      jump\t// in\n    tag_540:\n        /* \"#utility.yul\":22297:22322   */\n      swap2\n      pop\n        /* \"#utility.yul\":22336:22356   */\n      tag_541\n        /* \"#utility.yul\":22354:22355   */\n      dup4\n        /* \"#utility.yul\":22336:22356   */\n      tag_474\n      jump\t// in\n    tag_541:\n        /* \"#utility.yul\":22331:22356   */\n      swap3\n      pop\n        /* \"#utility.yul\":22490:22491   */\n      dup3\n        /* \"#utility.yul\":22422:22488   */\n      0xffffffffffffffffffffffffffffffffffffffffffffffffffffffffffffffff\n        /* \"#utility.yul\":22418:22492   */\n      sub\n        /* \"#utility.yul\":22415:22416   */\n      dup3\n        /* \"#utility.yul\":22412:22493   */\n      gt\n        /* \"#utility.yul\":22409:22516   */\n      iszero\n      tag_542\n      jumpi\n        /* \"#utility.yul\":22496:22514   */\n      tag_543\n      tag_544\n      jump\t// in\n    tag_543:\n        /* \"#utility.yul\":22409:22516   */\n    tag_542:\n        /* \"#utility.yul\":22540:22541   */\n      dup3\n        /* \"#utility.yul\":22537:22538   */\n      dup3\n        /* \"#utility.yul\":22533:22542   */\n      add\n        /* \"#utility.yul\":22526:22542   */\n      swap1\n      pop\n        /* \"#utility.yul\":22243:22548   */\n      swap3\n      swap2\n      pop\n      pop\n      jump\t// out\n        /* \"#utility.yul\":22554:22739   */\n    tag_239:\n        /* \"#utility.yul\":22594:22595   */\n      0x00\n        /* \"#utility.yul\":22611:22631   */\n      tag_546\n        /* \"#utility.yul\":22629:22630   */\n      dup3\n        /* \"#utility.yul\":22611:22631   */\n      tag_474\n      jump\t// in\n    tag_546:\n        /* \"#utility.yul\":22606:22631   */\n      swap2\n      pop\n        /* \"#utility.yul\":22645:22665   */\n      tag_547\n        /* \"#utility.yul\":22663:22664   */\n      dup4\n        /* \"#utility.yul\":22645:22665   */\n      tag_474\n      jump\t// in\n    tag_547:\n        /* \"#utility.yul\":22640:22665   */\n      swap3\n      pop\n        /* \"#utility.yul\":22684:22685   */\n      dup3\n        /* \"#utility.yul\":22674:22709   */\n      tag_548\n      jumpi\n        /* \"#utility.yul\":22689:22707   */\n      tag_549\n      tag_550\n      jump\t// in\n    tag_549:\n        /* \"#utility.yul\":22674:22709   */\n    tag_548:\n        /* \"#utility.yul\":22731:22732   */\n      dup3\n        /* \"#utility.yul\":22728:22729   */\n      dup3\n        /* \"#utility.yul\":22724:22733   */\n      div\n        /* \"#utility.yul\":22719:22733   */\n      swap1\n      pop\n        /* \"#utility.yul\":22554:22739   */\n      swap3\n      swap2\n      pop\n      pop\n      jump\t// out\n        /* \"#utility.yul\":22745:22936   */\n    tag_215:\n        /* \"#utility.yul\":22785:22789   */\n      0x00\n        /* \"#utility.yul\":22805:22825   */\n      tag_552\n        /* \"#utility.yul\":22823:22824   */\n      dup3\n        /* \"#utility.yul\":22805:22825   */\n      tag_474\n      jump\t// in\n    tag_552:\n        /* \"#utility.yul\":22800:22825   */\n      swap2\n      pop\n        /* \"#utility.yul\":22839:22859   */\n      tag_553\n        /* \"#utility.yul\":22857:22858   */\n      dup4\n        /* \"#utility.yul\":22839:22859   */\n      tag_474\n      jump\t// in\n    tag_553:\n        /* \"#utility.yul\":22834:22859   */\n      swap3\n      pop\n        /* \"#utility.yul\":22878:22879   */\n      dup3\n        /* \"#utility.yul\":22875:22876   */\n      dup3\n        /* \"#utility.yul\":22872:22880   */\n      lt\n        /* \"#utility.yul\":22869:22903   */\n      iszero\n      tag_554\n      jumpi\n        /* \"#utility.yul\":22883:22901   */\n      tag_555\n      tag_544\n      jump\t// in\n    tag_555:\n        /* \"#utility.yul\":22869:22903   */\n    tag_554:\n        /* \"#utility.yul\":22928:22929   */\n      dup3\n        /* \"#utility.yul\":22925:22926   */\n      dup3\n        /* \"#utility.yul\":22921:22930   */\n      sub\n        /* \"#utility.yul\":22913:22930   */\n      swap1\n      pop\n        /* \"#utility.yul\":22745:22936   */\n      swap3\n      swap2\n      pop\n      pop\n      jump\t// out\n        /* \"#utility.yul\":22942:23038   */\n    tag_369:\n        /* \"#utility.yul\":22979:22986   */\n      0x00\n        /* \"#utility.yul\":23008:23032   */\n      tag_557\n        /* \"#utility.yul\":23026:23031   */\n      dup3\n        /* \"#utility.yul\":23008:23032   */\n      tag_558\n      jump\t// in\n    tag_557:\n        /* \"#utility.yul\":22997:23032   */\n      swap1\n      pop\n        /* \"#utility.yul\":22942:23038   */\n      swap2\n      swap1\n      pop\n      jump\t// out\n        /* \"#utility.yul\":23044:23134   */\n    tag_387:\n        /* \"#utility.yul\":23078:23085   */\n      0x00\n        /* \"#utility.yul\":23121:23126   */\n      dup2\n        /* \"#utility.yul\":23114:23127   */\n      iszero\n        /* \"#utility.yul\":23107:23128   */\n      iszero\n        /* \"#utility.yul\":23096:23128   */\n      swap1\n      pop\n        /* \"#utility.yul\":23044:23134   */\n      swap2\n      swap1\n      pop\n      jump\t// out\n        /* \"#utility.yul\":23140:23289   */\n    tag_560:\n        /* \"#utility.yul\":23176:23183   */\n      0x00\n        /* \"#utility.yul\":23216:23282   */\n      0xffffffff00000000000000000000000000000000000000000000000000000000\n        /* \"#utility.yul\":23209:23214   */\n      dup3\n        /* \"#utility.yul\":23205:23283   */\n      and\n        /* \"#utility.yul\":23194:23283   */\n      swap1\n      pop\n        /* \"#utility.yul\":23140:23289   */\n      swap2\n      swap1\n      pop\n      jump\t// out\n        /* \"#utility.yul\":23295:23421   */\n    tag_558:\n        /* \"#utility.yul\":23332:23339   */\n      0x00\n        /* \"#utility.yul\":23372:23414   */\n      0xffffffffffffffffffffffffffffffffffffffff\n        /* \"#utility.yul\":23365:23370   */\n      dup3\n        /* \"#utility.yul\":23361:23415   */\n      and\n        /* \"#utility.yul\":23350:23415   */\n      swap1\n      pop\n        /* \"#utility.yul\":23295:23421   */\n      swap2\n      swap1\n      pop\n      jump\t// out\n        /* \"#utility.yul\":23427:23504   */\n    tag_474:\n        /* \"#utility.yul\":23464:23471   */\n      0x00\n        /* \"#utility.yul\":23493:23498   */\n      dup2\n        /* \"#utility.yul\":23482:23498   */\n      swap1\n      pop\n        /* \"#utility.yul\":23427:23504   */\n      swap2\n      swap1\n      pop\n      jump\t// out\n        /* \"#utility.yul\":23510:23664   */\n    tag_288:\n        /* \"#utility.yul\":23594:23600   */\n      dup3\n        /* \"#utility.yul\":23589:23592   */\n      dup2\n        /* \"#utility.yul\":23584:23587   */\n      dup4\n        /* \"#utility.yul\":23571:23601   */\n      calldatacopy\n        /* \"#utility.yul\":23656:23657   */\n      0x00\n        /* \"#utility.yul\":23647:23653   */\n      dup4\n        /* \"#utility.yul\":23642:23645   */\n      dup4\n        /* \"#utility.yul\":23638:23654   */\n      add\n        /* \"#utility.yul\":23631:23658   */\n      mstore\n        /* \"#utility.yul\":23510:23664   */\n      pop\n      pop\n      pop\n      jump\t// out\n        /* \"#utility.yul\":23670:23977   */\n    tag_395:\n        /* \"#utility.yul\":23738:23739   */\n      0x00\n        /* \"#utility.yul\":23748:23861   */\n    tag_566:\n        /* \"#utility.yul\":23762:23768   */\n      dup4\n        /* \"#utility.yul\":23759:23760   */\n      dup2\n        /* \"#utility.yul\":23756:23769   */\n      lt\n        /* \"#utility.yul\":23748:23861   */\n      iszero\n      tag_568\n      jumpi\n        /* \"#utility.yul\":23847:23848   */\n      dup1\n        /* \"#utility.yul\":23842:23845   */\n      dup3\n        /* \"#utility.yul\":23838:23849   */\n      add\n        /* \"#utility.yul\":23832:23850   */\n      mload\n        /* \"#utility.yul\":23828:23829   */\n      dup2\n        /* \"#utility.yul\":23823:23826   */\n      dup5\n        /* \"#utility.yul\":23819:23830   */\n      add\n        /* \"#utility.yul\":23812:23851   */\n      mstore\n        /* \"#utility.yul\":23784:23786   */\n      0x20\n        /* \"#utility.yul\":23781:23782   */\n      dup2\n        /* \"#utility.yul\":23777:23787   */\n      add\n        /* \"#utility.yul\":23772:23787   */\n      swap1\n      pop\n        /* \"#utility.yul\":23748:23861   */\n      jump(tag_566)\n    tag_568:\n        /* \"#utility.yul\":23879:23885   */\n      dup4\n        /* \"#utility.yul\":23876:23877   */\n      dup2\n        /* \"#utility.yul\":23873:23886   */\n      gt\n        /* \"#utility.yul\":23870:23971   */\n      iszero\n      tag_569\n      jumpi\n        /* \"#utility.yul\":23959:23960   */\n      0x00\n        /* \"#utility.yul\":23950:23956   */\n      dup5\n        /* \"#utility.yul\":23945:23948   */\n      dup5\n        /* \"#utility.yul\":23941:23957   */\n      add\n        /* \"#utility.yul\":23934:23961   */\n      mstore\n        /* \"#utility.yul\":23870:23971   */\n    tag_569:\n        /* \"#utility.yul\":23719:23977   */\n      pop\n        /* \"#utility.yul\":23670:23977   */\n      pop\n      pop\n      pop\n      jump\t// out\n        /* \"#utility.yul\":23983:24303   */\n    tag_93:\n        /* \"#utility.yul\":24027:24033   */\n      0x00\n        /* \"#utility.yul\":24064:24065   */\n      0x02\n        /* \"#utility.yul\":24058:24062   */\n      dup3\n        /* \"#utility.yul\":24054:24066   */\n      div\n        /* \"#utility.yul\":24044:24066   */\n      swap1\n      pop\n        /* \"#utility.yul\":24111:24112   */\n      0x01\n        /* \"#utility.yul\":24105:24109   */\n      dup3\n        /* \"#utility.yul\":24101:24113   */\n      and\n        /* \"#utility.yul\":24132:24150   */\n      dup1\n        /* \"#utility.yul\":24122:24203   */\n      tag_571\n      jumpi\n        /* \"#utility.yul\":24188:24192   */\n      0x7f\n        /* \"#utility.yul\":24180:24186   */\n      dup3\n        /* \"#utility.yul\":24176:24193   */\n      and\n        /* \"#utility.yul\":24166:24193   */\n      swap2\n      pop\n        /* \"#utility.yul\":24122:24203   */\n    tag_571:\n        /* \"#utility.yul\":24250:24252   */\n      0x20\n        /* \"#utility.yul\":24242:24248   */\n      dup3\n        /* \"#utility.yul\":24239:24253   */\n      lt\n        /* \"#utility.yul\":24219:24237   */\n      dup2\n        /* \"#utility.yul\":24216:24254   */\n      eq\n        /* \"#utility.yul\":24213:24297   */\n      iszero\n      tag_572\n      jumpi\n        /* \"#utility.yul\":24269:24287   */\n      tag_573\n      tag_574\n      jump\t// in\n    tag_573:\n        /* \"#utility.yul\":24213:24297   */\n    tag_572:\n        /* \"#utility.yul\":24034:24303   */\n      pop\n        /* \"#utility.yul\":23983:24303   */\n      swap2\n      swap1\n      pop\n      jump\t// out\n        /* \"#utility.yul\":24309:24590   */\n    tag_524:\n        /* \"#utility.yul\":24392:24419   */\n      tag_576\n        /* \"#utility.yul\":24414:24418   */\n      dup3\n        /* \"#utility.yul\":24392:24419   */\n      tag_397\n      jump\t// in\n    tag_576:\n        /* \"#utility.yul\":24384:24390   */\n      dup2\n        /* \"#utility.yul\":24380:24420   */\n      add\n        /* \"#utility.yul\":24522:24528   */\n      dup2\n        /* \"#utility.yul\":24510:24520   */\n      dup2\n        /* \"#utility.yul\":24507:24529   */\n      lt\n        /* \"#utility.yul\":24486:24504   */\n      0xffffffffffffffff\n        /* \"#utility.yul\":24474:24484   */\n      dup3\n        /* \"#utility.yul\":24471:24505   */\n      gt\n        /* \"#utility.yul\":24468:24530   */\n      or\n        /* \"#utility.yul\":24465:24553   */\n      iszero\n      tag_577\n      jumpi\n        /* \"#utility.yul\":24533:24551   */\n      tag_578\n      tag_134\n      jump\t// in\n    tag_578:\n        /* \"#utility.yul\":24465:24553   */\n    tag_577:\n        /* \"#utility.yul\":24573:24583   */\n      dup1\n        /* \"#utility.yul\":24569:24571   */\n      0x40\n        /* \"#utility.yul\":24562:24584   */\n      mstore\n        /* \"#utility.yul\":24352:24590   */\n      pop\n        /* \"#utility.yul\":24309:24590   */\n      pop\n      pop\n      jump\t// out\n        /* \"#utility.yul\":24596:24829   */\n    tag_147:\n        /* \"#utility.yul\":24635:24638   */\n      0x00\n        /* \"#utility.yul\":24658:24682   */\n      tag_580\n        /* \"#utility.yul\":24676:24681   */\n      dup3\n        /* \"#utility.yul\":24658:24682   */\n      tag_474\n      jump\t// in\n    tag_580:\n        /* \"#utility.yul\":24649:24682   */\n      swap2\n      pop\n        /* \"#utility.yul\":24704:24770   */\n      0xffffffffffffffffffffffffffffffffffffffffffffffffffffffffffffffff\n        /* \"#utility.yul\":24697:24702   */\n      dup3\n        /* \"#utility.yul\":24694:24771   */\n      eq\n        /* \"#utility.yul\":24691:24794   */\n      iszero\n      tag_581\n      jumpi\n        /* \"#utility.yul\":24774:24792   */\n      tag_582\n      tag_544\n      jump\t// in\n    tag_582:\n        /* \"#utility.yul\":24691:24794   */\n    tag_581:\n        /* \"#utility.yul\":24821:24822   */\n      0x01\n        /* \"#utility.yul\":24814:24819   */\n      dup3\n        /* \"#utility.yul\":24810:24823   */\n      add\n        /* \"#utility.yul\":24803:24823   */\n      swap1\n      pop\n        /* \"#utility.yul\":24596:24829   */\n      swap2\n      swap1\n      pop\n      jump\t// out\n        /* \"#utility.yul\":24835:25011   */\n    tag_247:\n        /* \"#utility.yul\":24867:24868   */\n      0x00\n        /* \"#utility.yul\":24884:24904   */\n      tag_584\n        /* \"#utility.yul\":24902:24903   */\n      dup3\n        /* \"#utility.yul\":24884:24904   */\n      tag_474\n      jump\t// in\n    tag_584:\n        /* \"#utility.yul\":24879:24904   */\n      swap2\n      pop\n        /* \"#utility.yul\":24918:24938   */\n      tag_585\n        /* \"#utility.yul\":24936:24937   */\n      dup4\n        /* \"#utility.yul\":24918:24938   */\n      tag_474\n      jump\t// in\n    tag_585:\n        /* \"#utility.yul\":24913:24938   */\n      swap3\n      pop\n        /* \"#utility.yul\":24957:24958   */\n      dup3\n        /* \"#utility.yul\":24947:24982   */\n      tag_586\n      jumpi\n        /* \"#utility.yul\":24962:24980   */\n      tag_587\n      tag_550\n      jump\t// in\n    tag_587:\n        /* \"#utility.yul\":24947:24982   */\n    tag_586:\n        /* \"#utility.yul\":25003:25004   */\n      dup3\n        /* \"#utility.yul\":25000:25001   */\n      dup3\n        /* \"#utility.yul\":24996:25005   */\n      mod\n        /* \"#utility.yul\":24991:25005   */\n      swap1\n      pop\n        /* \"#utility.yul\":24835:25011   */\n      swap3\n      swap2\n      pop\n      pop\n      jump\t// out\n        /* \"#utility.yul\":25017:25197   */\n    tag_544:\n        /* \"#utility.yul\":25065:25142   */\n      0x4e487b7100000000000000000000000000000000000000000000000000000000\n        /* \"#utility.yul\":25062:25063   */\n      0x00\n        /* \"#utility.yul\":25055:25143   */\n      mstore\n        /* \"#utility.yul\":25162:25166   */\n      0x11\n        /* \"#utility.yul\":25159:25160   */\n      0x04\n        /* \"#utility.yul\":25152:25167   */\n      mstore\n        /* \"#utility.yul\":25186:25190   */\n      0x24\n        /* \"#utility.yul\":25183:25184   */\n      0x00\n        /* \"#utility.yul\":25176:25191   */\n      revert\n        /* \"#utility.yul\":25203:25383   */\n    tag_550:\n        /* \"#utility.yul\":25251:25328   */\n      0x4e487b7100000000000000000000000000000000000000000000000000000000\n        /* \"#utility.yul\":25248:25249   */\n      0x00\n        /* \"#utility.yul\":25241:25329   */\n      mstore\n        /* \"#utility.yul\":25348:25352   */\n      0x12\n        /* \"#utility.yul\":25345:25346   */\n      0x04\n        /* \"#utility.yul\":25338:25353   */\n      mstore\n        /* \"#utility.yul\":25372:25376   */\n      0x24\n        /* \"#utility.yul\":25369:25370   */\n      0x00\n        /* \"#utility.yul\":25362:25377   */\n      revert\n        /* \"#utility.yul\":25389:25569   */\n    tag_574:\n        /* \"#utility.yul\":25437:25514   */\n      0x4e487b7100000000000000000000000000000000000000000000000000000000\n        /* \"#utility.yul\":25434:25435   */\n      0x00\n        /* \"#utility.yul\":25427:25515   */\n      mstore\n        /* \"#utility.yul\":25534:25538   */\n      0x22\n        /* \"#utility.yul\":25531:25532   */\n      0x04\n        /* \"#utility.yul\":25524:25539   */\n      mstore\n        /* \"#utility.yul\":25558:25562   */\n      0x24\n        /* \"#utility.yul\":25555:25556   */\n      0x00\n        /* \"#utility.yul\":25548:25563   */\n      revert\n        /* \"#utility.yul\":25575:25755   */\n    tag_145:\n        /* \"#utility.yul\":25623:25700   */\n      0x4e487b7100000000000000000000000000000000000000000000000000000000\n        /* \"#utility.yul\":25620:25621   */\n      0x00\n        /* \"#utility.yul\":25613:25701   */\n      mstore\n        /* \"#utility.yul\":25720:25724   */\n      0x32\n        /* \"#utility.yul\":25717:25718   */\n      0x04\n        /* \"#utility.yul\":25710:25725   */\n      mstore\n        /* \"#utility.yul\":25744:25748   */\n      0x24\n        /* \"#utility.yul\":25741:25742   */\n      0x00\n        /* \"#utility.yul\":25734:25749   */\n      revert\n        /* \"#utility.yul\":25761:25941   */\n    tag_134:\n        /* \"#utility.yul\":25809:25886   */\n      0x4e487b7100000000000000000000000000000000000000000000000000000000\n        /* \"#utility.yul\":25806:25807   */\n      0x00\n        /* \"#utility.yul\":25799:25887   */\n      mstore\n        /* \"#utility.yul\":25906:25910   */\n      0x41\n        /* \"#utility.yul\":25903:25904   */\n      0x04\n        /* \"#utility.yul\":25896:25911   */\n      mstore\n        /* \"#utility.yul\":25930:25934   */\n      0x24\n        /* \"#utility.yul\":25927:25928   */\n      0x00\n        /* \"#utility.yul\":25920:25935   */\n      revert\n        /* \"#utility.yul\":25947:26064   */\n    tag_308:\n        /* \"#utility.yul\":26056:26057   */\n      0x00\n        /* \"#utility.yul\":26053:26054   */\n      dup1\n        /* \"#utility.yul\":26046:26058   */\n      revert\n        /* \"#utility.yul\":26070:26187   */\n    tag_286:\n        /* \"#utility.yul\":26179:26180   */\n      0x00\n        /* \"#utility.yul\":26176:26177   */\n      dup1\n        /* \"#utility.yul\":26169:26181   */\n      revert\n        /* \"#utility.yul\":26193:26310   */\n    tag_338:\n        /* \"#utility.yul\":26302:26303   */\n      0x00\n        /* \"#utility.yul\":26299:26300   */\n      dup1\n        /* \"#utility.yul\":26292:26304   */\n      revert\n        /* \"#utility.yul\":26316:26433   */\n    tag_317:\n        /* \"#utility.yul\":26425:26426   */\n      0x00\n        /* \"#utility.yul\":26422:26423   */\n      dup1\n        /* \"#utility.yul\":26415:26427   */\n      revert\n        /* \"#utility.yul\":26439:26541   */\n    tag_397:\n        /* \"#utility.yul\":26480:26486   */\n      0x00\n        /* \"#utility.yul\":26531:26533   */\n      0x1f\n        /* \"#utility.yul\":26527:26534   */\n      not\n        /* \"#utility.yul\":26522:26524   */\n      0x1f\n        /* \"#utility.yul\":26515:26520   */\n      dup4\n        /* \"#utility.yul\":26511:26525   */\n      add\n        /* \"#utility.yul\":26507:26535   */\n      and\n        /* \"#utility.yul\":26497:26535   */\n      swap1\n      pop\n        /* \"#utility.yul\":26439:26541   */\n      swap2\n      swap1\n      pop\n      jump\t// out\n        /* \"#utility.yul\":26547:26784   */\n    tag_416:\n        /* \"#utility.yul\":26687:26721   */\n      0x4552433732313a207472616e7366657220746f206e6f6e204552433732315265\n        /* \"#utility.yul\":26683:26684   */\n      0x00\n        /* \"#utility.yul\":26675:26681   */\n      dup3\n        /* \"#utility.yul\":26671:26685   */\n      add\n        /* \"#utility.yul\":26664:26722   */\n      mstore\n        /* \"#utility.yul\":26756:26776   */\n      0x63656976657220696d706c656d656e7465720000000000000000000000000000\n        /* \"#utility.yul\":26751:26753   */\n      0x20\n        /* \"#utility.yul\":26743:26749   */\n      dup3\n        /* \"#utility.yul\":26739:26754   */\n      add\n        /* \"#utility.yul\":26732:26777   */\n      mstore\n        /* \"#utility.yul\":26547:26784   */\n      pop\n      jump\t// out\n        /* \"#utility.yul\":26790:27014   */\n    tag_421:\n        /* \"#utility.yul\":26930:26964   */\n      0x4552433732313a207472616e736665722066726f6d20696e636f727265637420\n        /* \"#utility.yul\":26926:26927   */\n      0x00\n        /* \"#utility.yul\":26918:26924   */\n      dup3\n        /* \"#utility.yul\":26914:26928   */\n      add\n        /* \"#utility.yul\":26907:26965   */\n      mstore\n        /* \"#utility.yul\":26999:27006   */\n      0x6f776e6572000000000000000000000000000000000000000000000000000000\n        /* \"#utility.yul\":26994:26996   */\n      0x20\n        /* \"#utility.yul\":26986:26992   */\n      dup3\n        /* \"#utility.yul\":26982:26997   */\n      add\n        /* \"#utility.yul\":26975:27007   */\n      mstore\n        /* \"#utility.yul\":26790:27014   */\n      pop\n      jump\t// out\n        /* \"#utility.yul\":27020:27243   */\n    tag_426:\n        /* \"#utility.yul\":27160:27194   */\n      0x4552433732313a207472616e7366657220746f20746865207a65726f20616464\n        /* \"#utility.yul\":27156:27157   */\n      0x00\n        /* \"#utility.yul\":27148:27154   */\n      dup3\n        /* \"#utility.yul\":27144:27158   */\n      add\n        /* \"#utility.yul\":27137:27195   */\n      mstore\n        /* \"#utility.yul\":27229:27235   */\n      0x7265737300000000000000000000000000000000000000000000000000000000\n        /* \"#utility.yul\":27224:27226   */\n      0x20\n        /* \"#utility.yul\":27216:27222   */\n      dup3\n        /* \"#utility.yul\":27212:27227   */\n      add\n        /* \"#utility.yul\":27205:27236   */\n      mstore\n        /* \"#utility.yul\":27020:27243   */\n      pop\n      jump\t// out\n        /* \"#utility.yul\":27249:27424   */\n    tag_431:\n        /* \"#utility.yul\":27389:27416   */\n      0x4552433732313a20617070726f766520746f2063616c6c657200000000000000\n        /* \"#utility.yul\":27385:27386   */\n      0x00\n        /* \"#utility.yul\":27377:27383   */\n      dup3\n        /* \"#utility.yul\":27373:27387   */\n      add\n        /* \"#utility.yul\":27366:27417   */\n      mstore\n        /* \"#utility.yul\":27249:27424   */\n      pop\n      jump\t// out\n        /* \"#utility.yul\":27430:27661   */\n    tag_436:\n        /* \"#utility.yul\":27570:27604   */\n      0x4552433732313a206f70657261746f7220717565727920666f72206e6f6e6578\n        /* \"#utility.yul\":27566:27567   */\n      0x00\n        /* \"#utility.yul\":27558:27564   */\n      dup3\n        /* \"#utility.yul\":27554:27568   */\n      add\n        /* \"#utility.yul\":27547:27605   */\n      mstore\n        /* \"#utility.yul\":27639:27653   */\n      0x697374656e7420746f6b656e0000000000000000000000000000000000000000\n        /* \"#utility.yul\":27634:27636   */\n      0x20\n        /* \"#utility.yul\":27626:27632   */\n      dup3\n        /* \"#utility.yul\":27622:27637   */\n      add\n        /* \"#utility.yul\":27615:27654   */\n      mstore\n        /* \"#utility.yul\":27430:27661   */\n      pop\n      jump\t// out\n        /* \"#utility.yul\":27667:27910   */\n    tag_441:\n        /* \"#utility.yul\":27807:27841   */\n      0x4552433732313a20617070726f76652063616c6c6572206973206e6f74206f77\n        /* \"#utility.yul\":27803:27804   */\n      0x00\n        /* \"#utility.yul\":27795:27801   */\n      dup3\n        /* \"#utility.yul\":27791:27805   */\n      add\n        /* \"#utility.yul\":27784:27842   */\n      mstore\n        /* \"#utility.yul\":27876:27902   */\n      0x6e6572206e6f7220617070726f76656420666f7220616c6c0000000000000000\n        /* \"#utility.yul\":27871:27873   */\n      0x20\n        /* \"#utility.yul\":27863:27869   */\n      dup3\n        /* \"#utility.yul\":27859:27874   */\n      add\n        /* \"#utility.yul\":27852:27903   */\n      mstore\n        /* \"#utility.yul\":27667:27910   */\n      pop\n      jump\t// out\n        /* \"#utility.yul\":27916:28145   */\n    tag_446:\n        /* \"#utility.yul\":28056:28090   */\n      0x4552433732313a2062616c616e636520717565727920666f7220746865207a65\n        /* \"#utility.yul\":28052:28053   */\n      0x00\n        /* \"#utility.yul\":28044:28050   */\n      dup3\n        /* \"#utility.yul\":28040:28054   */\n      add\n        /* \"#utility.yul\":28033:28091   */\n      mstore\n        /* \"#utility.yul\":28125:28137   */\n      0x726f206164647265737300000000000000000000000000000000000000000000\n        /* \"#utility.yul\":28120:28122   */\n      0x20\n        /* \"#utility.yul\":28112:28118   */\n      dup3\n        /* \"#utility.yul\":28108:28123   */\n      add\n        /* \"#utility.yul\":28101:28138   */\n      mstore\n        /* \"#utility.yul\":27916:28145   */\n      pop\n      jump\t// out\n        /* \"#utility.yul\":28151:28379   */\n    tag_451:\n        /* \"#utility.yul\":28291:28325   */\n      0x4552433732313a206f776e657220717565727920666f72206e6f6e6578697374\n        /* \"#utility.yul\":28287:28288   */\n      0x00\n        /* \"#utility.yul\":28279:28285   */\n      dup3\n        /* \"#utility.yul\":28275:28289   */\n      add\n        /* \"#utility.yul\":28268:28326   */\n      mstore\n        /* \"#utility.yul\":28360:28371   */\n      0x656e7420746f6b656e0000000000000000000000000000000000000000000000\n        /* \"#utility.yul\":28355:28357   */\n      0x20\n        /* \"#utility.yul\":28347:28353   */\n      dup3\n        /* \"#utility.yul\":28343:28358   */\n      add\n        /* \"#utility.yul\":28336:28372   */\n      mstore\n        /* \"#utility.yul\":28151:28379   */\n      pop\n      jump\t// out\n        /* \"#utility.yul\":28385:28616   */\n    tag_456:\n        /* \"#utility.yul\":28525:28559   */\n      0x4552433732313a20617070726f76656420717565727920666f72206e6f6e6578\n        /* \"#utility.yul\":28521:28522   */\n      0x00\n        /* \"#utility.yul\":28513:28519   */\n      dup3\n        /* \"#utility.yul\":28509:28523   */\n      add\n        /* \"#utility.yul\":28502:28560   */\n      mstore\n        /* \"#utility.yul\":28594:28608   */\n      0x697374656e7420746f6b656e0000000000000000000000000000000000000000\n        /* \"#utility.yul\":28589:28591   */\n      0x20\n        /* \"#utility.yul\":28581:28587   */\n      dup3\n        /* \"#utility.yul\":28577:28592   */\n      add\n        /* \"#utility.yul\":28570:28609   */\n      mstore\n        /* \"#utility.yul\":28385:28616   */\n      pop\n      jump\t// out\n        /* \"#utility.yul\":28622:28856   */\n    tag_461:\n        /* \"#utility.yul\":28762:28796   */\n      0x4552433732314d657461646174613a2055524920717565727920666f72206e6f\n        /* \"#utility.yul\":28758:28759   */\n      0x00\n        /* \"#utility.yul\":28750:28756   */\n      dup3\n        /* \"#utility.yul\":28746:28760   */\n      add\n        /* \"#utility.yul\":28739:28797   */\n      mstore\n        /* \"#utility.yul\":28831:28848   */\n      0x6e6578697374656e7420746f6b656e0000000000000000000000000000000000\n        /* \"#utility.yul\":28826:28828   */\n      0x20\n        /* \"#utility.yul\":28818:28824   */\n      dup3\n        /* \"#utility.yul\":28814:28829   */\n      add\n        /* \"#utility.yul\":28807:28849   */\n      mstore\n        /* \"#utility.yul\":28622:28856   */\n      pop\n      jump\t// out\n        /* \"#utility.yul\":28862:29082   */\n    tag_466:\n        /* \"#utility.yul\":29002:29036   */\n      0x4552433732313a20617070726f76616c20746f2063757272656e74206f776e65\n        /* \"#utility.yul\":28998:28999   */\n      0x00\n        /* \"#utility.yul\":28990:28996   */\n      dup3\n        /* \"#utility.yul\":28986:29000   */\n      add\n        /* \"#utility.yul\":28979:29037   */\n      mstore\n        /* \"#utility.yul\":29071:29074   */\n      0x7200000000000000000000000000000000000000000000000000000000000000\n        /* \"#utility.yul\":29066:29068   */\n      0x20\n        /* \"#utility.yul\":29058:29064   */\n      dup3\n        /* \"#utility.yul\":29054:29069   */\n      add\n        /* \"#utility.yul\":29047:29075   */\n      mstore\n        /* \"#utility.yul\":28862:29082   */\n      pop\n      jump\t// out\n        /* \"#utility.yul\":29088:29324   */\n    tag_471:\n        /* \"#utility.yul\":29228:29262   */\n      0x4552433732313a207472616e736665722063616c6c6572206973206e6f74206f\n        /* \"#utility.yul\":29224:29225   */\n      0x00\n        /* \"#utility.yul\":29216:29222   */\n      dup3\n        /* \"#utility.yul\":29212:29226   */\n      add\n        /* \"#utility.yul\":29205:29263   */\n      mstore\n        /* \"#utility.yul\":29297:29316   */\n      0x776e6572206e6f7220617070726f766564000000000000000000000000000000\n        /* \"#utility.yul\":29292:29294   */\n      0x20\n        /* \"#utility.yul\":29284:29290   */\n      dup3\n        /* \"#utility.yul\":29280:29295   */\n      add\n        /* \"#utility.yul\":29273:29317   */\n      mstore\n        /* \"#utility.yul\":29088:29324   */\n      pop\n      jump\t// out\n        /* \"#utility.yul\":29330:29452   */\n    tag_292:\n        /* \"#utility.yul\":29403:29427   */\n      tag_611\n        /* \"#utility.yul\":29421:29426   */\n      dup2\n        /* \"#utility.yul\":29403:29427   */\n      tag_369\n      jump\t// in\n    tag_611:\n        /* \"#utility.yul\":29396:29401   */\n      dup2\n        /* \"#utility.yul\":29393:29428   */\n      eq\n        /* \"#utility.yul\":29383:29446   */\n      tag_612\n      jumpi\n        /* \"#utility.yul\":29442:29443   */\n      0x00\n        /* \"#utility.yul\":29439:29440   */\n      dup1\n        /* \"#utility.yul\":29432:29444   */\n      revert\n        /* \"#utility.yul\":29383:29446   */\n    tag_612:\n        /* \"#utility.yul\":29330:29452   */\n      pop\n      jump\t// out\n        /* \"#utility.yul\":29458:29574   */\n    tag_296:\n        /* \"#utility.yul\":29528:29549   */\n      tag_614\n        /* \"#utility.yul\":29543:29548   */\n      dup2\n        /* \"#utility.yul\":29528:29549   */\n      tag_387\n      jump\t// in\n    tag_614:\n        /* \"#utility.yul\":29521:29526   */\n      dup2\n        /* \"#utility.yul\":29518:29550   */\n      eq\n        /* \"#utility.yul\":29508:29568   */\n      tag_615\n      jumpi\n        /* \"#utility.yul\":29564:29565   */\n      0x00\n        /* \"#utility.yul\":29561:29562   */\n      dup1\n        /* \"#utility.yul\":29554:29566   */\n      revert\n        /* \"#utility.yul\":29508:29568   */\n    tag_615:\n        /* \"#utility.yul\":29458:29574   */\n      pop\n      jump\t// out\n        /* \"#utility.yul\":29580:29700   */\n    tag_300:\n        /* \"#utility.yul\":29652:29675   */\n      tag_617\n        /* \"#utility.yul\":29669:29674   */\n      dup2\n        /* \"#utility.yul\":29652:29675   */\n      tag_560\n      jump\t// in\n    tag_617:\n        /* \"#utility.yul\":29645:29650   */\n      dup2\n        /* \"#utility.yul\":29642:29676   */\n      eq\n        /* \"#utility.yul\":29632:29694   */\n      tag_618\n      jumpi\n        /* \"#utility.yul\":29690:29691   */\n      0x00\n        /* \"#utility.yul\":29687:29688   */\n      dup1\n        /* \"#utility.yul\":29680:29692   */\n      revert\n        /* \"#utility.yul\":29632:29694   */\n    tag_618:\n        /* \"#utility.yul\":29580:29700   */\n      pop\n      jump\t// out\n        /* \"#utility.yul\":29706:29828   */\n    tag_313:\n        /* \"#utility.yul\":29779:29803   */\n      tag_620\n        /* \"#utility.yul\":29797:29802   */\n      dup2\n        /* \"#utility.yul\":29779:29803   */\n      tag_474\n      jump\t// in\n    tag_620:\n        /* \"#utility.yul\":29772:29777   */\n      dup2\n        /* \"#utility.yul\":29769:29804   */\n      eq\n        /* \"#utility.yul\":29759:29822   */\n      tag_621\n      jumpi\n        /* \"#utility.yul\":29818:29819   */\n      0x00\n        /* \"#utility.yul\":29815:29816   */\n      dup1\n        /* \"#utility.yul\":29808:29820   */\n      revert\n        /* \"#utility.yul\":29759:29822   */\n    tag_621:\n        /* \"#utility.yul\":29706:29828   */\n      pop\n      jump\t// out\n\n    auxdata: 0xa26469706673582212206003436a4bac445cbd87dfe6b1730a6f70c9a98d2d4877ea27134fec3d1c0fe664736f6c63430008070033\n}\n",
				"bytecode": {
					"linkReferences": {},
					"object": "60806040526103e86006553480156200001757600080fd5b506040518060400160405280600b81526020017f57656972642050756e6b730000000000000000000000000000000000000000008152506040518060400160405280600281526020017f575000000000000000000000000000000000000000000000000000000000000081525081600090805190602001906200009c929190620000be565b508060019080519060200190620000b5929190620000be565b505050620001d3565b828054620000cc906200016e565b90600052602060002090601f016020900481019282620000f057600085556200013c565b82601f106200010b57805160ff19168380011785556200013c565b828001600101855582156200013c579182015b828111156200013b5782518255916020019190600101906200011e565b5b5090506200014b91906200014f565b5090565b5b808211156200016a57600081600090555060010162000150565b5090565b600060028204905060018216806200018757607f821691505b602082108114156200019e576200019d620001a4565b5b50919050565b7f4e487b7100000000000000000000000000000000000000000000000000000000600052602260045260246000fd5b61266280620001e36000396000f3fe608060405234801561001057600080fd5b50600436106100f55760003560e01c80636352211e11610097578063b88d4fde11610066578063b88d4fde14610296578063c87b56dd146102b2578063d5abeb01146102e2578063e985e9c514610300576100f5565b80636352211e146101fc57806370a082311461022c57806395d89b411461025c578063a22cb4651461027a576100f5565b8063095ea7b3116100d3578063095ea7b31461017857806323b872dd1461019457806342842e0e146101b0578063438b6300146101cc576100f5565b806301ffc9a7146100fa57806306fdde031461012a578063081812fc14610148575b600080fd5b610114600480360381019061010f919061180d565b610330565b6040516101219190611c3a565b60405180910390f35b610132610412565b60405161013f9190611c55565b60405180910390f35b610162600480360381019061015d9190611867565b6104a4565b60405161016f9190611bb1565b60405180910390f35b610192600480360381019061018d91906117cd565b610529565b005b6101ae60048036038101906101a991906116b7565b610641565b005b6101ca60048036038101906101c591906116b7565b6106a1565b005b6101e660048036038101906101e1919061164a565b6106c1565b6040516101f39190611c18565b60405180910390f35b61021660048036038101906102119190611867565b6107db565b6040516102239190611bb1565b60405180910390f35b6102466004803603810190610241919061164a565b61088d565b6040516102539190611df7565b60405180910390f35b610264610945565b6040516102719190611c55565b60405180910390f35b610294600480360381019061028f919061178d565b6109d7565b005b6102b060048036038101906102ab919061170a565b6109ed565b005b6102cc60048036038101906102c79190611867565b610a4f565b6040516102d99190611c55565b60405180910390f35b6102ea610af6565b6040516102f79190611df7565b60405180910390f35b61031a60048036038101906103159190611677565b610afc565b6040516103279190611c3a565b60405180910390f35b60007f80ac58cd000000000000000000000000000000000000000000000000000000007bffffffffffffffffffffffffffffffffffffffffffffffffffffffff1916827bffffffffffffffffffffffffffffffffffffffffffffffffffffffff191614806103fb57507f5b5e139f000000000000000000000000000000000000000000000000000000007bffffffffffffffffffffffffffffffffffffffffffffffffffffffff1916827bffffffffffffffffffffffffffffffffffffffffffffffffffffffff1916145b8061040b575061040a82610b90565b5b9050919050565b60606000805461042190612055565b80601f016020809104026020016040519081016040528092919081815260200182805461044d90612055565b801561049a5780601f1061046f5761010080835404028352916020019161049a565b820191906000526020600020905b81548152906001019060200180831161047d57829003601f168201915b5050505050905090565b60006104af82610bfa565b6104ee576040517f08c379a00000000000000000000000000000000000000000000000000000000081526004016104e590611d77565b60405180910390fd5b6004600083815260200190815260200160002060009054906101000a900473ffffffffffffffffffffffffffffffffffffffff169050919050565b6000610534826107db565b90508073ffffffffffffffffffffffffffffffffffffffff168373ffffffffffffffffffffffffffffffffffffffff1614156105a5576040517f08c379a000000000000000000000000000000000000000000000000000000000815260040161059c90611db7565b60405180910390fd5b8073ffffffffffffffffffffffffffffffffffffffff166105c4610c66565b73ffffffffffffffffffffffffffffffffffffffff1614806105f357506105f2816105ed610c66565b610afc565b5b610632576040517f08c379a000000000000000000000000000000000000000000000000000000000815260040161062990611d17565b60405180910390fd5b61063c8383610c6e565b505050565b61065261064c610c66565b82610d27565b610691576040517f08c379a000000000000000000000000000000000000000000000000000000000815260040161068890611dd7565b60405180910390fd5b61069c838383610e05565b505050565b6106bc838383604051806020016040528060008152506109ed565b505050565b606060006106ce8361088d565b905060008167ffffffffffffffff8111156106ec576106eb6121ee565b5b60405190808252806020026020018201604052801561071a5781602001602082028036833780820191505090505b50905060006001905060005b838110801561073757506006548211155b156107cf5761074582610bfa565b156107ca576000610755836107db565b90508673ffffffffffffffffffffffffffffffffffffffff168173ffffffffffffffffffffffffffffffffffffffff1614156107ba578284838151811061079f5761079e6121bf565b5b60200260200101818152505081806107b6906120b8565b9250505b82806107c5906120b8565b935050505b610726565b82945050505050919050565b6000806002600084815260200190815260200160002060009054906101000a900473ffffffffffffffffffffffffffffffffffffffff169050600073ffffffffffffffffffffffffffffffffffffffff168173ffffffffffffffffffffffffffffffffffffffff161415610884576040517f08c379a000000000000000000000000000000000000000000000000000000000815260040161087b90611d57565b60405180910390fd5b80915050919050565b60008073ffffffffffffffffffffffffffffffffffffffff168273ffffffffffffffffffffffffffffffffffffffff1614156108fe576040517f08c379a00000000000000000000000000000000000000000000000000000000081526004016108f590611d37565b60405180910390fd5b600360008373ffffffffffffffffffffffffffffffffffffffff1673ffffffffffffffffffffffffffffffffffffffff168152602001908152602001600020549050919050565b60606001805461095490612055565b80601f016020809104026020016040519081016040528092919081815260200182805461098090612055565b80156109cd5780601f106109a2576101008083540402835291602001916109cd565b820191906000526020600020905b8154815290600101906020018083116109b057829003601f168201915b5050505050905090565b6109e96109e2610c66565b838361106c565b5050565b6109fe6109f8610c66565b83610d27565b610a3d576040517f08c379a0000000000000000000000000000000000000000000000000000000008152600401610a3490611dd7565b60405180910390fd5b610a49848484846111d9565b50505050565b6060610a5a82610bfa565b610a99576040517f08c379a0000000000000000000000000000000000000000000000000000000008152600401610a9090611d97565b60405180910390fd5b6000610aa3611235565b90506000815111610ac35760405180602001604052806000815250610aee565b80610acd8461124c565b604051602001610ade929190611b8d565b6040516020818303038152906040525b915050919050565b60065481565b6000600560008473ffffffffffffffffffffffffffffffffffffffff1673ffffffffffffffffffffffffffffffffffffffff16815260200190815260200160002060008373ffffffffffffffffffffffffffffffffffffffff1673ffffffffffffffffffffffffffffffffffffffff16815260200190815260200160002060009054906101000a900460ff16905092915050565b60007f01ffc9a7000000000000000000000000000000000000000000000000000000007bffffffffffffffffffffffffffffffffffffffffffffffffffffffff1916827bffffffffffffffffffffffffffffffffffffffffffffffffffffffff1916149050919050565b60008073ffffffffffffffffffffffffffffffffffffffff166002600084815260200190815260200160002060009054906101000a900473ffffffffffffffffffffffffffffffffffffffff1673ffffffffffffffffffffffffffffffffffffffff1614159050919050565b600033905090565b816004600083815260200190815260200160002060006101000a81548173ffffffffffffffffffffffffffffffffffffffff021916908373ffffffffffffffffffffffffffffffffffffffff160217905550808273ffffffffffffffffffffffffffffffffffffffff16610ce1836107db565b73ffffffffffffffffffffffffffffffffffffffff167f8c5be1e5ebec7d5bd14f71427d1e84f3dd0314c0f7b2291e5b200ac8c7c3b92560405160405180910390a45050565b6000610d3282610bfa565b610d71576040517f08c379a0000000000000000000000000000000000000000000000000000000008152600401610d6890611cf7565b60405180910390fd5b6000610d7c836107db565b90508073ffffffffffffffffffffffffffffffffffffffff168473ffffffffffffffffffffffffffffffffffffffff161480610dbe5750610dbd8185610afc565b5b80610dfc57508373ffffffffffffffffffffffffffffffffffffffff16610de4846104a4565b73ffffffffffffffffffffffffffffffffffffffff16145b91505092915050565b8273ffffffffffffffffffffffffffffffffffffffff16610e25826107db565b73ffffffffffffffffffffffffffffffffffffffff1614610e7b576040517f08c379a0000000000000000000000000000000000000000000000000000000008152600401610e7290611c97565b60405180910390fd5b600073ffffffffffffffffffffffffffffffffffffffff168273ffffffffffffffffffffffffffffffffffffffff161415610eeb576040517f08c379a0000000000000000000000000000000000000000000000000000000008152600401610ee290611cb7565b60405180910390fd5b610ef68383836113ad565b610f01600082610c6e565b6001600360008573ffffffffffffffffffffffffffffffffffffffff1673ffffffffffffffffffffffffffffffffffffffff1681526020019081526020016000206000828254610f519190611f6b565b925050819055506001600360008473ffffffffffffffffffffffffffffffffffffffff1673ffffffffffffffffffffffffffffffffffffffff1681526020019081526020016000206000828254610fa89190611ee4565b92505081905550816002600083815260200190815260200160002060006101000a81548173ffffffffffffffffffffffffffffffffffffffff021916908373ffffffffffffffffffffffffffffffffffffffff160217905550808273ffffffffffffffffffffffffffffffffffffffff168473ffffffffffffffffffffffffffffffffffffffff167fddf252ad1be2c89b69c2b068fc378daa952ba7f163c4a11628f55a4df523b3ef60405160405180910390a46110678383836113b2565b505050565b8173ffffffffffffffffffffffffffffffffffffffff168373ffffffffffffffffffffffffffffffffffffffff1614156110db576040517f08c379a00000000000000000000000000000000000000000000000000000000081526004016110d290611cd7565b60405180910390fd5b80600560008573ffffffffffffffffffffffffffffffffffffffff1673ffffffffffffffffffffffffffffffffffffffff16815260200190815260200160002060008473ffffffffffffffffffffffffffffffffffffffff1673ffffffffffffffffffffffffffffffffffffffff16815260200190815260200160002060006101000a81548160ff0219169083151502179055508173ffffffffffffffffffffffffffffffffffffffff168373ffffffffffffffffffffffffffffffffffffffff167f17307eab39ab6107e8899845ad3d59bd9653f200f220920489ca2b5937696c31836040516111cc9190611c3a565b60405180910390a3505050565b6111e4848484610e05565b6111f0848484846113b7565b61122f576040517f08c379a000000000000000000000000000000000000000000000000000000000815260040161122690611c77565b60405180910390fd5b50505050565b606060405180602001604052806000815250905090565b60606000821415611294576040518060400160405280600181526020017f300000000000000000000000000000000000000000000000000000000000000081525090506113a8565b600082905060005b600082146112c65780806112af906120b8565b915050600a826112bf9190611f3a565b915061129c565b60008167ffffffffffffffff8111156112e2576112e16121ee565b5b6040519080825280601f01601f1916602001820160405280156113145781602001600182028036833780820191505090505b5090505b600085146113a15760018261132d9190611f6b565b9150600a8561133c9190612101565b60306113489190611ee4565b60f81b81838151811061135e5761135d6121bf565b5b60200101907effffffffffffffffffffffffffffffffffffffffffffffffffffffffffffff1916908160001a905350600a8561139a9190611f3a565b9450611318565b8093505050505b919050565b505050565b505050565b60006113d88473ffffffffffffffffffffffffffffffffffffffff1661154e565b15611541578373ffffffffffffffffffffffffffffffffffffffff1663150b7a02611401610c66565b8786866040518563ffffffff1660e01b81526004016114239493929190611bcc565b602060405180830381600087803b15801561143d57600080fd5b505af192505050801561146e57506040513d601f19601f8201168201806040525081019061146b919061183a565b60015b6114f1573d806000811461149e576040519150601f19603f3d011682016040523d82523d6000602084013e6114a3565b606091505b506000815114156114e9576040517f08c379a00000000000000000000000000000000000000000000000000000000081526004016114e090611c77565b60405180910390fd5b805181602001fd5b63150b7a0260e01b7bffffffffffffffffffffffffffffffffffffffffffffffffffffffff1916817bffffffffffffffffffffffffffffffffffffffffffffffffffffffff191614915050611546565b600190505b949350505050565b6000808273ffffffffffffffffffffffffffffffffffffffff163b119050919050565b600061158461157f84611e37565b611e12565b9050828152602081018484840111156115a05761159f612222565b5b6115ab848285612013565b509392505050565b6000813590506115c2816125d0565b92915050565b6000813590506115d7816125e7565b92915050565b6000813590506115ec816125fe565b92915050565b600081519050611601816125fe565b92915050565b600082601f83011261161c5761161b61221d565b5b813561162c848260208601611571565b91505092915050565b60008135905061164481612615565b92915050565b6000602082840312156116605761165f61222c565b5b600061166e848285016115b3565b91505092915050565b6000806040838503121561168e5761168d61222c565b5b600061169c858286016115b3565b92505060206116ad858286016115b3565b9150509250929050565b6000806000606084860312156116d0576116cf61222c565b5b60006116de868287016115b3565b93505060206116ef868287016115b3565b925050604061170086828701611635565b9150509250925092565b600080600080608085870312156117245761172361222c565b5b6000611732878288016115b3565b9450506020611743878288016115b3565b935050604061175487828801611635565b925050606085013567ffffffffffffffff81111561177557611774612227565b5b61178187828801611607565b91505092959194509250565b600080604083850312156117a4576117a361222c565b5b60006117b2858286016115b3565b92505060206117c3858286016115c8565b9150509250929050565b600080604083850312156117e4576117e361222c565b5b60006117f2858286016115b3565b925050602061180385828601611635565b9150509250929050565b6000602082840312156118235761182261222c565b5b6000611831848285016115dd565b91505092915050565b6000602082840312156118505761184f61222c565b5b600061185e848285016115f2565b91505092915050565b60006020828403121561187d5761187c61222c565b5b600061188b84828501611635565b91505092915050565b60006118a08383611b6f565b60208301905092915050565b6118b581611f9f565b82525050565b60006118c682611e78565b6118d08185611ea6565b93506118db83611e68565b8060005b8381101561190c5781516118f38882611894565b97506118fe83611e99565b9250506001810190506118df565b5085935050505092915050565b61192281611fb1565b82525050565b600061193382611e83565b61193d8185611eb7565b935061194d818560208601612022565b61195681612231565b840191505092915050565b600061196c82611e8e565b6119768185611ec8565b9350611986818560208601612022565b61198f81612231565b840191505092915050565b60006119a582611e8e565b6119af8185611ed9565b93506119bf818560208601612022565b80840191505092915050565b60006119d8603283611ec8565b91506119e382612242565b604082019050919050565b60006119fb602583611ec8565b9150611a0682612291565b604082019050919050565b6000611a1e602483611ec8565b9150611a29826122e0565b604082019050919050565b6000611a41601983611ec8565b9150611a4c8261232f565b602082019050919050565b6000611a64602c83611ec8565b9150611a6f82612358565b604082019050919050565b6000611a87603883611ec8565b9150611a92826123a7565b604082019050919050565b6000611aaa602a83611ec8565b9150611ab5826123f6565b604082019050919050565b6000611acd602983611ec8565b9150611ad882612445565b604082019050919050565b6000611af0602c83611ec8565b9150611afb82612494565b604082019050919050565b6000611b13602f83611ec8565b9150611b1e826124e3565b604082019050919050565b6000611b36602183611ec8565b9150611b4182612532565b604082019050919050565b6000611b59603183611ec8565b9150611b6482612581565b604082019050919050565b611b7881612009565b82525050565b611b8781612009565b82525050565b6000611b99828561199a565b9150611ba5828461199a565b91508190509392505050565b6000602082019050611bc660008301846118ac565b92915050565b6000608082019050611be160008301876118ac565b611bee60208301866118ac565b611bfb6040830185611b7e565b8181036060830152611c0d8184611928565b905095945050505050565b60006020820190508181036000830152611c3281846118bb565b905092915050565b6000602082019050611c4f6000830184611919565b92915050565b60006020820190508181036000830152611c6f8184611961565b905092915050565b60006020820190508181036000830152611c90816119cb565b9050919050565b60006020820190508181036000830152611cb0816119ee565b9050919050565b60006020820190508181036000830152611cd081611a11565b9050919050565b60006020820190508181036000830152611cf081611a34565b9050919050565b60006020820190508181036000830152611d1081611a57565b9050919050565b60006020820190508181036000830152611d3081611a7a565b9050919050565b60006020820190508181036000830152611d5081611a9d565b9050919050565b60006020820190508181036000830152611d7081611ac0565b9050919050565b60006020820190508181036000830152611d9081611ae3565b9050919050565b60006020820190508181036000830152611db081611b06565b9050919050565b60006020820190508181036000830152611dd081611b29565b9050919050565b60006020820190508181036000830152611df081611b4c565b9050919050565b6000602082019050611e0c6000830184611b7e565b92915050565b6000611e1c611e2d565b9050611e288282612087565b919050565b6000604051905090565b600067ffffffffffffffff821115611e5257611e516121ee565b5b611e5b82612231565b9050602081019050919050565b6000819050602082019050919050565b600081519050919050565b600081519050919050565b600081519050919050565b6000602082019050919050565b600082825260208201905092915050565b600082825260208201905092915050565b600082825260208201905092915050565b600081905092915050565b6000611eef82612009565b9150611efa83612009565b9250827fffffffffffffffffffffffffffffffffffffffffffffffffffffffffffffffff03821115611f2f57611f2e612132565b5b828201905092915050565b6000611f4582612009565b9150611f5083612009565b925082611f6057611f5f612161565b5b828204905092915050565b6000611f7682612009565b9150611f8183612009565b925082821015611f9457611f93612132565b5b828203905092915050565b6000611faa82611fe9565b9050919050565b60008115159050919050565b60007fffffffff0000000000000000000000000000000000000000000000000000000082169050919050565b600073ffffffffffffffffffffffffffffffffffffffff82169050919050565b6000819050919050565b82818337600083830152505050565b60005b83811015612040578082015181840152602081019050612025565b8381111561204f576000848401525b50505050565b6000600282049050600182168061206d57607f821691505b6020821081141561208157612080612190565b5b50919050565b61209082612231565b810181811067ffffffffffffffff821117156120af576120ae6121ee565b5b80604052505050565b60006120c382612009565b91507fffffffffffffffffffffffffffffffffffffffffffffffffffffffffffffffff8214156120f6576120f5612132565b5b600182019050919050565b600061210c82612009565b915061211783612009565b92508261212757612126612161565b5b828206905092915050565b7f4e487b7100000000000000000000000000000000000000000000000000000000600052601160045260246000fd5b7f4e487b7100000000000000000000000000000000000000000000000000000000600052601260045260246000fd5b7f4e487b7100000000000000000000000000000000000000000000000000000000600052602260045260246000fd5b7f4e487b7100000000000000000000000000000000000000000000000000000000600052603260045260246000fd5b7f4e487b7100000000000000000000000000000000000000000000000000000000600052604160045260246000fd5b600080fd5b600080fd5b600080fd5b600080fd5b6000601f19601f8301169050919050565b7f4552433732313a207472616e7366657220746f206e6f6e20455243373231526560008201527f63656976657220696d706c656d656e7465720000000000000000000000000000602082015250565b7f4552433732313a207472616e736665722066726f6d20696e636f72726563742060008201527f6f776e6572000000000000000000000000000000000000000000000000000000602082015250565b7f4552433732313a207472616e7366657220746f20746865207a65726f2061646460008201527f7265737300000000000000000000000000000000000000000000000000000000602082015250565b7f4552433732313a20617070726f766520746f2063616c6c657200000000000000600082015250565b7f4552433732313a206f70657261746f7220717565727920666f72206e6f6e657860008201527f697374656e7420746f6b656e0000000000000000000000000000000000000000602082015250565b7f4552433732313a20617070726f76652063616c6c6572206973206e6f74206f7760008201527f6e6572206e6f7220617070726f76656420666f7220616c6c0000000000000000602082015250565b7f4552433732313a2062616c616e636520717565727920666f7220746865207a6560008201527f726f206164647265737300000000000000000000000000000000000000000000602082015250565b7f4552433732313a206f776e657220717565727920666f72206e6f6e657869737460008201527f656e7420746f6b656e0000000000000000000000000000000000000000000000602082015250565b7f4552433732313a20617070726f76656420717565727920666f72206e6f6e657860008201527f697374656e7420746f6b656e0000000000000000000000000000000000000000602082015250565b7f4552433732314d657461646174613a2055524920717565727920666f72206e6f60008201527f6e6578697374656e7420746f6b656e0000000000000000000000000000000000602082015250565b7f4552433732313a20617070726f76616c20746f2063757272656e74206f776e6560008201527f7200000000000000000000000000000000000000000000000000000000000000602082015250565b7f4552433732313a207472616e736665722063616c6c6572206973206e6f74206f60008201527f776e6572206e6f7220617070726f766564000000000000000000000000000000602082015250565b6125d981611f9f565b81146125e457600080fd5b50565b6125f081611fb1565b81146125fb57600080fd5b50565b61260781611fbd565b811461261257600080fd5b50565b61261e81612009565b811461262957600080fd5b5056fea26469706673582212206003436a4bac445cbd87dfe6b1730a6f70c9a98d2d4877ea27134fec3d1c0fe664736f6c63430008070033",
					"opcodes": "PUSH1 0x80 PUSH1 0x40 MSTORE PUSH2 0x3E8 PUSH1 0x6 SSTORE CALLVALUE DUP1 ISZERO PUSH3 0x17 JUMPI PUSH1 0x0 DUP1 REVERT JUMPDEST POP PUSH1 0x40 MLOAD DUP1 PUSH1 0x40 ADD PUSH1 0x40 MSTORE DUP1 PUSH1 0xB DUP2 MSTORE PUSH1 0x20 ADD PUSH32 0x57656972642050756E6B73000000000000000000000000000000000000000000 DUP2 MSTORE POP PUSH1 0x40 MLOAD DUP1 PUSH1 0x40 ADD PUSH1 0x40 MSTORE DUP1 PUSH1 0x2 DUP2 MSTORE PUSH1 0x20 ADD PUSH32 0x5750000000000000000000000000000000000000000000000000000000000000 DUP2 MSTORE POP DUP2 PUSH1 0x0 SWAP1 DUP1 MLOAD SWAP1 PUSH1 0x20 ADD SWAP1 PUSH3 0x9C SWAP3 SWAP2 SWAP1 PUSH3 0xBE JUMP JUMPDEST POP DUP1 PUSH1 0x1 SWAP1 DUP1 MLOAD SWAP1 PUSH1 0x20 ADD SWAP1 PUSH3 0xB5 SWAP3 SWAP2 SWAP1 PUSH3 0xBE JUMP JUMPDEST POP POP POP PUSH3 0x1D3 JUMP JUMPDEST DUP3 DUP1 SLOAD PUSH3 0xCC SWAP1 PUSH3 0x16E JUMP JUMPDEST SWAP1 PUSH1 0x0 MSTORE PUSH1 0x20 PUSH1 0x0 KECCAK256 SWAP1 PUSH1 0x1F ADD PUSH1 0x20 SWAP1 DIV DUP2 ADD SWAP3 DUP3 PUSH3 0xF0 JUMPI PUSH1 0x0 DUP6 SSTORE PUSH3 0x13C JUMP JUMPDEST DUP3 PUSH1 0x1F LT PUSH3 0x10B JUMPI DUP1 MLOAD PUSH1 0xFF NOT AND DUP4 DUP1 ADD OR DUP6 SSTORE PUSH3 0x13C JUMP JUMPDEST DUP3 DUP1 ADD PUSH1 0x1 ADD DUP6 SSTORE DUP3 ISZERO PUSH3 0x13C JUMPI SWAP2 DUP3 ADD JUMPDEST DUP3 DUP2 GT ISZERO PUSH3 0x13B JUMPI DUP3 MLOAD DUP3 SSTORE SWAP2 PUSH1 0x20 ADD SWAP2 SWAP1 PUSH1 0x1 ADD SWAP1 PUSH3 0x11E JUMP JUMPDEST JUMPDEST POP SWAP1 POP PUSH3 0x14B SWAP2 SWAP1 PUSH3 0x14F JUMP JUMPDEST POP SWAP1 JUMP JUMPDEST JUMPDEST DUP1 DUP3 GT ISZERO PUSH3 0x16A JUMPI PUSH1 0x0 DUP2 PUSH1 0x0 SWAP1 SSTORE POP PUSH1 0x1 ADD PUSH3 0x150 JUMP JUMPDEST POP SWAP1 JUMP JUMPDEST PUSH1 0x0 PUSH1 0x2 DUP3 DIV SWAP1 POP PUSH1 0x1 DUP3 AND DUP1 PUSH3 0x187 JUMPI PUSH1 0x7F DUP3 AND SWAP2 POP JUMPDEST PUSH1 0x20 DUP3 LT DUP2 EQ ISZERO PUSH3 0x19E JUMPI PUSH3 0x19D PUSH3 0x1A4 JUMP JUMPDEST JUMPDEST POP SWAP2 SWAP1 POP JUMP JUMPDEST PUSH32 0x4E487B7100000000000000000000000000000000000000000000000000000000 PUSH1 0x0 MSTORE PUSH1 0x22 PUSH1 0x4 MSTORE PUSH1 0x24 PUSH1 0x0 REVERT JUMPDEST PUSH2 0x2662 DUP1 PUSH3 0x1E3 PUSH1 0x0 CODECOPY PUSH1 0x0 RETURN INVALID PUSH1 0x80 PUSH1 0x40 MSTORE CALLVALUE DUP1 ISZERO PUSH2 0x10 JUMPI PUSH1 0x0 DUP1 REVERT JUMPDEST POP PUSH1 0x4 CALLDATASIZE LT PUSH2 0xF5 JUMPI PUSH1 0x0 CALLDATALOAD PUSH1 0xE0 SHR DUP1 PUSH4 0x6352211E GT PUSH2 0x97 JUMPI DUP1 PUSH4 0xB88D4FDE GT PUSH2 0x66 JUMPI DUP1 PUSH4 0xB88D4FDE EQ PUSH2 0x296 JUMPI DUP1 PUSH4 0xC87B56DD EQ PUSH2 0x2B2 JUMPI DUP1 PUSH4 0xD5ABEB01 EQ PUSH2 0x2E2 JUMPI DUP1 PUSH4 0xE985E9C5 EQ PUSH2 0x300 JUMPI PUSH2 0xF5 JUMP JUMPDEST DUP1 PUSH4 0x6352211E EQ PUSH2 0x1FC JUMPI DUP1 PUSH4 0x70A08231 EQ PUSH2 0x22C JUMPI DUP1 PUSH4 0x95D89B41 EQ PUSH2 0x25C JUMPI DUP1 PUSH4 0xA22CB465 EQ PUSH2 0x27A JUMPI PUSH2 0xF5 JUMP JUMPDEST DUP1 PUSH4 0x95EA7B3 GT PUSH2 0xD3 JUMPI DUP1 PUSH4 0x95EA7B3 EQ PUSH2 0x178 JUMPI DUP1 PUSH4 0x23B872DD EQ PUSH2 0x194 JUMPI DUP1 PUSH4 0x42842E0E EQ PUSH2 0x1B0 JUMPI DUP1 PUSH4 0x438B6300 EQ PUSH2 0x1CC JUMPI PUSH2 0xF5 JUMP JUMPDEST DUP1 PUSH4 0x1FFC9A7 EQ PUSH2 0xFA JUMPI DUP1 PUSH4 0x6FDDE03 EQ PUSH2 0x12A JUMPI DUP1 PUSH4 0x81812FC EQ PUSH2 0x148 JUMPI JUMPDEST PUSH1 0x0 DUP1 REVERT JUMPDEST PUSH2 0x114 PUSH1 0x4 DUP1 CALLDATASIZE SUB DUP2 ADD SWAP1 PUSH2 0x10F SWAP2 SWAP1 PUSH2 0x180D JUMP JUMPDEST PUSH2 0x330 JUMP JUMPDEST PUSH1 0x40 MLOAD PUSH2 0x121 SWAP2 SWAP1 PUSH2 0x1C3A JUMP JUMPDEST PUSH1 0x40 MLOAD DUP1 SWAP2 SUB SWAP1 RETURN JUMPDEST PUSH2 0x132 PUSH2 0x412 JUMP JUMPDEST PUSH1 0x40 MLOAD PUSH2 0x13F SWAP2 SWAP1 PUSH2 0x1C55 JUMP JUMPDEST PUSH1 0x40 MLOAD DUP1 SWAP2 SUB SWAP1 RETURN JUMPDEST PUSH2 0x162 PUSH1 0x4 DUP1 CALLDATASIZE SUB DUP2 ADD SWAP1 PUSH2 0x15D SWAP2 SWAP1 PUSH2 0x1867 JUMP JUMPDEST PUSH2 0x4A4 JUMP JUMPDEST PUSH1 0x40 MLOAD PUSH2 0x16F SWAP2 SWAP1 PUSH2 0x1BB1 JUMP JUMPDEST PUSH1 0x40 MLOAD DUP1 SWAP2 SUB SWAP1 RETURN JUMPDEST PUSH2 0x192 PUSH1 0x4 DUP1 CALLDATASIZE SUB DUP2 ADD SWAP1 PUSH2 0x18D SWAP2 SWAP1 PUSH2 0x17CD JUMP JUMPDEST PUSH2 0x529 JUMP JUMPDEST STOP JUMPDEST PUSH2 0x1AE PUSH1 0x4 DUP1 CALLDATASIZE SUB DUP2 ADD SWAP1 PUSH2 0x1A9 SWAP2 SWAP1 PUSH2 0x16B7 JUMP JUMPDEST PUSH2 0x641 JUMP JUMPDEST STOP JUMPDEST PUSH2 0x1CA PUSH1 0x4 DUP1 CALLDATASIZE SUB DUP2 ADD SWAP1 PUSH2 0x1C5 SWAP2 SWAP1 PUSH2 0x16B7 JUMP JUMPDEST PUSH2 0x6A1 JUMP JUMPDEST STOP JUMPDEST PUSH2 0x1E6 PUSH1 0x4 DUP1 CALLDATASIZE SUB DUP2 ADD SWAP1 PUSH2 0x1E1 SWAP2 SWAP1 PUSH2 0x164A JUMP JUMPDEST PUSH2 0x6C1 JUMP JUMPDEST PUSH1 0x40 MLOAD PUSH2 0x1F3 SWAP2 SWAP1 PUSH2 0x1C18 JUMP JUMPDEST PUSH1 0x40 MLOAD DUP1 SWAP2 SUB SWAP1 RETURN JUMPDEST PUSH2 0x216 PUSH1 0x4 DUP1 CALLDATASIZE SUB DUP2 ADD SWAP1 PUSH2 0x211 SWAP2 SWAP1 PUSH2 0x1867 JUMP JUMPDEST PUSH2 0x7DB JUMP JUMPDEST PUSH1 0x40 MLOAD PUSH2 0x223 SWAP2 SWAP1 PUSH2 0x1BB1 JUMP JUMPDEST PUSH1 0x40 MLOAD DUP1 SWAP2 SUB SWAP1 RETURN JUMPDEST PUSH2 0x246 PUSH1 0x4 DUP1 CALLDATASIZE SUB DUP2 ADD SWAP1 PUSH2 0x241 SWAP2 SWAP1 PUSH2 0x164A JUMP JUMPDEST PUSH2 0x88D JUMP JUMPDEST PUSH1 0x40 MLOAD PUSH2 0x253 SWAP2 SWAP1 PUSH2 0x1DF7 JUMP JUMPDEST PUSH1 0x40 MLOAD DUP1 SWAP2 SUB SWAP1 RETURN JUMPDEST PUSH2 0x264 PUSH2 0x945 JUMP JUMPDEST PUSH1 0x40 MLOAD PUSH2 0x271 SWAP2 SWAP1 PUSH2 0x1C55 JUMP JUMPDEST PUSH1 0x40 MLOAD DUP1 SWAP2 SUB SWAP1 RETURN JUMPDEST PUSH2 0x294 PUSH1 0x4 DUP1 CALLDATASIZE SUB DUP2 ADD SWAP1 PUSH2 0x28F SWAP2 SWAP1 PUSH2 0x178D JUMP JUMPDEST PUSH2 0x9D7 JUMP JUMPDEST STOP JUMPDEST PUSH2 0x2B0 PUSH1 0x4 DUP1 CALLDATASIZE SUB DUP2 ADD SWAP1 PUSH2 0x2AB SWAP2 SWAP1 PUSH2 0x170A JUMP JUMPDEST PUSH2 0x9ED JUMP JUMPDEST STOP JUMPDEST PUSH2 0x2CC PUSH1 0x4 DUP1 CALLDATASIZE SUB DUP2 ADD SWAP1 PUSH2 0x2C7 SWAP2 SWAP1 PUSH2 0x1867 JUMP JUMPDEST PUSH2 0xA4F JUMP JUMPDEST PUSH1 0x40 MLOAD PUSH2 0x2D9 SWAP2 SWAP1 PUSH2 0x1C55 JUMP JUMPDEST PUSH1 0x40 MLOAD DUP1 SWAP2 SUB SWAP1 RETURN JUMPDEST PUSH2 0x2EA PUSH2 0xAF6 JUMP JUMPDEST PUSH1 0x40 MLOAD PUSH2 0x2F7 SWAP2 SWAP1 PUSH2 0x1DF7 JUMP JUMPDEST PUSH1 0x40 MLOAD DUP1 SWAP2 SUB SWAP1 RETURN JUMPDEST PUSH2 0x31A PUSH1 0x4 DUP1 CALLDATASIZE SUB DUP2 ADD SWAP1 PUSH2 0x315 SWAP2 SWAP1 PUSH2 0x1677 JUMP JUMPDEST PUSH2 0xAFC JUMP JUMPDEST PUSH1 0x40 MLOAD PUSH2 0x327 SWAP2 SWAP1 PUSH2 0x1C3A JUMP JUMPDEST PUSH1 0x40 MLOAD DUP1 SWAP2 SUB SWAP1 RETURN JUMPDEST PUSH1 0x0 PUSH32 0x80AC58CD00000000000000000000000000000000000000000000000000000000 PUSH28 0xFFFFFFFFFFFFFFFFFFFFFFFFFFFFFFFFFFFFFFFFFFFFFFFFFFFFFFFF NOT AND DUP3 PUSH28 0xFFFFFFFFFFFFFFFFFFFFFFFFFFFFFFFFFFFFFFFFFFFFFFFFFFFFFFFF NOT AND EQ DUP1 PUSH2 0x3FB JUMPI POP PUSH32 0x5B5E139F00000000000000000000000000000000000000000000000000000000 PUSH28 0xFFFFFFFFFFFFFFFFFFFFFFFFFFFFFFFFFFFFFFFFFFFFFFFFFFFFFFFF NOT AND DUP3 PUSH28 0xFFFFFFFFFFFFFFFFFFFFFFFFFFFFFFFFFFFFFFFFFFFFFFFFFFFFFFFF NOT AND EQ JUMPDEST DUP1 PUSH2 0x40B JUMPI POP PUSH2 0x40A DUP3 PUSH2 0xB90 JUMP JUMPDEST JUMPDEST SWAP1 POP SWAP2 SWAP1 POP JUMP JUMPDEST PUSH1 0x60 PUSH1 0x0 DUP1 SLOAD PUSH2 0x421 SWAP1 PUSH2 0x2055 JUMP JUMPDEST DUP1 PUSH1 0x1F ADD PUSH1 0x20 DUP1 SWAP2 DIV MUL PUSH1 0x20 ADD PUSH1 0x40 MLOAD SWAP1 DUP2 ADD PUSH1 0x40 MSTORE DUP1 SWAP3 SWAP2 SWAP1 DUP2 DUP2 MSTORE PUSH1 0x20 ADD DUP3 DUP1 SLOAD PUSH2 0x44D SWAP1 PUSH2 0x2055 JUMP JUMPDEST DUP1 ISZERO PUSH2 0x49A JUMPI DUP1 PUSH1 0x1F LT PUSH2 0x46F JUMPI PUSH2 0x100 DUP1 DUP4 SLOAD DIV MUL DUP4 MSTORE SWAP2 PUSH1 0x20 ADD SWAP2 PUSH2 0x49A JUMP JUMPDEST DUP3 ADD SWAP2 SWAP1 PUSH1 0x0 MSTORE PUSH1 0x20 PUSH1 0x0 KECCAK256 SWAP1 JUMPDEST DUP2 SLOAD DUP2 MSTORE SWAP1 PUSH1 0x1 ADD SWAP1 PUSH1 0x20 ADD DUP1 DUP4 GT PUSH2 0x47D JUMPI DUP3 SWAP1 SUB PUSH1 0x1F AND DUP3 ADD SWAP2 JUMPDEST POP POP POP POP POP SWAP1 POP SWAP1 JUMP JUMPDEST PUSH1 0x0 PUSH2 0x4AF DUP3 PUSH2 0xBFA JUMP JUMPDEST PUSH2 0x4EE JUMPI PUSH1 0x40 MLOAD PUSH32 0x8C379A000000000000000000000000000000000000000000000000000000000 DUP2 MSTORE PUSH1 0x4 ADD PUSH2 0x4E5 SWAP1 PUSH2 0x1D77 JUMP JUMPDEST PUSH1 0x40 MLOAD DUP1 SWAP2 SUB SWAP1 REVERT JUMPDEST PUSH1 0x4 PUSH1 0x0 DUP4 DUP2 MSTORE PUSH1 0x20 ADD SWAP1 DUP2 MSTORE PUSH1 0x20 ADD PUSH1 0x0 KECCAK256 PUSH1 0x0 SWAP1 SLOAD SWAP1 PUSH2 0x100 EXP SWAP1 DIV PUSH20 0xFFFFFFFFFFFFFFFFFFFFFFFFFFFFFFFFFFFFFFFF AND SWAP1 POP SWAP2 SWAP1 POP JUMP JUMPDEST PUSH1 0x0 PUSH2 0x534 DUP3 PUSH2 0x7DB JUMP JUMPDEST SWAP1 POP DUP1 PUSH20 0xFFFFFFFFFFFFFFFFFFFFFFFFFFFFFFFFFFFFFFFF AND DUP4 PUSH20 0xFFFFFFFFFFFFFFFFFFFFFFFFFFFFFFFFFFFFFFFF AND EQ ISZERO PUSH2 0x5A5 JUMPI PUSH1 0x40 MLOAD PUSH32 0x8C379A000000000000000000000000000000000000000000000000000000000 DUP2 MSTORE PUSH1 0x4 ADD PUSH2 0x59C SWAP1 PUSH2 0x1DB7 JUMP JUMPDEST PUSH1 0x40 MLOAD DUP1 SWAP2 SUB SWAP1 REVERT JUMPDEST DUP1 PUSH20 0xFFFFFFFFFFFFFFFFFFFFFFFFFFFFFFFFFFFFFFFF AND PUSH2 0x5C4 PUSH2 0xC66 JUMP JUMPDEST PUSH20 0xFFFFFFFFFFFFFFFFFFFFFFFFFFFFFFFFFFFFFFFF AND EQ DUP1 PUSH2 0x5F3 JUMPI POP PUSH2 0x5F2 DUP2 PUSH2 0x5ED PUSH2 0xC66 JUMP JUMPDEST PUSH2 0xAFC JUMP JUMPDEST JUMPDEST PUSH2 0x632 JUMPI PUSH1 0x40 MLOAD PUSH32 0x8C379A000000000000000000000000000000000000000000000000000000000 DUP2 MSTORE PUSH1 0x4 ADD PUSH2 0x629 SWAP1 PUSH2 0x1D17 JUMP JUMPDEST PUSH1 0x40 MLOAD DUP1 SWAP2 SUB SWAP1 REVERT JUMPDEST PUSH2 0x63C DUP4 DUP4 PUSH2 0xC6E JUMP JUMPDEST POP POP POP JUMP JUMPDEST PUSH2 0x652 PUSH2 0x64C PUSH2 0xC66 JUMP JUMPDEST DUP3 PUSH2 0xD27 JUMP JUMPDEST PUSH2 0x691 JUMPI PUSH1 0x40 MLOAD PUSH32 0x8C379A000000000000000000000000000000000000000000000000000000000 DUP2 MSTORE PUSH1 0x4 ADD PUSH2 0x688 SWAP1 PUSH2 0x1DD7 JUMP JUMPDEST PUSH1 0x40 MLOAD DUP1 SWAP2 SUB SWAP1 REVERT JUMPDEST PUSH2 0x69C DUP4 DUP4 DUP4 PUSH2 0xE05 JUMP JUMPDEST POP POP POP JUMP JUMPDEST PUSH2 0x6BC DUP4 DUP4 DUP4 PUSH1 0x40 MLOAD DUP1 PUSH1 0x20 ADD PUSH1 0x40 MSTORE DUP1 PUSH1 0x0 DUP2 MSTORE POP PUSH2 0x9ED JUMP JUMPDEST POP POP POP JUMP JUMPDEST PUSH1 0x60 PUSH1 0x0 PUSH2 0x6CE DUP4 PUSH2 0x88D JUMP JUMPDEST SWAP1 POP PUSH1 0x0 DUP2 PUSH8 0xFFFFFFFFFFFFFFFF DUP2 GT ISZERO PUSH2 0x6EC JUMPI PUSH2 0x6EB PUSH2 0x21EE JUMP JUMPDEST JUMPDEST PUSH1 0x40 MLOAD SWAP1 DUP1 DUP3 MSTORE DUP1 PUSH1 0x20 MUL PUSH1 0x20 ADD DUP3 ADD PUSH1 0x40 MSTORE DUP1 ISZERO PUSH2 0x71A JUMPI DUP2 PUSH1 0x20 ADD PUSH1 0x20 DUP3 MUL DUP1 CALLDATASIZE DUP4 CALLDATACOPY DUP1 DUP3 ADD SWAP2 POP POP SWAP1 POP JUMPDEST POP SWAP1 POP PUSH1 0x0 PUSH1 0x1 SWAP1 POP PUSH1 0x0 JUMPDEST DUP4 DUP2 LT DUP1 ISZERO PUSH2 0x737 JUMPI POP PUSH1 0x6 SLOAD DUP3 GT ISZERO JUMPDEST ISZERO PUSH2 0x7CF JUMPI PUSH2 0x745 DUP3 PUSH2 0xBFA JUMP JUMPDEST ISZERO PUSH2 0x7CA JUMPI PUSH1 0x0 PUSH2 0x755 DUP4 PUSH2 0x7DB JUMP JUMPDEST SWAP1 POP DUP7 PUSH20 0xFFFFFFFFFFFFFFFFFFFFFFFFFFFFFFFFFFFFFFFF AND DUP2 PUSH20 0xFFFFFFFFFFFFFFFFFFFFFFFFFFFFFFFFFFFFFFFF AND EQ ISZERO PUSH2 0x7BA JUMPI DUP3 DUP5 DUP4 DUP2 MLOAD DUP2 LT PUSH2 0x79F JUMPI PUSH2 0x79E PUSH2 0x21BF JUMP JUMPDEST JUMPDEST PUSH1 0x20 MUL PUSH1 0x20 ADD ADD DUP2 DUP2 MSTORE POP POP DUP2 DUP1 PUSH2 0x7B6 SWAP1 PUSH2 0x20B8 JUMP JUMPDEST SWAP3 POP POP JUMPDEST DUP3 DUP1 PUSH2 0x7C5 SWAP1 PUSH2 0x20B8 JUMP JUMPDEST SWAP4 POP POP POP JUMPDEST PUSH2 0x726 JUMP JUMPDEST DUP3 SWAP5 POP POP POP POP POP SWAP2 SWAP1 POP JUMP JUMPDEST PUSH1 0x0 DUP1 PUSH1 0x2 PUSH1 0x0 DUP5 DUP2 MSTORE PUSH1 0x20 ADD SWAP1 DUP2 MSTORE PUSH1 0x20 ADD PUSH1 0x0 KECCAK256 PUSH1 0x0 SWAP1 SLOAD SWAP1 PUSH2 0x100 EXP SWAP1 DIV PUSH20 0xFFFFFFFFFFFFFFFFFFFFFFFFFFFFFFFFFFFFFFFF AND SWAP1 POP PUSH1 0x0 PUSH20 0xFFFFFFFFFFFFFFFFFFFFFFFFFFFFFFFFFFFFFFFF AND DUP2 PUSH20 0xFFFFFFFFFFFFFFFFFFFFFFFFFFFFFFFFFFFFFFFF AND EQ ISZERO PUSH2 0x884 JUMPI PUSH1 0x40 MLOAD PUSH32 0x8C379A000000000000000000000000000000000000000000000000000000000 DUP2 MSTORE PUSH1 0x4 ADD PUSH2 0x87B SWAP1 PUSH2 0x1D57 JUMP JUMPDEST PUSH1 0x40 MLOAD DUP1 SWAP2 SUB SWAP1 REVERT JUMPDEST DUP1 SWAP2 POP POP SWAP2 SWAP1 POP JUMP JUMPDEST PUSH1 0x0 DUP1 PUSH20 0xFFFFFFFFFFFFFFFFFFFFFFFFFFFFFFFFFFFFFFFF AND DUP3 PUSH20 0xFFFFFFFFFFFFFFFFFFFFFFFFFFFFFFFFFFFFFFFF AND EQ ISZERO PUSH2 0x8FE JUMPI PUSH1 0x40 MLOAD PUSH32 0x8C379A000000000000000000000000000000000000000000000000000000000 DUP2 MSTORE PUSH1 0x4 ADD PUSH2 0x8F5 SWAP1 PUSH2 0x1D37 JUMP JUMPDEST PUSH1 0x40 MLOAD DUP1 SWAP2 SUB SWAP1 REVERT JUMPDEST PUSH1 0x3 PUSH1 0x0 DUP4 PUSH20 0xFFFFFFFFFFFFFFFFFFFFFFFFFFFFFFFFFFFFFFFF AND PUSH20 0xFFFFFFFFFFFFFFFFFFFFFFFFFFFFFFFFFFFFFFFF AND DUP2 MSTORE PUSH1 0x20 ADD SWAP1 DUP2 MSTORE PUSH1 0x20 ADD PUSH1 0x0 KECCAK256 SLOAD SWAP1 POP SWAP2 SWAP1 POP JUMP JUMPDEST PUSH1 0x60 PUSH1 0x1 DUP1 SLOAD PUSH2 0x954 SWAP1 PUSH2 0x2055 JUMP JUMPDEST DUP1 PUSH1 0x1F ADD PUSH1 0x20 DUP1 SWAP2 DIV MUL PUSH1 0x20 ADD PUSH1 0x40 MLOAD SWAP1 DUP2 ADD PUSH1 0x40 MSTORE DUP1 SWAP3 SWAP2 SWAP1 DUP2 DUP2 MSTORE PUSH1 0x20 ADD DUP3 DUP1 SLOAD PUSH2 0x980 SWAP1 PUSH2 0x2055 JUMP JUMPDEST DUP1 ISZERO PUSH2 0x9CD JUMPI DUP1 PUSH1 0x1F LT PUSH2 0x9A2 JUMPI PUSH2 0x100 DUP1 DUP4 SLOAD DIV MUL DUP4 MSTORE SWAP2 PUSH1 0x20 ADD SWAP2 PUSH2 0x9CD JUMP JUMPDEST DUP3 ADD SWAP2 SWAP1 PUSH1 0x0 MSTORE PUSH1 0x20 PUSH1 0x0 KECCAK256 SWAP1 JUMPDEST DUP2 SLOAD DUP2 MSTORE SWAP1 PUSH1 0x1 ADD SWAP1 PUSH1 0x20 ADD DUP1 DUP4 GT PUSH2 0x9B0 JUMPI DUP3 SWAP1 SUB PUSH1 0x1F AND DUP3 ADD SWAP2 JUMPDEST POP POP POP POP POP SWAP1 POP SWAP1 JUMP JUMPDEST PUSH2 0x9E9 PUSH2 0x9E2 PUSH2 0xC66 JUMP JUMPDEST DUP4 DUP4 PUSH2 0x106C JUMP JUMPDEST POP POP JUMP JUMPDEST PUSH2 0x9FE PUSH2 0x9F8 PUSH2 0xC66 JUMP JUMPDEST DUP4 PUSH2 0xD27 JUMP JUMPDEST PUSH2 0xA3D JUMPI PUSH1 0x40 MLOAD PUSH32 0x8C379A000000000000000000000000000000000000000000000000000000000 DUP2 MSTORE PUSH1 0x4 ADD PUSH2 0xA34 SWAP1 PUSH2 0x1DD7 JUMP JUMPDEST PUSH1 0x40 MLOAD DUP1 SWAP2 SUB SWAP1 REVERT JUMPDEST PUSH2 0xA49 DUP5 DUP5 DUP5 DUP5 PUSH2 0x11D9 JUMP JUMPDEST POP POP POP POP JUMP JUMPDEST PUSH1 0x60 PUSH2 0xA5A DUP3 PUSH2 0xBFA JUMP JUMPDEST PUSH2 0xA99 JUMPI PUSH1 0x40 MLOAD PUSH32 0x8C379A000000000000000000000000000000000000000000000000000000000 DUP2 MSTORE PUSH1 0x4 ADD PUSH2 0xA90 SWAP1 PUSH2 0x1D97 JUMP JUMPDEST PUSH1 0x40 MLOAD DUP1 SWAP2 SUB SWAP1 REVERT JUMPDEST PUSH1 0x0 PUSH2 0xAA3 PUSH2 0x1235 JUMP JUMPDEST SWAP1 POP PUSH1 0x0 DUP2 MLOAD GT PUSH2 0xAC3 JUMPI PUSH1 0x40 MLOAD DUP1 PUSH1 0x20 ADD PUSH1 0x40 MSTORE DUP1 PUSH1 0x0 DUP2 MSTORE POP PUSH2 0xAEE JUMP JUMPDEST DUP1 PUSH2 0xACD DUP5 PUSH2 0x124C JUMP JUMPDEST PUSH1 0x40 MLOAD PUSH1 0x20 ADD PUSH2 0xADE SWAP3 SWAP2 SWAP1 PUSH2 0x1B8D JUMP JUMPDEST PUSH1 0x40 MLOAD PUSH1 0x20 DUP2 DUP4 SUB SUB DUP2 MSTORE SWAP1 PUSH1 0x40 MSTORE JUMPDEST SWAP2 POP POP SWAP2 SWAP1 POP JUMP JUMPDEST PUSH1 0x6 SLOAD DUP2 JUMP JUMPDEST PUSH1 0x0 PUSH1 0x5 PUSH1 0x0 DUP5 PUSH20 0xFFFFFFFFFFFFFFFFFFFFFFFFFFFFFFFFFFFFFFFF AND PUSH20 0xFFFFFFFFFFFFFFFFFFFFFFFFFFFFFFFFFFFFFFFF AND DUP2 MSTORE PUSH1 0x20 ADD SWAP1 DUP2 MSTORE PUSH1 0x20 ADD PUSH1 0x0 KECCAK256 PUSH1 0x0 DUP4 PUSH20 0xFFFFFFFFFFFFFFFFFFFFFFFFFFFFFFFFFFFFFFFF AND PUSH20 0xFFFFFFFFFFFFFFFFFFFFFFFFFFFFFFFFFFFFFFFF AND DUP2 MSTORE PUSH1 0x20 ADD SWAP1 DUP2 MSTORE PUSH1 0x20 ADD PUSH1 0x0 KECCAK256 PUSH1 0x0 SWAP1 SLOAD SWAP1 PUSH2 0x100 EXP SWAP1 DIV PUSH1 0xFF AND SWAP1 POP SWAP3 SWAP2 POP POP JUMP JUMPDEST PUSH1 0x0 PUSH32 0x1FFC9A700000000000000000000000000000000000000000000000000000000 PUSH28 0xFFFFFFFFFFFFFFFFFFFFFFFFFFFFFFFFFFFFFFFFFFFFFFFFFFFFFFFF NOT AND DUP3 PUSH28 0xFFFFFFFFFFFFFFFFFFFFFFFFFFFFFFFFFFFFFFFFFFFFFFFFFFFFFFFF NOT AND EQ SWAP1 POP SWAP2 SWAP1 POP JUMP JUMPDEST PUSH1 0x0 DUP1 PUSH20 0xFFFFFFFFFFFFFFFFFFFFFFFFFFFFFFFFFFFFFFFF AND PUSH1 0x2 PUSH1 0x0 DUP5 DUP2 MSTORE PUSH1 0x20 ADD SWAP1 DUP2 MSTORE PUSH1 0x20 ADD PUSH1 0x0 KECCAK256 PUSH1 0x0 SWAP1 SLOAD SWAP1 PUSH2 0x100 EXP SWAP1 DIV PUSH20 0xFFFFFFFFFFFFFFFFFFFFFFFFFFFFFFFFFFFFFFFF AND PUSH20 0xFFFFFFFFFFFFFFFFFFFFFFFFFFFFFFFFFFFFFFFF AND EQ ISZERO SWAP1 POP SWAP2 SWAP1 POP JUMP JUMPDEST PUSH1 0x0 CALLER SWAP1 POP SWAP1 JUMP JUMPDEST DUP2 PUSH1 0x4 PUSH1 0x0 DUP4 DUP2 MSTORE PUSH1 0x20 ADD SWAP1 DUP2 MSTORE PUSH1 0x20 ADD PUSH1 0x0 KECCAK256 PUSH1 0x0 PUSH2 0x100 EXP DUP2 SLOAD DUP2 PUSH20 0xFFFFFFFFFFFFFFFFFFFFFFFFFFFFFFFFFFFFFFFF MUL NOT AND SWAP1 DUP4 PUSH20 0xFFFFFFFFFFFFFFFFFFFFFFFFFFFFFFFFFFFFFFFF AND MUL OR SWAP1 SSTORE POP DUP1 DUP3 PUSH20 0xFFFFFFFFFFFFFFFFFFFFFFFFFFFFFFFFFFFFFFFF AND PUSH2 0xCE1 DUP4 PUSH2 0x7DB JUMP JUMPDEST PUSH20 0xFFFFFFFFFFFFFFFFFFFFFFFFFFFFFFFFFFFFFFFF AND PUSH32 0x8C5BE1E5EBEC7D5BD14F71427D1E84F3DD0314C0F7B2291E5B200AC8C7C3B925 PUSH1 0x40 MLOAD PUSH1 0x40 MLOAD DUP1 SWAP2 SUB SWAP1 LOG4 POP POP JUMP JUMPDEST PUSH1 0x0 PUSH2 0xD32 DUP3 PUSH2 0xBFA JUMP JUMPDEST PUSH2 0xD71 JUMPI PUSH1 0x40 MLOAD PUSH32 0x8C379A000000000000000000000000000000000000000000000000000000000 DUP2 MSTORE PUSH1 0x4 ADD PUSH2 0xD68 SWAP1 PUSH2 0x1CF7 JUMP JUMPDEST PUSH1 0x40 MLOAD DUP1 SWAP2 SUB SWAP1 REVERT JUMPDEST PUSH1 0x0 PUSH2 0xD7C DUP4 PUSH2 0x7DB JUMP JUMPDEST SWAP1 POP DUP1 PUSH20 0xFFFFFFFFFFFFFFFFFFFFFFFFFFFFFFFFFFFFFFFF AND DUP5 PUSH20 0xFFFFFFFFFFFFFFFFFFFFFFFFFFFFFFFFFFFFFFFF AND EQ DUP1 PUSH2 0xDBE JUMPI POP PUSH2 0xDBD DUP2 DUP6 PUSH2 0xAFC JUMP JUMPDEST JUMPDEST DUP1 PUSH2 0xDFC JUMPI POP DUP4 PUSH20 0xFFFFFFFFFFFFFFFFFFFFFFFFFFFFFFFFFFFFFFFF AND PUSH2 0xDE4 DUP5 PUSH2 0x4A4 JUMP JUMPDEST PUSH20 0xFFFFFFFFFFFFFFFFFFFFFFFFFFFFFFFFFFFFFFFF AND EQ JUMPDEST SWAP2 POP POP SWAP3 SWAP2 POP POP JUMP JUMPDEST DUP3 PUSH20 0xFFFFFFFFFFFFFFFFFFFFFFFFFFFFFFFFFFFFFFFF AND PUSH2 0xE25 DUP3 PUSH2 0x7DB JUMP JUMPDEST PUSH20 0xFFFFFFFFFFFFFFFFFFFFFFFFFFFFFFFFFFFFFFFF AND EQ PUSH2 0xE7B JUMPI PUSH1 0x40 MLOAD PUSH32 0x8C379A000000000000000000000000000000000000000000000000000000000 DUP2 MSTORE PUSH1 0x4 ADD PUSH2 0xE72 SWAP1 PUSH2 0x1C97 JUMP JUMPDEST PUSH1 0x40 MLOAD DUP1 SWAP2 SUB SWAP1 REVERT JUMPDEST PUSH1 0x0 PUSH20 0xFFFFFFFFFFFFFFFFFFFFFFFFFFFFFFFFFFFFFFFF AND DUP3 PUSH20 0xFFFFFFFFFFFFFFFFFFFFFFFFFFFFFFFFFFFFFFFF AND EQ ISZERO PUSH2 0xEEB JUMPI PUSH1 0x40 MLOAD PUSH32 0x8C379A000000000000000000000000000000000000000000000000000000000 DUP2 MSTORE PUSH1 0x4 ADD PUSH2 0xEE2 SWAP1 PUSH2 0x1CB7 JUMP JUMPDEST PUSH1 0x40 MLOAD DUP1 SWAP2 SUB SWAP1 REVERT JUMPDEST PUSH2 0xEF6 DUP4 DUP4 DUP4 PUSH2 0x13AD JUMP JUMPDEST PUSH2 0xF01 PUSH1 0x0 DUP3 PUSH2 0xC6E JUMP JUMPDEST PUSH1 0x1 PUSH1 0x3 PUSH1 0x0 DUP6 PUSH20 0xFFFFFFFFFFFFFFFFFFFFFFFFFFFFFFFFFFFFFFFF AND PUSH20 0xFFFFFFFFFFFFFFFFFFFFFFFFFFFFFFFFFFFFFFFF AND DUP2 MSTORE PUSH1 0x20 ADD SWAP1 DUP2 MSTORE PUSH1 0x20 ADD PUSH1 0x0 KECCAK256 PUSH1 0x0 DUP3 DUP3 SLOAD PUSH2 0xF51 SWAP2 SWAP1 PUSH2 0x1F6B JUMP JUMPDEST SWAP3 POP POP DUP2 SWAP1 SSTORE POP PUSH1 0x1 PUSH1 0x3 PUSH1 0x0 DUP5 PUSH20 0xFFFFFFFFFFFFFFFFFFFFFFFFFFFFFFFFFFFFFFFF AND PUSH20 0xFFFFFFFFFFFFFFFFFFFFFFFFFFFFFFFFFFFFFFFF AND DUP2 MSTORE PUSH1 0x20 ADD SWAP1 DUP2 MSTORE PUSH1 0x20 ADD PUSH1 0x0 KECCAK256 PUSH1 0x0 DUP3 DUP3 SLOAD PUSH2 0xFA8 SWAP2 SWAP1 PUSH2 0x1EE4 JUMP JUMPDEST SWAP3 POP POP DUP2 SWAP1 SSTORE POP DUP2 PUSH1 0x2 PUSH1 0x0 DUP4 DUP2 MSTORE PUSH1 0x20 ADD SWAP1 DUP2 MSTORE PUSH1 0x20 ADD PUSH1 0x0 KECCAK256 PUSH1 0x0 PUSH2 0x100 EXP DUP2 SLOAD DUP2 PUSH20 0xFFFFFFFFFFFFFFFFFFFFFFFFFFFFFFFFFFFFFFFF MUL NOT AND SWAP1 DUP4 PUSH20 0xFFFFFFFFFFFFFFFFFFFFFFFFFFFFFFFFFFFFFFFF AND MUL OR SWAP1 SSTORE POP DUP1 DUP3 PUSH20 0xFFFFFFFFFFFFFFFFFFFFFFFFFFFFFFFFFFFFFFFF AND DUP5 PUSH20 0xFFFFFFFFFFFFFFFFFFFFFFFFFFFFFFFFFFFFFFFF AND PUSH32 0xDDF252AD1BE2C89B69C2B068FC378DAA952BA7F163C4A11628F55A4DF523B3EF PUSH1 0x40 MLOAD PUSH1 0x40 MLOAD DUP1 SWAP2 SUB SWAP1 LOG4 PUSH2 0x1067 DUP4 DUP4 DUP4 PUSH2 0x13B2 JUMP JUMPDEST POP POP POP JUMP JUMPDEST DUP2 PUSH20 0xFFFFFFFFFFFFFFFFFFFFFFFFFFFFFFFFFFFFFFFF AND DUP4 PUSH20 0xFFFFFFFFFFFFFFFFFFFFFFFFFFFFFFFFFFFFFFFF AND EQ ISZERO PUSH2 0x10DB JUMPI PUSH1 0x40 MLOAD PUSH32 0x8C379A000000000000000000000000000000000000000000000000000000000 DUP2 MSTORE PUSH1 0x4 ADD PUSH2 0x10D2 SWAP1 PUSH2 0x1CD7 JUMP JUMPDEST PUSH1 0x40 MLOAD DUP1 SWAP2 SUB SWAP1 REVERT JUMPDEST DUP1 PUSH1 0x5 PUSH1 0x0 DUP6 PUSH20 0xFFFFFFFFFFFFFFFFFFFFFFFFFFFFFFFFFFFFFFFF AND PUSH20 0xFFFFFFFFFFFFFFFFFFFFFFFFFFFFFFFFFFFFFFFF AND DUP2 MSTORE PUSH1 0x20 ADD SWAP1 DUP2 MSTORE PUSH1 0x20 ADD PUSH1 0x0 KECCAK256 PUSH1 0x0 DUP5 PUSH20 0xFFFFFFFFFFFFFFFFFFFFFFFFFFFFFFFFFFFFFFFF AND PUSH20 0xFFFFFFFFFFFFFFFFFFFFFFFFFFFFFFFFFFFFFFFF AND DUP2 MSTORE PUSH1 0x20 ADD SWAP1 DUP2 MSTORE PUSH1 0x20 ADD PUSH1 0x0 KECCAK256 PUSH1 0x0 PUSH2 0x100 EXP DUP2 SLOAD DUP2 PUSH1 0xFF MUL NOT AND SWAP1 DUP4 ISZERO ISZERO MUL OR SWAP1 SSTORE POP DUP2 PUSH20 0xFFFFFFFFFFFFFFFFFFFFFFFFFFFFFFFFFFFFFFFF AND DUP4 PUSH20 0xFFFFFFFFFFFFFFFFFFFFFFFFFFFFFFFFFFFFFFFF AND PUSH32 0x17307EAB39AB6107E8899845AD3D59BD9653F200F220920489CA2B5937696C31 DUP4 PUSH1 0x40 MLOAD PUSH2 0x11CC SWAP2 SWAP1 PUSH2 0x1C3A JUMP JUMPDEST PUSH1 0x40 MLOAD DUP1 SWAP2 SUB SWAP1 LOG3 POP POP POP JUMP JUMPDEST PUSH2 0x11E4 DUP5 DUP5 DUP5 PUSH2 0xE05 JUMP JUMPDEST PUSH2 0x11F0 DUP5 DUP5 DUP5 DUP5 PUSH2 0x13B7 JUMP JUMPDEST PUSH2 0x122F JUMPI PUSH1 0x40 MLOAD PUSH32 0x8C379A000000000000000000000000000000000000000000000000000000000 DUP2 MSTORE PUSH1 0x4 ADD PUSH2 0x1226 SWAP1 PUSH2 0x1C77 JUMP JUMPDEST PUSH1 0x40 MLOAD DUP1 SWAP2 SUB SWAP1 REVERT JUMPDEST POP POP POP POP JUMP JUMPDEST PUSH1 0x60 PUSH1 0x40 MLOAD DUP1 PUSH1 0x20 ADD PUSH1 0x40 MSTORE DUP1 PUSH1 0x0 DUP2 MSTORE POP SWAP1 POP SWAP1 JUMP JUMPDEST PUSH1 0x60 PUSH1 0x0 DUP3 EQ ISZERO PUSH2 0x1294 JUMPI PUSH1 0x40 MLOAD DUP1 PUSH1 0x40 ADD PUSH1 0x40 MSTORE DUP1 PUSH1 0x1 DUP2 MSTORE PUSH1 0x20 ADD PUSH32 0x3000000000000000000000000000000000000000000000000000000000000000 DUP2 MSTORE POP SWAP1 POP PUSH2 0x13A8 JUMP JUMPDEST PUSH1 0x0 DUP3 SWAP1 POP PUSH1 0x0 JUMPDEST PUSH1 0x0 DUP3 EQ PUSH2 0x12C6 JUMPI DUP1 DUP1 PUSH2 0x12AF SWAP1 PUSH2 0x20B8 JUMP JUMPDEST SWAP2 POP POP PUSH1 0xA DUP3 PUSH2 0x12BF SWAP2 SWAP1 PUSH2 0x1F3A JUMP JUMPDEST SWAP2 POP PUSH2 0x129C JUMP JUMPDEST PUSH1 0x0 DUP2 PUSH8 0xFFFFFFFFFFFFFFFF DUP2 GT ISZERO PUSH2 0x12E2 JUMPI PUSH2 0x12E1 PUSH2 0x21EE JUMP JUMPDEST JUMPDEST PUSH1 0x40 MLOAD SWAP1 DUP1 DUP3 MSTORE DUP1 PUSH1 0x1F ADD PUSH1 0x1F NOT AND PUSH1 0x20 ADD DUP3 ADD PUSH1 0x40 MSTORE DUP1 ISZERO PUSH2 0x1314 JUMPI DUP2 PUSH1 0x20 ADD PUSH1 0x1 DUP3 MUL DUP1 CALLDATASIZE DUP4 CALLDATACOPY DUP1 DUP3 ADD SWAP2 POP POP SWAP1 POP JUMPDEST POP SWAP1 POP JUMPDEST PUSH1 0x0 DUP6 EQ PUSH2 0x13A1 JUMPI PUSH1 0x1 DUP3 PUSH2 0x132D SWAP2 SWAP1 PUSH2 0x1F6B JUMP JUMPDEST SWAP2 POP PUSH1 0xA DUP6 PUSH2 0x133C SWAP2 SWAP1 PUSH2 0x2101 JUMP JUMPDEST PUSH1 0x30 PUSH2 0x1348 SWAP2 SWAP1 PUSH2 0x1EE4 JUMP JUMPDEST PUSH1 0xF8 SHL DUP2 DUP4 DUP2 MLOAD DUP2 LT PUSH2 0x135E JUMPI PUSH2 0x135D PUSH2 0x21BF JUMP JUMPDEST JUMPDEST PUSH1 0x20 ADD ADD SWAP1 PUSH31 0xFFFFFFFFFFFFFFFFFFFFFFFFFFFFFFFFFFFFFFFFFFFFFFFFFFFFFFFFFFFFFF NOT AND SWAP1 DUP2 PUSH1 0x0 BYTE SWAP1 MSTORE8 POP PUSH1 0xA DUP6 PUSH2 0x139A SWAP2 SWAP1 PUSH2 0x1F3A JUMP JUMPDEST SWAP5 POP PUSH2 0x1318 JUMP JUMPDEST DUP1 SWAP4 POP POP POP POP JUMPDEST SWAP2 SWAP1 POP JUMP JUMPDEST POP POP POP JUMP JUMPDEST POP POP POP JUMP JUMPDEST PUSH1 0x0 PUSH2 0x13D8 DUP5 PUSH20 0xFFFFFFFFFFFFFFFFFFFFFFFFFFFFFFFFFFFFFFFF AND PUSH2 0x154E JUMP JUMPDEST ISZERO PUSH2 0x1541 JUMPI DUP4 PUSH20 0xFFFFFFFFFFFFFFFFFFFFFFFFFFFFFFFFFFFFFFFF AND PUSH4 0x150B7A02 PUSH2 0x1401 PUSH2 0xC66 JUMP JUMPDEST DUP8 DUP7 DUP7 PUSH1 0x40 MLOAD DUP6 PUSH4 0xFFFFFFFF AND PUSH1 0xE0 SHL DUP2 MSTORE PUSH1 0x4 ADD PUSH2 0x1423 SWAP5 SWAP4 SWAP3 SWAP2 SWAP1 PUSH2 0x1BCC JUMP JUMPDEST PUSH1 0x20 PUSH1 0x40 MLOAD DUP1 DUP4 SUB DUP2 PUSH1 0x0 DUP8 DUP1 EXTCODESIZE ISZERO DUP1 ISZERO PUSH2 0x143D JUMPI PUSH1 0x0 DUP1 REVERT JUMPDEST POP GAS CALL SWAP3 POP POP POP DUP1 ISZERO PUSH2 0x146E JUMPI POP PUSH1 0x40 MLOAD RETURNDATASIZE PUSH1 0x1F NOT PUSH1 0x1F DUP3 ADD AND DUP3 ADD DUP1 PUSH1 0x40 MSTORE POP DUP2 ADD SWAP1 PUSH2 0x146B SWAP2 SWAP1 PUSH2 0x183A JUMP JUMPDEST PUSH1 0x1 JUMPDEST PUSH2 0x14F1 JUMPI RETURNDATASIZE DUP1 PUSH1 0x0 DUP2 EQ PUSH2 0x149E JUMPI PUSH1 0x40 MLOAD SWAP2 POP PUSH1 0x1F NOT PUSH1 0x3F RETURNDATASIZE ADD AND DUP3 ADD PUSH1 0x40 MSTORE RETURNDATASIZE DUP3 MSTORE RETURNDATASIZE PUSH1 0x0 PUSH1 0x20 DUP5 ADD RETURNDATACOPY PUSH2 0x14A3 JUMP JUMPDEST PUSH1 0x60 SWAP2 POP JUMPDEST POP PUSH1 0x0 DUP2 MLOAD EQ ISZERO PUSH2 0x14E9 JUMPI PUSH1 0x40 MLOAD PUSH32 0x8C379A000000000000000000000000000000000000000000000000000000000 DUP2 MSTORE PUSH1 0x4 ADD PUSH2 0x14E0 SWAP1 PUSH2 0x1C77 JUMP JUMPDEST PUSH1 0x40 MLOAD DUP1 SWAP2 SUB SWAP1 REVERT JUMPDEST DUP1 MLOAD DUP2 PUSH1 0x20 ADD REVERT JUMPDEST PUSH4 0x150B7A02 PUSH1 0xE0 SHL PUSH28 0xFFFFFFFFFFFFFFFFFFFFFFFFFFFFFFFFFFFFFFFFFFFFFFFFFFFFFFFF NOT AND DUP2 PUSH28 0xFFFFFFFFFFFFFFFFFFFFFFFFFFFFFFFFFFFFFFFFFFFFFFFFFFFFFFFF NOT AND EQ SWAP2 POP POP PUSH2 0x1546 JUMP JUMPDEST PUSH1 0x1 SWAP1 POP JUMPDEST SWAP5 SWAP4 POP POP POP POP JUMP JUMPDEST PUSH1 0x0 DUP1 DUP3 PUSH20 0xFFFFFFFFFFFFFFFFFFFFFFFFFFFFFFFFFFFFFFFF AND EXTCODESIZE GT SWAP1 POP SWAP2 SWAP1 POP JUMP JUMPDEST PUSH1 0x0 PUSH2 0x1584 PUSH2 0x157F DUP5 PUSH2 0x1E37 JUMP JUMPDEST PUSH2 0x1E12 JUMP JUMPDEST SWAP1 POP DUP3 DUP2 MSTORE PUSH1 0x20 DUP2 ADD DUP5 DUP5 DUP5 ADD GT ISZERO PUSH2 0x15A0 JUMPI PUSH2 0x159F PUSH2 0x2222 JUMP JUMPDEST JUMPDEST PUSH2 0x15AB DUP5 DUP3 DUP6 PUSH2 0x2013 JUMP JUMPDEST POP SWAP4 SWAP3 POP POP POP JUMP JUMPDEST PUSH1 0x0 DUP2 CALLDATALOAD SWAP1 POP PUSH2 0x15C2 DUP2 PUSH2 0x25D0 JUMP JUMPDEST SWAP3 SWAP2 POP POP JUMP JUMPDEST PUSH1 0x0 DUP2 CALLDATALOAD SWAP1 POP PUSH2 0x15D7 DUP2 PUSH2 0x25E7 JUMP JUMPDEST SWAP3 SWAP2 POP POP JUMP JUMPDEST PUSH1 0x0 DUP2 CALLDATALOAD SWAP1 POP PUSH2 0x15EC DUP2 PUSH2 0x25FE JUMP JUMPDEST SWAP3 SWAP2 POP POP JUMP JUMPDEST PUSH1 0x0 DUP2 MLOAD SWAP1 POP PUSH2 0x1601 DUP2 PUSH2 0x25FE JUMP JUMPDEST SWAP3 SWAP2 POP POP JUMP JUMPDEST PUSH1 0x0 DUP3 PUSH1 0x1F DUP4 ADD SLT PUSH2 0x161C JUMPI PUSH2 0x161B PUSH2 0x221D JUMP JUMPDEST JUMPDEST DUP2 CALLDATALOAD PUSH2 0x162C DUP5 DUP3 PUSH1 0x20 DUP7 ADD PUSH2 0x1571 JUMP JUMPDEST SWAP2 POP POP SWAP3 SWAP2 POP POP JUMP JUMPDEST PUSH1 0x0 DUP2 CALLDATALOAD SWAP1 POP PUSH2 0x1644 DUP2 PUSH2 0x2615 JUMP JUMPDEST SWAP3 SWAP2 POP POP JUMP JUMPDEST PUSH1 0x0 PUSH1 0x20 DUP3 DUP5 SUB SLT ISZERO PUSH2 0x1660 JUMPI PUSH2 0x165F PUSH2 0x222C JUMP JUMPDEST JUMPDEST PUSH1 0x0 PUSH2 0x166E DUP5 DUP3 DUP6 ADD PUSH2 0x15B3 JUMP JUMPDEST SWAP2 POP POP SWAP3 SWAP2 POP POP JUMP JUMPDEST PUSH1 0x0 DUP1 PUSH1 0x40 DUP4 DUP6 SUB SLT ISZERO PUSH2 0x168E JUMPI PUSH2 0x168D PUSH2 0x222C JUMP JUMPDEST JUMPDEST PUSH1 0x0 PUSH2 0x169C DUP6 DUP3 DUP7 ADD PUSH2 0x15B3 JUMP JUMPDEST SWAP3 POP POP PUSH1 0x20 PUSH2 0x16AD DUP6 DUP3 DUP7 ADD PUSH2 0x15B3 JUMP JUMPDEST SWAP2 POP POP SWAP3 POP SWAP3 SWAP1 POP JUMP JUMPDEST PUSH1 0x0 DUP1 PUSH1 0x0 PUSH1 0x60 DUP5 DUP7 SUB SLT ISZERO PUSH2 0x16D0 JUMPI PUSH2 0x16CF PUSH2 0x222C JUMP JUMPDEST JUMPDEST PUSH1 0x0 PUSH2 0x16DE DUP7 DUP3 DUP8 ADD PUSH2 0x15B3 JUMP JUMPDEST SWAP4 POP POP PUSH1 0x20 PUSH2 0x16EF DUP7 DUP3 DUP8 ADD PUSH2 0x15B3 JUMP JUMPDEST SWAP3 POP POP PUSH1 0x40 PUSH2 0x1700 DUP7 DUP3 DUP8 ADD PUSH2 0x1635 JUMP JUMPDEST SWAP2 POP POP SWAP3 POP SWAP3 POP SWAP3 JUMP JUMPDEST PUSH1 0x0 DUP1 PUSH1 0x0 DUP1 PUSH1 0x80 DUP6 DUP8 SUB SLT ISZERO PUSH2 0x1724 JUMPI PUSH2 0x1723 PUSH2 0x222C JUMP JUMPDEST JUMPDEST PUSH1 0x0 PUSH2 0x1732 DUP8 DUP3 DUP9 ADD PUSH2 0x15B3 JUMP JUMPDEST SWAP5 POP POP PUSH1 0x20 PUSH2 0x1743 DUP8 DUP3 DUP9 ADD PUSH2 0x15B3 JUMP JUMPDEST SWAP4 POP POP PUSH1 0x40 PUSH2 0x1754 DUP8 DUP3 DUP9 ADD PUSH2 0x1635 JUMP JUMPDEST SWAP3 POP POP PUSH1 0x60 DUP6 ADD CALLDATALOAD PUSH8 0xFFFFFFFFFFFFFFFF DUP2 GT ISZERO PUSH2 0x1775 JUMPI PUSH2 0x1774 PUSH2 0x2227 JUMP JUMPDEST JUMPDEST PUSH2 0x1781 DUP8 DUP3 DUP9 ADD PUSH2 0x1607 JUMP JUMPDEST SWAP2 POP POP SWAP3 SWAP6 SWAP2 SWAP5 POP SWAP3 POP JUMP JUMPDEST PUSH1 0x0 DUP1 PUSH1 0x40 DUP4 DUP6 SUB SLT ISZERO PUSH2 0x17A4 JUMPI PUSH2 0x17A3 PUSH2 0x222C JUMP JUMPDEST JUMPDEST PUSH1 0x0 PUSH2 0x17B2 DUP6 DUP3 DUP7 ADD PUSH2 0x15B3 JUMP JUMPDEST SWAP3 POP POP PUSH1 0x20 PUSH2 0x17C3 DUP6 DUP3 DUP7 ADD PUSH2 0x15C8 JUMP JUMPDEST SWAP2 POP POP SWAP3 POP SWAP3 SWAP1 POP JUMP JUMPDEST PUSH1 0x0 DUP1 PUSH1 0x40 DUP4 DUP6 SUB SLT ISZERO PUSH2 0x17E4 JUMPI PUSH2 0x17E3 PUSH2 0x222C JUMP JUMPDEST JUMPDEST PUSH1 0x0 PUSH2 0x17F2 DUP6 DUP3 DUP7 ADD PUSH2 0x15B3 JUMP JUMPDEST SWAP3 POP POP PUSH1 0x20 PUSH2 0x1803 DUP6 DUP3 DUP7 ADD PUSH2 0x1635 JUMP JUMPDEST SWAP2 POP POP SWAP3 POP SWAP3 SWAP1 POP JUMP JUMPDEST PUSH1 0x0 PUSH1 0x20 DUP3 DUP5 SUB SLT ISZERO PUSH2 0x1823 JUMPI PUSH2 0x1822 PUSH2 0x222C JUMP JUMPDEST JUMPDEST PUSH1 0x0 PUSH2 0x1831 DUP5 DUP3 DUP6 ADD PUSH2 0x15DD JUMP JUMPDEST SWAP2 POP POP SWAP3 SWAP2 POP POP JUMP JUMPDEST PUSH1 0x0 PUSH1 0x20 DUP3 DUP5 SUB SLT ISZERO PUSH2 0x1850 JUMPI PUSH2 0x184F PUSH2 0x222C JUMP JUMPDEST JUMPDEST PUSH1 0x0 PUSH2 0x185E DUP5 DUP3 DUP6 ADD PUSH2 0x15F2 JUMP JUMPDEST SWAP2 POP POP SWAP3 SWAP2 POP POP JUMP JUMPDEST PUSH1 0x0 PUSH1 0x20 DUP3 DUP5 SUB SLT ISZERO PUSH2 0x187D JUMPI PUSH2 0x187C PUSH2 0x222C JUMP JUMPDEST JUMPDEST PUSH1 0x0 PUSH2 0x188B DUP5 DUP3 DUP6 ADD PUSH2 0x1635 JUMP JUMPDEST SWAP2 POP POP SWAP3 SWAP2 POP POP JUMP JUMPDEST PUSH1 0x0 PUSH2 0x18A0 DUP4 DUP4 PUSH2 0x1B6F JUMP JUMPDEST PUSH1 0x20 DUP4 ADD SWAP1 POP SWAP3 SWAP2 POP POP JUMP JUMPDEST PUSH2 0x18B5 DUP2 PUSH2 0x1F9F JUMP JUMPDEST DUP3 MSTORE POP POP JUMP JUMPDEST PUSH1 0x0 PUSH2 0x18C6 DUP3 PUSH2 0x1E78 JUMP JUMPDEST PUSH2 0x18D0 DUP2 DUP6 PUSH2 0x1EA6 JUMP JUMPDEST SWAP4 POP PUSH2 0x18DB DUP4 PUSH2 0x1E68 JUMP JUMPDEST DUP1 PUSH1 0x0 JUMPDEST DUP4 DUP2 LT ISZERO PUSH2 0x190C JUMPI DUP2 MLOAD PUSH2 0x18F3 DUP9 DUP3 PUSH2 0x1894 JUMP JUMPDEST SWAP8 POP PUSH2 0x18FE DUP4 PUSH2 0x1E99 JUMP JUMPDEST SWAP3 POP POP PUSH1 0x1 DUP2 ADD SWAP1 POP PUSH2 0x18DF JUMP JUMPDEST POP DUP6 SWAP4 POP POP POP POP SWAP3 SWAP2 POP POP JUMP JUMPDEST PUSH2 0x1922 DUP2 PUSH2 0x1FB1 JUMP JUMPDEST DUP3 MSTORE POP POP JUMP JUMPDEST PUSH1 0x0 PUSH2 0x1933 DUP3 PUSH2 0x1E83 JUMP JUMPDEST PUSH2 0x193D DUP2 DUP6 PUSH2 0x1EB7 JUMP JUMPDEST SWAP4 POP PUSH2 0x194D DUP2 DUP6 PUSH1 0x20 DUP7 ADD PUSH2 0x2022 JUMP JUMPDEST PUSH2 0x1956 DUP2 PUSH2 0x2231 JUMP JUMPDEST DUP5 ADD SWAP2 POP POP SWAP3 SWAP2 POP POP JUMP JUMPDEST PUSH1 0x0 PUSH2 0x196C DUP3 PUSH2 0x1E8E JUMP JUMPDEST PUSH2 0x1976 DUP2 DUP6 PUSH2 0x1EC8 JUMP JUMPDEST SWAP4 POP PUSH2 0x1986 DUP2 DUP6 PUSH1 0x20 DUP7 ADD PUSH2 0x2022 JUMP JUMPDEST PUSH2 0x198F DUP2 PUSH2 0x2231 JUMP JUMPDEST DUP5 ADD SWAP2 POP POP SWAP3 SWAP2 POP POP JUMP JUMPDEST PUSH1 0x0 PUSH2 0x19A5 DUP3 PUSH2 0x1E8E JUMP JUMPDEST PUSH2 0x19AF DUP2 DUP6 PUSH2 0x1ED9 JUMP JUMPDEST SWAP4 POP PUSH2 0x19BF DUP2 DUP6 PUSH1 0x20 DUP7 ADD PUSH2 0x2022 JUMP JUMPDEST DUP1 DUP5 ADD SWAP2 POP POP SWAP3 SWAP2 POP POP JUMP JUMPDEST PUSH1 0x0 PUSH2 0x19D8 PUSH1 0x32 DUP4 PUSH2 0x1EC8 JUMP JUMPDEST SWAP2 POP PUSH2 0x19E3 DUP3 PUSH2 0x2242 JUMP JUMPDEST PUSH1 0x40 DUP3 ADD SWAP1 POP SWAP2 SWAP1 POP JUMP JUMPDEST PUSH1 0x0 PUSH2 0x19FB PUSH1 0x25 DUP4 PUSH2 0x1EC8 JUMP JUMPDEST SWAP2 POP PUSH2 0x1A06 DUP3 PUSH2 0x2291 JUMP JUMPDEST PUSH1 0x40 DUP3 ADD SWAP1 POP SWAP2 SWAP1 POP JUMP JUMPDEST PUSH1 0x0 PUSH2 0x1A1E PUSH1 0x24 DUP4 PUSH2 0x1EC8 JUMP JUMPDEST SWAP2 POP PUSH2 0x1A29 DUP3 PUSH2 0x22E0 JUMP JUMPDEST PUSH1 0x40 DUP3 ADD SWAP1 POP SWAP2 SWAP1 POP JUMP JUMPDEST PUSH1 0x0 PUSH2 0x1A41 PUSH1 0x19 DUP4 PUSH2 0x1EC8 JUMP JUMPDEST SWAP2 POP PUSH2 0x1A4C DUP3 PUSH2 0x232F JUMP JUMPDEST PUSH1 0x20 DUP3 ADD SWAP1 POP SWAP2 SWAP1 POP JUMP JUMPDEST PUSH1 0x0 PUSH2 0x1A64 PUSH1 0x2C DUP4 PUSH2 0x1EC8 JUMP JUMPDEST SWAP2 POP PUSH2 0x1A6F DUP3 PUSH2 0x2358 JUMP JUMPDEST PUSH1 0x40 DUP3 ADD SWAP1 POP SWAP2 SWAP1 POP JUMP JUMPDEST PUSH1 0x0 PUSH2 0x1A87 PUSH1 0x38 DUP4 PUSH2 0x1EC8 JUMP JUMPDEST SWAP2 POP PUSH2 0x1A92 DUP3 PUSH2 0x23A7 JUMP JUMPDEST PUSH1 0x40 DUP3 ADD SWAP1 POP SWAP2 SWAP1 POP JUMP JUMPDEST PUSH1 0x0 PUSH2 0x1AAA PUSH1 0x2A DUP4 PUSH2 0x1EC8 JUMP JUMPDEST SWAP2 POP PUSH2 0x1AB5 DUP3 PUSH2 0x23F6 JUMP JUMPDEST PUSH1 0x40 DUP3 ADD SWAP1 POP SWAP2 SWAP1 POP JUMP JUMPDEST PUSH1 0x0 PUSH2 0x1ACD PUSH1 0x29 DUP4 PUSH2 0x1EC8 JUMP JUMPDEST SWAP2 POP PUSH2 0x1AD8 DUP3 PUSH2 0x2445 JUMP JUMPDEST PUSH1 0x40 DUP3 ADD SWAP1 POP SWAP2 SWAP1 POP JUMP JUMPDEST PUSH1 0x0 PUSH2 0x1AF0 PUSH1 0x2C DUP4 PUSH2 0x1EC8 JUMP JUMPDEST SWAP2 POP PUSH2 0x1AFB DUP3 PUSH2 0x2494 JUMP JUMPDEST PUSH1 0x40 DUP3 ADD SWAP1 POP SWAP2 SWAP1 POP JUMP JUMPDEST PUSH1 0x0 PUSH2 0x1B13 PUSH1 0x2F DUP4 PUSH2 0x1EC8 JUMP JUMPDEST SWAP2 POP PUSH2 0x1B1E DUP3 PUSH2 0x24E3 JUMP JUMPDEST PUSH1 0x40 DUP3 ADD SWAP1 POP SWAP2 SWAP1 POP JUMP JUMPDEST PUSH1 0x0 PUSH2 0x1B36 PUSH1 0x21 DUP4 PUSH2 0x1EC8 JUMP JUMPDEST SWAP2 POP PUSH2 0x1B41 DUP3 PUSH2 0x2532 JUMP JUMPDEST PUSH1 0x40 DUP3 ADD SWAP1 POP SWAP2 SWAP1 POP JUMP JUMPDEST PUSH1 0x0 PUSH2 0x1B59 PUSH1 0x31 DUP4 PUSH2 0x1EC8 JUMP JUMPDEST SWAP2 POP PUSH2 0x1B64 DUP3 PUSH2 0x2581 JUMP JUMPDEST PUSH1 0x40 DUP3 ADD SWAP1 POP SWAP2 SWAP1 POP JUMP JUMPDEST PUSH2 0x1B78 DUP2 PUSH2 0x2009 JUMP JUMPDEST DUP3 MSTORE POP POP JUMP JUMPDEST PUSH2 0x1B87 DUP2 PUSH2 0x2009 JUMP JUMPDEST DUP3 MSTORE POP POP JUMP JUMPDEST PUSH1 0x0 PUSH2 0x1B99 DUP3 DUP6 PUSH2 0x199A JUMP JUMPDEST SWAP2 POP PUSH2 0x1BA5 DUP3 DUP5 PUSH2 0x199A JUMP JUMPDEST SWAP2 POP DUP2 SWAP1 POP SWAP4 SWAP3 POP POP POP JUMP JUMPDEST PUSH1 0x0 PUSH1 0x20 DUP3 ADD SWAP1 POP PUSH2 0x1BC6 PUSH1 0x0 DUP4 ADD DUP5 PUSH2 0x18AC JUMP JUMPDEST SWAP3 SWAP2 POP POP JUMP JUMPDEST PUSH1 0x0 PUSH1 0x80 DUP3 ADD SWAP1 POP PUSH2 0x1BE1 PUSH1 0x0 DUP4 ADD DUP8 PUSH2 0x18AC JUMP JUMPDEST PUSH2 0x1BEE PUSH1 0x20 DUP4 ADD DUP7 PUSH2 0x18AC JUMP JUMPDEST PUSH2 0x1BFB PUSH1 0x40 DUP4 ADD DUP6 PUSH2 0x1B7E JUMP JUMPDEST DUP2 DUP2 SUB PUSH1 0x60 DUP4 ADD MSTORE PUSH2 0x1C0D DUP2 DUP5 PUSH2 0x1928 JUMP JUMPDEST SWAP1 POP SWAP6 SWAP5 POP POP POP POP POP JUMP JUMPDEST PUSH1 0x0 PUSH1 0x20 DUP3 ADD SWAP1 POP DUP2 DUP2 SUB PUSH1 0x0 DUP4 ADD MSTORE PUSH2 0x1C32 DUP2 DUP5 PUSH2 0x18BB JUMP JUMPDEST SWAP1 POP SWAP3 SWAP2 POP POP JUMP JUMPDEST PUSH1 0x0 PUSH1 0x20 DUP3 ADD SWAP1 POP PUSH2 0x1C4F PUSH1 0x0 DUP4 ADD DUP5 PUSH2 0x1919 JUMP JUMPDEST SWAP3 SWAP2 POP POP JUMP JUMPDEST PUSH1 0x0 PUSH1 0x20 DUP3 ADD SWAP1 POP DUP2 DUP2 SUB PUSH1 0x0 DUP4 ADD MSTORE PUSH2 0x1C6F DUP2 DUP5 PUSH2 0x1961 JUMP JUMPDEST SWAP1 POP SWAP3 SWAP2 POP POP JUMP JUMPDEST PUSH1 0x0 PUSH1 0x20 DUP3 ADD SWAP1 POP DUP2 DUP2 SUB PUSH1 0x0 DUP4 ADD MSTORE PUSH2 0x1C90 DUP2 PUSH2 0x19CB JUMP JUMPDEST SWAP1 POP SWAP2 SWAP1 POP JUMP JUMPDEST PUSH1 0x0 PUSH1 0x20 DUP3 ADD SWAP1 POP DUP2 DUP2 SUB PUSH1 0x0 DUP4 ADD MSTORE PUSH2 0x1CB0 DUP2 PUSH2 0x19EE JUMP JUMPDEST SWAP1 POP SWAP2 SWAP1 POP JUMP JUMPDEST PUSH1 0x0 PUSH1 0x20 DUP3 ADD SWAP1 POP DUP2 DUP2 SUB PUSH1 0x0 DUP4 ADD MSTORE PUSH2 0x1CD0 DUP2 PUSH2 0x1A11 JUMP JUMPDEST SWAP1 POP SWAP2 SWAP1 POP JUMP JUMPDEST PUSH1 0x0 PUSH1 0x20 DUP3 ADD SWAP1 POP DUP2 DUP2 SUB PUSH1 0x0 DUP4 ADD MSTORE PUSH2 0x1CF0 DUP2 PUSH2 0x1A34 JUMP JUMPDEST SWAP1 POP SWAP2 SWAP1 POP JUMP JUMPDEST PUSH1 0x0 PUSH1 0x20 DUP3 ADD SWAP1 POP DUP2 DUP2 SUB PUSH1 0x0 DUP4 ADD MSTORE PUSH2 0x1D10 DUP2 PUSH2 0x1A57 JUMP JUMPDEST SWAP1 POP SWAP2 SWAP1 POP JUMP JUMPDEST PUSH1 0x0 PUSH1 0x20 DUP3 ADD SWAP1 POP DUP2 DUP2 SUB PUSH1 0x0 DUP4 ADD MSTORE PUSH2 0x1D30 DUP2 PUSH2 0x1A7A JUMP JUMPDEST SWAP1 POP SWAP2 SWAP1 POP JUMP JUMPDEST PUSH1 0x0 PUSH1 0x20 DUP3 ADD SWAP1 POP DUP2 DUP2 SUB PUSH1 0x0 DUP4 ADD MSTORE PUSH2 0x1D50 DUP2 PUSH2 0x1A9D JUMP JUMPDEST SWAP1 POP SWAP2 SWAP1 POP JUMP JUMPDEST PUSH1 0x0 PUSH1 0x20 DUP3 ADD SWAP1 POP DUP2 DUP2 SUB PUSH1 0x0 DUP4 ADD MSTORE PUSH2 0x1D70 DUP2 PUSH2 0x1AC0 JUMP JUMPDEST SWAP1 POP SWAP2 SWAP1 POP JUMP JUMPDEST PUSH1 0x0 PUSH1 0x20 DUP3 ADD SWAP1 POP DUP2 DUP2 SUB PUSH1 0x0 DUP4 ADD MSTORE PUSH2 0x1D90 DUP2 PUSH2 0x1AE3 JUMP JUMPDEST SWAP1 POP SWAP2 SWAP1 POP JUMP JUMPDEST PUSH1 0x0 PUSH1 0x20 DUP3 ADD SWAP1 POP DUP2 DUP2 SUB PUSH1 0x0 DUP4 ADD MSTORE PUSH2 0x1DB0 DUP2 PUSH2 0x1B06 JUMP JUMPDEST SWAP1 POP SWAP2 SWAP1 POP JUMP JUMPDEST PUSH1 0x0 PUSH1 0x20 DUP3 ADD SWAP1 POP DUP2 DUP2 SUB PUSH1 0x0 DUP4 ADD MSTORE PUSH2 0x1DD0 DUP2 PUSH2 0x1B29 JUMP JUMPDEST SWAP1 POP SWAP2 SWAP1 POP JUMP JUMPDEST PUSH1 0x0 PUSH1 0x20 DUP3 ADD SWAP1 POP DUP2 DUP2 SUB PUSH1 0x0 DUP4 ADD MSTORE PUSH2 0x1DF0 DUP2 PUSH2 0x1B4C JUMP JUMPDEST SWAP1 POP SWAP2 SWAP1 POP JUMP JUMPDEST PUSH1 0x0 PUSH1 0x20 DUP3 ADD SWAP1 POP PUSH2 0x1E0C PUSH1 0x0 DUP4 ADD DUP5 PUSH2 0x1B7E JUMP JUMPDEST SWAP3 SWAP2 POP POP JUMP JUMPDEST PUSH1 0x0 PUSH2 0x1E1C PUSH2 0x1E2D JUMP JUMPDEST SWAP1 POP PUSH2 0x1E28 DUP3 DUP3 PUSH2 0x2087 JUMP JUMPDEST SWAP2 SWAP1 POP JUMP JUMPDEST PUSH1 0x0 PUSH1 0x40 MLOAD SWAP1 POP SWAP1 JUMP JUMPDEST PUSH1 0x0 PUSH8 0xFFFFFFFFFFFFFFFF DUP3 GT ISZERO PUSH2 0x1E52 JUMPI PUSH2 0x1E51 PUSH2 0x21EE JUMP JUMPDEST JUMPDEST PUSH2 0x1E5B DUP3 PUSH2 0x2231 JUMP JUMPDEST SWAP1 POP PUSH1 0x20 DUP2 ADD SWAP1 POP SWAP2 SWAP1 POP JUMP JUMPDEST PUSH1 0x0 DUP2 SWAP1 POP PUSH1 0x20 DUP3 ADD SWAP1 POP SWAP2 SWAP1 POP JUMP JUMPDEST PUSH1 0x0 DUP2 MLOAD SWAP1 POP SWAP2 SWAP1 POP JUMP JUMPDEST PUSH1 0x0 DUP2 MLOAD SWAP1 POP SWAP2 SWAP1 POP JUMP JUMPDEST PUSH1 0x0 DUP2 MLOAD SWAP1 POP SWAP2 SWAP1 POP JUMP JUMPDEST PUSH1 0x0 PUSH1 0x20 DUP3 ADD SWAP1 POP SWAP2 SWAP1 POP JUMP JUMPDEST PUSH1 0x0 DUP3 DUP3 MSTORE PUSH1 0x20 DUP3 ADD SWAP1 POP SWAP3 SWAP2 POP POP JUMP JUMPDEST PUSH1 0x0 DUP3 DUP3 MSTORE PUSH1 0x20 DUP3 ADD SWAP1 POP SWAP3 SWAP2 POP POP JUMP JUMPDEST PUSH1 0x0 DUP3 DUP3 MSTORE PUSH1 0x20 DUP3 ADD SWAP1 POP SWAP3 SWAP2 POP POP JUMP JUMPDEST PUSH1 0x0 DUP2 SWAP1 POP SWAP3 SWAP2 POP POP JUMP JUMPDEST PUSH1 0x0 PUSH2 0x1EEF DUP3 PUSH2 0x2009 JUMP JUMPDEST SWAP2 POP PUSH2 0x1EFA DUP4 PUSH2 0x2009 JUMP JUMPDEST SWAP3 POP DUP3 PUSH32 0xFFFFFFFFFFFFFFFFFFFFFFFFFFFFFFFFFFFFFFFFFFFFFFFFFFFFFFFFFFFFFFFF SUB DUP3 GT ISZERO PUSH2 0x1F2F JUMPI PUSH2 0x1F2E PUSH2 0x2132 JUMP JUMPDEST JUMPDEST DUP3 DUP3 ADD SWAP1 POP SWAP3 SWAP2 POP POP JUMP JUMPDEST PUSH1 0x0 PUSH2 0x1F45 DUP3 PUSH2 0x2009 JUMP JUMPDEST SWAP2 POP PUSH2 0x1F50 DUP4 PUSH2 0x2009 JUMP JUMPDEST SWAP3 POP DUP3 PUSH2 0x1F60 JUMPI PUSH2 0x1F5F PUSH2 0x2161 JUMP JUMPDEST JUMPDEST DUP3 DUP3 DIV SWAP1 POP SWAP3 SWAP2 POP POP JUMP JUMPDEST PUSH1 0x0 PUSH2 0x1F76 DUP3 PUSH2 0x2009 JUMP JUMPDEST SWAP2 POP PUSH2 0x1F81 DUP4 PUSH2 0x2009 JUMP JUMPDEST SWAP3 POP DUP3 DUP3 LT ISZERO PUSH2 0x1F94 JUMPI PUSH2 0x1F93 PUSH2 0x2132 JUMP JUMPDEST JUMPDEST DUP3 DUP3 SUB SWAP1 POP SWAP3 SWAP2 POP POP JUMP JUMPDEST PUSH1 0x0 PUSH2 0x1FAA DUP3 PUSH2 0x1FE9 JUMP JUMPDEST SWAP1 POP SWAP2 SWAP1 POP JUMP JUMPDEST PUSH1 0x0 DUP2 ISZERO ISZERO SWAP1 POP SWAP2 SWAP1 POP JUMP JUMPDEST PUSH1 0x0 PUSH32 0xFFFFFFFF00000000000000000000000000000000000000000000000000000000 DUP3 AND SWAP1 POP SWAP2 SWAP1 POP JUMP JUMPDEST PUSH1 0x0 PUSH20 0xFFFFFFFFFFFFFFFFFFFFFFFFFFFFFFFFFFFFFFFF DUP3 AND SWAP1 POP SWAP2 SWAP1 POP JUMP JUMPDEST PUSH1 0x0 DUP2 SWAP1 POP SWAP2 SWAP1 POP JUMP JUMPDEST DUP3 DUP2 DUP4 CALLDATACOPY PUSH1 0x0 DUP4 DUP4 ADD MSTORE POP POP POP JUMP JUMPDEST PUSH1 0x0 JUMPDEST DUP4 DUP2 LT ISZERO PUSH2 0x2040 JUMPI DUP1 DUP3 ADD MLOAD DUP2 DUP5 ADD MSTORE PUSH1 0x20 DUP2 ADD SWAP1 POP PUSH2 0x2025 JUMP JUMPDEST DUP4 DUP2 GT ISZERO PUSH2 0x204F JUMPI PUSH1 0x0 DUP5 DUP5 ADD MSTORE JUMPDEST POP POP POP POP JUMP JUMPDEST PUSH1 0x0 PUSH1 0x2 DUP3 DIV SWAP1 POP PUSH1 0x1 DUP3 AND DUP1 PUSH2 0x206D JUMPI PUSH1 0x7F DUP3 AND SWAP2 POP JUMPDEST PUSH1 0x20 DUP3 LT DUP2 EQ ISZERO PUSH2 0x2081 JUMPI PUSH2 0x2080 PUSH2 0x2190 JUMP JUMPDEST JUMPDEST POP SWAP2 SWAP1 POP JUMP JUMPDEST PUSH2 0x2090 DUP3 PUSH2 0x2231 JUMP JUMPDEST DUP2 ADD DUP2 DUP2 LT PUSH8 0xFFFFFFFFFFFFFFFF DUP3 GT OR ISZERO PUSH2 0x20AF JUMPI PUSH2 0x20AE PUSH2 0x21EE JUMP JUMPDEST JUMPDEST DUP1 PUSH1 0x40 MSTORE POP POP POP JUMP JUMPDEST PUSH1 0x0 PUSH2 0x20C3 DUP3 PUSH2 0x2009 JUMP JUMPDEST SWAP2 POP PUSH32 0xFFFFFFFFFFFFFFFFFFFFFFFFFFFFFFFFFFFFFFFFFFFFFFFFFFFFFFFFFFFFFFFF DUP3 EQ ISZERO PUSH2 0x20F6 JUMPI PUSH2 0x20F5 PUSH2 0x2132 JUMP JUMPDEST JUMPDEST PUSH1 0x1 DUP3 ADD SWAP1 POP SWAP2 SWAP1 POP JUMP JUMPDEST PUSH1 0x0 PUSH2 0x210C DUP3 PUSH2 0x2009 JUMP JUMPDEST SWAP2 POP PUSH2 0x2117 DUP4 PUSH2 0x2009 JUMP JUMPDEST SWAP3 POP DUP3 PUSH2 0x2127 JUMPI PUSH2 0x2126 PUSH2 0x2161 JUMP JUMPDEST JUMPDEST DUP3 DUP3 MOD SWAP1 POP SWAP3 SWAP2 POP POP JUMP JUMPDEST PUSH32 0x4E487B7100000000000000000000000000000000000000000000000000000000 PUSH1 0x0 MSTORE PUSH1 0x11 PUSH1 0x4 MSTORE PUSH1 0x24 PUSH1 0x0 REVERT JUMPDEST PUSH32 0x4E487B7100000000000000000000000000000000000000000000000000000000 PUSH1 0x0 MSTORE PUSH1 0x12 PUSH1 0x4 MSTORE PUSH1 0x24 PUSH1 0x0 REVERT JUMPDEST PUSH32 0x4E487B7100000000000000000000000000000000000000000000000000000000 PUSH1 0x0 MSTORE PUSH1 0x22 PUSH1 0x4 MSTORE PUSH1 0x24 PUSH1 0x0 REVERT JUMPDEST PUSH32 0x4E487B7100000000000000000000000000000000000000000000000000000000 PUSH1 0x0 MSTORE PUSH1 0x32 PUSH1 0x4 MSTORE PUSH1 0x24 PUSH1 0x0 REVERT JUMPDEST PUSH32 0x4E487B7100000000000000000000000000000000000000000000000000000000 PUSH1 0x0 MSTORE PUSH1 0x41 PUSH1 0x4 MSTORE PUSH1 0x24 PUSH1 0x0 REVERT JUMPDEST PUSH1 0x0 DUP1 REVERT JUMPDEST PUSH1 0x0 DUP1 REVERT JUMPDEST PUSH1 0x0 DUP1 REVERT JUMPDEST PUSH1 0x0 DUP1 REVERT JUMPDEST PUSH1 0x0 PUSH1 0x1F NOT PUSH1 0x1F DUP4 ADD AND SWAP1 POP SWAP2 SWAP1 POP JUMP JUMPDEST PUSH32 0x4552433732313A207472616E7366657220746F206E6F6E204552433732315265 PUSH1 0x0 DUP3 ADD MSTORE PUSH32 0x63656976657220696D706C656D656E7465720000000000000000000000000000 PUSH1 0x20 DUP3 ADD MSTORE POP JUMP JUMPDEST PUSH32 0x4552433732313A207472616E736665722066726F6D20696E636F727265637420 PUSH1 0x0 DUP3 ADD MSTORE PUSH32 0x6F776E6572000000000000000000000000000000000000000000000000000000 PUSH1 0x20 DUP3 ADD MSTORE POP JUMP JUMPDEST PUSH32 0x4552433732313A207472616E7366657220746F20746865207A65726F20616464 PUSH1 0x0 DUP3 ADD MSTORE PUSH32 0x7265737300000000000000000000000000000000000000000000000000000000 PUSH1 0x20 DUP3 ADD MSTORE POP JUMP JUMPDEST PUSH32 0x4552433732313A20617070726F766520746F2063616C6C657200000000000000 PUSH1 0x0 DUP3 ADD MSTORE POP JUMP JUMPDEST PUSH32 0x4552433732313A206F70657261746F7220717565727920666F72206E6F6E6578 PUSH1 0x0 DUP3 ADD MSTORE PUSH32 0x697374656E7420746F6B656E0000000000000000000000000000000000000000 PUSH1 0x20 DUP3 ADD MSTORE POP JUMP JUMPDEST PUSH32 0x4552433732313A20617070726F76652063616C6C6572206973206E6F74206F77 PUSH1 0x0 DUP3 ADD MSTORE PUSH32 0x6E6572206E6F7220617070726F76656420666F7220616C6C0000000000000000 PUSH1 0x20 DUP3 ADD MSTORE POP JUMP JUMPDEST PUSH32 0x4552433732313A2062616C616E636520717565727920666F7220746865207A65 PUSH1 0x0 DUP3 ADD MSTORE PUSH32 0x726F206164647265737300000000000000000000000000000000000000000000 PUSH1 0x20 DUP3 ADD MSTORE POP JUMP JUMPDEST PUSH32 0x4552433732313A206F776E657220717565727920666F72206E6F6E6578697374 PUSH1 0x0 DUP3 ADD MSTORE PUSH32 0x656E7420746F6B656E0000000000000000000000000000000000000000000000 PUSH1 0x20 DUP3 ADD MSTORE POP JUMP JUMPDEST PUSH32 0x4552433732313A20617070726F76656420717565727920666F72206E6F6E6578 PUSH1 0x0 DUP3 ADD MSTORE PUSH32 0x697374656E7420746F6B656E0000000000000000000000000000000000000000 PUSH1 0x20 DUP3 ADD MSTORE POP JUMP JUMPDEST PUSH32 0x4552433732314D657461646174613A2055524920717565727920666F72206E6F PUSH1 0x0 DUP3 ADD MSTORE PUSH32 0x6E6578697374656E7420746F6B656E0000000000000000000000000000000000 PUSH1 0x20 DUP3 ADD MSTORE POP JUMP JUMPDEST PUSH32 0x4552433732313A20617070726F76616C20746F2063757272656E74206F776E65 PUSH1 0x0 DUP3 ADD MSTORE PUSH32 0x7200000000000000000000000000000000000000000000000000000000000000 PUSH1 0x20 DUP3 ADD MSTORE POP JUMP JUMPDEST PUSH32 0x4552433732313A207472616E736665722063616C6C6572206973206E6F74206F PUSH1 0x0 DUP3 ADD MSTORE PUSH32 0x776E6572206E6F7220617070726F766564000000000000000000000000000000 PUSH1 0x20 DUP3 ADD MSTORE POP JUMP JUMPDEST PUSH2 0x25D9 DUP2 PUSH2 0x1F9F JUMP JUMPDEST DUP2 EQ PUSH2 0x25E4 JUMPI PUSH1 0x0 DUP1 REVERT JUMPDEST POP JUMP JUMPDEST PUSH2 0x25F0 DUP2 PUSH2 0x1FB1 JUMP JUMPDEST DUP2 EQ PUSH2 0x25FB JUMPI PUSH1 0x0 DUP1 REVERT JUMPDEST POP JUMP JUMPDEST PUSH2 0x2607 DUP2 PUSH2 0x1FBD JUMP JUMPDEST DUP2 EQ PUSH2 0x2612 JUMPI PUSH1 0x0 DUP1 REVERT JUMPDEST POP JUMP JUMPDEST PUSH2 0x261E DUP2 PUSH2 0x2009 JUMP JUMPDEST DUP2 EQ PUSH2 0x2629 JUMPI PUSH1 0x0 DUP1 REVERT JUMPDEST POP JUMP INVALID LOG2 PUSH5 0x6970667358 0x22 SLT KECCAK256 PUSH1 0x3 NUMBER PUSH11 0x4BAC445CBD87DFE6B1730A PUSH16 0x70C9A98D2D4877EA27134FEC3D1C0FE6 PUSH5 0x736F6C6343 STOP ADDMOD SMOD STOP CALLER "
				},
				"gasEstimates": {
					"creation": {
						"codeDepositCost": "1965200",
						"executionCost": "infinite",
						"totalCost": "infinite"
					},
					"external": {
						"approve(address,uint256)": "infinite",
						"balanceOf(address)": "2924",
						"getApproved(uint256)": "5228",
						"isApprovedForAll(address,address)": "infinite",
						"maxSupply()": "2495",
						"name()": "infinite",
						"ownerOf(uint256)": "3000",
						"safeTransferFrom(address,address,uint256)": "infinite",
						"safeTransferFrom(address,address,uint256,bytes)": "infinite",
						"setApprovalForAll(address,bool)": "infinite",
						"supportsInterface(bytes4)": "797",
						"symbol()": "infinite",
						"tokenURI(uint256)": "3373",
						"transferFrom(address,address,uint256)": "infinite",
						"walletOfOwner(address)": "infinite"
					}
				},
				"methodIdentifiers": {
					"approve(address,uint256)": "095ea7b3",
					"balanceOf(address)": "70a08231",
					"getApproved(uint256)": "081812fc",
					"isApprovedForAll(address,address)": "e985e9c5",
					"maxSupply()": "d5abeb01",
					"name()": "06fdde03",
					"ownerOf(uint256)": "6352211e",
					"safeTransferFrom(address,address,uint256)": "42842e0e",
					"safeTransferFrom(address,address,uint256,bytes)": "b88d4fde",
					"setApprovalForAll(address,bool)": "a22cb465",
					"supportsInterface(bytes4)": "01ffc9a7",
					"symbol()": "95d89b41",
					"tokenURI(uint256)": "c87b56dd",
					"transferFrom(address,address,uint256)": "23b872dd",
					"walletOfOwner(address)": "438b6300"
				}
			},
			"userdoc": {
				"kind": "user",
				"methods": {},
				"version": 1
			}
		}
	}
}