{
	"polygon token claim/Weird Claiming.sol": {
		"WeirdClaiming": {
			"abi": [
				{
					"inputs": [
						{
							"internalType": "address",
							"name": "_oracleAddress",
							"type": "address"
						},
						{
							"internalType": "uint256",
							"name": "_tokensPerSecond",
							"type": "uint256"
						}
					],
					"stateMutability": "nonpayable",
					"type": "constructor"
				},
				{
					"anonymous": false,
					"inputs": [
						{
							"indexed": true,
							"internalType": "address",
							"name": "previousOwner",
							"type": "address"
						},
						{
							"indexed": true,
							"internalType": "address",
							"name": "newOwner",
							"type": "address"
						}
					],
					"name": "OwnershipTransferred",
					"type": "event"
				},
				{
					"anonymous": false,
					"inputs": [
						{
							"indexed": true,
							"internalType": "bytes32",
							"name": "role",
							"type": "bytes32"
						},
						{
							"indexed": true,
							"internalType": "bytes32",
							"name": "previousAdminRole",
							"type": "bytes32"
						},
						{
							"indexed": true,
							"internalType": "bytes32",
							"name": "newAdminRole",
							"type": "bytes32"
						}
					],
					"name": "RoleAdminChanged",
					"type": "event"
				},
				{
					"anonymous": false,
					"inputs": [
						{
							"indexed": true,
							"internalType": "bytes32",
							"name": "role",
							"type": "bytes32"
						},
						{
							"indexed": true,
							"internalType": "address",
							"name": "account",
							"type": "address"
						},
						{
							"indexed": true,
							"internalType": "address",
							"name": "sender",
							"type": "address"
						}
					],
					"name": "RoleGranted",
					"type": "event"
				},
				{
					"anonymous": false,
					"inputs": [
						{
							"indexed": true,
							"internalType": "bytes32",
							"name": "role",
							"type": "bytes32"
						},
						{
							"indexed": true,
							"internalType": "address",
							"name": "account",
							"type": "address"
						},
						{
							"indexed": true,
							"internalType": "address",
							"name": "sender",
							"type": "address"
						}
					],
					"name": "RoleRevoked",
					"type": "event"
				},
				{
					"anonymous": false,
					"inputs": [
						{
							"indexed": false,
							"internalType": "address",
							"name": "user",
							"type": "address"
						}
					],
					"name": "checkEthTokens",
					"type": "event"
				},
				{
					"inputs": [],
					"name": "DEFAULT_ADMIN_ROLE",
					"outputs": [
						{
							"internalType": "bytes32",
							"name": "",
							"type": "bytes32"
						}
					],
					"stateMutability": "view",
					"type": "function"
				},
				{
					"inputs": [],
					"name": "ORACLE",
					"outputs": [
						{
							"internalType": "bytes32",
							"name": "",
							"type": "bytes32"
						}
					],
					"stateMutability": "view",
					"type": "function"
				},
				{
					"inputs": [],
					"name": "WeirdToken",
					"outputs": [
						{
							"internalType": "contract ERC20",
							"name": "",
							"type": "address"
						}
					],
					"stateMutability": "view",
					"type": "function"
				},
				{
					"inputs": [],
					"name": "claim",
					"outputs": [],
					"stateMutability": "nonpayable",
					"type": "function"
				},
				{
					"inputs": [
						{
							"internalType": "bytes32",
							"name": "role",
							"type": "bytes32"
						}
					],
					"name": "getRoleAdmin",
					"outputs": [
						{
							"internalType": "bytes32",
							"name": "",
							"type": "bytes32"
						}
					],
					"stateMutability": "view",
					"type": "function"
				},
				{
					"inputs": [
						{
							"internalType": "bytes32",
							"name": "role",
							"type": "bytes32"
						},
						{
							"internalType": "address",
							"name": "account",
							"type": "address"
						}
					],
					"name": "grantRole",
					"outputs": [],
					"stateMutability": "nonpayable",
					"type": "function"
				},
				{
					"inputs": [
						{
							"internalType": "bytes32",
							"name": "role",
							"type": "bytes32"
						},
						{
							"internalType": "address",
							"name": "account",
							"type": "address"
						}
					],
					"name": "hasRole",
					"outputs": [
						{
							"internalType": "bool",
							"name": "",
							"type": "bool"
						}
					],
					"stateMutability": "view",
					"type": "function"
				},
				{
					"inputs": [
						{
							"internalType": "uint256",
							"name": "",
							"type": "uint256"
						}
					],
					"name": "lastClaimed",
					"outputs": [
						{
							"internalType": "uint256",
							"name": "",
							"type": "uint256"
						}
					],
					"stateMutability": "view",
					"type": "function"
				},
				{
					"inputs": [],
					"name": "owner",
					"outputs": [
						{
							"internalType": "address",
							"name": "",
							"type": "address"
						}
					],
					"stateMutability": "view",
					"type": "function"
				},
				{
					"inputs": [],
					"name": "renounceOwnership",
					"outputs": [],
					"stateMutability": "nonpayable",
					"type": "function"
				},
				{
					"inputs": [
						{
							"internalType": "bytes32",
							"name": "role",
							"type": "bytes32"
						},
						{
							"internalType": "address",
							"name": "account",
							"type": "address"
						}
					],
					"name": "renounceRole",
					"outputs": [],
					"stateMutability": "nonpayable",
					"type": "function"
				},
				{
					"inputs": [
						{
							"internalType": "bytes32",
							"name": "role",
							"type": "bytes32"
						},
						{
							"internalType": "address",
							"name": "account",
							"type": "address"
						}
					],
					"name": "revokeRole",
					"outputs": [],
					"stateMutability": "nonpayable",
					"type": "function"
				},
				{
					"inputs": [
						{
							"internalType": "uint256",
							"name": "_tokensPerSecond",
							"type": "uint256"
						}
					],
					"name": "setTokensPerSecond",
					"outputs": [],
					"stateMutability": "nonpayable",
					"type": "function"
				},
				{
					"inputs": [
						{
							"internalType": "bytes4",
							"name": "interfaceId",
							"type": "bytes4"
						}
					],
					"name": "supportsInterface",
					"outputs": [
						{
							"internalType": "bool",
							"name": "",
							"type": "bool"
						}
					],
					"stateMutability": "view",
					"type": "function"
				},
				{
					"inputs": [],
					"name": "tokensPerSecond",
					"outputs": [
						{
							"internalType": "uint256",
							"name": "",
							"type": "uint256"
						}
					],
					"stateMutability": "view",
					"type": "function"
				},
				{
					"inputs": [
						{
							"internalType": "address",
							"name": "newOwner",
							"type": "address"
						}
					],
					"name": "transferOwnership",
					"outputs": [],
					"stateMutability": "nonpayable",
					"type": "function"
				}
			],
			"devdoc": {
				"kind": "dev",
				"methods": {
					"getRoleAdmin(bytes32)": {
						"details": "Returns the admin role that controls `role`. See {grantRole} and {revokeRole}. To change a role's admin, use {_setRoleAdmin}."
					},
					"grantRole(bytes32,address)": {
						"details": "Grants `role` to `account`. If `account` had not been already granted `role`, emits a {RoleGranted} event. Requirements: - the caller must have ``role``'s admin role."
					},
					"hasRole(bytes32,address)": {
						"details": "Returns `true` if `account` has been granted `role`."
					},
					"owner()": {
						"details": "Returns the address of the current owner."
					},
					"renounceOwnership()": {
						"details": "Leaves the contract without owner. It will not be possible to call `onlyOwner` functions anymore. Can only be called by the current owner. NOTE: Renouncing ownership will leave the contract without an owner, thereby removing any functionality that is only available to the owner."
					},
					"renounceRole(bytes32,address)": {
						"details": "Revokes `role` from the calling account. Roles are often managed via {grantRole} and {revokeRole}: this function's purpose is to provide a mechanism for accounts to lose their privileges if they are compromised (such as when a trusted device is misplaced). If the calling account had been revoked `role`, emits a {RoleRevoked} event. Requirements: - the caller must be `account`."
					},
					"revokeRole(bytes32,address)": {
						"details": "Revokes `role` from `account`. If `account` had been granted `role`, emits a {RoleRevoked} event. Requirements: - the caller must have ``role``'s admin role."
					},
					"supportsInterface(bytes4)": {
						"details": "See {IERC165-supportsInterface}."
					},
					"transferOwnership(address)": {
						"details": "Transfers ownership of the contract to a new account (`newOwner`). Can only be called by the current owner."
					}
				},
				"version": 1
			},
			"evm": {
				"assembly": "    /* \"polygon token claim/Weird Claiming.sol\":761:1491  contract WeirdClaiming is Ownable, AccessControl {\r... */\n  mstore(0x40, 0x80)\n    /* \"polygon token claim/Weird Claiming.sol\":849:891  0xcB8BCDb991B45bF5D78000a0b5C0A6686cE43790 */\n  0xcb8bcdb991b45bf5d78000a0b5c0a6686ce43790\n    /* \"polygon token claim/Weird Claiming.sol\":817:892  ERC20 public WeirdToken = ERC20(0xcB8BCDb991B45bF5D78000a0b5C0A6686cE43790) */\n  0x02\n  exp(0x0100, 0x00)\n  dup2\n  sload\n  dup2\n  0xffffffffffffffffffffffffffffffffffffffff\n  mul\n  not\n  and\n  swap1\n  dup4\n  0xffffffffffffffffffffffffffffffffffffffff\n  and\n  mul\n  or\n  swap1\n  sstore\n  pop\n    /* \"polygon token claim/Weird Claiming.sol\":1095:1310  constructor(address _oracleAddress, uint256 _tokensPerSecond) {\r... */\n  callvalue\n  dup1\n  iszero\n  tag_1\n  jumpi\n  0x00\n  dup1\n  revert\ntag_1:\n  pop\n  mload(0x40)\n  sub(codesize, bytecodeSize)\n  dup1\n  bytecodeSize\n  dup4\n  codecopy\n  dup2\n  dup2\n  add\n  0x40\n  mstore\n  dup2\n  add\n  swap1\n  tag_2\n  swap2\n  swap1\n  tag_3\n  jump\t// in\ntag_2:\n    /* \"polygon token claim/Ownable.sol\":942:974  _transferOwnership(_msgSender()) */\n  tag_7\n    /* \"polygon token claim/Ownable.sol\":961:973  _msgSender() */\n  tag_8\n    /* \"polygon token claim/Ownable.sol\":961:971  _msgSender */\n  shl(0x20, tag_9)\n    /* \"polygon token claim/Ownable.sol\":961:973  _msgSender() */\n  0x20\n  shr\n  jump\t// in\ntag_8:\n    /* \"polygon token claim/Ownable.sol\":942:960  _transferOwnership */\n  shl(0x20, tag_10)\n    /* \"polygon token claim/Ownable.sol\":942:974  _transferOwnership(_msgSender()) */\n  0x20\n  shr\n  jump\t// in\ntag_7:\n    /* \"polygon token claim/Weird Claiming.sol\":1168:1210  _setupRole(DEFAULT_ADMIN_ROLE, msg.sender) */\n  tag_12\n    /* \"polygon token claim/AccessControl.sol\":2093:2097  0x00 */\n  0x00\n    /* \"polygon token claim/Weird Claiming.sol\":1179:1197  DEFAULT_ADMIN_ROLE */\n  dup1\n  shl\n    /* \"polygon token claim/Weird Claiming.sol\":1199:1209  msg.sender */\n  caller\n    /* \"polygon token claim/Weird Claiming.sol\":1168:1178  _setupRole */\n  shl(0x20, tag_13)\n    /* \"polygon token claim/Weird Claiming.sol\":1168:1210  _setupRole(DEFAULT_ADMIN_ROLE, msg.sender) */\n  0x20\n  shr\n  jump\t// in\ntag_12:\n    /* \"polygon token claim/Weird Claiming.sol\":1221:1255  _setupRole(ORACLE, _oracleAddress) */\n  tag_14\n    /* \"polygon token claim/Weird Claiming.sol\":932:951  keccak256(\"ORACLE\") */\n  0x352d05fe3946dbe49277552ba941e744d5a96d9c60bc1ba0ea5f1d3ae000f7c8\n    /* \"polygon token claim/Weird Claiming.sol\":1240:1254  _oracleAddress */\n  dup4\n    /* \"polygon token claim/Weird Claiming.sol\":1221:1231  _setupRole */\n  shl(0x20, tag_13)\n    /* \"polygon token claim/Weird Claiming.sol\":1221:1255  _setupRole(ORACLE, _oracleAddress) */\n  0x20\n  shr\n  jump\t// in\ntag_14:\n    /* \"polygon token claim/Weird Claiming.sol\":1266:1302  setTokensPerSecond(_tokensPerSecond) */\n  tag_15\n    /* \"polygon token claim/Weird Claiming.sol\":1285:1301  _tokensPerSecond */\n  dup2\n    /* \"polygon token claim/Weird Claiming.sol\":1266:1284  setTokensPerSecond */\n  shl(0x20, tag_16)\n    /* \"polygon token claim/Weird Claiming.sol\":1266:1302  setTokensPerSecond(_tokensPerSecond) */\n  0x20\n  shr\n  jump\t// in\ntag_15:\n    /* \"polygon token claim/Weird Claiming.sol\":1095:1310  constructor(address _oracleAddress, uint256 _tokensPerSecond) {\r... */\n  pop\n  pop\n    /* \"polygon token claim/Weird Claiming.sol\":761:1491  contract WeirdClaiming is Ownable, AccessControl {\r... */\n  jump(tag_17)\n    /* \"polygon token claim/Context.sol\":656:754  function _msgSender() internal view virtual returns (address) {\r... */\ntag_9:\n    /* \"polygon token claim/Context.sol\":709:716  address */\n  0x00\n    /* \"polygon token claim/Context.sol\":736:746  msg.sender */\n  caller\n    /* \"polygon token claim/Context.sol\":729:746  return msg.sender */\n  swap1\n  pop\n    /* \"polygon token claim/Context.sol\":656:754  function _msgSender() internal view virtual returns (address) {\r... */\n  swap1\n  jump\t// out\n    /* \"polygon token claim/Ownable.sol\":2333:2524  function _transferOwnership(address newOwner) internal virtual {\r... */\ntag_10:\n    /* \"polygon token claim/Ownable.sol\":2407:2423  address oldOwner */\n  0x00\n    /* \"polygon token claim/Ownable.sol\":2426:2432  _owner */\n  dup1\n  0x00\n  swap1\n  sload\n  swap1\n  0x0100\n  exp\n  swap1\n  div\n  0xffffffffffffffffffffffffffffffffffffffff\n  and\n    /* \"polygon token claim/Ownable.sol\":2407:2432  address oldOwner = _owner */\n  swap1\n  pop\n    /* \"polygon token claim/Ownable.sol\":2452:2460  newOwner */\n  dup2\n    /* \"polygon token claim/Ownable.sol\":2443:2449  _owner */\n  0x00\n  dup1\n    /* \"polygon token claim/Ownable.sol\":2443:2460  _owner = newOwner */\n  0x0100\n  exp\n  dup2\n  sload\n  dup2\n  0xffffffffffffffffffffffffffffffffffffffff\n  mul\n  not\n  and\n  swap1\n  dup4\n  0xffffffffffffffffffffffffffffffffffffffff\n  and\n  mul\n  or\n  swap1\n  sstore\n  pop\n    /* \"polygon token claim/Ownable.sol\":2507:2515  newOwner */\n  dup2\n    /* \"polygon token claim/Ownable.sol\":2476:2516  OwnershipTransferred(oldOwner, newOwner) */\n  0xffffffffffffffffffffffffffffffffffffffff\n  and\n    /* \"polygon token claim/Ownable.sol\":2497:2505  oldOwner */\n  dup2\n    /* \"polygon token claim/Ownable.sol\":2476:2516  OwnershipTransferred(oldOwner, newOwner) */\n  0xffffffffffffffffffffffffffffffffffffffff\n  and\n  0x8be0079c531659141344cd1fd0a4f28419497f9722a3daafe3b4186f6b6457e0\n  mload(0x40)\n  mload(0x40)\n  dup1\n  swap2\n  sub\n  swap1\n  log3\n    /* \"polygon token claim/Ownable.sol\":2396:2524  {\r... */\n  pop\n    /* \"polygon token claim/Ownable.sol\":2333:2524  function _transferOwnership(address newOwner) internal virtual {\r... */\n  pop\n  jump\t// out\n    /* \"polygon token claim/AccessControl.sol\":6801:6913  function _setupRole(bytes32 role, address account) internal virtual {\r... */\ntag_13:\n    /* \"polygon token claim/AccessControl.sol\":6880:6905  _grantRole(role, account) */\n  tag_21\n    /* \"polygon token claim/AccessControl.sol\":6891:6895  role */\n  dup3\n    /* \"polygon token claim/AccessControl.sol\":6897:6904  account */\n  dup3\n    /* \"polygon token claim/AccessControl.sol\":6880:6890  _grantRole */\n  shl(0x20, tag_22)\n    /* \"polygon token claim/AccessControl.sol\":6880:6905  _grantRole(role, account) */\n  0x20\n  shr\n  jump\t// in\ntag_21:\n    /* \"polygon token claim/AccessControl.sol\":6801:6913  function _setupRole(bytes32 role, address account) internal virtual {\r... */\n  pop\n  pop\n  jump\t// out\n    /* \"polygon token claim/Weird Claiming.sol\":1360:1484  function setTokensPerSecond(uint256 _tokensPerSecond) public onlyOwner {\r... */\ntag_16:\n    /* \"polygon token claim/Ownable.sol\":1294:1306  _msgSender() */\n  tag_24\n    /* \"polygon token claim/Ownable.sol\":1294:1304  _msgSender */\n  shl(0x20, tag_9)\n    /* \"polygon token claim/Ownable.sol\":1294:1306  _msgSender() */\n  0x20\n  shr\n  jump\t// in\ntag_24:\n    /* \"polygon token claim/Ownable.sol\":1283:1306  owner() == _msgSender() */\n  0xffffffffffffffffffffffffffffffffffffffff\n  and\n    /* \"polygon token claim/Ownable.sol\":1283:1290  owner() */\n  tag_25\n    /* \"polygon token claim/Ownable.sol\":1283:1288  owner */\n  shl(0x20, tag_26)\n    /* \"polygon token claim/Ownable.sol\":1283:1290  owner() */\n  0x20\n  shr\n  jump\t// in\ntag_25:\n    /* \"polygon token claim/Ownable.sol\":1283:1306  owner() == _msgSender() */\n  0xffffffffffffffffffffffffffffffffffffffff\n  and\n  eq\n    /* \"polygon token claim/Ownable.sol\":1275:1343  require(owner() == _msgSender(), \"Ownable: caller is not the owner\") */\n  tag_27\n  jumpi\n  mload(0x40)\n  0x08c379a000000000000000000000000000000000000000000000000000000000\n  dup2\n  mstore\n  0x04\n  add\n  tag_28\n  swap1\n  tag_29\n  jump\t// in\ntag_28:\n  mload(0x40)\n  dup1\n  swap2\n  sub\n  swap1\n  revert\ntag_27:\n    /* \"polygon token claim/Weird Claiming.sol\":1460:1476  _tokensPerSecond */\n  dup1\n    /* \"polygon token claim/Weird Claiming.sol\":1442:1457  tokensPerSecond */\n  0x04\n    /* \"polygon token claim/Weird Claiming.sol\":1442:1476  tokensPerSecond = _tokensPerSecond */\n  dup2\n  swap1\n  sstore\n  pop\n    /* \"polygon token claim/Weird Claiming.sol\":1360:1484  function setTokensPerSecond(uint256 _tokensPerSecond) public onlyOwner {\r... */\n  pop\n  jump\t// out\n    /* \"polygon token claim/AccessControl.sol\":7425:7663  function _grantRole(bytes32 role, address account) internal virtual {\r... */\ntag_22:\n    /* \"polygon token claim/AccessControl.sol\":7509:7531  hasRole(role, account) */\n  tag_32\n    /* \"polygon token claim/AccessControl.sol\":7517:7521  role */\n  dup3\n    /* \"polygon token claim/AccessControl.sol\":7523:7530  account */\n  dup3\n    /* \"polygon token claim/AccessControl.sol\":7509:7516  hasRole */\n  shl(0x20, tag_33)\n    /* \"polygon token claim/AccessControl.sol\":7509:7531  hasRole(role, account) */\n  0x20\n  shr\n  jump\t// in\ntag_32:\n    /* \"polygon token claim/AccessControl.sol\":7504:7656  if (!hasRole(role, account)) {\r... */\n  tag_34\n  jumpi\n    /* \"polygon token claim/AccessControl.sol\":7580:7584  true */\n  0x01\n    /* \"polygon token claim/AccessControl.sol\":7548:7554  _roles */\n  dup1\n    /* \"polygon token claim/AccessControl.sol\":7548:7560  _roles[role] */\n  0x00\n    /* \"polygon token claim/AccessControl.sol\":7555:7559  role */\n  dup5\n    /* \"polygon token claim/AccessControl.sol\":7548:7560  _roles[role] */\n  dup2\n  mstore\n  0x20\n  add\n  swap1\n  dup2\n  mstore\n  0x20\n  add\n  0x00\n  keccak256\n    /* \"polygon token claim/AccessControl.sol\":7548:7568  _roles[role].members */\n  0x00\n  add\n    /* \"polygon token claim/AccessControl.sol\":7548:7577  _roles[role].members[account] */\n  0x00\n    /* \"polygon token claim/AccessControl.sol\":7569:7576  account */\n  dup4\n    /* \"polygon token claim/AccessControl.sol\":7548:7577  _roles[role].members[account] */\n  0xffffffffffffffffffffffffffffffffffffffff\n  and\n  0xffffffffffffffffffffffffffffffffffffffff\n  and\n  dup2\n  mstore\n  0x20\n  add\n  swap1\n  dup2\n  mstore\n  0x20\n  add\n  0x00\n  keccak256\n  0x00\n    /* \"polygon token claim/AccessControl.sol\":7548:7584  _roles[role].members[account] = true */\n  0x0100\n  exp\n  dup2\n  sload\n  dup2\n  0xff\n  mul\n  not\n  and\n  swap1\n  dup4\n  iszero\n  iszero\n  mul\n  or\n  swap1\n  sstore\n  pop\n    /* \"polygon token claim/AccessControl.sol\":7631:7643  _msgSender() */\n  tag_35\n    /* \"polygon token claim/AccessControl.sol\":7631:7641  _msgSender */\n  shl(0x20, tag_9)\n    /* \"polygon token claim/AccessControl.sol\":7631:7643  _msgSender() */\n  0x20\n  shr\n  jump\t// in\ntag_35:\n    /* \"polygon token claim/AccessControl.sol\":7604:7644  RoleGranted(role, account, _msgSender()) */\n  0xffffffffffffffffffffffffffffffffffffffff\n  and\n    /* \"polygon token claim/AccessControl.sol\":7622:7629  account */\n  dup2\n    /* \"polygon token claim/AccessControl.sol\":7604:7644  RoleGranted(role, account, _msgSender()) */\n  0xffffffffffffffffffffffffffffffffffffffff\n  and\n    /* \"polygon token claim/AccessControl.sol\":7616:7620  role */\n  dup4\n    /* \"polygon token claim/AccessControl.sol\":7604:7644  RoleGranted(role, account, _msgSender()) */\n  0x2f8788117e7eff1d82e926ec794901d17c78024a50270940304540a733656f0d\n  mload(0x40)\n  mload(0x40)\n  dup1\n  swap2\n  sub\n  swap1\n  log4\n    /* \"polygon token claim/AccessControl.sol\":7504:7656  if (!hasRole(role, account)) {\r... */\ntag_34:\n    /* \"polygon token claim/AccessControl.sol\":7425:7663  function _grantRole(bytes32 role, address account) internal virtual {\r... */\n  pop\n  pop\n  jump\t// out\n    /* \"polygon token claim/Ownable.sol\":1063:1150  function owner() public view virtual returns (address) {\r... */\ntag_26:\n    /* \"polygon token claim/Ownable.sol\":1109:1116  address */\n  0x00\n    /* \"polygon token claim/Ownable.sol\":1136:1142  _owner */\n  dup1\n  0x00\n  swap1\n  sload\n  swap1\n  0x0100\n  exp\n  swap1\n  div\n  0xffffffffffffffffffffffffffffffffffffffff\n  and\n    /* \"polygon token claim/Ownable.sol\":1129:1142  return _owner */\n  swap1\n  pop\n    /* \"polygon token claim/Ownable.sol\":1063:1150  function owner() public view virtual returns (address) {\r... */\n  swap1\n  jump\t// out\n    /* \"polygon token claim/AccessControl.sol\":2943:3090  function hasRole(bytes32 role, address account) public view virtual override returns (bool) {\r... */\ntag_33:\n    /* \"polygon token claim/AccessControl.sol\":3029:3033  bool */\n  0x00\n    /* \"polygon token claim/AccessControl.sol\":3053:3059  _roles */\n  0x01\n    /* \"polygon token claim/AccessControl.sol\":3053:3065  _roles[role] */\n  0x00\n    /* \"polygon token claim/AccessControl.sol\":3060:3064  role */\n  dup5\n    /* \"polygon token claim/AccessControl.sol\":3053:3065  _roles[role] */\n  dup2\n  mstore\n  0x20\n  add\n  swap1\n  dup2\n  mstore\n  0x20\n  add\n  0x00\n  keccak256\n    /* \"polygon token claim/AccessControl.sol\":3053:3073  _roles[role].members */\n  0x00\n  add\n    /* \"polygon token claim/AccessControl.sol\":3053:3082  _roles[role].members[account] */\n  0x00\n    /* \"polygon token claim/AccessControl.sol\":3074:3081  account */\n  dup4\n    /* \"polygon token claim/AccessControl.sol\":3053:3082  _roles[role].members[account] */\n  0xffffffffffffffffffffffffffffffffffffffff\n  and\n  0xffffffffffffffffffffffffffffffffffffffff\n  and\n  dup2\n  mstore\n  0x20\n  add\n  swap1\n  dup2\n  mstore\n  0x20\n  add\n  0x00\n  keccak256\n  0x00\n  swap1\n  sload\n  swap1\n  0x0100\n  exp\n  swap1\n  div\n  0xff\n  and\n    /* \"polygon token claim/AccessControl.sol\":3046:3082  return _roles[role].members[account] */\n  swap1\n  pop\n    /* \"polygon token claim/AccessControl.sol\":2943:3090  function hasRole(bytes32 role, address account) public view virtual override returns (bool) {\r... */\n  swap3\n  swap2\n  pop\n  pop\n  jump\t// out\n    /* \"#utility.yul\":7:150   */\ntag_39:\n    /* \"#utility.yul\":64:69   */\n  0x00\n    /* \"#utility.yul\":95:101   */\n  dup2\n    /* \"#utility.yul\":89:102   */\n  mload\n    /* \"#utility.yul\":80:102   */\n  swap1\n  pop\n    /* \"#utility.yul\":111:144   */\n  tag_41\n    /* \"#utility.yul\":138:143   */\n  dup2\n    /* \"#utility.yul\":111:144   */\n  tag_42\n  jump\t// in\ntag_41:\n    /* \"#utility.yul\":7:150   */\n  swap3\n  swap2\n  pop\n  pop\n  jump\t// out\n    /* \"#utility.yul\":156:299   */\ntag_43:\n    /* \"#utility.yul\":213:218   */\n  0x00\n    /* \"#utility.yul\":244:250   */\n  dup2\n    /* \"#utility.yul\":238:251   */\n  mload\n    /* \"#utility.yul\":229:251   */\n  swap1\n  pop\n    /* \"#utility.yul\":260:293   */\n  tag_45\n    /* \"#utility.yul\":287:292   */\n  dup2\n    /* \"#utility.yul\":260:293   */\n  tag_46\n  jump\t// in\ntag_45:\n    /* \"#utility.yul\":156:299   */\n  swap3\n  swap2\n  pop\n  pop\n  jump\t// out\n    /* \"#utility.yul\":305:812   */\ntag_3:\n    /* \"#utility.yul\":384:390   */\n  0x00\n    /* \"#utility.yul\":392:398   */\n  dup1\n    /* \"#utility.yul\":441:443   */\n  0x40\n    /* \"#utility.yul\":429:438   */\n  dup4\n    /* \"#utility.yul\":420:427   */\n  dup6\n    /* \"#utility.yul\":416:439   */\n  sub\n    /* \"#utility.yul\":412:444   */\n  slt\n    /* \"#utility.yul\":409:528   */\n  iszero\n  tag_48\n  jumpi\n    /* \"#utility.yul\":447:526   */\n  tag_49\n  tag_50\n  jump\t// in\ntag_49:\n    /* \"#utility.yul\":409:528   */\ntag_48:\n    /* \"#utility.yul\":567:568   */\n  0x00\n    /* \"#utility.yul\":592:656   */\n  tag_51\n    /* \"#utility.yul\":648:655   */\n  dup6\n    /* \"#utility.yul\":639:645   */\n  dup3\n    /* \"#utility.yul\":628:637   */\n  dup7\n    /* \"#utility.yul\":624:646   */\n  add\n    /* \"#utility.yul\":592:656   */\n  tag_39\n  jump\t// in\ntag_51:\n    /* \"#utility.yul\":582:656   */\n  swap3\n  pop\n    /* \"#utility.yul\":538:666   */\n  pop\n    /* \"#utility.yul\":705:707   */\n  0x20\n    /* \"#utility.yul\":731:795   */\n  tag_52\n    /* \"#utility.yul\":787:794   */\n  dup6\n    /* \"#utility.yul\":778:784   */\n  dup3\n    /* \"#utility.yul\":767:776   */\n  dup7\n    /* \"#utility.yul\":763:785   */\n  add\n    /* \"#utility.yul\":731:795   */\n  tag_43\n  jump\t// in\ntag_52:\n    /* \"#utility.yul\":721:795   */\n  swap2\n  pop\n    /* \"#utility.yul\":676:805   */\n  pop\n    /* \"#utility.yul\":305:812   */\n  swap3\n  pop\n  swap3\n  swap1\n  pop\n  jump\t// out\n    /* \"#utility.yul\":818:1184   */\ntag_53:\n    /* \"#utility.yul\":960:963   */\n  0x00\n    /* \"#utility.yul\":981:1048   */\n  tag_55\n    /* \"#utility.yul\":1045:1047   */\n  0x20\n    /* \"#utility.yul\":1040:1043   */\n  dup4\n    /* \"#utility.yul\":981:1048   */\n  tag_56\n  jump\t// in\ntag_55:\n    /* \"#utility.yul\":974:1048   */\n  swap2\n  pop\n    /* \"#utility.yul\":1057:1150   */\n  tag_57\n    /* \"#utility.yul\":1146:1149   */\n  dup3\n    /* \"#utility.yul\":1057:1150   */\n  tag_58\n  jump\t// in\ntag_57:\n    /* \"#utility.yul\":1175:1177   */\n  0x20\n    /* \"#utility.yul\":1170:1173   */\n  dup3\n    /* \"#utility.yul\":1166:1178   */\n  add\n    /* \"#utility.yul\":1159:1178   */\n  swap1\n  pop\n    /* \"#utility.yul\":818:1184   */\n  swap2\n  swap1\n  pop\n  jump\t// out\n    /* \"#utility.yul\":1190:1609   */\ntag_29:\n    /* \"#utility.yul\":1356:1360   */\n  0x00\n    /* \"#utility.yul\":1394:1396   */\n  0x20\n    /* \"#utility.yul\":1383:1392   */\n  dup3\n    /* \"#utility.yul\":1379:1397   */\n  add\n    /* \"#utility.yul\":1371:1397   */\n  swap1\n  pop\n    /* \"#utility.yul\":1443:1452   */\n  dup2\n    /* \"#utility.yul\":1437:1441   */\n  dup2\n    /* \"#utility.yul\":1433:1453   */\n  sub\n    /* \"#utility.yul\":1429:1430   */\n  0x00\n    /* \"#utility.yul\":1418:1427   */\n  dup4\n    /* \"#utility.yul\":1414:1431   */\n  add\n    /* \"#utility.yul\":1407:1454   */\n  mstore\n    /* \"#utility.yul\":1471:1602   */\n  tag_60\n    /* \"#utility.yul\":1597:1601   */\n  dup2\n    /* \"#utility.yul\":1471:1602   */\n  tag_53\n  jump\t// in\ntag_60:\n    /* \"#utility.yul\":1463:1602   */\n  swap1\n  pop\n    /* \"#utility.yul\":1190:1609   */\n  swap2\n  swap1\n  pop\n  jump\t// out\n    /* \"#utility.yul\":1696:1865   */\ntag_56:\n    /* \"#utility.yul\":1780:1791   */\n  0x00\n    /* \"#utility.yul\":1814:1820   */\n  dup3\n    /* \"#utility.yul\":1809:1812   */\n  dup3\n    /* \"#utility.yul\":1802:1821   */\n  mstore\n    /* \"#utility.yul\":1854:1858   */\n  0x20\n    /* \"#utility.yul\":1849:1852   */\n  dup3\n    /* \"#utility.yul\":1845:1859   */\n  add\n    /* \"#utility.yul\":1830:1859   */\n  swap1\n  pop\n    /* \"#utility.yul\":1696:1865   */\n  swap3\n  swap2\n  pop\n  pop\n  jump\t// out\n    /* \"#utility.yul\":1871:1967   */\ntag_64:\n    /* \"#utility.yul\":1908:1915   */\n  0x00\n    /* \"#utility.yul\":1937:1961   */\n  tag_66\n    /* \"#utility.yul\":1955:1960   */\n  dup3\n    /* \"#utility.yul\":1937:1961   */\n  tag_67\n  jump\t// in\ntag_66:\n    /* \"#utility.yul\":1926:1961   */\n  swap1\n  pop\n    /* \"#utility.yul\":1871:1967   */\n  swap2\n  swap1\n  pop\n  jump\t// out\n    /* \"#utility.yul\":1973:2099   */\ntag_67:\n    /* \"#utility.yul\":2010:2017   */\n  0x00\n    /* \"#utility.yul\":2050:2092   */\n  0xffffffffffffffffffffffffffffffffffffffff\n    /* \"#utility.yul\":2043:2048   */\n  dup3\n    /* \"#utility.yul\":2039:2093   */\n  and\n    /* \"#utility.yul\":2028:2093   */\n  swap1\n  pop\n    /* \"#utility.yul\":1973:2099   */\n  swap2\n  swap1\n  pop\n  jump\t// out\n    /* \"#utility.yul\":2105:2182   */\ntag_69:\n    /* \"#utility.yul\":2142:2149   */\n  0x00\n    /* \"#utility.yul\":2171:2176   */\n  dup2\n    /* \"#utility.yul\":2160:2176   */\n  swap1\n  pop\n    /* \"#utility.yul\":2105:2182   */\n  swap2\n  swap1\n  pop\n  jump\t// out\n    /* \"#utility.yul\":2311:2428   */\ntag_50:\n    /* \"#utility.yul\":2420:2421   */\n  0x00\n    /* \"#utility.yul\":2417:2418   */\n  dup1\n    /* \"#utility.yul\":2410:2422   */\n  revert\n    /* \"#utility.yul\":2434:2616   */\ntag_58:\n    /* \"#utility.yul\":2574:2608   */\n  0x4f776e61626c653a2063616c6c6572206973206e6f7420746865206f776e6572\n    /* \"#utility.yul\":2570:2571   */\n  0x00\n    /* \"#utility.yul\":2562:2568   */\n  dup3\n    /* \"#utility.yul\":2558:2572   */\n  add\n    /* \"#utility.yul\":2551:2609   */\n  mstore\n    /* \"#utility.yul\":2434:2616   */\n  pop\n  jump\t// out\n    /* \"#utility.yul\":2622:2744   */\ntag_42:\n    /* \"#utility.yul\":2695:2719   */\n  tag_76\n    /* \"#utility.yul\":2713:2718   */\n  dup2\n    /* \"#utility.yul\":2695:2719   */\n  tag_64\n  jump\t// in\ntag_76:\n    /* \"#utility.yul\":2688:2693   */\n  dup2\n    /* \"#utility.yul\":2685:2720   */\n  eq\n    /* \"#utility.yul\":2675:2738   */\n  tag_77\n  jumpi\n    /* \"#utility.yul\":2734:2735   */\n  0x00\n    /* \"#utility.yul\":2731:2732   */\n  dup1\n    /* \"#utility.yul\":2724:2736   */\n  revert\n    /* \"#utility.yul\":2675:2738   */\ntag_77:\n    /* \"#utility.yul\":2622:2744   */\n  pop\n  jump\t// out\n    /* \"#utility.yul\":2750:2872   */\ntag_46:\n    /* \"#utility.yul\":2823:2847   */\n  tag_79\n    /* \"#utility.yul\":2841:2846   */\n  dup2\n    /* \"#utility.yul\":2823:2847   */\n  tag_69\n  jump\t// in\ntag_79:\n    /* \"#utility.yul\":2816:2821   */\n  dup2\n    /* \"#utility.yul\":2813:2848   */\n  eq\n    /* \"#utility.yul\":2803:2866   */\n  tag_80\n  jumpi\n    /* \"#utility.yul\":2862:2863   */\n  0x00\n    /* \"#utility.yul\":2859:2860   */\n  dup1\n    /* \"#utility.yul\":2852:2864   */\n  revert\n    /* \"#utility.yul\":2803:2866   */\ntag_80:\n    /* \"#utility.yul\":2750:2872   */\n  pop\n  jump\t// out\n    /* \"polygon token claim/Weird Claiming.sol\":761:1491  contract WeirdClaiming is Ownable, AccessControl {\r... */\ntag_17:\n  dataSize(sub_0)\n  dup1\n  dataOffset(sub_0)\n  0x00\n  codecopy\n  0x00\n  return\nstop\n\nsub_0: assembly {\n        /* \"polygon token claim/Weird Claiming.sol\":761:1491  contract WeirdClaiming is Ownable, AccessControl {\r... */\n      mstore(0x40, 0x80)\n      callvalue\n      dup1\n      iszero\n      tag_1\n      jumpi\n      0x00\n      dup1\n      revert\n    tag_1:\n      pop\n      jumpi(tag_2, lt(calldatasize, 0x04))\n      shr(0xe0, calldataload(0x00))\n      dup1\n      0x52049ace\n      gt\n      tag_19\n      jumpi\n      dup1\n      0xa217fddf\n      gt\n      tag_20\n      jumpi\n      dup1\n      0xa217fddf\n      eq\n      tag_15\n      jumpi\n      dup1\n      0xb713f8cf\n      eq\n      tag_16\n      jumpi\n      dup1\n      0xd547741f\n      eq\n      tag_17\n      jumpi\n      dup1\n      0xf2fde38b\n      eq\n      tag_18\n      jumpi\n      jump(tag_2)\n    tag_20:\n      dup1\n      0x52049ace\n      eq\n      tag_11\n      jumpi\n      dup1\n      0x715018a6\n      eq\n      tag_12\n      jumpi\n      dup1\n      0x8da5cb5b\n      eq\n      tag_13\n      jumpi\n      dup1\n      0x91d14854\n      eq\n      tag_14\n      jumpi\n      jump(tag_2)\n    tag_19:\n      dup1\n      0x36568abe\n      gt\n      tag_21\n      jumpi\n      dup1\n      0x36568abe\n      eq\n      tag_7\n      jumpi\n      dup1\n      0x38013f02\n      eq\n      tag_8\n      jumpi\n      dup1\n      0x4d8d9e92\n      eq\n      tag_9\n      jumpi\n      dup1\n      0x4e71d92d\n      eq\n      tag_10\n      jumpi\n      jump(tag_2)\n    tag_21:\n      dup1\n      0x01ffc9a7\n      eq\n      tag_3\n      jumpi\n      dup1\n      0x153252ec\n      eq\n      tag_4\n      jumpi\n      dup1\n      0x248a9ca3\n      eq\n      tag_5\n      jumpi\n      dup1\n      0x2f2ff15d\n      eq\n      tag_6\n      jumpi\n    tag_2:\n      0x00\n      dup1\n      revert\n        /* \"polygon token claim/AccessControl.sol\":2647:2851  function supportsInterface(bytes4 interfaceId) public view virtual override returns (bool) {\r... */\n    tag_3:\n      tag_22\n      0x04\n      dup1\n      calldatasize\n      sub\n      dup2\n      add\n      swap1\n      tag_23\n      swap2\n      swap1\n      tag_24\n      jump\t// in\n    tag_23:\n      tag_25\n      jump\t// in\n    tag_22:\n      mload(0x40)\n      tag_26\n      swap2\n      swap1\n      tag_27\n      jump\t// in\n    tag_26:\n      mload(0x40)\n      dup1\n      swap2\n      sub\n      swap1\n      return\n        /* \"polygon token claim/Weird Claiming.sol\":817:892  ERC20 public WeirdToken = ERC20(0xcB8BCDb991B45bF5D78000a0b5C0A6686cE43790) */\n    tag_4:\n      tag_28\n      tag_29\n      jump\t// in\n    tag_28:\n      mload(0x40)\n      tag_30\n      swap2\n      swap1\n      tag_31\n      jump\t// in\n    tag_30:\n      mload(0x40)\n      dup1\n      swap2\n      sub\n      swap1\n      return\n        /* \"polygon token claim/AccessControl.sol\":4483:4614  function getRoleAdmin(bytes32 role) public view virtual override returns (bytes32) {\r... */\n    tag_5:\n      tag_32\n      0x04\n      dup1\n      calldatasize\n      sub\n      dup2\n      add\n      swap1\n      tag_33\n      swap2\n      swap1\n      tag_34\n      jump\t// in\n    tag_33:\n      tag_35\n      jump\t// in\n    tag_32:\n      mload(0x40)\n      tag_36\n      swap2\n      swap1\n      tag_37\n      jump\t// in\n    tag_36:\n      mload(0x40)\n      dup1\n      swap2\n      sub\n      swap1\n      return\n        /* \"polygon token claim/AccessControl.sol\":4876:5023  function grantRole(bytes32 role, address account) public virtual override onlyRole(getRoleAdmin(role)) {\r... */\n    tag_6:\n      tag_38\n      0x04\n      dup1\n      calldatasize\n      sub\n      dup2\n      add\n      swap1\n      tag_39\n      swap2\n      swap1\n      tag_40\n      jump\t// in\n    tag_39:\n      tag_41\n      jump\t// in\n    tag_38:\n      stop\n        /* \"polygon token claim/AccessControl.sol\":5924:6142  function renounceRole(bytes32 role, address account) public virtual override {\r... */\n    tag_7:\n      tag_42\n      0x04\n      dup1\n      calldatasize\n      sub\n      dup2\n      add\n      swap1\n      tag_43\n      swap2\n      swap1\n      tag_40\n      jump\t// in\n    tag_43:\n      tag_44\n      jump\t// in\n    tag_42:\n      stop\n        /* \"polygon token claim/Weird Claiming.sol\":899:951  bytes32 public constant ORACLE = keccak256(\"ORACLE\") */\n    tag_8:\n      tag_45\n      tag_46\n      jump\t// in\n    tag_45:\n      mload(0x40)\n      tag_47\n      swap2\n      swap1\n      tag_37\n      jump\t// in\n    tag_47:\n      mload(0x40)\n      dup1\n      swap2\n      sub\n      swap1\n      return\n        /* \"polygon token claim/Weird Claiming.sol\":1011:1041  uint256 public tokensPerSecond */\n    tag_9:\n      tag_48\n      tag_49\n      jump\t// in\n    tag_48:\n      mload(0x40)\n      tag_50\n      swap2\n      swap1\n      tag_51\n      jump\t// in\n    tag_50:\n      mload(0x40)\n      dup1\n      swap2\n      sub\n      swap1\n      return\n        /* \"polygon token claim/Weird Claiming.sol\":1318:1352  function claim() public {\r... */\n    tag_10:\n      tag_52\n      tag_53\n      jump\t// in\n    tag_52:\n      stop\n        /* \"polygon token claim/Weird Claiming.sol\":958:1004  mapping(uint256 => uint256) public lastClaimed */\n    tag_11:\n      tag_54\n      0x04\n      dup1\n      calldatasize\n      sub\n      dup2\n      add\n      swap1\n      tag_55\n      swap2\n      swap1\n      tag_56\n      jump\t// in\n    tag_55:\n      tag_57\n      jump\t// in\n    tag_54:\n      mload(0x40)\n      tag_58\n      swap2\n      swap1\n      tag_51\n      jump\t// in\n    tag_58:\n      mload(0x40)\n      dup1\n      swap2\n      sub\n      swap1\n      return\n        /* \"polygon token claim/Ownable.sol\":1714:1817  function renounceOwnership() public virtual onlyOwner {\r... */\n    tag_12:\n      tag_59\n      tag_60\n      jump\t// in\n    tag_59:\n      stop\n        /* \"polygon token claim/Ownable.sol\":1063:1150  function owner() public view virtual returns (address) {\r... */\n    tag_13:\n      tag_61\n      tag_62\n      jump\t// in\n    tag_61:\n      mload(0x40)\n      tag_63\n      swap2\n      swap1\n      tag_64\n      jump\t// in\n    tag_63:\n      mload(0x40)\n      dup1\n      swap2\n      sub\n      swap1\n      return\n        /* \"polygon token claim/AccessControl.sol\":2943:3090  function hasRole(bytes32 role, address account) public view virtual override returns (bool) {\r... */\n    tag_14:\n      tag_65\n      0x04\n      dup1\n      calldatasize\n      sub\n      dup2\n      add\n      swap1\n      tag_66\n      swap2\n      swap1\n      tag_40\n      jump\t// in\n    tag_66:\n      tag_67\n      jump\t// in\n    tag_65:\n      mload(0x40)\n      tag_68\n      swap2\n      swap1\n      tag_27\n      jump\t// in\n    tag_68:\n      mload(0x40)\n      dup1\n      swap2\n      sub\n      swap1\n      return\n        /* \"polygon token claim/AccessControl.sol\":2048:2097  bytes32 public constant DEFAULT_ADMIN_ROLE = 0x00 */\n    tag_15:\n      tag_69\n      tag_70\n      jump\t// in\n    tag_69:\n      mload(0x40)\n      tag_71\n      swap2\n      swap1\n      tag_37\n      jump\t// in\n    tag_71:\n      mload(0x40)\n      dup1\n      swap2\n      sub\n      swap1\n      return\n        /* \"polygon token claim/Weird Claiming.sol\":1360:1484  function setTokensPerSecond(uint256 _tokensPerSecond) public onlyOwner {\r... */\n    tag_16:\n      tag_72\n      0x04\n      dup1\n      calldatasize\n      sub\n      dup2\n      add\n      swap1\n      tag_73\n      swap2\n      swap1\n      tag_56\n      jump\t// in\n    tag_73:\n      tag_74\n      jump\t// in\n    tag_72:\n      stop\n        /* \"polygon token claim/AccessControl.sol\":5268:5417  function revokeRole(bytes32 role, address account) public virtual override onlyRole(getRoleAdmin(role)) {\r... */\n    tag_17:\n      tag_75\n      0x04\n      dup1\n      calldatasize\n      sub\n      dup2\n      add\n      swap1\n      tag_76\n      swap2\n      swap1\n      tag_40\n      jump\t// in\n    tag_76:\n      tag_77\n      jump\t// in\n    tag_75:\n      stop\n        /* \"polygon token claim/Ownable.sol\":1972:2173  function transferOwnership(address newOwner) public virtual onlyOwner {\r... */\n    tag_18:\n      tag_78\n      0x04\n      dup1\n      calldatasize\n      sub\n      dup2\n      add\n      swap1\n      tag_79\n      swap2\n      swap1\n      tag_80\n      jump\t// in\n    tag_79:\n      tag_81\n      jump\t// in\n    tag_78:\n      stop\n        /* \"polygon token claim/AccessControl.sol\":2647:2851  function supportsInterface(bytes4 interfaceId) public view virtual override returns (bool) {\r... */\n    tag_25:\n        /* \"polygon token claim/AccessControl.sol\":2732:2736  bool */\n      0x00\n        /* \"polygon token claim/AccessControl.sol\":2771:2803  type(IAccessControl).interfaceId */\n      0x7965db0b00000000000000000000000000000000000000000000000000000000\n        /* \"polygon token claim/AccessControl.sol\":2756:2803  interfaceId == type(IAccessControl).interfaceId */\n      not(0xffffffffffffffffffffffffffffffffffffffffffffffffffffffff)\n      and\n        /* \"polygon token claim/AccessControl.sol\":2756:2767  interfaceId */\n      dup3\n        /* \"polygon token claim/AccessControl.sol\":2756:2803  interfaceId == type(IAccessControl).interfaceId */\n      not(0xffffffffffffffffffffffffffffffffffffffffffffffffffffffff)\n      and\n      eq\n        /* \"polygon token claim/AccessControl.sol\":2756:2843  interfaceId == type(IAccessControl).interfaceId || super.supportsInterface(interfaceId) */\n      dup1\n      tag_83\n      jumpi\n      pop\n        /* \"polygon token claim/AccessControl.sol\":2807:2843  super.supportsInterface(interfaceId) */\n      tag_84\n        /* \"polygon token claim/AccessControl.sol\":2831:2842  interfaceId */\n      dup3\n        /* \"polygon token claim/AccessControl.sol\":2807:2830  super.supportsInterface */\n      tag_85\n        /* \"polygon token claim/AccessControl.sol\":2807:2843  super.supportsInterface(interfaceId) */\n      jump\t// in\n    tag_84:\n        /* \"polygon token claim/AccessControl.sol\":2756:2843  interfaceId == type(IAccessControl).interfaceId || super.supportsInterface(interfaceId) */\n    tag_83:\n        /* \"polygon token claim/AccessControl.sol\":2749:2843  return interfaceId == type(IAccessControl).interfaceId || super.supportsInterface(interfaceId) */\n      swap1\n      pop\n        /* \"polygon token claim/AccessControl.sol\":2647:2851  function supportsInterface(bytes4 interfaceId) public view virtual override returns (bool) {\r... */\n      swap2\n      swap1\n      pop\n      jump\t// out\n        /* \"polygon token claim/Weird Claiming.sol\":817:892  ERC20 public WeirdToken = ERC20(0xcB8BCDb991B45bF5D78000a0b5C0A6686cE43790) */\n    tag_29:\n      0x02\n      0x00\n      swap1\n      sload\n      swap1\n      0x0100\n      exp\n      swap1\n      div\n      0xffffffffffffffffffffffffffffffffffffffff\n      and\n      dup2\n      jump\t// out\n        /* \"polygon token claim/AccessControl.sol\":4483:4614  function getRoleAdmin(bytes32 role) public view virtual override returns (bytes32) {\r... */\n    tag_35:\n        /* \"polygon token claim/AccessControl.sol\":4557:4564  bytes32 */\n      0x00\n        /* \"polygon token claim/AccessControl.sol\":4584:4590  _roles */\n      0x01\n        /* \"polygon token claim/AccessControl.sol\":4584:4596  _roles[role] */\n      0x00\n        /* \"polygon token claim/AccessControl.sol\":4591:4595  role */\n      dup4\n        /* \"polygon token claim/AccessControl.sol\":4584:4596  _roles[role] */\n      dup2\n      mstore\n      0x20\n      add\n      swap1\n      dup2\n      mstore\n      0x20\n      add\n      0x00\n      keccak256\n        /* \"polygon token claim/AccessControl.sol\":4584:4606  _roles[role].adminRole */\n      0x01\n      add\n      sload\n        /* \"polygon token claim/AccessControl.sol\":4577:4606  return _roles[role].adminRole */\n      swap1\n      pop\n        /* \"polygon token claim/AccessControl.sol\":4483:4614  function getRoleAdmin(bytes32 role) public view virtual override returns (bytes32) {\r... */\n      swap2\n      swap1\n      pop\n      jump\t// out\n        /* \"polygon token claim/AccessControl.sol\":4876:5023  function grantRole(bytes32 role, address account) public virtual override onlyRole(getRoleAdmin(role)) {\r... */\n    tag_41:\n        /* \"polygon token claim/AccessControl.sol\":4959:4977  getRoleAdmin(role) */\n      tag_87\n        /* \"polygon token claim/AccessControl.sol\":4972:4976  role */\n      dup3\n        /* \"polygon token claim/AccessControl.sol\":4959:4971  getRoleAdmin */\n      tag_35\n        /* \"polygon token claim/AccessControl.sol\":4959:4977  getRoleAdmin(role) */\n      jump\t// in\n    tag_87:\n        /* \"polygon token claim/AccessControl.sol\":2539:2555  _checkRole(role) */\n      tag_89\n        /* \"polygon token claim/AccessControl.sol\":2550:2554  role */\n      dup2\n        /* \"polygon token claim/AccessControl.sol\":2539:2549  _checkRole */\n      tag_90\n        /* \"polygon token claim/AccessControl.sol\":2539:2555  _checkRole(role) */\n      jump\t// in\n    tag_89:\n        /* \"polygon token claim/AccessControl.sol\":4990:5015  _grantRole(role, account) */\n      tag_92\n        /* \"polygon token claim/AccessControl.sol\":5001:5005  role */\n      dup4\n        /* \"polygon token claim/AccessControl.sol\":5007:5014  account */\n      dup4\n        /* \"polygon token claim/AccessControl.sol\":4990:5000  _grantRole */\n      tag_93\n        /* \"polygon token claim/AccessControl.sol\":4990:5015  _grantRole(role, account) */\n      jump\t// in\n    tag_92:\n        /* \"polygon token claim/AccessControl.sol\":4876:5023  function grantRole(bytes32 role, address account) public virtual override onlyRole(getRoleAdmin(role)) {\r... */\n      pop\n      pop\n      pop\n      jump\t// out\n        /* \"polygon token claim/AccessControl.sol\":5924:6142  function renounceRole(bytes32 role, address account) public virtual override {\r... */\n    tag_44:\n        /* \"polygon token claim/AccessControl.sol\":6031:6043  _msgSender() */\n      tag_95\n        /* \"polygon token claim/AccessControl.sol\":6031:6041  _msgSender */\n      tag_96\n        /* \"polygon token claim/AccessControl.sol\":6031:6043  _msgSender() */\n      jump\t// in\n    tag_95:\n        /* \"polygon token claim/AccessControl.sol\":6020:6043  account == _msgSender() */\n      0xffffffffffffffffffffffffffffffffffffffff\n      and\n        /* \"polygon token claim/AccessControl.sol\":6020:6027  account */\n      dup2\n        /* \"polygon token claim/AccessControl.sol\":6020:6043  account == _msgSender() */\n      0xffffffffffffffffffffffffffffffffffffffff\n      and\n      eq\n        /* \"polygon token claim/AccessControl.sol\":6012:6095  require(account == _msgSender(), \"AccessControl: can only renounce roles for self\") */\n      tag_97\n      jumpi\n      mload(0x40)\n      0x08c379a000000000000000000000000000000000000000000000000000000000\n      dup2\n      mstore\n      0x04\n      add\n      tag_98\n      swap1\n      tag_99\n      jump\t// in\n    tag_98:\n      mload(0x40)\n      dup1\n      swap2\n      sub\n      swap1\n      revert\n    tag_97:\n        /* \"polygon token claim/AccessControl.sol\":6108:6134  _revokeRole(role, account) */\n      tag_100\n        /* \"polygon token claim/AccessControl.sol\":6120:6124  role */\n      dup3\n        /* \"polygon token claim/AccessControl.sol\":6126:6133  account */\n      dup3\n        /* \"polygon token claim/AccessControl.sol\":6108:6119  _revokeRole */\n      tag_101\n        /* \"polygon token claim/AccessControl.sol\":6108:6134  _revokeRole(role, account) */\n      jump\t// in\n    tag_100:\n        /* \"polygon token claim/AccessControl.sol\":5924:6142  function renounceRole(bytes32 role, address account) public virtual override {\r... */\n      pop\n      pop\n      jump\t// out\n        /* \"polygon token claim/Weird Claiming.sol\":899:951  bytes32 public constant ORACLE = keccak256(\"ORACLE\") */\n    tag_46:\n        /* \"polygon token claim/Weird Claiming.sol\":932:951  keccak256(\"ORACLE\") */\n      0x352d05fe3946dbe49277552ba941e744d5a96d9c60bc1ba0ea5f1d3ae000f7c8\n        /* \"polygon token claim/Weird Claiming.sol\":899:951  bytes32 public constant ORACLE = keccak256(\"ORACLE\") */\n      dup2\n      jump\t// out\n        /* \"polygon token claim/Weird Claiming.sol\":1011:1041  uint256 public tokensPerSecond */\n    tag_49:\n      sload(0x04)\n      dup2\n      jump\t// out\n        /* \"polygon token claim/Weird Claiming.sol\":1318:1352  function claim() public {\r... */\n    tag_53:\n      jump\t// out\n        /* \"polygon token claim/Weird Claiming.sol\":958:1004  mapping(uint256 => uint256) public lastClaimed */\n    tag_57:\n      mstore(0x20, 0x03)\n      dup1\n      0x00\n      mstore\n      keccak256(0x00, 0x40)\n      0x00\n      swap2\n      pop\n      swap1\n      pop\n      sload\n      dup2\n      jump\t// out\n        /* \"polygon token claim/Ownable.sol\":1714:1817  function renounceOwnership() public virtual onlyOwner {\r... */\n    tag_60:\n        /* \"polygon token claim/Ownable.sol\":1294:1306  _msgSender() */\n      tag_104\n        /* \"polygon token claim/Ownable.sol\":1294:1304  _msgSender */\n      tag_96\n        /* \"polygon token claim/Ownable.sol\":1294:1306  _msgSender() */\n      jump\t// in\n    tag_104:\n        /* \"polygon token claim/Ownable.sol\":1283:1306  owner() == _msgSender() */\n      0xffffffffffffffffffffffffffffffffffffffff\n      and\n        /* \"polygon token claim/Ownable.sol\":1283:1290  owner() */\n      tag_105\n        /* \"polygon token claim/Ownable.sol\":1283:1288  owner */\n      tag_62\n        /* \"polygon token claim/Ownable.sol\":1283:1290  owner() */\n      jump\t// in\n    tag_105:\n        /* \"polygon token claim/Ownable.sol\":1283:1306  owner() == _msgSender() */\n      0xffffffffffffffffffffffffffffffffffffffff\n      and\n      eq\n        /* \"polygon token claim/Ownable.sol\":1275:1343  require(owner() == _msgSender(), \"Ownable: caller is not the owner\") */\n      tag_106\n      jumpi\n      mload(0x40)\n      0x08c379a000000000000000000000000000000000000000000000000000000000\n      dup2\n      mstore\n      0x04\n      add\n      tag_107\n      swap1\n      tag_108\n      jump\t// in\n    tag_107:\n      mload(0x40)\n      dup1\n      swap2\n      sub\n      swap1\n      revert\n    tag_106:\n        /* \"polygon token claim/Ownable.sol\":1779:1809  _transferOwnership(address(0)) */\n      tag_110\n        /* \"polygon token claim/Ownable.sol\":1806:1807  0 */\n      0x00\n        /* \"polygon token claim/Ownable.sol\":1779:1797  _transferOwnership */\n      tag_111\n        /* \"polygon token claim/Ownable.sol\":1779:1809  _transferOwnership(address(0)) */\n      jump\t// in\n    tag_110:\n        /* \"polygon token claim/Ownable.sol\":1714:1817  function renounceOwnership() public virtual onlyOwner {\r... */\n      jump\t// out\n        /* \"polygon token claim/Ownable.sol\":1063:1150  function owner() public view virtual returns (address) {\r... */\n    tag_62:\n        /* \"polygon token claim/Ownable.sol\":1109:1116  address */\n      0x00\n        /* \"polygon token claim/Ownable.sol\":1136:1142  _owner */\n      dup1\n      0x00\n      swap1\n      sload\n      swap1\n      0x0100\n      exp\n      swap1\n      div\n      0xffffffffffffffffffffffffffffffffffffffff\n      and\n        /* \"polygon token claim/Ownable.sol\":1129:1142  return _owner */\n      swap1\n      pop\n        /* \"polygon token claim/Ownable.sol\":1063:1150  function owner() public view virtual returns (address) {\r... */\n      swap1\n      jump\t// out\n        /* \"polygon token claim/AccessControl.sol\":2943:3090  function hasRole(bytes32 role, address account) public view virtual override returns (bool) {\r... */\n    tag_67:\n        /* \"polygon token claim/AccessControl.sol\":3029:3033  bool */\n      0x00\n        /* \"polygon token claim/AccessControl.sol\":3053:3059  _roles */\n      0x01\n        /* \"polygon token claim/AccessControl.sol\":3053:3065  _roles[role] */\n      0x00\n        /* \"polygon token claim/AccessControl.sol\":3060:3064  role */\n      dup5\n        /* \"polygon token claim/AccessControl.sol\":3053:3065  _roles[role] */\n      dup2\n      mstore\n      0x20\n      add\n      swap1\n      dup2\n      mstore\n      0x20\n      add\n      0x00\n      keccak256\n        /* \"polygon token claim/AccessControl.sol\":3053:3073  _roles[role].members */\n      0x00\n      add\n        /* \"polygon token claim/AccessControl.sol\":3053:3082  _roles[role].members[account] */\n      0x00\n        /* \"polygon token claim/AccessControl.sol\":3074:3081  account */\n      dup4\n        /* \"polygon token claim/AccessControl.sol\":3053:3082  _roles[role].members[account] */\n      0xffffffffffffffffffffffffffffffffffffffff\n      and\n      0xffffffffffffffffffffffffffffffffffffffff\n      and\n      dup2\n      mstore\n      0x20\n      add\n      swap1\n      dup2\n      mstore\n      0x20\n      add\n      0x00\n      keccak256\n      0x00\n      swap1\n      sload\n      swap1\n      0x0100\n      exp\n      swap1\n      div\n      0xff\n      and\n        /* \"polygon token claim/AccessControl.sol\":3046:3082  return _roles[role].members[account] */\n      swap1\n      pop\n        /* \"polygon token claim/AccessControl.sol\":2943:3090  function hasRole(bytes32 role, address account) public view virtual override returns (bool) {\r... */\n      swap3\n      swap2\n      pop\n      pop\n      jump\t// out\n        /* \"polygon token claim/AccessControl.sol\":2048:2097  bytes32 public constant DEFAULT_ADMIN_ROLE = 0x00 */\n    tag_70:\n        /* \"polygon token claim/AccessControl.sol\":2093:2097  0x00 */\n      0x00\n        /* \"polygon token claim/AccessControl.sol\":2048:2097  bytes32 public constant DEFAULT_ADMIN_ROLE = 0x00 */\n      dup1\n      shl\n      dup2\n      jump\t// out\n        /* \"polygon token claim/Weird Claiming.sol\":1360:1484  function setTokensPerSecond(uint256 _tokensPerSecond) public onlyOwner {\r... */\n    tag_74:\n        /* \"polygon token claim/Ownable.sol\":1294:1306  _msgSender() */\n      tag_115\n        /* \"polygon token claim/Ownable.sol\":1294:1304  _msgSender */\n      tag_96\n        /* \"polygon token claim/Ownable.sol\":1294:1306  _msgSender() */\n      jump\t// in\n    tag_115:\n        /* \"polygon token claim/Ownable.sol\":1283:1306  owner() == _msgSender() */\n      0xffffffffffffffffffffffffffffffffffffffff\n      and\n        /* \"polygon token claim/Ownable.sol\":1283:1290  owner() */\n      tag_116\n        /* \"polygon token claim/Ownable.sol\":1283:1288  owner */\n      tag_62\n        /* \"polygon token claim/Ownable.sol\":1283:1290  owner() */\n      jump\t// in\n    tag_116:\n        /* \"polygon token claim/Ownable.sol\":1283:1306  owner() == _msgSender() */\n      0xffffffffffffffffffffffffffffffffffffffff\n      and\n      eq\n        /* \"polygon token claim/Ownable.sol\":1275:1343  require(owner() == _msgSender(), \"Ownable: caller is not the owner\") */\n      tag_117\n      jumpi\n      mload(0x40)\n      0x08c379a000000000000000000000000000000000000000000000000000000000\n      dup2\n      mstore\n      0x04\n      add\n      tag_118\n      swap1\n      tag_108\n      jump\t// in\n    tag_118:\n      mload(0x40)\n      dup1\n      swap2\n      sub\n      swap1\n      revert\n    tag_117:\n        /* \"polygon token claim/Weird Claiming.sol\":1460:1476  _tokensPerSecond */\n      dup1\n        /* \"polygon token claim/Weird Claiming.sol\":1442:1457  tokensPerSecond */\n      0x04\n        /* \"polygon token claim/Weird Claiming.sol\":1442:1476  tokensPerSecond = _tokensPerSecond */\n      dup2\n      swap1\n      sstore\n      pop\n        /* \"polygon token claim/Weird Claiming.sol\":1360:1484  function setTokensPerSecond(uint256 _tokensPerSecond) public onlyOwner {\r... */\n      pop\n      jump\t// out\n        /* \"polygon token claim/AccessControl.sol\":5268:5417  function revokeRole(bytes32 role, address account) public virtual override onlyRole(getRoleAdmin(role)) {\r... */\n    tag_77:\n        /* \"polygon token claim/AccessControl.sol\":5352:5370  getRoleAdmin(role) */\n      tag_120\n        /* \"polygon token claim/AccessControl.sol\":5365:5369  role */\n      dup3\n        /* \"polygon token claim/AccessControl.sol\":5352:5364  getRoleAdmin */\n      tag_35\n        /* \"polygon token claim/AccessControl.sol\":5352:5370  getRoleAdmin(role) */\n      jump\t// in\n    tag_120:\n        /* \"polygon token claim/AccessControl.sol\":2539:2555  _checkRole(role) */\n      tag_122\n        /* \"polygon token claim/AccessControl.sol\":2550:2554  role */\n      dup2\n        /* \"polygon token claim/AccessControl.sol\":2539:2549  _checkRole */\n      tag_90\n        /* \"polygon token claim/AccessControl.sol\":2539:2555  _checkRole(role) */\n      jump\t// in\n    tag_122:\n        /* \"polygon token claim/AccessControl.sol\":5383:5409  _revokeRole(role, account) */\n      tag_124\n        /* \"polygon token claim/AccessControl.sol\":5395:5399  role */\n      dup4\n        /* \"polygon token claim/AccessControl.sol\":5401:5408  account */\n      dup4\n        /* \"polygon token claim/AccessControl.sol\":5383:5394  _revokeRole */\n      tag_101\n        /* \"polygon token claim/AccessControl.sol\":5383:5409  _revokeRole(role, account) */\n      jump\t// in\n    tag_124:\n        /* \"polygon token claim/AccessControl.sol\":5268:5417  function revokeRole(bytes32 role, address account) public virtual override onlyRole(getRoleAdmin(role)) {\r... */\n      pop\n      pop\n      pop\n      jump\t// out\n        /* \"polygon token claim/Ownable.sol\":1972:2173  function transferOwnership(address newOwner) public virtual onlyOwner {\r... */\n    tag_81:\n        /* \"polygon token claim/Ownable.sol\":1294:1306  _msgSender() */\n      tag_126\n        /* \"polygon token claim/Ownable.sol\":1294:1304  _msgSender */\n      tag_96\n        /* \"polygon token claim/Ownable.sol\":1294:1306  _msgSender() */\n      jump\t// in\n    tag_126:\n        /* \"polygon token claim/Ownable.sol\":1283:1306  owner() == _msgSender() */\n      0xffffffffffffffffffffffffffffffffffffffff\n      and\n        /* \"polygon token claim/Ownable.sol\":1283:1290  owner() */\n      tag_127\n        /* \"polygon token claim/Ownable.sol\":1283:1288  owner */\n      tag_62\n        /* \"polygon token claim/Ownable.sol\":1283:1290  owner() */\n      jump\t// in\n    tag_127:\n        /* \"polygon token claim/Ownable.sol\":1283:1306  owner() == _msgSender() */\n      0xffffffffffffffffffffffffffffffffffffffff\n      and\n      eq\n        /* \"polygon token claim/Ownable.sol\":1275:1343  require(owner() == _msgSender(), \"Ownable: caller is not the owner\") */\n      tag_128\n      jumpi\n      mload(0x40)\n      0x08c379a000000000000000000000000000000000000000000000000000000000\n      dup2\n      mstore\n      0x04\n      add\n      tag_129\n      swap1\n      tag_108\n      jump\t// in\n    tag_129:\n      mload(0x40)\n      dup1\n      swap2\n      sub\n      swap1\n      revert\n    tag_128:\n        /* \"polygon token claim/Ownable.sol\":2081:2082  0 */\n      0x00\n        /* \"polygon token claim/Ownable.sol\":2061:2083  newOwner != address(0) */\n      0xffffffffffffffffffffffffffffffffffffffff\n      and\n        /* \"polygon token claim/Ownable.sol\":2061:2069  newOwner */\n      dup2\n        /* \"polygon token claim/Ownable.sol\":2061:2083  newOwner != address(0) */\n      0xffffffffffffffffffffffffffffffffffffffff\n      and\n      eq\n      iszero\n        /* \"polygon token claim/Ownable.sol\":2053:2126  require(newOwner != address(0), \"Ownable: new owner is the zero address\") */\n      tag_131\n      jumpi\n      mload(0x40)\n      0x08c379a000000000000000000000000000000000000000000000000000000000\n      dup2\n      mstore\n      0x04\n      add\n      tag_132\n      swap1\n      tag_133\n      jump\t// in\n    tag_132:\n      mload(0x40)\n      dup1\n      swap2\n      sub\n      swap1\n      revert\n    tag_131:\n        /* \"polygon token claim/Ownable.sol\":2137:2165  _transferOwnership(newOwner) */\n      tag_134\n        /* \"polygon token claim/Ownable.sol\":2156:2164  newOwner */\n      dup2\n        /* \"polygon token claim/Ownable.sol\":2137:2155  _transferOwnership */\n      tag_111\n        /* \"polygon token claim/Ownable.sol\":2137:2165  _transferOwnership(newOwner) */\n      jump\t// in\n    tag_134:\n        /* \"polygon token claim/Ownable.sol\":1972:2173  function transferOwnership(address newOwner) public virtual onlyOwner {\r... */\n      pop\n      jump\t// out\n        /* \"polygon token claim/ERC165.sol\":854:1011  function supportsInterface(bytes4 interfaceId) public view virtual override returns (bool) {\r... */\n    tag_85:\n        /* \"polygon token claim/ERC165.sol\":939:943  bool */\n      0x00\n        /* \"polygon token claim/ERC165.sol\":978:1003  type(IERC165).interfaceId */\n      0x01ffc9a700000000000000000000000000000000000000000000000000000000\n        /* \"polygon token claim/ERC165.sol\":963:1003  interfaceId == type(IERC165).interfaceId */\n      not(0xffffffffffffffffffffffffffffffffffffffffffffffffffffffff)\n      and\n        /* \"polygon token claim/ERC165.sol\":963:974  interfaceId */\n      dup3\n        /* \"polygon token claim/ERC165.sol\":963:1003  interfaceId == type(IERC165).interfaceId */\n      not(0xffffffffffffffffffffffffffffffffffffffffffffffffffffffff)\n      and\n      eq\n        /* \"polygon token claim/ERC165.sol\":956:1003  return interfaceId == type(IERC165).interfaceId */\n      swap1\n      pop\n        /* \"polygon token claim/ERC165.sol\":854:1011  function supportsInterface(bytes4 interfaceId) public view virtual override returns (bool) {\r... */\n      swap2\n      swap1\n      pop\n      jump\t// out\n        /* \"polygon token claim/AccessControl.sol\":3394:3499  function _checkRole(bytes32 role) internal view virtual {\r... */\n    tag_90:\n        /* \"polygon token claim/AccessControl.sol\":3461:3491  _checkRole(role, _msgSender()) */\n      tag_137\n        /* \"polygon token claim/AccessControl.sol\":3472:3476  role */\n      dup2\n        /* \"polygon token claim/AccessControl.sol\":3478:3490  _msgSender() */\n      tag_138\n        /* \"polygon token claim/AccessControl.sol\":3478:3488  _msgSender */\n      tag_96\n        /* \"polygon token claim/AccessControl.sol\":3478:3490  _msgSender() */\n      jump\t// in\n    tag_138:\n        /* \"polygon token claim/AccessControl.sol\":3461:3471  _checkRole */\n      tag_139\n        /* \"polygon token claim/AccessControl.sol\":3461:3491  _checkRole(role, _msgSender()) */\n      jump\t// in\n    tag_137:\n        /* \"polygon token claim/AccessControl.sol\":3394:3499  function _checkRole(bytes32 role) internal view virtual {\r... */\n      pop\n      jump\t// out\n        /* \"polygon token claim/AccessControl.sol\":7425:7663  function _grantRole(bytes32 role, address account) internal virtual {\r... */\n    tag_93:\n        /* \"polygon token claim/AccessControl.sol\":7509:7531  hasRole(role, account) */\n      tag_141\n        /* \"polygon token claim/AccessControl.sol\":7517:7521  role */\n      dup3\n        /* \"polygon token claim/AccessControl.sol\":7523:7530  account */\n      dup3\n        /* \"polygon token claim/AccessControl.sol\":7509:7516  hasRole */\n      tag_67\n        /* \"polygon token claim/AccessControl.sol\":7509:7531  hasRole(role, account) */\n      jump\t// in\n    tag_141:\n        /* \"polygon token claim/AccessControl.sol\":7504:7656  if (!hasRole(role, account)) {\r... */\n      tag_142\n      jumpi\n        /* \"polygon token claim/AccessControl.sol\":7580:7584  true */\n      0x01\n        /* \"polygon token claim/AccessControl.sol\":7548:7554  _roles */\n      dup1\n        /* \"polygon token claim/AccessControl.sol\":7548:7560  _roles[role] */\n      0x00\n        /* \"polygon token claim/AccessControl.sol\":7555:7559  role */\n      dup5\n        /* \"polygon token claim/AccessControl.sol\":7548:7560  _roles[role] */\n      dup2\n      mstore\n      0x20\n      add\n      swap1\n      dup2\n      mstore\n      0x20\n      add\n      0x00\n      keccak256\n        /* \"polygon token claim/AccessControl.sol\":7548:7568  _roles[role].members */\n      0x00\n      add\n        /* \"polygon token claim/AccessControl.sol\":7548:7577  _roles[role].members[account] */\n      0x00\n        /* \"polygon token claim/AccessControl.sol\":7569:7576  account */\n      dup4\n        /* \"polygon token claim/AccessControl.sol\":7548:7577  _roles[role].members[account] */\n      0xffffffffffffffffffffffffffffffffffffffff\n      and\n      0xffffffffffffffffffffffffffffffffffffffff\n      and\n      dup2\n      mstore\n      0x20\n      add\n      swap1\n      dup2\n      mstore\n      0x20\n      add\n      0x00\n      keccak256\n      0x00\n        /* \"polygon token claim/AccessControl.sol\":7548:7584  _roles[role].members[account] = true */\n      0x0100\n      exp\n      dup2\n      sload\n      dup2\n      0xff\n      mul\n      not\n      and\n      swap1\n      dup4\n      iszero\n      iszero\n      mul\n      or\n      swap1\n      sstore\n      pop\n        /* \"polygon token claim/AccessControl.sol\":7631:7643  _msgSender() */\n      tag_143\n        /* \"polygon token claim/AccessControl.sol\":7631:7641  _msgSender */\n      tag_96\n        /* \"polygon token claim/AccessControl.sol\":7631:7643  _msgSender() */\n      jump\t// in\n    tag_143:\n        /* \"polygon token claim/AccessControl.sol\":7604:7644  RoleGranted(role, account, _msgSender()) */\n      0xffffffffffffffffffffffffffffffffffffffff\n      and\n        /* \"polygon token claim/AccessControl.sol\":7622:7629  account */\n      dup2\n        /* \"polygon token claim/AccessControl.sol\":7604:7644  RoleGranted(role, account, _msgSender()) */\n      0xffffffffffffffffffffffffffffffffffffffff\n      and\n        /* \"polygon token claim/AccessControl.sol\":7616:7620  role */\n      dup4\n        /* \"polygon token claim/AccessControl.sol\":7604:7644  RoleGranted(role, account, _msgSender()) */\n      0x2f8788117e7eff1d82e926ec794901d17c78024a50270940304540a733656f0d\n      mload(0x40)\n      mload(0x40)\n      dup1\n      swap2\n      sub\n      swap1\n      log4\n        /* \"polygon token claim/AccessControl.sol\":7504:7656  if (!hasRole(role, account)) {\r... */\n    tag_142:\n        /* \"polygon token claim/AccessControl.sol\":7425:7663  function _grantRole(bytes32 role, address account) internal virtual {\r... */\n      pop\n      pop\n      jump\t// out\n        /* \"polygon token claim/Context.sol\":656:754  function _msgSender() internal view virtual returns (address) {\r... */\n    tag_96:\n        /* \"polygon token claim/Context.sol\":709:716  address */\n      0x00\n        /* \"polygon token claim/Context.sol\":736:746  msg.sender */\n      caller\n        /* \"polygon token claim/Context.sol\":729:746  return msg.sender */\n      swap1\n      pop\n        /* \"polygon token claim/Context.sol\":656:754  function _msgSender() internal view virtual returns (address) {\r... */\n      swap1\n      jump\t// out\n        /* \"polygon token claim/AccessControl.sol\":7795:8034  function _revokeRole(bytes32 role, address account) internal virtual {\r... */\n    tag_101:\n        /* \"polygon token claim/AccessControl.sol\":7879:7901  hasRole(role, account) */\n      tag_146\n        /* \"polygon token claim/AccessControl.sol\":7887:7891  role */\n      dup3\n        /* \"polygon token claim/AccessControl.sol\":7893:7900  account */\n      dup3\n        /* \"polygon token claim/AccessControl.sol\":7879:7886  hasRole */\n      tag_67\n        /* \"polygon token claim/AccessControl.sol\":7879:7901  hasRole(role, account) */\n      jump\t// in\n    tag_146:\n        /* \"polygon token claim/AccessControl.sol\":7875:8027  if (hasRole(role, account)) {\r... */\n      iszero\n      tag_147\n      jumpi\n        /* \"polygon token claim/AccessControl.sol\":7950:7955  false */\n      0x00\n        /* \"polygon token claim/AccessControl.sol\":7918:7924  _roles */\n      0x01\n        /* \"polygon token claim/AccessControl.sol\":7918:7930  _roles[role] */\n      0x00\n        /* \"polygon token claim/AccessControl.sol\":7925:7929  role */\n      dup5\n        /* \"polygon token claim/AccessControl.sol\":7918:7930  _roles[role] */\n      dup2\n      mstore\n      0x20\n      add\n      swap1\n      dup2\n      mstore\n      0x20\n      add\n      0x00\n      keccak256\n        /* \"polygon token claim/AccessControl.sol\":7918:7938  _roles[role].members */\n      0x00\n      add\n        /* \"polygon token claim/AccessControl.sol\":7918:7947  _roles[role].members[account] */\n      0x00\n        /* \"polygon token claim/AccessControl.sol\":7939:7946  account */\n      dup4\n        /* \"polygon token claim/AccessControl.sol\":7918:7947  _roles[role].members[account] */\n      0xffffffffffffffffffffffffffffffffffffffff\n      and\n      0xffffffffffffffffffffffffffffffffffffffff\n      and\n      dup2\n      mstore\n      0x20\n      add\n      swap1\n      dup2\n      mstore\n      0x20\n      add\n      0x00\n      keccak256\n      0x00\n        /* \"polygon token claim/AccessControl.sol\":7918:7955  _roles[role].members[account] = false */\n      0x0100\n      exp\n      dup2\n      sload\n      dup2\n      0xff\n      mul\n      not\n      and\n      swap1\n      dup4\n      iszero\n      iszero\n      mul\n      or\n      swap1\n      sstore\n      pop\n        /* \"polygon token claim/AccessControl.sol\":8002:8014  _msgSender() */\n      tag_148\n        /* \"polygon token claim/AccessControl.sol\":8002:8012  _msgSender */\n      tag_96\n        /* \"polygon token claim/AccessControl.sol\":8002:8014  _msgSender() */\n      jump\t// in\n    tag_148:\n        /* \"polygon token claim/AccessControl.sol\":7975:8015  RoleRevoked(role, account, _msgSender()) */\n      0xffffffffffffffffffffffffffffffffffffffff\n      and\n        /* \"polygon token claim/AccessControl.sol\":7993:8000  account */\n      dup2\n        /* \"polygon token claim/AccessControl.sol\":7975:8015  RoleRevoked(role, account, _msgSender()) */\n      0xffffffffffffffffffffffffffffffffffffffff\n      and\n        /* \"polygon token claim/AccessControl.sol\":7987:7991  role */\n      dup4\n        /* \"polygon token claim/AccessControl.sol\":7975:8015  RoleRevoked(role, account, _msgSender()) */\n      0xf6391f5c32d9c69d2a47ea670b442974b53935d1edc7fd64eb21e047a839171b\n      mload(0x40)\n      mload(0x40)\n      dup1\n      swap2\n      sub\n      swap1\n      log4\n        /* \"polygon token claim/AccessControl.sol\":7875:8027  if (hasRole(role, account)) {\r... */\n    tag_147:\n        /* \"polygon token claim/AccessControl.sol\":7795:8034  function _revokeRole(bytes32 role, address account) internal virtual {\r... */\n      pop\n      pop\n      jump\t// out\n        /* \"polygon token claim/Ownable.sol\":2333:2524  function _transferOwnership(address newOwner) internal virtual {\r... */\n    tag_111:\n        /* \"polygon token claim/Ownable.sol\":2407:2423  address oldOwner */\n      0x00\n        /* \"polygon token claim/Ownable.sol\":2426:2432  _owner */\n      dup1\n      0x00\n      swap1\n      sload\n      swap1\n      0x0100\n      exp\n      swap1\n      div\n      0xffffffffffffffffffffffffffffffffffffffff\n      and\n        /* \"polygon token claim/Ownable.sol\":2407:2432  address oldOwner = _owner */\n      swap1\n      pop\n        /* \"polygon token claim/Ownable.sol\":2452:2460  newOwner */\n      dup2\n        /* \"polygon token claim/Ownable.sol\":2443:2449  _owner */\n      0x00\n      dup1\n        /* \"polygon token claim/Ownable.sol\":2443:2460  _owner = newOwner */\n      0x0100\n      exp\n      dup2\n      sload\n      dup2\n      0xffffffffffffffffffffffffffffffffffffffff\n      mul\n      not\n      and\n      swap1\n      dup4\n      0xffffffffffffffffffffffffffffffffffffffff\n      and\n      mul\n      or\n      swap1\n      sstore\n      pop\n        /* \"polygon token claim/Ownable.sol\":2507:2515  newOwner */\n      dup2\n        /* \"polygon token claim/Ownable.sol\":2476:2516  OwnershipTransferred(oldOwner, newOwner) */\n      0xffffffffffffffffffffffffffffffffffffffff\n      and\n        /* \"polygon token claim/Ownable.sol\":2497:2505  oldOwner */\n      dup2\n        /* \"polygon token claim/Ownable.sol\":2476:2516  OwnershipTransferred(oldOwner, newOwner) */\n      0xffffffffffffffffffffffffffffffffffffffff\n      and\n      0x8be0079c531659141344cd1fd0a4f28419497f9722a3daafe3b4186f6b6457e0\n      mload(0x40)\n      mload(0x40)\n      dup1\n      swap2\n      sub\n      swap1\n      log3\n        /* \"polygon token claim/Ownable.sol\":2396:2524  {\r... */\n      pop\n        /* \"polygon token claim/Ownable.sol\":2333:2524  function _transferOwnership(address newOwner) internal virtual {\r... */\n      pop\n      jump\t// out\n        /* \"polygon token claim/AccessControl.sol\":3789:4294  function _checkRole(bytes32 role, address account) internal view virtual {\r... */\n    tag_139:\n        /* \"polygon token claim/AccessControl.sol\":3878:3900  hasRole(role, account) */\n      tag_151\n        /* \"polygon token claim/AccessControl.sol\":3886:3890  role */\n      dup3\n        /* \"polygon token claim/AccessControl.sol\":3892:3899  account */\n      dup3\n        /* \"polygon token claim/AccessControl.sol\":3878:3885  hasRole */\n      tag_67\n        /* \"polygon token claim/AccessControl.sol\":3878:3900  hasRole(role, account) */\n      jump\t// in\n    tag_151:\n        /* \"polygon token claim/AccessControl.sol\":3873:4287  if (!hasRole(role, account)) {\r... */\n      tag_152\n      jumpi\n        /* \"polygon token claim/AccessControl.sol\":4066:4107  Strings.toHexString(uint160(account), 20) */\n      tag_153\n        /* \"polygon token claim/AccessControl.sol\":4094:4101  account */\n      dup2\n        /* \"polygon token claim/AccessControl.sol\":4066:4107  Strings.toHexString(uint160(account), 20) */\n      0xffffffffffffffffffffffffffffffffffffffff\n      and\n        /* \"polygon token claim/AccessControl.sol\":4104:4106  20 */\n      0x14\n        /* \"polygon token claim/AccessControl.sol\":4066:4085  Strings.toHexString */\n      tag_154\n        /* \"polygon token claim/AccessControl.sol\":4066:4107  Strings.toHexString(uint160(account), 20) */\n      jump\t// in\n    tag_153:\n        /* \"polygon token claim/AccessControl.sol\":4180:4218  Strings.toHexString(uint256(role), 32) */\n      tag_155\n        /* \"polygon token claim/AccessControl.sol\":4208:4212  role */\n      dup4\n        /* \"polygon token claim/AccessControl.sol\":4200:4213  uint256(role) */\n      0x00\n      shr\n        /* \"polygon token claim/AccessControl.sol\":4215:4217  32 */\n      0x20\n        /* \"polygon token claim/AccessControl.sol\":4180:4199  Strings.toHexString */\n      tag_154\n        /* \"polygon token claim/AccessControl.sol\":4180:4218  Strings.toHexString(uint256(role), 32) */\n      jump\t// in\n    tag_155:\n        /* \"polygon token claim/AccessControl.sol\":3971:4241  abi.encodePacked(\r... */\n      add(0x20, mload(0x40))\n      tag_156\n      swap3\n      swap2\n      swap1\n      tag_157\n      jump\t// in\n    tag_156:\n      mload(0x40)\n      0x20\n      dup2\n      dup4\n      sub\n      sub\n      dup2\n      mstore\n      swap1\n      0x40\n      mstore\n        /* \"polygon token claim/AccessControl.sol\":3917:4275  revert(\r... */\n      mload(0x40)\n      0x08c379a000000000000000000000000000000000000000000000000000000000\n      dup2\n      mstore\n      0x04\n      add\n      tag_158\n      swap2\n      swap1\n      tag_159\n      jump\t// in\n    tag_158:\n      mload(0x40)\n      dup1\n      swap2\n      sub\n      swap1\n      revert\n        /* \"polygon token claim/AccessControl.sol\":3873:4287  if (!hasRole(role, account)) {\r... */\n    tag_152:\n        /* \"polygon token claim/AccessControl.sol\":3789:4294  function _checkRole(bytes32 role, address account) internal view virtual {\r... */\n      pop\n      pop\n      jump\t// out\n        /* \"polygon token claim/Strings.sol\":1643:2094  function toHexString(uint256 value, uint256 length) internal pure returns (string memory) {\r... */\n    tag_154:\n        /* \"polygon token claim/Strings.sol\":1718:1731  string memory */\n      0x60\n        /* \"polygon token claim/Strings.sol\":1744:1763  bytes memory buffer */\n      0x00\n        /* \"polygon token claim/Strings.sol\":1789:1790  2 */\n      0x02\n        /* \"polygon token claim/Strings.sol\":1780:1786  length */\n      dup4\n        /* \"polygon token claim/Strings.sol\":1776:1777  2 */\n      0x02\n        /* \"polygon token claim/Strings.sol\":1776:1786  2 * length */\n      tag_161\n      swap2\n      swap1\n      tag_162\n      jump\t// in\n    tag_161:\n        /* \"polygon token claim/Strings.sol\":1776:1790  2 * length + 2 */\n      tag_163\n      swap2\n      swap1\n      tag_164\n      jump\t// in\n    tag_163:\n        /* \"polygon token claim/Strings.sol\":1766:1791  new bytes(2 * length + 2) */\n      0xffffffffffffffff\n      dup2\n      gt\n      iszero\n      tag_165\n      jumpi\n      tag_166\n      tag_167\n      jump\t// in\n    tag_166:\n    tag_165:\n      mload(0x40)\n      swap1\n      dup1\n      dup3\n      mstore\n      dup1\n      0x1f\n      add\n      not(0x1f)\n      and\n      0x20\n      add\n      dup3\n      add\n      0x40\n      mstore\n      dup1\n      iszero\n      tag_168\n      jumpi\n      dup2\n      0x20\n      add\n      0x01\n      dup3\n      mul\n      dup1\n      calldatasize\n      dup4\n      calldatacopy\n      dup1\n      dup3\n      add\n      swap2\n      pop\n      pop\n      swap1\n      pop\n    tag_168:\n      pop\n        /* \"polygon token claim/Strings.sol\":1744:1791  bytes memory buffer = new bytes(2 * length + 2) */\n      swap1\n      pop\n        /* \"polygon token claim/Strings.sol\":1802:1817  buffer[0] = \"0\" */\n      0x3000000000000000000000000000000000000000000000000000000000000000\n        /* \"polygon token claim/Strings.sol\":1802:1808  buffer */\n      dup2\n        /* \"polygon token claim/Strings.sol\":1809:1810  0 */\n      0x00\n        /* \"polygon token claim/Strings.sol\":1802:1811  buffer[0] */\n      dup2\n      mload\n      dup2\n      lt\n      tag_169\n      jumpi\n      tag_170\n      tag_171\n      jump\t// in\n    tag_170:\n    tag_169:\n      0x20\n      add\n      add\n        /* \"polygon token claim/Strings.sol\":1802:1817  buffer[0] = \"0\" */\n      swap1\n      not(0xffffffffffffffffffffffffffffffffffffffffffffffffffffffffffffff)\n      and\n      swap1\n      dup2\n      0x00\n      byte\n      swap1\n      mstore8\n      pop\n        /* \"polygon token claim/Strings.sol\":1828:1843  buffer[1] = \"x\" */\n      0x7800000000000000000000000000000000000000000000000000000000000000\n        /* \"polygon token claim/Strings.sol\":1828:1834  buffer */\n      dup2\n        /* \"polygon token claim/Strings.sol\":1835:1836  1 */\n      0x01\n        /* \"polygon token claim/Strings.sol\":1828:1837  buffer[1] */\n      dup2\n      mload\n      dup2\n      lt\n      tag_172\n      jumpi\n      tag_173\n      tag_171\n      jump\t// in\n    tag_173:\n    tag_172:\n      0x20\n      add\n      add\n        /* \"polygon token claim/Strings.sol\":1828:1843  buffer[1] = \"x\" */\n      swap1\n      not(0xffffffffffffffffffffffffffffffffffffffffffffffffffffffffffffff)\n      and\n      swap1\n      dup2\n      0x00\n      byte\n      swap1\n      mstore8\n      pop\n        /* \"polygon token claim/Strings.sol\":1859:1868  uint256 i */\n      0x00\n        /* \"polygon token claim/Strings.sol\":1884:1885  1 */\n      0x01\n        /* \"polygon token claim/Strings.sol\":1875:1881  length */\n      dup5\n        /* \"polygon token claim/Strings.sol\":1871:1872  2 */\n      0x02\n        /* \"polygon token claim/Strings.sol\":1871:1881  2 * length */\n      tag_177\n      swap2\n      swap1\n      tag_162\n      jump\t// in\n    tag_177:\n        /* \"polygon token claim/Strings.sol\":1871:1885  2 * length + 1 */\n      tag_178\n      swap2\n      swap1\n      tag_164\n      jump\t// in\n    tag_178:\n        /* \"polygon token claim/Strings.sol\":1859:1885  uint256 i = 2 * length + 1 */\n      swap1\n      pop\n        /* \"polygon token claim/Strings.sol\":1854:1989  for (uint256 i = 2 * length + 1; i > 1; --i) {\r... */\n    tag_174:\n        /* \"polygon token claim/Strings.sol\":1891:1892  1 */\n      0x01\n        /* \"polygon token claim/Strings.sol\":1887:1888  i */\n      dup2\n        /* \"polygon token claim/Strings.sol\":1887:1892  i > 1 */\n      gt\n        /* \"polygon token claim/Strings.sol\":1854:1989  for (uint256 i = 2 * length + 1; i > 1; --i) {\r... */\n      iszero\n      tag_175\n      jumpi\n        /* \"polygon token claim/Strings.sol\":1926:1938  _HEX_SYMBOLS */\n      0x3031323334353637383961626364656600000000000000000000000000000000\n        /* \"polygon token claim/Strings.sol\":1947:1950  0xf */\n      0x0f\n        /* \"polygon token claim/Strings.sol\":1939:1944  value */\n      dup7\n        /* \"polygon token claim/Strings.sol\":1939:1950  value & 0xf */\n      and\n        /* \"polygon token claim/Strings.sol\":1926:1951  _HEX_SYMBOLS[value & 0xf] */\n      0x10\n      dup2\n      lt\n      tag_179\n      jumpi\n      tag_180\n      tag_171\n      jump\t// in\n    tag_180:\n    tag_179:\n      byte\n      0xf8\n      shl\n        /* \"polygon token claim/Strings.sol\":1914:1920  buffer */\n      dup3\n        /* \"polygon token claim/Strings.sol\":1921:1922  i */\n      dup3\n        /* \"polygon token claim/Strings.sol\":1914:1923  buffer[i] */\n      dup2\n      mload\n      dup2\n      lt\n      tag_181\n      jumpi\n      tag_182\n      tag_171\n      jump\t// in\n    tag_182:\n    tag_181:\n      0x20\n      add\n      add\n        /* \"polygon token claim/Strings.sol\":1914:1951  buffer[i] = _HEX_SYMBOLS[value & 0xf] */\n      swap1\n      not(0xffffffffffffffffffffffffffffffffffffffffffffffffffffffffffffff)\n      and\n      swap1\n      dup2\n      0x00\n      byte\n      swap1\n      mstore8\n      pop\n        /* \"polygon token claim/Strings.sol\":1976:1977  4 */\n      0x04\n        /* \"polygon token claim/Strings.sol\":1966:1977  value >>= 4 */\n      dup6\n      swap1\n      shr\n      swap5\n      pop\n        /* \"polygon token claim/Strings.sol\":1894:1897  --i */\n      dup1\n      tag_183\n      swap1\n      tag_184\n      jump\t// in\n    tag_183:\n      swap1\n      pop\n        /* \"polygon token claim/Strings.sol\":1854:1989  for (uint256 i = 2 * length + 1; i > 1; --i) {\r... */\n      jump(tag_174)\n    tag_175:\n      pop\n        /* \"polygon token claim/Strings.sol\":2016:2017  0 */\n      0x00\n        /* \"polygon token claim/Strings.sol\":2007:2012  value */\n      dup5\n        /* \"polygon token claim/Strings.sol\":2007:2017  value == 0 */\n      eq\n        /* \"polygon token claim/Strings.sol\":1999:2054  require(value == 0, \"Strings: hex length insufficient\") */\n      tag_185\n      jumpi\n      mload(0x40)\n      0x08c379a000000000000000000000000000000000000000000000000000000000\n      dup2\n      mstore\n      0x04\n      add\n      tag_186\n      swap1\n      tag_187\n      jump\t// in\n    tag_186:\n      mload(0x40)\n      dup1\n      swap2\n      sub\n      swap1\n      revert\n    tag_185:\n        /* \"polygon token claim/Strings.sol\":2079:2085  buffer */\n      dup1\n        /* \"polygon token claim/Strings.sol\":2065:2086  return string(buffer) */\n      swap2\n      pop\n      pop\n        /* \"polygon token claim/Strings.sol\":1643:2094  function toHexString(uint256 value, uint256 length) internal pure returns (string memory) {\r... */\n      swap3\n      swap2\n      pop\n      pop\n      jump\t// out\n        /* \"#utility.yul\":7:146   */\n    tag_189:\n        /* \"#utility.yul\":53:58   */\n      0x00\n        /* \"#utility.yul\":91:97   */\n      dup2\n        /* \"#utility.yul\":78:98   */\n      calldataload\n        /* \"#utility.yul\":69:98   */\n      swap1\n      pop\n        /* \"#utility.yul\":107:140   */\n      tag_191\n        /* \"#utility.yul\":134:139   */\n      dup2\n        /* \"#utility.yul\":107:140   */\n      tag_192\n      jump\t// in\n    tag_191:\n        /* \"#utility.yul\":7:146   */\n      swap3\n      swap2\n      pop\n      pop\n      jump\t// out\n        /* \"#utility.yul\":152:291   */\n    tag_193:\n        /* \"#utility.yul\":198:203   */\n      0x00\n        /* \"#utility.yul\":236:242   */\n      dup2\n        /* \"#utility.yul\":223:243   */\n      calldataload\n        /* \"#utility.yul\":214:243   */\n      swap1\n      pop\n        /* \"#utility.yul\":252:285   */\n      tag_195\n        /* \"#utility.yul\":279:284   */\n      dup2\n        /* \"#utility.yul\":252:285   */\n      tag_196\n      jump\t// in\n    tag_195:\n        /* \"#utility.yul\":152:291   */\n      swap3\n      swap2\n      pop\n      pop\n      jump\t// out\n        /* \"#utility.yul\":297:434   */\n    tag_197:\n        /* \"#utility.yul\":342:347   */\n      0x00\n        /* \"#utility.yul\":380:386   */\n      dup2\n        /* \"#utility.yul\":367:387   */\n      calldataload\n        /* \"#utility.yul\":358:387   */\n      swap1\n      pop\n        /* \"#utility.yul\":396:428   */\n      tag_199\n        /* \"#utility.yul\":422:427   */\n      dup2\n        /* \"#utility.yul\":396:428   */\n      tag_200\n      jump\t// in\n    tag_199:\n        /* \"#utility.yul\":297:434   */\n      swap3\n      swap2\n      pop\n      pop\n      jump\t// out\n        /* \"#utility.yul\":440:579   */\n    tag_201:\n        /* \"#utility.yul\":486:491   */\n      0x00\n        /* \"#utility.yul\":524:530   */\n      dup2\n        /* \"#utility.yul\":511:531   */\n      calldataload\n        /* \"#utility.yul\":502:531   */\n      swap1\n      pop\n        /* \"#utility.yul\":540:573   */\n      tag_203\n        /* \"#utility.yul\":567:572   */\n      dup2\n        /* \"#utility.yul\":540:573   */\n      tag_204\n      jump\t// in\n    tag_203:\n        /* \"#utility.yul\":440:579   */\n      swap3\n      swap2\n      pop\n      pop\n      jump\t// out\n        /* \"#utility.yul\":585:914   */\n    tag_80:\n        /* \"#utility.yul\":644:650   */\n      0x00\n        /* \"#utility.yul\":693:695   */\n      0x20\n        /* \"#utility.yul\":681:690   */\n      dup3\n        /* \"#utility.yul\":672:679   */\n      dup5\n        /* \"#utility.yul\":668:691   */\n      sub\n        /* \"#utility.yul\":664:696   */\n      slt\n        /* \"#utility.yul\":661:780   */\n      iszero\n      tag_206\n      jumpi\n        /* \"#utility.yul\":699:778   */\n      tag_207\n      tag_208\n      jump\t// in\n    tag_207:\n        /* \"#utility.yul\":661:780   */\n    tag_206:\n        /* \"#utility.yul\":819:820   */\n      0x00\n        /* \"#utility.yul\":844:897   */\n      tag_209\n        /* \"#utility.yul\":889:896   */\n      dup5\n        /* \"#utility.yul\":880:886   */\n      dup3\n        /* \"#utility.yul\":869:878   */\n      dup6\n        /* \"#utility.yul\":865:887   */\n      add\n        /* \"#utility.yul\":844:897   */\n      tag_189\n      jump\t// in\n    tag_209:\n        /* \"#utility.yul\":834:897   */\n      swap2\n      pop\n        /* \"#utility.yul\":790:907   */\n      pop\n        /* \"#utility.yul\":585:914   */\n      swap3\n      swap2\n      pop\n      pop\n      jump\t// out\n        /* \"#utility.yul\":920:1249   */\n    tag_34:\n        /* \"#utility.yul\":979:985   */\n      0x00\n        /* \"#utility.yul\":1028:1030   */\n      0x20\n        /* \"#utility.yul\":1016:1025   */\n      dup3\n        /* \"#utility.yul\":1007:1014   */\n      dup5\n        /* \"#utility.yul\":1003:1026   */\n      sub\n        /* \"#utility.yul\":999:1031   */\n      slt\n        /* \"#utility.yul\":996:1115   */\n      iszero\n      tag_211\n      jumpi\n        /* \"#utility.yul\":1034:1113   */\n      tag_212\n      tag_208\n      jump\t// in\n    tag_212:\n        /* \"#utility.yul\":996:1115   */\n    tag_211:\n        /* \"#utility.yul\":1154:1155   */\n      0x00\n        /* \"#utility.yul\":1179:1232   */\n      tag_213\n        /* \"#utility.yul\":1224:1231   */\n      dup5\n        /* \"#utility.yul\":1215:1221   */\n      dup3\n        /* \"#utility.yul\":1204:1213   */\n      dup6\n        /* \"#utility.yul\":1200:1222   */\n      add\n        /* \"#utility.yul\":1179:1232   */\n      tag_193\n      jump\t// in\n    tag_213:\n        /* \"#utility.yul\":1169:1232   */\n      swap2\n      pop\n        /* \"#utility.yul\":1125:1242   */\n      pop\n        /* \"#utility.yul\":920:1249   */\n      swap3\n      swap2\n      pop\n      pop\n      jump\t// out\n        /* \"#utility.yul\":1255:1729   */\n    tag_40:\n        /* \"#utility.yul\":1323:1329   */\n      0x00\n        /* \"#utility.yul\":1331:1337   */\n      dup1\n        /* \"#utility.yul\":1380:1382   */\n      0x40\n        /* \"#utility.yul\":1368:1377   */\n      dup4\n        /* \"#utility.yul\":1359:1366   */\n      dup6\n        /* \"#utility.yul\":1355:1378   */\n      sub\n        /* \"#utility.yul\":1351:1383   */\n      slt\n        /* \"#utility.yul\":1348:1467   */\n      iszero\n      tag_215\n      jumpi\n        /* \"#utility.yul\":1386:1465   */\n      tag_216\n      tag_208\n      jump\t// in\n    tag_216:\n        /* \"#utility.yul\":1348:1467   */\n    tag_215:\n        /* \"#utility.yul\":1506:1507   */\n      0x00\n        /* \"#utility.yul\":1531:1584   */\n      tag_217\n        /* \"#utility.yul\":1576:1583   */\n      dup6\n        /* \"#utility.yul\":1567:1573   */\n      dup3\n        /* \"#utility.yul\":1556:1565   */\n      dup7\n        /* \"#utility.yul\":1552:1574   */\n      add\n        /* \"#utility.yul\":1531:1584   */\n      tag_193\n      jump\t// in\n    tag_217:\n        /* \"#utility.yul\":1521:1584   */\n      swap3\n      pop\n        /* \"#utility.yul\":1477:1594   */\n      pop\n        /* \"#utility.yul\":1633:1635   */\n      0x20\n        /* \"#utility.yul\":1659:1712   */\n      tag_218\n        /* \"#utility.yul\":1704:1711   */\n      dup6\n        /* \"#utility.yul\":1695:1701   */\n      dup3\n        /* \"#utility.yul\":1684:1693   */\n      dup7\n        /* \"#utility.yul\":1680:1702   */\n      add\n        /* \"#utility.yul\":1659:1712   */\n      tag_189\n      jump\t// in\n    tag_218:\n        /* \"#utility.yul\":1649:1712   */\n      swap2\n      pop\n        /* \"#utility.yul\":1604:1722   */\n      pop\n        /* \"#utility.yul\":1255:1729   */\n      swap3\n      pop\n      swap3\n      swap1\n      pop\n      jump\t// out\n        /* \"#utility.yul\":1735:2062   */\n    tag_24:\n        /* \"#utility.yul\":1793:1799   */\n      0x00\n        /* \"#utility.yul\":1842:1844   */\n      0x20\n        /* \"#utility.yul\":1830:1839   */\n      dup3\n        /* \"#utility.yul\":1821:1828   */\n      dup5\n        /* \"#utility.yul\":1817:1840   */\n      sub\n        /* \"#utility.yul\":1813:1845   */\n      slt\n        /* \"#utility.yul\":1810:1929   */\n      iszero\n      tag_220\n      jumpi\n        /* \"#utility.yul\":1848:1927   */\n      tag_221\n      tag_208\n      jump\t// in\n    tag_221:\n        /* \"#utility.yul\":1810:1929   */\n    tag_220:\n        /* \"#utility.yul\":1968:1969   */\n      0x00\n        /* \"#utility.yul\":1993:2045   */\n      tag_222\n        /* \"#utility.yul\":2037:2044   */\n      dup5\n        /* \"#utility.yul\":2028:2034   */\n      dup3\n        /* \"#utility.yul\":2017:2026   */\n      dup6\n        /* \"#utility.yul\":2013:2035   */\n      add\n        /* \"#utility.yul\":1993:2045   */\n      tag_197\n      jump\t// in\n    tag_222:\n        /* \"#utility.yul\":1983:2045   */\n      swap2\n      pop\n        /* \"#utility.yul\":1939:2055   */\n      pop\n        /* \"#utility.yul\":1735:2062   */\n      swap3\n      swap2\n      pop\n      pop\n      jump\t// out\n        /* \"#utility.yul\":2068:2397   */\n    tag_56:\n        /* \"#utility.yul\":2127:2133   */\n      0x00\n        /* \"#utility.yul\":2176:2178   */\n      0x20\n        /* \"#utility.yul\":2164:2173   */\n      dup3\n        /* \"#utility.yul\":2155:2162   */\n      dup5\n        /* \"#utility.yul\":2151:2174   */\n      sub\n        /* \"#utility.yul\":2147:2179   */\n      slt\n        /* \"#utility.yul\":2144:2263   */\n      iszero\n      tag_224\n      jumpi\n        /* \"#utility.yul\":2182:2261   */\n      tag_225\n      tag_208\n      jump\t// in\n    tag_225:\n        /* \"#utility.yul\":2144:2263   */\n    tag_224:\n        /* \"#utility.yul\":2302:2303   */\n      0x00\n        /* \"#utility.yul\":2327:2380   */\n      tag_226\n        /* \"#utility.yul\":2372:2379   */\n      dup5\n        /* \"#utility.yul\":2363:2369   */\n      dup3\n        /* \"#utility.yul\":2352:2361   */\n      dup6\n        /* \"#utility.yul\":2348:2370   */\n      add\n        /* \"#utility.yul\":2327:2380   */\n      tag_201\n      jump\t// in\n    tag_226:\n        /* \"#utility.yul\":2317:2380   */\n      swap2\n      pop\n        /* \"#utility.yul\":2273:2390   */\n      pop\n        /* \"#utility.yul\":2068:2397   */\n      swap3\n      swap2\n      pop\n      pop\n      jump\t// out\n        /* \"#utility.yul\":2403:2521   */\n    tag_227:\n        /* \"#utility.yul\":2490:2514   */\n      tag_229\n        /* \"#utility.yul\":2508:2513   */\n      dup2\n        /* \"#utility.yul\":2490:2514   */\n      tag_230\n      jump\t// in\n    tag_229:\n        /* \"#utility.yul\":2485:2488   */\n      dup3\n        /* \"#utility.yul\":2478:2515   */\n      mstore\n        /* \"#utility.yul\":2403:2521   */\n      pop\n      pop\n      jump\t// out\n        /* \"#utility.yul\":2527:2636   */\n    tag_231:\n        /* \"#utility.yul\":2608:2629   */\n      tag_233\n        /* \"#utility.yul\":2623:2628   */\n      dup2\n        /* \"#utility.yul\":2608:2629   */\n      tag_234\n      jump\t// in\n    tag_233:\n        /* \"#utility.yul\":2603:2606   */\n      dup3\n        /* \"#utility.yul\":2596:2630   */\n      mstore\n        /* \"#utility.yul\":2527:2636   */\n      pop\n      pop\n      jump\t// out\n        /* \"#utility.yul\":2642:2760   */\n    tag_235:\n        /* \"#utility.yul\":2729:2753   */\n      tag_237\n        /* \"#utility.yul\":2747:2752   */\n      dup2\n        /* \"#utility.yul\":2729:2753   */\n      tag_238\n      jump\t// in\n    tag_237:\n        /* \"#utility.yul\":2724:2727   */\n      dup3\n        /* \"#utility.yul\":2717:2754   */\n      mstore\n        /* \"#utility.yul\":2642:2760   */\n      pop\n      pop\n      jump\t// out\n        /* \"#utility.yul\":2766:2923   */\n    tag_239:\n        /* \"#utility.yul\":2866:2916   */\n      tag_241\n        /* \"#utility.yul\":2910:2915   */\n      dup2\n        /* \"#utility.yul\":2866:2916   */\n      tag_242\n      jump\t// in\n    tag_241:\n        /* \"#utility.yul\":2861:2864   */\n      dup3\n        /* \"#utility.yul\":2854:2917   */\n      mstore\n        /* \"#utility.yul\":2766:2923   */\n      pop\n      pop\n      jump\t// out\n        /* \"#utility.yul\":2929:3293   */\n    tag_243:\n        /* \"#utility.yul\":3017:3020   */\n      0x00\n        /* \"#utility.yul\":3045:3084   */\n      tag_245\n        /* \"#utility.yul\":3078:3083   */\n      dup3\n        /* \"#utility.yul\":3045:3084   */\n      tag_246\n      jump\t// in\n    tag_245:\n        /* \"#utility.yul\":3100:3171   */\n      tag_247\n        /* \"#utility.yul\":3164:3170   */\n      dup2\n        /* \"#utility.yul\":3159:3162   */\n      dup6\n        /* \"#utility.yul\":3100:3171   */\n      tag_248\n      jump\t// in\n    tag_247:\n        /* \"#utility.yul\":3093:3171   */\n      swap4\n      pop\n        /* \"#utility.yul\":3180:3232   */\n      tag_249\n        /* \"#utility.yul\":3225:3231   */\n      dup2\n        /* \"#utility.yul\":3220:3223   */\n      dup6\n        /* \"#utility.yul\":3213:3217   */\n      0x20\n        /* \"#utility.yul\":3206:3211   */\n      dup7\n        /* \"#utility.yul\":3202:3218   */\n      add\n        /* \"#utility.yul\":3180:3232   */\n      tag_250\n      jump\t// in\n    tag_249:\n        /* \"#utility.yul\":3257:3286   */\n      tag_251\n        /* \"#utility.yul\":3279:3285   */\n      dup2\n        /* \"#utility.yul\":3257:3286   */\n      tag_252\n      jump\t// in\n    tag_251:\n        /* \"#utility.yul\":3252:3255   */\n      dup5\n        /* \"#utility.yul\":3248:3287   */\n      add\n        /* \"#utility.yul\":3241:3287   */\n      swap2\n      pop\n        /* \"#utility.yul\":3021:3293   */\n      pop\n        /* \"#utility.yul\":2929:3293   */\n      swap3\n      swap2\n      pop\n      pop\n      jump\t// out\n        /* \"#utility.yul\":3299:3676   */\n    tag_253:\n        /* \"#utility.yul\":3405:3408   */\n      0x00\n        /* \"#utility.yul\":3433:3472   */\n      tag_255\n        /* \"#utility.yul\":3466:3471   */\n      dup3\n        /* \"#utility.yul\":3433:3472   */\n      tag_246\n      jump\t// in\n    tag_255:\n        /* \"#utility.yul\":3488:3577   */\n      tag_256\n        /* \"#utility.yul\":3570:3576   */\n      dup2\n        /* \"#utility.yul\":3565:3568   */\n      dup6\n        /* \"#utility.yul\":3488:3577   */\n      tag_257\n      jump\t// in\n    tag_256:\n        /* \"#utility.yul\":3481:3577   */\n      swap4\n      pop\n        /* \"#utility.yul\":3586:3638   */\n      tag_258\n        /* \"#utility.yul\":3631:3637   */\n      dup2\n        /* \"#utility.yul\":3626:3629   */\n      dup6\n        /* \"#utility.yul\":3619:3623   */\n      0x20\n        /* \"#utility.yul\":3612:3617   */\n      dup7\n        /* \"#utility.yul\":3608:3624   */\n      add\n        /* \"#utility.yul\":3586:3638   */\n      tag_250\n      jump\t// in\n    tag_258:\n        /* \"#utility.yul\":3663:3669   */\n      dup1\n        /* \"#utility.yul\":3658:3661   */\n      dup5\n        /* \"#utility.yul\":3654:3670   */\n      add\n        /* \"#utility.yul\":3647:3670   */\n      swap2\n      pop\n        /* \"#utility.yul\":3409:3676   */\n      pop\n        /* \"#utility.yul\":3299:3676   */\n      swap3\n      swap2\n      pop\n      pop\n      jump\t// out\n        /* \"#utility.yul\":3682:4048   */\n    tag_259:\n        /* \"#utility.yul\":3824:3827   */\n      0x00\n        /* \"#utility.yul\":3845:3912   */\n      tag_261\n        /* \"#utility.yul\":3909:3911   */\n      0x20\n        /* \"#utility.yul\":3904:3907   */\n      dup4\n        /* \"#utility.yul\":3845:3912   */\n      tag_248\n      jump\t// in\n    tag_261:\n        /* \"#utility.yul\":3838:3912   */\n      swap2\n      pop\n        /* \"#utility.yul\":3921:4014   */\n      tag_262\n        /* \"#utility.yul\":4010:4013   */\n      dup3\n        /* \"#utility.yul\":3921:4014   */\n      tag_263\n      jump\t// in\n    tag_262:\n        /* \"#utility.yul\":4039:4041   */\n      0x20\n        /* \"#utility.yul\":4034:4037   */\n      dup3\n        /* \"#utility.yul\":4030:4042   */\n      add\n        /* \"#utility.yul\":4023:4042   */\n      swap1\n      pop\n        /* \"#utility.yul\":3682:4048   */\n      swap2\n      swap1\n      pop\n      jump\t// out\n        /* \"#utility.yul\":4054:4420   */\n    tag_264:\n        /* \"#utility.yul\":4196:4199   */\n      0x00\n        /* \"#utility.yul\":4217:4284   */\n      tag_266\n        /* \"#utility.yul\":4281:4283   */\n      0x26\n        /* \"#utility.yul\":4276:4279   */\n      dup4\n        /* \"#utility.yul\":4217:4284   */\n      tag_248\n      jump\t// in\n    tag_266:\n        /* \"#utility.yul\":4210:4284   */\n      swap2\n      pop\n        /* \"#utility.yul\":4293:4386   */\n      tag_267\n        /* \"#utility.yul\":4382:4385   */\n      dup3\n        /* \"#utility.yul\":4293:4386   */\n      tag_268\n      jump\t// in\n    tag_267:\n        /* \"#utility.yul\":4411:4413   */\n      0x40\n        /* \"#utility.yul\":4406:4409   */\n      dup3\n        /* \"#utility.yul\":4402:4414   */\n      add\n        /* \"#utility.yul\":4395:4414   */\n      swap1\n      pop\n        /* \"#utility.yul\":4054:4420   */\n      swap2\n      swap1\n      pop\n      jump\t// out\n        /* \"#utility.yul\":4426:4792   */\n    tag_269:\n        /* \"#utility.yul\":4568:4571   */\n      0x00\n        /* \"#utility.yul\":4589:4656   */\n      tag_271\n        /* \"#utility.yul\":4653:4655   */\n      0x20\n        /* \"#utility.yul\":4648:4651   */\n      dup4\n        /* \"#utility.yul\":4589:4656   */\n      tag_248\n      jump\t// in\n    tag_271:\n        /* \"#utility.yul\":4582:4656   */\n      swap2\n      pop\n        /* \"#utility.yul\":4665:4758   */\n      tag_272\n        /* \"#utility.yul\":4754:4757   */\n      dup3\n        /* \"#utility.yul\":4665:4758   */\n      tag_273\n      jump\t// in\n    tag_272:\n        /* \"#utility.yul\":4783:4785   */\n      0x20\n        /* \"#utility.yul\":4778:4781   */\n      dup3\n        /* \"#utility.yul\":4774:4786   */\n      add\n        /* \"#utility.yul\":4767:4786   */\n      swap1\n      pop\n        /* \"#utility.yul\":4426:4792   */\n      swap2\n      swap1\n      pop\n      jump\t// out\n        /* \"#utility.yul\":4798:5200   */\n    tag_274:\n        /* \"#utility.yul\":4958:4961   */\n      0x00\n        /* \"#utility.yul\":4979:5064   */\n      tag_276\n        /* \"#utility.yul\":5061:5063   */\n      0x17\n        /* \"#utility.yul\":5056:5059   */\n      dup4\n        /* \"#utility.yul\":4979:5064   */\n      tag_257\n      jump\t// in\n    tag_276:\n        /* \"#utility.yul\":4972:5064   */\n      swap2\n      pop\n        /* \"#utility.yul\":5073:5166   */\n      tag_277\n        /* \"#utility.yul\":5162:5165   */\n      dup3\n        /* \"#utility.yul\":5073:5166   */\n      tag_278\n      jump\t// in\n    tag_277:\n        /* \"#utility.yul\":5191:5193   */\n      0x17\n        /* \"#utility.yul\":5186:5189   */\n      dup3\n        /* \"#utility.yul\":5182:5194   */\n      add\n        /* \"#utility.yul\":5175:5194   */\n      swap1\n      pop\n        /* \"#utility.yul\":4798:5200   */\n      swap2\n      swap1\n      pop\n      jump\t// out\n        /* \"#utility.yul\":5206:5608   */\n    tag_279:\n        /* \"#utility.yul\":5366:5369   */\n      0x00\n        /* \"#utility.yul\":5387:5472   */\n      tag_281\n        /* \"#utility.yul\":5469:5471   */\n      0x11\n        /* \"#utility.yul\":5464:5467   */\n      dup4\n        /* \"#utility.yul\":5387:5472   */\n      tag_257\n      jump\t// in\n    tag_281:\n        /* \"#utility.yul\":5380:5472   */\n      swap2\n      pop\n        /* \"#utility.yul\":5481:5574   */\n      tag_282\n        /* \"#utility.yul\":5570:5573   */\n      dup3\n        /* \"#utility.yul\":5481:5574   */\n      tag_283\n      jump\t// in\n    tag_282:\n        /* \"#utility.yul\":5599:5601   */\n      0x11\n        /* \"#utility.yul\":5594:5597   */\n      dup3\n        /* \"#utility.yul\":5590:5602   */\n      add\n        /* \"#utility.yul\":5583:5602   */\n      swap1\n      pop\n        /* \"#utility.yul\":5206:5608   */\n      swap2\n      swap1\n      pop\n      jump\t// out\n        /* \"#utility.yul\":5614:5980   */\n    tag_284:\n        /* \"#utility.yul\":5756:5759   */\n      0x00\n        /* \"#utility.yul\":5777:5844   */\n      tag_286\n        /* \"#utility.yul\":5841:5843   */\n      0x2f\n        /* \"#utility.yul\":5836:5839   */\n      dup4\n        /* \"#utility.yul\":5777:5844   */\n      tag_248\n      jump\t// in\n    tag_286:\n        /* \"#utility.yul\":5770:5844   */\n      swap2\n      pop\n        /* \"#utility.yul\":5853:5946   */\n      tag_287\n        /* \"#utility.yul\":5942:5945   */\n      dup3\n        /* \"#utility.yul\":5853:5946   */\n      tag_288\n      jump\t// in\n    tag_287:\n        /* \"#utility.yul\":5971:5973   */\n      0x40\n        /* \"#utility.yul\":5966:5969   */\n      dup3\n        /* \"#utility.yul\":5962:5974   */\n      add\n        /* \"#utility.yul\":5955:5974   */\n      swap1\n      pop\n        /* \"#utility.yul\":5614:5980   */\n      swap2\n      swap1\n      pop\n      jump\t// out\n        /* \"#utility.yul\":5986:6104   */\n    tag_289:\n        /* \"#utility.yul\":6073:6097   */\n      tag_291\n        /* \"#utility.yul\":6091:6096   */\n      dup2\n        /* \"#utility.yul\":6073:6097   */\n      tag_292\n      jump\t// in\n    tag_291:\n        /* \"#utility.yul\":6068:6071   */\n      dup3\n        /* \"#utility.yul\":6061:6098   */\n      mstore\n        /* \"#utility.yul\":5986:6104   */\n      pop\n      pop\n      jump\t// out\n        /* \"#utility.yul\":6110:7077   */\n    tag_157:\n        /* \"#utility.yul\":6492:6495   */\n      0x00\n        /* \"#utility.yul\":6514:6662   */\n      tag_294\n        /* \"#utility.yul\":6658:6661   */\n      dup3\n        /* \"#utility.yul\":6514:6662   */\n      tag_274\n      jump\t// in\n    tag_294:\n        /* \"#utility.yul\":6507:6662   */\n      swap2\n      pop\n        /* \"#utility.yul\":6679:6774   */\n      tag_295\n        /* \"#utility.yul\":6770:6773   */\n      dup3\n        /* \"#utility.yul\":6761:6767   */\n      dup6\n        /* \"#utility.yul\":6679:6774   */\n      tag_253\n      jump\t// in\n    tag_295:\n        /* \"#utility.yul\":6672:6774   */\n      swap2\n      pop\n        /* \"#utility.yul\":6791:6939   */\n      tag_296\n        /* \"#utility.yul\":6935:6938   */\n      dup3\n        /* \"#utility.yul\":6791:6939   */\n      tag_279\n      jump\t// in\n    tag_296:\n        /* \"#utility.yul\":6784:6939   */\n      swap2\n      pop\n        /* \"#utility.yul\":6956:7051   */\n      tag_297\n        /* \"#utility.yul\":7047:7050   */\n      dup3\n        /* \"#utility.yul\":7038:7044   */\n      dup5\n        /* \"#utility.yul\":6956:7051   */\n      tag_253\n      jump\t// in\n    tag_297:\n        /* \"#utility.yul\":6949:7051   */\n      swap2\n      pop\n        /* \"#utility.yul\":7068:7071   */\n      dup2\n        /* \"#utility.yul\":7061:7071   */\n      swap1\n      pop\n        /* \"#utility.yul\":6110:7077   */\n      swap4\n      swap3\n      pop\n      pop\n      pop\n      jump\t// out\n        /* \"#utility.yul\":7083:7305   */\n    tag_64:\n        /* \"#utility.yul\":7176:7180   */\n      0x00\n        /* \"#utility.yul\":7214:7216   */\n      0x20\n        /* \"#utility.yul\":7203:7212   */\n      dup3\n        /* \"#utility.yul\":7199:7217   */\n      add\n        /* \"#utility.yul\":7191:7217   */\n      swap1\n      pop\n        /* \"#utility.yul\":7227:7298   */\n      tag_299\n        /* \"#utility.yul\":7295:7296   */\n      0x00\n        /* \"#utility.yul\":7284:7293   */\n      dup4\n        /* \"#utility.yul\":7280:7297   */\n      add\n        /* \"#utility.yul\":7271:7277   */\n      dup5\n        /* \"#utility.yul\":7227:7298   */\n      tag_227\n      jump\t// in\n    tag_299:\n        /* \"#utility.yul\":7083:7305   */\n      swap3\n      swap2\n      pop\n      pop\n      jump\t// out\n        /* \"#utility.yul\":7311:7521   */\n    tag_27:\n        /* \"#utility.yul\":7398:7402   */\n      0x00\n        /* \"#utility.yul\":7436:7438   */\n      0x20\n        /* \"#utility.yul\":7425:7434   */\n      dup3\n        /* \"#utility.yul\":7421:7439   */\n      add\n        /* \"#utility.yul\":7413:7439   */\n      swap1\n      pop\n        /* \"#utility.yul\":7449:7514   */\n      tag_301\n        /* \"#utility.yul\":7511:7512   */\n      0x00\n        /* \"#utility.yul\":7500:7509   */\n      dup4\n        /* \"#utility.yul\":7496:7513   */\n      add\n        /* \"#utility.yul\":7487:7493   */\n      dup5\n        /* \"#utility.yul\":7449:7514   */\n      tag_231\n      jump\t// in\n    tag_301:\n        /* \"#utility.yul\":7311:7521   */\n      swap3\n      swap2\n      pop\n      pop\n      jump\t// out\n        /* \"#utility.yul\":7527:7749   */\n    tag_37:\n        /* \"#utility.yul\":7620:7624   */\n      0x00\n        /* \"#utility.yul\":7658:7660   */\n      0x20\n        /* \"#utility.yul\":7647:7656   */\n      dup3\n        /* \"#utility.yul\":7643:7661   */\n      add\n        /* \"#utility.yul\":7635:7661   */\n      swap1\n      pop\n        /* \"#utility.yul\":7671:7742   */\n      tag_303\n        /* \"#utility.yul\":7739:7740   */\n      0x00\n        /* \"#utility.yul\":7728:7737   */\n      dup4\n        /* \"#utility.yul\":7724:7741   */\n      add\n        /* \"#utility.yul\":7715:7721   */\n      dup5\n        /* \"#utility.yul\":7671:7742   */\n      tag_235\n      jump\t// in\n    tag_303:\n        /* \"#utility.yul\":7527:7749   */\n      swap3\n      swap2\n      pop\n      pop\n      jump\t// out\n        /* \"#utility.yul\":7755:8003   */\n    tag_31:\n        /* \"#utility.yul\":7861:7865   */\n      0x00\n        /* \"#utility.yul\":7899:7901   */\n      0x20\n        /* \"#utility.yul\":7888:7897   */\n      dup3\n        /* \"#utility.yul\":7884:7902   */\n      add\n        /* \"#utility.yul\":7876:7902   */\n      swap1\n      pop\n        /* \"#utility.yul\":7912:7996   */\n      tag_305\n        /* \"#utility.yul\":7993:7994   */\n      0x00\n        /* \"#utility.yul\":7982:7991   */\n      dup4\n        /* \"#utility.yul\":7978:7995   */\n      add\n        /* \"#utility.yul\":7969:7975   */\n      dup5\n        /* \"#utility.yul\":7912:7996   */\n      tag_239\n      jump\t// in\n    tag_305:\n        /* \"#utility.yul\":7755:8003   */\n      swap3\n      swap2\n      pop\n      pop\n      jump\t// out\n        /* \"#utility.yul\":8009:8322   */\n    tag_159:\n        /* \"#utility.yul\":8122:8126   */\n      0x00\n        /* \"#utility.yul\":8160:8162   */\n      0x20\n        /* \"#utility.yul\":8149:8158   */\n      dup3\n        /* \"#utility.yul\":8145:8163   */\n      add\n        /* \"#utility.yul\":8137:8163   */\n      swap1\n      pop\n        /* \"#utility.yul\":8209:8218   */\n      dup2\n        /* \"#utility.yul\":8203:8207   */\n      dup2\n        /* \"#utility.yul\":8199:8219   */\n      sub\n        /* \"#utility.yul\":8195:8196   */\n      0x00\n        /* \"#utility.yul\":8184:8193   */\n      dup4\n        /* \"#utility.yul\":8180:8197   */\n      add\n        /* \"#utility.yul\":8173:8220   */\n      mstore\n        /* \"#utility.yul\":8237:8315   */\n      tag_307\n        /* \"#utility.yul\":8310:8314   */\n      dup2\n        /* \"#utility.yul\":8301:8307   */\n      dup5\n        /* \"#utility.yul\":8237:8315   */\n      tag_243\n      jump\t// in\n    tag_307:\n        /* \"#utility.yul\":8229:8315   */\n      swap1\n      pop\n        /* \"#utility.yul\":8009:8322   */\n      swap3\n      swap2\n      pop\n      pop\n      jump\t// out\n        /* \"#utility.yul\":8328:8747   */\n    tag_187:\n        /* \"#utility.yul\":8494:8498   */\n      0x00\n        /* \"#utility.yul\":8532:8534   */\n      0x20\n        /* \"#utility.yul\":8521:8530   */\n      dup3\n        /* \"#utility.yul\":8517:8535   */\n      add\n        /* \"#utility.yul\":8509:8535   */\n      swap1\n      pop\n        /* \"#utility.yul\":8581:8590   */\n      dup2\n        /* \"#utility.yul\":8575:8579   */\n      dup2\n        /* \"#utility.yul\":8571:8591   */\n      sub\n        /* \"#utility.yul\":8567:8568   */\n      0x00\n        /* \"#utility.yul\":8556:8565   */\n      dup4\n        /* \"#utility.yul\":8552:8569   */\n      add\n        /* \"#utility.yul\":8545:8592   */\n      mstore\n        /* \"#utility.yul\":8609:8740   */\n      tag_309\n        /* \"#utility.yul\":8735:8739   */\n      dup2\n        /* \"#utility.yul\":8609:8740   */\n      tag_259\n      jump\t// in\n    tag_309:\n        /* \"#utility.yul\":8601:8740   */\n      swap1\n      pop\n        /* \"#utility.yul\":8328:8747   */\n      swap2\n      swap1\n      pop\n      jump\t// out\n        /* \"#utility.yul\":8753:9172   */\n    tag_133:\n        /* \"#utility.yul\":8919:8923   */\n      0x00\n        /* \"#utility.yul\":8957:8959   */\n      0x20\n        /* \"#utility.yul\":8946:8955   */\n      dup3\n        /* \"#utility.yul\":8942:8960   */\n      add\n        /* \"#utility.yul\":8934:8960   */\n      swap1\n      pop\n        /* \"#utility.yul\":9006:9015   */\n      dup2\n        /* \"#utility.yul\":9000:9004   */\n      dup2\n        /* \"#utility.yul\":8996:9016   */\n      sub\n        /* \"#utility.yul\":8992:8993   */\n      0x00\n        /* \"#utility.yul\":8981:8990   */\n      dup4\n        /* \"#utility.yul\":8977:8994   */\n      add\n        /* \"#utility.yul\":8970:9017   */\n      mstore\n        /* \"#utility.yul\":9034:9165   */\n      tag_311\n        /* \"#utility.yul\":9160:9164   */\n      dup2\n        /* \"#utility.yul\":9034:9165   */\n      tag_264\n      jump\t// in\n    tag_311:\n        /* \"#utility.yul\":9026:9165   */\n      swap1\n      pop\n        /* \"#utility.yul\":8753:9172   */\n      swap2\n      swap1\n      pop\n      jump\t// out\n        /* \"#utility.yul\":9178:9597   */\n    tag_108:\n        /* \"#utility.yul\":9344:9348   */\n      0x00\n        /* \"#utility.yul\":9382:9384   */\n      0x20\n        /* \"#utility.yul\":9371:9380   */\n      dup3\n        /* \"#utility.yul\":9367:9385   */\n      add\n        /* \"#utility.yul\":9359:9385   */\n      swap1\n      pop\n        /* \"#utility.yul\":9431:9440   */\n      dup2\n        /* \"#utility.yul\":9425:9429   */\n      dup2\n        /* \"#utility.yul\":9421:9441   */\n      sub\n        /* \"#utility.yul\":9417:9418   */\n      0x00\n        /* \"#utility.yul\":9406:9415   */\n      dup4\n        /* \"#utility.yul\":9402:9419   */\n      add\n        /* \"#utility.yul\":9395:9442   */\n      mstore\n        /* \"#utility.yul\":9459:9590   */\n      tag_313\n        /* \"#utility.yul\":9585:9589   */\n      dup2\n        /* \"#utility.yul\":9459:9590   */\n      tag_269\n      jump\t// in\n    tag_313:\n        /* \"#utility.yul\":9451:9590   */\n      swap1\n      pop\n        /* \"#utility.yul\":9178:9597   */\n      swap2\n      swap1\n      pop\n      jump\t// out\n        /* \"#utility.yul\":9603:10022   */\n    tag_99:\n        /* \"#utility.yul\":9769:9773   */\n      0x00\n        /* \"#utility.yul\":9807:9809   */\n      0x20\n        /* \"#utility.yul\":9796:9805   */\n      dup3\n        /* \"#utility.yul\":9792:9810   */\n      add\n        /* \"#utility.yul\":9784:9810   */\n      swap1\n      pop\n        /* \"#utility.yul\":9856:9865   */\n      dup2\n        /* \"#utility.yul\":9850:9854   */\n      dup2\n        /* \"#utility.yul\":9846:9866   */\n      sub\n        /* \"#utility.yul\":9842:9843   */\n      0x00\n        /* \"#utility.yul\":9831:9840   */\n      dup4\n        /* \"#utility.yul\":9827:9844   */\n      add\n        /* \"#utility.yul\":9820:9867   */\n      mstore\n        /* \"#utility.yul\":9884:10015   */\n      tag_315\n        /* \"#utility.yul\":10010:10014   */\n      dup2\n        /* \"#utility.yul\":9884:10015   */\n      tag_284\n      jump\t// in\n    tag_315:\n        /* \"#utility.yul\":9876:10015   */\n      swap1\n      pop\n        /* \"#utility.yul\":9603:10022   */\n      swap2\n      swap1\n      pop\n      jump\t// out\n        /* \"#utility.yul\":10028:10250   */\n    tag_51:\n        /* \"#utility.yul\":10121:10125   */\n      0x00\n        /* \"#utility.yul\":10159:10161   */\n      0x20\n        /* \"#utility.yul\":10148:10157   */\n      dup3\n        /* \"#utility.yul\":10144:10162   */\n      add\n        /* \"#utility.yul\":10136:10162   */\n      swap1\n      pop\n        /* \"#utility.yul\":10172:10243   */\n      tag_317\n        /* \"#utility.yul\":10240:10241   */\n      0x00\n        /* \"#utility.yul\":10229:10238   */\n      dup4\n        /* \"#utility.yul\":10225:10242   */\n      add\n        /* \"#utility.yul\":10216:10222   */\n      dup5\n        /* \"#utility.yul\":10172:10243   */\n      tag_289\n      jump\t// in\n    tag_317:\n        /* \"#utility.yul\":10028:10250   */\n      swap3\n      swap2\n      pop\n      pop\n      jump\t// out\n        /* \"#utility.yul\":10337:10436   */\n    tag_246:\n        /* \"#utility.yul\":10389:10395   */\n      0x00\n        /* \"#utility.yul\":10423:10428   */\n      dup2\n        /* \"#utility.yul\":10417:10429   */\n      mload\n        /* \"#utility.yul\":10407:10429   */\n      swap1\n      pop\n        /* \"#utility.yul\":10337:10436   */\n      swap2\n      swap1\n      pop\n      jump\t// out\n        /* \"#utility.yul\":10442:10611   */\n    tag_248:\n        /* \"#utility.yul\":10526:10537   */\n      0x00\n        /* \"#utility.yul\":10560:10566   */\n      dup3\n        /* \"#utility.yul\":10555:10558   */\n      dup3\n        /* \"#utility.yul\":10548:10567   */\n      mstore\n        /* \"#utility.yul\":10600:10604   */\n      0x20\n        /* \"#utility.yul\":10595:10598   */\n      dup3\n        /* \"#utility.yul\":10591:10605   */\n      add\n        /* \"#utility.yul\":10576:10605   */\n      swap1\n      pop\n        /* \"#utility.yul\":10442:10611   */\n      swap3\n      swap2\n      pop\n      pop\n      jump\t// out\n        /* \"#utility.yul\":10617:10765   */\n    tag_257:\n        /* \"#utility.yul\":10719:10730   */\n      0x00\n        /* \"#utility.yul\":10756:10759   */\n      dup2\n        /* \"#utility.yul\":10741:10759   */\n      swap1\n      pop\n        /* \"#utility.yul\":10617:10765   */\n      swap3\n      swap2\n      pop\n      pop\n      jump\t// out\n        /* \"#utility.yul\":10771:11076   */\n    tag_164:\n        /* \"#utility.yul\":10811:10814   */\n      0x00\n        /* \"#utility.yul\":10830:10850   */\n      tag_324\n        /* \"#utility.yul\":10848:10849   */\n      dup3\n        /* \"#utility.yul\":10830:10850   */\n      tag_292\n      jump\t// in\n    tag_324:\n        /* \"#utility.yul\":10825:10850   */\n      swap2\n      pop\n        /* \"#utility.yul\":10864:10884   */\n      tag_325\n        /* \"#utility.yul\":10882:10883   */\n      dup4\n        /* \"#utility.yul\":10864:10884   */\n      tag_292\n      jump\t// in\n    tag_325:\n        /* \"#utility.yul\":10859:10884   */\n      swap3\n      pop\n        /* \"#utility.yul\":11018:11019   */\n      dup3\n        /* \"#utility.yul\":10950:11016   */\n      0xffffffffffffffffffffffffffffffffffffffffffffffffffffffffffffffff\n        /* \"#utility.yul\":10946:11020   */\n      sub\n        /* \"#utility.yul\":10943:10944   */\n      dup3\n        /* \"#utility.yul\":10940:11021   */\n      gt\n        /* \"#utility.yul\":10937:11044   */\n      iszero\n      tag_326\n      jumpi\n        /* \"#utility.yul\":11024:11042   */\n      tag_327\n      tag_328\n      jump\t// in\n    tag_327:\n        /* \"#utility.yul\":10937:11044   */\n    tag_326:\n        /* \"#utility.yul\":11068:11069   */\n      dup3\n        /* \"#utility.yul\":11065:11066   */\n      dup3\n        /* \"#utility.yul\":11061:11070   */\n      add\n        /* \"#utility.yul\":11054:11070   */\n      swap1\n      pop\n        /* \"#utility.yul\":10771:11076   */\n      swap3\n      swap2\n      pop\n      pop\n      jump\t// out\n        /* \"#utility.yul\":11082:11430   */\n    tag_162:\n        /* \"#utility.yul\":11122:11129   */\n      0x00\n        /* \"#utility.yul\":11145:11165   */\n      tag_330\n        /* \"#utility.yul\":11163:11164   */\n      dup3\n        /* \"#utility.yul\":11145:11165   */\n      tag_292\n      jump\t// in\n    tag_330:\n        /* \"#utility.yul\":11140:11165   */\n      swap2\n      pop\n        /* \"#utility.yul\":11179:11199   */\n      tag_331\n        /* \"#utility.yul\":11197:11198   */\n      dup4\n        /* \"#utility.yul\":11179:11199   */\n      tag_292\n      jump\t// in\n    tag_331:\n        /* \"#utility.yul\":11174:11199   */\n      swap3\n      pop\n        /* \"#utility.yul\":11367:11368   */\n      dup2\n        /* \"#utility.yul\":11299:11365   */\n      0xffffffffffffffffffffffffffffffffffffffffffffffffffffffffffffffff\n        /* \"#utility.yul\":11295:11369   */\n      div\n        /* \"#utility.yul\":11292:11293   */\n      dup4\n        /* \"#utility.yul\":11289:11370   */\n      gt\n        /* \"#utility.yul\":11284:11285   */\n      dup3\n        /* \"#utility.yul\":11277:11286   */\n      iszero\n        /* \"#utility.yul\":11270:11287   */\n      iszero\n        /* \"#utility.yul\":11266:11371   */\n      and\n        /* \"#utility.yul\":11263:11394   */\n      iszero\n      tag_332\n      jumpi\n        /* \"#utility.yul\":11374:11392   */\n      tag_333\n      tag_328\n      jump\t// in\n    tag_333:\n        /* \"#utility.yul\":11263:11394   */\n    tag_332:\n        /* \"#utility.yul\":11422:11423   */\n      dup3\n        /* \"#utility.yul\":11419:11420   */\n      dup3\n        /* \"#utility.yul\":11415:11424   */\n      mul\n        /* \"#utility.yul\":11404:11424   */\n      swap1\n      pop\n        /* \"#utility.yul\":11082:11430   */\n      swap3\n      swap2\n      pop\n      pop\n      jump\t// out\n        /* \"#utility.yul\":11436:11532   */\n    tag_230:\n        /* \"#utility.yul\":11473:11480   */\n      0x00\n        /* \"#utility.yul\":11502:11526   */\n      tag_335\n        /* \"#utility.yul\":11520:11525   */\n      dup3\n        /* \"#utility.yul\":11502:11526   */\n      tag_336\n      jump\t// in\n    tag_335:\n        /* \"#utility.yul\":11491:11526   */\n      swap1\n      pop\n        /* \"#utility.yul\":11436:11532   */\n      swap2\n      swap1\n      pop\n      jump\t// out\n        /* \"#utility.yul\":11538:11628   */\n    tag_234:\n        /* \"#utility.yul\":11572:11579   */\n      0x00\n        /* \"#utility.yul\":11615:11620   */\n      dup2\n        /* \"#utility.yul\":11608:11621   */\n      iszero\n        /* \"#utility.yul\":11601:11622   */\n      iszero\n        /* \"#utility.yul\":11590:11622   */\n      swap1\n      pop\n        /* \"#utility.yul\":11538:11628   */\n      swap2\n      swap1\n      pop\n      jump\t// out\n        /* \"#utility.yul\":11634:11711   */\n    tag_238:\n        /* \"#utility.yul\":11671:11678   */\n      0x00\n        /* \"#utility.yul\":11700:11705   */\n      dup2\n        /* \"#utility.yul\":11689:11705   */\n      swap1\n      pop\n        /* \"#utility.yul\":11634:11711   */\n      swap2\n      swap1\n      pop\n      jump\t// out\n        /* \"#utility.yul\":11717:11866   */\n    tag_339:\n        /* \"#utility.yul\":11753:11760   */\n      0x00\n        /* \"#utility.yul\":11793:11859   */\n      0xffffffff00000000000000000000000000000000000000000000000000000000\n        /* \"#utility.yul\":11786:11791   */\n      dup3\n        /* \"#utility.yul\":11782:11860   */\n      and\n        /* \"#utility.yul\":11771:11860   */\n      swap1\n      pop\n        /* \"#utility.yul\":11717:11866   */\n      swap2\n      swap1\n      pop\n      jump\t// out\n        /* \"#utility.yul\":11872:11998   */\n    tag_336:\n        /* \"#utility.yul\":11909:11916   */\n      0x00\n        /* \"#utility.yul\":11949:11991   */\n      0xffffffffffffffffffffffffffffffffffffffff\n        /* \"#utility.yul\":11942:11947   */\n      dup3\n        /* \"#utility.yul\":11938:11992   */\n      and\n        /* \"#utility.yul\":11927:11992   */\n      swap1\n      pop\n        /* \"#utility.yul\":11872:11998   */\n      swap2\n      swap1\n      pop\n      jump\t// out\n        /* \"#utility.yul\":12004:12081   */\n    tag_292:\n        /* \"#utility.yul\":12041:12048   */\n      0x00\n        /* \"#utility.yul\":12070:12075   */\n      dup2\n        /* \"#utility.yul\":12059:12075   */\n      swap1\n      pop\n        /* \"#utility.yul\":12004:12081   */\n      swap2\n      swap1\n      pop\n      jump\t// out\n        /* \"#utility.yul\":12087:12226   */\n    tag_242:\n        /* \"#utility.yul\":12150:12159   */\n      0x00\n        /* \"#utility.yul\":12183:12220   */\n      tag_344\n        /* \"#utility.yul\":12214:12219   */\n      dup3\n        /* \"#utility.yul\":12183:12220   */\n      tag_345\n      jump\t// in\n    tag_344:\n        /* \"#utility.yul\":12170:12220   */\n      swap1\n      pop\n        /* \"#utility.yul\":12087:12226   */\n      swap2\n      swap1\n      pop\n      jump\t// out\n        /* \"#utility.yul\":12232:12358   */\n    tag_345:\n        /* \"#utility.yul\":12282:12291   */\n      0x00\n        /* \"#utility.yul\":12315:12352   */\n      tag_347\n        /* \"#utility.yul\":12346:12351   */\n      dup3\n        /* \"#utility.yul\":12315:12352   */\n      tag_348\n      jump\t// in\n    tag_347:\n        /* \"#utility.yul\":12302:12352   */\n      swap1\n      pop\n        /* \"#utility.yul\":12232:12358   */\n      swap2\n      swap1\n      pop\n      jump\t// out\n        /* \"#utility.yul\":12364:12477   */\n    tag_348:\n        /* \"#utility.yul\":12414:12423   */\n      0x00\n        /* \"#utility.yul\":12447:12471   */\n      tag_350\n        /* \"#utility.yul\":12465:12470   */\n      dup3\n        /* \"#utility.yul\":12447:12471   */\n      tag_336\n      jump\t// in\n    tag_350:\n        /* \"#utility.yul\":12434:12471   */\n      swap1\n      pop\n        /* \"#utility.yul\":12364:12477   */\n      swap2\n      swap1\n      pop\n      jump\t// out\n        /* \"#utility.yul\":12483:12790   */\n    tag_250:\n        /* \"#utility.yul\":12551:12552   */\n      0x00\n        /* \"#utility.yul\":12561:12674   */\n    tag_352:\n        /* \"#utility.yul\":12575:12581   */\n      dup4\n        /* \"#utility.yul\":12572:12573   */\n      dup2\n        /* \"#utility.yul\":12569:12582   */\n      lt\n        /* \"#utility.yul\":12561:12674   */\n      iszero\n      tag_354\n      jumpi\n        /* \"#utility.yul\":12660:12661   */\n      dup1\n        /* \"#utility.yul\":12655:12658   */\n      dup3\n        /* \"#utility.yul\":12651:12662   */\n      add\n        /* \"#utility.yul\":12645:12663   */\n      mload\n        /* \"#utility.yul\":12641:12642   */\n      dup2\n        /* \"#utility.yul\":12636:12639   */\n      dup5\n        /* \"#utility.yul\":12632:12643   */\n      add\n        /* \"#utility.yul\":12625:12664   */\n      mstore\n        /* \"#utility.yul\":12597:12599   */\n      0x20\n        /* \"#utility.yul\":12594:12595   */\n      dup2\n        /* \"#utility.yul\":12590:12600   */\n      add\n        /* \"#utility.yul\":12585:12600   */\n      swap1\n      pop\n        /* \"#utility.yul\":12561:12674   */\n      jump(tag_352)\n    tag_354:\n        /* \"#utility.yul\":12692:12698   */\n      dup4\n        /* \"#utility.yul\":12689:12690   */\n      dup2\n        /* \"#utility.yul\":12686:12699   */\n      gt\n        /* \"#utility.yul\":12683:12784   */\n      iszero\n      tag_355\n      jumpi\n        /* \"#utility.yul\":12772:12773   */\n      0x00\n        /* \"#utility.yul\":12763:12769   */\n      dup5\n        /* \"#utility.yul\":12758:12761   */\n      dup5\n        /* \"#utility.yul\":12754:12770   */\n      add\n        /* \"#utility.yul\":12747:12774   */\n      mstore\n        /* \"#utility.yul\":12683:12784   */\n    tag_355:\n        /* \"#utility.yul\":12532:12790   */\n      pop\n        /* \"#utility.yul\":12483:12790   */\n      pop\n      pop\n      pop\n      jump\t// out\n        /* \"#utility.yul\":12796:12967   */\n    tag_184:\n        /* \"#utility.yul\":12835:12838   */\n      0x00\n        /* \"#utility.yul\":12858:12882   */\n      tag_357\n        /* \"#utility.yul\":12876:12881   */\n      dup3\n        /* \"#utility.yul\":12858:12882   */\n      tag_292\n      jump\t// in\n    tag_357:\n        /* \"#utility.yul\":12849:12882   */\n      swap2\n      pop\n        /* \"#utility.yul\":12904:12908   */\n      0x00\n        /* \"#utility.yul\":12897:12902   */\n      dup3\n        /* \"#utility.yul\":12894:12909   */\n      eq\n        /* \"#utility.yul\":12891:12932   */\n      iszero\n      tag_358\n      jumpi\n        /* \"#utility.yul\":12912:12930   */\n      tag_359\n      tag_328\n      jump\t// in\n    tag_359:\n        /* \"#utility.yul\":12891:12932   */\n    tag_358:\n        /* \"#utility.yul\":12959:12960   */\n      0x01\n        /* \"#utility.yul\":12952:12957   */\n      dup3\n        /* \"#utility.yul\":12948:12961   */\n      sub\n        /* \"#utility.yul\":12941:12961   */\n      swap1\n      pop\n        /* \"#utility.yul\":12796:12967   */\n      swap2\n      swap1\n      pop\n      jump\t// out\n        /* \"#utility.yul\":12973:13153   */\n    tag_328:\n        /* \"#utility.yul\":13021:13098   */\n      0x4e487b7100000000000000000000000000000000000000000000000000000000\n        /* \"#utility.yul\":13018:13019   */\n      0x00\n        /* \"#utility.yul\":13011:13099   */\n      mstore\n        /* \"#utility.yul\":13118:13122   */\n      0x11\n        /* \"#utility.yul\":13115:13116   */\n      0x04\n        /* \"#utility.yul\":13108:13123   */\n      mstore\n        /* \"#utility.yul\":13142:13146   */\n      0x24\n        /* \"#utility.yul\":13139:13140   */\n      0x00\n        /* \"#utility.yul\":13132:13147   */\n      revert\n        /* \"#utility.yul\":13159:13339   */\n    tag_171:\n        /* \"#utility.yul\":13207:13284   */\n      0x4e487b7100000000000000000000000000000000000000000000000000000000\n        /* \"#utility.yul\":13204:13205   */\n      0x00\n        /* \"#utility.yul\":13197:13285   */\n      mstore\n        /* \"#utility.yul\":13304:13308   */\n      0x32\n        /* \"#utility.yul\":13301:13302   */\n      0x04\n        /* \"#utility.yul\":13294:13309   */\n      mstore\n        /* \"#utility.yul\":13328:13332   */\n      0x24\n        /* \"#utility.yul\":13325:13326   */\n      0x00\n        /* \"#utility.yul\":13318:13333   */\n      revert\n        /* \"#utility.yul\":13345:13525   */\n    tag_167:\n        /* \"#utility.yul\":13393:13470   */\n      0x4e487b7100000000000000000000000000000000000000000000000000000000\n        /* \"#utility.yul\":13390:13391   */\n      0x00\n        /* \"#utility.yul\":13383:13471   */\n      mstore\n        /* \"#utility.yul\":13490:13494   */\n      0x41\n        /* \"#utility.yul\":13487:13488   */\n      0x04\n        /* \"#utility.yul\":13480:13495   */\n      mstore\n        /* \"#utility.yul\":13514:13518   */\n      0x24\n        /* \"#utility.yul\":13511:13512   */\n      0x00\n        /* \"#utility.yul\":13504:13519   */\n      revert\n        /* \"#utility.yul\":13654:13771   */\n    tag_208:\n        /* \"#utility.yul\":13763:13764   */\n      0x00\n        /* \"#utility.yul\":13760:13761   */\n      dup1\n        /* \"#utility.yul\":13753:13765   */\n      revert\n        /* \"#utility.yul\":13777:13879   */\n    tag_252:\n        /* \"#utility.yul\":13818:13824   */\n      0x00\n        /* \"#utility.yul\":13869:13871   */\n      0x1f\n        /* \"#utility.yul\":13865:13872   */\n      not\n        /* \"#utility.yul\":13860:13862   */\n      0x1f\n        /* \"#utility.yul\":13853:13858   */\n      dup4\n        /* \"#utility.yul\":13849:13863   */\n      add\n        /* \"#utility.yul\":13845:13873   */\n      and\n        /* \"#utility.yul\":13835:13873   */\n      swap1\n      pop\n        /* \"#utility.yul\":13777:13879   */\n      swap2\n      swap1\n      pop\n      jump\t// out\n        /* \"#utility.yul\":13885:14067   */\n    tag_263:\n        /* \"#utility.yul\":14025:14059   */\n      0x537472696e67733a20686578206c656e67746820696e73756666696369656e74\n        /* \"#utility.yul\":14021:14022   */\n      0x00\n        /* \"#utility.yul\":14013:14019   */\n      dup3\n        /* \"#utility.yul\":14009:14023   */\n      add\n        /* \"#utility.yul\":14002:14060   */\n      mstore\n        /* \"#utility.yul\":13885:14067   */\n      pop\n      jump\t// out\n        /* \"#utility.yul\":14073:14298   */\n    tag_268:\n        /* \"#utility.yul\":14213:14247   */\n      0x4f776e61626c653a206e6577206f776e657220697320746865207a65726f2061\n        /* \"#utility.yul\":14209:14210   */\n      0x00\n        /* \"#utility.yul\":14201:14207   */\n      dup3\n        /* \"#utility.yul\":14197:14211   */\n      add\n        /* \"#utility.yul\":14190:14248   */\n      mstore\n        /* \"#utility.yul\":14282:14290   */\n      0x6464726573730000000000000000000000000000000000000000000000000000\n        /* \"#utility.yul\":14277:14279   */\n      0x20\n        /* \"#utility.yul\":14269:14275   */\n      dup3\n        /* \"#utility.yul\":14265:14280   */\n      add\n        /* \"#utility.yul\":14258:14291   */\n      mstore\n        /* \"#utility.yul\":14073:14298   */\n      pop\n      jump\t// out\n        /* \"#utility.yul\":14304:14486   */\n    tag_273:\n        /* \"#utility.yul\":14444:14478   */\n      0x4f776e61626c653a2063616c6c6572206973206e6f7420746865206f776e6572\n        /* \"#utility.yul\":14440:14441   */\n      0x00\n        /* \"#utility.yul\":14432:14438   */\n      dup3\n        /* \"#utility.yul\":14428:14442   */\n      add\n        /* \"#utility.yul\":14421:14479   */\n      mstore\n        /* \"#utility.yul\":14304:14486   */\n      pop\n      jump\t// out\n        /* \"#utility.yul\":14492:14665   */\n    tag_278:\n        /* \"#utility.yul\":14632:14657   */\n      0x416363657373436f6e74726f6c3a206163636f756e7420000000000000000000\n        /* \"#utility.yul\":14628:14629   */\n      0x00\n        /* \"#utility.yul\":14620:14626   */\n      dup3\n        /* \"#utility.yul\":14616:14630   */\n      add\n        /* \"#utility.yul\":14609:14658   */\n      mstore\n        /* \"#utility.yul\":14492:14665   */\n      pop\n      jump\t// out\n        /* \"#utility.yul\":14671:14838   */\n    tag_283:\n        /* \"#utility.yul\":14811:14830   */\n      0x206973206d697373696e6720726f6c6520000000000000000000000000000000\n        /* \"#utility.yul\":14807:14808   */\n      0x00\n        /* \"#utility.yul\":14799:14805   */\n      dup3\n        /* \"#utility.yul\":14795:14809   */\n      add\n        /* \"#utility.yul\":14788:14831   */\n      mstore\n        /* \"#utility.yul\":14671:14838   */\n      pop\n      jump\t// out\n        /* \"#utility.yul\":14844:15078   */\n    tag_288:\n        /* \"#utility.yul\":14984:15018   */\n      0x416363657373436f6e74726f6c3a2063616e206f6e6c792072656e6f756e6365\n        /* \"#utility.yul\":14980:14981   */\n      0x00\n        /* \"#utility.yul\":14972:14978   */\n      dup3\n        /* \"#utility.yul\":14968:14982   */\n      add\n        /* \"#utility.yul\":14961:15019   */\n      mstore\n        /* \"#utility.yul\":15053:15070   */\n      0x20726f6c657320666f722073656c660000000000000000000000000000000000\n        /* \"#utility.yul\":15048:15050   */\n      0x20\n        /* \"#utility.yul\":15040:15046   */\n      dup3\n        /* \"#utility.yul\":15036:15051   */\n      add\n        /* \"#utility.yul\":15029:15071   */\n      mstore\n        /* \"#utility.yul\":14844:15078   */\n      pop\n      jump\t// out\n        /* \"#utility.yul\":15084:15206   */\n    tag_192:\n        /* \"#utility.yul\":15157:15181   */\n      tag_374\n        /* \"#utility.yul\":15175:15180   */\n      dup2\n        /* \"#utility.yul\":15157:15181   */\n      tag_230\n      jump\t// in\n    tag_374:\n        /* \"#utility.yul\":15150:15155   */\n      dup2\n        /* \"#utility.yul\":15147:15182   */\n      eq\n        /* \"#utility.yul\":15137:15200   */\n      tag_375\n      jumpi\n        /* \"#utility.yul\":15196:15197   */\n      0x00\n        /* \"#utility.yul\":15193:15194   */\n      dup1\n        /* \"#utility.yul\":15186:15198   */\n      revert\n        /* \"#utility.yul\":15137:15200   */\n    tag_375:\n        /* \"#utility.yul\":15084:15206   */\n      pop\n      jump\t// out\n        /* \"#utility.yul\":15212:15334   */\n    tag_196:\n        /* \"#utility.yul\":15285:15309   */\n      tag_377\n        /* \"#utility.yul\":15303:15308   */\n      dup2\n        /* \"#utility.yul\":15285:15309   */\n      tag_238\n      jump\t// in\n    tag_377:\n        /* \"#utility.yul\":15278:15283   */\n      dup2\n        /* \"#utility.yul\":15275:15310   */\n      eq\n        /* \"#utility.yul\":15265:15328   */\n      tag_378\n      jumpi\n        /* \"#utility.yul\":15324:15325   */\n      0x00\n        /* \"#utility.yul\":15321:15322   */\n      dup1\n        /* \"#utility.yul\":15314:15326   */\n      revert\n        /* \"#utility.yul\":15265:15328   */\n    tag_378:\n        /* \"#utility.yul\":15212:15334   */\n      pop\n      jump\t// out\n        /* \"#utility.yul\":15340:15460   */\n    tag_200:\n        /* \"#utility.yul\":15412:15435   */\n      tag_380\n        /* \"#utility.yul\":15429:15434   */\n      dup2\n        /* \"#utility.yul\":15412:15435   */\n      tag_339\n      jump\t// in\n    tag_380:\n        /* \"#utility.yul\":15405:15410   */\n      dup2\n        /* \"#utility.yul\":15402:15436   */\n      eq\n        /* \"#utility.yul\":15392:15454   */\n      tag_381\n      jumpi\n        /* \"#utility.yul\":15450:15451   */\n      0x00\n        /* \"#utility.yul\":15447:15448   */\n      dup1\n        /* \"#utility.yul\":15440:15452   */\n      revert\n        /* \"#utility.yul\":15392:15454   */\n    tag_381:\n        /* \"#utility.yul\":15340:15460   */\n      pop\n      jump\t// out\n        /* \"#utility.yul\":15466:15588   */\n    tag_204:\n        /* \"#utility.yul\":15539:15563   */\n      tag_383\n        /* \"#utility.yul\":15557:15562   */\n      dup2\n        /* \"#utility.yul\":15539:15563   */\n      tag_292\n      jump\t// in\n    tag_383:\n        /* \"#utility.yul\":15532:15537   */\n      dup2\n        /* \"#utility.yul\":15529:15564   */\n      eq\n        /* \"#utility.yul\":15519:15582   */\n      tag_384\n      jumpi\n        /* \"#utility.yul\":15578:15579   */\n      0x00\n        /* \"#utility.yul\":15575:15576   */\n      dup1\n        /* \"#utility.yul\":15568:15580   */\n      revert\n        /* \"#utility.yul\":15519:15582   */\n    tag_384:\n        /* \"#utility.yul\":15466:15588   */\n      pop\n      jump\t// out\n\n    auxdata: 0xa2646970667358221220fe5cf4c708989ae0c6eaf576c90aac75578f6934057f087a2525c82edde295cd64736f6c63430008070033\n}\n",
				"bytecode": {
					"linkReferences": {},
					"object": "608060405273cb8bcdb991b45bf5d78000a0b5c0a6686ce43790600260006101000a81548173ffffffffffffffffffffffffffffffffffffffff021916908373ffffffffffffffffffffffffffffffffffffffff1602179055503480156200006657600080fd5b5060405162001b6638038062001b6683398181016040528101906200008c91906200043a565b620000ac620000a06200010c60201b60201c565b6200011460201b60201c565b620000c16000801b33620001d860201b60201c565b620000f37f352d05fe3946dbe49277552ba941e744d5a96d9c60bc1ba0ea5f1d3ae000f7c883620001d860201b60201c565b6200010481620001ee60201b60201c565b50506200057b565b600033905090565b60008060009054906101000a900473ffffffffffffffffffffffffffffffffffffffff169050816000806101000a81548173ffffffffffffffffffffffffffffffffffffffff021916908373ffffffffffffffffffffffffffffffffffffffff1602179055508173ffffffffffffffffffffffffffffffffffffffff168173ffffffffffffffffffffffffffffffffffffffff167f8be0079c531659141344cd1fd0a4f28419497f9722a3daafe3b4186f6b6457e060405160405180910390a35050565b620001ea82826200028760201b60201c565b5050565b620001fe6200010c60201b60201c565b73ffffffffffffffffffffffffffffffffffffffff16620002246200037860201b60201c565b73ffffffffffffffffffffffffffffffffffffffff16146200027d576040517f08c379a00000000000000000000000000000000000000000000000000000000081526004016200027490620004a8565b60405180910390fd5b8060048190555050565b620002998282620003a160201b60201c565b6200037457600180600084815260200190815260200160002060000160008373ffffffffffffffffffffffffffffffffffffffff1673ffffffffffffffffffffffffffffffffffffffff16815260200190815260200160002060006101000a81548160ff021916908315150217905550620003196200010c60201b60201c565b73ffffffffffffffffffffffffffffffffffffffff168173ffffffffffffffffffffffffffffffffffffffff16837f2f8788117e7eff1d82e926ec794901d17c78024a50270940304540a733656f0d60405160405180910390a45b5050565b60008060009054906101000a900473ffffffffffffffffffffffffffffffffffffffff16905090565b60006001600084815260200190815260200160002060000160008373ffffffffffffffffffffffffffffffffffffffff1673ffffffffffffffffffffffffffffffffffffffff16815260200190815260200160002060009054906101000a900460ff16905092915050565b6000815190506200041d8162000547565b92915050565b600081519050620004348162000561565b92915050565b6000806040838503121562000454576200045362000519565b5b600062000464858286016200040c565b9250506020620004778582860162000423565b9150509250929050565b600062000490602083620004ca565b91506200049d826200051e565b602082019050919050565b60006020820190508181036000830152620004c38162000481565b9050919050565b600082825260208201905092915050565b6000620004e882620004ef565b9050919050565b600073ffffffffffffffffffffffffffffffffffffffff82169050919050565b6000819050919050565b600080fd5b7f4f776e61626c653a2063616c6c6572206973206e6f7420746865206f776e6572600082015250565b6200055281620004db565b81146200055e57600080fd5b50565b6200056c816200050f565b81146200057857600080fd5b50565b6115db806200058b6000396000f3fe608060405234801561001057600080fd5b50600436106101005760003560e01c806352049ace11610097578063a217fddf11610066578063a217fddf14610289578063b713f8cf146102a7578063d547741f146102c3578063f2fde38b146102df57610100565b806352049ace14610201578063715018a6146102315780638da5cb5b1461023b57806391d148541461025957610100565b806336568abe116100d357806336568abe1461019f57806338013f02146101bb5780634d8d9e92146101d95780634e71d92d146101f757610100565b806301ffc9a714610105578063153252ec14610135578063248a9ca3146101535780632f2ff15d14610183575b600080fd5b61011f600480360381019061011a9190610e38565b6102fb565b60405161012c919061106e565b60405180910390f35b61013d610375565b60405161014a91906110a4565b60405180910390f35b61016d60048036038101906101689190610dcb565b61039b565b60405161017a9190611089565b60405180910390f35b61019d60048036038101906101989190610df8565b6103bb565b005b6101b960048036038101906101b49190610df8565b6103dc565b005b6101c361045f565b6040516101d09190611089565b60405180910390f35b6101e1610483565b6040516101ee9190611161565b60405180910390f35b6101ff610489565b005b61021b60048036038101906102169190610e65565b61048b565b6040516102289190611161565b60405180910390f35b6102396104a3565b005b61024361052b565b6040516102509190611053565b60405180910390f35b610273600480360381019061026e9190610df8565b610554565b604051610280919061106e565b60405180910390f35b6102916105bf565b60405161029e9190611089565b60405180910390f35b6102c160048036038101906102bc9190610e65565b6105c6565b005b6102dd60048036038101906102d89190610df8565b61064c565b005b6102f960048036038101906102f49190610d9e565b61066d565b005b60007f7965db0b000000000000000000000000000000000000000000000000000000007bffffffffffffffffffffffffffffffffffffffffffffffffffffffff1916827bffffffffffffffffffffffffffffffffffffffffffffffffffffffff1916148061036e575061036d82610765565b5b9050919050565b600260009054906101000a900473ffffffffffffffffffffffffffffffffffffffff1681565b600060016000838152602001908152602001600020600101549050919050565b6103c48261039b565b6103cd816107cf565b6103d783836107e3565b505050565b6103e46108c3565b73ffffffffffffffffffffffffffffffffffffffff168173ffffffffffffffffffffffffffffffffffffffff1614610451576040517f08c379a000000000000000000000000000000000000000000000000000000000815260040161044890611141565b60405180910390fd5b61045b82826108cb565b5050565b7f352d05fe3946dbe49277552ba941e744d5a96d9c60bc1ba0ea5f1d3ae000f7c881565b60045481565b565b60036020528060005260406000206000915090505481565b6104ab6108c3565b73ffffffffffffffffffffffffffffffffffffffff166104c961052b565b73ffffffffffffffffffffffffffffffffffffffff161461051f576040517f08c379a000000000000000000000000000000000000000000000000000000000815260040161051690611121565b60405180910390fd5b61052960006109ad565b565b60008060009054906101000a900473ffffffffffffffffffffffffffffffffffffffff16905090565b60006001600084815260200190815260200160002060000160008373ffffffffffffffffffffffffffffffffffffffff1673ffffffffffffffffffffffffffffffffffffffff16815260200190815260200160002060009054906101000a900460ff16905092915050565b6000801b81565b6105ce6108c3565b73ffffffffffffffffffffffffffffffffffffffff166105ec61052b565b73ffffffffffffffffffffffffffffffffffffffff1614610642576040517f08c379a000000000000000000000000000000000000000000000000000000000815260040161063990611121565b60405180910390fd5b8060048190555050565b6106558261039b565b61065e816107cf565b61066883836108cb565b505050565b6106756108c3565b73ffffffffffffffffffffffffffffffffffffffff1661069361052b565b73ffffffffffffffffffffffffffffffffffffffff16146106e9576040517f08c379a00000000000000000000000000000000000000000000000000000000081526004016106e090611121565b60405180910390fd5b600073ffffffffffffffffffffffffffffffffffffffff168173ffffffffffffffffffffffffffffffffffffffff161415610759576040517f08c379a000000000000000000000000000000000000000000000000000000000815260040161075090611101565b60405180910390fd5b610762816109ad565b50565b60007f01ffc9a7000000000000000000000000000000000000000000000000000000007bffffffffffffffffffffffffffffffffffffffffffffffffffffffff1916827bffffffffffffffffffffffffffffffffffffffffffffffffffffffff1916149050919050565b6107e0816107db6108c3565b610a71565b50565b6107ed8282610554565b6108bf57600180600084815260200190815260200160002060000160008373ffffffffffffffffffffffffffffffffffffffff1673ffffffffffffffffffffffffffffffffffffffff16815260200190815260200160002060006101000a81548160ff0219169083151502179055506108646108c3565b73ffffffffffffffffffffffffffffffffffffffff168173ffffffffffffffffffffffffffffffffffffffff16837f2f8788117e7eff1d82e926ec794901d17c78024a50270940304540a733656f0d60405160405180910390a45b5050565b600033905090565b6108d58282610554565b156109a95760006001600084815260200190815260200160002060000160008373ffffffffffffffffffffffffffffffffffffffff1673ffffffffffffffffffffffffffffffffffffffff16815260200190815260200160002060006101000a81548160ff02191690831515021790555061094e6108c3565b73ffffffffffffffffffffffffffffffffffffffff168173ffffffffffffffffffffffffffffffffffffffff16837ff6391f5c32d9c69d2a47ea670b442974b53935d1edc7fd64eb21e047a839171b60405160405180910390a45b5050565b60008060009054906101000a900473ffffffffffffffffffffffffffffffffffffffff169050816000806101000a81548173ffffffffffffffffffffffffffffffffffffffff021916908373ffffffffffffffffffffffffffffffffffffffff1602179055508173ffffffffffffffffffffffffffffffffffffffff168173ffffffffffffffffffffffffffffffffffffffff167f8be0079c531659141344cd1fd0a4f28419497f9722a3daafe3b4186f6b6457e060405160405180910390a35050565b610a7b8282610554565b610b0a57610aa08173ffffffffffffffffffffffffffffffffffffffff166014610b0e565b610aae8360001c6020610b0e565b604051602001610abf929190611019565b6040516020818303038152906040526040517f08c379a0000000000000000000000000000000000000000000000000000000008152600401610b0191906110bf565b60405180910390fd5b5050565b606060006002836002610b2191906111f9565b610b2b91906111a3565b67ffffffffffffffff811115610b4457610b436113c2565b5b6040519080825280601f01601f191660200182016040528015610b765781602001600182028036833780820191505090505b5090507f300000000000000000000000000000000000000000000000000000000000000081600081518110610bae57610bad611393565b5b60200101907effffffffffffffffffffffffffffffffffffffffffffffffffffffffffffff1916908160001a9053507f780000000000000000000000000000000000000000000000000000000000000081600181518110610c1257610c11611393565b5b60200101907effffffffffffffffffffffffffffffffffffffffffffffffffffffffffffff1916908160001a90535060006001846002610c5291906111f9565b610c5c91906111a3565b90505b6001811115610cfc577f3031323334353637383961626364656600000000000000000000000000000000600f861660108110610c9e57610c9d611393565b5b1a60f81b828281518110610cb557610cb4611393565b5b60200101907effffffffffffffffffffffffffffffffffffffffffffffffffffffffffffff1916908160001a905350600485901c945080610cf59061133a565b9050610c5f565b5060008414610d40576040517f08c379a0000000000000000000000000000000000000000000000000000000008152600401610d37906110e1565b60405180910390fd5b8091505092915050565b600081359050610d5981611549565b92915050565b600081359050610d6e81611560565b92915050565b600081359050610d8381611577565b92915050565b600081359050610d988161158e565b92915050565b600060208284031215610db457610db36113f1565b5b6000610dc284828501610d4a565b91505092915050565b600060208284031215610de157610de06113f1565b5b6000610def84828501610d5f565b91505092915050565b60008060408385031215610e0f57610e0e6113f1565b5b6000610e1d85828601610d5f565b9250506020610e2e85828601610d4a565b9150509250929050565b600060208284031215610e4e57610e4d6113f1565b5b6000610e5c84828501610d74565b91505092915050565b600060208284031215610e7b57610e7a6113f1565b5b6000610e8984828501610d89565b91505092915050565b610e9b81611253565b82525050565b610eaa81611265565b82525050565b610eb981611271565b82525050565b610ec8816112d1565b82525050565b6000610ed98261117c565b610ee38185611187565b9350610ef3818560208601611307565b610efc816113f6565b840191505092915050565b6000610f128261117c565b610f1c8185611198565b9350610f2c818560208601611307565b80840191505092915050565b6000610f45602083611187565b9150610f5082611407565b602082019050919050565b6000610f68602683611187565b9150610f7382611430565b604082019050919050565b6000610f8b602083611187565b9150610f968261147f565b602082019050919050565b6000610fae601783611198565b9150610fb9826114a8565b601782019050919050565b6000610fd1601183611198565b9150610fdc826114d1565b601182019050919050565b6000610ff4602f83611187565b9150610fff826114fa565b604082019050919050565b611013816112c7565b82525050565b600061102482610fa1565b91506110308285610f07565b915061103b82610fc4565b91506110478284610f07565b91508190509392505050565b60006020820190506110686000830184610e92565b92915050565b60006020820190506110836000830184610ea1565b92915050565b600060208201905061109e6000830184610eb0565b92915050565b60006020820190506110b96000830184610ebf565b92915050565b600060208201905081810360008301526110d98184610ece565b905092915050565b600060208201905081810360008301526110fa81610f38565b9050919050565b6000602082019050818103600083015261111a81610f5b565b9050919050565b6000602082019050818103600083015261113a81610f7e565b9050919050565b6000602082019050818103600083015261115a81610fe7565b9050919050565b6000602082019050611176600083018461100a565b92915050565b600081519050919050565b600082825260208201905092915050565b600081905092915050565b60006111ae826112c7565b91506111b9836112c7565b9250827fffffffffffffffffffffffffffffffffffffffffffffffffffffffffffffffff038211156111ee576111ed611364565b5b828201905092915050565b6000611204826112c7565b915061120f836112c7565b9250817fffffffffffffffffffffffffffffffffffffffffffffffffffffffffffffffff048311821515161561124857611247611364565b5b828202905092915050565b600061125e826112a7565b9050919050565b60008115159050919050565b6000819050919050565b60007fffffffff0000000000000000000000000000000000000000000000000000000082169050919050565b600073ffffffffffffffffffffffffffffffffffffffff82169050919050565b6000819050919050565b60006112dc826112e3565b9050919050565b60006112ee826112f5565b9050919050565b6000611300826112a7565b9050919050565b60005b8381101561132557808201518184015260208101905061130a565b83811115611334576000848401525b50505050565b6000611345826112c7565b9150600082141561135957611358611364565b5b600182039050919050565b7f4e487b7100000000000000000000000000000000000000000000000000000000600052601160045260246000fd5b7f4e487b7100000000000000000000000000000000000000000000000000000000600052603260045260246000fd5b7f4e487b7100000000000000000000000000000000000000000000000000000000600052604160045260246000fd5b600080fd5b6000601f19601f8301169050919050565b7f537472696e67733a20686578206c656e67746820696e73756666696369656e74600082015250565b7f4f776e61626c653a206e6577206f776e657220697320746865207a65726f206160008201527f6464726573730000000000000000000000000000000000000000000000000000602082015250565b7f4f776e61626c653a2063616c6c6572206973206e6f7420746865206f776e6572600082015250565b7f416363657373436f6e74726f6c3a206163636f756e7420000000000000000000600082015250565b7f206973206d697373696e6720726f6c6520000000000000000000000000000000600082015250565b7f416363657373436f6e74726f6c3a2063616e206f6e6c792072656e6f756e636560008201527f20726f6c657320666f722073656c660000000000000000000000000000000000602082015250565b61155281611253565b811461155d57600080fd5b50565b61156981611271565b811461157457600080fd5b50565b6115808161127b565b811461158b57600080fd5b50565b611597816112c7565b81146115a257600080fd5b5056fea2646970667358221220fe5cf4c708989ae0c6eaf576c90aac75578f6934057f087a2525c82edde295cd64736f6c63430008070033",
					"opcodes": "PUSH1 0x80 PUSH1 0x40 MSTORE PUSH20 0xCB8BCDB991B45BF5D78000A0B5C0A6686CE43790 PUSH1 0x2 PUSH1 0x0 PUSH2 0x100 EXP DUP2 SLOAD DUP2 PUSH20 0xFFFFFFFFFFFFFFFFFFFFFFFFFFFFFFFFFFFFFFFF MUL NOT AND SWAP1 DUP4 PUSH20 0xFFFFFFFFFFFFFFFFFFFFFFFFFFFFFFFFFFFFFFFF AND MUL OR SWAP1 SSTORE POP CALLVALUE DUP1 ISZERO PUSH3 0x66 JUMPI PUSH1 0x0 DUP1 REVERT JUMPDEST POP PUSH1 0x40 MLOAD PUSH3 0x1B66 CODESIZE SUB DUP1 PUSH3 0x1B66 DUP4 CODECOPY DUP2 DUP2 ADD PUSH1 0x40 MSTORE DUP2 ADD SWAP1 PUSH3 0x8C SWAP2 SWAP1 PUSH3 0x43A JUMP JUMPDEST PUSH3 0xAC PUSH3 0xA0 PUSH3 0x10C PUSH1 0x20 SHL PUSH1 0x20 SHR JUMP JUMPDEST PUSH3 0x114 PUSH1 0x20 SHL PUSH1 0x20 SHR JUMP JUMPDEST PUSH3 0xC1 PUSH1 0x0 DUP1 SHL CALLER PUSH3 0x1D8 PUSH1 0x20 SHL PUSH1 0x20 SHR JUMP JUMPDEST PUSH3 0xF3 PUSH32 0x352D05FE3946DBE49277552BA941E744D5A96D9C60BC1BA0EA5F1D3AE000F7C8 DUP4 PUSH3 0x1D8 PUSH1 0x20 SHL PUSH1 0x20 SHR JUMP JUMPDEST PUSH3 0x104 DUP2 PUSH3 0x1EE PUSH1 0x20 SHL PUSH1 0x20 SHR JUMP JUMPDEST POP POP PUSH3 0x57B JUMP JUMPDEST PUSH1 0x0 CALLER SWAP1 POP SWAP1 JUMP JUMPDEST PUSH1 0x0 DUP1 PUSH1 0x0 SWAP1 SLOAD SWAP1 PUSH2 0x100 EXP SWAP1 DIV PUSH20 0xFFFFFFFFFFFFFFFFFFFFFFFFFFFFFFFFFFFFFFFF AND SWAP1 POP DUP2 PUSH1 0x0 DUP1 PUSH2 0x100 EXP DUP2 SLOAD DUP2 PUSH20 0xFFFFFFFFFFFFFFFFFFFFFFFFFFFFFFFFFFFFFFFF MUL NOT AND SWAP1 DUP4 PUSH20 0xFFFFFFFFFFFFFFFFFFFFFFFFFFFFFFFFFFFFFFFF AND MUL OR SWAP1 SSTORE POP DUP2 PUSH20 0xFFFFFFFFFFFFFFFFFFFFFFFFFFFFFFFFFFFFFFFF AND DUP2 PUSH20 0xFFFFFFFFFFFFFFFFFFFFFFFFFFFFFFFFFFFFFFFF AND PUSH32 0x8BE0079C531659141344CD1FD0A4F28419497F9722A3DAAFE3B4186F6B6457E0 PUSH1 0x40 MLOAD PUSH1 0x40 MLOAD DUP1 SWAP2 SUB SWAP1 LOG3 POP POP JUMP JUMPDEST PUSH3 0x1EA DUP3 DUP3 PUSH3 0x287 PUSH1 0x20 SHL PUSH1 0x20 SHR JUMP JUMPDEST POP POP JUMP JUMPDEST PUSH3 0x1FE PUSH3 0x10C PUSH1 0x20 SHL PUSH1 0x20 SHR JUMP JUMPDEST PUSH20 0xFFFFFFFFFFFFFFFFFFFFFFFFFFFFFFFFFFFFFFFF AND PUSH3 0x224 PUSH3 0x378 PUSH1 0x20 SHL PUSH1 0x20 SHR JUMP JUMPDEST PUSH20 0xFFFFFFFFFFFFFFFFFFFFFFFFFFFFFFFFFFFFFFFF AND EQ PUSH3 0x27D JUMPI PUSH1 0x40 MLOAD PUSH32 0x8C379A000000000000000000000000000000000000000000000000000000000 DUP2 MSTORE PUSH1 0x4 ADD PUSH3 0x274 SWAP1 PUSH3 0x4A8 JUMP JUMPDEST PUSH1 0x40 MLOAD DUP1 SWAP2 SUB SWAP1 REVERT JUMPDEST DUP1 PUSH1 0x4 DUP2 SWAP1 SSTORE POP POP JUMP JUMPDEST PUSH3 0x299 DUP3 DUP3 PUSH3 0x3A1 PUSH1 0x20 SHL PUSH1 0x20 SHR JUMP JUMPDEST PUSH3 0x374 JUMPI PUSH1 0x1 DUP1 PUSH1 0x0 DUP5 DUP2 MSTORE PUSH1 0x20 ADD SWAP1 DUP2 MSTORE PUSH1 0x20 ADD PUSH1 0x0 KECCAK256 PUSH1 0x0 ADD PUSH1 0x0 DUP4 PUSH20 0xFFFFFFFFFFFFFFFFFFFFFFFFFFFFFFFFFFFFFFFF AND PUSH20 0xFFFFFFFFFFFFFFFFFFFFFFFFFFFFFFFFFFFFFFFF AND DUP2 MSTORE PUSH1 0x20 ADD SWAP1 DUP2 MSTORE PUSH1 0x20 ADD PUSH1 0x0 KECCAK256 PUSH1 0x0 PUSH2 0x100 EXP DUP2 SLOAD DUP2 PUSH1 0xFF MUL NOT AND SWAP1 DUP4 ISZERO ISZERO MUL OR SWAP1 SSTORE POP PUSH3 0x319 PUSH3 0x10C PUSH1 0x20 SHL PUSH1 0x20 SHR JUMP JUMPDEST PUSH20 0xFFFFFFFFFFFFFFFFFFFFFFFFFFFFFFFFFFFFFFFF AND DUP2 PUSH20 0xFFFFFFFFFFFFFFFFFFFFFFFFFFFFFFFFFFFFFFFF AND DUP4 PUSH32 0x2F8788117E7EFF1D82E926EC794901D17C78024A50270940304540A733656F0D PUSH1 0x40 MLOAD PUSH1 0x40 MLOAD DUP1 SWAP2 SUB SWAP1 LOG4 JUMPDEST POP POP JUMP JUMPDEST PUSH1 0x0 DUP1 PUSH1 0x0 SWAP1 SLOAD SWAP1 PUSH2 0x100 EXP SWAP1 DIV PUSH20 0xFFFFFFFFFFFFFFFFFFFFFFFFFFFFFFFFFFFFFFFF AND SWAP1 POP SWAP1 JUMP JUMPDEST PUSH1 0x0 PUSH1 0x1 PUSH1 0x0 DUP5 DUP2 MSTORE PUSH1 0x20 ADD SWAP1 DUP2 MSTORE PUSH1 0x20 ADD PUSH1 0x0 KECCAK256 PUSH1 0x0 ADD PUSH1 0x0 DUP4 PUSH20 0xFFFFFFFFFFFFFFFFFFFFFFFFFFFFFFFFFFFFFFFF AND PUSH20 0xFFFFFFFFFFFFFFFFFFFFFFFFFFFFFFFFFFFFFFFF AND DUP2 MSTORE PUSH1 0x20 ADD SWAP1 DUP2 MSTORE PUSH1 0x20 ADD PUSH1 0x0 KECCAK256 PUSH1 0x0 SWAP1 SLOAD SWAP1 PUSH2 0x100 EXP SWAP1 DIV PUSH1 0xFF AND SWAP1 POP SWAP3 SWAP2 POP POP JUMP JUMPDEST PUSH1 0x0 DUP2 MLOAD SWAP1 POP PUSH3 0x41D DUP2 PUSH3 0x547 JUMP JUMPDEST SWAP3 SWAP2 POP POP JUMP JUMPDEST PUSH1 0x0 DUP2 MLOAD SWAP1 POP PUSH3 0x434 DUP2 PUSH3 0x561 JUMP JUMPDEST SWAP3 SWAP2 POP POP JUMP JUMPDEST PUSH1 0x0 DUP1 PUSH1 0x40 DUP4 DUP6 SUB SLT ISZERO PUSH3 0x454 JUMPI PUSH3 0x453 PUSH3 0x519 JUMP JUMPDEST JUMPDEST PUSH1 0x0 PUSH3 0x464 DUP6 DUP3 DUP7 ADD PUSH3 0x40C JUMP JUMPDEST SWAP3 POP POP PUSH1 0x20 PUSH3 0x477 DUP6 DUP3 DUP7 ADD PUSH3 0x423 JUMP JUMPDEST SWAP2 POP POP SWAP3 POP SWAP3 SWAP1 POP JUMP JUMPDEST PUSH1 0x0 PUSH3 0x490 PUSH1 0x20 DUP4 PUSH3 0x4CA JUMP JUMPDEST SWAP2 POP PUSH3 0x49D DUP3 PUSH3 0x51E JUMP JUMPDEST PUSH1 0x20 DUP3 ADD SWAP1 POP SWAP2 SWAP1 POP JUMP JUMPDEST PUSH1 0x0 PUSH1 0x20 DUP3 ADD SWAP1 POP DUP2 DUP2 SUB PUSH1 0x0 DUP4 ADD MSTORE PUSH3 0x4C3 DUP2 PUSH3 0x481 JUMP JUMPDEST SWAP1 POP SWAP2 SWAP1 POP JUMP JUMPDEST PUSH1 0x0 DUP3 DUP3 MSTORE PUSH1 0x20 DUP3 ADD SWAP1 POP SWAP3 SWAP2 POP POP JUMP JUMPDEST PUSH1 0x0 PUSH3 0x4E8 DUP3 PUSH3 0x4EF JUMP JUMPDEST SWAP1 POP SWAP2 SWAP1 POP JUMP JUMPDEST PUSH1 0x0 PUSH20 0xFFFFFFFFFFFFFFFFFFFFFFFFFFFFFFFFFFFFFFFF DUP3 AND SWAP1 POP SWAP2 SWAP1 POP JUMP JUMPDEST PUSH1 0x0 DUP2 SWAP1 POP SWAP2 SWAP1 POP JUMP JUMPDEST PUSH1 0x0 DUP1 REVERT JUMPDEST PUSH32 0x4F776E61626C653A2063616C6C6572206973206E6F7420746865206F776E6572 PUSH1 0x0 DUP3 ADD MSTORE POP JUMP JUMPDEST PUSH3 0x552 DUP2 PUSH3 0x4DB JUMP JUMPDEST DUP2 EQ PUSH3 0x55E JUMPI PUSH1 0x0 DUP1 REVERT JUMPDEST POP JUMP JUMPDEST PUSH3 0x56C DUP2 PUSH3 0x50F JUMP JUMPDEST DUP2 EQ PUSH3 0x578 JUMPI PUSH1 0x0 DUP1 REVERT JUMPDEST POP JUMP JUMPDEST PUSH2 0x15DB DUP1 PUSH3 0x58B PUSH1 0x0 CODECOPY PUSH1 0x0 RETURN INVALID PUSH1 0x80 PUSH1 0x40 MSTORE CALLVALUE DUP1 ISZERO PUSH2 0x10 JUMPI PUSH1 0x0 DUP1 REVERT JUMPDEST POP PUSH1 0x4 CALLDATASIZE LT PUSH2 0x100 JUMPI PUSH1 0x0 CALLDATALOAD PUSH1 0xE0 SHR DUP1 PUSH4 0x52049ACE GT PUSH2 0x97 JUMPI DUP1 PUSH4 0xA217FDDF GT PUSH2 0x66 JUMPI DUP1 PUSH4 0xA217FDDF EQ PUSH2 0x289 JUMPI DUP1 PUSH4 0xB713F8CF EQ PUSH2 0x2A7 JUMPI DUP1 PUSH4 0xD547741F EQ PUSH2 0x2C3 JUMPI DUP1 PUSH4 0xF2FDE38B EQ PUSH2 0x2DF JUMPI PUSH2 0x100 JUMP JUMPDEST DUP1 PUSH4 0x52049ACE EQ PUSH2 0x201 JUMPI DUP1 PUSH4 0x715018A6 EQ PUSH2 0x231 JUMPI DUP1 PUSH4 0x8DA5CB5B EQ PUSH2 0x23B JUMPI DUP1 PUSH4 0x91D14854 EQ PUSH2 0x259 JUMPI PUSH2 0x100 JUMP JUMPDEST DUP1 PUSH4 0x36568ABE GT PUSH2 0xD3 JUMPI DUP1 PUSH4 0x36568ABE EQ PUSH2 0x19F JUMPI DUP1 PUSH4 0x38013F02 EQ PUSH2 0x1BB JUMPI DUP1 PUSH4 0x4D8D9E92 EQ PUSH2 0x1D9 JUMPI DUP1 PUSH4 0x4E71D92D EQ PUSH2 0x1F7 JUMPI PUSH2 0x100 JUMP JUMPDEST DUP1 PUSH4 0x1FFC9A7 EQ PUSH2 0x105 JUMPI DUP1 PUSH4 0x153252EC EQ PUSH2 0x135 JUMPI DUP1 PUSH4 0x248A9CA3 EQ PUSH2 0x153 JUMPI DUP1 PUSH4 0x2F2FF15D EQ PUSH2 0x183 JUMPI JUMPDEST PUSH1 0x0 DUP1 REVERT JUMPDEST PUSH2 0x11F PUSH1 0x4 DUP1 CALLDATASIZE SUB DUP2 ADD SWAP1 PUSH2 0x11A SWAP2 SWAP1 PUSH2 0xE38 JUMP JUMPDEST PUSH2 0x2FB JUMP JUMPDEST PUSH1 0x40 MLOAD PUSH2 0x12C SWAP2 SWAP1 PUSH2 0x106E JUMP JUMPDEST PUSH1 0x40 MLOAD DUP1 SWAP2 SUB SWAP1 RETURN JUMPDEST PUSH2 0x13D PUSH2 0x375 JUMP JUMPDEST PUSH1 0x40 MLOAD PUSH2 0x14A SWAP2 SWAP1 PUSH2 0x10A4 JUMP JUMPDEST PUSH1 0x40 MLOAD DUP1 SWAP2 SUB SWAP1 RETURN JUMPDEST PUSH2 0x16D PUSH1 0x4 DUP1 CALLDATASIZE SUB DUP2 ADD SWAP1 PUSH2 0x168 SWAP2 SWAP1 PUSH2 0xDCB JUMP JUMPDEST PUSH2 0x39B JUMP JUMPDEST PUSH1 0x40 MLOAD PUSH2 0x17A SWAP2 SWAP1 PUSH2 0x1089 JUMP JUMPDEST PUSH1 0x40 MLOAD DUP1 SWAP2 SUB SWAP1 RETURN JUMPDEST PUSH2 0x19D PUSH1 0x4 DUP1 CALLDATASIZE SUB DUP2 ADD SWAP1 PUSH2 0x198 SWAP2 SWAP1 PUSH2 0xDF8 JUMP JUMPDEST PUSH2 0x3BB JUMP JUMPDEST STOP JUMPDEST PUSH2 0x1B9 PUSH1 0x4 DUP1 CALLDATASIZE SUB DUP2 ADD SWAP1 PUSH2 0x1B4 SWAP2 SWAP1 PUSH2 0xDF8 JUMP JUMPDEST PUSH2 0x3DC JUMP JUMPDEST STOP JUMPDEST PUSH2 0x1C3 PUSH2 0x45F JUMP JUMPDEST PUSH1 0x40 MLOAD PUSH2 0x1D0 SWAP2 SWAP1 PUSH2 0x1089 JUMP JUMPDEST PUSH1 0x40 MLOAD DUP1 SWAP2 SUB SWAP1 RETURN JUMPDEST PUSH2 0x1E1 PUSH2 0x483 JUMP JUMPDEST PUSH1 0x40 MLOAD PUSH2 0x1EE SWAP2 SWAP1 PUSH2 0x1161 JUMP JUMPDEST PUSH1 0x40 MLOAD DUP1 SWAP2 SUB SWAP1 RETURN JUMPDEST PUSH2 0x1FF PUSH2 0x489 JUMP JUMPDEST STOP JUMPDEST PUSH2 0x21B PUSH1 0x4 DUP1 CALLDATASIZE SUB DUP2 ADD SWAP1 PUSH2 0x216 SWAP2 SWAP1 PUSH2 0xE65 JUMP JUMPDEST PUSH2 0x48B JUMP JUMPDEST PUSH1 0x40 MLOAD PUSH2 0x228 SWAP2 SWAP1 PUSH2 0x1161 JUMP JUMPDEST PUSH1 0x40 MLOAD DUP1 SWAP2 SUB SWAP1 RETURN JUMPDEST PUSH2 0x239 PUSH2 0x4A3 JUMP JUMPDEST STOP JUMPDEST PUSH2 0x243 PUSH2 0x52B JUMP JUMPDEST PUSH1 0x40 MLOAD PUSH2 0x250 SWAP2 SWAP1 PUSH2 0x1053 JUMP JUMPDEST PUSH1 0x40 MLOAD DUP1 SWAP2 SUB SWAP1 RETURN JUMPDEST PUSH2 0x273 PUSH1 0x4 DUP1 CALLDATASIZE SUB DUP2 ADD SWAP1 PUSH2 0x26E SWAP2 SWAP1 PUSH2 0xDF8 JUMP JUMPDEST PUSH2 0x554 JUMP JUMPDEST PUSH1 0x40 MLOAD PUSH2 0x280 SWAP2 SWAP1 PUSH2 0x106E JUMP JUMPDEST PUSH1 0x40 MLOAD DUP1 SWAP2 SUB SWAP1 RETURN JUMPDEST PUSH2 0x291 PUSH2 0x5BF JUMP JUMPDEST PUSH1 0x40 MLOAD PUSH2 0x29E SWAP2 SWAP1 PUSH2 0x1089 JUMP JUMPDEST PUSH1 0x40 MLOAD DUP1 SWAP2 SUB SWAP1 RETURN JUMPDEST PUSH2 0x2C1 PUSH1 0x4 DUP1 CALLDATASIZE SUB DUP2 ADD SWAP1 PUSH2 0x2BC SWAP2 SWAP1 PUSH2 0xE65 JUMP JUMPDEST PUSH2 0x5C6 JUMP JUMPDEST STOP JUMPDEST PUSH2 0x2DD PUSH1 0x4 DUP1 CALLDATASIZE SUB DUP2 ADD SWAP1 PUSH2 0x2D8 SWAP2 SWAP1 PUSH2 0xDF8 JUMP JUMPDEST PUSH2 0x64C JUMP JUMPDEST STOP JUMPDEST PUSH2 0x2F9 PUSH1 0x4 DUP1 CALLDATASIZE SUB DUP2 ADD SWAP1 PUSH2 0x2F4 SWAP2 SWAP1 PUSH2 0xD9E JUMP JUMPDEST PUSH2 0x66D JUMP JUMPDEST STOP JUMPDEST PUSH1 0x0 PUSH32 0x7965DB0B00000000000000000000000000000000000000000000000000000000 PUSH28 0xFFFFFFFFFFFFFFFFFFFFFFFFFFFFFFFFFFFFFFFFFFFFFFFFFFFFFFFF NOT AND DUP3 PUSH28 0xFFFFFFFFFFFFFFFFFFFFFFFFFFFFFFFFFFFFFFFFFFFFFFFFFFFFFFFF NOT AND EQ DUP1 PUSH2 0x36E JUMPI POP PUSH2 0x36D DUP3 PUSH2 0x765 JUMP JUMPDEST JUMPDEST SWAP1 POP SWAP2 SWAP1 POP JUMP JUMPDEST PUSH1 0x2 PUSH1 0x0 SWAP1 SLOAD SWAP1 PUSH2 0x100 EXP SWAP1 DIV PUSH20 0xFFFFFFFFFFFFFFFFFFFFFFFFFFFFFFFFFFFFFFFF AND DUP2 JUMP JUMPDEST PUSH1 0x0 PUSH1 0x1 PUSH1 0x0 DUP4 DUP2 MSTORE PUSH1 0x20 ADD SWAP1 DUP2 MSTORE PUSH1 0x20 ADD PUSH1 0x0 KECCAK256 PUSH1 0x1 ADD SLOAD SWAP1 POP SWAP2 SWAP1 POP JUMP JUMPDEST PUSH2 0x3C4 DUP3 PUSH2 0x39B JUMP JUMPDEST PUSH2 0x3CD DUP2 PUSH2 0x7CF JUMP JUMPDEST PUSH2 0x3D7 DUP4 DUP4 PUSH2 0x7E3 JUMP JUMPDEST POP POP POP JUMP JUMPDEST PUSH2 0x3E4 PUSH2 0x8C3 JUMP JUMPDEST PUSH20 0xFFFFFFFFFFFFFFFFFFFFFFFFFFFFFFFFFFFFFFFF AND DUP2 PUSH20 0xFFFFFFFFFFFFFFFFFFFFFFFFFFFFFFFFFFFFFFFF AND EQ PUSH2 0x451 JUMPI PUSH1 0x40 MLOAD PUSH32 0x8C379A000000000000000000000000000000000000000000000000000000000 DUP2 MSTORE PUSH1 0x4 ADD PUSH2 0x448 SWAP1 PUSH2 0x1141 JUMP JUMPDEST PUSH1 0x40 MLOAD DUP1 SWAP2 SUB SWAP1 REVERT JUMPDEST PUSH2 0x45B DUP3 DUP3 PUSH2 0x8CB JUMP JUMPDEST POP POP JUMP JUMPDEST PUSH32 0x352D05FE3946DBE49277552BA941E744D5A96D9C60BC1BA0EA5F1D3AE000F7C8 DUP2 JUMP JUMPDEST PUSH1 0x4 SLOAD DUP2 JUMP JUMPDEST JUMP JUMPDEST PUSH1 0x3 PUSH1 0x20 MSTORE DUP1 PUSH1 0x0 MSTORE PUSH1 0x40 PUSH1 0x0 KECCAK256 PUSH1 0x0 SWAP2 POP SWAP1 POP SLOAD DUP2 JUMP JUMPDEST PUSH2 0x4AB PUSH2 0x8C3 JUMP JUMPDEST PUSH20 0xFFFFFFFFFFFFFFFFFFFFFFFFFFFFFFFFFFFFFFFF AND PUSH2 0x4C9 PUSH2 0x52B JUMP JUMPDEST PUSH20 0xFFFFFFFFFFFFFFFFFFFFFFFFFFFFFFFFFFFFFFFF AND EQ PUSH2 0x51F JUMPI PUSH1 0x40 MLOAD PUSH32 0x8C379A000000000000000000000000000000000000000000000000000000000 DUP2 MSTORE PUSH1 0x4 ADD PUSH2 0x516 SWAP1 PUSH2 0x1121 JUMP JUMPDEST PUSH1 0x40 MLOAD DUP1 SWAP2 SUB SWAP1 REVERT JUMPDEST PUSH2 0x529 PUSH1 0x0 PUSH2 0x9AD JUMP JUMPDEST JUMP JUMPDEST PUSH1 0x0 DUP1 PUSH1 0x0 SWAP1 SLOAD SWAP1 PUSH2 0x100 EXP SWAP1 DIV PUSH20 0xFFFFFFFFFFFFFFFFFFFFFFFFFFFFFFFFFFFFFFFF AND SWAP1 POP SWAP1 JUMP JUMPDEST PUSH1 0x0 PUSH1 0x1 PUSH1 0x0 DUP5 DUP2 MSTORE PUSH1 0x20 ADD SWAP1 DUP2 MSTORE PUSH1 0x20 ADD PUSH1 0x0 KECCAK256 PUSH1 0x0 ADD PUSH1 0x0 DUP4 PUSH20 0xFFFFFFFFFFFFFFFFFFFFFFFFFFFFFFFFFFFFFFFF AND PUSH20 0xFFFFFFFFFFFFFFFFFFFFFFFFFFFFFFFFFFFFFFFF AND DUP2 MSTORE PUSH1 0x20 ADD SWAP1 DUP2 MSTORE PUSH1 0x20 ADD PUSH1 0x0 KECCAK256 PUSH1 0x0 SWAP1 SLOAD SWAP1 PUSH2 0x100 EXP SWAP1 DIV PUSH1 0xFF AND SWAP1 POP SWAP3 SWAP2 POP POP JUMP JUMPDEST PUSH1 0x0 DUP1 SHL DUP2 JUMP JUMPDEST PUSH2 0x5CE PUSH2 0x8C3 JUMP JUMPDEST PUSH20 0xFFFFFFFFFFFFFFFFFFFFFFFFFFFFFFFFFFFFFFFF AND PUSH2 0x5EC PUSH2 0x52B JUMP JUMPDEST PUSH20 0xFFFFFFFFFFFFFFFFFFFFFFFFFFFFFFFFFFFFFFFF AND EQ PUSH2 0x642 JUMPI PUSH1 0x40 MLOAD PUSH32 0x8C379A000000000000000000000000000000000000000000000000000000000 DUP2 MSTORE PUSH1 0x4 ADD PUSH2 0x639 SWAP1 PUSH2 0x1121 JUMP JUMPDEST PUSH1 0x40 MLOAD DUP1 SWAP2 SUB SWAP1 REVERT JUMPDEST DUP1 PUSH1 0x4 DUP2 SWAP1 SSTORE POP POP JUMP JUMPDEST PUSH2 0x655 DUP3 PUSH2 0x39B JUMP JUMPDEST PUSH2 0x65E DUP2 PUSH2 0x7CF JUMP JUMPDEST PUSH2 0x668 DUP4 DUP4 PUSH2 0x8CB JUMP JUMPDEST POP POP POP JUMP JUMPDEST PUSH2 0x675 PUSH2 0x8C3 JUMP JUMPDEST PUSH20 0xFFFFFFFFFFFFFFFFFFFFFFFFFFFFFFFFFFFFFFFF AND PUSH2 0x693 PUSH2 0x52B JUMP JUMPDEST PUSH20 0xFFFFFFFFFFFFFFFFFFFFFFFFFFFFFFFFFFFFFFFF AND EQ PUSH2 0x6E9 JUMPI PUSH1 0x40 MLOAD PUSH32 0x8C379A000000000000000000000000000000000000000000000000000000000 DUP2 MSTORE PUSH1 0x4 ADD PUSH2 0x6E0 SWAP1 PUSH2 0x1121 JUMP JUMPDEST PUSH1 0x40 MLOAD DUP1 SWAP2 SUB SWAP1 REVERT JUMPDEST PUSH1 0x0 PUSH20 0xFFFFFFFFFFFFFFFFFFFFFFFFFFFFFFFFFFFFFFFF AND DUP2 PUSH20 0xFFFFFFFFFFFFFFFFFFFFFFFFFFFFFFFFFFFFFFFF AND EQ ISZERO PUSH2 0x759 JUMPI PUSH1 0x40 MLOAD PUSH32 0x8C379A000000000000000000000000000000000000000000000000000000000 DUP2 MSTORE PUSH1 0x4 ADD PUSH2 0x750 SWAP1 PUSH2 0x1101 JUMP JUMPDEST PUSH1 0x40 MLOAD DUP1 SWAP2 SUB SWAP1 REVERT JUMPDEST PUSH2 0x762 DUP2 PUSH2 0x9AD JUMP JUMPDEST POP JUMP JUMPDEST PUSH1 0x0 PUSH32 0x1FFC9A700000000000000000000000000000000000000000000000000000000 PUSH28 0xFFFFFFFFFFFFFFFFFFFFFFFFFFFFFFFFFFFFFFFFFFFFFFFFFFFFFFFF NOT AND DUP3 PUSH28 0xFFFFFFFFFFFFFFFFFFFFFFFFFFFFFFFFFFFFFFFFFFFFFFFFFFFFFFFF NOT AND EQ SWAP1 POP SWAP2 SWAP1 POP JUMP JUMPDEST PUSH2 0x7E0 DUP2 PUSH2 0x7DB PUSH2 0x8C3 JUMP JUMPDEST PUSH2 0xA71 JUMP JUMPDEST POP JUMP JUMPDEST PUSH2 0x7ED DUP3 DUP3 PUSH2 0x554 JUMP JUMPDEST PUSH2 0x8BF JUMPI PUSH1 0x1 DUP1 PUSH1 0x0 DUP5 DUP2 MSTORE PUSH1 0x20 ADD SWAP1 DUP2 MSTORE PUSH1 0x20 ADD PUSH1 0x0 KECCAK256 PUSH1 0x0 ADD PUSH1 0x0 DUP4 PUSH20 0xFFFFFFFFFFFFFFFFFFFFFFFFFFFFFFFFFFFFFFFF AND PUSH20 0xFFFFFFFFFFFFFFFFFFFFFFFFFFFFFFFFFFFFFFFF AND DUP2 MSTORE PUSH1 0x20 ADD SWAP1 DUP2 MSTORE PUSH1 0x20 ADD PUSH1 0x0 KECCAK256 PUSH1 0x0 PUSH2 0x100 EXP DUP2 SLOAD DUP2 PUSH1 0xFF MUL NOT AND SWAP1 DUP4 ISZERO ISZERO MUL OR SWAP1 SSTORE POP PUSH2 0x864 PUSH2 0x8C3 JUMP JUMPDEST PUSH20 0xFFFFFFFFFFFFFFFFFFFFFFFFFFFFFFFFFFFFFFFF AND DUP2 PUSH20 0xFFFFFFFFFFFFFFFFFFFFFFFFFFFFFFFFFFFFFFFF AND DUP4 PUSH32 0x2F8788117E7EFF1D82E926EC794901D17C78024A50270940304540A733656F0D PUSH1 0x40 MLOAD PUSH1 0x40 MLOAD DUP1 SWAP2 SUB SWAP1 LOG4 JUMPDEST POP POP JUMP JUMPDEST PUSH1 0x0 CALLER SWAP1 POP SWAP1 JUMP JUMPDEST PUSH2 0x8D5 DUP3 DUP3 PUSH2 0x554 JUMP JUMPDEST ISZERO PUSH2 0x9A9 JUMPI PUSH1 0x0 PUSH1 0x1 PUSH1 0x0 DUP5 DUP2 MSTORE PUSH1 0x20 ADD SWAP1 DUP2 MSTORE PUSH1 0x20 ADD PUSH1 0x0 KECCAK256 PUSH1 0x0 ADD PUSH1 0x0 DUP4 PUSH20 0xFFFFFFFFFFFFFFFFFFFFFFFFFFFFFFFFFFFFFFFF AND PUSH20 0xFFFFFFFFFFFFFFFFFFFFFFFFFFFFFFFFFFFFFFFF AND DUP2 MSTORE PUSH1 0x20 ADD SWAP1 DUP2 MSTORE PUSH1 0x20 ADD PUSH1 0x0 KECCAK256 PUSH1 0x0 PUSH2 0x100 EXP DUP2 SLOAD DUP2 PUSH1 0xFF MUL NOT AND SWAP1 DUP4 ISZERO ISZERO MUL OR SWAP1 SSTORE POP PUSH2 0x94E PUSH2 0x8C3 JUMP JUMPDEST PUSH20 0xFFFFFFFFFFFFFFFFFFFFFFFFFFFFFFFFFFFFFFFF AND DUP2 PUSH20 0xFFFFFFFFFFFFFFFFFFFFFFFFFFFFFFFFFFFFFFFF AND DUP4 PUSH32 0xF6391F5C32D9C69D2A47EA670B442974B53935D1EDC7FD64EB21E047A839171B PUSH1 0x40 MLOAD PUSH1 0x40 MLOAD DUP1 SWAP2 SUB SWAP1 LOG4 JUMPDEST POP POP JUMP JUMPDEST PUSH1 0x0 DUP1 PUSH1 0x0 SWAP1 SLOAD SWAP1 PUSH2 0x100 EXP SWAP1 DIV PUSH20 0xFFFFFFFFFFFFFFFFFFFFFFFFFFFFFFFFFFFFFFFF AND SWAP1 POP DUP2 PUSH1 0x0 DUP1 PUSH2 0x100 EXP DUP2 SLOAD DUP2 PUSH20 0xFFFFFFFFFFFFFFFFFFFFFFFFFFFFFFFFFFFFFFFF MUL NOT AND SWAP1 DUP4 PUSH20 0xFFFFFFFFFFFFFFFFFFFFFFFFFFFFFFFFFFFFFFFF AND MUL OR SWAP1 SSTORE POP DUP2 PUSH20 0xFFFFFFFFFFFFFFFFFFFFFFFFFFFFFFFFFFFFFFFF AND DUP2 PUSH20 0xFFFFFFFFFFFFFFFFFFFFFFFFFFFFFFFFFFFFFFFF AND PUSH32 0x8BE0079C531659141344CD1FD0A4F28419497F9722A3DAAFE3B4186F6B6457E0 PUSH1 0x40 MLOAD PUSH1 0x40 MLOAD DUP1 SWAP2 SUB SWAP1 LOG3 POP POP JUMP JUMPDEST PUSH2 0xA7B DUP3 DUP3 PUSH2 0x554 JUMP JUMPDEST PUSH2 0xB0A JUMPI PUSH2 0xAA0 DUP2 PUSH20 0xFFFFFFFFFFFFFFFFFFFFFFFFFFFFFFFFFFFFFFFF AND PUSH1 0x14 PUSH2 0xB0E JUMP JUMPDEST PUSH2 0xAAE DUP4 PUSH1 0x0 SHR PUSH1 0x20 PUSH2 0xB0E JUMP JUMPDEST PUSH1 0x40 MLOAD PUSH1 0x20 ADD PUSH2 0xABF SWAP3 SWAP2 SWAP1 PUSH2 0x1019 JUMP JUMPDEST PUSH1 0x40 MLOAD PUSH1 0x20 DUP2 DUP4 SUB SUB DUP2 MSTORE SWAP1 PUSH1 0x40 MSTORE PUSH1 0x40 MLOAD PUSH32 0x8C379A000000000000000000000000000000000000000000000000000000000 DUP2 MSTORE PUSH1 0x4 ADD PUSH2 0xB01 SWAP2 SWAP1 PUSH2 0x10BF JUMP JUMPDEST PUSH1 0x40 MLOAD DUP1 SWAP2 SUB SWAP1 REVERT JUMPDEST POP POP JUMP JUMPDEST PUSH1 0x60 PUSH1 0x0 PUSH1 0x2 DUP4 PUSH1 0x2 PUSH2 0xB21 SWAP2 SWAP1 PUSH2 0x11F9 JUMP JUMPDEST PUSH2 0xB2B SWAP2 SWAP1 PUSH2 0x11A3 JUMP JUMPDEST PUSH8 0xFFFFFFFFFFFFFFFF DUP2 GT ISZERO PUSH2 0xB44 JUMPI PUSH2 0xB43 PUSH2 0x13C2 JUMP JUMPDEST JUMPDEST PUSH1 0x40 MLOAD SWAP1 DUP1 DUP3 MSTORE DUP1 PUSH1 0x1F ADD PUSH1 0x1F NOT AND PUSH1 0x20 ADD DUP3 ADD PUSH1 0x40 MSTORE DUP1 ISZERO PUSH2 0xB76 JUMPI DUP2 PUSH1 0x20 ADD PUSH1 0x1 DUP3 MUL DUP1 CALLDATASIZE DUP4 CALLDATACOPY DUP1 DUP3 ADD SWAP2 POP POP SWAP1 POP JUMPDEST POP SWAP1 POP PUSH32 0x3000000000000000000000000000000000000000000000000000000000000000 DUP2 PUSH1 0x0 DUP2 MLOAD DUP2 LT PUSH2 0xBAE JUMPI PUSH2 0xBAD PUSH2 0x1393 JUMP JUMPDEST JUMPDEST PUSH1 0x20 ADD ADD SWAP1 PUSH31 0xFFFFFFFFFFFFFFFFFFFFFFFFFFFFFFFFFFFFFFFFFFFFFFFFFFFFFFFFFFFFFF NOT AND SWAP1 DUP2 PUSH1 0x0 BYTE SWAP1 MSTORE8 POP PUSH32 0x7800000000000000000000000000000000000000000000000000000000000000 DUP2 PUSH1 0x1 DUP2 MLOAD DUP2 LT PUSH2 0xC12 JUMPI PUSH2 0xC11 PUSH2 0x1393 JUMP JUMPDEST JUMPDEST PUSH1 0x20 ADD ADD SWAP1 PUSH31 0xFFFFFFFFFFFFFFFFFFFFFFFFFFFFFFFFFFFFFFFFFFFFFFFFFFFFFFFFFFFFFF NOT AND SWAP1 DUP2 PUSH1 0x0 BYTE SWAP1 MSTORE8 POP PUSH1 0x0 PUSH1 0x1 DUP5 PUSH1 0x2 PUSH2 0xC52 SWAP2 SWAP1 PUSH2 0x11F9 JUMP JUMPDEST PUSH2 0xC5C SWAP2 SWAP1 PUSH2 0x11A3 JUMP JUMPDEST SWAP1 POP JUMPDEST PUSH1 0x1 DUP2 GT ISZERO PUSH2 0xCFC JUMPI PUSH32 0x3031323334353637383961626364656600000000000000000000000000000000 PUSH1 0xF DUP7 AND PUSH1 0x10 DUP2 LT PUSH2 0xC9E JUMPI PUSH2 0xC9D PUSH2 0x1393 JUMP JUMPDEST JUMPDEST BYTE PUSH1 0xF8 SHL DUP3 DUP3 DUP2 MLOAD DUP2 LT PUSH2 0xCB5 JUMPI PUSH2 0xCB4 PUSH2 0x1393 JUMP JUMPDEST JUMPDEST PUSH1 0x20 ADD ADD SWAP1 PUSH31 0xFFFFFFFFFFFFFFFFFFFFFFFFFFFFFFFFFFFFFFFFFFFFFFFFFFFFFFFFFFFFFF NOT AND SWAP1 DUP2 PUSH1 0x0 BYTE SWAP1 MSTORE8 POP PUSH1 0x4 DUP6 SWAP1 SHR SWAP5 POP DUP1 PUSH2 0xCF5 SWAP1 PUSH2 0x133A JUMP JUMPDEST SWAP1 POP PUSH2 0xC5F JUMP JUMPDEST POP PUSH1 0x0 DUP5 EQ PUSH2 0xD40 JUMPI PUSH1 0x40 MLOAD PUSH32 0x8C379A000000000000000000000000000000000000000000000000000000000 DUP2 MSTORE PUSH1 0x4 ADD PUSH2 0xD37 SWAP1 PUSH2 0x10E1 JUMP JUMPDEST PUSH1 0x40 MLOAD DUP1 SWAP2 SUB SWAP1 REVERT JUMPDEST DUP1 SWAP2 POP POP SWAP3 SWAP2 POP POP JUMP JUMPDEST PUSH1 0x0 DUP2 CALLDATALOAD SWAP1 POP PUSH2 0xD59 DUP2 PUSH2 0x1549 JUMP JUMPDEST SWAP3 SWAP2 POP POP JUMP JUMPDEST PUSH1 0x0 DUP2 CALLDATALOAD SWAP1 POP PUSH2 0xD6E DUP2 PUSH2 0x1560 JUMP JUMPDEST SWAP3 SWAP2 POP POP JUMP JUMPDEST PUSH1 0x0 DUP2 CALLDATALOAD SWAP1 POP PUSH2 0xD83 DUP2 PUSH2 0x1577 JUMP JUMPDEST SWAP3 SWAP2 POP POP JUMP JUMPDEST PUSH1 0x0 DUP2 CALLDATALOAD SWAP1 POP PUSH2 0xD98 DUP2 PUSH2 0x158E JUMP JUMPDEST SWAP3 SWAP2 POP POP JUMP JUMPDEST PUSH1 0x0 PUSH1 0x20 DUP3 DUP5 SUB SLT ISZERO PUSH2 0xDB4 JUMPI PUSH2 0xDB3 PUSH2 0x13F1 JUMP JUMPDEST JUMPDEST PUSH1 0x0 PUSH2 0xDC2 DUP5 DUP3 DUP6 ADD PUSH2 0xD4A JUMP JUMPDEST SWAP2 POP POP SWAP3 SWAP2 POP POP JUMP JUMPDEST PUSH1 0x0 PUSH1 0x20 DUP3 DUP5 SUB SLT ISZERO PUSH2 0xDE1 JUMPI PUSH2 0xDE0 PUSH2 0x13F1 JUMP JUMPDEST JUMPDEST PUSH1 0x0 PUSH2 0xDEF DUP5 DUP3 DUP6 ADD PUSH2 0xD5F JUMP JUMPDEST SWAP2 POP POP SWAP3 SWAP2 POP POP JUMP JUMPDEST PUSH1 0x0 DUP1 PUSH1 0x40 DUP4 DUP6 SUB SLT ISZERO PUSH2 0xE0F JUMPI PUSH2 0xE0E PUSH2 0x13F1 JUMP JUMPDEST JUMPDEST PUSH1 0x0 PUSH2 0xE1D DUP6 DUP3 DUP7 ADD PUSH2 0xD5F JUMP JUMPDEST SWAP3 POP POP PUSH1 0x20 PUSH2 0xE2E DUP6 DUP3 DUP7 ADD PUSH2 0xD4A JUMP JUMPDEST SWAP2 POP POP SWAP3 POP SWAP3 SWAP1 POP JUMP JUMPDEST PUSH1 0x0 PUSH1 0x20 DUP3 DUP5 SUB SLT ISZERO PUSH2 0xE4E JUMPI PUSH2 0xE4D PUSH2 0x13F1 JUMP JUMPDEST JUMPDEST PUSH1 0x0 PUSH2 0xE5C DUP5 DUP3 DUP6 ADD PUSH2 0xD74 JUMP JUMPDEST SWAP2 POP POP SWAP3 SWAP2 POP POP JUMP JUMPDEST PUSH1 0x0 PUSH1 0x20 DUP3 DUP5 SUB SLT ISZERO PUSH2 0xE7B JUMPI PUSH2 0xE7A PUSH2 0x13F1 JUMP JUMPDEST JUMPDEST PUSH1 0x0 PUSH2 0xE89 DUP5 DUP3 DUP6 ADD PUSH2 0xD89 JUMP JUMPDEST SWAP2 POP POP SWAP3 SWAP2 POP POP JUMP JUMPDEST PUSH2 0xE9B DUP2 PUSH2 0x1253 JUMP JUMPDEST DUP3 MSTORE POP POP JUMP JUMPDEST PUSH2 0xEAA DUP2 PUSH2 0x1265 JUMP JUMPDEST DUP3 MSTORE POP POP JUMP JUMPDEST PUSH2 0xEB9 DUP2 PUSH2 0x1271 JUMP JUMPDEST DUP3 MSTORE POP POP JUMP JUMPDEST PUSH2 0xEC8 DUP2 PUSH2 0x12D1 JUMP JUMPDEST DUP3 MSTORE POP POP JUMP JUMPDEST PUSH1 0x0 PUSH2 0xED9 DUP3 PUSH2 0x117C JUMP JUMPDEST PUSH2 0xEE3 DUP2 DUP6 PUSH2 0x1187 JUMP JUMPDEST SWAP4 POP PUSH2 0xEF3 DUP2 DUP6 PUSH1 0x20 DUP7 ADD PUSH2 0x1307 JUMP JUMPDEST PUSH2 0xEFC DUP2 PUSH2 0x13F6 JUMP JUMPDEST DUP5 ADD SWAP2 POP POP SWAP3 SWAP2 POP POP JUMP JUMPDEST PUSH1 0x0 PUSH2 0xF12 DUP3 PUSH2 0x117C JUMP JUMPDEST PUSH2 0xF1C DUP2 DUP6 PUSH2 0x1198 JUMP JUMPDEST SWAP4 POP PUSH2 0xF2C DUP2 DUP6 PUSH1 0x20 DUP7 ADD PUSH2 0x1307 JUMP JUMPDEST DUP1 DUP5 ADD SWAP2 POP POP SWAP3 SWAP2 POP POP JUMP JUMPDEST PUSH1 0x0 PUSH2 0xF45 PUSH1 0x20 DUP4 PUSH2 0x1187 JUMP JUMPDEST SWAP2 POP PUSH2 0xF50 DUP3 PUSH2 0x1407 JUMP JUMPDEST PUSH1 0x20 DUP3 ADD SWAP1 POP SWAP2 SWAP1 POP JUMP JUMPDEST PUSH1 0x0 PUSH2 0xF68 PUSH1 0x26 DUP4 PUSH2 0x1187 JUMP JUMPDEST SWAP2 POP PUSH2 0xF73 DUP3 PUSH2 0x1430 JUMP JUMPDEST PUSH1 0x40 DUP3 ADD SWAP1 POP SWAP2 SWAP1 POP JUMP JUMPDEST PUSH1 0x0 PUSH2 0xF8B PUSH1 0x20 DUP4 PUSH2 0x1187 JUMP JUMPDEST SWAP2 POP PUSH2 0xF96 DUP3 PUSH2 0x147F JUMP JUMPDEST PUSH1 0x20 DUP3 ADD SWAP1 POP SWAP2 SWAP1 POP JUMP JUMPDEST PUSH1 0x0 PUSH2 0xFAE PUSH1 0x17 DUP4 PUSH2 0x1198 JUMP JUMPDEST SWAP2 POP PUSH2 0xFB9 DUP3 PUSH2 0x14A8 JUMP JUMPDEST PUSH1 0x17 DUP3 ADD SWAP1 POP SWAP2 SWAP1 POP JUMP JUMPDEST PUSH1 0x0 PUSH2 0xFD1 PUSH1 0x11 DUP4 PUSH2 0x1198 JUMP JUMPDEST SWAP2 POP PUSH2 0xFDC DUP3 PUSH2 0x14D1 JUMP JUMPDEST PUSH1 0x11 DUP3 ADD SWAP1 POP SWAP2 SWAP1 POP JUMP JUMPDEST PUSH1 0x0 PUSH2 0xFF4 PUSH1 0x2F DUP4 PUSH2 0x1187 JUMP JUMPDEST SWAP2 POP PUSH2 0xFFF DUP3 PUSH2 0x14FA JUMP JUMPDEST PUSH1 0x40 DUP3 ADD SWAP1 POP SWAP2 SWAP1 POP JUMP JUMPDEST PUSH2 0x1013 DUP2 PUSH2 0x12C7 JUMP JUMPDEST DUP3 MSTORE POP POP JUMP JUMPDEST PUSH1 0x0 PUSH2 0x1024 DUP3 PUSH2 0xFA1 JUMP JUMPDEST SWAP2 POP PUSH2 0x1030 DUP3 DUP6 PUSH2 0xF07 JUMP JUMPDEST SWAP2 POP PUSH2 0x103B DUP3 PUSH2 0xFC4 JUMP JUMPDEST SWAP2 POP PUSH2 0x1047 DUP3 DUP5 PUSH2 0xF07 JUMP JUMPDEST SWAP2 POP DUP2 SWAP1 POP SWAP4 SWAP3 POP POP POP JUMP JUMPDEST PUSH1 0x0 PUSH1 0x20 DUP3 ADD SWAP1 POP PUSH2 0x1068 PUSH1 0x0 DUP4 ADD DUP5 PUSH2 0xE92 JUMP JUMPDEST SWAP3 SWAP2 POP POP JUMP JUMPDEST PUSH1 0x0 PUSH1 0x20 DUP3 ADD SWAP1 POP PUSH2 0x1083 PUSH1 0x0 DUP4 ADD DUP5 PUSH2 0xEA1 JUMP JUMPDEST SWAP3 SWAP2 POP POP JUMP JUMPDEST PUSH1 0x0 PUSH1 0x20 DUP3 ADD SWAP1 POP PUSH2 0x109E PUSH1 0x0 DUP4 ADD DUP5 PUSH2 0xEB0 JUMP JUMPDEST SWAP3 SWAP2 POP POP JUMP JUMPDEST PUSH1 0x0 PUSH1 0x20 DUP3 ADD SWAP1 POP PUSH2 0x10B9 PUSH1 0x0 DUP4 ADD DUP5 PUSH2 0xEBF JUMP JUMPDEST SWAP3 SWAP2 POP POP JUMP JUMPDEST PUSH1 0x0 PUSH1 0x20 DUP3 ADD SWAP1 POP DUP2 DUP2 SUB PUSH1 0x0 DUP4 ADD MSTORE PUSH2 0x10D9 DUP2 DUP5 PUSH2 0xECE JUMP JUMPDEST SWAP1 POP SWAP3 SWAP2 POP POP JUMP JUMPDEST PUSH1 0x0 PUSH1 0x20 DUP3 ADD SWAP1 POP DUP2 DUP2 SUB PUSH1 0x0 DUP4 ADD MSTORE PUSH2 0x10FA DUP2 PUSH2 0xF38 JUMP JUMPDEST SWAP1 POP SWAP2 SWAP1 POP JUMP JUMPDEST PUSH1 0x0 PUSH1 0x20 DUP3 ADD SWAP1 POP DUP2 DUP2 SUB PUSH1 0x0 DUP4 ADD MSTORE PUSH2 0x111A DUP2 PUSH2 0xF5B JUMP JUMPDEST SWAP1 POP SWAP2 SWAP1 POP JUMP JUMPDEST PUSH1 0x0 PUSH1 0x20 DUP3 ADD SWAP1 POP DUP2 DUP2 SUB PUSH1 0x0 DUP4 ADD MSTORE PUSH2 0x113A DUP2 PUSH2 0xF7E JUMP JUMPDEST SWAP1 POP SWAP2 SWAP1 POP JUMP JUMPDEST PUSH1 0x0 PUSH1 0x20 DUP3 ADD SWAP1 POP DUP2 DUP2 SUB PUSH1 0x0 DUP4 ADD MSTORE PUSH2 0x115A DUP2 PUSH2 0xFE7 JUMP JUMPDEST SWAP1 POP SWAP2 SWAP1 POP JUMP JUMPDEST PUSH1 0x0 PUSH1 0x20 DUP3 ADD SWAP1 POP PUSH2 0x1176 PUSH1 0x0 DUP4 ADD DUP5 PUSH2 0x100A JUMP JUMPDEST SWAP3 SWAP2 POP POP JUMP JUMPDEST PUSH1 0x0 DUP2 MLOAD SWAP1 POP SWAP2 SWAP1 POP JUMP JUMPDEST PUSH1 0x0 DUP3 DUP3 MSTORE PUSH1 0x20 DUP3 ADD SWAP1 POP SWAP3 SWAP2 POP POP JUMP JUMPDEST PUSH1 0x0 DUP2 SWAP1 POP SWAP3 SWAP2 POP POP JUMP JUMPDEST PUSH1 0x0 PUSH2 0x11AE DUP3 PUSH2 0x12C7 JUMP JUMPDEST SWAP2 POP PUSH2 0x11B9 DUP4 PUSH2 0x12C7 JUMP JUMPDEST SWAP3 POP DUP3 PUSH32 0xFFFFFFFFFFFFFFFFFFFFFFFFFFFFFFFFFFFFFFFFFFFFFFFFFFFFFFFFFFFFFFFF SUB DUP3 GT ISZERO PUSH2 0x11EE JUMPI PUSH2 0x11ED PUSH2 0x1364 JUMP JUMPDEST JUMPDEST DUP3 DUP3 ADD SWAP1 POP SWAP3 SWAP2 POP POP JUMP JUMPDEST PUSH1 0x0 PUSH2 0x1204 DUP3 PUSH2 0x12C7 JUMP JUMPDEST SWAP2 POP PUSH2 0x120F DUP4 PUSH2 0x12C7 JUMP JUMPDEST SWAP3 POP DUP2 PUSH32 0xFFFFFFFFFFFFFFFFFFFFFFFFFFFFFFFFFFFFFFFFFFFFFFFFFFFFFFFFFFFFFFFF DIV DUP4 GT DUP3 ISZERO ISZERO AND ISZERO PUSH2 0x1248 JUMPI PUSH2 0x1247 PUSH2 0x1364 JUMP JUMPDEST JUMPDEST DUP3 DUP3 MUL SWAP1 POP SWAP3 SWAP2 POP POP JUMP JUMPDEST PUSH1 0x0 PUSH2 0x125E DUP3 PUSH2 0x12A7 JUMP JUMPDEST SWAP1 POP SWAP2 SWAP1 POP JUMP JUMPDEST PUSH1 0x0 DUP2 ISZERO ISZERO SWAP1 POP SWAP2 SWAP1 POP JUMP JUMPDEST PUSH1 0x0 DUP2 SWAP1 POP SWAP2 SWAP1 POP JUMP JUMPDEST PUSH1 0x0 PUSH32 0xFFFFFFFF00000000000000000000000000000000000000000000000000000000 DUP3 AND SWAP1 POP SWAP2 SWAP1 POP JUMP JUMPDEST PUSH1 0x0 PUSH20 0xFFFFFFFFFFFFFFFFFFFFFFFFFFFFFFFFFFFFFFFF DUP3 AND SWAP1 POP SWAP2 SWAP1 POP JUMP JUMPDEST PUSH1 0x0 DUP2 SWAP1 POP SWAP2 SWAP1 POP JUMP JUMPDEST PUSH1 0x0 PUSH2 0x12DC DUP3 PUSH2 0x12E3 JUMP JUMPDEST SWAP1 POP SWAP2 SWAP1 POP JUMP JUMPDEST PUSH1 0x0 PUSH2 0x12EE DUP3 PUSH2 0x12F5 JUMP JUMPDEST SWAP1 POP SWAP2 SWAP1 POP JUMP JUMPDEST PUSH1 0x0 PUSH2 0x1300 DUP3 PUSH2 0x12A7 JUMP JUMPDEST SWAP1 POP SWAP2 SWAP1 POP JUMP JUMPDEST PUSH1 0x0 JUMPDEST DUP4 DUP2 LT ISZERO PUSH2 0x1325 JUMPI DUP1 DUP3 ADD MLOAD DUP2 DUP5 ADD MSTORE PUSH1 0x20 DUP2 ADD SWAP1 POP PUSH2 0x130A JUMP JUMPDEST DUP4 DUP2 GT ISZERO PUSH2 0x1334 JUMPI PUSH1 0x0 DUP5 DUP5 ADD MSTORE JUMPDEST POP POP POP POP JUMP JUMPDEST PUSH1 0x0 PUSH2 0x1345 DUP3 PUSH2 0x12C7 JUMP JUMPDEST SWAP2 POP PUSH1 0x0 DUP3 EQ ISZERO PUSH2 0x1359 JUMPI PUSH2 0x1358 PUSH2 0x1364 JUMP JUMPDEST JUMPDEST PUSH1 0x1 DUP3 SUB SWAP1 POP SWAP2 SWAP1 POP JUMP JUMPDEST PUSH32 0x4E487B7100000000000000000000000000000000000000000000000000000000 PUSH1 0x0 MSTORE PUSH1 0x11 PUSH1 0x4 MSTORE PUSH1 0x24 PUSH1 0x0 REVERT JUMPDEST PUSH32 0x4E487B7100000000000000000000000000000000000000000000000000000000 PUSH1 0x0 MSTORE PUSH1 0x32 PUSH1 0x4 MSTORE PUSH1 0x24 PUSH1 0x0 REVERT JUMPDEST PUSH32 0x4E487B7100000000000000000000000000000000000000000000000000000000 PUSH1 0x0 MSTORE PUSH1 0x41 PUSH1 0x4 MSTORE PUSH1 0x24 PUSH1 0x0 REVERT JUMPDEST PUSH1 0x0 DUP1 REVERT JUMPDEST PUSH1 0x0 PUSH1 0x1F NOT PUSH1 0x1F DUP4 ADD AND SWAP1 POP SWAP2 SWAP1 POP JUMP JUMPDEST PUSH32 0x537472696E67733A20686578206C656E67746820696E73756666696369656E74 PUSH1 0x0 DUP3 ADD MSTORE POP JUMP JUMPDEST PUSH32 0x4F776E61626C653A206E6577206F776E657220697320746865207A65726F2061 PUSH1 0x0 DUP3 ADD MSTORE PUSH32 0x6464726573730000000000000000000000000000000000000000000000000000 PUSH1 0x20 DUP3 ADD MSTORE POP JUMP JUMPDEST PUSH32 0x4F776E61626C653A2063616C6C6572206973206E6F7420746865206F776E6572 PUSH1 0x0 DUP3 ADD MSTORE POP JUMP JUMPDEST PUSH32 0x416363657373436F6E74726F6C3A206163636F756E7420000000000000000000 PUSH1 0x0 DUP3 ADD MSTORE POP JUMP JUMPDEST PUSH32 0x206973206D697373696E6720726F6C6520000000000000000000000000000000 PUSH1 0x0 DUP3 ADD MSTORE POP JUMP JUMPDEST PUSH32 0x416363657373436F6E74726F6C3A2063616E206F6E6C792072656E6F756E6365 PUSH1 0x0 DUP3 ADD MSTORE PUSH32 0x20726F6C657320666F722073656C660000000000000000000000000000000000 PUSH1 0x20 DUP3 ADD MSTORE POP JUMP JUMPDEST PUSH2 0x1552 DUP2 PUSH2 0x1253 JUMP JUMPDEST DUP2 EQ PUSH2 0x155D JUMPI PUSH1 0x0 DUP1 REVERT JUMPDEST POP JUMP JUMPDEST PUSH2 0x1569 DUP2 PUSH2 0x1271 JUMP JUMPDEST DUP2 EQ PUSH2 0x1574 JUMPI PUSH1 0x0 DUP1 REVERT JUMPDEST POP JUMP JUMPDEST PUSH2 0x1580 DUP2 PUSH2 0x127B JUMP JUMPDEST DUP2 EQ PUSH2 0x158B JUMPI PUSH1 0x0 DUP1 REVERT JUMPDEST POP JUMP JUMPDEST PUSH2 0x1597 DUP2 PUSH2 0x12C7 JUMP JUMPDEST DUP2 EQ PUSH2 0x15A2 JUMPI PUSH1 0x0 DUP1 REVERT JUMPDEST POP JUMP INVALID LOG2 PUSH5 0x6970667358 0x22 SLT KECCAK256 INVALID 0x5C DELEGATECALL 0xC7 ADDMOD SWAP9 SWAP11 0xE0 0xC6 0xEA CREATE2 PUSH23 0xC90AAC75578F6934057F087A2525C82EDDE295CD64736F PUSH13 0x63430008070033000000000000 "
				},
				"gasEstimates": {
					"creation": {
						"codeDepositCost": "1119000",
						"executionCost": "infinite",
						"totalCost": "infinite"
					},
					"external": {
						"DEFAULT_ADMIN_ROLE()": "357",
						"ORACLE()": "374",
						"WeirdToken()": "2646",
						"claim()": "233",
						"getRoleAdmin(bytes32)": "infinite",
						"grantRole(bytes32,address)": "infinite",
						"hasRole(bytes32,address)": "3229",
						"lastClaimed(uint256)": "infinite",
						"owner()": "2589",
						"renounceOwnership()": "30419",
						"renounceRole(bytes32,address)": "infinite",
						"revokeRole(bytes32,address)": "infinite",
						"setTokensPerSecond(uint256)": "24804",
						"supportsInterface(bytes4)": "751",
						"tokensPerSecond()": "2496",
						"transferOwnership(address)": "30811"
					}
				},
				"methodIdentifiers": {
					"DEFAULT_ADMIN_ROLE()": "a217fddf",
					"ORACLE()": "38013f02",
					"WeirdToken()": "153252ec",
					"claim()": "4e71d92d",
					"getRoleAdmin(bytes32)": "248a9ca3",
					"grantRole(bytes32,address)": "2f2ff15d",
					"hasRole(bytes32,address)": "91d14854",
					"lastClaimed(uint256)": "52049ace",
					"owner()": "8da5cb5b",
					"renounceOwnership()": "715018a6",
					"renounceRole(bytes32,address)": "36568abe",
					"revokeRole(bytes32,address)": "d547741f",
					"setTokensPerSecond(uint256)": "b713f8cf",
					"supportsInterface(bytes4)": "01ffc9a7",
					"tokensPerSecond()": "4d8d9e92",
					"transferOwnership(address)": "f2fde38b"
				}
			},
			"userdoc": {
				"kind": "user",
				"methods": {},
				"version": 1
			}
		}
	}
}