{
	"polygon token claim/Weird Claiming.sol": {
		"WeirdClaiming": {
			"abi": [
				{
					"anonymous": false,
					"inputs": [
						{
							"indexed": true,
							"internalType": "address",
							"name": "previousOwner",
							"type": "address"
						},
						{
							"indexed": true,
							"internalType": "address",
							"name": "newOwner",
							"type": "address"
						}
					],
					"name": "OwnershipTransferred",
					"type": "event"
				},
				{
					"inputs": [],
					"name": "WeirdToken",
					"outputs": [
						{
							"internalType": "contract ERC20",
							"name": "",
							"type": "address"
						}
					],
					"stateMutability": "view",
					"type": "function"
				},
				{
					"inputs": [],
					"name": "owner",
					"outputs": [
						{
							"internalType": "address",
							"name": "",
							"type": "address"
						}
					],
					"stateMutability": "view",
					"type": "function"
				},
				{
					"inputs": [],
					"name": "renounceOwnership",
					"outputs": [],
					"stateMutability": "nonpayable",
					"type": "function"
				},
				{
					"inputs": [
						{
							"internalType": "address",
							"name": "newOwner",
							"type": "address"
						}
					],
					"name": "transferOwnership",
					"outputs": [],
					"stateMutability": "nonpayable",
					"type": "function"
				}
			],
			"devdoc": {
				"kind": "dev",
				"methods": {
					"owner()": {
						"details": "Returns the address of the current owner."
					},
					"renounceOwnership()": {
						"details": "Leaves the contract without owner. It will not be possible to call `onlyOwner` functions anymore. Can only be called by the current owner. NOTE: Renouncing ownership will leave the contract without an owner, thereby removing any functionality that is only available to the owner."
					},
					"transferOwnership(address)": {
						"details": "Transfers ownership of the contract to a new account (`newOwner`). Can only be called by the current owner."
					}
				},
				"version": 1
			},
			"evm": {
				"assembly": "    /* \"polygon token claim/Weird Claiming.sol\":730:854  contract WeirdClaiming is Ownable {\r... */\n  mstore(0x40, 0x80)\n    /* \"polygon token claim/Weird Claiming.sol\":803:845  0xcB8BCDb991B45bF5D78000a0b5C0A6686cE43790 */\n  0xcb8bcdb991b45bf5d78000a0b5c0a6686ce43790\n    /* \"polygon token claim/Weird Claiming.sol\":771:846  ERC20 public WeirdToken = ERC20(0xcB8BCDb991B45bF5D78000a0b5C0A6686cE43790) */\n  0x01\n  exp(0x0100, 0x00)\n  dup2\n  sload\n  dup2\n  0xffffffffffffffffffffffffffffffffffffffff\n  mul\n  not\n  and\n  swap1\n  dup4\n  0xffffffffffffffffffffffffffffffffffffffff\n  and\n  mul\n  or\n  swap1\n  sstore\n  pop\n    /* \"polygon token claim/Weird Claiming.sol\":730:854  contract WeirdClaiming is Ownable {\r... */\n  callvalue\n  dup1\n  iszero\n  tag_1\n  jumpi\n  0x00\n  dup1\n  revert\ntag_1:\n  pop\n    /* \"polygon token claim/Ownable.sol\":942:974  _transferOwnership(_msgSender()) */\n  tag_4\n    /* \"polygon token claim/Ownable.sol\":961:973  _msgSender() */\n  tag_5\n    /* \"polygon token claim/Ownable.sol\":961:971  _msgSender */\n  shl(0x20, tag_6)\n    /* \"polygon token claim/Ownable.sol\":961:973  _msgSender() */\n  0x20\n  shr\n  jump\t// in\ntag_5:\n    /* \"polygon token claim/Ownable.sol\":942:960  _transferOwnership */\n  shl(0x20, tag_7)\n    /* \"polygon token claim/Ownable.sol\":942:974  _transferOwnership(_msgSender()) */\n  0x20\n  shr\n  jump\t// in\ntag_4:\n    /* \"polygon token claim/Weird Claiming.sol\":730:854  contract WeirdClaiming is Ownable {\r... */\n  jump(tag_8)\n    /* \"polygon token claim/Context.sol\":656:754  function _msgSender() internal view virtual returns (address) {\r... */\ntag_6:\n    /* \"polygon token claim/Context.sol\":709:716  address */\n  0x00\n    /* \"polygon token claim/Context.sol\":736:746  msg.sender */\n  caller\n    /* \"polygon token claim/Context.sol\":729:746  return msg.sender */\n  swap1\n  pop\n    /* \"polygon token claim/Context.sol\":656:754  function _msgSender() internal view virtual returns (address) {\r... */\n  swap1\n  jump\t// out\n    /* \"polygon token claim/Ownable.sol\":2333:2524  function _transferOwnership(address newOwner) internal virtual {\r... */\ntag_7:\n    /* \"polygon token claim/Ownable.sol\":2407:2423  address oldOwner */\n  0x00\n    /* \"polygon token claim/Ownable.sol\":2426:2432  _owner */\n  dup1\n  0x00\n  swap1\n  sload\n  swap1\n  0x0100\n  exp\n  swap1\n  div\n  0xffffffffffffffffffffffffffffffffffffffff\n  and\n    /* \"polygon token claim/Ownable.sol\":2407:2432  address oldOwner = _owner */\n  swap1\n  pop\n    /* \"polygon token claim/Ownable.sol\":2452:2460  newOwner */\n  dup2\n    /* \"polygon token claim/Ownable.sol\":2443:2449  _owner */\n  0x00\n  dup1\n    /* \"polygon token claim/Ownable.sol\":2443:2460  _owner = newOwner */\n  0x0100\n  exp\n  dup2\n  sload\n  dup2\n  0xffffffffffffffffffffffffffffffffffffffff\n  mul\n  not\n  and\n  swap1\n  dup4\n  0xffffffffffffffffffffffffffffffffffffffff\n  and\n  mul\n  or\n  swap1\n  sstore\n  pop\n    /* \"polygon token claim/Ownable.sol\":2507:2515  newOwner */\n  dup2\n    /* \"polygon token claim/Ownable.sol\":2476:2516  OwnershipTransferred(oldOwner, newOwner) */\n  0xffffffffffffffffffffffffffffffffffffffff\n  and\n    /* \"polygon token claim/Ownable.sol\":2497:2505  oldOwner */\n  dup2\n    /* \"polygon token claim/Ownable.sol\":2476:2516  OwnershipTransferred(oldOwner, newOwner) */\n  0xffffffffffffffffffffffffffffffffffffffff\n  and\n  0x8be0079c531659141344cd1fd0a4f28419497f9722a3daafe3b4186f6b6457e0\n  mload(0x40)\n  mload(0x40)\n  dup1\n  swap2\n  sub\n  swap1\n  log3\n    /* \"polygon token claim/Ownable.sol\":2396:2524  {\r... */\n  pop\n    /* \"polygon token claim/Ownable.sol\":2333:2524  function _transferOwnership(address newOwner) internal virtual {\r... */\n  pop\n  jump\t// out\n    /* \"polygon token claim/Weird Claiming.sol\":730:854  contract WeirdClaiming is Ownable {\r... */\ntag_8:\n  dataSize(sub_0)\n  dup1\n  dataOffset(sub_0)\n  0x00\n  codecopy\n  0x00\n  return\nstop\n\nsub_0: assembly {\n        /* \"polygon token claim/Weird Claiming.sol\":730:854  contract WeirdClaiming is Ownable {\r... */\n      mstore(0x40, 0x80)\n      callvalue\n      dup1\n      iszero\n      tag_1\n      jumpi\n      0x00\n      dup1\n      revert\n    tag_1:\n      pop\n      jumpi(tag_2, lt(calldatasize, 0x04))\n      shr(0xe0, calldataload(0x00))\n      dup1\n      0x153252ec\n      eq\n      tag_3\n      jumpi\n      dup1\n      0x715018a6\n      eq\n      tag_4\n      jumpi\n      dup1\n      0x8da5cb5b\n      eq\n      tag_5\n      jumpi\n      dup1\n      0xf2fde38b\n      eq\n      tag_6\n      jumpi\n    tag_2:\n      0x00\n      dup1\n      revert\n        /* \"polygon token claim/Weird Claiming.sol\":771:846  ERC20 public WeirdToken = ERC20(0xcB8BCDb991B45bF5D78000a0b5C0A6686cE43790) */\n    tag_3:\n      tag_7\n      tag_8\n      jump\t// in\n    tag_7:\n      mload(0x40)\n      tag_9\n      swap2\n      swap1\n      tag_10\n      jump\t// in\n    tag_9:\n      mload(0x40)\n      dup1\n      swap2\n      sub\n      swap1\n      return\n        /* \"polygon token claim/Ownable.sol\":1714:1817  function renounceOwnership() public virtual onlyOwner {\r... */\n    tag_4:\n      tag_11\n      tag_12\n      jump\t// in\n    tag_11:\n      stop\n        /* \"polygon token claim/Ownable.sol\":1063:1150  function owner() public view virtual returns (address) {\r... */\n    tag_5:\n      tag_13\n      tag_14\n      jump\t// in\n    tag_13:\n      mload(0x40)\n      tag_15\n      swap2\n      swap1\n      tag_16\n      jump\t// in\n    tag_15:\n      mload(0x40)\n      dup1\n      swap2\n      sub\n      swap1\n      return\n        /* \"polygon token claim/Ownable.sol\":1972:2173  function transferOwnership(address newOwner) public virtual onlyOwner {\r... */\n    tag_6:\n      tag_17\n      0x04\n      dup1\n      calldatasize\n      sub\n      dup2\n      add\n      swap1\n      tag_18\n      swap2\n      swap1\n      tag_19\n      jump\t// in\n    tag_18:\n      tag_20\n      jump\t// in\n    tag_17:\n      stop\n        /* \"polygon token claim/Weird Claiming.sol\":771:846  ERC20 public WeirdToken = ERC20(0xcB8BCDb991B45bF5D78000a0b5C0A6686cE43790) */\n    tag_8:\n      0x01\n      0x00\n      swap1\n      sload\n      swap1\n      0x0100\n      exp\n      swap1\n      div\n      0xffffffffffffffffffffffffffffffffffffffff\n      and\n      dup2\n      jump\t// out\n        /* \"polygon token claim/Ownable.sol\":1714:1817  function renounceOwnership() public virtual onlyOwner {\r... */\n    tag_12:\n        /* \"polygon token claim/Ownable.sol\":1294:1306  _msgSender() */\n      tag_22\n        /* \"polygon token claim/Ownable.sol\":1294:1304  _msgSender */\n      tag_23\n        /* \"polygon token claim/Ownable.sol\":1294:1306  _msgSender() */\n      jump\t// in\n    tag_22:\n        /* \"polygon token claim/Ownable.sol\":1283:1306  owner() == _msgSender() */\n      0xffffffffffffffffffffffffffffffffffffffff\n      and\n        /* \"polygon token claim/Ownable.sol\":1283:1290  owner() */\n      tag_24\n        /* \"polygon token claim/Ownable.sol\":1283:1288  owner */\n      tag_14\n        /* \"polygon token claim/Ownable.sol\":1283:1290  owner() */\n      jump\t// in\n    tag_24:\n        /* \"polygon token claim/Ownable.sol\":1283:1306  owner() == _msgSender() */\n      0xffffffffffffffffffffffffffffffffffffffff\n      and\n      eq\n        /* \"polygon token claim/Ownable.sol\":1275:1343  require(owner() == _msgSender(), \"Ownable: caller is not the owner\") */\n      tag_25\n      jumpi\n      mload(0x40)\n      0x08c379a000000000000000000000000000000000000000000000000000000000\n      dup2\n      mstore\n      0x04\n      add\n      tag_26\n      swap1\n      tag_27\n      jump\t// in\n    tag_26:\n      mload(0x40)\n      dup1\n      swap2\n      sub\n      swap1\n      revert\n    tag_25:\n        /* \"polygon token claim/Ownable.sol\":1779:1809  _transferOwnership(address(0)) */\n      tag_29\n        /* \"polygon token claim/Ownable.sol\":1806:1807  0 */\n      0x00\n        /* \"polygon token claim/Ownable.sol\":1779:1797  _transferOwnership */\n      tag_30\n        /* \"polygon token claim/Ownable.sol\":1779:1809  _transferOwnership(address(0)) */\n      jump\t// in\n    tag_29:\n        /* \"polygon token claim/Ownable.sol\":1714:1817  function renounceOwnership() public virtual onlyOwner {\r... */\n      jump\t// out\n        /* \"polygon token claim/Ownable.sol\":1063:1150  function owner() public view virtual returns (address) {\r... */\n    tag_14:\n        /* \"polygon token claim/Ownable.sol\":1109:1116  address */\n      0x00\n        /* \"polygon token claim/Ownable.sol\":1136:1142  _owner */\n      dup1\n      0x00\n      swap1\n      sload\n      swap1\n      0x0100\n      exp\n      swap1\n      div\n      0xffffffffffffffffffffffffffffffffffffffff\n      and\n        /* \"polygon token claim/Ownable.sol\":1129:1142  return _owner */\n      swap1\n      pop\n        /* \"polygon token claim/Ownable.sol\":1063:1150  function owner() public view virtual returns (address) {\r... */\n      swap1\n      jump\t// out\n        /* \"polygon token claim/Ownable.sol\":1972:2173  function transferOwnership(address newOwner) public virtual onlyOwner {\r... */\n    tag_20:\n        /* \"polygon token claim/Ownable.sol\":1294:1306  _msgSender() */\n      tag_33\n        /* \"polygon token claim/Ownable.sol\":1294:1304  _msgSender */\n      tag_23\n        /* \"polygon token claim/Ownable.sol\":1294:1306  _msgSender() */\n      jump\t// in\n    tag_33:\n        /* \"polygon token claim/Ownable.sol\":1283:1306  owner() == _msgSender() */\n      0xffffffffffffffffffffffffffffffffffffffff\n      and\n        /* \"polygon token claim/Ownable.sol\":1283:1290  owner() */\n      tag_34\n        /* \"polygon token claim/Ownable.sol\":1283:1288  owner */\n      tag_14\n        /* \"polygon token claim/Ownable.sol\":1283:1290  owner() */\n      jump\t// in\n    tag_34:\n        /* \"polygon token claim/Ownable.sol\":1283:1306  owner() == _msgSender() */\n      0xffffffffffffffffffffffffffffffffffffffff\n      and\n      eq\n        /* \"polygon token claim/Ownable.sol\":1275:1343  require(owner() == _msgSender(), \"Ownable: caller is not the owner\") */\n      tag_35\n      jumpi\n      mload(0x40)\n      0x08c379a000000000000000000000000000000000000000000000000000000000\n      dup2\n      mstore\n      0x04\n      add\n      tag_36\n      swap1\n      tag_27\n      jump\t// in\n    tag_36:\n      mload(0x40)\n      dup1\n      swap2\n      sub\n      swap1\n      revert\n    tag_35:\n        /* \"polygon token claim/Ownable.sol\":2081:2082  0 */\n      0x00\n        /* \"polygon token claim/Ownable.sol\":2061:2083  newOwner != address(0) */\n      0xffffffffffffffffffffffffffffffffffffffff\n      and\n        /* \"polygon token claim/Ownable.sol\":2061:2069  newOwner */\n      dup2\n        /* \"polygon token claim/Ownable.sol\":2061:2083  newOwner != address(0) */\n      0xffffffffffffffffffffffffffffffffffffffff\n      and\n      eq\n      iszero\n        /* \"polygon token claim/Ownable.sol\":2053:2126  require(newOwner != address(0), \"Ownable: new owner is the zero address\") */\n      tag_38\n      jumpi\n      mload(0x40)\n      0x08c379a000000000000000000000000000000000000000000000000000000000\n      dup2\n      mstore\n      0x04\n      add\n      tag_39\n      swap1\n      tag_40\n      jump\t// in\n    tag_39:\n      mload(0x40)\n      dup1\n      swap2\n      sub\n      swap1\n      revert\n    tag_38:\n        /* \"polygon token claim/Ownable.sol\":2137:2165  _transferOwnership(newOwner) */\n      tag_41\n        /* \"polygon token claim/Ownable.sol\":2156:2164  newOwner */\n      dup2\n        /* \"polygon token claim/Ownable.sol\":2137:2155  _transferOwnership */\n      tag_30\n        /* \"polygon token claim/Ownable.sol\":2137:2165  _transferOwnership(newOwner) */\n      jump\t// in\n    tag_41:\n        /* \"polygon token claim/Ownable.sol\":1972:2173  function transferOwnership(address newOwner) public virtual onlyOwner {\r... */\n      pop\n      jump\t// out\n        /* \"polygon token claim/Context.sol\":656:754  function _msgSender() internal view virtual returns (address) {\r... */\n    tag_23:\n        /* \"polygon token claim/Context.sol\":709:716  address */\n      0x00\n        /* \"polygon token claim/Context.sol\":736:746  msg.sender */\n      caller\n        /* \"polygon token claim/Context.sol\":729:746  return msg.sender */\n      swap1\n      pop\n        /* \"polygon token claim/Context.sol\":656:754  function _msgSender() internal view virtual returns (address) {\r... */\n      swap1\n      jump\t// out\n        /* \"polygon token claim/Ownable.sol\":2333:2524  function _transferOwnership(address newOwner) internal virtual {\r... */\n    tag_30:\n        /* \"polygon token claim/Ownable.sol\":2407:2423  address oldOwner */\n      0x00\n        /* \"polygon token claim/Ownable.sol\":2426:2432  _owner */\n      dup1\n      0x00\n      swap1\n      sload\n      swap1\n      0x0100\n      exp\n      swap1\n      div\n      0xffffffffffffffffffffffffffffffffffffffff\n      and\n        /* \"polygon token claim/Ownable.sol\":2407:2432  address oldOwner = _owner */\n      swap1\n      pop\n        /* \"polygon token claim/Ownable.sol\":2452:2460  newOwner */\n      dup2\n        /* \"polygon token claim/Ownable.sol\":2443:2449  _owner */\n      0x00\n      dup1\n        /* \"polygon token claim/Ownable.sol\":2443:2460  _owner = newOwner */\n      0x0100\n      exp\n      dup2\n      sload\n      dup2\n      0xffffffffffffffffffffffffffffffffffffffff\n      mul\n      not\n      and\n      swap1\n      dup4\n      0xffffffffffffffffffffffffffffffffffffffff\n      and\n      mul\n      or\n      swap1\n      sstore\n      pop\n        /* \"polygon token claim/Ownable.sol\":2507:2515  newOwner */\n      dup2\n        /* \"polygon token claim/Ownable.sol\":2476:2516  OwnershipTransferred(oldOwner, newOwner) */\n      0xffffffffffffffffffffffffffffffffffffffff\n      and\n        /* \"polygon token claim/Ownable.sol\":2497:2505  oldOwner */\n      dup2\n        /* \"polygon token claim/Ownable.sol\":2476:2516  OwnershipTransferred(oldOwner, newOwner) */\n      0xffffffffffffffffffffffffffffffffffffffff\n      and\n      0x8be0079c531659141344cd1fd0a4f28419497f9722a3daafe3b4186f6b6457e0\n      mload(0x40)\n      mload(0x40)\n      dup1\n      swap2\n      sub\n      swap1\n      log3\n        /* \"polygon token claim/Ownable.sol\":2396:2524  {\r... */\n      pop\n        /* \"polygon token claim/Ownable.sol\":2333:2524  function _transferOwnership(address newOwner) internal virtual {\r... */\n      pop\n      jump\t// out\n        /* \"#utility.yul\":7:146   */\n    tag_45:\n        /* \"#utility.yul\":53:58   */\n      0x00\n        /* \"#utility.yul\":91:97   */\n      dup2\n        /* \"#utility.yul\":78:98   */\n      calldataload\n        /* \"#utility.yul\":69:98   */\n      swap1\n      pop\n        /* \"#utility.yul\":107:140   */\n      tag_47\n        /* \"#utility.yul\":134:139   */\n      dup2\n        /* \"#utility.yul\":107:140   */\n      tag_48\n      jump\t// in\n    tag_47:\n        /* \"#utility.yul\":7:146   */\n      swap3\n      swap2\n      pop\n      pop\n      jump\t// out\n        /* \"#utility.yul\":152:481   */\n    tag_19:\n        /* \"#utility.yul\":211:217   */\n      0x00\n        /* \"#utility.yul\":260:262   */\n      0x20\n        /* \"#utility.yul\":248:257   */\n      dup3\n        /* \"#utility.yul\":239:246   */\n      dup5\n        /* \"#utility.yul\":235:258   */\n      sub\n        /* \"#utility.yul\":231:263   */\n      slt\n        /* \"#utility.yul\":228:347   */\n      iszero\n      tag_50\n      jumpi\n        /* \"#utility.yul\":266:345   */\n      tag_51\n      tag_52\n      jump\t// in\n    tag_51:\n        /* \"#utility.yul\":228:347   */\n    tag_50:\n        /* \"#utility.yul\":386:387   */\n      0x00\n        /* \"#utility.yul\":411:464   */\n      tag_53\n        /* \"#utility.yul\":456:463   */\n      dup5\n        /* \"#utility.yul\":447:453   */\n      dup3\n        /* \"#utility.yul\":436:445   */\n      dup6\n        /* \"#utility.yul\":432:454   */\n      add\n        /* \"#utility.yul\":411:464   */\n      tag_45\n      jump\t// in\n    tag_53:\n        /* \"#utility.yul\":401:464   */\n      swap2\n      pop\n        /* \"#utility.yul\":357:474   */\n      pop\n        /* \"#utility.yul\":152:481   */\n      swap3\n      swap2\n      pop\n      pop\n      jump\t// out\n        /* \"#utility.yul\":487:605   */\n    tag_54:\n        /* \"#utility.yul\":574:598   */\n      tag_56\n        /* \"#utility.yul\":592:597   */\n      dup2\n        /* \"#utility.yul\":574:598   */\n      tag_57\n      jump\t// in\n    tag_56:\n        /* \"#utility.yul\":569:572   */\n      dup3\n        /* \"#utility.yul\":562:599   */\n      mstore\n        /* \"#utility.yul\":487:605   */\n      pop\n      pop\n      jump\t// out\n        /* \"#utility.yul\":611:768   */\n    tag_58:\n        /* \"#utility.yul\":711:761   */\n      tag_60\n        /* \"#utility.yul\":755:760   */\n      dup2\n        /* \"#utility.yul\":711:761   */\n      tag_61\n      jump\t// in\n    tag_60:\n        /* \"#utility.yul\":706:709   */\n      dup3\n        /* \"#utility.yul\":699:762   */\n      mstore\n        /* \"#utility.yul\":611:768   */\n      pop\n      pop\n      jump\t// out\n        /* \"#utility.yul\":774:1140   */\n    tag_62:\n        /* \"#utility.yul\":916:919   */\n      0x00\n        /* \"#utility.yul\":937:1004   */\n      tag_64\n        /* \"#utility.yul\":1001:1003   */\n      0x26\n        /* \"#utility.yul\":996:999   */\n      dup4\n        /* \"#utility.yul\":937:1004   */\n      tag_65\n      jump\t// in\n    tag_64:\n        /* \"#utility.yul\":930:1004   */\n      swap2\n      pop\n        /* \"#utility.yul\":1013:1106   */\n      tag_66\n        /* \"#utility.yul\":1102:1105   */\n      dup3\n        /* \"#utility.yul\":1013:1106   */\n      tag_67\n      jump\t// in\n    tag_66:\n        /* \"#utility.yul\":1131:1133   */\n      0x40\n        /* \"#utility.yul\":1126:1129   */\n      dup3\n        /* \"#utility.yul\":1122:1134   */\n      add\n        /* \"#utility.yul\":1115:1134   */\n      swap1\n      pop\n        /* \"#utility.yul\":774:1140   */\n      swap2\n      swap1\n      pop\n      jump\t// out\n        /* \"#utility.yul\":1146:1512   */\n    tag_68:\n        /* \"#utility.yul\":1288:1291   */\n      0x00\n        /* \"#utility.yul\":1309:1376   */\n      tag_70\n        /* \"#utility.yul\":1373:1375   */\n      0x20\n        /* \"#utility.yul\":1368:1371   */\n      dup4\n        /* \"#utility.yul\":1309:1376   */\n      tag_65\n      jump\t// in\n    tag_70:\n        /* \"#utility.yul\":1302:1376   */\n      swap2\n      pop\n        /* \"#utility.yul\":1385:1478   */\n      tag_71\n        /* \"#utility.yul\":1474:1477   */\n      dup3\n        /* \"#utility.yul\":1385:1478   */\n      tag_72\n      jump\t// in\n    tag_71:\n        /* \"#utility.yul\":1503:1505   */\n      0x20\n        /* \"#utility.yul\":1498:1501   */\n      dup3\n        /* \"#utility.yul\":1494:1506   */\n      add\n        /* \"#utility.yul\":1487:1506   */\n      swap1\n      pop\n        /* \"#utility.yul\":1146:1512   */\n      swap2\n      swap1\n      pop\n      jump\t// out\n        /* \"#utility.yul\":1518:1740   */\n    tag_16:\n        /* \"#utility.yul\":1611:1615   */\n      0x00\n        /* \"#utility.yul\":1649:1651   */\n      0x20\n        /* \"#utility.yul\":1638:1647   */\n      dup3\n        /* \"#utility.yul\":1634:1652   */\n      add\n        /* \"#utility.yul\":1626:1652   */\n      swap1\n      pop\n        /* \"#utility.yul\":1662:1733   */\n      tag_74\n        /* \"#utility.yul\":1730:1731   */\n      0x00\n        /* \"#utility.yul\":1719:1728   */\n      dup4\n        /* \"#utility.yul\":1715:1732   */\n      add\n        /* \"#utility.yul\":1706:1712   */\n      dup5\n        /* \"#utility.yul\":1662:1733   */\n      tag_54\n      jump\t// in\n    tag_74:\n        /* \"#utility.yul\":1518:1740   */\n      swap3\n      swap2\n      pop\n      pop\n      jump\t// out\n        /* \"#utility.yul\":1746:1994   */\n    tag_10:\n        /* \"#utility.yul\":1852:1856   */\n      0x00\n        /* \"#utility.yul\":1890:1892   */\n      0x20\n        /* \"#utility.yul\":1879:1888   */\n      dup3\n        /* \"#utility.yul\":1875:1893   */\n      add\n        /* \"#utility.yul\":1867:1893   */\n      swap1\n      pop\n        /* \"#utility.yul\":1903:1987   */\n      tag_76\n        /* \"#utility.yul\":1984:1985   */\n      0x00\n        /* \"#utility.yul\":1973:1982   */\n      dup4\n        /* \"#utility.yul\":1969:1986   */\n      add\n        /* \"#utility.yul\":1960:1966   */\n      dup5\n        /* \"#utility.yul\":1903:1987   */\n      tag_58\n      jump\t// in\n    tag_76:\n        /* \"#utility.yul\":1746:1994   */\n      swap3\n      swap2\n      pop\n      pop\n      jump\t// out\n        /* \"#utility.yul\":2000:2419   */\n    tag_40:\n        /* \"#utility.yul\":2166:2170   */\n      0x00\n        /* \"#utility.yul\":2204:2206   */\n      0x20\n        /* \"#utility.yul\":2193:2202   */\n      dup3\n        /* \"#utility.yul\":2189:2207   */\n      add\n        /* \"#utility.yul\":2181:2207   */\n      swap1\n      pop\n        /* \"#utility.yul\":2253:2262   */\n      dup2\n        /* \"#utility.yul\":2247:2251   */\n      dup2\n        /* \"#utility.yul\":2243:2263   */\n      sub\n        /* \"#utility.yul\":2239:2240   */\n      0x00\n        /* \"#utility.yul\":2228:2237   */\n      dup4\n        /* \"#utility.yul\":2224:2241   */\n      add\n        /* \"#utility.yul\":2217:2264   */\n      mstore\n        /* \"#utility.yul\":2281:2412   */\n      tag_78\n        /* \"#utility.yul\":2407:2411   */\n      dup2\n        /* \"#utility.yul\":2281:2412   */\n      tag_62\n      jump\t// in\n    tag_78:\n        /* \"#utility.yul\":2273:2412   */\n      swap1\n      pop\n        /* \"#utility.yul\":2000:2419   */\n      swap2\n      swap1\n      pop\n      jump\t// out\n        /* \"#utility.yul\":2425:2844   */\n    tag_27:\n        /* \"#utility.yul\":2591:2595   */\n      0x00\n        /* \"#utility.yul\":2629:2631   */\n      0x20\n        /* \"#utility.yul\":2618:2627   */\n      dup3\n        /* \"#utility.yul\":2614:2632   */\n      add\n        /* \"#utility.yul\":2606:2632   */\n      swap1\n      pop\n        /* \"#utility.yul\":2678:2687   */\n      dup2\n        /* \"#utility.yul\":2672:2676   */\n      dup2\n        /* \"#utility.yul\":2668:2688   */\n      sub\n        /* \"#utility.yul\":2664:2665   */\n      0x00\n        /* \"#utility.yul\":2653:2662   */\n      dup4\n        /* \"#utility.yul\":2649:2666   */\n      add\n        /* \"#utility.yul\":2642:2689   */\n      mstore\n        /* \"#utility.yul\":2706:2837   */\n      tag_80\n        /* \"#utility.yul\":2832:2836   */\n      dup2\n        /* \"#utility.yul\":2706:2837   */\n      tag_68\n      jump\t// in\n    tag_80:\n        /* \"#utility.yul\":2698:2837   */\n      swap1\n      pop\n        /* \"#utility.yul\":2425:2844   */\n      swap2\n      swap1\n      pop\n      jump\t// out\n        /* \"#utility.yul\":2931:3100   */\n    tag_65:\n        /* \"#utility.yul\":3015:3026   */\n      0x00\n        /* \"#utility.yul\":3049:3055   */\n      dup3\n        /* \"#utility.yul\":3044:3047   */\n      dup3\n        /* \"#utility.yul\":3037:3056   */\n      mstore\n        /* \"#utility.yul\":3089:3093   */\n      0x20\n        /* \"#utility.yul\":3084:3087   */\n      dup3\n        /* \"#utility.yul\":3080:3094   */\n      add\n        /* \"#utility.yul\":3065:3094   */\n      swap1\n      pop\n        /* \"#utility.yul\":2931:3100   */\n      swap3\n      swap2\n      pop\n      pop\n      jump\t// out\n        /* \"#utility.yul\":3106:3202   */\n    tag_57:\n        /* \"#utility.yul\":3143:3150   */\n      0x00\n        /* \"#utility.yul\":3172:3196   */\n      tag_85\n        /* \"#utility.yul\":3190:3195   */\n      dup3\n        /* \"#utility.yul\":3172:3196   */\n      tag_86\n      jump\t// in\n    tag_85:\n        /* \"#utility.yul\":3161:3196   */\n      swap1\n      pop\n        /* \"#utility.yul\":3106:3202   */\n      swap2\n      swap1\n      pop\n      jump\t// out\n        /* \"#utility.yul\":3208:3334   */\n    tag_86:\n        /* \"#utility.yul\":3245:3252   */\n      0x00\n        /* \"#utility.yul\":3285:3327   */\n      0xffffffffffffffffffffffffffffffffffffffff\n        /* \"#utility.yul\":3278:3283   */\n      dup3\n        /* \"#utility.yul\":3274:3328   */\n      and\n        /* \"#utility.yul\":3263:3328   */\n      swap1\n      pop\n        /* \"#utility.yul\":3208:3334   */\n      swap2\n      swap1\n      pop\n      jump\t// out\n        /* \"#utility.yul\":3340:3479   */\n    tag_61:\n        /* \"#utility.yul\":3403:3412   */\n      0x00\n        /* \"#utility.yul\":3436:3473   */\n      tag_89\n        /* \"#utility.yul\":3467:3472   */\n      dup3\n        /* \"#utility.yul\":3436:3473   */\n      tag_90\n      jump\t// in\n    tag_89:\n        /* \"#utility.yul\":3423:3473   */\n      swap1\n      pop\n        /* \"#utility.yul\":3340:3479   */\n      swap2\n      swap1\n      pop\n      jump\t// out\n        /* \"#utility.yul\":3485:3611   */\n    tag_90:\n        /* \"#utility.yul\":3535:3544   */\n      0x00\n        /* \"#utility.yul\":3568:3605   */\n      tag_92\n        /* \"#utility.yul\":3599:3604   */\n      dup3\n        /* \"#utility.yul\":3568:3605   */\n      tag_93\n      jump\t// in\n    tag_92:\n        /* \"#utility.yul\":3555:3605   */\n      swap1\n      pop\n        /* \"#utility.yul\":3485:3611   */\n      swap2\n      swap1\n      pop\n      jump\t// out\n        /* \"#utility.yul\":3617:3730   */\n    tag_93:\n        /* \"#utility.yul\":3667:3676   */\n      0x00\n        /* \"#utility.yul\":3700:3724   */\n      tag_95\n        /* \"#utility.yul\":3718:3723   */\n      dup3\n        /* \"#utility.yul\":3700:3724   */\n      tag_86\n      jump\t// in\n    tag_95:\n        /* \"#utility.yul\":3687:3724   */\n      swap1\n      pop\n        /* \"#utility.yul\":3617:3730   */\n      swap2\n      swap1\n      pop\n      jump\t// out\n        /* \"#utility.yul\":3859:3976   */\n    tag_52:\n        /* \"#utility.yul\":3968:3969   */\n      0x00\n        /* \"#utility.yul\":3965:3966   */\n      dup1\n        /* \"#utility.yul\":3958:3970   */\n      revert\n        /* \"#utility.yul\":3982:4207   */\n    tag_67:\n        /* \"#utility.yul\":4122:4156   */\n      0x4f776e61626c653a206e6577206f776e657220697320746865207a65726f2061\n        /* \"#utility.yul\":4118:4119   */\n      0x00\n        /* \"#utility.yul\":4110:4116   */\n      dup3\n        /* \"#utility.yul\":4106:4120   */\n      add\n        /* \"#utility.yul\":4099:4157   */\n      mstore\n        /* \"#utility.yul\":4191:4199   */\n      0x6464726573730000000000000000000000000000000000000000000000000000\n        /* \"#utility.yul\":4186:4188   */\n      0x20\n        /* \"#utility.yul\":4178:4184   */\n      dup3\n        /* \"#utility.yul\":4174:4189   */\n      add\n        /* \"#utility.yul\":4167:4200   */\n      mstore\n        /* \"#utility.yul\":3982:4207   */\n      pop\n      jump\t// out\n        /* \"#utility.yul\":4213:4395   */\n    tag_72:\n        /* \"#utility.yul\":4353:4387   */\n      0x4f776e61626c653a2063616c6c6572206973206e6f7420746865206f776e6572\n        /* \"#utility.yul\":4349:4350   */\n      0x00\n        /* \"#utility.yul\":4341:4347   */\n      dup3\n        /* \"#utility.yul\":4337:4351   */\n      add\n        /* \"#utility.yul\":4330:4388   */\n      mstore\n        /* \"#utility.yul\":4213:4395   */\n      pop\n      jump\t// out\n        /* \"#utility.yul\":4401:4523   */\n    tag_48:\n        /* \"#utility.yul\":4474:4498   */\n      tag_102\n        /* \"#utility.yul\":4492:4497   */\n      dup2\n        /* \"#utility.yul\":4474:4498   */\n      tag_57\n      jump\t// in\n    tag_102:\n        /* \"#utility.yul\":4467:4472   */\n      dup2\n        /* \"#utility.yul\":4464:4499   */\n      eq\n        /* \"#utility.yul\":4454:4517   */\n      tag_103\n      jumpi\n        /* \"#utility.yul\":4513:4514   */\n      0x00\n        /* \"#utility.yul\":4510:4511   */\n      dup1\n        /* \"#utility.yul\":4503:4515   */\n      revert\n        /* \"#utility.yul\":4454:4517   */\n    tag_103:\n        /* \"#utility.yul\":4401:4523   */\n      pop\n      jump\t// out\n\n    auxdata: 0xa264697066735822122075e24027a19ef96cecdb091c65069e6ac71e0bd11603320653ec6944a5db849964736f6c63430008070033\n}\n",
				"bytecode": {
					"linkReferences": {},
					"object": "608060405273cb8bcdb991b45bf5d78000a0b5c0a6686ce43790600160006101000a81548173ffffffffffffffffffffffffffffffffffffffff021916908373ffffffffffffffffffffffffffffffffffffffff16021790555034801561006557600080fd5b5061008261007761008760201b60201c565b61008f60201b60201c565b610153565b600033905090565b60008060009054906101000a900473ffffffffffffffffffffffffffffffffffffffff169050816000806101000a81548173ffffffffffffffffffffffffffffffffffffffff021916908373ffffffffffffffffffffffffffffffffffffffff1602179055508173ffffffffffffffffffffffffffffffffffffffff168173ffffffffffffffffffffffffffffffffffffffff167f8be0079c531659141344cd1fd0a4f28419497f9722a3daafe3b4186f6b6457e060405160405180910390a35050565b6105ad806101626000396000f3fe608060405234801561001057600080fd5b506004361061004c5760003560e01c8063153252ec14610051578063715018a61461006f5780638da5cb5b14610079578063f2fde38b14610097575b600080fd5b6100596100b3565b604051610066919061040f565b60405180910390f35b6100776100d9565b005b610081610161565b60405161008e91906103f4565b60405180910390f35b6100b160048036038101906100ac9190610363565b61018a565b005b600160009054906101000a900473ffffffffffffffffffffffffffffffffffffffff1681565b6100e1610282565b73ffffffffffffffffffffffffffffffffffffffff166100ff610161565b73ffffffffffffffffffffffffffffffffffffffff1614610155576040517f08c379a000000000000000000000000000000000000000000000000000000000815260040161014c9061044a565b60405180910390fd5b61015f600061028a565b565b60008060009054906101000a900473ffffffffffffffffffffffffffffffffffffffff16905090565b610192610282565b73ffffffffffffffffffffffffffffffffffffffff166101b0610161565b73ffffffffffffffffffffffffffffffffffffffff1614610206576040517f08c379a00000000000000000000000000000000000000000000000000000000081526004016101fd9061044a565b60405180910390fd5b600073ffffffffffffffffffffffffffffffffffffffff168173ffffffffffffffffffffffffffffffffffffffff161415610276576040517f08c379a000000000000000000000000000000000000000000000000000000000815260040161026d9061042a565b60405180910390fd5b61027f8161028a565b50565b600033905090565b60008060009054906101000a900473ffffffffffffffffffffffffffffffffffffffff169050816000806101000a81548173ffffffffffffffffffffffffffffffffffffffff021916908373ffffffffffffffffffffffffffffffffffffffff1602179055508173ffffffffffffffffffffffffffffffffffffffff168173ffffffffffffffffffffffffffffffffffffffff167f8be0079c531659141344cd1fd0a4f28419497f9722a3daafe3b4186f6b6457e060405160405180910390a35050565b60008135905061035d81610560565b92915050565b600060208284031215610379576103786104e3565b5b60006103878482850161034e565b91505092915050565b6103998161047b565b82525050565b6103a8816104ad565b82525050565b60006103bb60268361046a565b91506103c6826104e8565b604082019050919050565b60006103de60208361046a565b91506103e982610537565b602082019050919050565b60006020820190506104096000830184610390565b92915050565b6000602082019050610424600083018461039f565b92915050565b60006020820190508181036000830152610443816103ae565b9050919050565b60006020820190508181036000830152610463816103d1565b9050919050565b600082825260208201905092915050565b60006104868261048d565b9050919050565b600073ffffffffffffffffffffffffffffffffffffffff82169050919050565b60006104b8826104bf565b9050919050565b60006104ca826104d1565b9050919050565b60006104dc8261048d565b9050919050565b600080fd5b7f4f776e61626c653a206e6577206f776e657220697320746865207a65726f206160008201527f6464726573730000000000000000000000000000000000000000000000000000602082015250565b7f4f776e61626c653a2063616c6c6572206973206e6f7420746865206f776e6572600082015250565b6105698161047b565b811461057457600080fd5b5056fea264697066735822122075e24027a19ef96cecdb091c65069e6ac71e0bd11603320653ec6944a5db849964736f6c63430008070033",
					"opcodes": "PUSH1 0x80 PUSH1 0x40 MSTORE PUSH20 0xCB8BCDB991B45BF5D78000A0B5C0A6686CE43790 PUSH1 0x1 PUSH1 0x0 PUSH2 0x100 EXP DUP2 SLOAD DUP2 PUSH20 0xFFFFFFFFFFFFFFFFFFFFFFFFFFFFFFFFFFFFFFFF MUL NOT AND SWAP1 DUP4 PUSH20 0xFFFFFFFFFFFFFFFFFFFFFFFFFFFFFFFFFFFFFFFF AND MUL OR SWAP1 SSTORE POP CALLVALUE DUP1 ISZERO PUSH2 0x65 JUMPI PUSH1 0x0 DUP1 REVERT JUMPDEST POP PUSH2 0x82 PUSH2 0x77 PUSH2 0x87 PUSH1 0x20 SHL PUSH1 0x20 SHR JUMP JUMPDEST PUSH2 0x8F PUSH1 0x20 SHL PUSH1 0x20 SHR JUMP JUMPDEST PUSH2 0x153 JUMP JUMPDEST PUSH1 0x0 CALLER SWAP1 POP SWAP1 JUMP JUMPDEST PUSH1 0x0 DUP1 PUSH1 0x0 SWAP1 SLOAD SWAP1 PUSH2 0x100 EXP SWAP1 DIV PUSH20 0xFFFFFFFFFFFFFFFFFFFFFFFFFFFFFFFFFFFFFFFF AND SWAP1 POP DUP2 PUSH1 0x0 DUP1 PUSH2 0x100 EXP DUP2 SLOAD DUP2 PUSH20 0xFFFFFFFFFFFFFFFFFFFFFFFFFFFFFFFFFFFFFFFF MUL NOT AND SWAP1 DUP4 PUSH20 0xFFFFFFFFFFFFFFFFFFFFFFFFFFFFFFFFFFFFFFFF AND MUL OR SWAP1 SSTORE POP DUP2 PUSH20 0xFFFFFFFFFFFFFFFFFFFFFFFFFFFFFFFFFFFFFFFF AND DUP2 PUSH20 0xFFFFFFFFFFFFFFFFFFFFFFFFFFFFFFFFFFFFFFFF AND PUSH32 0x8BE0079C531659141344CD1FD0A4F28419497F9722A3DAAFE3B4186F6B6457E0 PUSH1 0x40 MLOAD PUSH1 0x40 MLOAD DUP1 SWAP2 SUB SWAP1 LOG3 POP POP JUMP JUMPDEST PUSH2 0x5AD DUP1 PUSH2 0x162 PUSH1 0x0 CODECOPY PUSH1 0x0 RETURN INVALID PUSH1 0x80 PUSH1 0x40 MSTORE CALLVALUE DUP1 ISZERO PUSH2 0x10 JUMPI PUSH1 0x0 DUP1 REVERT JUMPDEST POP PUSH1 0x4 CALLDATASIZE LT PUSH2 0x4C JUMPI PUSH1 0x0 CALLDATALOAD PUSH1 0xE0 SHR DUP1 PUSH4 0x153252EC EQ PUSH2 0x51 JUMPI DUP1 PUSH4 0x715018A6 EQ PUSH2 0x6F JUMPI DUP1 PUSH4 0x8DA5CB5B EQ PUSH2 0x79 JUMPI DUP1 PUSH4 0xF2FDE38B EQ PUSH2 0x97 JUMPI JUMPDEST PUSH1 0x0 DUP1 REVERT JUMPDEST PUSH2 0x59 PUSH2 0xB3 JUMP JUMPDEST PUSH1 0x40 MLOAD PUSH2 0x66 SWAP2 SWAP1 PUSH2 0x40F JUMP JUMPDEST PUSH1 0x40 MLOAD DUP1 SWAP2 SUB SWAP1 RETURN JUMPDEST PUSH2 0x77 PUSH2 0xD9 JUMP JUMPDEST STOP JUMPDEST PUSH2 0x81 PUSH2 0x161 JUMP JUMPDEST PUSH1 0x40 MLOAD PUSH2 0x8E SWAP2 SWAP1 PUSH2 0x3F4 JUMP JUMPDEST PUSH1 0x40 MLOAD DUP1 SWAP2 SUB SWAP1 RETURN JUMPDEST PUSH2 0xB1 PUSH1 0x4 DUP1 CALLDATASIZE SUB DUP2 ADD SWAP1 PUSH2 0xAC SWAP2 SWAP1 PUSH2 0x363 JUMP JUMPDEST PUSH2 0x18A JUMP JUMPDEST STOP JUMPDEST PUSH1 0x1 PUSH1 0x0 SWAP1 SLOAD SWAP1 PUSH2 0x100 EXP SWAP1 DIV PUSH20 0xFFFFFFFFFFFFFFFFFFFFFFFFFFFFFFFFFFFFFFFF AND DUP2 JUMP JUMPDEST PUSH2 0xE1 PUSH2 0x282 JUMP JUMPDEST PUSH20 0xFFFFFFFFFFFFFFFFFFFFFFFFFFFFFFFFFFFFFFFF AND PUSH2 0xFF PUSH2 0x161 JUMP JUMPDEST PUSH20 0xFFFFFFFFFFFFFFFFFFFFFFFFFFFFFFFFFFFFFFFF AND EQ PUSH2 0x155 JUMPI PUSH1 0x40 MLOAD PUSH32 0x8C379A000000000000000000000000000000000000000000000000000000000 DUP2 MSTORE PUSH1 0x4 ADD PUSH2 0x14C SWAP1 PUSH2 0x44A JUMP JUMPDEST PUSH1 0x40 MLOAD DUP1 SWAP2 SUB SWAP1 REVERT JUMPDEST PUSH2 0x15F PUSH1 0x0 PUSH2 0x28A JUMP JUMPDEST JUMP JUMPDEST PUSH1 0x0 DUP1 PUSH1 0x0 SWAP1 SLOAD SWAP1 PUSH2 0x100 EXP SWAP1 DIV PUSH20 0xFFFFFFFFFFFFFFFFFFFFFFFFFFFFFFFFFFFFFFFF AND SWAP1 POP SWAP1 JUMP JUMPDEST PUSH2 0x192 PUSH2 0x282 JUMP JUMPDEST PUSH20 0xFFFFFFFFFFFFFFFFFFFFFFFFFFFFFFFFFFFFFFFF AND PUSH2 0x1B0 PUSH2 0x161 JUMP JUMPDEST PUSH20 0xFFFFFFFFFFFFFFFFFFFFFFFFFFFFFFFFFFFFFFFF AND EQ PUSH2 0x206 JUMPI PUSH1 0x40 MLOAD PUSH32 0x8C379A000000000000000000000000000000000000000000000000000000000 DUP2 MSTORE PUSH1 0x4 ADD PUSH2 0x1FD SWAP1 PUSH2 0x44A JUMP JUMPDEST PUSH1 0x40 MLOAD DUP1 SWAP2 SUB SWAP1 REVERT JUMPDEST PUSH1 0x0 PUSH20 0xFFFFFFFFFFFFFFFFFFFFFFFFFFFFFFFFFFFFFFFF AND DUP2 PUSH20 0xFFFFFFFFFFFFFFFFFFFFFFFFFFFFFFFFFFFFFFFF AND EQ ISZERO PUSH2 0x276 JUMPI PUSH1 0x40 MLOAD PUSH32 0x8C379A000000000000000000000000000000000000000000000000000000000 DUP2 MSTORE PUSH1 0x4 ADD PUSH2 0x26D SWAP1 PUSH2 0x42A JUMP JUMPDEST PUSH1 0x40 MLOAD DUP1 SWAP2 SUB SWAP1 REVERT JUMPDEST PUSH2 0x27F DUP2 PUSH2 0x28A JUMP JUMPDEST POP JUMP JUMPDEST PUSH1 0x0 CALLER SWAP1 POP SWAP1 JUMP JUMPDEST PUSH1 0x0 DUP1 PUSH1 0x0 SWAP1 SLOAD SWAP1 PUSH2 0x100 EXP SWAP1 DIV PUSH20 0xFFFFFFFFFFFFFFFFFFFFFFFFFFFFFFFFFFFFFFFF AND SWAP1 POP DUP2 PUSH1 0x0 DUP1 PUSH2 0x100 EXP DUP2 SLOAD DUP2 PUSH20 0xFFFFFFFFFFFFFFFFFFFFFFFFFFFFFFFFFFFFFFFF MUL NOT AND SWAP1 DUP4 PUSH20 0xFFFFFFFFFFFFFFFFFFFFFFFFFFFFFFFFFFFFFFFF AND MUL OR SWAP1 SSTORE POP DUP2 PUSH20 0xFFFFFFFFFFFFFFFFFFFFFFFFFFFFFFFFFFFFFFFF AND DUP2 PUSH20 0xFFFFFFFFFFFFFFFFFFFFFFFFFFFFFFFFFFFFFFFF AND PUSH32 0x8BE0079C531659141344CD1FD0A4F28419497F9722A3DAAFE3B4186F6B6457E0 PUSH1 0x40 MLOAD PUSH1 0x40 MLOAD DUP1 SWAP2 SUB SWAP1 LOG3 POP POP JUMP JUMPDEST PUSH1 0x0 DUP2 CALLDATALOAD SWAP1 POP PUSH2 0x35D DUP2 PUSH2 0x560 JUMP JUMPDEST SWAP3 SWAP2 POP POP JUMP JUMPDEST PUSH1 0x0 PUSH1 0x20 DUP3 DUP5 SUB SLT ISZERO PUSH2 0x379 JUMPI PUSH2 0x378 PUSH2 0x4E3 JUMP JUMPDEST JUMPDEST PUSH1 0x0 PUSH2 0x387 DUP5 DUP3 DUP6 ADD PUSH2 0x34E JUMP JUMPDEST SWAP2 POP POP SWAP3 SWAP2 POP POP JUMP JUMPDEST PUSH2 0x399 DUP2 PUSH2 0x47B JUMP JUMPDEST DUP3 MSTORE POP POP JUMP JUMPDEST PUSH2 0x3A8 DUP2 PUSH2 0x4AD JUMP JUMPDEST DUP3 MSTORE POP POP JUMP JUMPDEST PUSH1 0x0 PUSH2 0x3BB PUSH1 0x26 DUP4 PUSH2 0x46A JUMP JUMPDEST SWAP2 POP PUSH2 0x3C6 DUP3 PUSH2 0x4E8 JUMP JUMPDEST PUSH1 0x40 DUP3 ADD SWAP1 POP SWAP2 SWAP1 POP JUMP JUMPDEST PUSH1 0x0 PUSH2 0x3DE PUSH1 0x20 DUP4 PUSH2 0x46A JUMP JUMPDEST SWAP2 POP PUSH2 0x3E9 DUP3 PUSH2 0x537 JUMP JUMPDEST PUSH1 0x20 DUP3 ADD SWAP1 POP SWAP2 SWAP1 POP JUMP JUMPDEST PUSH1 0x0 PUSH1 0x20 DUP3 ADD SWAP1 POP PUSH2 0x409 PUSH1 0x0 DUP4 ADD DUP5 PUSH2 0x390 JUMP JUMPDEST SWAP3 SWAP2 POP POP JUMP JUMPDEST PUSH1 0x0 PUSH1 0x20 DUP3 ADD SWAP1 POP PUSH2 0x424 PUSH1 0x0 DUP4 ADD DUP5 PUSH2 0x39F JUMP JUMPDEST SWAP3 SWAP2 POP POP JUMP JUMPDEST PUSH1 0x0 PUSH1 0x20 DUP3 ADD SWAP1 POP DUP2 DUP2 SUB PUSH1 0x0 DUP4 ADD MSTORE PUSH2 0x443 DUP2 PUSH2 0x3AE JUMP JUMPDEST SWAP1 POP SWAP2 SWAP1 POP JUMP JUMPDEST PUSH1 0x0 PUSH1 0x20 DUP3 ADD SWAP1 POP DUP2 DUP2 SUB PUSH1 0x0 DUP4 ADD MSTORE PUSH2 0x463 DUP2 PUSH2 0x3D1 JUMP JUMPDEST SWAP1 POP SWAP2 SWAP1 POP JUMP JUMPDEST PUSH1 0x0 DUP3 DUP3 MSTORE PUSH1 0x20 DUP3 ADD SWAP1 POP SWAP3 SWAP2 POP POP JUMP JUMPDEST PUSH1 0x0 PUSH2 0x486 DUP3 PUSH2 0x48D JUMP JUMPDEST SWAP1 POP SWAP2 SWAP1 POP JUMP JUMPDEST PUSH1 0x0 PUSH20 0xFFFFFFFFFFFFFFFFFFFFFFFFFFFFFFFFFFFFFFFF DUP3 AND SWAP1 POP SWAP2 SWAP1 POP JUMP JUMPDEST PUSH1 0x0 PUSH2 0x4B8 DUP3 PUSH2 0x4BF JUMP JUMPDEST SWAP1 POP SWAP2 SWAP1 POP JUMP JUMPDEST PUSH1 0x0 PUSH2 0x4CA DUP3 PUSH2 0x4D1 JUMP JUMPDEST SWAP1 POP SWAP2 SWAP1 POP JUMP JUMPDEST PUSH1 0x0 PUSH2 0x4DC DUP3 PUSH2 0x48D JUMP JUMPDEST SWAP1 POP SWAP2 SWAP1 POP JUMP JUMPDEST PUSH1 0x0 DUP1 REVERT JUMPDEST PUSH32 0x4F776E61626C653A206E6577206F776E657220697320746865207A65726F2061 PUSH1 0x0 DUP3 ADD MSTORE PUSH32 0x6464726573730000000000000000000000000000000000000000000000000000 PUSH1 0x20 DUP3 ADD MSTORE POP JUMP JUMPDEST PUSH32 0x4F776E61626C653A2063616C6C6572206973206E6F7420746865206F776E6572 PUSH1 0x0 DUP3 ADD MSTORE POP JUMP JUMPDEST PUSH2 0x569 DUP2 PUSH2 0x47B JUMP JUMPDEST DUP2 EQ PUSH2 0x574 JUMPI PUSH1 0x0 DUP1 REVERT JUMPDEST POP JUMP INVALID LOG2 PUSH5 0x6970667358 0x22 SLT KECCAK256 PUSH22 0xE24027A19EF96CECDB091C65069E6AC71E0BD1160332 MOD MSTORE8 0xEC PUSH10 0x44A5DB849964736F6C63 NUMBER STOP ADDMOD SMOD STOP CALLER "
				},
				"gasEstimates": {
					"creation": {
						"codeDepositCost": "290600",
						"executionCost": "infinite",
						"totalCost": "infinite"
					},
					"external": {
						"WeirdToken()": "2578",
						"owner()": "2544",
						"renounceOwnership()": "30374",
						"transferOwnership(address)": "30767"
					}
				},
				"methodIdentifiers": {
					"WeirdToken()": "153252ec",
					"owner()": "8da5cb5b",
					"renounceOwnership()": "715018a6",
					"transferOwnership(address)": "f2fde38b"
				}
			},
			"userdoc": {
				"kind": "user",
				"methods": {},
				"version": 1
			}
		}
	}
}