{
	"polygon token claim/Weird Claiming.sol": {
		"WeirdClaiming": {
			"abi": [
				{
					"inputs": [],
					"stateMutability": "nonpayable",
					"type": "constructor"
				},
				{
					"anonymous": false,
					"inputs": [
						{
							"indexed": true,
							"internalType": "address",
							"name": "previousOwner",
							"type": "address"
						},
						{
							"indexed": true,
							"internalType": "address",
							"name": "newOwner",
							"type": "address"
						}
					],
					"name": "OwnershipTransferred",
					"type": "event"
				},
				{
					"anonymous": false,
					"inputs": [
						{
							"indexed": true,
							"internalType": "bytes32",
							"name": "role",
							"type": "bytes32"
						},
						{
							"indexed": true,
							"internalType": "bytes32",
							"name": "previousAdminRole",
							"type": "bytes32"
						},
						{
							"indexed": true,
							"internalType": "bytes32",
							"name": "newAdminRole",
							"type": "bytes32"
						}
					],
					"name": "RoleAdminChanged",
					"type": "event"
				},
				{
					"anonymous": false,
					"inputs": [
						{
							"indexed": true,
							"internalType": "bytes32",
							"name": "role",
							"type": "bytes32"
						},
						{
							"indexed": true,
							"internalType": "address",
							"name": "account",
							"type": "address"
						},
						{
							"indexed": true,
							"internalType": "address",
							"name": "sender",
							"type": "address"
						}
					],
					"name": "RoleGranted",
					"type": "event"
				},
				{
					"anonymous": false,
					"inputs": [
						{
							"indexed": true,
							"internalType": "bytes32",
							"name": "role",
							"type": "bytes32"
						},
						{
							"indexed": true,
							"internalType": "address",
							"name": "account",
							"type": "address"
						},
						{
							"indexed": true,
							"internalType": "address",
							"name": "sender",
							"type": "address"
						}
					],
					"name": "RoleRevoked",
					"type": "event"
				},
				{
					"inputs": [],
					"name": "DEFAULT_ADMIN_ROLE",
					"outputs": [
						{
							"internalType": "bytes32",
							"name": "",
							"type": "bytes32"
						}
					],
					"stateMutability": "view",
					"type": "function"
				},
				{
					"inputs": [],
					"name": "WeirdToken",
					"outputs": [
						{
							"internalType": "contract ERC20",
							"name": "",
							"type": "address"
						}
					],
					"stateMutability": "view",
					"type": "function"
				},
				{
					"inputs": [
						{
							"internalType": "bytes32",
							"name": "role",
							"type": "bytes32"
						}
					],
					"name": "getRoleAdmin",
					"outputs": [
						{
							"internalType": "bytes32",
							"name": "",
							"type": "bytes32"
						}
					],
					"stateMutability": "view",
					"type": "function"
				},
				{
					"inputs": [
						{
							"internalType": "bytes32",
							"name": "role",
							"type": "bytes32"
						},
						{
							"internalType": "address",
							"name": "account",
							"type": "address"
						}
					],
					"name": "grantRole",
					"outputs": [],
					"stateMutability": "nonpayable",
					"type": "function"
				},
				{
					"inputs": [
						{
							"internalType": "bytes32",
							"name": "role",
							"type": "bytes32"
						},
						{
							"internalType": "address",
							"name": "account",
							"type": "address"
						}
					],
					"name": "hasRole",
					"outputs": [
						{
							"internalType": "bool",
							"name": "",
							"type": "bool"
						}
					],
					"stateMutability": "view",
					"type": "function"
				},
				{
					"inputs": [],
					"name": "owner",
					"outputs": [
						{
							"internalType": "address",
							"name": "",
							"type": "address"
						}
					],
					"stateMutability": "view",
					"type": "function"
				},
				{
					"inputs": [],
					"name": "renounceOwnership",
					"outputs": [],
					"stateMutability": "nonpayable",
					"type": "function"
				},
				{
					"inputs": [
						{
							"internalType": "bytes32",
							"name": "role",
							"type": "bytes32"
						},
						{
							"internalType": "address",
							"name": "account",
							"type": "address"
						}
					],
					"name": "renounceRole",
					"outputs": [],
					"stateMutability": "nonpayable",
					"type": "function"
				},
				{
					"inputs": [
						{
							"internalType": "bytes32",
							"name": "role",
							"type": "bytes32"
						},
						{
							"internalType": "address",
							"name": "account",
							"type": "address"
						}
					],
					"name": "revokeRole",
					"outputs": [],
					"stateMutability": "nonpayable",
					"type": "function"
				},
				{
					"inputs": [
						{
							"internalType": "bytes4",
							"name": "interfaceId",
							"type": "bytes4"
						}
					],
					"name": "supportsInterface",
					"outputs": [
						{
							"internalType": "bool",
							"name": "",
							"type": "bool"
						}
					],
					"stateMutability": "view",
					"type": "function"
				},
				{
					"inputs": [
						{
							"internalType": "address",
							"name": "newOwner",
							"type": "address"
						}
					],
					"name": "transferOwnership",
					"outputs": [],
					"stateMutability": "nonpayable",
					"type": "function"
				}
			],
			"devdoc": {
				"kind": "dev",
				"methods": {
					"getRoleAdmin(bytes32)": {
						"details": "Returns the admin role that controls `role`. See {grantRole} and {revokeRole}. To change a role's admin, use {_setRoleAdmin}."
					},
					"grantRole(bytes32,address)": {
						"details": "Grants `role` to `account`. If `account` had not been already granted `role`, emits a {RoleGranted} event. Requirements: - the caller must have ``role``'s admin role."
					},
					"hasRole(bytes32,address)": {
						"details": "Returns `true` if `account` has been granted `role`."
					},
					"owner()": {
						"details": "Returns the address of the current owner."
					},
					"renounceOwnership()": {
						"details": "Leaves the contract without owner. It will not be possible to call `onlyOwner` functions anymore. Can only be called by the current owner. NOTE: Renouncing ownership will leave the contract without an owner, thereby removing any functionality that is only available to the owner."
					},
					"renounceRole(bytes32,address)": {
						"details": "Revokes `role` from the calling account. Roles are often managed via {grantRole} and {revokeRole}: this function's purpose is to provide a mechanism for accounts to lose their privileges if they are compromised (such as when a trusted device is misplaced). If the calling account had been revoked `role`, emits a {RoleRevoked} event. Requirements: - the caller must be `account`."
					},
					"revokeRole(bytes32,address)": {
						"details": "Revokes `role` from `account`. If `account` had been granted `role`, emits a {RoleRevoked} event. Requirements: - the caller must have ``role``'s admin role."
					},
					"supportsInterface(bytes4)": {
						"details": "See {IERC165-supportsInterface}."
					},
					"transferOwnership(address)": {
						"details": "Transfers ownership of the contract to a new account (`newOwner`). Can only be called by the current owner."
					}
				},
				"version": 1
			},
			"evm": {
				"assembly": "    /* \"polygon token claim/Weird Claiming.sol\":761:985  contract WeirdClaiming is Ownable, AccessControl {\r... */\n  mstore(0x40, 0x80)\n    /* \"polygon token claim/Weird Claiming.sol\":849:891  0xcB8BCDb991B45bF5D78000a0b5C0A6686cE43790 */\n  0xcb8bcdb991b45bf5d78000a0b5c0a6686ce43790\n    /* \"polygon token claim/Weird Claiming.sol\":817:892  ERC20 public WeirdToken = ERC20(0xcB8BCDb991B45bF5D78000a0b5C0A6686cE43790) */\n  0x02\n  exp(0x0100, 0x00)\n  dup2\n  sload\n  dup2\n  0xffffffffffffffffffffffffffffffffffffffff\n  mul\n  not\n  and\n  swap1\n  dup4\n  0xffffffffffffffffffffffffffffffffffffffff\n  and\n  mul\n  or\n  swap1\n  sstore\n  pop\n    /* \"polygon token claim/Weird Claiming.sol\":905:980  constructor() {\r... */\n  callvalue\n  dup1\n  iszero\n  tag_1\n  jumpi\n  0x00\n  dup1\n  revert\ntag_1:\n  pop\n    /* \"polygon token claim/Ownable.sol\":942:974  _transferOwnership(_msgSender()) */\n  tag_5\n    /* \"polygon token claim/Ownable.sol\":961:973  _msgSender() */\n  tag_6\n    /* \"polygon token claim/Ownable.sol\":961:971  _msgSender */\n  shl(0x20, tag_7)\n    /* \"polygon token claim/Ownable.sol\":961:973  _msgSender() */\n  0x20\n  shr\n  jump\t// in\ntag_6:\n    /* \"polygon token claim/Ownable.sol\":942:960  _transferOwnership */\n  shl(0x20, tag_8)\n    /* \"polygon token claim/Ownable.sol\":942:974  _transferOwnership(_msgSender()) */\n  0x20\n  shr\n  jump\t// in\ntag_5:\n    /* \"polygon token claim/Weird Claiming.sol\":930:972  _setupRole(DEFAULT_ADMIN_ROLE, msg.sender) */\n  tag_10\n    /* \"polygon token claim/AccessControl.sol\":2093:2097  0x00 */\n  0x00\n    /* \"polygon token claim/Weird Claiming.sol\":941:959  DEFAULT_ADMIN_ROLE */\n  dup1\n  shl\n    /* \"polygon token claim/Weird Claiming.sol\":961:971  msg.sender */\n  caller\n    /* \"polygon token claim/Weird Claiming.sol\":930:940  _setupRole */\n  shl(0x20, tag_11)\n    /* \"polygon token claim/Weird Claiming.sol\":930:972  _setupRole(DEFAULT_ADMIN_ROLE, msg.sender) */\n  0x20\n  shr\n  jump\t// in\ntag_10:\n    /* \"polygon token claim/Weird Claiming.sol\":761:985  contract WeirdClaiming is Ownable, AccessControl {\r... */\n  jump(tag_12)\n    /* \"polygon token claim/Context.sol\":656:754  function _msgSender() internal view virtual returns (address) {\r... */\ntag_7:\n    /* \"polygon token claim/Context.sol\":709:716  address */\n  0x00\n    /* \"polygon token claim/Context.sol\":736:746  msg.sender */\n  caller\n    /* \"polygon token claim/Context.sol\":729:746  return msg.sender */\n  swap1\n  pop\n    /* \"polygon token claim/Context.sol\":656:754  function _msgSender() internal view virtual returns (address) {\r... */\n  swap1\n  jump\t// out\n    /* \"polygon token claim/Ownable.sol\":2333:2524  function _transferOwnership(address newOwner) internal virtual {\r... */\ntag_8:\n    /* \"polygon token claim/Ownable.sol\":2407:2423  address oldOwner */\n  0x00\n    /* \"polygon token claim/Ownable.sol\":2426:2432  _owner */\n  dup1\n  0x00\n  swap1\n  sload\n  swap1\n  0x0100\n  exp\n  swap1\n  div\n  0xffffffffffffffffffffffffffffffffffffffff\n  and\n    /* \"polygon token claim/Ownable.sol\":2407:2432  address oldOwner = _owner */\n  swap1\n  pop\n    /* \"polygon token claim/Ownable.sol\":2452:2460  newOwner */\n  dup2\n    /* \"polygon token claim/Ownable.sol\":2443:2449  _owner */\n  0x00\n  dup1\n    /* \"polygon token claim/Ownable.sol\":2443:2460  _owner = newOwner */\n  0x0100\n  exp\n  dup2\n  sload\n  dup2\n  0xffffffffffffffffffffffffffffffffffffffff\n  mul\n  not\n  and\n  swap1\n  dup4\n  0xffffffffffffffffffffffffffffffffffffffff\n  and\n  mul\n  or\n  swap1\n  sstore\n  pop\n    /* \"polygon token claim/Ownable.sol\":2507:2515  newOwner */\n  dup2\n    /* \"polygon token claim/Ownable.sol\":2476:2516  OwnershipTransferred(oldOwner, newOwner) */\n  0xffffffffffffffffffffffffffffffffffffffff\n  and\n    /* \"polygon token claim/Ownable.sol\":2497:2505  oldOwner */\n  dup2\n    /* \"polygon token claim/Ownable.sol\":2476:2516  OwnershipTransferred(oldOwner, newOwner) */\n  0xffffffffffffffffffffffffffffffffffffffff\n  and\n  0x8be0079c531659141344cd1fd0a4f28419497f9722a3daafe3b4186f6b6457e0\n  mload(0x40)\n  mload(0x40)\n  dup1\n  swap2\n  sub\n  swap1\n  log3\n    /* \"polygon token claim/Ownable.sol\":2396:2524  {\r... */\n  pop\n    /* \"polygon token claim/Ownable.sol\":2333:2524  function _transferOwnership(address newOwner) internal virtual {\r... */\n  pop\n  jump\t// out\n    /* \"polygon token claim/AccessControl.sol\":6801:6913  function _setupRole(bytes32 role, address account) internal virtual {\r... */\ntag_11:\n    /* \"polygon token claim/AccessControl.sol\":6880:6905  _grantRole(role, account) */\n  tag_16\n    /* \"polygon token claim/AccessControl.sol\":6891:6895  role */\n  dup3\n    /* \"polygon token claim/AccessControl.sol\":6897:6904  account */\n  dup3\n    /* \"polygon token claim/AccessControl.sol\":6880:6890  _grantRole */\n  shl(0x20, tag_17)\n    /* \"polygon token claim/AccessControl.sol\":6880:6905  _grantRole(role, account) */\n  0x20\n  shr\n  jump\t// in\ntag_16:\n    /* \"polygon token claim/AccessControl.sol\":6801:6913  function _setupRole(bytes32 role, address account) internal virtual {\r... */\n  pop\n  pop\n  jump\t// out\n    /* \"polygon token claim/AccessControl.sol\":7425:7663  function _grantRole(bytes32 role, address account) internal virtual {\r... */\ntag_17:\n    /* \"polygon token claim/AccessControl.sol\":7509:7531  hasRole(role, account) */\n  tag_19\n    /* \"polygon token claim/AccessControl.sol\":7517:7521  role */\n  dup3\n    /* \"polygon token claim/AccessControl.sol\":7523:7530  account */\n  dup3\n    /* \"polygon token claim/AccessControl.sol\":7509:7516  hasRole */\n  shl(0x20, tag_20)\n    /* \"polygon token claim/AccessControl.sol\":7509:7531  hasRole(role, account) */\n  0x20\n  shr\n  jump\t// in\ntag_19:\n    /* \"polygon token claim/AccessControl.sol\":7504:7656  if (!hasRole(role, account)) {\r... */\n  tag_21\n  jumpi\n    /* \"polygon token claim/AccessControl.sol\":7580:7584  true */\n  0x01\n    /* \"polygon token claim/AccessControl.sol\":7548:7554  _roles */\n  dup1\n    /* \"polygon token claim/AccessControl.sol\":7548:7560  _roles[role] */\n  0x00\n    /* \"polygon token claim/AccessControl.sol\":7555:7559  role */\n  dup5\n    /* \"polygon token claim/AccessControl.sol\":7548:7560  _roles[role] */\n  dup2\n  mstore\n  0x20\n  add\n  swap1\n  dup2\n  mstore\n  0x20\n  add\n  0x00\n  keccak256\n    /* \"polygon token claim/AccessControl.sol\":7548:7568  _roles[role].members */\n  0x00\n  add\n    /* \"polygon token claim/AccessControl.sol\":7548:7577  _roles[role].members[account] */\n  0x00\n    /* \"polygon token claim/AccessControl.sol\":7569:7576  account */\n  dup4\n    /* \"polygon token claim/AccessControl.sol\":7548:7577  _roles[role].members[account] */\n  0xffffffffffffffffffffffffffffffffffffffff\n  and\n  0xffffffffffffffffffffffffffffffffffffffff\n  and\n  dup2\n  mstore\n  0x20\n  add\n  swap1\n  dup2\n  mstore\n  0x20\n  add\n  0x00\n  keccak256\n  0x00\n    /* \"polygon token claim/AccessControl.sol\":7548:7584  _roles[role].members[account] = true */\n  0x0100\n  exp\n  dup2\n  sload\n  dup2\n  0xff\n  mul\n  not\n  and\n  swap1\n  dup4\n  iszero\n  iszero\n  mul\n  or\n  swap1\n  sstore\n  pop\n    /* \"polygon token claim/AccessControl.sol\":7631:7643  _msgSender() */\n  tag_22\n    /* \"polygon token claim/AccessControl.sol\":7631:7641  _msgSender */\n  shl(0x20, tag_7)\n    /* \"polygon token claim/AccessControl.sol\":7631:7643  _msgSender() */\n  0x20\n  shr\n  jump\t// in\ntag_22:\n    /* \"polygon token claim/AccessControl.sol\":7604:7644  RoleGranted(role, account, _msgSender()) */\n  0xffffffffffffffffffffffffffffffffffffffff\n  and\n    /* \"polygon token claim/AccessControl.sol\":7622:7629  account */\n  dup2\n    /* \"polygon token claim/AccessControl.sol\":7604:7644  RoleGranted(role, account, _msgSender()) */\n  0xffffffffffffffffffffffffffffffffffffffff\n  and\n    /* \"polygon token claim/AccessControl.sol\":7616:7620  role */\n  dup4\n    /* \"polygon token claim/AccessControl.sol\":7604:7644  RoleGranted(role, account, _msgSender()) */\n  0x2f8788117e7eff1d82e926ec794901d17c78024a50270940304540a733656f0d\n  mload(0x40)\n  mload(0x40)\n  dup1\n  swap2\n  sub\n  swap1\n  log4\n    /* \"polygon token claim/AccessControl.sol\":7504:7656  if (!hasRole(role, account)) {\r... */\ntag_21:\n    /* \"polygon token claim/AccessControl.sol\":7425:7663  function _grantRole(bytes32 role, address account) internal virtual {\r... */\n  pop\n  pop\n  jump\t// out\n    /* \"polygon token claim/AccessControl.sol\":2943:3090  function hasRole(bytes32 role, address account) public view virtual override returns (bool) {\r... */\ntag_20:\n    /* \"polygon token claim/AccessControl.sol\":3029:3033  bool */\n  0x00\n    /* \"polygon token claim/AccessControl.sol\":3053:3059  _roles */\n  0x01\n    /* \"polygon token claim/AccessControl.sol\":3053:3065  _roles[role] */\n  0x00\n    /* \"polygon token claim/AccessControl.sol\":3060:3064  role */\n  dup5\n    /* \"polygon token claim/AccessControl.sol\":3053:3065  _roles[role] */\n  dup2\n  mstore\n  0x20\n  add\n  swap1\n  dup2\n  mstore\n  0x20\n  add\n  0x00\n  keccak256\n    /* \"polygon token claim/AccessControl.sol\":3053:3073  _roles[role].members */\n  0x00\n  add\n    /* \"polygon token claim/AccessControl.sol\":3053:3082  _roles[role].members[account] */\n  0x00\n    /* \"polygon token claim/AccessControl.sol\":3074:3081  account */\n  dup4\n    /* \"polygon token claim/AccessControl.sol\":3053:3082  _roles[role].members[account] */\n  0xffffffffffffffffffffffffffffffffffffffff\n  and\n  0xffffffffffffffffffffffffffffffffffffffff\n  and\n  dup2\n  mstore\n  0x20\n  add\n  swap1\n  dup2\n  mstore\n  0x20\n  add\n  0x00\n  keccak256\n  0x00\n  swap1\n  sload\n  swap1\n  0x0100\n  exp\n  swap1\n  div\n  0xff\n  and\n    /* \"polygon token claim/AccessControl.sol\":3046:3082  return _roles[role].members[account] */\n  swap1\n  pop\n    /* \"polygon token claim/AccessControl.sol\":2943:3090  function hasRole(bytes32 role, address account) public view virtual override returns (bool) {\r... */\n  swap3\n  swap2\n  pop\n  pop\n  jump\t// out\n    /* \"polygon token claim/Weird Claiming.sol\":761:985  contract WeirdClaiming is Ownable, AccessControl {\r... */\ntag_12:\n  dataSize(sub_0)\n  dup1\n  dataOffset(sub_0)\n  0x00\n  codecopy\n  0x00\n  return\nstop\n\nsub_0: assembly {\n        /* \"polygon token claim/Weird Claiming.sol\":761:985  contract WeirdClaiming is Ownable, AccessControl {\r... */\n      mstore(0x40, 0x80)\n      callvalue\n      dup1\n      iszero\n      tag_1\n      jumpi\n      0x00\n      dup1\n      revert\n    tag_1:\n      pop\n      jumpi(tag_2, lt(calldatasize, 0x04))\n      shr(0xe0, calldataload(0x00))\n      dup1\n      0x715018a6\n      gt\n      tag_14\n      jumpi\n      dup1\n      0x715018a6\n      eq\n      tag_8\n      jumpi\n      dup1\n      0x8da5cb5b\n      eq\n      tag_9\n      jumpi\n      dup1\n      0x91d14854\n      eq\n      tag_10\n      jumpi\n      dup1\n      0xa217fddf\n      eq\n      tag_11\n      jumpi\n      dup1\n      0xd547741f\n      eq\n      tag_12\n      jumpi\n      dup1\n      0xf2fde38b\n      eq\n      tag_13\n      jumpi\n      jump(tag_2)\n    tag_14:\n      dup1\n      0x01ffc9a7\n      eq\n      tag_3\n      jumpi\n      dup1\n      0x153252ec\n      eq\n      tag_4\n      jumpi\n      dup1\n      0x248a9ca3\n      eq\n      tag_5\n      jumpi\n      dup1\n      0x2f2ff15d\n      eq\n      tag_6\n      jumpi\n      dup1\n      0x36568abe\n      eq\n      tag_7\n      jumpi\n    tag_2:\n      0x00\n      dup1\n      revert\n        /* \"polygon token claim/AccessControl.sol\":2647:2851  function supportsInterface(bytes4 interfaceId) public view virtual override returns (bool) {\r... */\n    tag_3:\n      tag_15\n      0x04\n      dup1\n      calldatasize\n      sub\n      dup2\n      add\n      swap1\n      tag_16\n      swap2\n      swap1\n      tag_17\n      jump\t// in\n    tag_16:\n      tag_18\n      jump\t// in\n    tag_15:\n      mload(0x40)\n      tag_19\n      swap2\n      swap1\n      tag_20\n      jump\t// in\n    tag_19:\n      mload(0x40)\n      dup1\n      swap2\n      sub\n      swap1\n      return\n        /* \"polygon token claim/Weird Claiming.sol\":817:892  ERC20 public WeirdToken = ERC20(0xcB8BCDb991B45bF5D78000a0b5C0A6686cE43790) */\n    tag_4:\n      tag_21\n      tag_22\n      jump\t// in\n    tag_21:\n      mload(0x40)\n      tag_23\n      swap2\n      swap1\n      tag_24\n      jump\t// in\n    tag_23:\n      mload(0x40)\n      dup1\n      swap2\n      sub\n      swap1\n      return\n        /* \"polygon token claim/AccessControl.sol\":4483:4614  function getRoleAdmin(bytes32 role) public view virtual override returns (bytes32) {\r... */\n    tag_5:\n      tag_25\n      0x04\n      dup1\n      calldatasize\n      sub\n      dup2\n      add\n      swap1\n      tag_26\n      swap2\n      swap1\n      tag_27\n      jump\t// in\n    tag_26:\n      tag_28\n      jump\t// in\n    tag_25:\n      mload(0x40)\n      tag_29\n      swap2\n      swap1\n      tag_30\n      jump\t// in\n    tag_29:\n      mload(0x40)\n      dup1\n      swap2\n      sub\n      swap1\n      return\n        /* \"polygon token claim/AccessControl.sol\":4876:5023  function grantRole(bytes32 role, address account) public virtual override onlyRole(getRoleAdmin(role)) {\r... */\n    tag_6:\n      tag_31\n      0x04\n      dup1\n      calldatasize\n      sub\n      dup2\n      add\n      swap1\n      tag_32\n      swap2\n      swap1\n      tag_33\n      jump\t// in\n    tag_32:\n      tag_34\n      jump\t// in\n    tag_31:\n      stop\n        /* \"polygon token claim/AccessControl.sol\":5924:6142  function renounceRole(bytes32 role, address account) public virtual override {\r... */\n    tag_7:\n      tag_35\n      0x04\n      dup1\n      calldatasize\n      sub\n      dup2\n      add\n      swap1\n      tag_36\n      swap2\n      swap1\n      tag_33\n      jump\t// in\n    tag_36:\n      tag_37\n      jump\t// in\n    tag_35:\n      stop\n        /* \"polygon token claim/Ownable.sol\":1714:1817  function renounceOwnership() public virtual onlyOwner {\r... */\n    tag_8:\n      tag_38\n      tag_39\n      jump\t// in\n    tag_38:\n      stop\n        /* \"polygon token claim/Ownable.sol\":1063:1150  function owner() public view virtual returns (address) {\r... */\n    tag_9:\n      tag_40\n      tag_41\n      jump\t// in\n    tag_40:\n      mload(0x40)\n      tag_42\n      swap2\n      swap1\n      tag_43\n      jump\t// in\n    tag_42:\n      mload(0x40)\n      dup1\n      swap2\n      sub\n      swap1\n      return\n        /* \"polygon token claim/AccessControl.sol\":2943:3090  function hasRole(bytes32 role, address account) public view virtual override returns (bool) {\r... */\n    tag_10:\n      tag_44\n      0x04\n      dup1\n      calldatasize\n      sub\n      dup2\n      add\n      swap1\n      tag_45\n      swap2\n      swap1\n      tag_33\n      jump\t// in\n    tag_45:\n      tag_46\n      jump\t// in\n    tag_44:\n      mload(0x40)\n      tag_47\n      swap2\n      swap1\n      tag_20\n      jump\t// in\n    tag_47:\n      mload(0x40)\n      dup1\n      swap2\n      sub\n      swap1\n      return\n        /* \"polygon token claim/AccessControl.sol\":2048:2097  bytes32 public constant DEFAULT_ADMIN_ROLE = 0x00 */\n    tag_11:\n      tag_48\n      tag_49\n      jump\t// in\n    tag_48:\n      mload(0x40)\n      tag_50\n      swap2\n      swap1\n      tag_30\n      jump\t// in\n    tag_50:\n      mload(0x40)\n      dup1\n      swap2\n      sub\n      swap1\n      return\n        /* \"polygon token claim/AccessControl.sol\":5268:5417  function revokeRole(bytes32 role, address account) public virtual override onlyRole(getRoleAdmin(role)) {\r... */\n    tag_12:\n      tag_51\n      0x04\n      dup1\n      calldatasize\n      sub\n      dup2\n      add\n      swap1\n      tag_52\n      swap2\n      swap1\n      tag_33\n      jump\t// in\n    tag_52:\n      tag_53\n      jump\t// in\n    tag_51:\n      stop\n        /* \"polygon token claim/Ownable.sol\":1972:2173  function transferOwnership(address newOwner) public virtual onlyOwner {\r... */\n    tag_13:\n      tag_54\n      0x04\n      dup1\n      calldatasize\n      sub\n      dup2\n      add\n      swap1\n      tag_55\n      swap2\n      swap1\n      tag_56\n      jump\t// in\n    tag_55:\n      tag_57\n      jump\t// in\n    tag_54:\n      stop\n        /* \"polygon token claim/AccessControl.sol\":2647:2851  function supportsInterface(bytes4 interfaceId) public view virtual override returns (bool) {\r... */\n    tag_18:\n        /* \"polygon token claim/AccessControl.sol\":2732:2736  bool */\n      0x00\n        /* \"polygon token claim/AccessControl.sol\":2771:2803  type(IAccessControl).interfaceId */\n      0x7965db0b00000000000000000000000000000000000000000000000000000000\n        /* \"polygon token claim/AccessControl.sol\":2756:2803  interfaceId == type(IAccessControl).interfaceId */\n      not(0xffffffffffffffffffffffffffffffffffffffffffffffffffffffff)\n      and\n        /* \"polygon token claim/AccessControl.sol\":2756:2767  interfaceId */\n      dup3\n        /* \"polygon token claim/AccessControl.sol\":2756:2803  interfaceId == type(IAccessControl).interfaceId */\n      not(0xffffffffffffffffffffffffffffffffffffffffffffffffffffffff)\n      and\n      eq\n        /* \"polygon token claim/AccessControl.sol\":2756:2843  interfaceId == type(IAccessControl).interfaceId || super.supportsInterface(interfaceId) */\n      dup1\n      tag_59\n      jumpi\n      pop\n        /* \"polygon token claim/AccessControl.sol\":2807:2843  super.supportsInterface(interfaceId) */\n      tag_60\n        /* \"polygon token claim/AccessControl.sol\":2831:2842  interfaceId */\n      dup3\n        /* \"polygon token claim/AccessControl.sol\":2807:2830  super.supportsInterface */\n      tag_61\n        /* \"polygon token claim/AccessControl.sol\":2807:2843  super.supportsInterface(interfaceId) */\n      jump\t// in\n    tag_60:\n        /* \"polygon token claim/AccessControl.sol\":2756:2843  interfaceId == type(IAccessControl).interfaceId || super.supportsInterface(interfaceId) */\n    tag_59:\n        /* \"polygon token claim/AccessControl.sol\":2749:2843  return interfaceId == type(IAccessControl).interfaceId || super.supportsInterface(interfaceId) */\n      swap1\n      pop\n        /* \"polygon token claim/AccessControl.sol\":2647:2851  function supportsInterface(bytes4 interfaceId) public view virtual override returns (bool) {\r... */\n      swap2\n      swap1\n      pop\n      jump\t// out\n        /* \"polygon token claim/Weird Claiming.sol\":817:892  ERC20 public WeirdToken = ERC20(0xcB8BCDb991B45bF5D78000a0b5C0A6686cE43790) */\n    tag_22:\n      0x02\n      0x00\n      swap1\n      sload\n      swap1\n      0x0100\n      exp\n      swap1\n      div\n      0xffffffffffffffffffffffffffffffffffffffff\n      and\n      dup2\n      jump\t// out\n        /* \"polygon token claim/AccessControl.sol\":4483:4614  function getRoleAdmin(bytes32 role) public view virtual override returns (bytes32) {\r... */\n    tag_28:\n        /* \"polygon token claim/AccessControl.sol\":4557:4564  bytes32 */\n      0x00\n        /* \"polygon token claim/AccessControl.sol\":4584:4590  _roles */\n      0x01\n        /* \"polygon token claim/AccessControl.sol\":4584:4596  _roles[role] */\n      0x00\n        /* \"polygon token claim/AccessControl.sol\":4591:4595  role */\n      dup4\n        /* \"polygon token claim/AccessControl.sol\":4584:4596  _roles[role] */\n      dup2\n      mstore\n      0x20\n      add\n      swap1\n      dup2\n      mstore\n      0x20\n      add\n      0x00\n      keccak256\n        /* \"polygon token claim/AccessControl.sol\":4584:4606  _roles[role].adminRole */\n      0x01\n      add\n      sload\n        /* \"polygon token claim/AccessControl.sol\":4577:4606  return _roles[role].adminRole */\n      swap1\n      pop\n        /* \"polygon token claim/AccessControl.sol\":4483:4614  function getRoleAdmin(bytes32 role) public view virtual override returns (bytes32) {\r... */\n      swap2\n      swap1\n      pop\n      jump\t// out\n        /* \"polygon token claim/AccessControl.sol\":4876:5023  function grantRole(bytes32 role, address account) public virtual override onlyRole(getRoleAdmin(role)) {\r... */\n    tag_34:\n        /* \"polygon token claim/AccessControl.sol\":4959:4977  getRoleAdmin(role) */\n      tag_63\n        /* \"polygon token claim/AccessControl.sol\":4972:4976  role */\n      dup3\n        /* \"polygon token claim/AccessControl.sol\":4959:4971  getRoleAdmin */\n      tag_28\n        /* \"polygon token claim/AccessControl.sol\":4959:4977  getRoleAdmin(role) */\n      jump\t// in\n    tag_63:\n        /* \"polygon token claim/AccessControl.sol\":2539:2555  _checkRole(role) */\n      tag_65\n        /* \"polygon token claim/AccessControl.sol\":2550:2554  role */\n      dup2\n        /* \"polygon token claim/AccessControl.sol\":2539:2549  _checkRole */\n      tag_66\n        /* \"polygon token claim/AccessControl.sol\":2539:2555  _checkRole(role) */\n      jump\t// in\n    tag_65:\n        /* \"polygon token claim/AccessControl.sol\":4990:5015  _grantRole(role, account) */\n      tag_68\n        /* \"polygon token claim/AccessControl.sol\":5001:5005  role */\n      dup4\n        /* \"polygon token claim/AccessControl.sol\":5007:5014  account */\n      dup4\n        /* \"polygon token claim/AccessControl.sol\":4990:5000  _grantRole */\n      tag_69\n        /* \"polygon token claim/AccessControl.sol\":4990:5015  _grantRole(role, account) */\n      jump\t// in\n    tag_68:\n        /* \"polygon token claim/AccessControl.sol\":4876:5023  function grantRole(bytes32 role, address account) public virtual override onlyRole(getRoleAdmin(role)) {\r... */\n      pop\n      pop\n      pop\n      jump\t// out\n        /* \"polygon token claim/AccessControl.sol\":5924:6142  function renounceRole(bytes32 role, address account) public virtual override {\r... */\n    tag_37:\n        /* \"polygon token claim/AccessControl.sol\":6031:6043  _msgSender() */\n      tag_71\n        /* \"polygon token claim/AccessControl.sol\":6031:6041  _msgSender */\n      tag_72\n        /* \"polygon token claim/AccessControl.sol\":6031:6043  _msgSender() */\n      jump\t// in\n    tag_71:\n        /* \"polygon token claim/AccessControl.sol\":6020:6043  account == _msgSender() */\n      0xffffffffffffffffffffffffffffffffffffffff\n      and\n        /* \"polygon token claim/AccessControl.sol\":6020:6027  account */\n      dup2\n        /* \"polygon token claim/AccessControl.sol\":6020:6043  account == _msgSender() */\n      0xffffffffffffffffffffffffffffffffffffffff\n      and\n      eq\n        /* \"polygon token claim/AccessControl.sol\":6012:6095  require(account == _msgSender(), \"AccessControl: can only renounce roles for self\") */\n      tag_73\n      jumpi\n      mload(0x40)\n      0x08c379a000000000000000000000000000000000000000000000000000000000\n      dup2\n      mstore\n      0x04\n      add\n      tag_74\n      swap1\n      tag_75\n      jump\t// in\n    tag_74:\n      mload(0x40)\n      dup1\n      swap2\n      sub\n      swap1\n      revert\n    tag_73:\n        /* \"polygon token claim/AccessControl.sol\":6108:6134  _revokeRole(role, account) */\n      tag_76\n        /* \"polygon token claim/AccessControl.sol\":6120:6124  role */\n      dup3\n        /* \"polygon token claim/AccessControl.sol\":6126:6133  account */\n      dup3\n        /* \"polygon token claim/AccessControl.sol\":6108:6119  _revokeRole */\n      tag_77\n        /* \"polygon token claim/AccessControl.sol\":6108:6134  _revokeRole(role, account) */\n      jump\t// in\n    tag_76:\n        /* \"polygon token claim/AccessControl.sol\":5924:6142  function renounceRole(bytes32 role, address account) public virtual override {\r... */\n      pop\n      pop\n      jump\t// out\n        /* \"polygon token claim/Ownable.sol\":1714:1817  function renounceOwnership() public virtual onlyOwner {\r... */\n    tag_39:\n        /* \"polygon token claim/Ownable.sol\":1294:1306  _msgSender() */\n      tag_79\n        /* \"polygon token claim/Ownable.sol\":1294:1304  _msgSender */\n      tag_72\n        /* \"polygon token claim/Ownable.sol\":1294:1306  _msgSender() */\n      jump\t// in\n    tag_79:\n        /* \"polygon token claim/Ownable.sol\":1283:1306  owner() == _msgSender() */\n      0xffffffffffffffffffffffffffffffffffffffff\n      and\n        /* \"polygon token claim/Ownable.sol\":1283:1290  owner() */\n      tag_80\n        /* \"polygon token claim/Ownable.sol\":1283:1288  owner */\n      tag_41\n        /* \"polygon token claim/Ownable.sol\":1283:1290  owner() */\n      jump\t// in\n    tag_80:\n        /* \"polygon token claim/Ownable.sol\":1283:1306  owner() == _msgSender() */\n      0xffffffffffffffffffffffffffffffffffffffff\n      and\n      eq\n        /* \"polygon token claim/Ownable.sol\":1275:1343  require(owner() == _msgSender(), \"Ownable: caller is not the owner\") */\n      tag_81\n      jumpi\n      mload(0x40)\n      0x08c379a000000000000000000000000000000000000000000000000000000000\n      dup2\n      mstore\n      0x04\n      add\n      tag_82\n      swap1\n      tag_83\n      jump\t// in\n    tag_82:\n      mload(0x40)\n      dup1\n      swap2\n      sub\n      swap1\n      revert\n    tag_81:\n        /* \"polygon token claim/Ownable.sol\":1779:1809  _transferOwnership(address(0)) */\n      tag_85\n        /* \"polygon token claim/Ownable.sol\":1806:1807  0 */\n      0x00\n        /* \"polygon token claim/Ownable.sol\":1779:1797  _transferOwnership */\n      tag_86\n        /* \"polygon token claim/Ownable.sol\":1779:1809  _transferOwnership(address(0)) */\n      jump\t// in\n    tag_85:\n        /* \"polygon token claim/Ownable.sol\":1714:1817  function renounceOwnership() public virtual onlyOwner {\r... */\n      jump\t// out\n        /* \"polygon token claim/Ownable.sol\":1063:1150  function owner() public view virtual returns (address) {\r... */\n    tag_41:\n        /* \"polygon token claim/Ownable.sol\":1109:1116  address */\n      0x00\n        /* \"polygon token claim/Ownable.sol\":1136:1142  _owner */\n      dup1\n      0x00\n      swap1\n      sload\n      swap1\n      0x0100\n      exp\n      swap1\n      div\n      0xffffffffffffffffffffffffffffffffffffffff\n      and\n        /* \"polygon token claim/Ownable.sol\":1129:1142  return _owner */\n      swap1\n      pop\n        /* \"polygon token claim/Ownable.sol\":1063:1150  function owner() public view virtual returns (address) {\r... */\n      swap1\n      jump\t// out\n        /* \"polygon token claim/AccessControl.sol\":2943:3090  function hasRole(bytes32 role, address account) public view virtual override returns (bool) {\r... */\n    tag_46:\n        /* \"polygon token claim/AccessControl.sol\":3029:3033  bool */\n      0x00\n        /* \"polygon token claim/AccessControl.sol\":3053:3059  _roles */\n      0x01\n        /* \"polygon token claim/AccessControl.sol\":3053:3065  _roles[role] */\n      0x00\n        /* \"polygon token claim/AccessControl.sol\":3060:3064  role */\n      dup5\n        /* \"polygon token claim/AccessControl.sol\":3053:3065  _roles[role] */\n      dup2\n      mstore\n      0x20\n      add\n      swap1\n      dup2\n      mstore\n      0x20\n      add\n      0x00\n      keccak256\n        /* \"polygon token claim/AccessControl.sol\":3053:3073  _roles[role].members */\n      0x00\n      add\n        /* \"polygon token claim/AccessControl.sol\":3053:3082  _roles[role].members[account] */\n      0x00\n        /* \"polygon token claim/AccessControl.sol\":3074:3081  account */\n      dup4\n        /* \"polygon token claim/AccessControl.sol\":3053:3082  _roles[role].members[account] */\n      0xffffffffffffffffffffffffffffffffffffffff\n      and\n      0xffffffffffffffffffffffffffffffffffffffff\n      and\n      dup2\n      mstore\n      0x20\n      add\n      swap1\n      dup2\n      mstore\n      0x20\n      add\n      0x00\n      keccak256\n      0x00\n      swap1\n      sload\n      swap1\n      0x0100\n      exp\n      swap1\n      div\n      0xff\n      and\n        /* \"polygon token claim/AccessControl.sol\":3046:3082  return _roles[role].members[account] */\n      swap1\n      pop\n        /* \"polygon token claim/AccessControl.sol\":2943:3090  function hasRole(bytes32 role, address account) public view virtual override returns (bool) {\r... */\n      swap3\n      swap2\n      pop\n      pop\n      jump\t// out\n        /* \"polygon token claim/AccessControl.sol\":2048:2097  bytes32 public constant DEFAULT_ADMIN_ROLE = 0x00 */\n    tag_49:\n        /* \"polygon token claim/AccessControl.sol\":2093:2097  0x00 */\n      0x00\n        /* \"polygon token claim/AccessControl.sol\":2048:2097  bytes32 public constant DEFAULT_ADMIN_ROLE = 0x00 */\n      dup1\n      shl\n      dup2\n      jump\t// out\n        /* \"polygon token claim/AccessControl.sol\":5268:5417  function revokeRole(bytes32 role, address account) public virtual override onlyRole(getRoleAdmin(role)) {\r... */\n    tag_53:\n        /* \"polygon token claim/AccessControl.sol\":5352:5370  getRoleAdmin(role) */\n      tag_89\n        /* \"polygon token claim/AccessControl.sol\":5365:5369  role */\n      dup3\n        /* \"polygon token claim/AccessControl.sol\":5352:5364  getRoleAdmin */\n      tag_28\n        /* \"polygon token claim/AccessControl.sol\":5352:5370  getRoleAdmin(role) */\n      jump\t// in\n    tag_89:\n        /* \"polygon token claim/AccessControl.sol\":2539:2555  _checkRole(role) */\n      tag_91\n        /* \"polygon token claim/AccessControl.sol\":2550:2554  role */\n      dup2\n        /* \"polygon token claim/AccessControl.sol\":2539:2549  _checkRole */\n      tag_66\n        /* \"polygon token claim/AccessControl.sol\":2539:2555  _checkRole(role) */\n      jump\t// in\n    tag_91:\n        /* \"polygon token claim/AccessControl.sol\":5383:5409  _revokeRole(role, account) */\n      tag_93\n        /* \"polygon token claim/AccessControl.sol\":5395:5399  role */\n      dup4\n        /* \"polygon token claim/AccessControl.sol\":5401:5408  account */\n      dup4\n        /* \"polygon token claim/AccessControl.sol\":5383:5394  _revokeRole */\n      tag_77\n        /* \"polygon token claim/AccessControl.sol\":5383:5409  _revokeRole(role, account) */\n      jump\t// in\n    tag_93:\n        /* \"polygon token claim/AccessControl.sol\":5268:5417  function revokeRole(bytes32 role, address account) public virtual override onlyRole(getRoleAdmin(role)) {\r... */\n      pop\n      pop\n      pop\n      jump\t// out\n        /* \"polygon token claim/Ownable.sol\":1972:2173  function transferOwnership(address newOwner) public virtual onlyOwner {\r... */\n    tag_57:\n        /* \"polygon token claim/Ownable.sol\":1294:1306  _msgSender() */\n      tag_95\n        /* \"polygon token claim/Ownable.sol\":1294:1304  _msgSender */\n      tag_72\n        /* \"polygon token claim/Ownable.sol\":1294:1306  _msgSender() */\n      jump\t// in\n    tag_95:\n        /* \"polygon token claim/Ownable.sol\":1283:1306  owner() == _msgSender() */\n      0xffffffffffffffffffffffffffffffffffffffff\n      and\n        /* \"polygon token claim/Ownable.sol\":1283:1290  owner() */\n      tag_96\n        /* \"polygon token claim/Ownable.sol\":1283:1288  owner */\n      tag_41\n        /* \"polygon token claim/Ownable.sol\":1283:1290  owner() */\n      jump\t// in\n    tag_96:\n        /* \"polygon token claim/Ownable.sol\":1283:1306  owner() == _msgSender() */\n      0xffffffffffffffffffffffffffffffffffffffff\n      and\n      eq\n        /* \"polygon token claim/Ownable.sol\":1275:1343  require(owner() == _msgSender(), \"Ownable: caller is not the owner\") */\n      tag_97\n      jumpi\n      mload(0x40)\n      0x08c379a000000000000000000000000000000000000000000000000000000000\n      dup2\n      mstore\n      0x04\n      add\n      tag_98\n      swap1\n      tag_83\n      jump\t// in\n    tag_98:\n      mload(0x40)\n      dup1\n      swap2\n      sub\n      swap1\n      revert\n    tag_97:\n        /* \"polygon token claim/Ownable.sol\":2081:2082  0 */\n      0x00\n        /* \"polygon token claim/Ownable.sol\":2061:2083  newOwner != address(0) */\n      0xffffffffffffffffffffffffffffffffffffffff\n      and\n        /* \"polygon token claim/Ownable.sol\":2061:2069  newOwner */\n      dup2\n        /* \"polygon token claim/Ownable.sol\":2061:2083  newOwner != address(0) */\n      0xffffffffffffffffffffffffffffffffffffffff\n      and\n      eq\n      iszero\n        /* \"polygon token claim/Ownable.sol\":2053:2126  require(newOwner != address(0), \"Ownable: new owner is the zero address\") */\n      tag_100\n      jumpi\n      mload(0x40)\n      0x08c379a000000000000000000000000000000000000000000000000000000000\n      dup2\n      mstore\n      0x04\n      add\n      tag_101\n      swap1\n      tag_102\n      jump\t// in\n    tag_101:\n      mload(0x40)\n      dup1\n      swap2\n      sub\n      swap1\n      revert\n    tag_100:\n        /* \"polygon token claim/Ownable.sol\":2137:2165  _transferOwnership(newOwner) */\n      tag_103\n        /* \"polygon token claim/Ownable.sol\":2156:2164  newOwner */\n      dup2\n        /* \"polygon token claim/Ownable.sol\":2137:2155  _transferOwnership */\n      tag_86\n        /* \"polygon token claim/Ownable.sol\":2137:2165  _transferOwnership(newOwner) */\n      jump\t// in\n    tag_103:\n        /* \"polygon token claim/Ownable.sol\":1972:2173  function transferOwnership(address newOwner) public virtual onlyOwner {\r... */\n      pop\n      jump\t// out\n        /* \"polygon token claim/ERC165.sol\":854:1011  function supportsInterface(bytes4 interfaceId) public view virtual override returns (bool) {\r... */\n    tag_61:\n        /* \"polygon token claim/ERC165.sol\":939:943  bool */\n      0x00\n        /* \"polygon token claim/ERC165.sol\":978:1003  type(IERC165).interfaceId */\n      0x01ffc9a700000000000000000000000000000000000000000000000000000000\n        /* \"polygon token claim/ERC165.sol\":963:1003  interfaceId == type(IERC165).interfaceId */\n      not(0xffffffffffffffffffffffffffffffffffffffffffffffffffffffff)\n      and\n        /* \"polygon token claim/ERC165.sol\":963:974  interfaceId */\n      dup3\n        /* \"polygon token claim/ERC165.sol\":963:1003  interfaceId == type(IERC165).interfaceId */\n      not(0xffffffffffffffffffffffffffffffffffffffffffffffffffffffff)\n      and\n      eq\n        /* \"polygon token claim/ERC165.sol\":956:1003  return interfaceId == type(IERC165).interfaceId */\n      swap1\n      pop\n        /* \"polygon token claim/ERC165.sol\":854:1011  function supportsInterface(bytes4 interfaceId) public view virtual override returns (bool) {\r... */\n      swap2\n      swap1\n      pop\n      jump\t// out\n        /* \"polygon token claim/AccessControl.sol\":3394:3499  function _checkRole(bytes32 role) internal view virtual {\r... */\n    tag_66:\n        /* \"polygon token claim/AccessControl.sol\":3461:3491  _checkRole(role, _msgSender()) */\n      tag_106\n        /* \"polygon token claim/AccessControl.sol\":3472:3476  role */\n      dup2\n        /* \"polygon token claim/AccessControl.sol\":3478:3490  _msgSender() */\n      tag_107\n        /* \"polygon token claim/AccessControl.sol\":3478:3488  _msgSender */\n      tag_72\n        /* \"polygon token claim/AccessControl.sol\":3478:3490  _msgSender() */\n      jump\t// in\n    tag_107:\n        /* \"polygon token claim/AccessControl.sol\":3461:3471  _checkRole */\n      tag_108\n        /* \"polygon token claim/AccessControl.sol\":3461:3491  _checkRole(role, _msgSender()) */\n      jump\t// in\n    tag_106:\n        /* \"polygon token claim/AccessControl.sol\":3394:3499  function _checkRole(bytes32 role) internal view virtual {\r... */\n      pop\n      jump\t// out\n        /* \"polygon token claim/AccessControl.sol\":7425:7663  function _grantRole(bytes32 role, address account) internal virtual {\r... */\n    tag_69:\n        /* \"polygon token claim/AccessControl.sol\":7509:7531  hasRole(role, account) */\n      tag_110\n        /* \"polygon token claim/AccessControl.sol\":7517:7521  role */\n      dup3\n        /* \"polygon token claim/AccessControl.sol\":7523:7530  account */\n      dup3\n        /* \"polygon token claim/AccessControl.sol\":7509:7516  hasRole */\n      tag_46\n        /* \"polygon token claim/AccessControl.sol\":7509:7531  hasRole(role, account) */\n      jump\t// in\n    tag_110:\n        /* \"polygon token claim/AccessControl.sol\":7504:7656  if (!hasRole(role, account)) {\r... */\n      tag_111\n      jumpi\n        /* \"polygon token claim/AccessControl.sol\":7580:7584  true */\n      0x01\n        /* \"polygon token claim/AccessControl.sol\":7548:7554  _roles */\n      dup1\n        /* \"polygon token claim/AccessControl.sol\":7548:7560  _roles[role] */\n      0x00\n        /* \"polygon token claim/AccessControl.sol\":7555:7559  role */\n      dup5\n        /* \"polygon token claim/AccessControl.sol\":7548:7560  _roles[role] */\n      dup2\n      mstore\n      0x20\n      add\n      swap1\n      dup2\n      mstore\n      0x20\n      add\n      0x00\n      keccak256\n        /* \"polygon token claim/AccessControl.sol\":7548:7568  _roles[role].members */\n      0x00\n      add\n        /* \"polygon token claim/AccessControl.sol\":7548:7577  _roles[role].members[account] */\n      0x00\n        /* \"polygon token claim/AccessControl.sol\":7569:7576  account */\n      dup4\n        /* \"polygon token claim/AccessControl.sol\":7548:7577  _roles[role].members[account] */\n      0xffffffffffffffffffffffffffffffffffffffff\n      and\n      0xffffffffffffffffffffffffffffffffffffffff\n      and\n      dup2\n      mstore\n      0x20\n      add\n      swap1\n      dup2\n      mstore\n      0x20\n      add\n      0x00\n      keccak256\n      0x00\n        /* \"polygon token claim/AccessControl.sol\":7548:7584  _roles[role].members[account] = true */\n      0x0100\n      exp\n      dup2\n      sload\n      dup2\n      0xff\n      mul\n      not\n      and\n      swap1\n      dup4\n      iszero\n      iszero\n      mul\n      or\n      swap1\n      sstore\n      pop\n        /* \"polygon token claim/AccessControl.sol\":7631:7643  _msgSender() */\n      tag_112\n        /* \"polygon token claim/AccessControl.sol\":7631:7641  _msgSender */\n      tag_72\n        /* \"polygon token claim/AccessControl.sol\":7631:7643  _msgSender() */\n      jump\t// in\n    tag_112:\n        /* \"polygon token claim/AccessControl.sol\":7604:7644  RoleGranted(role, account, _msgSender()) */\n      0xffffffffffffffffffffffffffffffffffffffff\n      and\n        /* \"polygon token claim/AccessControl.sol\":7622:7629  account */\n      dup2\n        /* \"polygon token claim/AccessControl.sol\":7604:7644  RoleGranted(role, account, _msgSender()) */\n      0xffffffffffffffffffffffffffffffffffffffff\n      and\n        /* \"polygon token claim/AccessControl.sol\":7616:7620  role */\n      dup4\n        /* \"polygon token claim/AccessControl.sol\":7604:7644  RoleGranted(role, account, _msgSender()) */\n      0x2f8788117e7eff1d82e926ec794901d17c78024a50270940304540a733656f0d\n      mload(0x40)\n      mload(0x40)\n      dup1\n      swap2\n      sub\n      swap1\n      log4\n        /* \"polygon token claim/AccessControl.sol\":7504:7656  if (!hasRole(role, account)) {\r... */\n    tag_111:\n        /* \"polygon token claim/AccessControl.sol\":7425:7663  function _grantRole(bytes32 role, address account) internal virtual {\r... */\n      pop\n      pop\n      jump\t// out\n        /* \"polygon token claim/Context.sol\":656:754  function _msgSender() internal view virtual returns (address) {\r... */\n    tag_72:\n        /* \"polygon token claim/Context.sol\":709:716  address */\n      0x00\n        /* \"polygon token claim/Context.sol\":736:746  msg.sender */\n      caller\n        /* \"polygon token claim/Context.sol\":729:746  return msg.sender */\n      swap1\n      pop\n        /* \"polygon token claim/Context.sol\":656:754  function _msgSender() internal view virtual returns (address) {\r... */\n      swap1\n      jump\t// out\n        /* \"polygon token claim/AccessControl.sol\":7795:8034  function _revokeRole(bytes32 role, address account) internal virtual {\r... */\n    tag_77:\n        /* \"polygon token claim/AccessControl.sol\":7879:7901  hasRole(role, account) */\n      tag_115\n        /* \"polygon token claim/AccessControl.sol\":7887:7891  role */\n      dup3\n        /* \"polygon token claim/AccessControl.sol\":7893:7900  account */\n      dup3\n        /* \"polygon token claim/AccessControl.sol\":7879:7886  hasRole */\n      tag_46\n        /* \"polygon token claim/AccessControl.sol\":7879:7901  hasRole(role, account) */\n      jump\t// in\n    tag_115:\n        /* \"polygon token claim/AccessControl.sol\":7875:8027  if (hasRole(role, account)) {\r... */\n      iszero\n      tag_116\n      jumpi\n        /* \"polygon token claim/AccessControl.sol\":7950:7955  false */\n      0x00\n        /* \"polygon token claim/AccessControl.sol\":7918:7924  _roles */\n      0x01\n        /* \"polygon token claim/AccessControl.sol\":7918:7930  _roles[role] */\n      0x00\n        /* \"polygon token claim/AccessControl.sol\":7925:7929  role */\n      dup5\n        /* \"polygon token claim/AccessControl.sol\":7918:7930  _roles[role] */\n      dup2\n      mstore\n      0x20\n      add\n      swap1\n      dup2\n      mstore\n      0x20\n      add\n      0x00\n      keccak256\n        /* \"polygon token claim/AccessControl.sol\":7918:7938  _roles[role].members */\n      0x00\n      add\n        /* \"polygon token claim/AccessControl.sol\":7918:7947  _roles[role].members[account] */\n      0x00\n        /* \"polygon token claim/AccessControl.sol\":7939:7946  account */\n      dup4\n        /* \"polygon token claim/AccessControl.sol\":7918:7947  _roles[role].members[account] */\n      0xffffffffffffffffffffffffffffffffffffffff\n      and\n      0xffffffffffffffffffffffffffffffffffffffff\n      and\n      dup2\n      mstore\n      0x20\n      add\n      swap1\n      dup2\n      mstore\n      0x20\n      add\n      0x00\n      keccak256\n      0x00\n        /* \"polygon token claim/AccessControl.sol\":7918:7955  _roles[role].members[account] = false */\n      0x0100\n      exp\n      dup2\n      sload\n      dup2\n      0xff\n      mul\n      not\n      and\n      swap1\n      dup4\n      iszero\n      iszero\n      mul\n      or\n      swap1\n      sstore\n      pop\n        /* \"polygon token claim/AccessControl.sol\":8002:8014  _msgSender() */\n      tag_117\n        /* \"polygon token claim/AccessControl.sol\":8002:8012  _msgSender */\n      tag_72\n        /* \"polygon token claim/AccessControl.sol\":8002:8014  _msgSender() */\n      jump\t// in\n    tag_117:\n        /* \"polygon token claim/AccessControl.sol\":7975:8015  RoleRevoked(role, account, _msgSender()) */\n      0xffffffffffffffffffffffffffffffffffffffff\n      and\n        /* \"polygon token claim/AccessControl.sol\":7993:8000  account */\n      dup2\n        /* \"polygon token claim/AccessControl.sol\":7975:8015  RoleRevoked(role, account, _msgSender()) */\n      0xffffffffffffffffffffffffffffffffffffffff\n      and\n        /* \"polygon token claim/AccessControl.sol\":7987:7991  role */\n      dup4\n        /* \"polygon token claim/AccessControl.sol\":7975:8015  RoleRevoked(role, account, _msgSender()) */\n      0xf6391f5c32d9c69d2a47ea670b442974b53935d1edc7fd64eb21e047a839171b\n      mload(0x40)\n      mload(0x40)\n      dup1\n      swap2\n      sub\n      swap1\n      log4\n        /* \"polygon token claim/AccessControl.sol\":7875:8027  if (hasRole(role, account)) {\r... */\n    tag_116:\n        /* \"polygon token claim/AccessControl.sol\":7795:8034  function _revokeRole(bytes32 role, address account) internal virtual {\r... */\n      pop\n      pop\n      jump\t// out\n        /* \"polygon token claim/Ownable.sol\":2333:2524  function _transferOwnership(address newOwner) internal virtual {\r... */\n    tag_86:\n        /* \"polygon token claim/Ownable.sol\":2407:2423  address oldOwner */\n      0x00\n        /* \"polygon token claim/Ownable.sol\":2426:2432  _owner */\n      dup1\n      0x00\n      swap1\n      sload\n      swap1\n      0x0100\n      exp\n      swap1\n      div\n      0xffffffffffffffffffffffffffffffffffffffff\n      and\n        /* \"polygon token claim/Ownable.sol\":2407:2432  address oldOwner = _owner */\n      swap1\n      pop\n        /* \"polygon token claim/Ownable.sol\":2452:2460  newOwner */\n      dup2\n        /* \"polygon token claim/Ownable.sol\":2443:2449  _owner */\n      0x00\n      dup1\n        /* \"polygon token claim/Ownable.sol\":2443:2460  _owner = newOwner */\n      0x0100\n      exp\n      dup2\n      sload\n      dup2\n      0xffffffffffffffffffffffffffffffffffffffff\n      mul\n      not\n      and\n      swap1\n      dup4\n      0xffffffffffffffffffffffffffffffffffffffff\n      and\n      mul\n      or\n      swap1\n      sstore\n      pop\n        /* \"polygon token claim/Ownable.sol\":2507:2515  newOwner */\n      dup2\n        /* \"polygon token claim/Ownable.sol\":2476:2516  OwnershipTransferred(oldOwner, newOwner) */\n      0xffffffffffffffffffffffffffffffffffffffff\n      and\n        /* \"polygon token claim/Ownable.sol\":2497:2505  oldOwner */\n      dup2\n        /* \"polygon token claim/Ownable.sol\":2476:2516  OwnershipTransferred(oldOwner, newOwner) */\n      0xffffffffffffffffffffffffffffffffffffffff\n      and\n      0x8be0079c531659141344cd1fd0a4f28419497f9722a3daafe3b4186f6b6457e0\n      mload(0x40)\n      mload(0x40)\n      dup1\n      swap2\n      sub\n      swap1\n      log3\n        /* \"polygon token claim/Ownable.sol\":2396:2524  {\r... */\n      pop\n        /* \"polygon token claim/Ownable.sol\":2333:2524  function _transferOwnership(address newOwner) internal virtual {\r... */\n      pop\n      jump\t// out\n        /* \"polygon token claim/AccessControl.sol\":3789:4294  function _checkRole(bytes32 role, address account) internal view virtual {\r... */\n    tag_108:\n        /* \"polygon token claim/AccessControl.sol\":3878:3900  hasRole(role, account) */\n      tag_120\n        /* \"polygon token claim/AccessControl.sol\":3886:3890  role */\n      dup3\n        /* \"polygon token claim/AccessControl.sol\":3892:3899  account */\n      dup3\n        /* \"polygon token claim/AccessControl.sol\":3878:3885  hasRole */\n      tag_46\n        /* \"polygon token claim/AccessControl.sol\":3878:3900  hasRole(role, account) */\n      jump\t// in\n    tag_120:\n        /* \"polygon token claim/AccessControl.sol\":3873:4287  if (!hasRole(role, account)) {\r... */\n      tag_121\n      jumpi\n        /* \"polygon token claim/AccessControl.sol\":4066:4107  Strings.toHexString(uint160(account), 20) */\n      tag_122\n        /* \"polygon token claim/AccessControl.sol\":4094:4101  account */\n      dup2\n        /* \"polygon token claim/AccessControl.sol\":4066:4107  Strings.toHexString(uint160(account), 20) */\n      0xffffffffffffffffffffffffffffffffffffffff\n      and\n        /* \"polygon token claim/AccessControl.sol\":4104:4106  20 */\n      0x14\n        /* \"polygon token claim/AccessControl.sol\":4066:4085  Strings.toHexString */\n      tag_123\n        /* \"polygon token claim/AccessControl.sol\":4066:4107  Strings.toHexString(uint160(account), 20) */\n      jump\t// in\n    tag_122:\n        /* \"polygon token claim/AccessControl.sol\":4180:4218  Strings.toHexString(uint256(role), 32) */\n      tag_124\n        /* \"polygon token claim/AccessControl.sol\":4208:4212  role */\n      dup4\n        /* \"polygon token claim/AccessControl.sol\":4200:4213  uint256(role) */\n      0x00\n      shr\n        /* \"polygon token claim/AccessControl.sol\":4215:4217  32 */\n      0x20\n        /* \"polygon token claim/AccessControl.sol\":4180:4199  Strings.toHexString */\n      tag_123\n        /* \"polygon token claim/AccessControl.sol\":4180:4218  Strings.toHexString(uint256(role), 32) */\n      jump\t// in\n    tag_124:\n        /* \"polygon token claim/AccessControl.sol\":3971:4241  abi.encodePacked(\r... */\n      add(0x20, mload(0x40))\n      tag_125\n      swap3\n      swap2\n      swap1\n      tag_126\n      jump\t// in\n    tag_125:\n      mload(0x40)\n      0x20\n      dup2\n      dup4\n      sub\n      sub\n      dup2\n      mstore\n      swap1\n      0x40\n      mstore\n        /* \"polygon token claim/AccessControl.sol\":3917:4275  revert(\r... */\n      mload(0x40)\n      0x08c379a000000000000000000000000000000000000000000000000000000000\n      dup2\n      mstore\n      0x04\n      add\n      tag_127\n      swap2\n      swap1\n      tag_128\n      jump\t// in\n    tag_127:\n      mload(0x40)\n      dup1\n      swap2\n      sub\n      swap1\n      revert\n        /* \"polygon token claim/AccessControl.sol\":3873:4287  if (!hasRole(role, account)) {\r... */\n    tag_121:\n        /* \"polygon token claim/AccessControl.sol\":3789:4294  function _checkRole(bytes32 role, address account) internal view virtual {\r... */\n      pop\n      pop\n      jump\t// out\n        /* \"polygon token claim/Strings.sol\":1643:2094  function toHexString(uint256 value, uint256 length) internal pure returns (string memory) {\r... */\n    tag_123:\n        /* \"polygon token claim/Strings.sol\":1718:1731  string memory */\n      0x60\n        /* \"polygon token claim/Strings.sol\":1744:1763  bytes memory buffer */\n      0x00\n        /* \"polygon token claim/Strings.sol\":1789:1790  2 */\n      0x02\n        /* \"polygon token claim/Strings.sol\":1780:1786  length */\n      dup4\n        /* \"polygon token claim/Strings.sol\":1776:1777  2 */\n      0x02\n        /* \"polygon token claim/Strings.sol\":1776:1786  2 * length */\n      tag_130\n      swap2\n      swap1\n      tag_131\n      jump\t// in\n    tag_130:\n        /* \"polygon token claim/Strings.sol\":1776:1790  2 * length + 2 */\n      tag_132\n      swap2\n      swap1\n      tag_133\n      jump\t// in\n    tag_132:\n        /* \"polygon token claim/Strings.sol\":1766:1791  new bytes(2 * length + 2) */\n      0xffffffffffffffff\n      dup2\n      gt\n      iszero\n      tag_134\n      jumpi\n      tag_135\n      tag_136\n      jump\t// in\n    tag_135:\n    tag_134:\n      mload(0x40)\n      swap1\n      dup1\n      dup3\n      mstore\n      dup1\n      0x1f\n      add\n      not(0x1f)\n      and\n      0x20\n      add\n      dup3\n      add\n      0x40\n      mstore\n      dup1\n      iszero\n      tag_137\n      jumpi\n      dup2\n      0x20\n      add\n      0x01\n      dup3\n      mul\n      dup1\n      calldatasize\n      dup4\n      calldatacopy\n      dup1\n      dup3\n      add\n      swap2\n      pop\n      pop\n      swap1\n      pop\n    tag_137:\n      pop\n        /* \"polygon token claim/Strings.sol\":1744:1791  bytes memory buffer = new bytes(2 * length + 2) */\n      swap1\n      pop\n        /* \"polygon token claim/Strings.sol\":1802:1817  buffer[0] = \"0\" */\n      0x3000000000000000000000000000000000000000000000000000000000000000\n        /* \"polygon token claim/Strings.sol\":1802:1808  buffer */\n      dup2\n        /* \"polygon token claim/Strings.sol\":1809:1810  0 */\n      0x00\n        /* \"polygon token claim/Strings.sol\":1802:1811  buffer[0] */\n      dup2\n      mload\n      dup2\n      lt\n      tag_138\n      jumpi\n      tag_139\n      tag_140\n      jump\t// in\n    tag_139:\n    tag_138:\n      0x20\n      add\n      add\n        /* \"polygon token claim/Strings.sol\":1802:1817  buffer[0] = \"0\" */\n      swap1\n      not(0xffffffffffffffffffffffffffffffffffffffffffffffffffffffffffffff)\n      and\n      swap1\n      dup2\n      0x00\n      byte\n      swap1\n      mstore8\n      pop\n        /* \"polygon token claim/Strings.sol\":1828:1843  buffer[1] = \"x\" */\n      0x7800000000000000000000000000000000000000000000000000000000000000\n        /* \"polygon token claim/Strings.sol\":1828:1834  buffer */\n      dup2\n        /* \"polygon token claim/Strings.sol\":1835:1836  1 */\n      0x01\n        /* \"polygon token claim/Strings.sol\":1828:1837  buffer[1] */\n      dup2\n      mload\n      dup2\n      lt\n      tag_141\n      jumpi\n      tag_142\n      tag_140\n      jump\t// in\n    tag_142:\n    tag_141:\n      0x20\n      add\n      add\n        /* \"polygon token claim/Strings.sol\":1828:1843  buffer[1] = \"x\" */\n      swap1\n      not(0xffffffffffffffffffffffffffffffffffffffffffffffffffffffffffffff)\n      and\n      swap1\n      dup2\n      0x00\n      byte\n      swap1\n      mstore8\n      pop\n        /* \"polygon token claim/Strings.sol\":1859:1868  uint256 i */\n      0x00\n        /* \"polygon token claim/Strings.sol\":1884:1885  1 */\n      0x01\n        /* \"polygon token claim/Strings.sol\":1875:1881  length */\n      dup5\n        /* \"polygon token claim/Strings.sol\":1871:1872  2 */\n      0x02\n        /* \"polygon token claim/Strings.sol\":1871:1881  2 * length */\n      tag_146\n      swap2\n      swap1\n      tag_131\n      jump\t// in\n    tag_146:\n        /* \"polygon token claim/Strings.sol\":1871:1885  2 * length + 1 */\n      tag_147\n      swap2\n      swap1\n      tag_133\n      jump\t// in\n    tag_147:\n        /* \"polygon token claim/Strings.sol\":1859:1885  uint256 i = 2 * length + 1 */\n      swap1\n      pop\n        /* \"polygon token claim/Strings.sol\":1854:1989  for (uint256 i = 2 * length + 1; i > 1; --i) {\r... */\n    tag_143:\n        /* \"polygon token claim/Strings.sol\":1891:1892  1 */\n      0x01\n        /* \"polygon token claim/Strings.sol\":1887:1888  i */\n      dup2\n        /* \"polygon token claim/Strings.sol\":1887:1892  i > 1 */\n      gt\n        /* \"polygon token claim/Strings.sol\":1854:1989  for (uint256 i = 2 * length + 1; i > 1; --i) {\r... */\n      iszero\n      tag_144\n      jumpi\n        /* \"polygon token claim/Strings.sol\":1926:1938  _HEX_SYMBOLS */\n      0x3031323334353637383961626364656600000000000000000000000000000000\n        /* \"polygon token claim/Strings.sol\":1947:1950  0xf */\n      0x0f\n        /* \"polygon token claim/Strings.sol\":1939:1944  value */\n      dup7\n        /* \"polygon token claim/Strings.sol\":1939:1950  value & 0xf */\n      and\n        /* \"polygon token claim/Strings.sol\":1926:1951  _HEX_SYMBOLS[value & 0xf] */\n      0x10\n      dup2\n      lt\n      tag_148\n      jumpi\n      tag_149\n      tag_140\n      jump\t// in\n    tag_149:\n    tag_148:\n      byte\n      0xf8\n      shl\n        /* \"polygon token claim/Strings.sol\":1914:1920  buffer */\n      dup3\n        /* \"polygon token claim/Strings.sol\":1921:1922  i */\n      dup3\n        /* \"polygon token claim/Strings.sol\":1914:1923  buffer[i] */\n      dup2\n      mload\n      dup2\n      lt\n      tag_150\n      jumpi\n      tag_151\n      tag_140\n      jump\t// in\n    tag_151:\n    tag_150:\n      0x20\n      add\n      add\n        /* \"polygon token claim/Strings.sol\":1914:1951  buffer[i] = _HEX_SYMBOLS[value & 0xf] */\n      swap1\n      not(0xffffffffffffffffffffffffffffffffffffffffffffffffffffffffffffff)\n      and\n      swap1\n      dup2\n      0x00\n      byte\n      swap1\n      mstore8\n      pop\n        /* \"polygon token claim/Strings.sol\":1976:1977  4 */\n      0x04\n        /* \"polygon token claim/Strings.sol\":1966:1977  value >>= 4 */\n      dup6\n      swap1\n      shr\n      swap5\n      pop\n        /* \"polygon token claim/Strings.sol\":1894:1897  --i */\n      dup1\n      tag_152\n      swap1\n      tag_153\n      jump\t// in\n    tag_152:\n      swap1\n      pop\n        /* \"polygon token claim/Strings.sol\":1854:1989  for (uint256 i = 2 * length + 1; i > 1; --i) {\r... */\n      jump(tag_143)\n    tag_144:\n      pop\n        /* \"polygon token claim/Strings.sol\":2016:2017  0 */\n      0x00\n        /* \"polygon token claim/Strings.sol\":2007:2012  value */\n      dup5\n        /* \"polygon token claim/Strings.sol\":2007:2017  value == 0 */\n      eq\n        /* \"polygon token claim/Strings.sol\":1999:2054  require(value == 0, \"Strings: hex length insufficient\") */\n      tag_154\n      jumpi\n      mload(0x40)\n      0x08c379a000000000000000000000000000000000000000000000000000000000\n      dup2\n      mstore\n      0x04\n      add\n      tag_155\n      swap1\n      tag_156\n      jump\t// in\n    tag_155:\n      mload(0x40)\n      dup1\n      swap2\n      sub\n      swap1\n      revert\n    tag_154:\n        /* \"polygon token claim/Strings.sol\":2079:2085  buffer */\n      dup1\n        /* \"polygon token claim/Strings.sol\":2065:2086  return string(buffer) */\n      swap2\n      pop\n      pop\n        /* \"polygon token claim/Strings.sol\":1643:2094  function toHexString(uint256 value, uint256 length) internal pure returns (string memory) {\r... */\n      swap3\n      swap2\n      pop\n      pop\n      jump\t// out\n        /* \"#utility.yul\":7:146   */\n    tag_158:\n        /* \"#utility.yul\":53:58   */\n      0x00\n        /* \"#utility.yul\":91:97   */\n      dup2\n        /* \"#utility.yul\":78:98   */\n      calldataload\n        /* \"#utility.yul\":69:98   */\n      swap1\n      pop\n        /* \"#utility.yul\":107:140   */\n      tag_160\n        /* \"#utility.yul\":134:139   */\n      dup2\n        /* \"#utility.yul\":107:140   */\n      tag_161\n      jump\t// in\n    tag_160:\n        /* \"#utility.yul\":7:146   */\n      swap3\n      swap2\n      pop\n      pop\n      jump\t// out\n        /* \"#utility.yul\":152:291   */\n    tag_162:\n        /* \"#utility.yul\":198:203   */\n      0x00\n        /* \"#utility.yul\":236:242   */\n      dup2\n        /* \"#utility.yul\":223:243   */\n      calldataload\n        /* \"#utility.yul\":214:243   */\n      swap1\n      pop\n        /* \"#utility.yul\":252:285   */\n      tag_164\n        /* \"#utility.yul\":279:284   */\n      dup2\n        /* \"#utility.yul\":252:285   */\n      tag_165\n      jump\t// in\n    tag_164:\n        /* \"#utility.yul\":152:291   */\n      swap3\n      swap2\n      pop\n      pop\n      jump\t// out\n        /* \"#utility.yul\":297:434   */\n    tag_166:\n        /* \"#utility.yul\":342:347   */\n      0x00\n        /* \"#utility.yul\":380:386   */\n      dup2\n        /* \"#utility.yul\":367:387   */\n      calldataload\n        /* \"#utility.yul\":358:387   */\n      swap1\n      pop\n        /* \"#utility.yul\":396:428   */\n      tag_168\n        /* \"#utility.yul\":422:427   */\n      dup2\n        /* \"#utility.yul\":396:428   */\n      tag_169\n      jump\t// in\n    tag_168:\n        /* \"#utility.yul\":297:434   */\n      swap3\n      swap2\n      pop\n      pop\n      jump\t// out\n        /* \"#utility.yul\":440:769   */\n    tag_56:\n        /* \"#utility.yul\":499:505   */\n      0x00\n        /* \"#utility.yul\":548:550   */\n      0x20\n        /* \"#utility.yul\":536:545   */\n      dup3\n        /* \"#utility.yul\":527:534   */\n      dup5\n        /* \"#utility.yul\":523:546   */\n      sub\n        /* \"#utility.yul\":519:551   */\n      slt\n        /* \"#utility.yul\":516:635   */\n      iszero\n      tag_171\n      jumpi\n        /* \"#utility.yul\":554:633   */\n      tag_172\n      tag_173\n      jump\t// in\n    tag_172:\n        /* \"#utility.yul\":516:635   */\n    tag_171:\n        /* \"#utility.yul\":674:675   */\n      0x00\n        /* \"#utility.yul\":699:752   */\n      tag_174\n        /* \"#utility.yul\":744:751   */\n      dup5\n        /* \"#utility.yul\":735:741   */\n      dup3\n        /* \"#utility.yul\":724:733   */\n      dup6\n        /* \"#utility.yul\":720:742   */\n      add\n        /* \"#utility.yul\":699:752   */\n      tag_158\n      jump\t// in\n    tag_174:\n        /* \"#utility.yul\":689:752   */\n      swap2\n      pop\n        /* \"#utility.yul\":645:762   */\n      pop\n        /* \"#utility.yul\":440:769   */\n      swap3\n      swap2\n      pop\n      pop\n      jump\t// out\n        /* \"#utility.yul\":775:1104   */\n    tag_27:\n        /* \"#utility.yul\":834:840   */\n      0x00\n        /* \"#utility.yul\":883:885   */\n      0x20\n        /* \"#utility.yul\":871:880   */\n      dup3\n        /* \"#utility.yul\":862:869   */\n      dup5\n        /* \"#utility.yul\":858:881   */\n      sub\n        /* \"#utility.yul\":854:886   */\n      slt\n        /* \"#utility.yul\":851:970   */\n      iszero\n      tag_176\n      jumpi\n        /* \"#utility.yul\":889:968   */\n      tag_177\n      tag_173\n      jump\t// in\n    tag_177:\n        /* \"#utility.yul\":851:970   */\n    tag_176:\n        /* \"#utility.yul\":1009:1010   */\n      0x00\n        /* \"#utility.yul\":1034:1087   */\n      tag_178\n        /* \"#utility.yul\":1079:1086   */\n      dup5\n        /* \"#utility.yul\":1070:1076   */\n      dup3\n        /* \"#utility.yul\":1059:1068   */\n      dup6\n        /* \"#utility.yul\":1055:1077   */\n      add\n        /* \"#utility.yul\":1034:1087   */\n      tag_162\n      jump\t// in\n    tag_178:\n        /* \"#utility.yul\":1024:1087   */\n      swap2\n      pop\n        /* \"#utility.yul\":980:1097   */\n      pop\n        /* \"#utility.yul\":775:1104   */\n      swap3\n      swap2\n      pop\n      pop\n      jump\t// out\n        /* \"#utility.yul\":1110:1584   */\n    tag_33:\n        /* \"#utility.yul\":1178:1184   */\n      0x00\n        /* \"#utility.yul\":1186:1192   */\n      dup1\n        /* \"#utility.yul\":1235:1237   */\n      0x40\n        /* \"#utility.yul\":1223:1232   */\n      dup4\n        /* \"#utility.yul\":1214:1221   */\n      dup6\n        /* \"#utility.yul\":1210:1233   */\n      sub\n        /* \"#utility.yul\":1206:1238   */\n      slt\n        /* \"#utility.yul\":1203:1322   */\n      iszero\n      tag_180\n      jumpi\n        /* \"#utility.yul\":1241:1320   */\n      tag_181\n      tag_173\n      jump\t// in\n    tag_181:\n        /* \"#utility.yul\":1203:1322   */\n    tag_180:\n        /* \"#utility.yul\":1361:1362   */\n      0x00\n        /* \"#utility.yul\":1386:1439   */\n      tag_182\n        /* \"#utility.yul\":1431:1438   */\n      dup6\n        /* \"#utility.yul\":1422:1428   */\n      dup3\n        /* \"#utility.yul\":1411:1420   */\n      dup7\n        /* \"#utility.yul\":1407:1429   */\n      add\n        /* \"#utility.yul\":1386:1439   */\n      tag_162\n      jump\t// in\n    tag_182:\n        /* \"#utility.yul\":1376:1439   */\n      swap3\n      pop\n        /* \"#utility.yul\":1332:1449   */\n      pop\n        /* \"#utility.yul\":1488:1490   */\n      0x20\n        /* \"#utility.yul\":1514:1567   */\n      tag_183\n        /* \"#utility.yul\":1559:1566   */\n      dup6\n        /* \"#utility.yul\":1550:1556   */\n      dup3\n        /* \"#utility.yul\":1539:1548   */\n      dup7\n        /* \"#utility.yul\":1535:1557   */\n      add\n        /* \"#utility.yul\":1514:1567   */\n      tag_158\n      jump\t// in\n    tag_183:\n        /* \"#utility.yul\":1504:1567   */\n      swap2\n      pop\n        /* \"#utility.yul\":1459:1577   */\n      pop\n        /* \"#utility.yul\":1110:1584   */\n      swap3\n      pop\n      swap3\n      swap1\n      pop\n      jump\t// out\n        /* \"#utility.yul\":1590:1917   */\n    tag_17:\n        /* \"#utility.yul\":1648:1654   */\n      0x00\n        /* \"#utility.yul\":1697:1699   */\n      0x20\n        /* \"#utility.yul\":1685:1694   */\n      dup3\n        /* \"#utility.yul\":1676:1683   */\n      dup5\n        /* \"#utility.yul\":1672:1695   */\n      sub\n        /* \"#utility.yul\":1668:1700   */\n      slt\n        /* \"#utility.yul\":1665:1784   */\n      iszero\n      tag_185\n      jumpi\n        /* \"#utility.yul\":1703:1782   */\n      tag_186\n      tag_173\n      jump\t// in\n    tag_186:\n        /* \"#utility.yul\":1665:1784   */\n    tag_185:\n        /* \"#utility.yul\":1823:1824   */\n      0x00\n        /* \"#utility.yul\":1848:1900   */\n      tag_187\n        /* \"#utility.yul\":1892:1899   */\n      dup5\n        /* \"#utility.yul\":1883:1889   */\n      dup3\n        /* \"#utility.yul\":1872:1881   */\n      dup6\n        /* \"#utility.yul\":1868:1890   */\n      add\n        /* \"#utility.yul\":1848:1900   */\n      tag_166\n      jump\t// in\n    tag_187:\n        /* \"#utility.yul\":1838:1900   */\n      swap2\n      pop\n        /* \"#utility.yul\":1794:1910   */\n      pop\n        /* \"#utility.yul\":1590:1917   */\n      swap3\n      swap2\n      pop\n      pop\n      jump\t// out\n        /* \"#utility.yul\":1923:2041   */\n    tag_188:\n        /* \"#utility.yul\":2010:2034   */\n      tag_190\n        /* \"#utility.yul\":2028:2033   */\n      dup2\n        /* \"#utility.yul\":2010:2034   */\n      tag_191\n      jump\t// in\n    tag_190:\n        /* \"#utility.yul\":2005:2008   */\n      dup3\n        /* \"#utility.yul\":1998:2035   */\n      mstore\n        /* \"#utility.yul\":1923:2041   */\n      pop\n      pop\n      jump\t// out\n        /* \"#utility.yul\":2047:2156   */\n    tag_192:\n        /* \"#utility.yul\":2128:2149   */\n      tag_194\n        /* \"#utility.yul\":2143:2148   */\n      dup2\n        /* \"#utility.yul\":2128:2149   */\n      tag_195\n      jump\t// in\n    tag_194:\n        /* \"#utility.yul\":2123:2126   */\n      dup3\n        /* \"#utility.yul\":2116:2150   */\n      mstore\n        /* \"#utility.yul\":2047:2156   */\n      pop\n      pop\n      jump\t// out\n        /* \"#utility.yul\":2162:2280   */\n    tag_196:\n        /* \"#utility.yul\":2249:2273   */\n      tag_198\n        /* \"#utility.yul\":2267:2272   */\n      dup2\n        /* \"#utility.yul\":2249:2273   */\n      tag_199\n      jump\t// in\n    tag_198:\n        /* \"#utility.yul\":2244:2247   */\n      dup3\n        /* \"#utility.yul\":2237:2274   */\n      mstore\n        /* \"#utility.yul\":2162:2280   */\n      pop\n      pop\n      jump\t// out\n        /* \"#utility.yul\":2286:2443   */\n    tag_200:\n        /* \"#utility.yul\":2386:2436   */\n      tag_202\n        /* \"#utility.yul\":2430:2435   */\n      dup2\n        /* \"#utility.yul\":2386:2436   */\n      tag_203\n      jump\t// in\n    tag_202:\n        /* \"#utility.yul\":2381:2384   */\n      dup3\n        /* \"#utility.yul\":2374:2437   */\n      mstore\n        /* \"#utility.yul\":2286:2443   */\n      pop\n      pop\n      jump\t// out\n        /* \"#utility.yul\":2449:2813   */\n    tag_204:\n        /* \"#utility.yul\":2537:2540   */\n      0x00\n        /* \"#utility.yul\":2565:2604   */\n      tag_206\n        /* \"#utility.yul\":2598:2603   */\n      dup3\n        /* \"#utility.yul\":2565:2604   */\n      tag_207\n      jump\t// in\n    tag_206:\n        /* \"#utility.yul\":2620:2691   */\n      tag_208\n        /* \"#utility.yul\":2684:2690   */\n      dup2\n        /* \"#utility.yul\":2679:2682   */\n      dup6\n        /* \"#utility.yul\":2620:2691   */\n      tag_209\n      jump\t// in\n    tag_208:\n        /* \"#utility.yul\":2613:2691   */\n      swap4\n      pop\n        /* \"#utility.yul\":2700:2752   */\n      tag_210\n        /* \"#utility.yul\":2745:2751   */\n      dup2\n        /* \"#utility.yul\":2740:2743   */\n      dup6\n        /* \"#utility.yul\":2733:2737   */\n      0x20\n        /* \"#utility.yul\":2726:2731   */\n      dup7\n        /* \"#utility.yul\":2722:2738   */\n      add\n        /* \"#utility.yul\":2700:2752   */\n      tag_211\n      jump\t// in\n    tag_210:\n        /* \"#utility.yul\":2777:2806   */\n      tag_212\n        /* \"#utility.yul\":2799:2805   */\n      dup2\n        /* \"#utility.yul\":2777:2806   */\n      tag_213\n      jump\t// in\n    tag_212:\n        /* \"#utility.yul\":2772:2775   */\n      dup5\n        /* \"#utility.yul\":2768:2807   */\n      add\n        /* \"#utility.yul\":2761:2807   */\n      swap2\n      pop\n        /* \"#utility.yul\":2541:2813   */\n      pop\n        /* \"#utility.yul\":2449:2813   */\n      swap3\n      swap2\n      pop\n      pop\n      jump\t// out\n        /* \"#utility.yul\":2819:3196   */\n    tag_214:\n        /* \"#utility.yul\":2925:2928   */\n      0x00\n        /* \"#utility.yul\":2953:2992   */\n      tag_216\n        /* \"#utility.yul\":2986:2991   */\n      dup3\n        /* \"#utility.yul\":2953:2992   */\n      tag_207\n      jump\t// in\n    tag_216:\n        /* \"#utility.yul\":3008:3097   */\n      tag_217\n        /* \"#utility.yul\":3090:3096   */\n      dup2\n        /* \"#utility.yul\":3085:3088   */\n      dup6\n        /* \"#utility.yul\":3008:3097   */\n      tag_218\n      jump\t// in\n    tag_217:\n        /* \"#utility.yul\":3001:3097   */\n      swap4\n      pop\n        /* \"#utility.yul\":3106:3158   */\n      tag_219\n        /* \"#utility.yul\":3151:3157   */\n      dup2\n        /* \"#utility.yul\":3146:3149   */\n      dup6\n        /* \"#utility.yul\":3139:3143   */\n      0x20\n        /* \"#utility.yul\":3132:3137   */\n      dup7\n        /* \"#utility.yul\":3128:3144   */\n      add\n        /* \"#utility.yul\":3106:3158   */\n      tag_211\n      jump\t// in\n    tag_219:\n        /* \"#utility.yul\":3183:3189   */\n      dup1\n        /* \"#utility.yul\":3178:3181   */\n      dup5\n        /* \"#utility.yul\":3174:3190   */\n      add\n        /* \"#utility.yul\":3167:3190   */\n      swap2\n      pop\n        /* \"#utility.yul\":2929:3196   */\n      pop\n        /* \"#utility.yul\":2819:3196   */\n      swap3\n      swap2\n      pop\n      pop\n      jump\t// out\n        /* \"#utility.yul\":3202:3568   */\n    tag_220:\n        /* \"#utility.yul\":3344:3347   */\n      0x00\n        /* \"#utility.yul\":3365:3432   */\n      tag_222\n        /* \"#utility.yul\":3429:3431   */\n      0x20\n        /* \"#utility.yul\":3424:3427   */\n      dup4\n        /* \"#utility.yul\":3365:3432   */\n      tag_209\n      jump\t// in\n    tag_222:\n        /* \"#utility.yul\":3358:3432   */\n      swap2\n      pop\n        /* \"#utility.yul\":3441:3534   */\n      tag_223\n        /* \"#utility.yul\":3530:3533   */\n      dup3\n        /* \"#utility.yul\":3441:3534   */\n      tag_224\n      jump\t// in\n    tag_223:\n        /* \"#utility.yul\":3559:3561   */\n      0x20\n        /* \"#utility.yul\":3554:3557   */\n      dup3\n        /* \"#utility.yul\":3550:3562   */\n      add\n        /* \"#utility.yul\":3543:3562   */\n      swap1\n      pop\n        /* \"#utility.yul\":3202:3568   */\n      swap2\n      swap1\n      pop\n      jump\t// out\n        /* \"#utility.yul\":3574:3940   */\n    tag_225:\n        /* \"#utility.yul\":3716:3719   */\n      0x00\n        /* \"#utility.yul\":3737:3804   */\n      tag_227\n        /* \"#utility.yul\":3801:3803   */\n      0x26\n        /* \"#utility.yul\":3796:3799   */\n      dup4\n        /* \"#utility.yul\":3737:3804   */\n      tag_209\n      jump\t// in\n    tag_227:\n        /* \"#utility.yul\":3730:3804   */\n      swap2\n      pop\n        /* \"#utility.yul\":3813:3906   */\n      tag_228\n        /* \"#utility.yul\":3902:3905   */\n      dup3\n        /* \"#utility.yul\":3813:3906   */\n      tag_229\n      jump\t// in\n    tag_228:\n        /* \"#utility.yul\":3931:3933   */\n      0x40\n        /* \"#utility.yul\":3926:3929   */\n      dup3\n        /* \"#utility.yul\":3922:3934   */\n      add\n        /* \"#utility.yul\":3915:3934   */\n      swap1\n      pop\n        /* \"#utility.yul\":3574:3940   */\n      swap2\n      swap1\n      pop\n      jump\t// out\n        /* \"#utility.yul\":3946:4312   */\n    tag_230:\n        /* \"#utility.yul\":4088:4091   */\n      0x00\n        /* \"#utility.yul\":4109:4176   */\n      tag_232\n        /* \"#utility.yul\":4173:4175   */\n      0x20\n        /* \"#utility.yul\":4168:4171   */\n      dup4\n        /* \"#utility.yul\":4109:4176   */\n      tag_209\n      jump\t// in\n    tag_232:\n        /* \"#utility.yul\":4102:4176   */\n      swap2\n      pop\n        /* \"#utility.yul\":4185:4278   */\n      tag_233\n        /* \"#utility.yul\":4274:4277   */\n      dup3\n        /* \"#utility.yul\":4185:4278   */\n      tag_234\n      jump\t// in\n    tag_233:\n        /* \"#utility.yul\":4303:4305   */\n      0x20\n        /* \"#utility.yul\":4298:4301   */\n      dup3\n        /* \"#utility.yul\":4294:4306   */\n      add\n        /* \"#utility.yul\":4287:4306   */\n      swap1\n      pop\n        /* \"#utility.yul\":3946:4312   */\n      swap2\n      swap1\n      pop\n      jump\t// out\n        /* \"#utility.yul\":4318:4720   */\n    tag_235:\n        /* \"#utility.yul\":4478:4481   */\n      0x00\n        /* \"#utility.yul\":4499:4584   */\n      tag_237\n        /* \"#utility.yul\":4581:4583   */\n      0x17\n        /* \"#utility.yul\":4576:4579   */\n      dup4\n        /* \"#utility.yul\":4499:4584   */\n      tag_218\n      jump\t// in\n    tag_237:\n        /* \"#utility.yul\":4492:4584   */\n      swap2\n      pop\n        /* \"#utility.yul\":4593:4686   */\n      tag_238\n        /* \"#utility.yul\":4682:4685   */\n      dup3\n        /* \"#utility.yul\":4593:4686   */\n      tag_239\n      jump\t// in\n    tag_238:\n        /* \"#utility.yul\":4711:4713   */\n      0x17\n        /* \"#utility.yul\":4706:4709   */\n      dup3\n        /* \"#utility.yul\":4702:4714   */\n      add\n        /* \"#utility.yul\":4695:4714   */\n      swap1\n      pop\n        /* \"#utility.yul\":4318:4720   */\n      swap2\n      swap1\n      pop\n      jump\t// out\n        /* \"#utility.yul\":4726:5128   */\n    tag_240:\n        /* \"#utility.yul\":4886:4889   */\n      0x00\n        /* \"#utility.yul\":4907:4992   */\n      tag_242\n        /* \"#utility.yul\":4989:4991   */\n      0x11\n        /* \"#utility.yul\":4984:4987   */\n      dup4\n        /* \"#utility.yul\":4907:4992   */\n      tag_218\n      jump\t// in\n    tag_242:\n        /* \"#utility.yul\":4900:4992   */\n      swap2\n      pop\n        /* \"#utility.yul\":5001:5094   */\n      tag_243\n        /* \"#utility.yul\":5090:5093   */\n      dup3\n        /* \"#utility.yul\":5001:5094   */\n      tag_244\n      jump\t// in\n    tag_243:\n        /* \"#utility.yul\":5119:5121   */\n      0x11\n        /* \"#utility.yul\":5114:5117   */\n      dup3\n        /* \"#utility.yul\":5110:5122   */\n      add\n        /* \"#utility.yul\":5103:5122   */\n      swap1\n      pop\n        /* \"#utility.yul\":4726:5128   */\n      swap2\n      swap1\n      pop\n      jump\t// out\n        /* \"#utility.yul\":5134:5500   */\n    tag_245:\n        /* \"#utility.yul\":5276:5279   */\n      0x00\n        /* \"#utility.yul\":5297:5364   */\n      tag_247\n        /* \"#utility.yul\":5361:5363   */\n      0x2f\n        /* \"#utility.yul\":5356:5359   */\n      dup4\n        /* \"#utility.yul\":5297:5364   */\n      tag_209\n      jump\t// in\n    tag_247:\n        /* \"#utility.yul\":5290:5364   */\n      swap2\n      pop\n        /* \"#utility.yul\":5373:5466   */\n      tag_248\n        /* \"#utility.yul\":5462:5465   */\n      dup3\n        /* \"#utility.yul\":5373:5466   */\n      tag_249\n      jump\t// in\n    tag_248:\n        /* \"#utility.yul\":5491:5493   */\n      0x40\n        /* \"#utility.yul\":5486:5489   */\n      dup3\n        /* \"#utility.yul\":5482:5494   */\n      add\n        /* \"#utility.yul\":5475:5494   */\n      swap1\n      pop\n        /* \"#utility.yul\":5134:5500   */\n      swap2\n      swap1\n      pop\n      jump\t// out\n        /* \"#utility.yul\":5506:6473   */\n    tag_126:\n        /* \"#utility.yul\":5888:5891   */\n      0x00\n        /* \"#utility.yul\":5910:6058   */\n      tag_251\n        /* \"#utility.yul\":6054:6057   */\n      dup3\n        /* \"#utility.yul\":5910:6058   */\n      tag_235\n      jump\t// in\n    tag_251:\n        /* \"#utility.yul\":5903:6058   */\n      swap2\n      pop\n        /* \"#utility.yul\":6075:6170   */\n      tag_252\n        /* \"#utility.yul\":6166:6169   */\n      dup3\n        /* \"#utility.yul\":6157:6163   */\n      dup6\n        /* \"#utility.yul\":6075:6170   */\n      tag_214\n      jump\t// in\n    tag_252:\n        /* \"#utility.yul\":6068:6170   */\n      swap2\n      pop\n        /* \"#utility.yul\":6187:6335   */\n      tag_253\n        /* \"#utility.yul\":6331:6334   */\n      dup3\n        /* \"#utility.yul\":6187:6335   */\n      tag_240\n      jump\t// in\n    tag_253:\n        /* \"#utility.yul\":6180:6335   */\n      swap2\n      pop\n        /* \"#utility.yul\":6352:6447   */\n      tag_254\n        /* \"#utility.yul\":6443:6446   */\n      dup3\n        /* \"#utility.yul\":6434:6440   */\n      dup5\n        /* \"#utility.yul\":6352:6447   */\n      tag_214\n      jump\t// in\n    tag_254:\n        /* \"#utility.yul\":6345:6447   */\n      swap2\n      pop\n        /* \"#utility.yul\":6464:6467   */\n      dup2\n        /* \"#utility.yul\":6457:6467   */\n      swap1\n      pop\n        /* \"#utility.yul\":5506:6473   */\n      swap4\n      swap3\n      pop\n      pop\n      pop\n      jump\t// out\n        /* \"#utility.yul\":6479:6701   */\n    tag_43:\n        /* \"#utility.yul\":6572:6576   */\n      0x00\n        /* \"#utility.yul\":6610:6612   */\n      0x20\n        /* \"#utility.yul\":6599:6608   */\n      dup3\n        /* \"#utility.yul\":6595:6613   */\n      add\n        /* \"#utility.yul\":6587:6613   */\n      swap1\n      pop\n        /* \"#utility.yul\":6623:6694   */\n      tag_256\n        /* \"#utility.yul\":6691:6692   */\n      0x00\n        /* \"#utility.yul\":6680:6689   */\n      dup4\n        /* \"#utility.yul\":6676:6693   */\n      add\n        /* \"#utility.yul\":6667:6673   */\n      dup5\n        /* \"#utility.yul\":6623:6694   */\n      tag_188\n      jump\t// in\n    tag_256:\n        /* \"#utility.yul\":6479:6701   */\n      swap3\n      swap2\n      pop\n      pop\n      jump\t// out\n        /* \"#utility.yul\":6707:6917   */\n    tag_20:\n        /* \"#utility.yul\":6794:6798   */\n      0x00\n        /* \"#utility.yul\":6832:6834   */\n      0x20\n        /* \"#utility.yul\":6821:6830   */\n      dup3\n        /* \"#utility.yul\":6817:6835   */\n      add\n        /* \"#utility.yul\":6809:6835   */\n      swap1\n      pop\n        /* \"#utility.yul\":6845:6910   */\n      tag_258\n        /* \"#utility.yul\":6907:6908   */\n      0x00\n        /* \"#utility.yul\":6896:6905   */\n      dup4\n        /* \"#utility.yul\":6892:6909   */\n      add\n        /* \"#utility.yul\":6883:6889   */\n      dup5\n        /* \"#utility.yul\":6845:6910   */\n      tag_192\n      jump\t// in\n    tag_258:\n        /* \"#utility.yul\":6707:6917   */\n      swap3\n      swap2\n      pop\n      pop\n      jump\t// out\n        /* \"#utility.yul\":6923:7145   */\n    tag_30:\n        /* \"#utility.yul\":7016:7020   */\n      0x00\n        /* \"#utility.yul\":7054:7056   */\n      0x20\n        /* \"#utility.yul\":7043:7052   */\n      dup3\n        /* \"#utility.yul\":7039:7057   */\n      add\n        /* \"#utility.yul\":7031:7057   */\n      swap1\n      pop\n        /* \"#utility.yul\":7067:7138   */\n      tag_260\n        /* \"#utility.yul\":7135:7136   */\n      0x00\n        /* \"#utility.yul\":7124:7133   */\n      dup4\n        /* \"#utility.yul\":7120:7137   */\n      add\n        /* \"#utility.yul\":7111:7117   */\n      dup5\n        /* \"#utility.yul\":7067:7138   */\n      tag_196\n      jump\t// in\n    tag_260:\n        /* \"#utility.yul\":6923:7145   */\n      swap3\n      swap2\n      pop\n      pop\n      jump\t// out\n        /* \"#utility.yul\":7151:7399   */\n    tag_24:\n        /* \"#utility.yul\":7257:7261   */\n      0x00\n        /* \"#utility.yul\":7295:7297   */\n      0x20\n        /* \"#utility.yul\":7284:7293   */\n      dup3\n        /* \"#utility.yul\":7280:7298   */\n      add\n        /* \"#utility.yul\":7272:7298   */\n      swap1\n      pop\n        /* \"#utility.yul\":7308:7392   */\n      tag_262\n        /* \"#utility.yul\":7389:7390   */\n      0x00\n        /* \"#utility.yul\":7378:7387   */\n      dup4\n        /* \"#utility.yul\":7374:7391   */\n      add\n        /* \"#utility.yul\":7365:7371   */\n      dup5\n        /* \"#utility.yul\":7308:7392   */\n      tag_200\n      jump\t// in\n    tag_262:\n        /* \"#utility.yul\":7151:7399   */\n      swap3\n      swap2\n      pop\n      pop\n      jump\t// out\n        /* \"#utility.yul\":7405:7718   */\n    tag_128:\n        /* \"#utility.yul\":7518:7522   */\n      0x00\n        /* \"#utility.yul\":7556:7558   */\n      0x20\n        /* \"#utility.yul\":7545:7554   */\n      dup3\n        /* \"#utility.yul\":7541:7559   */\n      add\n        /* \"#utility.yul\":7533:7559   */\n      swap1\n      pop\n        /* \"#utility.yul\":7605:7614   */\n      dup2\n        /* \"#utility.yul\":7599:7603   */\n      dup2\n        /* \"#utility.yul\":7595:7615   */\n      sub\n        /* \"#utility.yul\":7591:7592   */\n      0x00\n        /* \"#utility.yul\":7580:7589   */\n      dup4\n        /* \"#utility.yul\":7576:7593   */\n      add\n        /* \"#utility.yul\":7569:7616   */\n      mstore\n        /* \"#utility.yul\":7633:7711   */\n      tag_264\n        /* \"#utility.yul\":7706:7710   */\n      dup2\n        /* \"#utility.yul\":7697:7703   */\n      dup5\n        /* \"#utility.yul\":7633:7711   */\n      tag_204\n      jump\t// in\n    tag_264:\n        /* \"#utility.yul\":7625:7711   */\n      swap1\n      pop\n        /* \"#utility.yul\":7405:7718   */\n      swap3\n      swap2\n      pop\n      pop\n      jump\t// out\n        /* \"#utility.yul\":7724:8143   */\n    tag_156:\n        /* \"#utility.yul\":7890:7894   */\n      0x00\n        /* \"#utility.yul\":7928:7930   */\n      0x20\n        /* \"#utility.yul\":7917:7926   */\n      dup3\n        /* \"#utility.yul\":7913:7931   */\n      add\n        /* \"#utility.yul\":7905:7931   */\n      swap1\n      pop\n        /* \"#utility.yul\":7977:7986   */\n      dup2\n        /* \"#utility.yul\":7971:7975   */\n      dup2\n        /* \"#utility.yul\":7967:7987   */\n      sub\n        /* \"#utility.yul\":7963:7964   */\n      0x00\n        /* \"#utility.yul\":7952:7961   */\n      dup4\n        /* \"#utility.yul\":7948:7965   */\n      add\n        /* \"#utility.yul\":7941:7988   */\n      mstore\n        /* \"#utility.yul\":8005:8136   */\n      tag_266\n        /* \"#utility.yul\":8131:8135   */\n      dup2\n        /* \"#utility.yul\":8005:8136   */\n      tag_220\n      jump\t// in\n    tag_266:\n        /* \"#utility.yul\":7997:8136   */\n      swap1\n      pop\n        /* \"#utility.yul\":7724:8143   */\n      swap2\n      swap1\n      pop\n      jump\t// out\n        /* \"#utility.yul\":8149:8568   */\n    tag_102:\n        /* \"#utility.yul\":8315:8319   */\n      0x00\n        /* \"#utility.yul\":8353:8355   */\n      0x20\n        /* \"#utility.yul\":8342:8351   */\n      dup3\n        /* \"#utility.yul\":8338:8356   */\n      add\n        /* \"#utility.yul\":8330:8356   */\n      swap1\n      pop\n        /* \"#utility.yul\":8402:8411   */\n      dup2\n        /* \"#utility.yul\":8396:8400   */\n      dup2\n        /* \"#utility.yul\":8392:8412   */\n      sub\n        /* \"#utility.yul\":8388:8389   */\n      0x00\n        /* \"#utility.yul\":8377:8386   */\n      dup4\n        /* \"#utility.yul\":8373:8390   */\n      add\n        /* \"#utility.yul\":8366:8413   */\n      mstore\n        /* \"#utility.yul\":8430:8561   */\n      tag_268\n        /* \"#utility.yul\":8556:8560   */\n      dup2\n        /* \"#utility.yul\":8430:8561   */\n      tag_225\n      jump\t// in\n    tag_268:\n        /* \"#utility.yul\":8422:8561   */\n      swap1\n      pop\n        /* \"#utility.yul\":8149:8568   */\n      swap2\n      swap1\n      pop\n      jump\t// out\n        /* \"#utility.yul\":8574:8993   */\n    tag_83:\n        /* \"#utility.yul\":8740:8744   */\n      0x00\n        /* \"#utility.yul\":8778:8780   */\n      0x20\n        /* \"#utility.yul\":8767:8776   */\n      dup3\n        /* \"#utility.yul\":8763:8781   */\n      add\n        /* \"#utility.yul\":8755:8781   */\n      swap1\n      pop\n        /* \"#utility.yul\":8827:8836   */\n      dup2\n        /* \"#utility.yul\":8821:8825   */\n      dup2\n        /* \"#utility.yul\":8817:8837   */\n      sub\n        /* \"#utility.yul\":8813:8814   */\n      0x00\n        /* \"#utility.yul\":8802:8811   */\n      dup4\n        /* \"#utility.yul\":8798:8815   */\n      add\n        /* \"#utility.yul\":8791:8838   */\n      mstore\n        /* \"#utility.yul\":8855:8986   */\n      tag_270\n        /* \"#utility.yul\":8981:8985   */\n      dup2\n        /* \"#utility.yul\":8855:8986   */\n      tag_230\n      jump\t// in\n    tag_270:\n        /* \"#utility.yul\":8847:8986   */\n      swap1\n      pop\n        /* \"#utility.yul\":8574:8993   */\n      swap2\n      swap1\n      pop\n      jump\t// out\n        /* \"#utility.yul\":8999:9418   */\n    tag_75:\n        /* \"#utility.yul\":9165:9169   */\n      0x00\n        /* \"#utility.yul\":9203:9205   */\n      0x20\n        /* \"#utility.yul\":9192:9201   */\n      dup3\n        /* \"#utility.yul\":9188:9206   */\n      add\n        /* \"#utility.yul\":9180:9206   */\n      swap1\n      pop\n        /* \"#utility.yul\":9252:9261   */\n      dup2\n        /* \"#utility.yul\":9246:9250   */\n      dup2\n        /* \"#utility.yul\":9242:9262   */\n      sub\n        /* \"#utility.yul\":9238:9239   */\n      0x00\n        /* \"#utility.yul\":9227:9236   */\n      dup4\n        /* \"#utility.yul\":9223:9240   */\n      add\n        /* \"#utility.yul\":9216:9263   */\n      mstore\n        /* \"#utility.yul\":9280:9411   */\n      tag_272\n        /* \"#utility.yul\":9406:9410   */\n      dup2\n        /* \"#utility.yul\":9280:9411   */\n      tag_245\n      jump\t// in\n    tag_272:\n        /* \"#utility.yul\":9272:9411   */\n      swap1\n      pop\n        /* \"#utility.yul\":8999:9418   */\n      swap2\n      swap1\n      pop\n      jump\t// out\n        /* \"#utility.yul\":9505:9604   */\n    tag_207:\n        /* \"#utility.yul\":9557:9563   */\n      0x00\n        /* \"#utility.yul\":9591:9596   */\n      dup2\n        /* \"#utility.yul\":9585:9597   */\n      mload\n        /* \"#utility.yul\":9575:9597   */\n      swap1\n      pop\n        /* \"#utility.yul\":9505:9604   */\n      swap2\n      swap1\n      pop\n      jump\t// out\n        /* \"#utility.yul\":9610:9779   */\n    tag_209:\n        /* \"#utility.yul\":9694:9705   */\n      0x00\n        /* \"#utility.yul\":9728:9734   */\n      dup3\n        /* \"#utility.yul\":9723:9726   */\n      dup3\n        /* \"#utility.yul\":9716:9735   */\n      mstore\n        /* \"#utility.yul\":9768:9772   */\n      0x20\n        /* \"#utility.yul\":9763:9766   */\n      dup3\n        /* \"#utility.yul\":9759:9773   */\n      add\n        /* \"#utility.yul\":9744:9773   */\n      swap1\n      pop\n        /* \"#utility.yul\":9610:9779   */\n      swap3\n      swap2\n      pop\n      pop\n      jump\t// out\n        /* \"#utility.yul\":9785:9933   */\n    tag_218:\n        /* \"#utility.yul\":9887:9898   */\n      0x00\n        /* \"#utility.yul\":9924:9927   */\n      dup2\n        /* \"#utility.yul\":9909:9927   */\n      swap1\n      pop\n        /* \"#utility.yul\":9785:9933   */\n      swap3\n      swap2\n      pop\n      pop\n      jump\t// out\n        /* \"#utility.yul\":9939:10244   */\n    tag_133:\n        /* \"#utility.yul\":9979:9982   */\n      0x00\n        /* \"#utility.yul\":9998:10018   */\n      tag_279\n        /* \"#utility.yul\":10016:10017   */\n      dup3\n        /* \"#utility.yul\":9998:10018   */\n      tag_280\n      jump\t// in\n    tag_279:\n        /* \"#utility.yul\":9993:10018   */\n      swap2\n      pop\n        /* \"#utility.yul\":10032:10052   */\n      tag_281\n        /* \"#utility.yul\":10050:10051   */\n      dup4\n        /* \"#utility.yul\":10032:10052   */\n      tag_280\n      jump\t// in\n    tag_281:\n        /* \"#utility.yul\":10027:10052   */\n      swap3\n      pop\n        /* \"#utility.yul\":10186:10187   */\n      dup3\n        /* \"#utility.yul\":10118:10184   */\n      0xffffffffffffffffffffffffffffffffffffffffffffffffffffffffffffffff\n        /* \"#utility.yul\":10114:10188   */\n      sub\n        /* \"#utility.yul\":10111:10112   */\n      dup3\n        /* \"#utility.yul\":10108:10189   */\n      gt\n        /* \"#utility.yul\":10105:10212   */\n      iszero\n      tag_282\n      jumpi\n        /* \"#utility.yul\":10192:10210   */\n      tag_283\n      tag_284\n      jump\t// in\n    tag_283:\n        /* \"#utility.yul\":10105:10212   */\n    tag_282:\n        /* \"#utility.yul\":10236:10237   */\n      dup3\n        /* \"#utility.yul\":10233:10234   */\n      dup3\n        /* \"#utility.yul\":10229:10238   */\n      add\n        /* \"#utility.yul\":10222:10238   */\n      swap1\n      pop\n        /* \"#utility.yul\":9939:10244   */\n      swap3\n      swap2\n      pop\n      pop\n      jump\t// out\n        /* \"#utility.yul\":10250:10598   */\n    tag_131:\n        /* \"#utility.yul\":10290:10297   */\n      0x00\n        /* \"#utility.yul\":10313:10333   */\n      tag_286\n        /* \"#utility.yul\":10331:10332   */\n      dup3\n        /* \"#utility.yul\":10313:10333   */\n      tag_280\n      jump\t// in\n    tag_286:\n        /* \"#utility.yul\":10308:10333   */\n      swap2\n      pop\n        /* \"#utility.yul\":10347:10367   */\n      tag_287\n        /* \"#utility.yul\":10365:10366   */\n      dup4\n        /* \"#utility.yul\":10347:10367   */\n      tag_280\n      jump\t// in\n    tag_287:\n        /* \"#utility.yul\":10342:10367   */\n      swap3\n      pop\n        /* \"#utility.yul\":10535:10536   */\n      dup2\n        /* \"#utility.yul\":10467:10533   */\n      0xffffffffffffffffffffffffffffffffffffffffffffffffffffffffffffffff\n        /* \"#utility.yul\":10463:10537   */\n      div\n        /* \"#utility.yul\":10460:10461   */\n      dup4\n        /* \"#utility.yul\":10457:10538   */\n      gt\n        /* \"#utility.yul\":10452:10453   */\n      dup3\n        /* \"#utility.yul\":10445:10454   */\n      iszero\n        /* \"#utility.yul\":10438:10455   */\n      iszero\n        /* \"#utility.yul\":10434:10539   */\n      and\n        /* \"#utility.yul\":10431:10562   */\n      iszero\n      tag_288\n      jumpi\n        /* \"#utility.yul\":10542:10560   */\n      tag_289\n      tag_284\n      jump\t// in\n    tag_289:\n        /* \"#utility.yul\":10431:10562   */\n    tag_288:\n        /* \"#utility.yul\":10590:10591   */\n      dup3\n        /* \"#utility.yul\":10587:10588   */\n      dup3\n        /* \"#utility.yul\":10583:10592   */\n      mul\n        /* \"#utility.yul\":10572:10592   */\n      swap1\n      pop\n        /* \"#utility.yul\":10250:10598   */\n      swap3\n      swap2\n      pop\n      pop\n      jump\t// out\n        /* \"#utility.yul\":10604:10700   */\n    tag_191:\n        /* \"#utility.yul\":10641:10648   */\n      0x00\n        /* \"#utility.yul\":10670:10694   */\n      tag_291\n        /* \"#utility.yul\":10688:10693   */\n      dup3\n        /* \"#utility.yul\":10670:10694   */\n      tag_292\n      jump\t// in\n    tag_291:\n        /* \"#utility.yul\":10659:10694   */\n      swap1\n      pop\n        /* \"#utility.yul\":10604:10700   */\n      swap2\n      swap1\n      pop\n      jump\t// out\n        /* \"#utility.yul\":10706:10796   */\n    tag_195:\n        /* \"#utility.yul\":10740:10747   */\n      0x00\n        /* \"#utility.yul\":10783:10788   */\n      dup2\n        /* \"#utility.yul\":10776:10789   */\n      iszero\n        /* \"#utility.yul\":10769:10790   */\n      iszero\n        /* \"#utility.yul\":10758:10790   */\n      swap1\n      pop\n        /* \"#utility.yul\":10706:10796   */\n      swap2\n      swap1\n      pop\n      jump\t// out\n        /* \"#utility.yul\":10802:10879   */\n    tag_199:\n        /* \"#utility.yul\":10839:10846   */\n      0x00\n        /* \"#utility.yul\":10868:10873   */\n      dup2\n        /* \"#utility.yul\":10857:10873   */\n      swap1\n      pop\n        /* \"#utility.yul\":10802:10879   */\n      swap2\n      swap1\n      pop\n      jump\t// out\n        /* \"#utility.yul\":10885:11034   */\n    tag_295:\n        /* \"#utility.yul\":10921:10928   */\n      0x00\n        /* \"#utility.yul\":10961:11027   */\n      0xffffffff00000000000000000000000000000000000000000000000000000000\n        /* \"#utility.yul\":10954:10959   */\n      dup3\n        /* \"#utility.yul\":10950:11028   */\n      and\n        /* \"#utility.yul\":10939:11028   */\n      swap1\n      pop\n        /* \"#utility.yul\":10885:11034   */\n      swap2\n      swap1\n      pop\n      jump\t// out\n        /* \"#utility.yul\":11040:11166   */\n    tag_292:\n        /* \"#utility.yul\":11077:11084   */\n      0x00\n        /* \"#utility.yul\":11117:11159   */\n      0xffffffffffffffffffffffffffffffffffffffff\n        /* \"#utility.yul\":11110:11115   */\n      dup3\n        /* \"#utility.yul\":11106:11160   */\n      and\n        /* \"#utility.yul\":11095:11160   */\n      swap1\n      pop\n        /* \"#utility.yul\":11040:11166   */\n      swap2\n      swap1\n      pop\n      jump\t// out\n        /* \"#utility.yul\":11172:11249   */\n    tag_280:\n        /* \"#utility.yul\":11209:11216   */\n      0x00\n        /* \"#utility.yul\":11238:11243   */\n      dup2\n        /* \"#utility.yul\":11227:11243   */\n      swap1\n      pop\n        /* \"#utility.yul\":11172:11249   */\n      swap2\n      swap1\n      pop\n      jump\t// out\n        /* \"#utility.yul\":11255:11394   */\n    tag_203:\n        /* \"#utility.yul\":11318:11327   */\n      0x00\n        /* \"#utility.yul\":11351:11388   */\n      tag_300\n        /* \"#utility.yul\":11382:11387   */\n      dup3\n        /* \"#utility.yul\":11351:11388   */\n      tag_301\n      jump\t// in\n    tag_300:\n        /* \"#utility.yul\":11338:11388   */\n      swap1\n      pop\n        /* \"#utility.yul\":11255:11394   */\n      swap2\n      swap1\n      pop\n      jump\t// out\n        /* \"#utility.yul\":11400:11526   */\n    tag_301:\n        /* \"#utility.yul\":11450:11459   */\n      0x00\n        /* \"#utility.yul\":11483:11520   */\n      tag_303\n        /* \"#utility.yul\":11514:11519   */\n      dup3\n        /* \"#utility.yul\":11483:11520   */\n      tag_304\n      jump\t// in\n    tag_303:\n        /* \"#utility.yul\":11470:11520   */\n      swap1\n      pop\n        /* \"#utility.yul\":11400:11526   */\n      swap2\n      swap1\n      pop\n      jump\t// out\n        /* \"#utility.yul\":11532:11645   */\n    tag_304:\n        /* \"#utility.yul\":11582:11591   */\n      0x00\n        /* \"#utility.yul\":11615:11639   */\n      tag_306\n        /* \"#utility.yul\":11633:11638   */\n      dup3\n        /* \"#utility.yul\":11615:11639   */\n      tag_292\n      jump\t// in\n    tag_306:\n        /* \"#utility.yul\":11602:11639   */\n      swap1\n      pop\n        /* \"#utility.yul\":11532:11645   */\n      swap2\n      swap1\n      pop\n      jump\t// out\n        /* \"#utility.yul\":11651:11958   */\n    tag_211:\n        /* \"#utility.yul\":11719:11720   */\n      0x00\n        /* \"#utility.yul\":11729:11842   */\n    tag_308:\n        /* \"#utility.yul\":11743:11749   */\n      dup4\n        /* \"#utility.yul\":11740:11741   */\n      dup2\n        /* \"#utility.yul\":11737:11750   */\n      lt\n        /* \"#utility.yul\":11729:11842   */\n      iszero\n      tag_310\n      jumpi\n        /* \"#utility.yul\":11828:11829   */\n      dup1\n        /* \"#utility.yul\":11823:11826   */\n      dup3\n        /* \"#utility.yul\":11819:11830   */\n      add\n        /* \"#utility.yul\":11813:11831   */\n      mload\n        /* \"#utility.yul\":11809:11810   */\n      dup2\n        /* \"#utility.yul\":11804:11807   */\n      dup5\n        /* \"#utility.yul\":11800:11811   */\n      add\n        /* \"#utility.yul\":11793:11832   */\n      mstore\n        /* \"#utility.yul\":11765:11767   */\n      0x20\n        /* \"#utility.yul\":11762:11763   */\n      dup2\n        /* \"#utility.yul\":11758:11768   */\n      add\n        /* \"#utility.yul\":11753:11768   */\n      swap1\n      pop\n        /* \"#utility.yul\":11729:11842   */\n      jump(tag_308)\n    tag_310:\n        /* \"#utility.yul\":11860:11866   */\n      dup4\n        /* \"#utility.yul\":11857:11858   */\n      dup2\n        /* \"#utility.yul\":11854:11867   */\n      gt\n        /* \"#utility.yul\":11851:11952   */\n      iszero\n      tag_311\n      jumpi\n        /* \"#utility.yul\":11940:11941   */\n      0x00\n        /* \"#utility.yul\":11931:11937   */\n      dup5\n        /* \"#utility.yul\":11926:11929   */\n      dup5\n        /* \"#utility.yul\":11922:11938   */\n      add\n        /* \"#utility.yul\":11915:11942   */\n      mstore\n        /* \"#utility.yul\":11851:11952   */\n    tag_311:\n        /* \"#utility.yul\":11700:11958   */\n      pop\n        /* \"#utility.yul\":11651:11958   */\n      pop\n      pop\n      pop\n      jump\t// out\n        /* \"#utility.yul\":11964:12135   */\n    tag_153:\n        /* \"#utility.yul\":12003:12006   */\n      0x00\n        /* \"#utility.yul\":12026:12050   */\n      tag_313\n        /* \"#utility.yul\":12044:12049   */\n      dup3\n        /* \"#utility.yul\":12026:12050   */\n      tag_280\n      jump\t// in\n    tag_313:\n        /* \"#utility.yul\":12017:12050   */\n      swap2\n      pop\n        /* \"#utility.yul\":12072:12076   */\n      0x00\n        /* \"#utility.yul\":12065:12070   */\n      dup3\n        /* \"#utility.yul\":12062:12077   */\n      eq\n        /* \"#utility.yul\":12059:12100   */\n      iszero\n      tag_314\n      jumpi\n        /* \"#utility.yul\":12080:12098   */\n      tag_315\n      tag_284\n      jump\t// in\n    tag_315:\n        /* \"#utility.yul\":12059:12100   */\n    tag_314:\n        /* \"#utility.yul\":12127:12128   */\n      0x01\n        /* \"#utility.yul\":12120:12125   */\n      dup3\n        /* \"#utility.yul\":12116:12129   */\n      sub\n        /* \"#utility.yul\":12109:12129   */\n      swap1\n      pop\n        /* \"#utility.yul\":11964:12135   */\n      swap2\n      swap1\n      pop\n      jump\t// out\n        /* \"#utility.yul\":12141:12321   */\n    tag_284:\n        /* \"#utility.yul\":12189:12266   */\n      0x4e487b7100000000000000000000000000000000000000000000000000000000\n        /* \"#utility.yul\":12186:12187   */\n      0x00\n        /* \"#utility.yul\":12179:12267   */\n      mstore\n        /* \"#utility.yul\":12286:12290   */\n      0x11\n        /* \"#utility.yul\":12283:12284   */\n      0x04\n        /* \"#utility.yul\":12276:12291   */\n      mstore\n        /* \"#utility.yul\":12310:12314   */\n      0x24\n        /* \"#utility.yul\":12307:12308   */\n      0x00\n        /* \"#utility.yul\":12300:12315   */\n      revert\n        /* \"#utility.yul\":12327:12507   */\n    tag_140:\n        /* \"#utility.yul\":12375:12452   */\n      0x4e487b7100000000000000000000000000000000000000000000000000000000\n        /* \"#utility.yul\":12372:12373   */\n      0x00\n        /* \"#utility.yul\":12365:12453   */\n      mstore\n        /* \"#utility.yul\":12472:12476   */\n      0x32\n        /* \"#utility.yul\":12469:12470   */\n      0x04\n        /* \"#utility.yul\":12462:12477   */\n      mstore\n        /* \"#utility.yul\":12496:12500   */\n      0x24\n        /* \"#utility.yul\":12493:12494   */\n      0x00\n        /* \"#utility.yul\":12486:12501   */\n      revert\n        /* \"#utility.yul\":12513:12693   */\n    tag_136:\n        /* \"#utility.yul\":12561:12638   */\n      0x4e487b7100000000000000000000000000000000000000000000000000000000\n        /* \"#utility.yul\":12558:12559   */\n      0x00\n        /* \"#utility.yul\":12551:12639   */\n      mstore\n        /* \"#utility.yul\":12658:12662   */\n      0x41\n        /* \"#utility.yul\":12655:12656   */\n      0x04\n        /* \"#utility.yul\":12648:12663   */\n      mstore\n        /* \"#utility.yul\":12682:12686   */\n      0x24\n        /* \"#utility.yul\":12679:12680   */\n      0x00\n        /* \"#utility.yul\":12672:12687   */\n      revert\n        /* \"#utility.yul\":12822:12939   */\n    tag_173:\n        /* \"#utility.yul\":12931:12932   */\n      0x00\n        /* \"#utility.yul\":12928:12929   */\n      dup1\n        /* \"#utility.yul\":12921:12933   */\n      revert\n        /* \"#utility.yul\":12945:13047   */\n    tag_213:\n        /* \"#utility.yul\":12986:12992   */\n      0x00\n        /* \"#utility.yul\":13037:13039   */\n      0x1f\n        /* \"#utility.yul\":13033:13040   */\n      not\n        /* \"#utility.yul\":13028:13030   */\n      0x1f\n        /* \"#utility.yul\":13021:13026   */\n      dup4\n        /* \"#utility.yul\":13017:13031   */\n      add\n        /* \"#utility.yul\":13013:13041   */\n      and\n        /* \"#utility.yul\":13003:13041   */\n      swap1\n      pop\n        /* \"#utility.yul\":12945:13047   */\n      swap2\n      swap1\n      pop\n      jump\t// out\n        /* \"#utility.yul\":13053:13235   */\n    tag_224:\n        /* \"#utility.yul\":13193:13227   */\n      0x537472696e67733a20686578206c656e67746820696e73756666696369656e74\n        /* \"#utility.yul\":13189:13190   */\n      0x00\n        /* \"#utility.yul\":13181:13187   */\n      dup3\n        /* \"#utility.yul\":13177:13191   */\n      add\n        /* \"#utility.yul\":13170:13228   */\n      mstore\n        /* \"#utility.yul\":13053:13235   */\n      pop\n      jump\t// out\n        /* \"#utility.yul\":13241:13466   */\n    tag_229:\n        /* \"#utility.yul\":13381:13415   */\n      0x4f776e61626c653a206e6577206f776e657220697320746865207a65726f2061\n        /* \"#utility.yul\":13377:13378   */\n      0x00\n        /* \"#utility.yul\":13369:13375   */\n      dup3\n        /* \"#utility.yul\":13365:13379   */\n      add\n        /* \"#utility.yul\":13358:13416   */\n      mstore\n        /* \"#utility.yul\":13450:13458   */\n      0x6464726573730000000000000000000000000000000000000000000000000000\n        /* \"#utility.yul\":13445:13447   */\n      0x20\n        /* \"#utility.yul\":13437:13443   */\n      dup3\n        /* \"#utility.yul\":13433:13448   */\n      add\n        /* \"#utility.yul\":13426:13459   */\n      mstore\n        /* \"#utility.yul\":13241:13466   */\n      pop\n      jump\t// out\n        /* \"#utility.yul\":13472:13654   */\n    tag_234:\n        /* \"#utility.yul\":13612:13646   */\n      0x4f776e61626c653a2063616c6c6572206973206e6f7420746865206f776e6572\n        /* \"#utility.yul\":13608:13609   */\n      0x00\n        /* \"#utility.yul\":13600:13606   */\n      dup3\n        /* \"#utility.yul\":13596:13610   */\n      add\n        /* \"#utility.yul\":13589:13647   */\n      mstore\n        /* \"#utility.yul\":13472:13654   */\n      pop\n      jump\t// out\n        /* \"#utility.yul\":13660:13833   */\n    tag_239:\n        /* \"#utility.yul\":13800:13825   */\n      0x416363657373436f6e74726f6c3a206163636f756e7420000000000000000000\n        /* \"#utility.yul\":13796:13797   */\n      0x00\n        /* \"#utility.yul\":13788:13794   */\n      dup3\n        /* \"#utility.yul\":13784:13798   */\n      add\n        /* \"#utility.yul\":13777:13826   */\n      mstore\n        /* \"#utility.yul\":13660:13833   */\n      pop\n      jump\t// out\n        /* \"#utility.yul\":13839:14006   */\n    tag_244:\n        /* \"#utility.yul\":13979:13998   */\n      0x206973206d697373696e6720726f6c6520000000000000000000000000000000\n        /* \"#utility.yul\":13975:13976   */\n      0x00\n        /* \"#utility.yul\":13967:13973   */\n      dup3\n        /* \"#utility.yul\":13963:13977   */\n      add\n        /* \"#utility.yul\":13956:13999   */\n      mstore\n        /* \"#utility.yul\":13839:14006   */\n      pop\n      jump\t// out\n        /* \"#utility.yul\":14012:14246   */\n    tag_249:\n        /* \"#utility.yul\":14152:14186   */\n      0x416363657373436f6e74726f6c3a2063616e206f6e6c792072656e6f756e6365\n        /* \"#utility.yul\":14148:14149   */\n      0x00\n        /* \"#utility.yul\":14140:14146   */\n      dup3\n        /* \"#utility.yul\":14136:14150   */\n      add\n        /* \"#utility.yul\":14129:14187   */\n      mstore\n        /* \"#utility.yul\":14221:14238   */\n      0x20726f6c657320666f722073656c660000000000000000000000000000000000\n        /* \"#utility.yul\":14216:14218   */\n      0x20\n        /* \"#utility.yul\":14208:14214   */\n      dup3\n        /* \"#utility.yul\":14204:14219   */\n      add\n        /* \"#utility.yul\":14197:14239   */\n      mstore\n        /* \"#utility.yul\":14012:14246   */\n      pop\n      jump\t// out\n        /* \"#utility.yul\":14252:14374   */\n    tag_161:\n        /* \"#utility.yul\":14325:14349   */\n      tag_330\n        /* \"#utility.yul\":14343:14348   */\n      dup2\n        /* \"#utility.yul\":14325:14349   */\n      tag_191\n      jump\t// in\n    tag_330:\n        /* \"#utility.yul\":14318:14323   */\n      dup2\n        /* \"#utility.yul\":14315:14350   */\n      eq\n        /* \"#utility.yul\":14305:14368   */\n      tag_331\n      jumpi\n        /* \"#utility.yul\":14364:14365   */\n      0x00\n        /* \"#utility.yul\":14361:14362   */\n      dup1\n        /* \"#utility.yul\":14354:14366   */\n      revert\n        /* \"#utility.yul\":14305:14368   */\n    tag_331:\n        /* \"#utility.yul\":14252:14374   */\n      pop\n      jump\t// out\n        /* \"#utility.yul\":14380:14502   */\n    tag_165:\n        /* \"#utility.yul\":14453:14477   */\n      tag_333\n        /* \"#utility.yul\":14471:14476   */\n      dup2\n        /* \"#utility.yul\":14453:14477   */\n      tag_199\n      jump\t// in\n    tag_333:\n        /* \"#utility.yul\":14446:14451   */\n      dup2\n        /* \"#utility.yul\":14443:14478   */\n      eq\n        /* \"#utility.yul\":14433:14496   */\n      tag_334\n      jumpi\n        /* \"#utility.yul\":14492:14493   */\n      0x00\n        /* \"#utility.yul\":14489:14490   */\n      dup1\n        /* \"#utility.yul\":14482:14494   */\n      revert\n        /* \"#utility.yul\":14433:14496   */\n    tag_334:\n        /* \"#utility.yul\":14380:14502   */\n      pop\n      jump\t// out\n        /* \"#utility.yul\":14508:14628   */\n    tag_169:\n        /* \"#utility.yul\":14580:14603   */\n      tag_336\n        /* \"#utility.yul\":14597:14602   */\n      dup2\n        /* \"#utility.yul\":14580:14603   */\n      tag_295\n      jump\t// in\n    tag_336:\n        /* \"#utility.yul\":14573:14578   */\n      dup2\n        /* \"#utility.yul\":14570:14604   */\n      eq\n        /* \"#utility.yul\":14560:14622   */\n      tag_337\n      jumpi\n        /* \"#utility.yul\":14618:14619   */\n      0x00\n        /* \"#utility.yul\":14615:14616   */\n      dup1\n        /* \"#utility.yul\":14608:14620   */\n      revert\n        /* \"#utility.yul\":14560:14622   */\n    tag_337:\n        /* \"#utility.yul\":14508:14628   */\n      pop\n      jump\t// out\n\n    auxdata: 0xa26469706673582212209c91265321b4d2863f666b195e6a554ec2814e865aafa11900dec7e8c5c12c1364736f6c63430008070033\n}\n",
				"bytecode": {
					"linkReferences": {},
					"object": "608060405273cb8bcdb991b45bf5d78000a0b5c0a6686ce43790600260006101000a81548173ffffffffffffffffffffffffffffffffffffffff021916908373ffffffffffffffffffffffffffffffffffffffff1602179055503480156200006657600080fd5b50620000876200007b620000a260201b60201c565b620000aa60201b60201c565b6200009c6000801b336200016e60201b60201c565b620002e0565b600033905090565b60008060009054906101000a900473ffffffffffffffffffffffffffffffffffffffff169050816000806101000a81548173ffffffffffffffffffffffffffffffffffffffff021916908373ffffffffffffffffffffffffffffffffffffffff1602179055508173ffffffffffffffffffffffffffffffffffffffff168173ffffffffffffffffffffffffffffffffffffffff167f8be0079c531659141344cd1fd0a4f28419497f9722a3daafe3b4186f6b6457e060405160405180910390a35050565b6200018082826200018460201b60201c565b5050565b6200019682826200027560201b60201c565b6200027157600180600084815260200190815260200160002060000160008373ffffffffffffffffffffffffffffffffffffffff1673ffffffffffffffffffffffffffffffffffffffff16815260200190815260200160002060006101000a81548160ff02191690831515021790555062000216620000a260201b60201c565b73ffffffffffffffffffffffffffffffffffffffff168173ffffffffffffffffffffffffffffffffffffffff16837f2f8788117e7eff1d82e926ec794901d17c78024a50270940304540a733656f0d60405160405180910390a45b5050565b60006001600084815260200190815260200160002060000160008373ffffffffffffffffffffffffffffffffffffffff1673ffffffffffffffffffffffffffffffffffffffff16815260200190815260200160002060009054906101000a900460ff16905092915050565b6113a580620002f06000396000f3fe608060405234801561001057600080fd5b50600436106100a95760003560e01c8063715018a611610071578063715018a6146101645780638da5cb5b1461016e57806391d148541461018c578063a217fddf146101bc578063d547741f146101da578063f2fde38b146101f6576100a9565b806301ffc9a7146100ae578063153252ec146100de578063248a9ca3146100fc5780632f2ff15d1461012c57806336568abe14610148575b600080fd5b6100c860048036038101906100c39190610c70565b610212565b6040516100d59190610e6a565b60405180910390f35b6100e661028c565b6040516100f39190610ea0565b60405180910390f35b61011660048036038101906101119190610c03565b6102b2565b6040516101239190610e85565b60405180910390f35b61014660048036038101906101419190610c30565b6102d2565b005b610162600480360381019061015d9190610c30565b6102f3565b005b61016c610376565b005b6101766103fe565b6040516101839190610e4f565b60405180910390f35b6101a660048036038101906101a19190610c30565b610427565b6040516101b39190610e6a565b60405180910390f35b6101c4610492565b6040516101d19190610e85565b60405180910390f35b6101f460048036038101906101ef9190610c30565b610499565b005b610210600480360381019061020b9190610bd6565b6104ba565b005b60007f7965db0b000000000000000000000000000000000000000000000000000000007bffffffffffffffffffffffffffffffffffffffffffffffffffffffff1916827bffffffffffffffffffffffffffffffffffffffffffffffffffffffff191614806102855750610284826105b2565b5b9050919050565b600260009054906101000a900473ffffffffffffffffffffffffffffffffffffffff1681565b600060016000838152602001908152602001600020600101549050919050565b6102db826102b2565b6102e48161061c565b6102ee8383610630565b505050565b6102fb610710565b73ffffffffffffffffffffffffffffffffffffffff168173ffffffffffffffffffffffffffffffffffffffff1614610368576040517f08c379a000000000000000000000000000000000000000000000000000000000815260040161035f90610f3d565b60405180910390fd5b6103728282610718565b5050565b61037e610710565b73ffffffffffffffffffffffffffffffffffffffff1661039c6103fe565b73ffffffffffffffffffffffffffffffffffffffff16146103f2576040517f08c379a00000000000000000000000000000000000000000000000000000000081526004016103e990610f1d565b60405180910390fd5b6103fc60006107fa565b565b60008060009054906101000a900473ffffffffffffffffffffffffffffffffffffffff16905090565b60006001600084815260200190815260200160002060000160008373ffffffffffffffffffffffffffffffffffffffff1673ffffffffffffffffffffffffffffffffffffffff16815260200190815260200160002060009054906101000a900460ff16905092915050565b6000801b81565b6104a2826102b2565b6104ab8161061c565b6104b58383610718565b505050565b6104c2610710565b73ffffffffffffffffffffffffffffffffffffffff166104e06103fe565b73ffffffffffffffffffffffffffffffffffffffff1614610536576040517f08c379a000000000000000000000000000000000000000000000000000000000815260040161052d90610f1d565b60405180910390fd5b600073ffffffffffffffffffffffffffffffffffffffff168173ffffffffffffffffffffffffffffffffffffffff1614156105a6576040517f08c379a000000000000000000000000000000000000000000000000000000000815260040161059d90610efd565b60405180910390fd5b6105af816107fa565b50565b60007f01ffc9a7000000000000000000000000000000000000000000000000000000007bffffffffffffffffffffffffffffffffffffffffffffffffffffffff1916827bffffffffffffffffffffffffffffffffffffffffffffffffffffffff1916149050919050565b61062d81610628610710565b6108be565b50565b61063a8282610427565b61070c57600180600084815260200190815260200160002060000160008373ffffffffffffffffffffffffffffffffffffffff1673ffffffffffffffffffffffffffffffffffffffff16815260200190815260200160002060006101000a81548160ff0219169083151502179055506106b1610710565b73ffffffffffffffffffffffffffffffffffffffff168173ffffffffffffffffffffffffffffffffffffffff16837f2f8788117e7eff1d82e926ec794901d17c78024a50270940304540a733656f0d60405160405180910390a45b5050565b600033905090565b6107228282610427565b156107f65760006001600084815260200190815260200160002060000160008373ffffffffffffffffffffffffffffffffffffffff1673ffffffffffffffffffffffffffffffffffffffff16815260200190815260200160002060006101000a81548160ff02191690831515021790555061079b610710565b73ffffffffffffffffffffffffffffffffffffffff168173ffffffffffffffffffffffffffffffffffffffff16837ff6391f5c32d9c69d2a47ea670b442974b53935d1edc7fd64eb21e047a839171b60405160405180910390a45b5050565b60008060009054906101000a900473ffffffffffffffffffffffffffffffffffffffff169050816000806101000a81548173ffffffffffffffffffffffffffffffffffffffff021916908373ffffffffffffffffffffffffffffffffffffffff1602179055508173ffffffffffffffffffffffffffffffffffffffff168173ffffffffffffffffffffffffffffffffffffffff167f8be0079c531659141344cd1fd0a4f28419497f9722a3daafe3b4186f6b6457e060405160405180910390a35050565b6108c88282610427565b610957576108ed8173ffffffffffffffffffffffffffffffffffffffff16601461095b565b6108fb8360001c602061095b565b60405160200161090c929190610e15565b6040516020818303038152906040526040517f08c379a000000000000000000000000000000000000000000000000000000000815260040161094e9190610ebb565b60405180910390fd5b5050565b60606000600283600261096e9190610fda565b6109789190610f84565b67ffffffffffffffff811115610991576109906111a3565b5b6040519080825280601f01601f1916602001820160405280156109c35781602001600182028036833780820191505090505b5090507f3000000000000000000000000000000000000000000000000000000000000000816000815181106109fb576109fa611174565b5b60200101907effffffffffffffffffffffffffffffffffffffffffffffffffffffffffffff1916908160001a9053507f780000000000000000000000000000000000000000000000000000000000000081600181518110610a5f57610a5e611174565b5b60200101907effffffffffffffffffffffffffffffffffffffffffffffffffffffffffffff1916908160001a90535060006001846002610a9f9190610fda565b610aa99190610f84565b90505b6001811115610b49577f3031323334353637383961626364656600000000000000000000000000000000600f861660108110610aeb57610aea611174565b5b1a60f81b828281518110610b0257610b01611174565b5b60200101907effffffffffffffffffffffffffffffffffffffffffffffffffffffffffffff1916908160001a905350600485901c945080610b429061111b565b9050610aac565b5060008414610b8d576040517f08c379a0000000000000000000000000000000000000000000000000000000008152600401610b8490610edd565b60405180910390fd5b8091505092915050565b600081359050610ba68161132a565b92915050565b600081359050610bbb81611341565b92915050565b600081359050610bd081611358565b92915050565b600060208284031215610bec57610beb6111d2565b5b6000610bfa84828501610b97565b91505092915050565b600060208284031215610c1957610c186111d2565b5b6000610c2784828501610bac565b91505092915050565b60008060408385031215610c4757610c466111d2565b5b6000610c5585828601610bac565b9250506020610c6685828601610b97565b9150509250929050565b600060208284031215610c8657610c856111d2565b5b6000610c9484828501610bc1565b91505092915050565b610ca681611034565b82525050565b610cb581611046565b82525050565b610cc481611052565b82525050565b610cd3816110b2565b82525050565b6000610ce482610f5d565b610cee8185610f68565b9350610cfe8185602086016110e8565b610d07816111d7565b840191505092915050565b6000610d1d82610f5d565b610d278185610f79565b9350610d378185602086016110e8565b80840191505092915050565b6000610d50602083610f68565b9150610d5b826111e8565b602082019050919050565b6000610d73602683610f68565b9150610d7e82611211565b604082019050919050565b6000610d96602083610f68565b9150610da182611260565b602082019050919050565b6000610db9601783610f79565b9150610dc482611289565b601782019050919050565b6000610ddc601183610f79565b9150610de7826112b2565b601182019050919050565b6000610dff602f83610f68565b9150610e0a826112db565b604082019050919050565b6000610e2082610dac565b9150610e2c8285610d12565b9150610e3782610dcf565b9150610e438284610d12565b91508190509392505050565b6000602082019050610e646000830184610c9d565b92915050565b6000602082019050610e7f6000830184610cac565b92915050565b6000602082019050610e9a6000830184610cbb565b92915050565b6000602082019050610eb56000830184610cca565b92915050565b60006020820190508181036000830152610ed58184610cd9565b905092915050565b60006020820190508181036000830152610ef681610d43565b9050919050565b60006020820190508181036000830152610f1681610d66565b9050919050565b60006020820190508181036000830152610f3681610d89565b9050919050565b60006020820190508181036000830152610f5681610df2565b9050919050565b600081519050919050565b600082825260208201905092915050565b600081905092915050565b6000610f8f826110a8565b9150610f9a836110a8565b9250827fffffffffffffffffffffffffffffffffffffffffffffffffffffffffffffffff03821115610fcf57610fce611145565b5b828201905092915050565b6000610fe5826110a8565b9150610ff0836110a8565b9250817fffffffffffffffffffffffffffffffffffffffffffffffffffffffffffffffff048311821515161561102957611028611145565b5b828202905092915050565b600061103f82611088565b9050919050565b60008115159050919050565b6000819050919050565b60007fffffffff0000000000000000000000000000000000000000000000000000000082169050919050565b600073ffffffffffffffffffffffffffffffffffffffff82169050919050565b6000819050919050565b60006110bd826110c4565b9050919050565b60006110cf826110d6565b9050919050565b60006110e182611088565b9050919050565b60005b838110156111065780820151818401526020810190506110eb565b83811115611115576000848401525b50505050565b6000611126826110a8565b9150600082141561113a57611139611145565b5b600182039050919050565b7f4e487b7100000000000000000000000000000000000000000000000000000000600052601160045260246000fd5b7f4e487b7100000000000000000000000000000000000000000000000000000000600052603260045260246000fd5b7f4e487b7100000000000000000000000000000000000000000000000000000000600052604160045260246000fd5b600080fd5b6000601f19601f8301169050919050565b7f537472696e67733a20686578206c656e67746820696e73756666696369656e74600082015250565b7f4f776e61626c653a206e6577206f776e657220697320746865207a65726f206160008201527f6464726573730000000000000000000000000000000000000000000000000000602082015250565b7f4f776e61626c653a2063616c6c6572206973206e6f7420746865206f776e6572600082015250565b7f416363657373436f6e74726f6c3a206163636f756e7420000000000000000000600082015250565b7f206973206d697373696e6720726f6c6520000000000000000000000000000000600082015250565b7f416363657373436f6e74726f6c3a2063616e206f6e6c792072656e6f756e636560008201527f20726f6c657320666f722073656c660000000000000000000000000000000000602082015250565b61133381611034565b811461133e57600080fd5b50565b61134a81611052565b811461135557600080fd5b50565b6113618161105c565b811461136c57600080fd5b5056fea26469706673582212209c91265321b4d2863f666b195e6a554ec2814e865aafa11900dec7e8c5c12c1364736f6c63430008070033",
					"opcodes": "PUSH1 0x80 PUSH1 0x40 MSTORE PUSH20 0xCB8BCDB991B45BF5D78000A0B5C0A6686CE43790 PUSH1 0x2 PUSH1 0x0 PUSH2 0x100 EXP DUP2 SLOAD DUP2 PUSH20 0xFFFFFFFFFFFFFFFFFFFFFFFFFFFFFFFFFFFFFFFF MUL NOT AND SWAP1 DUP4 PUSH20 0xFFFFFFFFFFFFFFFFFFFFFFFFFFFFFFFFFFFFFFFF AND MUL OR SWAP1 SSTORE POP CALLVALUE DUP1 ISZERO PUSH3 0x66 JUMPI PUSH1 0x0 DUP1 REVERT JUMPDEST POP PUSH3 0x87 PUSH3 0x7B PUSH3 0xA2 PUSH1 0x20 SHL PUSH1 0x20 SHR JUMP JUMPDEST PUSH3 0xAA PUSH1 0x20 SHL PUSH1 0x20 SHR JUMP JUMPDEST PUSH3 0x9C PUSH1 0x0 DUP1 SHL CALLER PUSH3 0x16E PUSH1 0x20 SHL PUSH1 0x20 SHR JUMP JUMPDEST PUSH3 0x2E0 JUMP JUMPDEST PUSH1 0x0 CALLER SWAP1 POP SWAP1 JUMP JUMPDEST PUSH1 0x0 DUP1 PUSH1 0x0 SWAP1 SLOAD SWAP1 PUSH2 0x100 EXP SWAP1 DIV PUSH20 0xFFFFFFFFFFFFFFFFFFFFFFFFFFFFFFFFFFFFFFFF AND SWAP1 POP DUP2 PUSH1 0x0 DUP1 PUSH2 0x100 EXP DUP2 SLOAD DUP2 PUSH20 0xFFFFFFFFFFFFFFFFFFFFFFFFFFFFFFFFFFFFFFFF MUL NOT AND SWAP1 DUP4 PUSH20 0xFFFFFFFFFFFFFFFFFFFFFFFFFFFFFFFFFFFFFFFF AND MUL OR SWAP1 SSTORE POP DUP2 PUSH20 0xFFFFFFFFFFFFFFFFFFFFFFFFFFFFFFFFFFFFFFFF AND DUP2 PUSH20 0xFFFFFFFFFFFFFFFFFFFFFFFFFFFFFFFFFFFFFFFF AND PUSH32 0x8BE0079C531659141344CD1FD0A4F28419497F9722A3DAAFE3B4186F6B6457E0 PUSH1 0x40 MLOAD PUSH1 0x40 MLOAD DUP1 SWAP2 SUB SWAP1 LOG3 POP POP JUMP JUMPDEST PUSH3 0x180 DUP3 DUP3 PUSH3 0x184 PUSH1 0x20 SHL PUSH1 0x20 SHR JUMP JUMPDEST POP POP JUMP JUMPDEST PUSH3 0x196 DUP3 DUP3 PUSH3 0x275 PUSH1 0x20 SHL PUSH1 0x20 SHR JUMP JUMPDEST PUSH3 0x271 JUMPI PUSH1 0x1 DUP1 PUSH1 0x0 DUP5 DUP2 MSTORE PUSH1 0x20 ADD SWAP1 DUP2 MSTORE PUSH1 0x20 ADD PUSH1 0x0 KECCAK256 PUSH1 0x0 ADD PUSH1 0x0 DUP4 PUSH20 0xFFFFFFFFFFFFFFFFFFFFFFFFFFFFFFFFFFFFFFFF AND PUSH20 0xFFFFFFFFFFFFFFFFFFFFFFFFFFFFFFFFFFFFFFFF AND DUP2 MSTORE PUSH1 0x20 ADD SWAP1 DUP2 MSTORE PUSH1 0x20 ADD PUSH1 0x0 KECCAK256 PUSH1 0x0 PUSH2 0x100 EXP DUP2 SLOAD DUP2 PUSH1 0xFF MUL NOT AND SWAP1 DUP4 ISZERO ISZERO MUL OR SWAP1 SSTORE POP PUSH3 0x216 PUSH3 0xA2 PUSH1 0x20 SHL PUSH1 0x20 SHR JUMP JUMPDEST PUSH20 0xFFFFFFFFFFFFFFFFFFFFFFFFFFFFFFFFFFFFFFFF AND DUP2 PUSH20 0xFFFFFFFFFFFFFFFFFFFFFFFFFFFFFFFFFFFFFFFF AND DUP4 PUSH32 0x2F8788117E7EFF1D82E926EC794901D17C78024A50270940304540A733656F0D PUSH1 0x40 MLOAD PUSH1 0x40 MLOAD DUP1 SWAP2 SUB SWAP1 LOG4 JUMPDEST POP POP JUMP JUMPDEST PUSH1 0x0 PUSH1 0x1 PUSH1 0x0 DUP5 DUP2 MSTORE PUSH1 0x20 ADD SWAP1 DUP2 MSTORE PUSH1 0x20 ADD PUSH1 0x0 KECCAK256 PUSH1 0x0 ADD PUSH1 0x0 DUP4 PUSH20 0xFFFFFFFFFFFFFFFFFFFFFFFFFFFFFFFFFFFFFFFF AND PUSH20 0xFFFFFFFFFFFFFFFFFFFFFFFFFFFFFFFFFFFFFFFF AND DUP2 MSTORE PUSH1 0x20 ADD SWAP1 DUP2 MSTORE PUSH1 0x20 ADD PUSH1 0x0 KECCAK256 PUSH1 0x0 SWAP1 SLOAD SWAP1 PUSH2 0x100 EXP SWAP1 DIV PUSH1 0xFF AND SWAP1 POP SWAP3 SWAP2 POP POP JUMP JUMPDEST PUSH2 0x13A5 DUP1 PUSH3 0x2F0 PUSH1 0x0 CODECOPY PUSH1 0x0 RETURN INVALID PUSH1 0x80 PUSH1 0x40 MSTORE CALLVALUE DUP1 ISZERO PUSH2 0x10 JUMPI PUSH1 0x0 DUP1 REVERT JUMPDEST POP PUSH1 0x4 CALLDATASIZE LT PUSH2 0xA9 JUMPI PUSH1 0x0 CALLDATALOAD PUSH1 0xE0 SHR DUP1 PUSH4 0x715018A6 GT PUSH2 0x71 JUMPI DUP1 PUSH4 0x715018A6 EQ PUSH2 0x164 JUMPI DUP1 PUSH4 0x8DA5CB5B EQ PUSH2 0x16E JUMPI DUP1 PUSH4 0x91D14854 EQ PUSH2 0x18C JUMPI DUP1 PUSH4 0xA217FDDF EQ PUSH2 0x1BC JUMPI DUP1 PUSH4 0xD547741F EQ PUSH2 0x1DA JUMPI DUP1 PUSH4 0xF2FDE38B EQ PUSH2 0x1F6 JUMPI PUSH2 0xA9 JUMP JUMPDEST DUP1 PUSH4 0x1FFC9A7 EQ PUSH2 0xAE JUMPI DUP1 PUSH4 0x153252EC EQ PUSH2 0xDE JUMPI DUP1 PUSH4 0x248A9CA3 EQ PUSH2 0xFC JUMPI DUP1 PUSH4 0x2F2FF15D EQ PUSH2 0x12C JUMPI DUP1 PUSH4 0x36568ABE EQ PUSH2 0x148 JUMPI JUMPDEST PUSH1 0x0 DUP1 REVERT JUMPDEST PUSH2 0xC8 PUSH1 0x4 DUP1 CALLDATASIZE SUB DUP2 ADD SWAP1 PUSH2 0xC3 SWAP2 SWAP1 PUSH2 0xC70 JUMP JUMPDEST PUSH2 0x212 JUMP JUMPDEST PUSH1 0x40 MLOAD PUSH2 0xD5 SWAP2 SWAP1 PUSH2 0xE6A JUMP JUMPDEST PUSH1 0x40 MLOAD DUP1 SWAP2 SUB SWAP1 RETURN JUMPDEST PUSH2 0xE6 PUSH2 0x28C JUMP JUMPDEST PUSH1 0x40 MLOAD PUSH2 0xF3 SWAP2 SWAP1 PUSH2 0xEA0 JUMP JUMPDEST PUSH1 0x40 MLOAD DUP1 SWAP2 SUB SWAP1 RETURN JUMPDEST PUSH2 0x116 PUSH1 0x4 DUP1 CALLDATASIZE SUB DUP2 ADD SWAP1 PUSH2 0x111 SWAP2 SWAP1 PUSH2 0xC03 JUMP JUMPDEST PUSH2 0x2B2 JUMP JUMPDEST PUSH1 0x40 MLOAD PUSH2 0x123 SWAP2 SWAP1 PUSH2 0xE85 JUMP JUMPDEST PUSH1 0x40 MLOAD DUP1 SWAP2 SUB SWAP1 RETURN JUMPDEST PUSH2 0x146 PUSH1 0x4 DUP1 CALLDATASIZE SUB DUP2 ADD SWAP1 PUSH2 0x141 SWAP2 SWAP1 PUSH2 0xC30 JUMP JUMPDEST PUSH2 0x2D2 JUMP JUMPDEST STOP JUMPDEST PUSH2 0x162 PUSH1 0x4 DUP1 CALLDATASIZE SUB DUP2 ADD SWAP1 PUSH2 0x15D SWAP2 SWAP1 PUSH2 0xC30 JUMP JUMPDEST PUSH2 0x2F3 JUMP JUMPDEST STOP JUMPDEST PUSH2 0x16C PUSH2 0x376 JUMP JUMPDEST STOP JUMPDEST PUSH2 0x176 PUSH2 0x3FE JUMP JUMPDEST PUSH1 0x40 MLOAD PUSH2 0x183 SWAP2 SWAP1 PUSH2 0xE4F JUMP JUMPDEST PUSH1 0x40 MLOAD DUP1 SWAP2 SUB SWAP1 RETURN JUMPDEST PUSH2 0x1A6 PUSH1 0x4 DUP1 CALLDATASIZE SUB DUP2 ADD SWAP1 PUSH2 0x1A1 SWAP2 SWAP1 PUSH2 0xC30 JUMP JUMPDEST PUSH2 0x427 JUMP JUMPDEST PUSH1 0x40 MLOAD PUSH2 0x1B3 SWAP2 SWAP1 PUSH2 0xE6A JUMP JUMPDEST PUSH1 0x40 MLOAD DUP1 SWAP2 SUB SWAP1 RETURN JUMPDEST PUSH2 0x1C4 PUSH2 0x492 JUMP JUMPDEST PUSH1 0x40 MLOAD PUSH2 0x1D1 SWAP2 SWAP1 PUSH2 0xE85 JUMP JUMPDEST PUSH1 0x40 MLOAD DUP1 SWAP2 SUB SWAP1 RETURN JUMPDEST PUSH2 0x1F4 PUSH1 0x4 DUP1 CALLDATASIZE SUB DUP2 ADD SWAP1 PUSH2 0x1EF SWAP2 SWAP1 PUSH2 0xC30 JUMP JUMPDEST PUSH2 0x499 JUMP JUMPDEST STOP JUMPDEST PUSH2 0x210 PUSH1 0x4 DUP1 CALLDATASIZE SUB DUP2 ADD SWAP1 PUSH2 0x20B SWAP2 SWAP1 PUSH2 0xBD6 JUMP JUMPDEST PUSH2 0x4BA JUMP JUMPDEST STOP JUMPDEST PUSH1 0x0 PUSH32 0x7965DB0B00000000000000000000000000000000000000000000000000000000 PUSH28 0xFFFFFFFFFFFFFFFFFFFFFFFFFFFFFFFFFFFFFFFFFFFFFFFFFFFFFFFF NOT AND DUP3 PUSH28 0xFFFFFFFFFFFFFFFFFFFFFFFFFFFFFFFFFFFFFFFFFFFFFFFFFFFFFFFF NOT AND EQ DUP1 PUSH2 0x285 JUMPI POP PUSH2 0x284 DUP3 PUSH2 0x5B2 JUMP JUMPDEST JUMPDEST SWAP1 POP SWAP2 SWAP1 POP JUMP JUMPDEST PUSH1 0x2 PUSH1 0x0 SWAP1 SLOAD SWAP1 PUSH2 0x100 EXP SWAP1 DIV PUSH20 0xFFFFFFFFFFFFFFFFFFFFFFFFFFFFFFFFFFFFFFFF AND DUP2 JUMP JUMPDEST PUSH1 0x0 PUSH1 0x1 PUSH1 0x0 DUP4 DUP2 MSTORE PUSH1 0x20 ADD SWAP1 DUP2 MSTORE PUSH1 0x20 ADD PUSH1 0x0 KECCAK256 PUSH1 0x1 ADD SLOAD SWAP1 POP SWAP2 SWAP1 POP JUMP JUMPDEST PUSH2 0x2DB DUP3 PUSH2 0x2B2 JUMP JUMPDEST PUSH2 0x2E4 DUP2 PUSH2 0x61C JUMP JUMPDEST PUSH2 0x2EE DUP4 DUP4 PUSH2 0x630 JUMP JUMPDEST POP POP POP JUMP JUMPDEST PUSH2 0x2FB PUSH2 0x710 JUMP JUMPDEST PUSH20 0xFFFFFFFFFFFFFFFFFFFFFFFFFFFFFFFFFFFFFFFF AND DUP2 PUSH20 0xFFFFFFFFFFFFFFFFFFFFFFFFFFFFFFFFFFFFFFFF AND EQ PUSH2 0x368 JUMPI PUSH1 0x40 MLOAD PUSH32 0x8C379A000000000000000000000000000000000000000000000000000000000 DUP2 MSTORE PUSH1 0x4 ADD PUSH2 0x35F SWAP1 PUSH2 0xF3D JUMP JUMPDEST PUSH1 0x40 MLOAD DUP1 SWAP2 SUB SWAP1 REVERT JUMPDEST PUSH2 0x372 DUP3 DUP3 PUSH2 0x718 JUMP JUMPDEST POP POP JUMP JUMPDEST PUSH2 0x37E PUSH2 0x710 JUMP JUMPDEST PUSH20 0xFFFFFFFFFFFFFFFFFFFFFFFFFFFFFFFFFFFFFFFF AND PUSH2 0x39C PUSH2 0x3FE JUMP JUMPDEST PUSH20 0xFFFFFFFFFFFFFFFFFFFFFFFFFFFFFFFFFFFFFFFF AND EQ PUSH2 0x3F2 JUMPI PUSH1 0x40 MLOAD PUSH32 0x8C379A000000000000000000000000000000000000000000000000000000000 DUP2 MSTORE PUSH1 0x4 ADD PUSH2 0x3E9 SWAP1 PUSH2 0xF1D JUMP JUMPDEST PUSH1 0x40 MLOAD DUP1 SWAP2 SUB SWAP1 REVERT JUMPDEST PUSH2 0x3FC PUSH1 0x0 PUSH2 0x7FA JUMP JUMPDEST JUMP JUMPDEST PUSH1 0x0 DUP1 PUSH1 0x0 SWAP1 SLOAD SWAP1 PUSH2 0x100 EXP SWAP1 DIV PUSH20 0xFFFFFFFFFFFFFFFFFFFFFFFFFFFFFFFFFFFFFFFF AND SWAP1 POP SWAP1 JUMP JUMPDEST PUSH1 0x0 PUSH1 0x1 PUSH1 0x0 DUP5 DUP2 MSTORE PUSH1 0x20 ADD SWAP1 DUP2 MSTORE PUSH1 0x20 ADD PUSH1 0x0 KECCAK256 PUSH1 0x0 ADD PUSH1 0x0 DUP4 PUSH20 0xFFFFFFFFFFFFFFFFFFFFFFFFFFFFFFFFFFFFFFFF AND PUSH20 0xFFFFFFFFFFFFFFFFFFFFFFFFFFFFFFFFFFFFFFFF AND DUP2 MSTORE PUSH1 0x20 ADD SWAP1 DUP2 MSTORE PUSH1 0x20 ADD PUSH1 0x0 KECCAK256 PUSH1 0x0 SWAP1 SLOAD SWAP1 PUSH2 0x100 EXP SWAP1 DIV PUSH1 0xFF AND SWAP1 POP SWAP3 SWAP2 POP POP JUMP JUMPDEST PUSH1 0x0 DUP1 SHL DUP2 JUMP JUMPDEST PUSH2 0x4A2 DUP3 PUSH2 0x2B2 JUMP JUMPDEST PUSH2 0x4AB DUP2 PUSH2 0x61C JUMP JUMPDEST PUSH2 0x4B5 DUP4 DUP4 PUSH2 0x718 JUMP JUMPDEST POP POP POP JUMP JUMPDEST PUSH2 0x4C2 PUSH2 0x710 JUMP JUMPDEST PUSH20 0xFFFFFFFFFFFFFFFFFFFFFFFFFFFFFFFFFFFFFFFF AND PUSH2 0x4E0 PUSH2 0x3FE JUMP JUMPDEST PUSH20 0xFFFFFFFFFFFFFFFFFFFFFFFFFFFFFFFFFFFFFFFF AND EQ PUSH2 0x536 JUMPI PUSH1 0x40 MLOAD PUSH32 0x8C379A000000000000000000000000000000000000000000000000000000000 DUP2 MSTORE PUSH1 0x4 ADD PUSH2 0x52D SWAP1 PUSH2 0xF1D JUMP JUMPDEST PUSH1 0x40 MLOAD DUP1 SWAP2 SUB SWAP1 REVERT JUMPDEST PUSH1 0x0 PUSH20 0xFFFFFFFFFFFFFFFFFFFFFFFFFFFFFFFFFFFFFFFF AND DUP2 PUSH20 0xFFFFFFFFFFFFFFFFFFFFFFFFFFFFFFFFFFFFFFFF AND EQ ISZERO PUSH2 0x5A6 JUMPI PUSH1 0x40 MLOAD PUSH32 0x8C379A000000000000000000000000000000000000000000000000000000000 DUP2 MSTORE PUSH1 0x4 ADD PUSH2 0x59D SWAP1 PUSH2 0xEFD JUMP JUMPDEST PUSH1 0x40 MLOAD DUP1 SWAP2 SUB SWAP1 REVERT JUMPDEST PUSH2 0x5AF DUP2 PUSH2 0x7FA JUMP JUMPDEST POP JUMP JUMPDEST PUSH1 0x0 PUSH32 0x1FFC9A700000000000000000000000000000000000000000000000000000000 PUSH28 0xFFFFFFFFFFFFFFFFFFFFFFFFFFFFFFFFFFFFFFFFFFFFFFFFFFFFFFFF NOT AND DUP3 PUSH28 0xFFFFFFFFFFFFFFFFFFFFFFFFFFFFFFFFFFFFFFFFFFFFFFFFFFFFFFFF NOT AND EQ SWAP1 POP SWAP2 SWAP1 POP JUMP JUMPDEST PUSH2 0x62D DUP2 PUSH2 0x628 PUSH2 0x710 JUMP JUMPDEST PUSH2 0x8BE JUMP JUMPDEST POP JUMP JUMPDEST PUSH2 0x63A DUP3 DUP3 PUSH2 0x427 JUMP JUMPDEST PUSH2 0x70C JUMPI PUSH1 0x1 DUP1 PUSH1 0x0 DUP5 DUP2 MSTORE PUSH1 0x20 ADD SWAP1 DUP2 MSTORE PUSH1 0x20 ADD PUSH1 0x0 KECCAK256 PUSH1 0x0 ADD PUSH1 0x0 DUP4 PUSH20 0xFFFFFFFFFFFFFFFFFFFFFFFFFFFFFFFFFFFFFFFF AND PUSH20 0xFFFFFFFFFFFFFFFFFFFFFFFFFFFFFFFFFFFFFFFF AND DUP2 MSTORE PUSH1 0x20 ADD SWAP1 DUP2 MSTORE PUSH1 0x20 ADD PUSH1 0x0 KECCAK256 PUSH1 0x0 PUSH2 0x100 EXP DUP2 SLOAD DUP2 PUSH1 0xFF MUL NOT AND SWAP1 DUP4 ISZERO ISZERO MUL OR SWAP1 SSTORE POP PUSH2 0x6B1 PUSH2 0x710 JUMP JUMPDEST PUSH20 0xFFFFFFFFFFFFFFFFFFFFFFFFFFFFFFFFFFFFFFFF AND DUP2 PUSH20 0xFFFFFFFFFFFFFFFFFFFFFFFFFFFFFFFFFFFFFFFF AND DUP4 PUSH32 0x2F8788117E7EFF1D82E926EC794901D17C78024A50270940304540A733656F0D PUSH1 0x40 MLOAD PUSH1 0x40 MLOAD DUP1 SWAP2 SUB SWAP1 LOG4 JUMPDEST POP POP JUMP JUMPDEST PUSH1 0x0 CALLER SWAP1 POP SWAP1 JUMP JUMPDEST PUSH2 0x722 DUP3 DUP3 PUSH2 0x427 JUMP JUMPDEST ISZERO PUSH2 0x7F6 JUMPI PUSH1 0x0 PUSH1 0x1 PUSH1 0x0 DUP5 DUP2 MSTORE PUSH1 0x20 ADD SWAP1 DUP2 MSTORE PUSH1 0x20 ADD PUSH1 0x0 KECCAK256 PUSH1 0x0 ADD PUSH1 0x0 DUP4 PUSH20 0xFFFFFFFFFFFFFFFFFFFFFFFFFFFFFFFFFFFFFFFF AND PUSH20 0xFFFFFFFFFFFFFFFFFFFFFFFFFFFFFFFFFFFFFFFF AND DUP2 MSTORE PUSH1 0x20 ADD SWAP1 DUP2 MSTORE PUSH1 0x20 ADD PUSH1 0x0 KECCAK256 PUSH1 0x0 PUSH2 0x100 EXP DUP2 SLOAD DUP2 PUSH1 0xFF MUL NOT AND SWAP1 DUP4 ISZERO ISZERO MUL OR SWAP1 SSTORE POP PUSH2 0x79B PUSH2 0x710 JUMP JUMPDEST PUSH20 0xFFFFFFFFFFFFFFFFFFFFFFFFFFFFFFFFFFFFFFFF AND DUP2 PUSH20 0xFFFFFFFFFFFFFFFFFFFFFFFFFFFFFFFFFFFFFFFF AND DUP4 PUSH32 0xF6391F5C32D9C69D2A47EA670B442974B53935D1EDC7FD64EB21E047A839171B PUSH1 0x40 MLOAD PUSH1 0x40 MLOAD DUP1 SWAP2 SUB SWAP1 LOG4 JUMPDEST POP POP JUMP JUMPDEST PUSH1 0x0 DUP1 PUSH1 0x0 SWAP1 SLOAD SWAP1 PUSH2 0x100 EXP SWAP1 DIV PUSH20 0xFFFFFFFFFFFFFFFFFFFFFFFFFFFFFFFFFFFFFFFF AND SWAP1 POP DUP2 PUSH1 0x0 DUP1 PUSH2 0x100 EXP DUP2 SLOAD DUP2 PUSH20 0xFFFFFFFFFFFFFFFFFFFFFFFFFFFFFFFFFFFFFFFF MUL NOT AND SWAP1 DUP4 PUSH20 0xFFFFFFFFFFFFFFFFFFFFFFFFFFFFFFFFFFFFFFFF AND MUL OR SWAP1 SSTORE POP DUP2 PUSH20 0xFFFFFFFFFFFFFFFFFFFFFFFFFFFFFFFFFFFFFFFF AND DUP2 PUSH20 0xFFFFFFFFFFFFFFFFFFFFFFFFFFFFFFFFFFFFFFFF AND PUSH32 0x8BE0079C531659141344CD1FD0A4F28419497F9722A3DAAFE3B4186F6B6457E0 PUSH1 0x40 MLOAD PUSH1 0x40 MLOAD DUP1 SWAP2 SUB SWAP1 LOG3 POP POP JUMP JUMPDEST PUSH2 0x8C8 DUP3 DUP3 PUSH2 0x427 JUMP JUMPDEST PUSH2 0x957 JUMPI PUSH2 0x8ED DUP2 PUSH20 0xFFFFFFFFFFFFFFFFFFFFFFFFFFFFFFFFFFFFFFFF AND PUSH1 0x14 PUSH2 0x95B JUMP JUMPDEST PUSH2 0x8FB DUP4 PUSH1 0x0 SHR PUSH1 0x20 PUSH2 0x95B JUMP JUMPDEST PUSH1 0x40 MLOAD PUSH1 0x20 ADD PUSH2 0x90C SWAP3 SWAP2 SWAP1 PUSH2 0xE15 JUMP JUMPDEST PUSH1 0x40 MLOAD PUSH1 0x20 DUP2 DUP4 SUB SUB DUP2 MSTORE SWAP1 PUSH1 0x40 MSTORE PUSH1 0x40 MLOAD PUSH32 0x8C379A000000000000000000000000000000000000000000000000000000000 DUP2 MSTORE PUSH1 0x4 ADD PUSH2 0x94E SWAP2 SWAP1 PUSH2 0xEBB JUMP JUMPDEST PUSH1 0x40 MLOAD DUP1 SWAP2 SUB SWAP1 REVERT JUMPDEST POP POP JUMP JUMPDEST PUSH1 0x60 PUSH1 0x0 PUSH1 0x2 DUP4 PUSH1 0x2 PUSH2 0x96E SWAP2 SWAP1 PUSH2 0xFDA JUMP JUMPDEST PUSH2 0x978 SWAP2 SWAP1 PUSH2 0xF84 JUMP JUMPDEST PUSH8 0xFFFFFFFFFFFFFFFF DUP2 GT ISZERO PUSH2 0x991 JUMPI PUSH2 0x990 PUSH2 0x11A3 JUMP JUMPDEST JUMPDEST PUSH1 0x40 MLOAD SWAP1 DUP1 DUP3 MSTORE DUP1 PUSH1 0x1F ADD PUSH1 0x1F NOT AND PUSH1 0x20 ADD DUP3 ADD PUSH1 0x40 MSTORE DUP1 ISZERO PUSH2 0x9C3 JUMPI DUP2 PUSH1 0x20 ADD PUSH1 0x1 DUP3 MUL DUP1 CALLDATASIZE DUP4 CALLDATACOPY DUP1 DUP3 ADD SWAP2 POP POP SWAP1 POP JUMPDEST POP SWAP1 POP PUSH32 0x3000000000000000000000000000000000000000000000000000000000000000 DUP2 PUSH1 0x0 DUP2 MLOAD DUP2 LT PUSH2 0x9FB JUMPI PUSH2 0x9FA PUSH2 0x1174 JUMP JUMPDEST JUMPDEST PUSH1 0x20 ADD ADD SWAP1 PUSH31 0xFFFFFFFFFFFFFFFFFFFFFFFFFFFFFFFFFFFFFFFFFFFFFFFFFFFFFFFFFFFFFF NOT AND SWAP1 DUP2 PUSH1 0x0 BYTE SWAP1 MSTORE8 POP PUSH32 0x7800000000000000000000000000000000000000000000000000000000000000 DUP2 PUSH1 0x1 DUP2 MLOAD DUP2 LT PUSH2 0xA5F JUMPI PUSH2 0xA5E PUSH2 0x1174 JUMP JUMPDEST JUMPDEST PUSH1 0x20 ADD ADD SWAP1 PUSH31 0xFFFFFFFFFFFFFFFFFFFFFFFFFFFFFFFFFFFFFFFFFFFFFFFFFFFFFFFFFFFFFF NOT AND SWAP1 DUP2 PUSH1 0x0 BYTE SWAP1 MSTORE8 POP PUSH1 0x0 PUSH1 0x1 DUP5 PUSH1 0x2 PUSH2 0xA9F SWAP2 SWAP1 PUSH2 0xFDA JUMP JUMPDEST PUSH2 0xAA9 SWAP2 SWAP1 PUSH2 0xF84 JUMP JUMPDEST SWAP1 POP JUMPDEST PUSH1 0x1 DUP2 GT ISZERO PUSH2 0xB49 JUMPI PUSH32 0x3031323334353637383961626364656600000000000000000000000000000000 PUSH1 0xF DUP7 AND PUSH1 0x10 DUP2 LT PUSH2 0xAEB JUMPI PUSH2 0xAEA PUSH2 0x1174 JUMP JUMPDEST JUMPDEST BYTE PUSH1 0xF8 SHL DUP3 DUP3 DUP2 MLOAD DUP2 LT PUSH2 0xB02 JUMPI PUSH2 0xB01 PUSH2 0x1174 JUMP JUMPDEST JUMPDEST PUSH1 0x20 ADD ADD SWAP1 PUSH31 0xFFFFFFFFFFFFFFFFFFFFFFFFFFFFFFFFFFFFFFFFFFFFFFFFFFFFFFFFFFFFFF NOT AND SWAP1 DUP2 PUSH1 0x0 BYTE SWAP1 MSTORE8 POP PUSH1 0x4 DUP6 SWAP1 SHR SWAP5 POP DUP1 PUSH2 0xB42 SWAP1 PUSH2 0x111B JUMP JUMPDEST SWAP1 POP PUSH2 0xAAC JUMP JUMPDEST POP PUSH1 0x0 DUP5 EQ PUSH2 0xB8D JUMPI PUSH1 0x40 MLOAD PUSH32 0x8C379A000000000000000000000000000000000000000000000000000000000 DUP2 MSTORE PUSH1 0x4 ADD PUSH2 0xB84 SWAP1 PUSH2 0xEDD JUMP JUMPDEST PUSH1 0x40 MLOAD DUP1 SWAP2 SUB SWAP1 REVERT JUMPDEST DUP1 SWAP2 POP POP SWAP3 SWAP2 POP POP JUMP JUMPDEST PUSH1 0x0 DUP2 CALLDATALOAD SWAP1 POP PUSH2 0xBA6 DUP2 PUSH2 0x132A JUMP JUMPDEST SWAP3 SWAP2 POP POP JUMP JUMPDEST PUSH1 0x0 DUP2 CALLDATALOAD SWAP1 POP PUSH2 0xBBB DUP2 PUSH2 0x1341 JUMP JUMPDEST SWAP3 SWAP2 POP POP JUMP JUMPDEST PUSH1 0x0 DUP2 CALLDATALOAD SWAP1 POP PUSH2 0xBD0 DUP2 PUSH2 0x1358 JUMP JUMPDEST SWAP3 SWAP2 POP POP JUMP JUMPDEST PUSH1 0x0 PUSH1 0x20 DUP3 DUP5 SUB SLT ISZERO PUSH2 0xBEC JUMPI PUSH2 0xBEB PUSH2 0x11D2 JUMP JUMPDEST JUMPDEST PUSH1 0x0 PUSH2 0xBFA DUP5 DUP3 DUP6 ADD PUSH2 0xB97 JUMP JUMPDEST SWAP2 POP POP SWAP3 SWAP2 POP POP JUMP JUMPDEST PUSH1 0x0 PUSH1 0x20 DUP3 DUP5 SUB SLT ISZERO PUSH2 0xC19 JUMPI PUSH2 0xC18 PUSH2 0x11D2 JUMP JUMPDEST JUMPDEST PUSH1 0x0 PUSH2 0xC27 DUP5 DUP3 DUP6 ADD PUSH2 0xBAC JUMP JUMPDEST SWAP2 POP POP SWAP3 SWAP2 POP POP JUMP JUMPDEST PUSH1 0x0 DUP1 PUSH1 0x40 DUP4 DUP6 SUB SLT ISZERO PUSH2 0xC47 JUMPI PUSH2 0xC46 PUSH2 0x11D2 JUMP JUMPDEST JUMPDEST PUSH1 0x0 PUSH2 0xC55 DUP6 DUP3 DUP7 ADD PUSH2 0xBAC JUMP JUMPDEST SWAP3 POP POP PUSH1 0x20 PUSH2 0xC66 DUP6 DUP3 DUP7 ADD PUSH2 0xB97 JUMP JUMPDEST SWAP2 POP POP SWAP3 POP SWAP3 SWAP1 POP JUMP JUMPDEST PUSH1 0x0 PUSH1 0x20 DUP3 DUP5 SUB SLT ISZERO PUSH2 0xC86 JUMPI PUSH2 0xC85 PUSH2 0x11D2 JUMP JUMPDEST JUMPDEST PUSH1 0x0 PUSH2 0xC94 DUP5 DUP3 DUP6 ADD PUSH2 0xBC1 JUMP JUMPDEST SWAP2 POP POP SWAP3 SWAP2 POP POP JUMP JUMPDEST PUSH2 0xCA6 DUP2 PUSH2 0x1034 JUMP JUMPDEST DUP3 MSTORE POP POP JUMP JUMPDEST PUSH2 0xCB5 DUP2 PUSH2 0x1046 JUMP JUMPDEST DUP3 MSTORE POP POP JUMP JUMPDEST PUSH2 0xCC4 DUP2 PUSH2 0x1052 JUMP JUMPDEST DUP3 MSTORE POP POP JUMP JUMPDEST PUSH2 0xCD3 DUP2 PUSH2 0x10B2 JUMP JUMPDEST DUP3 MSTORE POP POP JUMP JUMPDEST PUSH1 0x0 PUSH2 0xCE4 DUP3 PUSH2 0xF5D JUMP JUMPDEST PUSH2 0xCEE DUP2 DUP6 PUSH2 0xF68 JUMP JUMPDEST SWAP4 POP PUSH2 0xCFE DUP2 DUP6 PUSH1 0x20 DUP7 ADD PUSH2 0x10E8 JUMP JUMPDEST PUSH2 0xD07 DUP2 PUSH2 0x11D7 JUMP JUMPDEST DUP5 ADD SWAP2 POP POP SWAP3 SWAP2 POP POP JUMP JUMPDEST PUSH1 0x0 PUSH2 0xD1D DUP3 PUSH2 0xF5D JUMP JUMPDEST PUSH2 0xD27 DUP2 DUP6 PUSH2 0xF79 JUMP JUMPDEST SWAP4 POP PUSH2 0xD37 DUP2 DUP6 PUSH1 0x20 DUP7 ADD PUSH2 0x10E8 JUMP JUMPDEST DUP1 DUP5 ADD SWAP2 POP POP SWAP3 SWAP2 POP POP JUMP JUMPDEST PUSH1 0x0 PUSH2 0xD50 PUSH1 0x20 DUP4 PUSH2 0xF68 JUMP JUMPDEST SWAP2 POP PUSH2 0xD5B DUP3 PUSH2 0x11E8 JUMP JUMPDEST PUSH1 0x20 DUP3 ADD SWAP1 POP SWAP2 SWAP1 POP JUMP JUMPDEST PUSH1 0x0 PUSH2 0xD73 PUSH1 0x26 DUP4 PUSH2 0xF68 JUMP JUMPDEST SWAP2 POP PUSH2 0xD7E DUP3 PUSH2 0x1211 JUMP JUMPDEST PUSH1 0x40 DUP3 ADD SWAP1 POP SWAP2 SWAP1 POP JUMP JUMPDEST PUSH1 0x0 PUSH2 0xD96 PUSH1 0x20 DUP4 PUSH2 0xF68 JUMP JUMPDEST SWAP2 POP PUSH2 0xDA1 DUP3 PUSH2 0x1260 JUMP JUMPDEST PUSH1 0x20 DUP3 ADD SWAP1 POP SWAP2 SWAP1 POP JUMP JUMPDEST PUSH1 0x0 PUSH2 0xDB9 PUSH1 0x17 DUP4 PUSH2 0xF79 JUMP JUMPDEST SWAP2 POP PUSH2 0xDC4 DUP3 PUSH2 0x1289 JUMP JUMPDEST PUSH1 0x17 DUP3 ADD SWAP1 POP SWAP2 SWAP1 POP JUMP JUMPDEST PUSH1 0x0 PUSH2 0xDDC PUSH1 0x11 DUP4 PUSH2 0xF79 JUMP JUMPDEST SWAP2 POP PUSH2 0xDE7 DUP3 PUSH2 0x12B2 JUMP JUMPDEST PUSH1 0x11 DUP3 ADD SWAP1 POP SWAP2 SWAP1 POP JUMP JUMPDEST PUSH1 0x0 PUSH2 0xDFF PUSH1 0x2F DUP4 PUSH2 0xF68 JUMP JUMPDEST SWAP2 POP PUSH2 0xE0A DUP3 PUSH2 0x12DB JUMP JUMPDEST PUSH1 0x40 DUP3 ADD SWAP1 POP SWAP2 SWAP1 POP JUMP JUMPDEST PUSH1 0x0 PUSH2 0xE20 DUP3 PUSH2 0xDAC JUMP JUMPDEST SWAP2 POP PUSH2 0xE2C DUP3 DUP6 PUSH2 0xD12 JUMP JUMPDEST SWAP2 POP PUSH2 0xE37 DUP3 PUSH2 0xDCF JUMP JUMPDEST SWAP2 POP PUSH2 0xE43 DUP3 DUP5 PUSH2 0xD12 JUMP JUMPDEST SWAP2 POP DUP2 SWAP1 POP SWAP4 SWAP3 POP POP POP JUMP JUMPDEST PUSH1 0x0 PUSH1 0x20 DUP3 ADD SWAP1 POP PUSH2 0xE64 PUSH1 0x0 DUP4 ADD DUP5 PUSH2 0xC9D JUMP JUMPDEST SWAP3 SWAP2 POP POP JUMP JUMPDEST PUSH1 0x0 PUSH1 0x20 DUP3 ADD SWAP1 POP PUSH2 0xE7F PUSH1 0x0 DUP4 ADD DUP5 PUSH2 0xCAC JUMP JUMPDEST SWAP3 SWAP2 POP POP JUMP JUMPDEST PUSH1 0x0 PUSH1 0x20 DUP3 ADD SWAP1 POP PUSH2 0xE9A PUSH1 0x0 DUP4 ADD DUP5 PUSH2 0xCBB JUMP JUMPDEST SWAP3 SWAP2 POP POP JUMP JUMPDEST PUSH1 0x0 PUSH1 0x20 DUP3 ADD SWAP1 POP PUSH2 0xEB5 PUSH1 0x0 DUP4 ADD DUP5 PUSH2 0xCCA JUMP JUMPDEST SWAP3 SWAP2 POP POP JUMP JUMPDEST PUSH1 0x0 PUSH1 0x20 DUP3 ADD SWAP1 POP DUP2 DUP2 SUB PUSH1 0x0 DUP4 ADD MSTORE PUSH2 0xED5 DUP2 DUP5 PUSH2 0xCD9 JUMP JUMPDEST SWAP1 POP SWAP3 SWAP2 POP POP JUMP JUMPDEST PUSH1 0x0 PUSH1 0x20 DUP3 ADD SWAP1 POP DUP2 DUP2 SUB PUSH1 0x0 DUP4 ADD MSTORE PUSH2 0xEF6 DUP2 PUSH2 0xD43 JUMP JUMPDEST SWAP1 POP SWAP2 SWAP1 POP JUMP JUMPDEST PUSH1 0x0 PUSH1 0x20 DUP3 ADD SWAP1 POP DUP2 DUP2 SUB PUSH1 0x0 DUP4 ADD MSTORE PUSH2 0xF16 DUP2 PUSH2 0xD66 JUMP JUMPDEST SWAP1 POP SWAP2 SWAP1 POP JUMP JUMPDEST PUSH1 0x0 PUSH1 0x20 DUP3 ADD SWAP1 POP DUP2 DUP2 SUB PUSH1 0x0 DUP4 ADD MSTORE PUSH2 0xF36 DUP2 PUSH2 0xD89 JUMP JUMPDEST SWAP1 POP SWAP2 SWAP1 POP JUMP JUMPDEST PUSH1 0x0 PUSH1 0x20 DUP3 ADD SWAP1 POP DUP2 DUP2 SUB PUSH1 0x0 DUP4 ADD MSTORE PUSH2 0xF56 DUP2 PUSH2 0xDF2 JUMP JUMPDEST SWAP1 POP SWAP2 SWAP1 POP JUMP JUMPDEST PUSH1 0x0 DUP2 MLOAD SWAP1 POP SWAP2 SWAP1 POP JUMP JUMPDEST PUSH1 0x0 DUP3 DUP3 MSTORE PUSH1 0x20 DUP3 ADD SWAP1 POP SWAP3 SWAP2 POP POP JUMP JUMPDEST PUSH1 0x0 DUP2 SWAP1 POP SWAP3 SWAP2 POP POP JUMP JUMPDEST PUSH1 0x0 PUSH2 0xF8F DUP3 PUSH2 0x10A8 JUMP JUMPDEST SWAP2 POP PUSH2 0xF9A DUP4 PUSH2 0x10A8 JUMP JUMPDEST SWAP3 POP DUP3 PUSH32 0xFFFFFFFFFFFFFFFFFFFFFFFFFFFFFFFFFFFFFFFFFFFFFFFFFFFFFFFFFFFFFFFF SUB DUP3 GT ISZERO PUSH2 0xFCF JUMPI PUSH2 0xFCE PUSH2 0x1145 JUMP JUMPDEST JUMPDEST DUP3 DUP3 ADD SWAP1 POP SWAP3 SWAP2 POP POP JUMP JUMPDEST PUSH1 0x0 PUSH2 0xFE5 DUP3 PUSH2 0x10A8 JUMP JUMPDEST SWAP2 POP PUSH2 0xFF0 DUP4 PUSH2 0x10A8 JUMP JUMPDEST SWAP3 POP DUP2 PUSH32 0xFFFFFFFFFFFFFFFFFFFFFFFFFFFFFFFFFFFFFFFFFFFFFFFFFFFFFFFFFFFFFFFF DIV DUP4 GT DUP3 ISZERO ISZERO AND ISZERO PUSH2 0x1029 JUMPI PUSH2 0x1028 PUSH2 0x1145 JUMP JUMPDEST JUMPDEST DUP3 DUP3 MUL SWAP1 POP SWAP3 SWAP2 POP POP JUMP JUMPDEST PUSH1 0x0 PUSH2 0x103F DUP3 PUSH2 0x1088 JUMP JUMPDEST SWAP1 POP SWAP2 SWAP1 POP JUMP JUMPDEST PUSH1 0x0 DUP2 ISZERO ISZERO SWAP1 POP SWAP2 SWAP1 POP JUMP JUMPDEST PUSH1 0x0 DUP2 SWAP1 POP SWAP2 SWAP1 POP JUMP JUMPDEST PUSH1 0x0 PUSH32 0xFFFFFFFF00000000000000000000000000000000000000000000000000000000 DUP3 AND SWAP1 POP SWAP2 SWAP1 POP JUMP JUMPDEST PUSH1 0x0 PUSH20 0xFFFFFFFFFFFFFFFFFFFFFFFFFFFFFFFFFFFFFFFF DUP3 AND SWAP1 POP SWAP2 SWAP1 POP JUMP JUMPDEST PUSH1 0x0 DUP2 SWAP1 POP SWAP2 SWAP1 POP JUMP JUMPDEST PUSH1 0x0 PUSH2 0x10BD DUP3 PUSH2 0x10C4 JUMP JUMPDEST SWAP1 POP SWAP2 SWAP1 POP JUMP JUMPDEST PUSH1 0x0 PUSH2 0x10CF DUP3 PUSH2 0x10D6 JUMP JUMPDEST SWAP1 POP SWAP2 SWAP1 POP JUMP JUMPDEST PUSH1 0x0 PUSH2 0x10E1 DUP3 PUSH2 0x1088 JUMP JUMPDEST SWAP1 POP SWAP2 SWAP1 POP JUMP JUMPDEST PUSH1 0x0 JUMPDEST DUP4 DUP2 LT ISZERO PUSH2 0x1106 JUMPI DUP1 DUP3 ADD MLOAD DUP2 DUP5 ADD MSTORE PUSH1 0x20 DUP2 ADD SWAP1 POP PUSH2 0x10EB JUMP JUMPDEST DUP4 DUP2 GT ISZERO PUSH2 0x1115 JUMPI PUSH1 0x0 DUP5 DUP5 ADD MSTORE JUMPDEST POP POP POP POP JUMP JUMPDEST PUSH1 0x0 PUSH2 0x1126 DUP3 PUSH2 0x10A8 JUMP JUMPDEST SWAP2 POP PUSH1 0x0 DUP3 EQ ISZERO PUSH2 0x113A JUMPI PUSH2 0x1139 PUSH2 0x1145 JUMP JUMPDEST JUMPDEST PUSH1 0x1 DUP3 SUB SWAP1 POP SWAP2 SWAP1 POP JUMP JUMPDEST PUSH32 0x4E487B7100000000000000000000000000000000000000000000000000000000 PUSH1 0x0 MSTORE PUSH1 0x11 PUSH1 0x4 MSTORE PUSH1 0x24 PUSH1 0x0 REVERT JUMPDEST PUSH32 0x4E487B7100000000000000000000000000000000000000000000000000000000 PUSH1 0x0 MSTORE PUSH1 0x32 PUSH1 0x4 MSTORE PUSH1 0x24 PUSH1 0x0 REVERT JUMPDEST PUSH32 0x4E487B7100000000000000000000000000000000000000000000000000000000 PUSH1 0x0 MSTORE PUSH1 0x41 PUSH1 0x4 MSTORE PUSH1 0x24 PUSH1 0x0 REVERT JUMPDEST PUSH1 0x0 DUP1 REVERT JUMPDEST PUSH1 0x0 PUSH1 0x1F NOT PUSH1 0x1F DUP4 ADD AND SWAP1 POP SWAP2 SWAP1 POP JUMP JUMPDEST PUSH32 0x537472696E67733A20686578206C656E67746820696E73756666696369656E74 PUSH1 0x0 DUP3 ADD MSTORE POP JUMP JUMPDEST PUSH32 0x4F776E61626C653A206E6577206F776E657220697320746865207A65726F2061 PUSH1 0x0 DUP3 ADD MSTORE PUSH32 0x6464726573730000000000000000000000000000000000000000000000000000 PUSH1 0x20 DUP3 ADD MSTORE POP JUMP JUMPDEST PUSH32 0x4F776E61626C653A2063616C6C6572206973206E6F7420746865206F776E6572 PUSH1 0x0 DUP3 ADD MSTORE POP JUMP JUMPDEST PUSH32 0x416363657373436F6E74726F6C3A206163636F756E7420000000000000000000 PUSH1 0x0 DUP3 ADD MSTORE POP JUMP JUMPDEST PUSH32 0x206973206D697373696E6720726F6C6520000000000000000000000000000000 PUSH1 0x0 DUP3 ADD MSTORE POP JUMP JUMPDEST PUSH32 0x416363657373436F6E74726F6C3A2063616E206F6E6C792072656E6F756E6365 PUSH1 0x0 DUP3 ADD MSTORE PUSH32 0x20726F6C657320666F722073656C660000000000000000000000000000000000 PUSH1 0x20 DUP3 ADD MSTORE POP JUMP JUMPDEST PUSH2 0x1333 DUP2 PUSH2 0x1034 JUMP JUMPDEST DUP2 EQ PUSH2 0x133E JUMPI PUSH1 0x0 DUP1 REVERT JUMPDEST POP JUMP JUMPDEST PUSH2 0x134A DUP2 PUSH2 0x1052 JUMP JUMPDEST DUP2 EQ PUSH2 0x1355 JUMPI PUSH1 0x0 DUP1 REVERT JUMPDEST POP JUMP JUMPDEST PUSH2 0x1361 DUP2 PUSH2 0x105C JUMP JUMPDEST DUP2 EQ PUSH2 0x136C JUMPI PUSH1 0x0 DUP1 REVERT JUMPDEST POP JUMP INVALID LOG2 PUSH5 0x6970667358 0x22 SLT KECCAK256 SWAP13 SWAP2 0x26 MSTORE8 0x21 0xB4 0xD2 DUP7 EXTCODEHASH PUSH7 0x6B195E6A554EC2 DUP2 0x4E DUP7 GAS 0xAF LOG1 NOT STOP 0xDE 0xC7 0xE8 0xC5 0xC1 0x2C SGT PUSH5 0x736F6C6343 STOP ADDMOD SMOD STOP CALLER "
				},
				"gasEstimates": {
					"creation": {
						"codeDepositCost": "1005800",
						"executionCost": "infinite",
						"totalCost": "infinite"
					},
					"external": {
						"DEFAULT_ADMIN_ROLE()": "401",
						"WeirdToken()": "2623",
						"getRoleAdmin(bytes32)": "infinite",
						"grantRole(bytes32,address)": "infinite",
						"hasRole(bytes32,address)": "3184",
						"owner()": "2544",
						"renounceOwnership()": "30374",
						"renounceRole(bytes32,address)": "infinite",
						"revokeRole(bytes32,address)": "infinite",
						"supportsInterface(bytes4)": "728",
						"transferOwnership(address)": "30833"
					}
				},
				"methodIdentifiers": {
					"DEFAULT_ADMIN_ROLE()": "a217fddf",
					"WeirdToken()": "153252ec",
					"getRoleAdmin(bytes32)": "248a9ca3",
					"grantRole(bytes32,address)": "2f2ff15d",
					"hasRole(bytes32,address)": "91d14854",
					"owner()": "8da5cb5b",
					"renounceOwnership()": "715018a6",
					"renounceRole(bytes32,address)": "36568abe",
					"revokeRole(bytes32,address)": "d547741f",
					"supportsInterface(bytes4)": "01ffc9a7",
					"transferOwnership(address)": "f2fde38b"
				}
			},
			"userdoc": {
				"kind": "user",
				"methods": {},
				"version": 1
			}
		}
	}
}