{
	"data": {
		"bytecode": {
			"linkReferences": {},
			"object": "608060405273cb8bcdb991b45bf5d78000a0b5c0a6686ce43790600260006101000a81548173ffffffffffffffffffffffffffffffffffffffff021916908373ffffffffffffffffffffffffffffffffffffffff1602179055507330de7ac05a0bc2417313b4bc6d0cfa874084be0e600360006101000a81548173ffffffffffffffffffffffffffffffffffffffff021916908373ffffffffffffffffffffffffffffffffffffffff160217905550348015620000bb57600080fd5b5060405162002a0138038062002a018339818101604052810190620000e1919062000497565b62000101620000f56200016960201b60201c565b6200017160201b60201c565b620001166000801b336200023560201b60201c565b620001487f352d05fe3946dbe49277552ba941e744d5a96d9c60bc1ba0ea5f1d3ae000f7c8846200023560201b60201c565b62000159826200024b60201b60201c565b80600681905550505050620005ed565b600033905090565b60008060009054906101000a900473ffffffffffffffffffffffffffffffffffffffff169050816000806101000a81548173ffffffffffffffffffffffffffffffffffffffff021916908373ffffffffffffffffffffffffffffffffffffffff1602179055508173ffffffffffffffffffffffffffffffffffffffff168173ffffffffffffffffffffffffffffffffffffffff167f8be0079c531659141344cd1fd0a4f28419497f9722a3daafe3b4186f6b6457e060405160405180910390a35050565b620002478282620002e460201b60201c565b5050565b6200025b6200016960201b60201c565b73ffffffffffffffffffffffffffffffffffffffff1662000281620003d560201b60201c565b73ffffffffffffffffffffffffffffffffffffffff1614620002da576040517f08c379a0000000000000000000000000000000000000000000000000000000008152600401620002d1906200051a565b60405180910390fd5b8060058190555050565b620002f68282620003fe60201b60201c565b620003d157600180600084815260200190815260200160002060000160008373ffffffffffffffffffffffffffffffffffffffff1673ffffffffffffffffffffffffffffffffffffffff16815260200190815260200160002060006101000a81548160ff021916908315150217905550620003766200016960201b60201c565b73ffffffffffffffffffffffffffffffffffffffff168173ffffffffffffffffffffffffffffffffffffffff16837f2f8788117e7eff1d82e926ec794901d17c78024a50270940304540a733656f0d60405160405180910390a45b5050565b60008060009054906101000a900473ffffffffffffffffffffffffffffffffffffffff16905090565b60006001600084815260200190815260200160002060000160008373ffffffffffffffffffffffffffffffffffffffff1673ffffffffffffffffffffffffffffffffffffffff16815260200190815260200160002060009054906101000a900460ff16905092915050565b6000815190506200047a81620005b9565b92915050565b6000815190506200049181620005d3565b92915050565b600080600060608486031215620004b357620004b26200058b565b5b6000620004c38682870162000469565b9350506020620004d68682870162000480565b9250506040620004e98682870162000480565b9150509250925092565b6000620005026020836200053c565b91506200050f8262000590565b602082019050919050565b600060208201905081810360008301526200053581620004f3565b9050919050565b600082825260208201905092915050565b60006200055a8262000561565b9050919050565b600073ffffffffffffffffffffffffffffffffffffffff82169050919050565b6000819050919050565b600080fd5b7f4f776e61626c653a2063616c6c6572206973206e6f7420746865206f776e6572600082015250565b620005c4816200054d565b8114620005d057600080fd5b50565b620005de8162000581565b8114620005ea57600080fd5b50565b61240480620005fd6000396000f3fe608060405234801561001057600080fd5b50600436106101425760003560e01c8063715018a6116100b857806392c368411161007c57806392c3684114610351578063a217fddf1461036f578063b713f8cf1461038d578063cacf66ab146103a9578063d547741f146103c7578063f2fde38b146103e357610142565b8063715018a6146102bf57806383f96abf146102c95780638d8f2adb146102f95780638da5cb5b1461030357806391d148541461032157610142565b806338013f021161010a57806338013f02146101fd5780633d3728b51461021b5780634d8d9e921461024b5780634e71d92d146102695780635046bd3e1461027357806352049ace1461028f57610142565b806301ffc9a714610147578063153252ec14610177578063248a9ca3146101955780632f2ff15d146101c557806336568abe146101e1575b600080fd5b610161600480360381019061015c9190611a3e565b6103ff565b60405161016e9190611cfc565b60405180910390f35b61017f610479565b60405161018c9190611d32565b60405180910390f35b6101af60048036038101906101aa91906119d1565b61049f565b6040516101bc9190611d17565b60405180910390f35b6101df60048036038101906101da91906119fe565b6104bf565b005b6101fb60048036038101906101f691906119fe565b6104e0565b005b610205610563565b6040516102129190611d17565b60405180910390f35b61023560048036038101906102309190611a6b565b610587565b6040516102429190611e2a565b60405180910390f35b6102536105af565b6040516102609190611e2a565b60405180910390f35b6102716105b5565b005b61028d600480360381019061028891906118b6565b6108e3565b005b6102a960048036038101906102a49190611a6b565b610b15565b6040516102b69190611e2a565b60405180910390f35b6102c7610b2d565b005b6102e360048036038101906102de9190611912565b610bb5565b6040516102f09190611e2a565b60405180910390f35b610301610c4a565b005b61030b610e28565b6040516103189190611cb8565b60405180910390f35b61033b600480360381019061033691906119fe565b610e51565b6040516103489190611cfc565b60405180910390f35b610359610ebc565b6040516103669190611d4d565b60405180910390f35b610377610ee2565b6040516103849190611d17565b60405180910390f35b6103a760048036038101906103a29190611a6b565b610ee9565b005b6103b1610f6f565b6040516103be9190611e2a565b60405180910390f35b6103e160048036038101906103dc91906119fe565b610f75565b005b6103fd60048036038101906103f89190611889565b610f96565b005b60007f7965db0b000000000000000000000000000000000000000000000000000000007bffffffffffffffffffffffffffffffffffffffffffffffffffffffff1916827bffffffffffffffffffffffffffffffffffffffffffffffffffffffff1916148061047257506104718261108e565b5b9050919050565b600260009054906101000a900473ffffffffffffffffffffffffffffffffffffffff1681565b600060016000838152602001908152602001600020600101549050919050565b6104c88261049f565b6104d1816110f8565b6104db838361110c565b505050565b6104e86111ec565b73ffffffffffffffffffffffffffffffffffffffff168173ffffffffffffffffffffffffffffffffffffffff1614610555576040517f08c379a000000000000000000000000000000000000000000000000000000000815260040161054c90611e0a565b60405180910390fd5b61055f82826111f4565b5050565b7f352d05fe3946dbe49277552ba941e744d5a96d9c60bc1ba0ea5f1d3ae000f7c881565b60006105a860046000848152602001908152602001600020546006546112d6565b9050919050565b60055481565b6000600360009054906101000a900473ffffffffffffffffffffffffffffffffffffffff1673ffffffffffffffffffffffffffffffffffffffff1663438b6300336040518263ffffffff1660e01b81526004016106129190611cb8565b60006040518083038186803b15801561062a57600080fd5b505afa15801561063e573d6000803e3d6000fd5b505050506040513d6000823e3d601f19601f82011682018060405250810190610667919061195b565b90506000805b825181101561070a57600083828151811061068b5761068a61216d565b5b6020026020010151905060006106a082610587565b90506106db6106cc6005546106be84426112f090919063ffffffff16565b61130690919063ffffffff16565b8561131c90919063ffffffff16565b935042600460008481526020019081526020016000208190555050508080610702906120f5565b91505061066d565b5080600260009054906101000a900473ffffffffffffffffffffffffffffffffffffffff1673ffffffffffffffffffffffffffffffffffffffff166370a08231306040518263ffffffff1660e01b81526004016107679190611cb8565b60206040518083038186803b15801561077f57600080fd5b505afa158015610793573d6000803e3d6000fd5b505050506040513d601f19601f820116820180604052508101906107b79190611a98565b10156107f8576040517f08c379a00000000000000000000000000000000000000000000000000000000081526004016107ef90611dca565b60405180910390fd5b600260009054906101000a900473ffffffffffffffffffffffffffffffffffffffff1673ffffffffffffffffffffffffffffffffffffffff1663a9059cbb33836040518363ffffffff1660e01b8152600401610855929190611cd3565b602060405180830381600087803b15801561086f57600080fd5b505af1158015610883573d6000803e3d6000fd5b505050506040513d601f19601f820116820180604052508101906108a791906119a4565b507f3f2309cbf5605da9b681a3bc3b9880601cee1dae74a5509d471b761354dafcbd336040516108d79190611cb8565b60405180910390a15050565b7f352d05fe3946dbe49277552ba941e744d5a96d9c60bc1ba0ea5f1d3ae000f7c861090d816110f8565b60005b825181101561096457600083828151811061092e5761092d61216d565b5b6020026020010151905042600460008381526020019081526020016000208190555050808061095c906120f5565b915050610910565b50600061097083610bb5565b905080600260009054906101000a900473ffffffffffffffffffffffffffffffffffffffff1673ffffffffffffffffffffffffffffffffffffffff166370a08231306040518263ffffffff1660e01b81526004016109ce9190611cb8565b60206040518083038186803b1580156109e657600080fd5b505afa1580156109fa573d6000803e3d6000fd5b505050506040513d601f19601f82011682018060405250810190610a1e9190611a98565b1015610a5f576040517f08c379a0000000000000000000000000000000000000000000000000000000008152600401610a5690611dca565b60405180910390fd5b600260009054906101000a900473ffffffffffffffffffffffffffffffffffffffff1673ffffffffffffffffffffffffffffffffffffffff1663a9059cbb85836040518363ffffffff1660e01b8152600401610abc929190611cd3565b602060405180830381600087803b158015610ad657600080fd5b505af1158015610aea573d6000803e3d6000fd5b505050506040513d601f19601f82011682018060405250810190610b0e91906119a4565b5050505050565b60046020528060005260406000206000915090505481565b610b356111ec565b73ffffffffffffffffffffffffffffffffffffffff16610b53610e28565b73ffffffffffffffffffffffffffffffffffffffff1614610ba9576040517f08c379a0000000000000000000000000000000000000000000000000000000008152600401610ba090611dea565b60405180910390fd5b610bb36000611332565b565b60008060005b8351811015610c40576000848281518110610bd957610bd861216d565b5b602002602001015190506000610bee82610587565b9050610c29610c1a600554610c0c84426112f090919063ffffffff16565b61130690919063ffffffff16565b8561131c90919063ffffffff16565b935050508080610c38906120f5565b915050610bbb565b5080915050919050565b610c526111ec565b73ffffffffffffffffffffffffffffffffffffffff16610c70610e28565b73ffffffffffffffffffffffffffffffffffffffff1614610cc6576040517f08c379a0000000000000000000000000000000000000000000000000000000008152600401610cbd90611dea565b60405180910390fd5b6000600260009054906101000a900473ffffffffffffffffffffffffffffffffffffffff1673ffffffffffffffffffffffffffffffffffffffff166370a08231306040518263ffffffff1660e01b8152600401610d239190611cb8565b60206040518083038186803b158015610d3b57600080fd5b505afa158015610d4f573d6000803e3d6000fd5b505050506040513d601f19601f82011682018060405250810190610d739190611a98565b9050600260009054906101000a900473ffffffffffffffffffffffffffffffffffffffff1673ffffffffffffffffffffffffffffffffffffffff1663a9059cbb33836040518363ffffffff1660e01b8152600401610dd2929190611cd3565b602060405180830381600087803b158015610dec57600080fd5b505af1158015610e00573d6000803e3d6000fd5b505050506040513d601f19601f82011682018060405250810190610e2491906119a4565b5050565b60008060009054906101000a900473ffffffffffffffffffffffffffffffffffffffff16905090565b60006001600084815260200190815260200160002060000160008373ffffffffffffffffffffffffffffffffffffffff1673ffffffffffffffffffffffffffffffffffffffff16815260200190815260200160002060009054906101000a900460ff16905092915050565b600360009054906101000a900473ffffffffffffffffffffffffffffffffffffffff1681565b6000801b81565b610ef16111ec565b73ffffffffffffffffffffffffffffffffffffffff16610f0f610e28565b73ffffffffffffffffffffffffffffffffffffffff1614610f65576040517f08c379a0000000000000000000000000000000000000000000000000000000008152600401610f5c90611dea565b60405180910390fd5b8060058190555050565b60065481565b610f7e8261049f565b610f87816110f8565b610f9183836111f4565b505050565b610f9e6111ec565b73ffffffffffffffffffffffffffffffffffffffff16610fbc610e28565b73ffffffffffffffffffffffffffffffffffffffff1614611012576040517f08c379a000000000000000000000000000000000000000000000000000000000815260040161100990611dea565b60405180910390fd5b600073ffffffffffffffffffffffffffffffffffffffff168173ffffffffffffffffffffffffffffffffffffffff161415611082576040517f08c379a000000000000000000000000000000000000000000000000000000000815260040161107990611daa565b60405180910390fd5b61108b81611332565b50565b60007f01ffc9a7000000000000000000000000000000000000000000000000000000007bffffffffffffffffffffffffffffffffffffffffffffffffffffffff1916827bffffffffffffffffffffffffffffffffffffffffffffffffffffffff1916149050919050565b611109816111046111ec565b6113f6565b50565b6111168282610e51565b6111e857600180600084815260200190815260200160002060000160008373ffffffffffffffffffffffffffffffffffffffff1673ffffffffffffffffffffffffffffffffffffffff16815260200190815260200160002060006101000a81548160ff02191690831515021790555061118d6111ec565b73ffffffffffffffffffffffffffffffffffffffff168173ffffffffffffffffffffffffffffffffffffffff16837f2f8788117e7eff1d82e926ec794901d17c78024a50270940304540a733656f0d60405160405180910390a45b5050565b600033905090565b6111fe8282610e51565b156112d25760006001600084815260200190815260200160002060000160008373ffffffffffffffffffffffffffffffffffffffff1673ffffffffffffffffffffffffffffffffffffffff16815260200190815260200160002060006101000a81548160ff0219169083151502179055506112776111ec565b73ffffffffffffffffffffffffffffffffffffffff168173ffffffffffffffffffffffffffffffffffffffff16837ff6391f5c32d9c69d2a47ea670b442974b53935d1edc7fd64eb21e047a839171b60405160405180910390a45b5050565b6000818310156112e657816112e8565b825b905092915050565b600081836112fe9190611f6d565b905092915050565b600081836113149190611f13565b905092915050565b6000818361132a9190611ebd565b905092915050565b60008060009054906101000a900473ffffffffffffffffffffffffffffffffffffffff169050816000806101000a81548173ffffffffffffffffffffffffffffffffffffffff021916908373ffffffffffffffffffffffffffffffffffffffff1602179055508173ffffffffffffffffffffffffffffffffffffffff168173ffffffffffffffffffffffffffffffffffffffff167f8be0079c531659141344cd1fd0a4f28419497f9722a3daafe3b4186f6b6457e060405160405180910390a35050565b6114008282610e51565b61148f576114258173ffffffffffffffffffffffffffffffffffffffff166014611493565b6114338360001c6020611493565b604051602001611444929190611c7e565b6040516020818303038152906040526040517f08c379a00000000000000000000000000000000000000000000000000000000081526004016114869190611d68565b60405180910390fd5b5050565b6060600060028360026114a69190611f13565b6114b09190611ebd565b67ffffffffffffffff8111156114c9576114c861219c565b5b6040519080825280601f01601f1916602001820160405280156114fb5781602001600182028036833780820191505090505b5090507f3000000000000000000000000000000000000000000000000000000000000000816000815181106115335761153261216d565b5b60200101907effffffffffffffffffffffffffffffffffffffffffffffffffffffffffffff1916908160001a9053507f7800000000000000000000000000000000000000000000000000000000000000816001815181106115975761159661216d565b5b60200101907effffffffffffffffffffffffffffffffffffffffffffffffffffffffffffff1916908160001a905350600060018460026115d79190611f13565b6115e19190611ebd565b90505b6001811115611681577f3031323334353637383961626364656600000000000000000000000000000000600f8616601081106116235761162261216d565b5b1a60f81b82828151811061163a5761163961216d565b5b60200101907effffffffffffffffffffffffffffffffffffffffffffffffffffffffffffff1916908160001a905350600485901c94508061167a9061209a565b90506115e4565b50600084146116c5576040517f08c379a00000000000000000000000000000000000000000000000000000000081526004016116bc90611d8a565b60405180910390fd5b8091505092915050565b60006116e26116dd84611e6a565b611e45565b90508083825260208201905082856020860282011115611705576117046121d0565b5b60005b85811015611735578161171b888261185f565b845260208401935060208301925050600181019050611708565b5050509392505050565b600061175261174d84611e6a565b611e45565b90508083825260208201905082856020860282011115611775576117746121d0565b5b60005b858110156117a5578161178b8882611874565b845260208401935060208301925050600181019050611778565b5050509392505050565b6000813590506117be8161235b565b92915050565b600082601f8301126117d9576117d86121cb565b5b81356117e98482602086016116cf565b91505092915050565b600082601f830112611807576118066121cb565b5b815161181784826020860161173f565b91505092915050565b60008151905061182f81612372565b92915050565b60008135905061184481612389565b92915050565b600081359050611859816123a0565b92915050565b60008135905061186e816123b7565b92915050565b600081519050611883816123b7565b92915050565b60006020828403121561189f5761189e6121da565b5b60006118ad848285016117af565b91505092915050565b600080604083850312156118cd576118cc6121da565b5b60006118db858286016117af565b925050602083013567ffffffffffffffff8111156118fc576118fb6121d5565b5b611908858286016117c4565b9150509250929050565b600060208284031215611928576119276121da565b5b600082013567ffffffffffffffff811115611946576119456121d5565b5b611952848285016117c4565b91505092915050565b600060208284031215611971576119706121da565b5b600082015167ffffffffffffffff81111561198f5761198e6121d5565b5b61199b848285016117f2565b91505092915050565b6000602082840312156119ba576119b96121da565b5b60006119c884828501611820565b91505092915050565b6000602082840312156119e7576119e66121da565b5b60006119f584828501611835565b91505092915050565b60008060408385031215611a1557611a146121da565b5b6000611a2385828601611835565b9250506020611a34858286016117af565b9150509250929050565b600060208284031215611a5457611a536121da565b5b6000611a628482850161184a565b91505092915050565b600060208284031215611a8157611a806121da565b5b6000611a8f8482850161185f565b91505092915050565b600060208284031215611aae57611aad6121da565b5b6000611abc84828501611874565b91505092915050565b611ace81611fa1565b82525050565b611add81611fb3565b82525050565b611aec81611fbf565b82525050565b611afb8161201f565b82525050565b611b0a81612031565b82525050565b6000611b1b82611e96565b611b258185611ea1565b9350611b35818560208601612067565b611b3e816121df565b840191505092915050565b6000611b5482611e96565b611b5e8185611eb2565b9350611b6e818560208601612067565b80840191505092915050565b6000611b87602083611ea1565b9150611b92826121f0565b602082019050919050565b6000611baa602683611ea1565b9150611bb582612219565b604082019050919050565b6000611bcd601e83611ea1565b9150611bd882612268565b602082019050919050565b6000611bf0602083611ea1565b9150611bfb82612291565b602082019050919050565b6000611c13601783611eb2565b9150611c1e826122ba565b601782019050919050565b6000611c36601183611eb2565b9150611c41826122e3565b601182019050919050565b6000611c59602f83611ea1565b9150611c648261230c565b604082019050919050565b611c7881612015565b82525050565b6000611c8982611c06565b9150611c958285611b49565b9150611ca082611c29565b9150611cac8284611b49565b91508190509392505050565b6000602082019050611ccd6000830184611ac5565b92915050565b6000604082019050611ce86000830185611ac5565b611cf56020830184611c6f565b9392505050565b6000602082019050611d116000830184611ad4565b92915050565b6000602082019050611d2c6000830184611ae3565b92915050565b6000602082019050611d476000830184611af2565b92915050565b6000602082019050611d626000830184611b01565b92915050565b60006020820190508181036000830152611d828184611b10565b905092915050565b60006020820190508181036000830152611da381611b7a565b9050919050565b60006020820190508181036000830152611dc381611b9d565b9050919050565b60006020820190508181036000830152611de381611bc0565b9050919050565b60006020820190508181036000830152611e0381611be3565b9050919050565b60006020820190508181036000830152611e2381611c4c565b9050919050565b6000602082019050611e3f6000830184611c6f565b92915050565b6000611e4f611e60565b9050611e5b82826120c4565b919050565b6000604051905090565b600067ffffffffffffffff821115611e8557611e8461219c565b5b602082029050602081019050919050565b600081519050919050565b600082825260208201905092915050565b600081905092915050565b6000611ec882612015565b9150611ed383612015565b9250827fffffffffffffffffffffffffffffffffffffffffffffffffffffffffffffffff03821115611f0857611f0761213e565b5b828201905092915050565b6000611f1e82612015565b9150611f2983612015565b9250817fffffffffffffffffffffffffffffffffffffffffffffffffffffffffffffffff0483118215151615611f6257611f6161213e565b5b828202905092915050565b6000611f7882612015565b9150611f8383612015565b925082821015611f9657611f9561213e565b5b828203905092915050565b6000611fac82611ff5565b9050919050565b60008115159050919050565b6000819050919050565b60007fffffffff0000000000000000000000000000000000000000000000000000000082169050919050565b600073ffffffffffffffffffffffffffffffffffffffff82169050919050565b6000819050919050565b600061202a82612043565b9050919050565b600061203c82612043565b9050919050565b600061204e82612055565b9050919050565b600061206082611ff5565b9050919050565b60005b8381101561208557808201518184015260208101905061206a565b83811115612094576000848401525b50505050565b60006120a582612015565b915060008214156120b9576120b861213e565b5b600182039050919050565b6120cd826121df565b810181811067ffffffffffffffff821117156120ec576120eb61219c565b5b80604052505050565b600061210082612015565b91507fffffffffffffffffffffffffffffffffffffffffffffffffffffffffffffffff8214156121335761213261213e565b5b600182019050919050565b7f4e487b7100000000000000000000000000000000000000000000000000000000600052601160045260246000fd5b7f4e487b7100000000000000000000000000000000000000000000000000000000600052603260045260246000fd5b7f4e487b7100000000000000000000000000000000000000000000000000000000600052604160045260246000fd5b600080fd5b600080fd5b600080fd5b600080fd5b6000601f19601f8301169050919050565b7f537472696e67733a20686578206c656e67746820696e73756666696369656e74600082015250565b7f4f776e61626c653a206e6577206f776e657220697320746865207a65726f206160008201527f6464726573730000000000000000000000000000000000000000000000000000602082015250565b7f4e6f7420656e6f75676820746f6b656e7320696e20636f6e74726163742e0000600082015250565b7f4f776e61626c653a2063616c6c6572206973206e6f7420746865206f776e6572600082015250565b7f416363657373436f6e74726f6c3a206163636f756e7420000000000000000000600082015250565b7f206973206d697373696e6720726f6c6520000000000000000000000000000000600082015250565b7f416363657373436f6e74726f6c3a2063616e206f6e6c792072656e6f756e636560008201527f20726f6c657320666f722073656c660000000000000000000000000000000000602082015250565b61236481611fa1565b811461236f57600080fd5b50565b61237b81611fb3565b811461238657600080fd5b50565b61239281611fbf565b811461239d57600080fd5b50565b6123a981611fc9565b81146123b457600080fd5b50565b6123c081612015565b81146123cb57600080fd5b5056fea2646970667358221220048aeebf2f6fc4b06f18dc115435d7fb653c2e501467e0a8cc80c5c125d5ab1564736f6c63430008070033",
			"opcodes": "PUSH1 0x80 PUSH1 0x40 MSTORE PUSH20 0xCB8BCDB991B45BF5D78000A0B5C0A6686CE43790 PUSH1 0x2 PUSH1 0x0 PUSH2 0x100 EXP DUP2 SLOAD DUP2 PUSH20 0xFFFFFFFFFFFFFFFFFFFFFFFFFFFFFFFFFFFFFFFF MUL NOT AND SWAP1 DUP4 PUSH20 0xFFFFFFFFFFFFFFFFFFFFFFFFFFFFFFFFFFFFFFFF AND MUL OR SWAP1 SSTORE POP PUSH20 0x30DE7AC05A0BC2417313B4BC6D0CFA874084BE0E PUSH1 0x3 PUSH1 0x0 PUSH2 0x100 EXP DUP2 SLOAD DUP2 PUSH20 0xFFFFFFFFFFFFFFFFFFFFFFFFFFFFFFFFFFFFFFFF MUL NOT AND SWAP1 DUP4 PUSH20 0xFFFFFFFFFFFFFFFFFFFFFFFFFFFFFFFFFFFFFFFF AND MUL OR SWAP1 SSTORE POP CALLVALUE DUP1 ISZERO PUSH3 0xBB JUMPI PUSH1 0x0 DUP1 REVERT JUMPDEST POP PUSH1 0x40 MLOAD PUSH3 0x2A01 CODESIZE SUB DUP1 PUSH3 0x2A01 DUP4 CODECOPY DUP2 DUP2 ADD PUSH1 0x40 MSTORE DUP2 ADD SWAP1 PUSH3 0xE1 SWAP2 SWAP1 PUSH3 0x497 JUMP JUMPDEST PUSH3 0x101 PUSH3 0xF5 PUSH3 0x169 PUSH1 0x20 SHL PUSH1 0x20 SHR JUMP JUMPDEST PUSH3 0x171 PUSH1 0x20 SHL PUSH1 0x20 SHR JUMP JUMPDEST PUSH3 0x116 PUSH1 0x0 DUP1 SHL CALLER PUSH3 0x235 PUSH1 0x20 SHL PUSH1 0x20 SHR JUMP JUMPDEST PUSH3 0x148 PUSH32 0x352D05FE3946DBE49277552BA941E744D5A96D9C60BC1BA0EA5F1D3AE000F7C8 DUP5 PUSH3 0x235 PUSH1 0x20 SHL PUSH1 0x20 SHR JUMP JUMPDEST PUSH3 0x159 DUP3 PUSH3 0x24B PUSH1 0x20 SHL PUSH1 0x20 SHR JUMP JUMPDEST DUP1 PUSH1 0x6 DUP2 SWAP1 SSTORE POP POP POP POP PUSH3 0x5ED JUMP JUMPDEST PUSH1 0x0 CALLER SWAP1 POP SWAP1 JUMP JUMPDEST PUSH1 0x0 DUP1 PUSH1 0x0 SWAP1 SLOAD SWAP1 PUSH2 0x100 EXP SWAP1 DIV PUSH20 0xFFFFFFFFFFFFFFFFFFFFFFFFFFFFFFFFFFFFFFFF AND SWAP1 POP DUP2 PUSH1 0x0 DUP1 PUSH2 0x100 EXP DUP2 SLOAD DUP2 PUSH20 0xFFFFFFFFFFFFFFFFFFFFFFFFFFFFFFFFFFFFFFFF MUL NOT AND SWAP1 DUP4 PUSH20 0xFFFFFFFFFFFFFFFFFFFFFFFFFFFFFFFFFFFFFFFF AND MUL OR SWAP1 SSTORE POP DUP2 PUSH20 0xFFFFFFFFFFFFFFFFFFFFFFFFFFFFFFFFFFFFFFFF AND DUP2 PUSH20 0xFFFFFFFFFFFFFFFFFFFFFFFFFFFFFFFFFFFFFFFF AND PUSH32 0x8BE0079C531659141344CD1FD0A4F28419497F9722A3DAAFE3B4186F6B6457E0 PUSH1 0x40 MLOAD PUSH1 0x40 MLOAD DUP1 SWAP2 SUB SWAP1 LOG3 POP POP JUMP JUMPDEST PUSH3 0x247 DUP3 DUP3 PUSH3 0x2E4 PUSH1 0x20 SHL PUSH1 0x20 SHR JUMP JUMPDEST POP POP JUMP JUMPDEST PUSH3 0x25B PUSH3 0x169 PUSH1 0x20 SHL PUSH1 0x20 SHR JUMP JUMPDEST PUSH20 0xFFFFFFFFFFFFFFFFFFFFFFFFFFFFFFFFFFFFFFFF AND PUSH3 0x281 PUSH3 0x3D5 PUSH1 0x20 SHL PUSH1 0x20 SHR JUMP JUMPDEST PUSH20 0xFFFFFFFFFFFFFFFFFFFFFFFFFFFFFFFFFFFFFFFF AND EQ PUSH3 0x2DA JUMPI PUSH1 0x40 MLOAD PUSH32 0x8C379A000000000000000000000000000000000000000000000000000000000 DUP2 MSTORE PUSH1 0x4 ADD PUSH3 0x2D1 SWAP1 PUSH3 0x51A JUMP JUMPDEST PUSH1 0x40 MLOAD DUP1 SWAP2 SUB SWAP1 REVERT JUMPDEST DUP1 PUSH1 0x5 DUP2 SWAP1 SSTORE POP POP JUMP JUMPDEST PUSH3 0x2F6 DUP3 DUP3 PUSH3 0x3FE PUSH1 0x20 SHL PUSH1 0x20 SHR JUMP JUMPDEST PUSH3 0x3D1 JUMPI PUSH1 0x1 DUP1 PUSH1 0x0 DUP5 DUP2 MSTORE PUSH1 0x20 ADD SWAP1 DUP2 MSTORE PUSH1 0x20 ADD PUSH1 0x0 KECCAK256 PUSH1 0x0 ADD PUSH1 0x0 DUP4 PUSH20 0xFFFFFFFFFFFFFFFFFFFFFFFFFFFFFFFFFFFFFFFF AND PUSH20 0xFFFFFFFFFFFFFFFFFFFFFFFFFFFFFFFFFFFFFFFF AND DUP2 MSTORE PUSH1 0x20 ADD SWAP1 DUP2 MSTORE PUSH1 0x20 ADD PUSH1 0x0 KECCAK256 PUSH1 0x0 PUSH2 0x100 EXP DUP2 SLOAD DUP2 PUSH1 0xFF MUL NOT AND SWAP1 DUP4 ISZERO ISZERO MUL OR SWAP1 SSTORE POP PUSH3 0x376 PUSH3 0x169 PUSH1 0x20 SHL PUSH1 0x20 SHR JUMP JUMPDEST PUSH20 0xFFFFFFFFFFFFFFFFFFFFFFFFFFFFFFFFFFFFFFFF AND DUP2 PUSH20 0xFFFFFFFFFFFFFFFFFFFFFFFFFFFFFFFFFFFFFFFF AND DUP4 PUSH32 0x2F8788117E7EFF1D82E926EC794901D17C78024A50270940304540A733656F0D PUSH1 0x40 MLOAD PUSH1 0x40 MLOAD DUP1 SWAP2 SUB SWAP1 LOG4 JUMPDEST POP POP JUMP JUMPDEST PUSH1 0x0 DUP1 PUSH1 0x0 SWAP1 SLOAD SWAP1 PUSH2 0x100 EXP SWAP1 DIV PUSH20 0xFFFFFFFFFFFFFFFFFFFFFFFFFFFFFFFFFFFFFFFF AND SWAP1 POP SWAP1 JUMP JUMPDEST PUSH1 0x0 PUSH1 0x1 PUSH1 0x0 DUP5 DUP2 MSTORE PUSH1 0x20 ADD SWAP1 DUP2 MSTORE PUSH1 0x20 ADD PUSH1 0x0 KECCAK256 PUSH1 0x0 ADD PUSH1 0x0 DUP4 PUSH20 0xFFFFFFFFFFFFFFFFFFFFFFFFFFFFFFFFFFFFFFFF AND PUSH20 0xFFFFFFFFFFFFFFFFFFFFFFFFFFFFFFFFFFFFFFFF AND DUP2 MSTORE PUSH1 0x20 ADD SWAP1 DUP2 MSTORE PUSH1 0x20 ADD PUSH1 0x0 KECCAK256 PUSH1 0x0 SWAP1 SLOAD SWAP1 PUSH2 0x100 EXP SWAP1 DIV PUSH1 0xFF AND SWAP1 POP SWAP3 SWAP2 POP POP JUMP JUMPDEST PUSH1 0x0 DUP2 MLOAD SWAP1 POP PUSH3 0x47A DUP2 PUSH3 0x5B9 JUMP JUMPDEST SWAP3 SWAP2 POP POP JUMP JUMPDEST PUSH1 0x0 DUP2 MLOAD SWAP1 POP PUSH3 0x491 DUP2 PUSH3 0x5D3 JUMP JUMPDEST SWAP3 SWAP2 POP POP JUMP JUMPDEST PUSH1 0x0 DUP1 PUSH1 0x0 PUSH1 0x60 DUP5 DUP7 SUB SLT ISZERO PUSH3 0x4B3 JUMPI PUSH3 0x4B2 PUSH3 0x58B JUMP JUMPDEST JUMPDEST PUSH1 0x0 PUSH3 0x4C3 DUP7 DUP3 DUP8 ADD PUSH3 0x469 JUMP JUMPDEST SWAP4 POP POP PUSH1 0x20 PUSH3 0x4D6 DUP7 DUP3 DUP8 ADD PUSH3 0x480 JUMP JUMPDEST SWAP3 POP POP PUSH1 0x40 PUSH3 0x4E9 DUP7 DUP3 DUP8 ADD PUSH3 0x480 JUMP JUMPDEST SWAP2 POP POP SWAP3 POP SWAP3 POP SWAP3 JUMP JUMPDEST PUSH1 0x0 PUSH3 0x502 PUSH1 0x20 DUP4 PUSH3 0x53C JUMP JUMPDEST SWAP2 POP PUSH3 0x50F DUP3 PUSH3 0x590 JUMP JUMPDEST PUSH1 0x20 DUP3 ADD SWAP1 POP SWAP2 SWAP1 POP JUMP JUMPDEST PUSH1 0x0 PUSH1 0x20 DUP3 ADD SWAP1 POP DUP2 DUP2 SUB PUSH1 0x0 DUP4 ADD MSTORE PUSH3 0x535 DUP2 PUSH3 0x4F3 JUMP JUMPDEST SWAP1 POP SWAP2 SWAP1 POP JUMP JUMPDEST PUSH1 0x0 DUP3 DUP3 MSTORE PUSH1 0x20 DUP3 ADD SWAP1 POP SWAP3 SWAP2 POP POP JUMP JUMPDEST PUSH1 0x0 PUSH3 0x55A DUP3 PUSH3 0x561 JUMP JUMPDEST SWAP1 POP SWAP2 SWAP1 POP JUMP JUMPDEST PUSH1 0x0 PUSH20 0xFFFFFFFFFFFFFFFFFFFFFFFFFFFFFFFFFFFFFFFF DUP3 AND SWAP1 POP SWAP2 SWAP1 POP JUMP JUMPDEST PUSH1 0x0 DUP2 SWAP1 POP SWAP2 SWAP1 POP JUMP JUMPDEST PUSH1 0x0 DUP1 REVERT JUMPDEST PUSH32 0x4F776E61626C653A2063616C6C6572206973206E6F7420746865206F776E6572 PUSH1 0x0 DUP3 ADD MSTORE POP JUMP JUMPDEST PUSH3 0x5C4 DUP2 PUSH3 0x54D JUMP JUMPDEST DUP2 EQ PUSH3 0x5D0 JUMPI PUSH1 0x0 DUP1 REVERT JUMPDEST POP JUMP JUMPDEST PUSH3 0x5DE DUP2 PUSH3 0x581 JUMP JUMPDEST DUP2 EQ PUSH3 0x5EA JUMPI PUSH1 0x0 DUP1 REVERT JUMPDEST POP JUMP JUMPDEST PUSH2 0x2404 DUP1 PUSH3 0x5FD PUSH1 0x0 CODECOPY PUSH1 0x0 RETURN INVALID PUSH1 0x80 PUSH1 0x40 MSTORE CALLVALUE DUP1 ISZERO PUSH2 0x10 JUMPI PUSH1 0x0 DUP1 REVERT JUMPDEST POP PUSH1 0x4 CALLDATASIZE LT PUSH2 0x142 JUMPI PUSH1 0x0 CALLDATALOAD PUSH1 0xE0 SHR DUP1 PUSH4 0x715018A6 GT PUSH2 0xB8 JUMPI DUP1 PUSH4 0x92C36841 GT PUSH2 0x7C JUMPI DUP1 PUSH4 0x92C36841 EQ PUSH2 0x351 JUMPI DUP1 PUSH4 0xA217FDDF EQ PUSH2 0x36F JUMPI DUP1 PUSH4 0xB713F8CF EQ PUSH2 0x38D JUMPI DUP1 PUSH4 0xCACF66AB EQ PUSH2 0x3A9 JUMPI DUP1 PUSH4 0xD547741F EQ PUSH2 0x3C7 JUMPI DUP1 PUSH4 0xF2FDE38B EQ PUSH2 0x3E3 JUMPI PUSH2 0x142 JUMP JUMPDEST DUP1 PUSH4 0x715018A6 EQ PUSH2 0x2BF JUMPI DUP1 PUSH4 0x83F96ABF EQ PUSH2 0x2C9 JUMPI DUP1 PUSH4 0x8D8F2ADB EQ PUSH2 0x2F9 JUMPI DUP1 PUSH4 0x8DA5CB5B EQ PUSH2 0x303 JUMPI DUP1 PUSH4 0x91D14854 EQ PUSH2 0x321 JUMPI PUSH2 0x142 JUMP JUMPDEST DUP1 PUSH4 0x38013F02 GT PUSH2 0x10A JUMPI DUP1 PUSH4 0x38013F02 EQ PUSH2 0x1FD JUMPI DUP1 PUSH4 0x3D3728B5 EQ PUSH2 0x21B JUMPI DUP1 PUSH4 0x4D8D9E92 EQ PUSH2 0x24B JUMPI DUP1 PUSH4 0x4E71D92D EQ PUSH2 0x269 JUMPI DUP1 PUSH4 0x5046BD3E EQ PUSH2 0x273 JUMPI DUP1 PUSH4 0x52049ACE EQ PUSH2 0x28F JUMPI PUSH2 0x142 JUMP JUMPDEST DUP1 PUSH4 0x1FFC9A7 EQ PUSH2 0x147 JUMPI DUP1 PUSH4 0x153252EC EQ PUSH2 0x177 JUMPI DUP1 PUSH4 0x248A9CA3 EQ PUSH2 0x195 JUMPI DUP1 PUSH4 0x2F2FF15D EQ PUSH2 0x1C5 JUMPI DUP1 PUSH4 0x36568ABE EQ PUSH2 0x1E1 JUMPI JUMPDEST PUSH1 0x0 DUP1 REVERT JUMPDEST PUSH2 0x161 PUSH1 0x4 DUP1 CALLDATASIZE SUB DUP2 ADD SWAP1 PUSH2 0x15C SWAP2 SWAP1 PUSH2 0x1A3E JUMP JUMPDEST PUSH2 0x3FF JUMP JUMPDEST PUSH1 0x40 MLOAD PUSH2 0x16E SWAP2 SWAP1 PUSH2 0x1CFC JUMP JUMPDEST PUSH1 0x40 MLOAD DUP1 SWAP2 SUB SWAP1 RETURN JUMPDEST PUSH2 0x17F PUSH2 0x479 JUMP JUMPDEST PUSH1 0x40 MLOAD PUSH2 0x18C SWAP2 SWAP1 PUSH2 0x1D32 JUMP JUMPDEST PUSH1 0x40 MLOAD DUP1 SWAP2 SUB SWAP1 RETURN JUMPDEST PUSH2 0x1AF PUSH1 0x4 DUP1 CALLDATASIZE SUB DUP2 ADD SWAP1 PUSH2 0x1AA SWAP2 SWAP1 PUSH2 0x19D1 JUMP JUMPDEST PUSH2 0x49F JUMP JUMPDEST PUSH1 0x40 MLOAD PUSH2 0x1BC SWAP2 SWAP1 PUSH2 0x1D17 JUMP JUMPDEST PUSH1 0x40 MLOAD DUP1 SWAP2 SUB SWAP1 RETURN JUMPDEST PUSH2 0x1DF PUSH1 0x4 DUP1 CALLDATASIZE SUB DUP2 ADD SWAP1 PUSH2 0x1DA SWAP2 SWAP1 PUSH2 0x19FE JUMP JUMPDEST PUSH2 0x4BF JUMP JUMPDEST STOP JUMPDEST PUSH2 0x1FB PUSH1 0x4 DUP1 CALLDATASIZE SUB DUP2 ADD SWAP1 PUSH2 0x1F6 SWAP2 SWAP1 PUSH2 0x19FE JUMP JUMPDEST PUSH2 0x4E0 JUMP JUMPDEST STOP JUMPDEST PUSH2 0x205 PUSH2 0x563 JUMP JUMPDEST PUSH1 0x40 MLOAD PUSH2 0x212 SWAP2 SWAP1 PUSH2 0x1D17 JUMP JUMPDEST PUSH1 0x40 MLOAD DUP1 SWAP2 SUB SWAP1 RETURN JUMPDEST PUSH2 0x235 PUSH1 0x4 DUP1 CALLDATASIZE SUB DUP2 ADD SWAP1 PUSH2 0x230 SWAP2 SWAP1 PUSH2 0x1A6B JUMP JUMPDEST PUSH2 0x587 JUMP JUMPDEST PUSH1 0x40 MLOAD PUSH2 0x242 SWAP2 SWAP1 PUSH2 0x1E2A JUMP JUMPDEST PUSH1 0x40 MLOAD DUP1 SWAP2 SUB SWAP1 RETURN JUMPDEST PUSH2 0x253 PUSH2 0x5AF JUMP JUMPDEST PUSH1 0x40 MLOAD PUSH2 0x260 SWAP2 SWAP1 PUSH2 0x1E2A JUMP JUMPDEST PUSH1 0x40 MLOAD DUP1 SWAP2 SUB SWAP1 RETURN JUMPDEST PUSH2 0x271 PUSH2 0x5B5 JUMP JUMPDEST STOP JUMPDEST PUSH2 0x28D PUSH1 0x4 DUP1 CALLDATASIZE SUB DUP2 ADD SWAP1 PUSH2 0x288 SWAP2 SWAP1 PUSH2 0x18B6 JUMP JUMPDEST PUSH2 0x8E3 JUMP JUMPDEST STOP JUMPDEST PUSH2 0x2A9 PUSH1 0x4 DUP1 CALLDATASIZE SUB DUP2 ADD SWAP1 PUSH2 0x2A4 SWAP2 SWAP1 PUSH2 0x1A6B JUMP JUMPDEST PUSH2 0xB15 JUMP JUMPDEST PUSH1 0x40 MLOAD PUSH2 0x2B6 SWAP2 SWAP1 PUSH2 0x1E2A JUMP JUMPDEST PUSH1 0x40 MLOAD DUP1 SWAP2 SUB SWAP1 RETURN JUMPDEST PUSH2 0x2C7 PUSH2 0xB2D JUMP JUMPDEST STOP JUMPDEST PUSH2 0x2E3 PUSH1 0x4 DUP1 CALLDATASIZE SUB DUP2 ADD SWAP1 PUSH2 0x2DE SWAP2 SWAP1 PUSH2 0x1912 JUMP JUMPDEST PUSH2 0xBB5 JUMP JUMPDEST PUSH1 0x40 MLOAD PUSH2 0x2F0 SWAP2 SWAP1 PUSH2 0x1E2A JUMP JUMPDEST PUSH1 0x40 MLOAD DUP1 SWAP2 SUB SWAP1 RETURN JUMPDEST PUSH2 0x301 PUSH2 0xC4A JUMP JUMPDEST STOP JUMPDEST PUSH2 0x30B PUSH2 0xE28 JUMP JUMPDEST PUSH1 0x40 MLOAD PUSH2 0x318 SWAP2 SWAP1 PUSH2 0x1CB8 JUMP JUMPDEST PUSH1 0x40 MLOAD DUP1 SWAP2 SUB SWAP1 RETURN JUMPDEST PUSH2 0x33B PUSH1 0x4 DUP1 CALLDATASIZE SUB DUP2 ADD SWAP1 PUSH2 0x336 SWAP2 SWAP1 PUSH2 0x19FE JUMP JUMPDEST PUSH2 0xE51 JUMP JUMPDEST PUSH1 0x40 MLOAD PUSH2 0x348 SWAP2 SWAP1 PUSH2 0x1CFC JUMP JUMPDEST PUSH1 0x40 MLOAD DUP1 SWAP2 SUB SWAP1 RETURN JUMPDEST PUSH2 0x359 PUSH2 0xEBC JUMP JUMPDEST PUSH1 0x40 MLOAD PUSH2 0x366 SWAP2 SWAP1 PUSH2 0x1D4D JUMP JUMPDEST PUSH1 0x40 MLOAD DUP1 SWAP2 SUB SWAP1 RETURN JUMPDEST PUSH2 0x377 PUSH2 0xEE2 JUMP JUMPDEST PUSH1 0x40 MLOAD PUSH2 0x384 SWAP2 SWAP1 PUSH2 0x1D17 JUMP JUMPDEST PUSH1 0x40 MLOAD DUP1 SWAP2 SUB SWAP1 RETURN JUMPDEST PUSH2 0x3A7 PUSH1 0x4 DUP1 CALLDATASIZE SUB DUP2 ADD SWAP1 PUSH2 0x3A2 SWAP2 SWAP1 PUSH2 0x1A6B JUMP JUMPDEST PUSH2 0xEE9 JUMP JUMPDEST STOP JUMPDEST PUSH2 0x3B1 PUSH2 0xF6F JUMP JUMPDEST PUSH1 0x40 MLOAD PUSH2 0x3BE SWAP2 SWAP1 PUSH2 0x1E2A JUMP JUMPDEST PUSH1 0x40 MLOAD DUP1 SWAP2 SUB SWAP1 RETURN JUMPDEST PUSH2 0x3E1 PUSH1 0x4 DUP1 CALLDATASIZE SUB DUP2 ADD SWAP1 PUSH2 0x3DC SWAP2 SWAP1 PUSH2 0x19FE JUMP JUMPDEST PUSH2 0xF75 JUMP JUMPDEST STOP JUMPDEST PUSH2 0x3FD PUSH1 0x4 DUP1 CALLDATASIZE SUB DUP2 ADD SWAP1 PUSH2 0x3F8 SWAP2 SWAP1 PUSH2 0x1889 JUMP JUMPDEST PUSH2 0xF96 JUMP JUMPDEST STOP JUMPDEST PUSH1 0x0 PUSH32 0x7965DB0B00000000000000000000000000000000000000000000000000000000 PUSH28 0xFFFFFFFFFFFFFFFFFFFFFFFFFFFFFFFFFFFFFFFFFFFFFFFFFFFFFFFF NOT AND DUP3 PUSH28 0xFFFFFFFFFFFFFFFFFFFFFFFFFFFFFFFFFFFFFFFFFFFFFFFFFFFFFFFF NOT AND EQ DUP1 PUSH2 0x472 JUMPI POP PUSH2 0x471 DUP3 PUSH2 0x108E JUMP JUMPDEST JUMPDEST SWAP1 POP SWAP2 SWAP1 POP JUMP JUMPDEST PUSH1 0x2 PUSH1 0x0 SWAP1 SLOAD SWAP1 PUSH2 0x100 EXP SWAP1 DIV PUSH20 0xFFFFFFFFFFFFFFFFFFFFFFFFFFFFFFFFFFFFFFFF AND DUP2 JUMP JUMPDEST PUSH1 0x0 PUSH1 0x1 PUSH1 0x0 DUP4 DUP2 MSTORE PUSH1 0x20 ADD SWAP1 DUP2 MSTORE PUSH1 0x20 ADD PUSH1 0x0 KECCAK256 PUSH1 0x1 ADD SLOAD SWAP1 POP SWAP2 SWAP1 POP JUMP JUMPDEST PUSH2 0x4C8 DUP3 PUSH2 0x49F JUMP JUMPDEST PUSH2 0x4D1 DUP2 PUSH2 0x10F8 JUMP JUMPDEST PUSH2 0x4DB DUP4 DUP4 PUSH2 0x110C JUMP JUMPDEST POP POP POP JUMP JUMPDEST PUSH2 0x4E8 PUSH2 0x11EC JUMP JUMPDEST PUSH20 0xFFFFFFFFFFFFFFFFFFFFFFFFFFFFFFFFFFFFFFFF AND DUP2 PUSH20 0xFFFFFFFFFFFFFFFFFFFFFFFFFFFFFFFFFFFFFFFF AND EQ PUSH2 0x555 JUMPI PUSH1 0x40 MLOAD PUSH32 0x8C379A000000000000000000000000000000000000000000000000000000000 DUP2 MSTORE PUSH1 0x4 ADD PUSH2 0x54C SWAP1 PUSH2 0x1E0A JUMP JUMPDEST PUSH1 0x40 MLOAD DUP1 SWAP2 SUB SWAP1 REVERT JUMPDEST PUSH2 0x55F DUP3 DUP3 PUSH2 0x11F4 JUMP JUMPDEST POP POP JUMP JUMPDEST PUSH32 0x352D05FE3946DBE49277552BA941E744D5A96D9C60BC1BA0EA5F1D3AE000F7C8 DUP2 JUMP JUMPDEST PUSH1 0x0 PUSH2 0x5A8 PUSH1 0x4 PUSH1 0x0 DUP5 DUP2 MSTORE PUSH1 0x20 ADD SWAP1 DUP2 MSTORE PUSH1 0x20 ADD PUSH1 0x0 KECCAK256 SLOAD PUSH1 0x6 SLOAD PUSH2 0x12D6 JUMP JUMPDEST SWAP1 POP SWAP2 SWAP1 POP JUMP JUMPDEST PUSH1 0x5 SLOAD DUP2 JUMP JUMPDEST PUSH1 0x0 PUSH1 0x3 PUSH1 0x0 SWAP1 SLOAD SWAP1 PUSH2 0x100 EXP SWAP1 DIV PUSH20 0xFFFFFFFFFFFFFFFFFFFFFFFFFFFFFFFFFFFFFFFF AND PUSH20 0xFFFFFFFFFFFFFFFFFFFFFFFFFFFFFFFFFFFFFFFF AND PUSH4 0x438B6300 CALLER PUSH1 0x40 MLOAD DUP3 PUSH4 0xFFFFFFFF AND PUSH1 0xE0 SHL DUP2 MSTORE PUSH1 0x4 ADD PUSH2 0x612 SWAP2 SWAP1 PUSH2 0x1CB8 JUMP JUMPDEST PUSH1 0x0 PUSH1 0x40 MLOAD DUP1 DUP4 SUB DUP2 DUP7 DUP1 EXTCODESIZE ISZERO DUP1 ISZERO PUSH2 0x62A JUMPI PUSH1 0x0 DUP1 REVERT JUMPDEST POP GAS STATICCALL ISZERO DUP1 ISZERO PUSH2 0x63E JUMPI RETURNDATASIZE PUSH1 0x0 DUP1 RETURNDATACOPY RETURNDATASIZE PUSH1 0x0 REVERT JUMPDEST POP POP POP POP PUSH1 0x40 MLOAD RETURNDATASIZE PUSH1 0x0 DUP3 RETURNDATACOPY RETURNDATASIZE PUSH1 0x1F NOT PUSH1 0x1F DUP3 ADD AND DUP3 ADD DUP1 PUSH1 0x40 MSTORE POP DUP2 ADD SWAP1 PUSH2 0x667 SWAP2 SWAP1 PUSH2 0x195B JUMP JUMPDEST SWAP1 POP PUSH1 0x0 DUP1 JUMPDEST DUP3 MLOAD DUP2 LT ISZERO PUSH2 0x70A JUMPI PUSH1 0x0 DUP4 DUP3 DUP2 MLOAD DUP2 LT PUSH2 0x68B JUMPI PUSH2 0x68A PUSH2 0x216D JUMP JUMPDEST JUMPDEST PUSH1 0x20 MUL PUSH1 0x20 ADD ADD MLOAD SWAP1 POP PUSH1 0x0 PUSH2 0x6A0 DUP3 PUSH2 0x587 JUMP JUMPDEST SWAP1 POP PUSH2 0x6DB PUSH2 0x6CC PUSH1 0x5 SLOAD PUSH2 0x6BE DUP5 TIMESTAMP PUSH2 0x12F0 SWAP1 SWAP2 SWAP1 PUSH4 0xFFFFFFFF AND JUMP JUMPDEST PUSH2 0x1306 SWAP1 SWAP2 SWAP1 PUSH4 0xFFFFFFFF AND JUMP JUMPDEST DUP6 PUSH2 0x131C SWAP1 SWAP2 SWAP1 PUSH4 0xFFFFFFFF AND JUMP JUMPDEST SWAP4 POP TIMESTAMP PUSH1 0x4 PUSH1 0x0 DUP5 DUP2 MSTORE PUSH1 0x20 ADD SWAP1 DUP2 MSTORE PUSH1 0x20 ADD PUSH1 0x0 KECCAK256 DUP2 SWAP1 SSTORE POP POP POP DUP1 DUP1 PUSH2 0x702 SWAP1 PUSH2 0x20F5 JUMP JUMPDEST SWAP2 POP POP PUSH2 0x66D JUMP JUMPDEST POP DUP1 PUSH1 0x2 PUSH1 0x0 SWAP1 SLOAD SWAP1 PUSH2 0x100 EXP SWAP1 DIV PUSH20 0xFFFFFFFFFFFFFFFFFFFFFFFFFFFFFFFFFFFFFFFF AND PUSH20 0xFFFFFFFFFFFFFFFFFFFFFFFFFFFFFFFFFFFFFFFF AND PUSH4 0x70A08231 ADDRESS PUSH1 0x40 MLOAD DUP3 PUSH4 0xFFFFFFFF AND PUSH1 0xE0 SHL DUP2 MSTORE PUSH1 0x4 ADD PUSH2 0x767 SWAP2 SWAP1 PUSH2 0x1CB8 JUMP JUMPDEST PUSH1 0x20 PUSH1 0x40 MLOAD DUP1 DUP4 SUB DUP2 DUP7 DUP1 EXTCODESIZE ISZERO DUP1 ISZERO PUSH2 0x77F JUMPI PUSH1 0x0 DUP1 REVERT JUMPDEST POP GAS STATICCALL ISZERO DUP1 ISZERO PUSH2 0x793 JUMPI RETURNDATASIZE PUSH1 0x0 DUP1 RETURNDATACOPY RETURNDATASIZE PUSH1 0x0 REVERT JUMPDEST POP POP POP POP PUSH1 0x40 MLOAD RETURNDATASIZE PUSH1 0x1F NOT PUSH1 0x1F DUP3 ADD AND DUP3 ADD DUP1 PUSH1 0x40 MSTORE POP DUP2 ADD SWAP1 PUSH2 0x7B7 SWAP2 SWAP1 PUSH2 0x1A98 JUMP JUMPDEST LT ISZERO PUSH2 0x7F8 JUMPI PUSH1 0x40 MLOAD PUSH32 0x8C379A000000000000000000000000000000000000000000000000000000000 DUP2 MSTORE PUSH1 0x4 ADD PUSH2 0x7EF SWAP1 PUSH2 0x1DCA JUMP JUMPDEST PUSH1 0x40 MLOAD DUP1 SWAP2 SUB SWAP1 REVERT JUMPDEST PUSH1 0x2 PUSH1 0x0 SWAP1 SLOAD SWAP1 PUSH2 0x100 EXP SWAP1 DIV PUSH20 0xFFFFFFFFFFFFFFFFFFFFFFFFFFFFFFFFFFFFFFFF AND PUSH20 0xFFFFFFFFFFFFFFFFFFFFFFFFFFFFFFFFFFFFFFFF AND PUSH4 0xA9059CBB CALLER DUP4 PUSH1 0x40 MLOAD DUP4 PUSH4 0xFFFFFFFF AND PUSH1 0xE0 SHL DUP2 MSTORE PUSH1 0x4 ADD PUSH2 0x855 SWAP3 SWAP2 SWAP1 PUSH2 0x1CD3 JUMP JUMPDEST PUSH1 0x20 PUSH1 0x40 MLOAD DUP1 DUP4 SUB DUP2 PUSH1 0x0 DUP8 DUP1 EXTCODESIZE ISZERO DUP1 ISZERO PUSH2 0x86F JUMPI PUSH1 0x0 DUP1 REVERT JUMPDEST POP GAS CALL ISZERO DUP1 ISZERO PUSH2 0x883 JUMPI RETURNDATASIZE PUSH1 0x0 DUP1 RETURNDATACOPY RETURNDATASIZE PUSH1 0x0 REVERT JUMPDEST POP POP POP POP PUSH1 0x40 MLOAD RETURNDATASIZE PUSH1 0x1F NOT PUSH1 0x1F DUP3 ADD AND DUP3 ADD DUP1 PUSH1 0x40 MSTORE POP DUP2 ADD SWAP1 PUSH2 0x8A7 SWAP2 SWAP1 PUSH2 0x19A4 JUMP JUMPDEST POP PUSH32 0x3F2309CBF5605DA9B681A3BC3B9880601CEE1DAE74A5509D471B761354DAFCBD CALLER PUSH1 0x40 MLOAD PUSH2 0x8D7 SWAP2 SWAP1 PUSH2 0x1CB8 JUMP JUMPDEST PUSH1 0x40 MLOAD DUP1 SWAP2 SUB SWAP1 LOG1 POP POP JUMP JUMPDEST PUSH32 0x352D05FE3946DBE49277552BA941E744D5A96D9C60BC1BA0EA5F1D3AE000F7C8 PUSH2 0x90D DUP2 PUSH2 0x10F8 JUMP JUMPDEST PUSH1 0x0 JUMPDEST DUP3 MLOAD DUP2 LT ISZERO PUSH2 0x964 JUMPI PUSH1 0x0 DUP4 DUP3 DUP2 MLOAD DUP2 LT PUSH2 0x92E JUMPI PUSH2 0x92D PUSH2 0x216D JUMP JUMPDEST JUMPDEST PUSH1 0x20 MUL PUSH1 0x20 ADD ADD MLOAD SWAP1 POP TIMESTAMP PUSH1 0x4 PUSH1 0x0 DUP4 DUP2 MSTORE PUSH1 0x20 ADD SWAP1 DUP2 MSTORE PUSH1 0x20 ADD PUSH1 0x0 KECCAK256 DUP2 SWAP1 SSTORE POP POP DUP1 DUP1 PUSH2 0x95C SWAP1 PUSH2 0x20F5 JUMP JUMPDEST SWAP2 POP POP PUSH2 0x910 JUMP JUMPDEST POP PUSH1 0x0 PUSH2 0x970 DUP4 PUSH2 0xBB5 JUMP JUMPDEST SWAP1 POP DUP1 PUSH1 0x2 PUSH1 0x0 SWAP1 SLOAD SWAP1 PUSH2 0x100 EXP SWAP1 DIV PUSH20 0xFFFFFFFFFFFFFFFFFFFFFFFFFFFFFFFFFFFFFFFF AND PUSH20 0xFFFFFFFFFFFFFFFFFFFFFFFFFFFFFFFFFFFFFFFF AND PUSH4 0x70A08231 ADDRESS PUSH1 0x40 MLOAD DUP3 PUSH4 0xFFFFFFFF AND PUSH1 0xE0 SHL DUP2 MSTORE PUSH1 0x4 ADD PUSH2 0x9CE SWAP2 SWAP1 PUSH2 0x1CB8 JUMP JUMPDEST PUSH1 0x20 PUSH1 0x40 MLOAD DUP1 DUP4 SUB DUP2 DUP7 DUP1 EXTCODESIZE ISZERO DUP1 ISZERO PUSH2 0x9E6 JUMPI PUSH1 0x0 DUP1 REVERT JUMPDEST POP GAS STATICCALL ISZERO DUP1 ISZERO PUSH2 0x9FA JUMPI RETURNDATASIZE PUSH1 0x0 DUP1 RETURNDATACOPY RETURNDATASIZE PUSH1 0x0 REVERT JUMPDEST POP POP POP POP PUSH1 0x40 MLOAD RETURNDATASIZE PUSH1 0x1F NOT PUSH1 0x1F DUP3 ADD AND DUP3 ADD DUP1 PUSH1 0x40 MSTORE POP DUP2 ADD SWAP1 PUSH2 0xA1E SWAP2 SWAP1 PUSH2 0x1A98 JUMP JUMPDEST LT ISZERO PUSH2 0xA5F JUMPI PUSH1 0x40 MLOAD PUSH32 0x8C379A000000000000000000000000000000000000000000000000000000000 DUP2 MSTORE PUSH1 0x4 ADD PUSH2 0xA56 SWAP1 PUSH2 0x1DCA JUMP JUMPDEST PUSH1 0x40 MLOAD DUP1 SWAP2 SUB SWAP1 REVERT JUMPDEST PUSH1 0x2 PUSH1 0x0 SWAP1 SLOAD SWAP1 PUSH2 0x100 EXP SWAP1 DIV PUSH20 0xFFFFFFFFFFFFFFFFFFFFFFFFFFFFFFFFFFFFFFFF AND PUSH20 0xFFFFFFFFFFFFFFFFFFFFFFFFFFFFFFFFFFFFFFFF AND PUSH4 0xA9059CBB DUP6 DUP4 PUSH1 0x40 MLOAD DUP4 PUSH4 0xFFFFFFFF AND PUSH1 0xE0 SHL DUP2 MSTORE PUSH1 0x4 ADD PUSH2 0xABC SWAP3 SWAP2 SWAP1 PUSH2 0x1CD3 JUMP JUMPDEST PUSH1 0x20 PUSH1 0x40 MLOAD DUP1 DUP4 SUB DUP2 PUSH1 0x0 DUP8 DUP1 EXTCODESIZE ISZERO DUP1 ISZERO PUSH2 0xAD6 JUMPI PUSH1 0x0 DUP1 REVERT JUMPDEST POP GAS CALL ISZERO DUP1 ISZERO PUSH2 0xAEA JUMPI RETURNDATASIZE PUSH1 0x0 DUP1 RETURNDATACOPY RETURNDATASIZE PUSH1 0x0 REVERT JUMPDEST POP POP POP POP PUSH1 0x40 MLOAD RETURNDATASIZE PUSH1 0x1F NOT PUSH1 0x1F DUP3 ADD AND DUP3 ADD DUP1 PUSH1 0x40 MSTORE POP DUP2 ADD SWAP1 PUSH2 0xB0E SWAP2 SWAP1 PUSH2 0x19A4 JUMP JUMPDEST POP POP POP POP POP JUMP JUMPDEST PUSH1 0x4 PUSH1 0x20 MSTORE DUP1 PUSH1 0x0 MSTORE PUSH1 0x40 PUSH1 0x0 KECCAK256 PUSH1 0x0 SWAP2 POP SWAP1 POP SLOAD DUP2 JUMP JUMPDEST PUSH2 0xB35 PUSH2 0x11EC JUMP JUMPDEST PUSH20 0xFFFFFFFFFFFFFFFFFFFFFFFFFFFFFFFFFFFFFFFF AND PUSH2 0xB53 PUSH2 0xE28 JUMP JUMPDEST PUSH20 0xFFFFFFFFFFFFFFFFFFFFFFFFFFFFFFFFFFFFFFFF AND EQ PUSH2 0xBA9 JUMPI PUSH1 0x40 MLOAD PUSH32 0x8C379A000000000000000000000000000000000000000000000000000000000 DUP2 MSTORE PUSH1 0x4 ADD PUSH2 0xBA0 SWAP1 PUSH2 0x1DEA JUMP JUMPDEST PUSH1 0x40 MLOAD DUP1 SWAP2 SUB SWAP1 REVERT JUMPDEST PUSH2 0xBB3 PUSH1 0x0 PUSH2 0x1332 JUMP JUMPDEST JUMP JUMPDEST PUSH1 0x0 DUP1 PUSH1 0x0 JUMPDEST DUP4 MLOAD DUP2 LT ISZERO PUSH2 0xC40 JUMPI PUSH1 0x0 DUP5 DUP3 DUP2 MLOAD DUP2 LT PUSH2 0xBD9 JUMPI PUSH2 0xBD8 PUSH2 0x216D JUMP JUMPDEST JUMPDEST PUSH1 0x20 MUL PUSH1 0x20 ADD ADD MLOAD SWAP1 POP PUSH1 0x0 PUSH2 0xBEE DUP3 PUSH2 0x587 JUMP JUMPDEST SWAP1 POP PUSH2 0xC29 PUSH2 0xC1A PUSH1 0x5 SLOAD PUSH2 0xC0C DUP5 TIMESTAMP PUSH2 0x12F0 SWAP1 SWAP2 SWAP1 PUSH4 0xFFFFFFFF AND JUMP JUMPDEST PUSH2 0x1306 SWAP1 SWAP2 SWAP1 PUSH4 0xFFFFFFFF AND JUMP JUMPDEST DUP6 PUSH2 0x131C SWAP1 SWAP2 SWAP1 PUSH4 0xFFFFFFFF AND JUMP JUMPDEST SWAP4 POP POP POP DUP1 DUP1 PUSH2 0xC38 SWAP1 PUSH2 0x20F5 JUMP JUMPDEST SWAP2 POP POP PUSH2 0xBBB JUMP JUMPDEST POP DUP1 SWAP2 POP POP SWAP2 SWAP1 POP JUMP JUMPDEST PUSH2 0xC52 PUSH2 0x11EC JUMP JUMPDEST PUSH20 0xFFFFFFFFFFFFFFFFFFFFFFFFFFFFFFFFFFFFFFFF AND PUSH2 0xC70 PUSH2 0xE28 JUMP JUMPDEST PUSH20 0xFFFFFFFFFFFFFFFFFFFFFFFFFFFFFFFFFFFFFFFF AND EQ PUSH2 0xCC6 JUMPI PUSH1 0x40 MLOAD PUSH32 0x8C379A000000000000000000000000000000000000000000000000000000000 DUP2 MSTORE PUSH1 0x4 ADD PUSH2 0xCBD SWAP1 PUSH2 0x1DEA JUMP JUMPDEST PUSH1 0x40 MLOAD DUP1 SWAP2 SUB SWAP1 REVERT JUMPDEST PUSH1 0x0 PUSH1 0x2 PUSH1 0x0 SWAP1 SLOAD SWAP1 PUSH2 0x100 EXP SWAP1 DIV PUSH20 0xFFFFFFFFFFFFFFFFFFFFFFFFFFFFFFFFFFFFFFFF AND PUSH20 0xFFFFFFFFFFFFFFFFFFFFFFFFFFFFFFFFFFFFFFFF AND PUSH4 0x70A08231 ADDRESS PUSH1 0x40 MLOAD DUP3 PUSH4 0xFFFFFFFF AND PUSH1 0xE0 SHL DUP2 MSTORE PUSH1 0x4 ADD PUSH2 0xD23 SWAP2 SWAP1 PUSH2 0x1CB8 JUMP JUMPDEST PUSH1 0x20 PUSH1 0x40 MLOAD DUP1 DUP4 SUB DUP2 DUP7 DUP1 EXTCODESIZE ISZERO DUP1 ISZERO PUSH2 0xD3B JUMPI PUSH1 0x0 DUP1 REVERT JUMPDEST POP GAS STATICCALL ISZERO DUP1 ISZERO PUSH2 0xD4F JUMPI RETURNDATASIZE PUSH1 0x0 DUP1 RETURNDATACOPY RETURNDATASIZE PUSH1 0x0 REVERT JUMPDEST POP POP POP POP PUSH1 0x40 MLOAD RETURNDATASIZE PUSH1 0x1F NOT PUSH1 0x1F DUP3 ADD AND DUP3 ADD DUP1 PUSH1 0x40 MSTORE POP DUP2 ADD SWAP1 PUSH2 0xD73 SWAP2 SWAP1 PUSH2 0x1A98 JUMP JUMPDEST SWAP1 POP PUSH1 0x2 PUSH1 0x0 SWAP1 SLOAD SWAP1 PUSH2 0x100 EXP SWAP1 DIV PUSH20 0xFFFFFFFFFFFFFFFFFFFFFFFFFFFFFFFFFFFFFFFF AND PUSH20 0xFFFFFFFFFFFFFFFFFFFFFFFFFFFFFFFFFFFFFFFF AND PUSH4 0xA9059CBB CALLER DUP4 PUSH1 0x40 MLOAD DUP4 PUSH4 0xFFFFFFFF AND PUSH1 0xE0 SHL DUP2 MSTORE PUSH1 0x4 ADD PUSH2 0xDD2 SWAP3 SWAP2 SWAP1 PUSH2 0x1CD3 JUMP JUMPDEST PUSH1 0x20 PUSH1 0x40 MLOAD DUP1 DUP4 SUB DUP2 PUSH1 0x0 DUP8 DUP1 EXTCODESIZE ISZERO DUP1 ISZERO PUSH2 0xDEC JUMPI PUSH1 0x0 DUP1 REVERT JUMPDEST POP GAS CALL ISZERO DUP1 ISZERO PUSH2 0xE00 JUMPI RETURNDATASIZE PUSH1 0x0 DUP1 RETURNDATACOPY RETURNDATASIZE PUSH1 0x0 REVERT JUMPDEST POP POP POP POP PUSH1 0x40 MLOAD RETURNDATASIZE PUSH1 0x1F NOT PUSH1 0x1F DUP3 ADD AND DUP3 ADD DUP1 PUSH1 0x40 MSTORE POP DUP2 ADD SWAP1 PUSH2 0xE24 SWAP2 SWAP1 PUSH2 0x19A4 JUMP JUMPDEST POP POP JUMP JUMPDEST PUSH1 0x0 DUP1 PUSH1 0x0 SWAP1 SLOAD SWAP1 PUSH2 0x100 EXP SWAP1 DIV PUSH20 0xFFFFFFFFFFFFFFFFFFFFFFFFFFFFFFFFFFFFFFFF AND SWAP1 POP SWAP1 JUMP JUMPDEST PUSH1 0x0 PUSH1 0x1 PUSH1 0x0 DUP5 DUP2 MSTORE PUSH1 0x20 ADD SWAP1 DUP2 MSTORE PUSH1 0x20 ADD PUSH1 0x0 KECCAK256 PUSH1 0x0 ADD PUSH1 0x0 DUP4 PUSH20 0xFFFFFFFFFFFFFFFFFFFFFFFFFFFFFFFFFFFFFFFF AND PUSH20 0xFFFFFFFFFFFFFFFFFFFFFFFFFFFFFFFFFFFFFFFF AND DUP2 MSTORE PUSH1 0x20 ADD SWAP1 DUP2 MSTORE PUSH1 0x20 ADD PUSH1 0x0 KECCAK256 PUSH1 0x0 SWAP1 SLOAD SWAP1 PUSH2 0x100 EXP SWAP1 DIV PUSH1 0xFF AND SWAP1 POP SWAP3 SWAP2 POP POP JUMP JUMPDEST PUSH1 0x3 PUSH1 0x0 SWAP1 SLOAD SWAP1 PUSH2 0x100 EXP SWAP1 DIV PUSH20 0xFFFFFFFFFFFFFFFFFFFFFFFFFFFFFFFFFFFFFFFF AND DUP2 JUMP JUMPDEST PUSH1 0x0 DUP1 SHL DUP2 JUMP JUMPDEST PUSH2 0xEF1 PUSH2 0x11EC JUMP JUMPDEST PUSH20 0xFFFFFFFFFFFFFFFFFFFFFFFFFFFFFFFFFFFFFFFF AND PUSH2 0xF0F PUSH2 0xE28 JUMP JUMPDEST PUSH20 0xFFFFFFFFFFFFFFFFFFFFFFFFFFFFFFFFFFFFFFFF AND EQ PUSH2 0xF65 JUMPI PUSH1 0x40 MLOAD PUSH32 0x8C379A000000000000000000000000000000000000000000000000000000000 DUP2 MSTORE PUSH1 0x4 ADD PUSH2 0xF5C SWAP1 PUSH2 0x1DEA JUMP JUMPDEST PUSH1 0x40 MLOAD DUP1 SWAP2 SUB SWAP1 REVERT JUMPDEST DUP1 PUSH1 0x5 DUP2 SWAP1 SSTORE POP POP JUMP JUMPDEST PUSH1 0x6 SLOAD DUP2 JUMP JUMPDEST PUSH2 0xF7E DUP3 PUSH2 0x49F JUMP JUMPDEST PUSH2 0xF87 DUP2 PUSH2 0x10F8 JUMP JUMPDEST PUSH2 0xF91 DUP4 DUP4 PUSH2 0x11F4 JUMP JUMPDEST POP POP POP JUMP JUMPDEST PUSH2 0xF9E PUSH2 0x11EC JUMP JUMPDEST PUSH20 0xFFFFFFFFFFFFFFFFFFFFFFFFFFFFFFFFFFFFFFFF AND PUSH2 0xFBC PUSH2 0xE28 JUMP JUMPDEST PUSH20 0xFFFFFFFFFFFFFFFFFFFFFFFFFFFFFFFFFFFFFFFF AND EQ PUSH2 0x1012 JUMPI PUSH1 0x40 MLOAD PUSH32 0x8C379A000000000000000000000000000000000000000000000000000000000 DUP2 MSTORE PUSH1 0x4 ADD PUSH2 0x1009 SWAP1 PUSH2 0x1DEA JUMP JUMPDEST PUSH1 0x40 MLOAD DUP1 SWAP2 SUB SWAP1 REVERT JUMPDEST PUSH1 0x0 PUSH20 0xFFFFFFFFFFFFFFFFFFFFFFFFFFFFFFFFFFFFFFFF AND DUP2 PUSH20 0xFFFFFFFFFFFFFFFFFFFFFFFFFFFFFFFFFFFFFFFF AND EQ ISZERO PUSH2 0x1082 JUMPI PUSH1 0x40 MLOAD PUSH32 0x8C379A000000000000000000000000000000000000000000000000000000000 DUP2 MSTORE PUSH1 0x4 ADD PUSH2 0x1079 SWAP1 PUSH2 0x1DAA JUMP JUMPDEST PUSH1 0x40 MLOAD DUP1 SWAP2 SUB SWAP1 REVERT JUMPDEST PUSH2 0x108B DUP2 PUSH2 0x1332 JUMP JUMPDEST POP JUMP JUMPDEST PUSH1 0x0 PUSH32 0x1FFC9A700000000000000000000000000000000000000000000000000000000 PUSH28 0xFFFFFFFFFFFFFFFFFFFFFFFFFFFFFFFFFFFFFFFFFFFFFFFFFFFFFFFF NOT AND DUP3 PUSH28 0xFFFFFFFFFFFFFFFFFFFFFFFFFFFFFFFFFFFFFFFFFFFFFFFFFFFFFFFF NOT AND EQ SWAP1 POP SWAP2 SWAP1 POP JUMP JUMPDEST PUSH2 0x1109 DUP2 PUSH2 0x1104 PUSH2 0x11EC JUMP JUMPDEST PUSH2 0x13F6 JUMP JUMPDEST POP JUMP JUMPDEST PUSH2 0x1116 DUP3 DUP3 PUSH2 0xE51 JUMP JUMPDEST PUSH2 0x11E8 JUMPI PUSH1 0x1 DUP1 PUSH1 0x0 DUP5 DUP2 MSTORE PUSH1 0x20 ADD SWAP1 DUP2 MSTORE PUSH1 0x20 ADD PUSH1 0x0 KECCAK256 PUSH1 0x0 ADD PUSH1 0x0 DUP4 PUSH20 0xFFFFFFFFFFFFFFFFFFFFFFFFFFFFFFFFFFFFFFFF AND PUSH20 0xFFFFFFFFFFFFFFFFFFFFFFFFFFFFFFFFFFFFFFFF AND DUP2 MSTORE PUSH1 0x20 ADD SWAP1 DUP2 MSTORE PUSH1 0x20 ADD PUSH1 0x0 KECCAK256 PUSH1 0x0 PUSH2 0x100 EXP DUP2 SLOAD DUP2 PUSH1 0xFF MUL NOT AND SWAP1 DUP4 ISZERO ISZERO MUL OR SWAP1 SSTORE POP PUSH2 0x118D PUSH2 0x11EC JUMP JUMPDEST PUSH20 0xFFFFFFFFFFFFFFFFFFFFFFFFFFFFFFFFFFFFFFFF AND DUP2 PUSH20 0xFFFFFFFFFFFFFFFFFFFFFFFFFFFFFFFFFFFFFFFF AND DUP4 PUSH32 0x2F8788117E7EFF1D82E926EC794901D17C78024A50270940304540A733656F0D PUSH1 0x40 MLOAD PUSH1 0x40 MLOAD DUP1 SWAP2 SUB SWAP1 LOG4 JUMPDEST POP POP JUMP JUMPDEST PUSH1 0x0 CALLER SWAP1 POP SWAP1 JUMP JUMPDEST PUSH2 0x11FE DUP3 DUP3 PUSH2 0xE51 JUMP JUMPDEST ISZERO PUSH2 0x12D2 JUMPI PUSH1 0x0 PUSH1 0x1 PUSH1 0x0 DUP5 DUP2 MSTORE PUSH1 0x20 ADD SWAP1 DUP2 MSTORE PUSH1 0x20 ADD PUSH1 0x0 KECCAK256 PUSH1 0x0 ADD PUSH1 0x0 DUP4 PUSH20 0xFFFFFFFFFFFFFFFFFFFFFFFFFFFFFFFFFFFFFFFF AND PUSH20 0xFFFFFFFFFFFFFFFFFFFFFFFFFFFFFFFFFFFFFFFF AND DUP2 MSTORE PUSH1 0x20 ADD SWAP1 DUP2 MSTORE PUSH1 0x20 ADD PUSH1 0x0 KECCAK256 PUSH1 0x0 PUSH2 0x100 EXP DUP2 SLOAD DUP2 PUSH1 0xFF MUL NOT AND SWAP1 DUP4 ISZERO ISZERO MUL OR SWAP1 SSTORE POP PUSH2 0x1277 PUSH2 0x11EC JUMP JUMPDEST PUSH20 0xFFFFFFFFFFFFFFFFFFFFFFFFFFFFFFFFFFFFFFFF AND DUP2 PUSH20 0xFFFFFFFFFFFFFFFFFFFFFFFFFFFFFFFFFFFFFFFF AND DUP4 PUSH32 0xF6391F5C32D9C69D2A47EA670B442974B53935D1EDC7FD64EB21E047A839171B PUSH1 0x40 MLOAD PUSH1 0x40 MLOAD DUP1 SWAP2 SUB SWAP1 LOG4 JUMPDEST POP POP JUMP JUMPDEST PUSH1 0x0 DUP2 DUP4 LT ISZERO PUSH2 0x12E6 JUMPI DUP2 PUSH2 0x12E8 JUMP JUMPDEST DUP3 JUMPDEST SWAP1 POP SWAP3 SWAP2 POP POP JUMP JUMPDEST PUSH1 0x0 DUP2 DUP4 PUSH2 0x12FE SWAP2 SWAP1 PUSH2 0x1F6D JUMP JUMPDEST SWAP1 POP SWAP3 SWAP2 POP POP JUMP JUMPDEST PUSH1 0x0 DUP2 DUP4 PUSH2 0x1314 SWAP2 SWAP1 PUSH2 0x1F13 JUMP JUMPDEST SWAP1 POP SWAP3 SWAP2 POP POP JUMP JUMPDEST PUSH1 0x0 DUP2 DUP4 PUSH2 0x132A SWAP2 SWAP1 PUSH2 0x1EBD JUMP JUMPDEST SWAP1 POP SWAP3 SWAP2 POP POP JUMP JUMPDEST PUSH1 0x0 DUP1 PUSH1 0x0 SWAP1 SLOAD SWAP1 PUSH2 0x100 EXP SWAP1 DIV PUSH20 0xFFFFFFFFFFFFFFFFFFFFFFFFFFFFFFFFFFFFFFFF AND SWAP1 POP DUP2 PUSH1 0x0 DUP1 PUSH2 0x100 EXP DUP2 SLOAD DUP2 PUSH20 0xFFFFFFFFFFFFFFFFFFFFFFFFFFFFFFFFFFFFFFFF MUL NOT AND SWAP1 DUP4 PUSH20 0xFFFFFFFFFFFFFFFFFFFFFFFFFFFFFFFFFFFFFFFF AND MUL OR SWAP1 SSTORE POP DUP2 PUSH20 0xFFFFFFFFFFFFFFFFFFFFFFFFFFFFFFFFFFFFFFFF AND DUP2 PUSH20 0xFFFFFFFFFFFFFFFFFFFFFFFFFFFFFFFFFFFFFFFF AND PUSH32 0x8BE0079C531659141344CD1FD0A4F28419497F9722A3DAAFE3B4186F6B6457E0 PUSH1 0x40 MLOAD PUSH1 0x40 MLOAD DUP1 SWAP2 SUB SWAP1 LOG3 POP POP JUMP JUMPDEST PUSH2 0x1400 DUP3 DUP3 PUSH2 0xE51 JUMP JUMPDEST PUSH2 0x148F JUMPI PUSH2 0x1425 DUP2 PUSH20 0xFFFFFFFFFFFFFFFFFFFFFFFFFFFFFFFFFFFFFFFF AND PUSH1 0x14 PUSH2 0x1493 JUMP JUMPDEST PUSH2 0x1433 DUP4 PUSH1 0x0 SHR PUSH1 0x20 PUSH2 0x1493 JUMP JUMPDEST PUSH1 0x40 MLOAD PUSH1 0x20 ADD PUSH2 0x1444 SWAP3 SWAP2 SWAP1 PUSH2 0x1C7E JUMP JUMPDEST PUSH1 0x40 MLOAD PUSH1 0x20 DUP2 DUP4 SUB SUB DUP2 MSTORE SWAP1 PUSH1 0x40 MSTORE PUSH1 0x40 MLOAD PUSH32 0x8C379A000000000000000000000000000000000000000000000000000000000 DUP2 MSTORE PUSH1 0x4 ADD PUSH2 0x1486 SWAP2 SWAP1 PUSH2 0x1D68 JUMP JUMPDEST PUSH1 0x40 MLOAD DUP1 SWAP2 SUB SWAP1 REVERT JUMPDEST POP POP JUMP JUMPDEST PUSH1 0x60 PUSH1 0x0 PUSH1 0x2 DUP4 PUSH1 0x2 PUSH2 0x14A6 SWAP2 SWAP1 PUSH2 0x1F13 JUMP JUMPDEST PUSH2 0x14B0 SWAP2 SWAP1 PUSH2 0x1EBD JUMP JUMPDEST PUSH8 0xFFFFFFFFFFFFFFFF DUP2 GT ISZERO PUSH2 0x14C9 JUMPI PUSH2 0x14C8 PUSH2 0x219C JUMP JUMPDEST JUMPDEST PUSH1 0x40 MLOAD SWAP1 DUP1 DUP3 MSTORE DUP1 PUSH1 0x1F ADD PUSH1 0x1F NOT AND PUSH1 0x20 ADD DUP3 ADD PUSH1 0x40 MSTORE DUP1 ISZERO PUSH2 0x14FB JUMPI DUP2 PUSH1 0x20 ADD PUSH1 0x1 DUP3 MUL DUP1 CALLDATASIZE DUP4 CALLDATACOPY DUP1 DUP3 ADD SWAP2 POP POP SWAP1 POP JUMPDEST POP SWAP1 POP PUSH32 0x3000000000000000000000000000000000000000000000000000000000000000 DUP2 PUSH1 0x0 DUP2 MLOAD DUP2 LT PUSH2 0x1533 JUMPI PUSH2 0x1532 PUSH2 0x216D JUMP JUMPDEST JUMPDEST PUSH1 0x20 ADD ADD SWAP1 PUSH31 0xFFFFFFFFFFFFFFFFFFFFFFFFFFFFFFFFFFFFFFFFFFFFFFFFFFFFFFFFFFFFFF NOT AND SWAP1 DUP2 PUSH1 0x0 BYTE SWAP1 MSTORE8 POP PUSH32 0x7800000000000000000000000000000000000000000000000000000000000000 DUP2 PUSH1 0x1 DUP2 MLOAD DUP2 LT PUSH2 0x1597 JUMPI PUSH2 0x1596 PUSH2 0x216D JUMP JUMPDEST JUMPDEST PUSH1 0x20 ADD ADD SWAP1 PUSH31 0xFFFFFFFFFFFFFFFFFFFFFFFFFFFFFFFFFFFFFFFFFFFFFFFFFFFFFFFFFFFFFF NOT AND SWAP1 DUP2 PUSH1 0x0 BYTE SWAP1 MSTORE8 POP PUSH1 0x0 PUSH1 0x1 DUP5 PUSH1 0x2 PUSH2 0x15D7 SWAP2 SWAP1 PUSH2 0x1F13 JUMP JUMPDEST PUSH2 0x15E1 SWAP2 SWAP1 PUSH2 0x1EBD JUMP JUMPDEST SWAP1 POP JUMPDEST PUSH1 0x1 DUP2 GT ISZERO PUSH2 0x1681 JUMPI PUSH32 0x3031323334353637383961626364656600000000000000000000000000000000 PUSH1 0xF DUP7 AND PUSH1 0x10 DUP2 LT PUSH2 0x1623 JUMPI PUSH2 0x1622 PUSH2 0x216D JUMP JUMPDEST JUMPDEST BYTE PUSH1 0xF8 SHL DUP3 DUP3 DUP2 MLOAD DUP2 LT PUSH2 0x163A JUMPI PUSH2 0x1639 PUSH2 0x216D JUMP JUMPDEST JUMPDEST PUSH1 0x20 ADD ADD SWAP1 PUSH31 0xFFFFFFFFFFFFFFFFFFFFFFFFFFFFFFFFFFFFFFFFFFFFFFFFFFFFFFFFFFFFFF NOT AND SWAP1 DUP2 PUSH1 0x0 BYTE SWAP1 MSTORE8 POP PUSH1 0x4 DUP6 SWAP1 SHR SWAP5 POP DUP1 PUSH2 0x167A SWAP1 PUSH2 0x209A JUMP JUMPDEST SWAP1 POP PUSH2 0x15E4 JUMP JUMPDEST POP PUSH1 0x0 DUP5 EQ PUSH2 0x16C5 JUMPI PUSH1 0x40 MLOAD PUSH32 0x8C379A000000000000000000000000000000000000000000000000000000000 DUP2 MSTORE PUSH1 0x4 ADD PUSH2 0x16BC SWAP1 PUSH2 0x1D8A JUMP JUMPDEST PUSH1 0x40 MLOAD DUP1 SWAP2 SUB SWAP1 REVERT JUMPDEST DUP1 SWAP2 POP POP SWAP3 SWAP2 POP POP JUMP JUMPDEST PUSH1 0x0 PUSH2 0x16E2 PUSH2 0x16DD DUP5 PUSH2 0x1E6A JUMP JUMPDEST PUSH2 0x1E45 JUMP JUMPDEST SWAP1 POP DUP1 DUP4 DUP3 MSTORE PUSH1 0x20 DUP3 ADD SWAP1 POP DUP3 DUP6 PUSH1 0x20 DUP7 MUL DUP3 ADD GT ISZERO PUSH2 0x1705 JUMPI PUSH2 0x1704 PUSH2 0x21D0 JUMP JUMPDEST JUMPDEST PUSH1 0x0 JUMPDEST DUP6 DUP2 LT ISZERO PUSH2 0x1735 JUMPI DUP2 PUSH2 0x171B DUP9 DUP3 PUSH2 0x185F JUMP JUMPDEST DUP5 MSTORE PUSH1 0x20 DUP5 ADD SWAP4 POP PUSH1 0x20 DUP4 ADD SWAP3 POP POP PUSH1 0x1 DUP2 ADD SWAP1 POP PUSH2 0x1708 JUMP JUMPDEST POP POP POP SWAP4 SWAP3 POP POP POP JUMP JUMPDEST PUSH1 0x0 PUSH2 0x1752 PUSH2 0x174D DUP5 PUSH2 0x1E6A JUMP JUMPDEST PUSH2 0x1E45 JUMP JUMPDEST SWAP1 POP DUP1 DUP4 DUP3 MSTORE PUSH1 0x20 DUP3 ADD SWAP1 POP DUP3 DUP6 PUSH1 0x20 DUP7 MUL DUP3 ADD GT ISZERO PUSH2 0x1775 JUMPI PUSH2 0x1774 PUSH2 0x21D0 JUMP JUMPDEST JUMPDEST PUSH1 0x0 JUMPDEST DUP6 DUP2 LT ISZERO PUSH2 0x17A5 JUMPI DUP2 PUSH2 0x178B DUP9 DUP3 PUSH2 0x1874 JUMP JUMPDEST DUP5 MSTORE PUSH1 0x20 DUP5 ADD SWAP4 POP PUSH1 0x20 DUP4 ADD SWAP3 POP POP PUSH1 0x1 DUP2 ADD SWAP1 POP PUSH2 0x1778 JUMP JUMPDEST POP POP POP SWAP4 SWAP3 POP POP POP JUMP JUMPDEST PUSH1 0x0 DUP2 CALLDATALOAD SWAP1 POP PUSH2 0x17BE DUP2 PUSH2 0x235B JUMP JUMPDEST SWAP3 SWAP2 POP POP JUMP JUMPDEST PUSH1 0x0 DUP3 PUSH1 0x1F DUP4 ADD SLT PUSH2 0x17D9 JUMPI PUSH2 0x17D8 PUSH2 0x21CB JUMP JUMPDEST JUMPDEST DUP2 CALLDATALOAD PUSH2 0x17E9 DUP5 DUP3 PUSH1 0x20 DUP7 ADD PUSH2 0x16CF JUMP JUMPDEST SWAP2 POP POP SWAP3 SWAP2 POP POP JUMP JUMPDEST PUSH1 0x0 DUP3 PUSH1 0x1F DUP4 ADD SLT PUSH2 0x1807 JUMPI PUSH2 0x1806 PUSH2 0x21CB JUMP JUMPDEST JUMPDEST DUP2 MLOAD PUSH2 0x1817 DUP5 DUP3 PUSH1 0x20 DUP7 ADD PUSH2 0x173F JUMP JUMPDEST SWAP2 POP POP SWAP3 SWAP2 POP POP JUMP JUMPDEST PUSH1 0x0 DUP2 MLOAD SWAP1 POP PUSH2 0x182F DUP2 PUSH2 0x2372 JUMP JUMPDEST SWAP3 SWAP2 POP POP JUMP JUMPDEST PUSH1 0x0 DUP2 CALLDATALOAD SWAP1 POP PUSH2 0x1844 DUP2 PUSH2 0x2389 JUMP JUMPDEST SWAP3 SWAP2 POP POP JUMP JUMPDEST PUSH1 0x0 DUP2 CALLDATALOAD SWAP1 POP PUSH2 0x1859 DUP2 PUSH2 0x23A0 JUMP JUMPDEST SWAP3 SWAP2 POP POP JUMP JUMPDEST PUSH1 0x0 DUP2 CALLDATALOAD SWAP1 POP PUSH2 0x186E DUP2 PUSH2 0x23B7 JUMP JUMPDEST SWAP3 SWAP2 POP POP JUMP JUMPDEST PUSH1 0x0 DUP2 MLOAD SWAP1 POP PUSH2 0x1883 DUP2 PUSH2 0x23B7 JUMP JUMPDEST SWAP3 SWAP2 POP POP JUMP JUMPDEST PUSH1 0x0 PUSH1 0x20 DUP3 DUP5 SUB SLT ISZERO PUSH2 0x189F JUMPI PUSH2 0x189E PUSH2 0x21DA JUMP JUMPDEST JUMPDEST PUSH1 0x0 PUSH2 0x18AD DUP5 DUP3 DUP6 ADD PUSH2 0x17AF JUMP JUMPDEST SWAP2 POP POP SWAP3 SWAP2 POP POP JUMP JUMPDEST PUSH1 0x0 DUP1 PUSH1 0x40 DUP4 DUP6 SUB SLT ISZERO PUSH2 0x18CD JUMPI PUSH2 0x18CC PUSH2 0x21DA JUMP JUMPDEST JUMPDEST PUSH1 0x0 PUSH2 0x18DB DUP6 DUP3 DUP7 ADD PUSH2 0x17AF JUMP JUMPDEST SWAP3 POP POP PUSH1 0x20 DUP4 ADD CALLDATALOAD PUSH8 0xFFFFFFFFFFFFFFFF DUP2 GT ISZERO PUSH2 0x18FC JUMPI PUSH2 0x18FB PUSH2 0x21D5 JUMP JUMPDEST JUMPDEST PUSH2 0x1908 DUP6 DUP3 DUP7 ADD PUSH2 0x17C4 JUMP JUMPDEST SWAP2 POP POP SWAP3 POP SWAP3 SWAP1 POP JUMP JUMPDEST PUSH1 0x0 PUSH1 0x20 DUP3 DUP5 SUB SLT ISZERO PUSH2 0x1928 JUMPI PUSH2 0x1927 PUSH2 0x21DA JUMP JUMPDEST JUMPDEST PUSH1 0x0 DUP3 ADD CALLDATALOAD PUSH8 0xFFFFFFFFFFFFFFFF DUP2 GT ISZERO PUSH2 0x1946 JUMPI PUSH2 0x1945 PUSH2 0x21D5 JUMP JUMPDEST JUMPDEST PUSH2 0x1952 DUP5 DUP3 DUP6 ADD PUSH2 0x17C4 JUMP JUMPDEST SWAP2 POP POP SWAP3 SWAP2 POP POP JUMP JUMPDEST PUSH1 0x0 PUSH1 0x20 DUP3 DUP5 SUB SLT ISZERO PUSH2 0x1971 JUMPI PUSH2 0x1970 PUSH2 0x21DA JUMP JUMPDEST JUMPDEST PUSH1 0x0 DUP3 ADD MLOAD PUSH8 0xFFFFFFFFFFFFFFFF DUP2 GT ISZERO PUSH2 0x198F JUMPI PUSH2 0x198E PUSH2 0x21D5 JUMP JUMPDEST JUMPDEST PUSH2 0x199B DUP5 DUP3 DUP6 ADD PUSH2 0x17F2 JUMP JUMPDEST SWAP2 POP POP SWAP3 SWAP2 POP POP JUMP JUMPDEST PUSH1 0x0 PUSH1 0x20 DUP3 DUP5 SUB SLT ISZERO PUSH2 0x19BA JUMPI PUSH2 0x19B9 PUSH2 0x21DA JUMP JUMPDEST JUMPDEST PUSH1 0x0 PUSH2 0x19C8 DUP5 DUP3 DUP6 ADD PUSH2 0x1820 JUMP JUMPDEST SWAP2 POP POP SWAP3 SWAP2 POP POP JUMP JUMPDEST PUSH1 0x0 PUSH1 0x20 DUP3 DUP5 SUB SLT ISZERO PUSH2 0x19E7 JUMPI PUSH2 0x19E6 PUSH2 0x21DA JUMP JUMPDEST JUMPDEST PUSH1 0x0 PUSH2 0x19F5 DUP5 DUP3 DUP6 ADD PUSH2 0x1835 JUMP JUMPDEST SWAP2 POP POP SWAP3 SWAP2 POP POP JUMP JUMPDEST PUSH1 0x0 DUP1 PUSH1 0x40 DUP4 DUP6 SUB SLT ISZERO PUSH2 0x1A15 JUMPI PUSH2 0x1A14 PUSH2 0x21DA JUMP JUMPDEST JUMPDEST PUSH1 0x0 PUSH2 0x1A23 DUP6 DUP3 DUP7 ADD PUSH2 0x1835 JUMP JUMPDEST SWAP3 POP POP PUSH1 0x20 PUSH2 0x1A34 DUP6 DUP3 DUP7 ADD PUSH2 0x17AF JUMP JUMPDEST SWAP2 POP POP SWAP3 POP SWAP3 SWAP1 POP JUMP JUMPDEST PUSH1 0x0 PUSH1 0x20 DUP3 DUP5 SUB SLT ISZERO PUSH2 0x1A54 JUMPI PUSH2 0x1A53 PUSH2 0x21DA JUMP JUMPDEST JUMPDEST PUSH1 0x0 PUSH2 0x1A62 DUP5 DUP3 DUP6 ADD PUSH2 0x184A JUMP JUMPDEST SWAP2 POP POP SWAP3 SWAP2 POP POP JUMP JUMPDEST PUSH1 0x0 PUSH1 0x20 DUP3 DUP5 SUB SLT ISZERO PUSH2 0x1A81 JUMPI PUSH2 0x1A80 PUSH2 0x21DA JUMP JUMPDEST JUMPDEST PUSH1 0x0 PUSH2 0x1A8F DUP5 DUP3 DUP6 ADD PUSH2 0x185F JUMP JUMPDEST SWAP2 POP POP SWAP3 SWAP2 POP POP JUMP JUMPDEST PUSH1 0x0 PUSH1 0x20 DUP3 DUP5 SUB SLT ISZERO PUSH2 0x1AAE JUMPI PUSH2 0x1AAD PUSH2 0x21DA JUMP JUMPDEST JUMPDEST PUSH1 0x0 PUSH2 0x1ABC DUP5 DUP3 DUP6 ADD PUSH2 0x1874 JUMP JUMPDEST SWAP2 POP POP SWAP3 SWAP2 POP POP JUMP JUMPDEST PUSH2 0x1ACE DUP2 PUSH2 0x1FA1 JUMP JUMPDEST DUP3 MSTORE POP POP JUMP JUMPDEST PUSH2 0x1ADD DUP2 PUSH2 0x1FB3 JUMP JUMPDEST DUP3 MSTORE POP POP JUMP JUMPDEST PUSH2 0x1AEC DUP2 PUSH2 0x1FBF JUMP JUMPDEST DUP3 MSTORE POP POP JUMP JUMPDEST PUSH2 0x1AFB DUP2 PUSH2 0x201F JUMP JUMPDEST DUP3 MSTORE POP POP JUMP JUMPDEST PUSH2 0x1B0A DUP2 PUSH2 0x2031 JUMP JUMPDEST DUP3 MSTORE POP POP JUMP JUMPDEST PUSH1 0x0 PUSH2 0x1B1B DUP3 PUSH2 0x1E96 JUMP JUMPDEST PUSH2 0x1B25 DUP2 DUP6 PUSH2 0x1EA1 JUMP JUMPDEST SWAP4 POP PUSH2 0x1B35 DUP2 DUP6 PUSH1 0x20 DUP7 ADD PUSH2 0x2067 JUMP JUMPDEST PUSH2 0x1B3E DUP2 PUSH2 0x21DF JUMP JUMPDEST DUP5 ADD SWAP2 POP POP SWAP3 SWAP2 POP POP JUMP JUMPDEST PUSH1 0x0 PUSH2 0x1B54 DUP3 PUSH2 0x1E96 JUMP JUMPDEST PUSH2 0x1B5E DUP2 DUP6 PUSH2 0x1EB2 JUMP JUMPDEST SWAP4 POP PUSH2 0x1B6E DUP2 DUP6 PUSH1 0x20 DUP7 ADD PUSH2 0x2067 JUMP JUMPDEST DUP1 DUP5 ADD SWAP2 POP POP SWAP3 SWAP2 POP POP JUMP JUMPDEST PUSH1 0x0 PUSH2 0x1B87 PUSH1 0x20 DUP4 PUSH2 0x1EA1 JUMP JUMPDEST SWAP2 POP PUSH2 0x1B92 DUP3 PUSH2 0x21F0 JUMP JUMPDEST PUSH1 0x20 DUP3 ADD SWAP1 POP SWAP2 SWAP1 POP JUMP JUMPDEST PUSH1 0x0 PUSH2 0x1BAA PUSH1 0x26 DUP4 PUSH2 0x1EA1 JUMP JUMPDEST SWAP2 POP PUSH2 0x1BB5 DUP3 PUSH2 0x2219 JUMP JUMPDEST PUSH1 0x40 DUP3 ADD SWAP1 POP SWAP2 SWAP1 POP JUMP JUMPDEST PUSH1 0x0 PUSH2 0x1BCD PUSH1 0x1E DUP4 PUSH2 0x1EA1 JUMP JUMPDEST SWAP2 POP PUSH2 0x1BD8 DUP3 PUSH2 0x2268 JUMP JUMPDEST PUSH1 0x20 DUP3 ADD SWAP1 POP SWAP2 SWAP1 POP JUMP JUMPDEST PUSH1 0x0 PUSH2 0x1BF0 PUSH1 0x20 DUP4 PUSH2 0x1EA1 JUMP JUMPDEST SWAP2 POP PUSH2 0x1BFB DUP3 PUSH2 0x2291 JUMP JUMPDEST PUSH1 0x20 DUP3 ADD SWAP1 POP SWAP2 SWAP1 POP JUMP JUMPDEST PUSH1 0x0 PUSH2 0x1C13 PUSH1 0x17 DUP4 PUSH2 0x1EB2 JUMP JUMPDEST SWAP2 POP PUSH2 0x1C1E DUP3 PUSH2 0x22BA JUMP JUMPDEST PUSH1 0x17 DUP3 ADD SWAP1 POP SWAP2 SWAP1 POP JUMP JUMPDEST PUSH1 0x0 PUSH2 0x1C36 PUSH1 0x11 DUP4 PUSH2 0x1EB2 JUMP JUMPDEST SWAP2 POP PUSH2 0x1C41 DUP3 PUSH2 0x22E3 JUMP JUMPDEST PUSH1 0x11 DUP3 ADD SWAP1 POP SWAP2 SWAP1 POP JUMP JUMPDEST PUSH1 0x0 PUSH2 0x1C59 PUSH1 0x2F DUP4 PUSH2 0x1EA1 JUMP JUMPDEST SWAP2 POP PUSH2 0x1C64 DUP3 PUSH2 0x230C JUMP JUMPDEST PUSH1 0x40 DUP3 ADD SWAP1 POP SWAP2 SWAP1 POP JUMP JUMPDEST PUSH2 0x1C78 DUP2 PUSH2 0x2015 JUMP JUMPDEST DUP3 MSTORE POP POP JUMP JUMPDEST PUSH1 0x0 PUSH2 0x1C89 DUP3 PUSH2 0x1C06 JUMP JUMPDEST SWAP2 POP PUSH2 0x1C95 DUP3 DUP6 PUSH2 0x1B49 JUMP JUMPDEST SWAP2 POP PUSH2 0x1CA0 DUP3 PUSH2 0x1C29 JUMP JUMPDEST SWAP2 POP PUSH2 0x1CAC DUP3 DUP5 PUSH2 0x1B49 JUMP JUMPDEST SWAP2 POP DUP2 SWAP1 POP SWAP4 SWAP3 POP POP POP JUMP JUMPDEST PUSH1 0x0 PUSH1 0x20 DUP3 ADD SWAP1 POP PUSH2 0x1CCD PUSH1 0x0 DUP4 ADD DUP5 PUSH2 0x1AC5 JUMP JUMPDEST SWAP3 SWAP2 POP POP JUMP JUMPDEST PUSH1 0x0 PUSH1 0x40 DUP3 ADD SWAP1 POP PUSH2 0x1CE8 PUSH1 0x0 DUP4 ADD DUP6 PUSH2 0x1AC5 JUMP JUMPDEST PUSH2 0x1CF5 PUSH1 0x20 DUP4 ADD DUP5 PUSH2 0x1C6F JUMP JUMPDEST SWAP4 SWAP3 POP POP POP JUMP JUMPDEST PUSH1 0x0 PUSH1 0x20 DUP3 ADD SWAP1 POP PUSH2 0x1D11 PUSH1 0x0 DUP4 ADD DUP5 PUSH2 0x1AD4 JUMP JUMPDEST SWAP3 SWAP2 POP POP JUMP JUMPDEST PUSH1 0x0 PUSH1 0x20 DUP3 ADD SWAP1 POP PUSH2 0x1D2C PUSH1 0x0 DUP4 ADD DUP5 PUSH2 0x1AE3 JUMP JUMPDEST SWAP3 SWAP2 POP POP JUMP JUMPDEST PUSH1 0x0 PUSH1 0x20 DUP3 ADD SWAP1 POP PUSH2 0x1D47 PUSH1 0x0 DUP4 ADD DUP5 PUSH2 0x1AF2 JUMP JUMPDEST SWAP3 SWAP2 POP POP JUMP JUMPDEST PUSH1 0x0 PUSH1 0x20 DUP3 ADD SWAP1 POP PUSH2 0x1D62 PUSH1 0x0 DUP4 ADD DUP5 PUSH2 0x1B01 JUMP JUMPDEST SWAP3 SWAP2 POP POP JUMP JUMPDEST PUSH1 0x0 PUSH1 0x20 DUP3 ADD SWAP1 POP DUP2 DUP2 SUB PUSH1 0x0 DUP4 ADD MSTORE PUSH2 0x1D82 DUP2 DUP5 PUSH2 0x1B10 JUMP JUMPDEST SWAP1 POP SWAP3 SWAP2 POP POP JUMP JUMPDEST PUSH1 0x0 PUSH1 0x20 DUP3 ADD SWAP1 POP DUP2 DUP2 SUB PUSH1 0x0 DUP4 ADD MSTORE PUSH2 0x1DA3 DUP2 PUSH2 0x1B7A JUMP JUMPDEST SWAP1 POP SWAP2 SWAP1 POP JUMP JUMPDEST PUSH1 0x0 PUSH1 0x20 DUP3 ADD SWAP1 POP DUP2 DUP2 SUB PUSH1 0x0 DUP4 ADD MSTORE PUSH2 0x1DC3 DUP2 PUSH2 0x1B9D JUMP JUMPDEST SWAP1 POP SWAP2 SWAP1 POP JUMP JUMPDEST PUSH1 0x0 PUSH1 0x20 DUP3 ADD SWAP1 POP DUP2 DUP2 SUB PUSH1 0x0 DUP4 ADD MSTORE PUSH2 0x1DE3 DUP2 PUSH2 0x1BC0 JUMP JUMPDEST SWAP1 POP SWAP2 SWAP1 POP JUMP JUMPDEST PUSH1 0x0 PUSH1 0x20 DUP3 ADD SWAP1 POP DUP2 DUP2 SUB PUSH1 0x0 DUP4 ADD MSTORE PUSH2 0x1E03 DUP2 PUSH2 0x1BE3 JUMP JUMPDEST SWAP1 POP SWAP2 SWAP1 POP JUMP JUMPDEST PUSH1 0x0 PUSH1 0x20 DUP3 ADD SWAP1 POP DUP2 DUP2 SUB PUSH1 0x0 DUP4 ADD MSTORE PUSH2 0x1E23 DUP2 PUSH2 0x1C4C JUMP JUMPDEST SWAP1 POP SWAP2 SWAP1 POP JUMP JUMPDEST PUSH1 0x0 PUSH1 0x20 DUP3 ADD SWAP1 POP PUSH2 0x1E3F PUSH1 0x0 DUP4 ADD DUP5 PUSH2 0x1C6F JUMP JUMPDEST SWAP3 SWAP2 POP POP JUMP JUMPDEST PUSH1 0x0 PUSH2 0x1E4F PUSH2 0x1E60 JUMP JUMPDEST SWAP1 POP PUSH2 0x1E5B DUP3 DUP3 PUSH2 0x20C4 JUMP JUMPDEST SWAP2 SWAP1 POP JUMP JUMPDEST PUSH1 0x0 PUSH1 0x40 MLOAD SWAP1 POP SWAP1 JUMP JUMPDEST PUSH1 0x0 PUSH8 0xFFFFFFFFFFFFFFFF DUP3 GT ISZERO PUSH2 0x1E85 JUMPI PUSH2 0x1E84 PUSH2 0x219C JUMP JUMPDEST JUMPDEST PUSH1 0x20 DUP3 MUL SWAP1 POP PUSH1 0x20 DUP2 ADD SWAP1 POP SWAP2 SWAP1 POP JUMP JUMPDEST PUSH1 0x0 DUP2 MLOAD SWAP1 POP SWAP2 SWAP1 POP JUMP JUMPDEST PUSH1 0x0 DUP3 DUP3 MSTORE PUSH1 0x20 DUP3 ADD SWAP1 POP SWAP3 SWAP2 POP POP JUMP JUMPDEST PUSH1 0x0 DUP2 SWAP1 POP SWAP3 SWAP2 POP POP JUMP JUMPDEST PUSH1 0x0 PUSH2 0x1EC8 DUP3 PUSH2 0x2015 JUMP JUMPDEST SWAP2 POP PUSH2 0x1ED3 DUP4 PUSH2 0x2015 JUMP JUMPDEST SWAP3 POP DUP3 PUSH32 0xFFFFFFFFFFFFFFFFFFFFFFFFFFFFFFFFFFFFFFFFFFFFFFFFFFFFFFFFFFFFFFFF SUB DUP3 GT ISZERO PUSH2 0x1F08 JUMPI PUSH2 0x1F07 PUSH2 0x213E JUMP JUMPDEST JUMPDEST DUP3 DUP3 ADD SWAP1 POP SWAP3 SWAP2 POP POP JUMP JUMPDEST PUSH1 0x0 PUSH2 0x1F1E DUP3 PUSH2 0x2015 JUMP JUMPDEST SWAP2 POP PUSH2 0x1F29 DUP4 PUSH2 0x2015 JUMP JUMPDEST SWAP3 POP DUP2 PUSH32 0xFFFFFFFFFFFFFFFFFFFFFFFFFFFFFFFFFFFFFFFFFFFFFFFFFFFFFFFFFFFFFFFF DIV DUP4 GT DUP3 ISZERO ISZERO AND ISZERO PUSH2 0x1F62 JUMPI PUSH2 0x1F61 PUSH2 0x213E JUMP JUMPDEST JUMPDEST DUP3 DUP3 MUL SWAP1 POP SWAP3 SWAP2 POP POP JUMP JUMPDEST PUSH1 0x0 PUSH2 0x1F78 DUP3 PUSH2 0x2015 JUMP JUMPDEST SWAP2 POP PUSH2 0x1F83 DUP4 PUSH2 0x2015 JUMP JUMPDEST SWAP3 POP DUP3 DUP3 LT ISZERO PUSH2 0x1F96 JUMPI PUSH2 0x1F95 PUSH2 0x213E JUMP JUMPDEST JUMPDEST DUP3 DUP3 SUB SWAP1 POP SWAP3 SWAP2 POP POP JUMP JUMPDEST PUSH1 0x0 PUSH2 0x1FAC DUP3 PUSH2 0x1FF5 JUMP JUMPDEST SWAP1 POP SWAP2 SWAP1 POP JUMP JUMPDEST PUSH1 0x0 DUP2 ISZERO ISZERO SWAP1 POP SWAP2 SWAP1 POP JUMP JUMPDEST PUSH1 0x0 DUP2 SWAP1 POP SWAP2 SWAP1 POP JUMP JUMPDEST PUSH1 0x0 PUSH32 0xFFFFFFFF00000000000000000000000000000000000000000000000000000000 DUP3 AND SWAP1 POP SWAP2 SWAP1 POP JUMP JUMPDEST PUSH1 0x0 PUSH20 0xFFFFFFFFFFFFFFFFFFFFFFFFFFFFFFFFFFFFFFFF DUP3 AND SWAP1 POP SWAP2 SWAP1 POP JUMP JUMPDEST PUSH1 0x0 DUP2 SWAP1 POP SWAP2 SWAP1 POP JUMP JUMPDEST PUSH1 0x0 PUSH2 0x202A DUP3 PUSH2 0x2043 JUMP JUMPDEST SWAP1 POP SWAP2 SWAP1 POP JUMP JUMPDEST PUSH1 0x0 PUSH2 0x203C DUP3 PUSH2 0x2043 JUMP JUMPDEST SWAP1 POP SWAP2 SWAP1 POP JUMP JUMPDEST PUSH1 0x0 PUSH2 0x204E DUP3 PUSH2 0x2055 JUMP JUMPDEST SWAP1 POP SWAP2 SWAP1 POP JUMP JUMPDEST PUSH1 0x0 PUSH2 0x2060 DUP3 PUSH2 0x1FF5 JUMP JUMPDEST SWAP1 POP SWAP2 SWAP1 POP JUMP JUMPDEST PUSH1 0x0 JUMPDEST DUP4 DUP2 LT ISZERO PUSH2 0x2085 JUMPI DUP1 DUP3 ADD MLOAD DUP2 DUP5 ADD MSTORE PUSH1 0x20 DUP2 ADD SWAP1 POP PUSH2 0x206A JUMP JUMPDEST DUP4 DUP2 GT ISZERO PUSH2 0x2094 JUMPI PUSH1 0x0 DUP5 DUP5 ADD MSTORE JUMPDEST POP POP POP POP JUMP JUMPDEST PUSH1 0x0 PUSH2 0x20A5 DUP3 PUSH2 0x2015 JUMP JUMPDEST SWAP2 POP PUSH1 0x0 DUP3 EQ ISZERO PUSH2 0x20B9 JUMPI PUSH2 0x20B8 PUSH2 0x213E JUMP JUMPDEST JUMPDEST PUSH1 0x1 DUP3 SUB SWAP1 POP SWAP2 SWAP1 POP JUMP JUMPDEST PUSH2 0x20CD DUP3 PUSH2 0x21DF JUMP JUMPDEST DUP2 ADD DUP2 DUP2 LT PUSH8 0xFFFFFFFFFFFFFFFF DUP3 GT OR ISZERO PUSH2 0x20EC JUMPI PUSH2 0x20EB PUSH2 0x219C JUMP JUMPDEST JUMPDEST DUP1 PUSH1 0x40 MSTORE POP POP POP JUMP JUMPDEST PUSH1 0x0 PUSH2 0x2100 DUP3 PUSH2 0x2015 JUMP JUMPDEST SWAP2 POP PUSH32 0xFFFFFFFFFFFFFFFFFFFFFFFFFFFFFFFFFFFFFFFFFFFFFFFFFFFFFFFFFFFFFFFF DUP3 EQ ISZERO PUSH2 0x2133 JUMPI PUSH2 0x2132 PUSH2 0x213E JUMP JUMPDEST JUMPDEST PUSH1 0x1 DUP3 ADD SWAP1 POP SWAP2 SWAP1 POP JUMP JUMPDEST PUSH32 0x4E487B7100000000000000000000000000000000000000000000000000000000 PUSH1 0x0 MSTORE PUSH1 0x11 PUSH1 0x4 MSTORE PUSH1 0x24 PUSH1 0x0 REVERT JUMPDEST PUSH32 0x4E487B7100000000000000000000000000000000000000000000000000000000 PUSH1 0x0 MSTORE PUSH1 0x32 PUSH1 0x4 MSTORE PUSH1 0x24 PUSH1 0x0 REVERT JUMPDEST PUSH32 0x4E487B7100000000000000000000000000000000000000000000000000000000 PUSH1 0x0 MSTORE PUSH1 0x41 PUSH1 0x4 MSTORE PUSH1 0x24 PUSH1 0x0 REVERT JUMPDEST PUSH1 0x0 DUP1 REVERT JUMPDEST PUSH1 0x0 DUP1 REVERT JUMPDEST PUSH1 0x0 DUP1 REVERT JUMPDEST PUSH1 0x0 DUP1 REVERT JUMPDEST PUSH1 0x0 PUSH1 0x1F NOT PUSH1 0x1F DUP4 ADD AND SWAP1 POP SWAP2 SWAP1 POP JUMP JUMPDEST PUSH32 0x537472696E67733A20686578206C656E67746820696E73756666696369656E74 PUSH1 0x0 DUP3 ADD MSTORE POP JUMP JUMPDEST PUSH32 0x4F776E61626C653A206E6577206F776E657220697320746865207A65726F2061 PUSH1 0x0 DUP3 ADD MSTORE PUSH32 0x6464726573730000000000000000000000000000000000000000000000000000 PUSH1 0x20 DUP3 ADD MSTORE POP JUMP JUMPDEST PUSH32 0x4E6F7420656E6F75676820746F6B656E7320696E20636F6E74726163742E0000 PUSH1 0x0 DUP3 ADD MSTORE POP JUMP JUMPDEST PUSH32 0x4F776E61626C653A2063616C6C6572206973206E6F7420746865206F776E6572 PUSH1 0x0 DUP3 ADD MSTORE POP JUMP JUMPDEST PUSH32 0x416363657373436F6E74726F6C3A206163636F756E7420000000000000000000 PUSH1 0x0 DUP3 ADD MSTORE POP JUMP JUMPDEST PUSH32 0x206973206D697373696E6720726F6C6520000000000000000000000000000000 PUSH1 0x0 DUP3 ADD MSTORE POP JUMP JUMPDEST PUSH32 0x416363657373436F6E74726F6C3A2063616E206F6E6C792072656E6F756E6365 PUSH1 0x0 DUP3 ADD MSTORE PUSH32 0x20726F6C657320666F722073656C660000000000000000000000000000000000 PUSH1 0x20 DUP3 ADD MSTORE POP JUMP JUMPDEST PUSH2 0x2364 DUP2 PUSH2 0x1FA1 JUMP JUMPDEST DUP2 EQ PUSH2 0x236F JUMPI PUSH1 0x0 DUP1 REVERT JUMPDEST POP JUMP JUMPDEST PUSH2 0x237B DUP2 PUSH2 0x1FB3 JUMP JUMPDEST DUP2 EQ PUSH2 0x2386 JUMPI PUSH1 0x0 DUP1 REVERT JUMPDEST POP JUMP JUMPDEST PUSH2 0x2392 DUP2 PUSH2 0x1FBF JUMP JUMPDEST DUP2 EQ PUSH2 0x239D JUMPI PUSH1 0x0 DUP1 REVERT JUMPDEST POP JUMP JUMPDEST PUSH2 0x23A9 DUP2 PUSH2 0x1FC9 JUMP JUMPDEST DUP2 EQ PUSH2 0x23B4 JUMPI PUSH1 0x0 DUP1 REVERT JUMPDEST POP JUMP JUMPDEST PUSH2 0x23C0 DUP2 PUSH2 0x2015 JUMP JUMPDEST DUP2 EQ PUSH2 0x23CB JUMPI PUSH1 0x0 DUP1 REVERT JUMPDEST POP JUMP INVALID LOG2 PUSH5 0x6970667358 0x22 SLT KECCAK256 DIV DUP11 0xEE 0xBF 0x2F PUSH16 0xC4B06F18DC115435D7FB653C2E501467 0xE0 0xA8 0xCC DUP1 0xC5 0xC1 0x25 0xD5 0xAB ISZERO PUSH5 0x736F6C6343 STOP ADDMOD SMOD STOP CALLER "
		},
		"gasEstimates": {
			"creation": {
				"codeDepositCost": "1844000",
				"executionCost": "infinite",
				"totalCost": "infinite"
			},
			"external": {
				"DEFAULT_ADMIN_ROLE()": "379",
				"ORACLE()": "352",
				"WeirdPunksContract()": "2622",
				"WeirdToken()": "2646",
				"claim()": "infinite",
				"claimableForIDs(uint256[])": "infinite",
				"genesisTimestamp()": "2517",
				"getRoleAdmin(bytes32)": "infinite",
				"grantRole(bytes32,address)": "infinite",
				"hasRole(bytes32,address)": "3251",
				"lastClaim(uint256)": "infinite",
				"lastClaimed(uint256)": "infinite",
				"oracleClaimEthTokens(address,uint256[])": "infinite",
				"owner()": "2611",
				"renounceOwnership()": "30397",
				"renounceRole(bytes32,address)": "infinite",
				"revokeRole(bytes32,address)": "infinite",
				"setTokensPerSecond(uint256)": "24826",
				"supportsInterface(bytes4)": "751",
				"tokensPerSecond()": "2496",
				"transferOwnership(address)": "30855",
				"withdrawTokens()": "infinite"
			}
		},
		"methodIdentifiers": {
			"DEFAULT_ADMIN_ROLE()": "a217fddf",
			"ORACLE()": "38013f02",
			"WeirdPunksContract()": "92c36841",
			"WeirdToken()": "153252ec",
			"claim()": "4e71d92d",
			"claimableForIDs(uint256[])": "83f96abf",
			"genesisTimestamp()": "cacf66ab",
			"getRoleAdmin(bytes32)": "248a9ca3",
			"grantRole(bytes32,address)": "2f2ff15d",
			"hasRole(bytes32,address)": "91d14854",
			"lastClaim(uint256)": "3d3728b5",
			"lastClaimed(uint256)": "52049ace",
			"oracleClaimEthTokens(address,uint256[])": "5046bd3e",
			"owner()": "8da5cb5b",
			"renounceOwnership()": "715018a6",
			"renounceRole(bytes32,address)": "36568abe",
			"revokeRole(bytes32,address)": "d547741f",
			"setTokensPerSecond(uint256)": "b713f8cf",
			"supportsInterface(bytes4)": "01ffc9a7",
			"tokensPerSecond()": "4d8d9e92",
			"transferOwnership(address)": "f2fde38b",
			"withdrawTokens()": "8d8f2adb"
		}
	},
	"abi": [
		{
			"inputs": [
				{
					"internalType": "address",
					"name": "_oracleAddress",
					"type": "address"
				},
				{
					"internalType": "uint256",
					"name": "_tokensPerSecond",
					"type": "uint256"
				},
				{
					"internalType": "uint256",
					"name": "_genesisTimestamp",
					"type": "uint256"
				}
			],
			"stateMutability": "nonpayable",
			"type": "constructor"
		},
		{
			"anonymous": false,
			"inputs": [
				{
					"indexed": true,
					"internalType": "address",
					"name": "previousOwner",
					"type": "address"
				},
				{
					"indexed": true,
					"internalType": "address",
					"name": "newOwner",
					"type": "address"
				}
			],
			"name": "OwnershipTransferred",
			"type": "event"
		},
		{
			"anonymous": false,
			"inputs": [
				{
					"indexed": true,
					"internalType": "bytes32",
					"name": "role",
					"type": "bytes32"
				},
				{
					"indexed": true,
					"internalType": "bytes32",
					"name": "previousAdminRole",
					"type": "bytes32"
				},
				{
					"indexed": true,
					"internalType": "bytes32",
					"name": "newAdminRole",
					"type": "bytes32"
				}
			],
			"name": "RoleAdminChanged",
			"type": "event"
		},
		{
			"anonymous": false,
			"inputs": [
				{
					"indexed": true,
					"internalType": "bytes32",
					"name": "role",
					"type": "bytes32"
				},
				{
					"indexed": true,
					"internalType": "address",
					"name": "account",
					"type": "address"
				},
				{
					"indexed": true,
					"internalType": "address",
					"name": "sender",
					"type": "address"
				}
			],
			"name": "RoleGranted",
			"type": "event"
		},
		{
			"anonymous": false,
			"inputs": [
				{
					"indexed": true,
					"internalType": "bytes32",
					"name": "role",
					"type": "bytes32"
				},
				{
					"indexed": true,
					"internalType": "address",
					"name": "account",
					"type": "address"
				},
				{
					"indexed": true,
					"internalType": "address",
					"name": "sender",
					"type": "address"
				}
			],
			"name": "RoleRevoked",
			"type": "event"
		},
		{
			"anonymous": false,
			"inputs": [
				{
					"indexed": false,
					"internalType": "address",
					"name": "user",
					"type": "address"
				}
			],
			"name": "checkEthTokens",
			"type": "event"
		},
		{
			"inputs": [],
			"name": "DEFAULT_ADMIN_ROLE",
			"outputs": [
				{
					"internalType": "bytes32",
					"name": "",
					"type": "bytes32"
				}
			],
			"stateMutability": "view",
			"type": "function"
		},
		{
			"inputs": [],
			"name": "ORACLE",
			"outputs": [
				{
					"internalType": "bytes32",
					"name": "",
					"type": "bytes32"
				}
			],
			"stateMutability": "view",
			"type": "function"
		},
		{
			"inputs": [],
			"name": "WeirdPunksContract",
			"outputs": [
				{
					"internalType": "contract WeirdPunks",
					"name": "",
					"type": "address"
				}
			],
			"stateMutability": "view",
			"type": "function"
		},
		{
			"inputs": [],
			"name": "WeirdToken",
			"outputs": [
				{
					"internalType": "contract ERC20",
					"name": "",
					"type": "address"
				}
			],
			"stateMutability": "view",
			"type": "function"
		},
		{
			"inputs": [],
			"name": "claim",
			"outputs": [],
			"stateMutability": "nonpayable",
			"type": "function"
		},
		{
			"inputs": [
				{
					"internalType": "uint256[]",
					"name": "ownedIDs",
					"type": "uint256[]"
				}
			],
			"name": "claimableForIDs",
			"outputs": [
				{
					"internalType": "uint256",
					"name": "",
					"type": "uint256"
				}
			],
			"stateMutability": "view",
			"type": "function"
		},
		{
			"inputs": [],
			"name": "genesisTimestamp",
			"outputs": [
				{
					"internalType": "uint256",
					"name": "",
					"type": "uint256"
				}
			],
			"stateMutability": "view",
			"type": "function"
		},
		{
			"inputs": [
				{
					"internalType": "bytes32",
					"name": "role",
					"type": "bytes32"
				}
			],
			"name": "getRoleAdmin",
			"outputs": [
				{
					"internalType": "bytes32",
					"name": "",
					"type": "bytes32"
				}
			],
			"stateMutability": "view",
			"type": "function"
		},
		{
			"inputs": [
				{
					"internalType": "bytes32",
					"name": "role",
					"type": "bytes32"
				},
				{
					"internalType": "address",
					"name": "account",
					"type": "address"
				}
			],
			"name": "grantRole",
			"outputs": [],
			"stateMutability": "nonpayable",
			"type": "function"
		},
		{
			"inputs": [
				{
					"internalType": "bytes32",
					"name": "role",
					"type": "bytes32"
				},
				{
					"internalType": "address",
					"name": "account",
					"type": "address"
				}
			],
			"name": "hasRole",
			"outputs": [
				{
					"internalType": "bool",
					"name": "",
					"type": "bool"
				}
			],
			"stateMutability": "view",
			"type": "function"
		},
		{
			"inputs": [
				{
					"internalType": "uint256",
					"name": "id",
					"type": "uint256"
				}
			],
			"name": "lastClaim",
			"outputs": [
				{
					"internalType": "uint256",
					"name": "",
					"type": "uint256"
				}
			],
			"stateMutability": "view",
			"type": "function"
		},
		{
			"inputs": [
				{
					"internalType": "uint256",
					"name": "",
					"type": "uint256"
				}
			],
			"name": "lastClaimed",
			"outputs": [
				{
					"internalType": "uint256",
					"name": "",
					"type": "uint256"
				}
			],
			"stateMutability": "view",
			"type": "function"
		},
		{
			"inputs": [
				{
					"internalType": "address",
					"name": "user",
					"type": "address"
				},
				{
					"internalType": "uint256[]",
					"name": "tokenIDs",
					"type": "uint256[]"
				}
			],
			"name": "oracleClaimEthTokens",
			"outputs": [],
			"stateMutability": "nonpayable",
			"type": "function"
		},
		{
			"inputs": [],
			"name": "owner",
			"outputs": [
				{
					"internalType": "address",
					"name": "",
					"type": "address"
				}
			],
			"stateMutability": "view",
			"type": "function"
		},
		{
			"inputs": [],
			"name": "renounceOwnership",
			"outputs": [],
			"stateMutability": "nonpayable",
			"type": "function"
		},
		{
			"inputs": [
				{
					"internalType": "bytes32",
					"name": "role",
					"type": "bytes32"
				},
				{
					"internalType": "address",
					"name": "account",
					"type": "address"
				}
			],
			"name": "renounceRole",
			"outputs": [],
			"stateMutability": "nonpayable",
			"type": "function"
		},
		{
			"inputs": [
				{
					"internalType": "bytes32",
					"name": "role",
					"type": "bytes32"
				},
				{
					"internalType": "address",
					"name": "account",
					"type": "address"
				}
			],
			"name": "revokeRole",
			"outputs": [],
			"stateMutability": "nonpayable",
			"type": "function"
		},
		{
			"inputs": [
				{
					"internalType": "uint256",
					"name": "_tokensPerSecond",
					"type": "uint256"
				}
			],
			"name": "setTokensPerSecond",
			"outputs": [],
			"stateMutability": "nonpayable",
			"type": "function"
		},
		{
			"inputs": [
				{
					"internalType": "bytes4",
					"name": "interfaceId",
					"type": "bytes4"
				}
			],
			"name": "supportsInterface",
			"outputs": [
				{
					"internalType": "bool",
					"name": "",
					"type": "bool"
				}
			],
			"stateMutability": "view",
			"type": "function"
		},
		{
			"inputs": [],
			"name": "tokensPerSecond",
			"outputs": [
				{
					"internalType": "uint256",
					"name": "",
					"type": "uint256"
				}
			],
			"stateMutability": "view",
			"type": "function"
		},
		{
			"inputs": [
				{
					"internalType": "address",
					"name": "newOwner",
					"type": "address"
				}
			],
			"name": "transferOwnership",
			"outputs": [],
			"stateMutability": "nonpayable",
			"type": "function"
		},
		{
			"inputs": [],
			"name": "withdrawTokens",
			"outputs": [],
			"stateMutability": "nonpayable",
			"type": "function"
		}
	]
}